:1000000000000320D10100004DFC020005FC0200AD
:1000100005FC020005FC020005FC020005FC0200D4
:1000200005FC020005FC020005FC02004DFC02007C
:100030004DFC020005FC0200E9EA0200EDEA0200C4
:100040004DFC02004DFC02004DFC02004DFC020084
:100050004DFC02004DFC02004DFC02004DFC020074
:100060004DFC02004DFC02004DFC02004DFC020064
:100070004DFC02004DFC02004DFC02004DFC020054
:100080004DFC02004DFC02004DFC02004DFC020044
:100090004DFC02004DFC02004DFC02004DFC020034
:1000A0004DFC02004DFC02004DFC02004DFC020024
:1000B0004DFC02004DFC02004DFC0200810D0300CE
:1000C0004DFC02004DFC02004DFC02004DFC020004
:1000D0004DFC02004DFC02004DFC02004DFC0200F4
:1000E0004DFC02004DFC02004DFC02004DFC0200E4
:1000F0004DFC02004DFC02004DFC02004DFC0200D4
:10010000ED24030001250300152503002925030024
:100110004DFC0200C91003004DFC02004DFC020022
:100120004DFC02004DFC02004DFC02004DFC0200A3
:100130004DFC02004DFC02004DFC02004DFC020093
:100140004DFC02004DFC02004DFC02004DFC020083
:100150004DFC02004DFC02004DFC02004DFC020073
:100160004DFC02004DFC02004DFC02004DFC020063
:100170004DFC02004DFC02004DFC02004DFC020053
:100180004DFC02004DFC02004DFC02004DFC020043
:100190004DFC02004DFC02004DFC02004DFC020033
:1001A0004DFC02004DFC02004DFC02004DFC020023
:1001B0004DFC02004DFC02004DFC02004DFC020013
:1001C0004DFC02004DFC02004DFC02004DFC020003
:1001D0005C4B4CF2205210B51A804DF628121A8052
:1001E00000BF00BF2FF036FD574B4FF030621A6052
:1001F000564A9A60564ADA60564B4FF470021A60BB
:10020000554B564A1A60564B1A78110703D51A787F
:1002100042F008021A70534B5349AA221A70534AEB
:10022000534B8B4204D252F8040F43F8040BF8E707
:10023000504B514900228B4202D243F8042BFAE77B
:100240004E494F4A002352F8230041F8230001335E
:10025000742BF8D14B4B4C4A802103F8011B93427D
:10026000FBD14A4B454A1A60494B8A221A70A3F5C2
:10027000805324225A70A0221A709A799207FCD5D2
:100280009A79D406FCD4434A937903F00C03082BE3
:10029000FAD1414B60221A7002331A78802AFCD1BD
:1002A0003C4B01221A715D225A719A799006FCD555
:1002B0009979384A4906FBD5384B394919600021EC
:1002C000596020231370937903F00C030C2BFAD19F
:1002D000344B354A1A60354A354C136813F4807331
:1002E00003D123604FF4A8531360324B324A1A6093
:1002F00000225A60072243F8042C304AC3F80C2D20
:1003000062B630F079F82368DA0705D52C482FF06B
:100310002FFE2C4B2C4A1A602C4B1B785B0609D500
:10032000284C294B22689A4204D125482FF020FE00
:10033000002323602FF094FC34F0B2FB2FF086FBF7
:10034000FEE700BF0E20054030800440823F0400DD
:100350000100002B88ED00E0002008E0030000858C
:1003600002D0074000E007402027FF1F607604000E
:10037000400CFF1F2027FF1FC889FF1F0002FF1F1F
:100380000000000000E400E064E400E008ED00E0AC
:10039000005006400040064001E007404480044011
:1003A0000000060204800440C010070010D0034083
:1003B00014D0034014E000E01FBF02000000202022
:1003C0002D1740641CE00340A5C3945A00F0074079
:1003D000FFFFFFFFFFFFFFFFFFFFFFFFFFFFFFFF2D
:1003E000FFFFFFFFFFFFFFFFFFFFFFFFFFFFFFFF1D
:1003F000FFFFFFFFFFFFFFFFFFFFFFFFFFFFFFFF0D
:10040000FFFFFFFFFFFFFFFFFFFFFFFFDEF9FFFF23
:1004100010B5054C237833B9044B13B10448AFF33E
:1004200000800123237010BD2027FF1F0000000063
:100430005C760400084B10B51BB108490848AFF3BF
:1004400000800848036803B910BD074B002BFBD0A0
:10045000BDE81040184700BF000000002427FF1F20
:100460005C7604002027FF1F000000002DE9F04FFC
:1004700089B00646139D149C0394012D169C049488
:100480009DF84890DDF854B00F4690461C4600F0A9
:100490009C80032B64DD032A00F3A680B3B2BAB2BA
:1004A000059303F1010A531C1BB2A4B206920793F1
:1004B0001A46ADB20FFA8AFAA31E009551461BB236
:1004C00059482BF08FF81FFA88F808F1FF3536B23B
:1004D0003FB22DB2B9F1000F5BD01FFA8BFB04F1D4
:1004E000FF39CDF800B02B463A4631464E480FFA58
:1004F00089F92BF087F8CDF800B04B463A463146E3
:1005000049482BF06FF8069BBDF80CB01C44013C29
:1005100024B22B4651462246CDF800B042482BF07B
:1005200071F8059BBDF81050079ACDF800B09844BB
:1005300008F1FF380FFA88F84B4641463A482BF04D
:1005400051F83A4641462B4637482AF0BFFE364816
:100550002B462246314609B0BDE8F04F2AF0B6BE20
:100560009CD183B28AB2059303F1010A531C1BB2DA
:100570001FFA88F80692ADB20FFA8AFA1A46079364
:10058000A8F10203009551461BB227482BF03AF818
:100590009BE7BDF80C30039300933A462B46314657
:1005A000214804F1FF392BF02DF80FFA89F9039B4C
:1005B00000933A464B4631461B482BF013F8069BF6
:1005C0001C44013C1FFA8BFBA2E783B28AB203F101
:1005D000010A0593531C1BB206921FFA88F8A4B2B5
:1005E0000FFA8AFA079370E78AB29CB2114683B277
:1005F000059303F1010A0B4601331BB206921FFA61
:1006000088F8A21E1846ADB212B20FFA8AFA079302
:10061000A8F102038DE82400514602461BB20248AD
:100620002BF098F951E700BF5881FF1F2DE9F047E3
:10063000161E9DF82070099DDDF828E0DDF82CC01D
:10064000DDF830A011DD002B0FDD012E0FD0012BC6
:1006500019D0CDF830A0CDF82CC0CDF828E0099500
:100660000897BDE8F047FFF701BFBDE8F087012D0F
:10067000FBD0ADB208950AB21BB201B2BDE8F0479B
:1006800007482AF0AFBF012DEFD0ADB2089533B2C5
:100690000AB2BDE8F04701B201482AF0B3BF00BF7B
:1006A0005881FF1F2DE9F04F85B004461F460020FA
:1006B0001BB2009301900DF140090F98039099E847
:1006C000000E0D46164613B20C489DF838800AB24B
:1006D00021B22CF055FF03980F90BB1EB21E691C6F
:1006E000601CCDF848B0CDF844A0CDF84090CDF8CE
:1006F000388005B0BDE8F04FFFF798BF5881FF1F65
:1007000070B58AB044F208269DF83C4000944FF63C
:10071000FF7548F210440494019403960295144620
:1007200005460E46FFF7BEFF0E9906A82EF0A0FC68
:10073000164B06991648002908BF194600222EF0CC
:1007400009F80138201A00EBD07040100328CCBF04
:1007500080B204204119F21C12B209B20C482DF0EB
:10076000D3FF06A82EF030FC002109482DF0EEFF43
:10077000012107482DF0E4FF0E9905482EF05CFAA0
:1007800003482EF07FFA0AB070BD00BF227004004B
:100790005881FF1F2DE9F0472DED028B86B0B0EE9A
:1007A000408A9DF844709DF840A0F0EE608A814632
:1007B000884615461E46002F5BD1043D07EE905A31
:1007C000B8EEE77AF4EEC88AC7EE287AF1EE10FAAE
:1007D000D4BFB0EE680AB0EE480AB5EE400A9FED0D
:1007E0002E7AF1EE10FA98BFB0EE470A27EE800A93
:1007F000FDEEC07A17EE904A002C1DDD44F208236E
:10080000BAF1000F48F2104118BF184644F2FF72C7
:1008100012BF4FF482630A46002000218DE80A00CF
:1008200002920390049317EE902A331F08F10201FD
:1008300009F10200FFF7FAFE27B106B0BDEC028B0A
:10084000BDE8F087A4B209F102092B1B04EB0901F2
:1008500008F10202043E1148119736B21BB209B2E8
:1008600012B2109606B0BDEC028BBDE8F0472BF03B
:1008700071B848F2104444F2082E04944FF6FF7405
:10088000CDF80CE002944FF0000E01248DE81040EA
:10089000FFF708FF91E700BF000000005881FF1F2D
:1008A00070B586B048F2104344F208264FF6FF7543
:1008B0000124049301930396029500940223FFF709
:1008C000B5FE06B070BD00BF2DE9F0410E4C0F4DD6
:1008D000E561984606460F462046012115462DF053
:1008E0002FFF1FFA88F120462DF030FF3AB231B2C7
:1008F00020462DF009FF294620462EF09DF9044B95
:10090000E361BDE8F08100BF5881FF1F5C6E03000A
:10091000E46C03002DE9F047284C294DE5610E46B3
:100920000546012120469A4617461FFA86F82DF003
:1009300007FFBDF8201020462DF008FF0FFA85F9BB
:1009400008F1FF3212B2494620462DF0DDFEADB26D
:10095000394620462EF070F936B2691C324609B28B
:1009600020462DF0D1FE394620462EF065F908F1DB
:10097000010212B2494620462DF0C6FE39462046F5
:100980002EF05AF9691E324609B220462DF0BCFEFF
:10099000394620462EF050F91FFA8AF120462DF0F4
:1009A000D5FE3246494620462DF0AEFE3946204659
:1009B0002EF042F9034BE361BDE8F0875881FF1F39
:1009C0005C6E0300E46C030010B582B01BB2BDF88E
:1009D00010400093019413B20AB201B202482AF007
:1009E000B9FF02B010BD00BF5881FF1F2DE9F04FC5
:1009F0008BB00546169E9DF85C400794012E0C4670
:100A00001746069309D0B2B21BB2019200930AB204
:100A10003BB201B247482AF09DFF159B9E426DD024
:100A2000454B149A9A4269D0E9194B1E48BF8B1D59
:100A3000DA10424B002D03EA05032846B8BFE81D33
:100A4000002BA2EBE00B66DB3C4AFF200A4018417A
:100A5000C1B2002A089163DB4FF47F41EB1A41FADF
:100A600002F20493D3B20993069B002B46DD0023C8
:100A700002940593079B002B43D0304B059A1340FB
:100A8000002B43DB149ABBF1000FD35C039328DBEC
:100A9000089EBDF854A04FF00008D84545D0049BEF
:100AA000BDF9089003EBC807039BBFB21E400024AA
:100AB000802502E00134082C0DD035424FEA55055F
:100AC000F8D0391909B253464A461A4801342AF077
:100AD000FDFB082CF1D108F10108C3454FF0FF06DA
:100AE000DBDA059B01331C46059310F08BF8029B63
:100AF00001330293069B1A46A242BBD10BB0BDE85C
:100B0000F08F0E4B029A1340002BBBDA013B63F0CF
:100B100007030133B6E7013B63F00703013393E7B3
:100B2000013A62F00702013296E7099B002BB6D02A
:100B30001E40B4E75881FF1FE067030007000080F4
:100B40002DE9F04F8BB0002498461BB281460E462B
:100B500015469DF85C700093019413B20AB201B27D
:100B60006B4808971FFA86FB2CF00AFD1FFA89F2E2
:100B7000A8F102000992511C00B24FF482670BF1F8
:100B80000102AB1E09B212B200901BB2019760487D
:100B9000DFF880A109EB050707972AF0DBFEF71CB9
:100BA0000122079802923946434603220394019496
:100BB000CDF800A0FFF71AFF09F103090122029204
:100BC000032303940194CDF800A048462A4606EB7F
:100BD0000801FFF70BFF089B002B6FD04FF6FF7A41
:100BE00044F28F23102200940493019303920D2367
:100BF000A5F1120239464846CDF808A0FFF752FD8C
:100C0000012143482DF09CFD099941480BF1060252
:100C1000083112B209B22DF077FD51463C482DF053
:100C200095FD14993A482EF007F839482EF02AF825
:100C30000094079CCDF808A048F2104B0D2344F215
:100C4000082239460392A4F110001A46CDF810B0DC
:100C5000CDF804B0FFF726FD44F208214FF6082234
:100C600007230391012100910192CDF810B0CDF836
:100C700008A0A4F10D001A46B11DFFF7F7FB159B64
:100C8000CBB1A3F10203B3FA83F35B0948F2104E30
:100C900044F208274FF6FF740093169B0193AA1F96
:100CA000A8F1150306F112014846CDF810E00397AC
:100CB0000294FFF7F7FC0BB0BDE8F08F08990091A4
:100CC00044F28F234FF6FF741022394604930193A8
:100CD00003920D23AA1F48460294FFF7E3FC01216B
:100CE0000B482DF02DFD099909480BF1060208313A
:100CF00012B209B22DF008FD214605482DF026FD5F
:100D0000149903482DF098FF01482DF0BBFFB6E77A
:100D10005881FF1FE4A603002DE9F04F89B08A46F1
:100D2000129C0693E31D0393139BCDF81CA0002790
:100D3000DDF850B0169E494DDDF854A0049004F142
:100D4000FF3905925C1E3946BC4619F8018F14F82C
:100D500001EFA5F12003802206E0C1B21E6004333A
:100D6000AB424FEA520212D01EEA020F01F101001B
:100D7000F3D118EA020F0CF1010052D0C3F800A021
:100D80000433AB425FFA80FC4FEA5202ECD103F12C
:100D90002005039B9945D8D1BC45DDF81CA058D946
:100DA0008C4558D20699059D049C2D480BB20093A2
:100DB0000B46B2B2534401929B460FFA8AF22BB211
:100DC00021B22AF0C7FDDA4538DA29462144DFF896
:100DD0009890CDF80CB00F46A346BB4526DA214DBE
:100DE0000AEA0505002D2FDBED005C460FFA8AF8B4
:100DF00009E02B4459F823309E429BB201D02AF0DF
:100E000065FABC4212D0174B15482340002B21B283
:100E1000424604F10104ECDA013B63F007030133BD
:100E2000E7E70137FFB2C3F800B098E71AF00F0FF9
:100E300007D0039B0AF1010A9A45CED109B0BDE85B
:100E4000F08F0FF0DFFEF4E7013D65F00705013597
:100E5000CAE75E46A6E7FCD9159EA3E75C27FF1FFD
:100E60005881FF1F070000803C27FF1F2DE9F04F2E
:100E700087B01478049201909DF8402003914FEAC6
:100E8000530A002C43D1002A3ED0531EDBB201335B
:100E90001FFA80FB0593DFF8449102940BF10103E4
:100EA00001940093BAF1000F25D0019B039A9F187B
:100EB000049B029A3FB203EB0208002618F8015F78
:100EC00045487400A4B22B1104EB0B0109B239F8A8
:100ED00023303A462AF0FAF9009B3F4805F00F0507
:100EE000E118013639F8253009B23A462AF0EEF910
:100EF000F3B29A45E2D8029A019B52440292059AB3
:100F0000013393420193CDD107B0BDE8F08F012C9E
:100F1000FAD1D90812FB01F10131002AF4D0531E95
:100F20004FF0000BDBB20133A0465D465C46CDF8C6
:100F300000B0DDF810B005930291BAF1000F1ED099
:100F4000039B009A13441BB20493029B00260BEBF5
:100F500003071DB91BF8084008F10108220617F81D
:100F6000019B2AD46400E4B2230614D40136F3B200
:100F7000640002359A45E4B205F00705E9D8029A03
:100F8000009B52440292059A013393420093D4D1BC
:100F900007B0BDE8F08F019B039A0F48591C009BD6
:100FA00009F00F099A180D4B01EB460133F829306F
:100FB00009B212B22AF08AF9D8E7019A064802EB80
:100FC00046014FEA2913054A09B232F82330049A40
:100FD0002AF07CF9C6E700BF5881FF1FFC6D0300B3
:100FE0002DE9F04F8FB015789DF860609DF8644052
:100FF000002D7CD1002C7AD01F460493631EDBB2F7
:101000000D917108924609914A1E591CC7F3073386
:10101000D2B20393C7F303130A910593511C07F04F
:101020000F03C7F303220C90AB460B910795089270
:101030000693CDF800A0099B002B50D0079B0D9A7A
:10104000BDF830900B99DFF8B0809F18009A1346D6
:101050005B4401EB0B0AA9F102010193029109F132
:10106000FF393FB21E46924428E0069A05999942FC
:1010700008BF1346039AAA422FD0069A0599A9429F
:1010800008BF1546009A1B4838F82330B4B2CBEBA2
:101090000401891A029A02EB410109B23A462AF088
:1010A00015F9019B1348E11A09EB410109B238F81F
:1010B00025303A462AF00AF9564510D016F8015F55
:1010C000049A2B0905F00F05002ADBD0039A9A42F7
:1010D000CBD1039A089BAA42CFD1089DD2E7099AA7
:1010E000079B93440A9A013393420793A3D10FB00D
:1010F000BDE8F08F5881FF1FFC6D030008B5016843
:10110000044B0548002908BF194600222DF022FB98
:10111000013808BD227004005881FF1F08B5002166
:10112000092022F017FB00B908BD022240F6AC519D
:101130000520BDE808402DF05DBE00BF08B50021C8
:10114000092022F007FB00B908BD022240F6B831A1
:101150000520BDE808402DF04DBE00BF08B50021B8
:10116000092022F0F7FA00B908BD02224FF4FA6113
:101170000520BDE808402DF03DBE00BF10B50021A0
:101180000446092022F0E6FA60B1002C41F2040185
:101190004FF0020208BF4FF47A610520BDE810400D
:1011A0002DF028BE10BD00BF10B500210446092057
:1011B00022F0D0FA60B141F2941141F23013002CC8
:1011C00008BF194602220520BDE810402DF012BECE
:1011D00010BD00BF2DE9F04F8BB0804609910B2068
:1011E000002192461C4622F0B5FA002106460C204A
:1011F00022F0B0FA002107460D2022F0ABFA0021C0
:1012000081460E2022F0A6FA002183460F2022F00C
:10121000A1FA354D354B55F8292053F8200053F8E5
:101220002B1055F8273055F82650019000260091D4
:101230000492039352462346099902954046059627
:10124000FFF76AFD3146102022F084FA012802D00F
:101250000BB0BDE8F08F099BDFF898B04FF0BA09EA
:101260002344089335463746CDF8189009F14603D4
:10127000DBB20793069A089B9342E9DDCDF81890FC
:101280006B2412E02B466D081F420BD0A04508EBE3
:101290000A0307DC9C4205DA099B4B4502DC089BEC
:1012A0004B4518DC0134EB2C09D0A4F16B035A0731
:1012B000E8D11BF80670402501368023E4E7079B40
:1012C0001B0705D009F10109B9F59B7FCED1BFE716
:1012D0000FF098FCF6E700230FFA89F221B20448D8
:1012E00029F0F4FFDEE700BFFC6D0300ECA603006D
:1012F0005881FF1F709E03002DE9F04F052397B022
:10130000013BFDD100210C465548DFF864B1DFF800
:1013100064A12AF05BFDA1462546A0462646234649
:101320002746A2B2D10700F1918052081BF8027043
:101330003A09002B6AD102F007014A48415C1207C2
:101340003AF821805FD4012633462B44E02B65DC3C
:1013500005F1080109B21D4609F11A02CDF8008015
:1013600012B233463E482AF04DF9E02D71D00023E9
:10137000013445F214329442D3D106A83A492DF0F3
:1013800063FE0A2202A801212DF0A4FE02A906A8EC
:101390002DF072FF35492DF077FF0A220446012116
:1013A0000AA82DF097FE0AA920462DF065FF2F49C7
:1013B0002DF06AFF0A22044601210EA82DF08AFEB4
:1013C0000EA920462DF058FF014612A82DF050FE20
:1013D00012AA44F208234FF49D710020FFF774FA1B
:1013E00012A82DF0F1FD0EA82DF0EEFD0AA82DF0AB
:1013F000EBFD02A82DF0E8FD06A82DF0E5FD17B0E5
:10140000BDE8F08F16010133DBB2B1E7012BF9D053
:101410001644F6B233462B44E02B99DDA9B2C1F154
:10142000E00309F11A022035083109B21BB212B2E9
:101430000B48CDF800802E442AF0E4F8F6B20120E3
:10144000814435462EF086FF082185E707F00F021C
:101450006FE70120002581442EF07CFF2B4687E7B3
:101460005881FF1FBC6D0300AC6D030058F00300F2
:10147000806E0300FC6D03002DE9F04F85B0002560
:1014800002900391AB46AA462F462C462B46A9460E
:10149000AAB2D1075CD452082F4911F802904FEA42
:1014A0001912002B31D12D4802F007011207415CBF
:1014B0002B4830F821B025D4012423463B44BE2BD1
:1014C0002BDCBDF80880BDF80C60B9B21F4606EBF6
:1014D0000A024144234612B209B2CDF800B02148B5
:1014E0002AF090F8BE2F03BF00270AF1010A3B46FD
:1014F0000023013540F6C2429542C9D105B0BDE88E
:10150000F08F14010133DBB2F3E7012BF9D014445F
:10151000E4B223463B44BE2BD3DDBDF80880BDF8C2
:101520000C60CDF800B0BBB2423708EB030106EB0C
:101530000A023C44C3F1BE0309B21BB212B209480D
:10154000E4B22AF05FF80AF1010A27460021BEE75B
:1015500009F00F02A5E700BF0C980300D46D03004B
:10156000FC6D03005881FF1F2DE9F04F814685B0C7
:101570008A46184647491E4617462DF0B7FE10B159
:1015800005B0BDE8F08F054601214348DFF8108122
:101590002DF0D6F8BDF83C103F482DF0D7F8314675
:1015A00068462DF065FD00993B48002908BF41467B
:1015B0002A462DF0CFF8441E68462DF005FDA742BF
:1015C00017DB0E9B012B60D0022B56D1391B002953
:1015D000ACBF494409F1000109B20FFA8AF22E4862
:1015E0002DF092F831462C482DF026FB05B0BDE8D1
:1015F000F08F2C461CE02DF0BDFE017868462DF0E2
:101600007DFD00992448002908BF414600222DF0A5
:10161000A1F8834668462DF0D7FC0BF1FF33DBB20F
:10162000E918BA1F914203F101030ADA1D4401349B
:10163000214630462DF09EFE037821463046002B91
:10164000D9D10FFA8AF20FFA89F113482DF05CF81C
:10165000002554B1294630462DF08CFE0135017825
:101660000D482DF009F8AC42F4D101220B490A488B
:101670002DF0CCFA05B0BDE8F08F0FFA8AF20FFA20
:1016800089F105482DF040F8ACE7391B01EBD17129
:1016900049109CE734C303005881FF1FB86D030055
:1016A000227004002DE9F04FADF51D7D00238380ED
:1016B00005900E46174619460DF276200DF11E03D1
:1016C00023F8061C23F8041C23F8021C0633984256
:1016D000F6D10021584820F0B5FBA6F10F02A7F182
:1016E0000F0344F28F2912B21BB2049236B2039355
:1016F0003FB2CA4648F210484FF01E0B1E23039A11
:1017000004994E48CDF80480CDF800B02AF022F9B3
:10171000102300933A460523314648482BF014F82D
:101720000121454820F08EFB0F2425B22B463A4676
:1017300031464248CDF800A02AF08AFE32202EF031
:1017400009FE2B463A4631463C48CDF800802AF047
:101750007FFE394820F098FA013CA4B208B1052C6C
:10176000E3D1354820F090FA0028C7D000250020AA
:1017700000212C460BE0642DC3F3C70035D032F0B6
:10178000D1FD41EC100B31F013F851EC100B00229D
:101790002B4B32F07BFC33F0DBF80FFA80FB3A4640
:1017A0005B4631462548CDF800902AF051FE06AB45
:1017B00005EB450003EB40001F4927F099F90A208B
:1017C0002EF0C8FD5B463A4631461C48CDF80080F5
:1017D0002AF03EFE184820F057FA0134194BE4B2C3
:1017E000A3FB042301350028C5D1632C84D94FF411
:1017F00080633A4631460093104805232AF0A4FF3F
:10180000002206AB11469CADB3F90040B3F90200CB
:1018100006339D4221440244F6D10B4BA3FB010148
:101820000598A3FB02235B094A09028043800DF55A
:101830001D7DBDE8F08F00BFE081FF1F5881FF1FB5
:1018400000001840CDCCCCCC1F85EB512DE9F04FDA
:10185000A1B003AB089304AB0993DFF82C9301AB61
:101860001CAC079348F21041BA48002501262AF023
:10187000ADFAB94920462DF0E7FB2346F02242217C
:10188000284601950096FFF76FFE20462DF09CFB41
:10189000B24920462DF0D8FB2346F0224A212846A3
:1018A00001950096FFF760FE20462DF08DFBAC49B8
:1018B00020462DF0C9FB2346F0223221284601950F
:1018C0000096FFF751FE20462DF07EFB0F221146B9
:1018D0000EA8FFF7E7FE082348F2104201922946BE
:1018E000322200939B48F0232AF034F89D49204689
:1018F0002DF0AAFB2346F0223221284601950096BE
:10190000FFF732FE20462DF05FFB4FF49872E02186
:1019100010A8FFF7C7FE10AB93E80300089B186000
:10192000099B19800EAB93E80300079B1860079B87
:101930008D4899800F224FF498771146E023009745
:1019400020F0B0FA2946884820F07CFA87492046E2
:101950002DF07AFB2346F02264212846019500965B
:10196000FFF702FE20462DF02FFB814920462DF087
:101970006BFB2346F0226C21284601950096FFF769
:10198000F3FD20462DF020FB7A4920462DF05CFB2C
:101990002346F0227421284601950096FFF7E4FDC6
:1019A00020462DF011FB744920462DF04DFB2346B7
:1019B000F0227C21284601950096FFF7D5FD2046B0
:1019C0002DF002FB4FF6FF7344F2082248F210415B
:1019D000049103920293C822019396216423142058
:1019E0000096FEF75FFE654920462DF02DFB0D2386
:1019F0004022FE219C208DE83000FEF781FE20462B
:101A00002DF0E2FAD9F800300B93DDF82C80AA46CD
:101A10001E27554820F044F9534912A820F028F910
:101A20005148BDF948B0BDF94A6020F01FF90128BE
:101A30007AD075D3032834D1BAF1000F00F0D280E8
:101A4000002D00F0D180ABF116039BB2C32B28D838
:101A5000A6F198039BB25F2B23D84FF40043009666
:101A60002A46514601933B485B462AF099FE35468B
:101A7000DA460026D9F800300C930C9BDFF808B149
:101A8000C8EB0303B3F57A7F0DD2002EC1D000223C
:101A90000121082021F07EFE21F09EFD21B0BDE84D
:101AA000F08F0026E6E7082348F2104201920093E7
:101AB0007C22F02300212748013F29F04BFFFFB291
:101AC0002F4918A82DF0C0FA394614A82DF0EEFAC7
:101AD00014A918A82DF0D0FB2A492DF0D5FB0146FA
:101AE00020462DF0C5FA00200123F0227C21019030
:101AF00000932346FFF738FD20462DF065FA14A821
:101B00002DF062FA18A82DF05FFADBF800300D9383
:101B1000DDF83480002EBAD1002F7FF47AAFA1E631
:101B20000025AA462E46A5E71FFA8BF3A3F116025D
:101B3000C32A2BD8A6F1980292B25F2A26D8324641
:101B40004FF40043594603483546DA4629F0BEFBB8
:101B500000268FE75881FF1F6CA7030090A70300A2
:101B6000ACA70300CCA70300E081FF1FECA7030094
:101B700010A8030038A803005CA8030070A80300A5
:101B800074A80300A82304001C86FF1F9C3B352B70
:101B900087D8FE3EB6B20C2E83D8144920460126C3
:101BA0002DF052FA0D234022FE218DE850009C209A
:101BB000FEF7A6FD20462DF007FA00210C4820F084
:101BC00041F90A4920462DF03FFA00230193009481
:101BD0000D234022FE219C20FEF792FD20462DF091
:101BE000F3F947E7564645E72E4643E770A803005A
:101BF000E081FF1F08B501210F202EF081FB01219C
:101C000010202EF07DFB012111202EF079FB002108
:101C10000F202EF061FB002110202EF05DFB002133
:101C20001120BDE808402EF057BB00BF10B500F0F2
:101C3000010104460F202EF04FFB04F0020110209A
:101C40002EF04AFB04F0040111202EF045FB0E207B
:101C5000BDE810402DF0AEBD70B50646FFF7E6FFBB
:101C6000154B05460021985D21F080FD134B04467D
:101C70000021985D21F07AFD2D1B001B07EE900AD4
:101C800007EE105AF8EEE77AB8EEC77AB7EE000A18
:101C9000C7EE276AF4EEC06AF1EE10FA00D470BD08
:101CA000F5EEC06ADFED067AF1EE10FA8CBFB0EE09
:101CB000660AB0EE670A70BD380DFF1F400DFF1FAA
:101CC0000000000000B583B00191FFF7C5FF019946
:101CD00007EE901AF8EEE77AF7EE006A86EEA77A3A
:101CE000013907EE901A80EE070AF8EEE77AB4EEB3
:101CF000670AF1EE10FA48BFF0EE407AF5EEC07ACE
:101D0000F1EE10FA8BBFFDEEE77A0023CDED017AFC
:101D10000193019803B05DF804FB00BF10B50C46B9
:101D2000FFF79AFFF6EE007AB4EEE70AF1EE10FA4A
:101D3000ACBF012000200CB180F0010010BD00BF3D
:101D40000A4B10B4002203F1480401201A705870A5
:101D50009A709A60DA701A710C33A3424FF0000146
:101D6000F4D1034B19705DF8044B7047480DFF1F09
:101D70003C28FF1FFFF7E4BF084900EB400080004C
:101D80000B1810B4002201240A545C709A70DA70A7
:101D90001A719A605DF8044B704700BF480DFF1F31
:101DA0002DE9F84347004E4E0446381806EB8009EB
:101DB000884699F8020002F08DFD054699F8020068
:101DC00002F0A4FD0021884218BF4FF0040E4846DF
:101DD00008BF4FF0020E0B46C2780A41D20718D551
:101DE0004278013A062A14D8DFE802F059694939E5
:101DF000291F040003F001025B0803EB43034FEAD1
:101E0000420C03EBC303624403EB82032B4483F8CD
:101E100004800131CBB29E45DED83C4406EB8404FD
:101E2000A078BDE8F84302F0ADB803F001035A0012
:101E3000134403EBC3032B4483F81880E9E703F052
:101E400001025B0803EB43034FEA420C03EBC303BD
:101E5000624403EB82032B4483F80A80D9E703F042
:101E600001025B0803EB43034FEA420C03EBC3039D
:101E7000624403EB82032B4483F80980C9E703F033
:101E800001025B0803EB43034FEA420C03EBC3037D
:101E9000624403EB82032B4483F80880B9E703F024
:101EA00001025B0803EB43034FEA420C03EBC3035D
:101EB000624403EB82032B4483F80680A9E703F016
:101EC00001025B0803EB43034FEA420C03EBC3033D
:101ED000624403EB82032B4483F8078099E700BF39
:101EE000480DFF1F61B9104B00EB400003EB800071
:101EF0007F2281785D390123C9B2092000F018BD25
:101F000000B5094B00EB400003EB800083B0817803
:101F100001235D390193C9B200937F22092000F0AB
:101F20005BFD03B05DF804FB480DFF1F10B5124BBD
:101F300000EB400003EB8004E3789B0702D501B17E
:101F4000A2B910BD3AB904F0ADFC0028F9D0BDE843
:101F5000104004F0E7BA04F0A5FC0028F1D1E078C5
:101F6000BDE81040C0F3800004F05CBB04F09AFCB4
:101F70000028F4D0EBE700BF480DFF1F38B504463A
:101F80000D461120002121F0E5FB012800D038BDCD
:101F900004F088FC0028FAD0B5B10C4B04EB4404E3
:101FA00003EB8404E3789B070AD404F063FC044643
:101FB00001E004F073FB04F05DFC8442F9D038BD0D
:101FC000BDE8384004F06ABB38BD00BF480DFF1FB4
:101FD0002DE9F0418F4C904D237803EB43029200A2
:101FE000A918AA5C82B1012A1ED0022A29D08B4AE4
:101FF000013382FB0312A2EBE37202EB4202A3EB7A
:1020000042032370BDE8F081A2F15532013302F1A1
:10201000004282FB0312A2EBE37202EB4202A3EB4B
:1020200042022270BDE8F0814A78013A18460A2A35
:10203000DDD8DFE802F0B5B3B3B3B323B39E80615C
:102040004500C978184601F00101FFF767FE94F8D2
:1020500000C00CEB4C0305EB8303002814BFFF26E4
:10206000002693F801E099680EF1FF3E6346BEF149
:10207000030F1DD8DFE80EF0C0B2A4960821FFF7C9
:1020800021FE2378DFF88C81634F03EB430205EBDD
:102090008202064691688842A9D051781846FFF717
:1020A0007FFE98F8003003EB430207EB8207B96824
:1020B0008E429CD003EB430205EB8202966096E7CA
:1020C0008021FFF7FFFD2378DFF84881524F03EBB3
:1020D000430205EB820206469168884287D0D07899
:1020E000F1B2012200F060FD98F8003003EB4302EA
:1020F00007EB8207B968DBE74FF48031FFF7E2FDB9
:102100002378DFF81081444F03EB430205EB820292
:10211000A0F5004691688E423FF469AFD078314611
:10212000012200F0A7FE98F8003003EB430207EB12
:102130008207B968BCE78021FFF7C4FD2378DFF888
:10214000D480354F03EB430205EB820206469168CB
:1021500088423FF44CAFD0780123F2B20A2100F05C
:1021600053FD98F8003003EB430207EB8207B96890
:102170009EE78021FFF7A6FD2378DFF89880264FA1
:1021800003EB430205EB82020646916888423FF466
:102190002EAFD0780123F2B20721E0E710216EE7DD
:1021A00040216CE78E423FF422AFFF2E82D104F033
:1021B000FFF9237803EB430205EB8202916877E78E
:1021C000711A024618BF01216046FFF7AFFE23785F
:1021D00003EB430205EB8202916869E78E423FF40C
:1021E00006AF01466046FFF7C9FE237803EB4302C2
:1021F00005EB820291685BE78E423FF4F8AE014640
:102200006046FFF76FFE237803EB430205EB820283
:1022100091684DE73C28FF1F480DFF1FABAAAA2A73
:10222000024B00EB400003EB80007047480DFF1F9E
:10223000044B00EB400013F82000003018BF0120D1
:10224000704700BF480DFF1F0E4930B4002201F552
:1022500080654FF07E54012001F83C2C01F83B2CA6
:10226000A1F13C031A715A719A601A731C6103F848
:10227000140F8B42F6D103F14001A942ECD130BCDE
:10228000704700BFCC0DFF1F0C49820110B4002322
:102290008C188B543C3263700A44204601214FF065
:1022A0007E540371437183600373046100F8141F4B
:1022B0009042F6D15DF8044B704700BF900DFF1FB0
:1022C0000F289ABF024B03EB80100020704700BF1D
:1022D000900DFF1F014B8001185C7047900DFF1F90
:1022E0008001014B19547047900DFF1F024B03EB07
:1022F00080104170704700BF900DFF1F024B03EB31
:1023000080104078704700BF900DFF1F8001044B84
:1023100001EB810100EB810119440879704700BF8E
:10232000900DFF1F8001044B01EB810100EB810147
:1023300019444879704700BF900DFF1F8001044B7E
:1023400001EB810100EB810119448868704700BFEF
:10235000900DFF1F8001044B01EB810100EB810117
:102360001944087B704700BF900DFF1F8001044B8C
:1023700001EB810100EB8101194491ED040A7047E2
:10238000900DFF1F8001044B01EB810100EB8101E7
:102390001944087D704700BF900DFF1F0A4B30B4F1
:1023A000002203F580651978D4B2013211B1597851
:1023B000814205D04033AB42F5D1FF2030BC70479D
:1023C000204630BC704700BF900DFF1F01EB81011C
:1023D0008001034B00EB810119440A71704700BF73
:1023E000900DFF1F01EB81018001034B00EB810188
:1023F00019444A71704700BF900DFF1F01EB810126
:102400008001034B00EB810119448A60704700BFD3
:10241000900DFF1F01EB81018001034B00EB810157
:1024200019440A73704700BF900DFF1F07EE902AF2
:102430009FED077A074BF8EEE76A01EB8101C6EEE4
:10244000877A800100EB81011944C1ED047A70475D
:102450000000FE42900DFF1F01EB81018001034B44
:1024600000EB810119440A75704700BF900DFF1FF2
:10247000014B1878704700BF3D28FF1F014B1878AB
:10248000704700BF3E28FF1F014B1870704700BF08
:102490003D28FF1F014B1870704700BF3E28FF1FEB
:1024A00030B5094D094C2B68226883B00093009B1E
:1024B0009B1AB3F5FA7F05D30EF098FB2B680193B6
:1024C000019B236003B030BD1C86FF1F5028FF1FF7
:1024D000064B074953F82020096810B4002443F83C
:1024E000204001FB02F05DF8044B70474428FF1FB9
:1024F0009411FF1F0346024A0021105CD15470471B
:102500004028FF1F064A13780F2B07D810B4591C18
:10251000044C117044F823005DF8044B704700BF71
:102520003F28FF1F5428FF1F70B51B4E1B4D3378EB
:1025300055F82320824222D0FF2B044603D01046B8
:10254000002121F0E5FB164B134A1878FF23337066
:1025500068B12B689C421CD0104A002303E052F85B
:10256000041F8C420CD00133DBB28342F7D10D49FA
:102570000D4A00230B604B601370537070BD70BD2B
:10258000FF2B3370F3D055F82300012121F0C0FB5D
:10259000EDE700231370F6E79211FF1F5428FF1F89
:1025A0003F28FF1F4428FF1F4028FF1F054B1B78B3
:1025B000834202D80020FFF7B7BF034B53F8200037
:1025C000FFF7B2BF3F28FF1F5428FF1F70B5FF2041
:1025D000FFF7ECFF094E0A490A480B4C0B4B00224F
:1025E000FF250A704A70026042603270257003F164
:1025F000400143F8042F8B42FBD170BD3F28FF1FE1
:102600004028FF1F4428FF1F9211FF1F5028FF1F63
:102610002DE9F04F594C81B02DF078FE2368C01A97
:10262000632802D801B0BDE8F08F2DF06FFE544F43
:10263000544EDFF868A1DFF8689120600025BB46A2
:10264000A8461AF8010B36F8024B2DF04BFE40EA73
:10265000440080B2B0F5704F4DD026F8020C013521
:10266000042D0BF1040BECD1474D2B78002BD9D066
:10267000464E3A683368002403FB02F3A3423C60F1
:1026800043DD0120FEF77AFD414B1A78FF2A71D114
:102690002B784FF001089C4258D32046FFF786FF65
:1026A0007B683468002004FB03F47860002CB9D008
:1026B000374E3378FF2BB5D02A789A4284BF354AFB
:1026C00052F8230021F03AFB0028ABD0002CD4BFF5
:1026D00000200120FEF768FD33782A789A4223D93A
:1026E0002C4A52F8230003685B6B2146012201B09B
:1026F000BDE8F04F1847012D26F8028C17D909EBD9
:102700000503012103F8021CA9E7C9D02046FEF702
:1027100035FD1F4B1A78FF2A26D0FF234FF0FF38D4
:10272000D418E4B22B78B6E700231B68FFDE1A4BFF
:10273000585D2DF0D7FDDBF8003000280CBF4FF0BE
:10274000FF3101210B44CBF8003088E7DFF84490DB
:1027500059F8240021F0F2FA00289ED144442B7845
:10276000E4B2A34299D9F3E72B785C1EE4B24FF0B0
:10277000FF3890E701239846D2E700BF4C28FF1F9F
:102780004428FF1F9C11FF1F3F28FF1F9411FF1FAC
:102790009211FF1F5428FF1F9011FF1F9811FF1F58
:1027A0004028FF1F10B5002121202DF0A9FD002198
:1027B00022202DF0A5FD002123202DF0A1FD0021D8
:1027C00024202DF09DFD002125202DF099FD0021D4
:1027D00026202DF095FD00211C202DF091FD0222D8
:1027E0001E491C202DF048FB1D4B1E494FF6FF7261
:1027F000002008601A805A809A80DA80FFF708FF6C
:1028000023202DF06FFD70B10021312020F090FFCA
:10281000154B002814BF4FF0FF320122BDE81040D5
:102820001A60FFF7D3BE26202DF05CFD0446002879
:10283000EAD14FF4FA724FF47A7105202CF0DAFAEB
:102840002146312020F074FF80F00101C9B22246F8
:10285000312020F09FFF20F0BFFED5E7A12400002B
:102860009C11FF1F4C28FF1F9411FF1F0020FFF732
:102870005BBE00BF054B064A1B7812789A4286BFA2
:10288000044A52F823000020704700BF9211FF1F36
:102890003F28FF1F5428FF1F034A044B10781B7862
:1028A000834298BFFF2070479211FF1F3F28FF1FF0
:1028B00070B50646002401E01F2C0DD0E5B2284675
:1028C000012100F0AFFF0F2C04F10104F4D82846D9
:1028D00000F068FE1F2CF1D103F0D4FA3046BDE8B9
:1028E000704004F047B800BF014B185C704700BF50
:1028F0006029FF1F70B506460024E5B22846314620
:1029000000F090FF0134284600F04CFE102CF4D16A
:102910000549064B00220A8003F1400123F8022FEB
:102920008B42FBD170BD00BFD628FF1F9228FF1F2E
:102930000E28F8B50D461F4607DC04460646224B16
:1029400040BB1B88DB0707D419E01F4BB3F90030ED
:10295000002B12DA0F2426461C49002202E0013225
:10296000202A1CD031F9020F0028F8D10135184B6C
:1029700005EB062623F81260F8BD0F263446154BEA
:1029800020469A5D294600F0FBFE204600F000FE3E
:102990009FB9F8BDB3F900300341DA07DCD4092E42
:1029A000EDD105F15D022046D2B2294600F0E8FEE5
:1029B000204600F0EDFD002FEBD029462046BDE873
:1029C000F84003F0F3B800BFD628FF1F9228FF1F7E
:1029D0009428FF1F6029FF1F2DE9F04F2DED028B7A
:1029E00083B001929DF838609DF83CB0002A00F059
:1029F00093800E28C8BF0F25044688461F46D4BFC3
:102A000005462C469DED018A002B78D1F8EE487AD8
:102A10009FED617AF4EEC77AF1EE10FA66D49FED7D
:102A20005A0B2FF0B5FF2846B0EE408AF0EE608AD0
:102A300000F090FD002854D1002D00F09780092D62
:102A400000F09D80554B13F80490284600F06EFD71
:102A50000028284614BFB2464FF0000A00F070FD6F
:102A600000284AD0BBF1000F0CBF0026022648A365
:102A7000D3E9002351EC180B31F0E4FD31F0B0FF45
:102A8000564408EE100AF6B2284600F041FD3346DF
:102A9000F0EE480A4A464146284600F0FBFD404B0E
:102AA000A600334493ED000AB5EE400AF1EE10FAA9
:102AB00058D107EE904AF8EEE77A3A4AF5EE407AB6
:102AC000F1EE10FA14BF042300231344D3ED007A6F
:102AD000F5EE407AF1EE10FA3DD1284600F050FDB7
:102AE0000FBB03B0BDEC028BBDE8F08F17EE900A70
:102AF00031F02AFC41EC100B93E70646B7E703F0F0
:102B0000E3FE002882D003F0E5FEA8427FF47EAF0A
:102B1000012003F087FD79E703B0BDEC028BBDE82F
:102B2000F04FFFF705BF284600F0F2FCDFED1A7A00
:102B300028EE000A414620EE270A2846FCEEC07A1D
:102B4000CDED017A9DF8042003B0BDEC028BBDE809
:102B5000F04F02F0DBBF164496ED000A284600F065
:102B60009FFEBAE7284600F099FEA2E70EF0B4F9FE
:102B700003287FF467AF02F053F8814665E708F158
:102B80005D095FFA89F960E70000000000C05F405E
:102B9000422E6094726013400000FE426029FF1FC5
:102BA000D828FF1F2029FF1F30B583B00E280191C0
:102BB000DDED017A124BB8EEE77ADFED127A87EE9F
:102BC000270AC4BF0F24204603EB8003D8BF044666
:102BD00015462046D3ED007AB4EE670AF1EE10FAFE
:102BE00098BFB0EE670A00F05BFE0DB903B030BDD0
:102BF0000199204603B0BDE8304003F0D9B800BFCA
:102C00002029FF1F0000FE420E282DE9F041CABF17
:102C10000F2404462046402915461E467BD007D97E
:102C200079292ED07B2910D078294BD0BDE8F081AE
:102C3000072964D00A2918D00129F7D1294620464E
:102C40001A46BDE8F041FFF7AFBF494BB3F900109A
:102C500041FA00F010F00101E8D1204600F0E2FD59
:102C60002046BDE8F04100F09DBC1146204600F032
:102C700003FC002EDAD029462046BDE8F04103F0DF
:102C800041B8002240212046FFF7BEFF64212046C4
:102C900000F0AAFB2046402100F0EEFB9FED350A34
:102CA000204600F0FBFD002EC0D06421204603F03A
:102CB00003F8204600F034FC01462046BDE8F04110
:102CC00003F020B82A4D2C4A2988012383400B4366
:102CD0002B80000202F14001002532F9023F03F48B
:102CE0007F43984208BF15809142F6D120460121CA
:102CF00000F098FD2046BDE8F04100F053BC1146BD
:102D0000204600F071FB002E90D029462046BDE8F9
:102D1000F04102F0D1BF3F2A154921D80A88164C4C
:102D20000123834022EA03030B80070204F14005DC
:102D30004FF0000801E0AC4210D034F9020F00F46B
:102D40007F439F42F7D1411EC9B2C0F307203346EB
:102D50000022FFF7EDFDA4F80080ECE7BDE8F0816C
:102D60000B88012202FA00F003430B80BDE8F081DA
:102D7000D628FF1F000000009228FF1F70B5002416
:102D80000023E0B21A4678210134FFF73DFF102CF2
:102D9000F6D100202EF016FF38B100202EF012FFE1
:102DA0000028F6D101E02DF05FFF2DF049FF044629
:102DB0000028F8D10A4B0B4A0B4E0C4D18700146F7
:102DC0001D205C709C70147034702C702DF084FA8F
:102DD00021461E202DF080FA054B1C6070BD00BFFF
:102DE0007429FF1F7029FF1F1C29FF1FD428FF1FF4
:102DF0001829FF1F0A2825D00E2870B516460D4643
:102E0000044615DCF8B9034602467B21FFF7FCFEB9
:102E1000174B1D70AEB12046294602F011FF0EF08F
:102E20005BF803280DD12846BDE8704014F020BFA0
:102E300000231A467B210F20FFF7E6FE0C4BDD73C3
:102E40007EB970BD704700231A467B21FFF7DCFE78
:102E5000074B1D55002EF4D02946204602F0F0FE07
:102E600070BD29460F20BDE8704002F0E9BE00BFEA
:102E70006029FF1F70B582B00E28D4BF04460F250D
:102E800001914FF012004FF00001D4BF25462C46AF
:102E9000164620F05FFC07EE900A9FED107A104B6B
:102EA000F8EEE77A03EB8403C7EE276A2846DDEDE8
:102EB000017AF8EEE77A87EEA67AB0EE470A83ED5C
:102EC000007A00F0EBFC0EB902B070BD0199284603
:102ED00002B0BDE8704002F04BBF00BF000080466A
:102EE000D828FF1F70B5FFF749FF0125002602E033
:102EF0000135EDB20136F4B200231A46204678219E
:102F0000FFF782FE002320461A467921FFF77CFE58
:102F10000022092E11462046EAD0FFF76BFF00225F
:102F200011462046FFF7A6FF002320461A4601213E
:102F3000FFF76AFE102DDBD1BDE870400DF056BEE4
:102F4000034B187008B1FFF719BFFFF7CBBF00BFE5
:102F50001D29FF1F08B503F0ABFC00B908BD002018
:102F6000BDE8084003F05EBB08B503F0A1FC00B962
:102F700008BD0120BDE8084003F054BB30B55C49F2
:102F80000878A0F1800383B000F00F007F2B44D8B5
:102F9000DFE803F08A8A8A8A8A8A8A8A8A8A8A8AFF
:102FA0008A8A8A8A92929292929292929292929221
:102FB000929292924545454545454545454545458D
:102FC000454545459F9F9F9F9F9F9F9F9F9F9F9F79
:102FD0009F9F9F9FA7A7A7A7A7A7A7A7A7A7A7A7A1
:102FE000A7A7A7A745454545454545454545454509
:102FF000454545454C4C4C4C4C4C4C4C4C4C4C4C2D
:103000004C4C4C4C40435C434343436A6E43777C97
:103010008143439A374B01221A7003B030BD49787F
:10302000012203B0BDE83040FFF7BEBD8B784A787F
:10303000D90101F47E5302F07F011944A1F500513A
:10304000012203B0BDE83040FFF714BF8D784C7803
:1030500003F02EFC0028E0D004EB052080B203B082
:10306000BDE83040FFF724BC224B00221A70D4E7A1
:1030700003F01EFC0028D0D003B0BDE8304003F0C0
:103080000DBB03B0BDE83040FFF764BF03B0BDE83F
:103090003040FFF769BF03F00BFC0028BDD003B040
:1030A000BDE8304003F03EBA8A784978012303B086
:1030B000BDE83040FFF73CBC01238A784978019392
:1030C0000093FFF789FCA8E703B0BDE83040FFF7A5
:1030D00009BF8A784978012303B0BDE83040FFF783
:1030E00093BD4978012203B0BDE83040FFF782BEAE
:1030F0007429FF1F7029FF1F5B4B1B78002B40F0CA
:10310000A3802DE9F043594C594E83B0994625468A
:1031100000202EF057FD18B13278564B002A5CD0B3
:10312000534C524D544FA0462E4608E0534A0133AB
:103130001278DBB29A4223704FF0010925D02DF0AE
:103140007FFD002830D094F800902DF08DFD23787D
:1031500005F80900002BE9D1327811065ED4484BFE
:1031600072701A78327002233978002951D1DF2A1F
:103170004DD8C02A5BD2802A4BD303223F4923700B
:103180009A420A704FF00109D9D13B78002B58D0F0
:103190003378F72B55D0002388F800304FF0010921
:1031A0002DF04EFD0028CED1B9F1000F4DD1354C98
:1031B00023687BB1344A12680192019A934209D282
:1031C00049461D202DF088F849461E202DF084F830
:1031D000C4F8009003B0BDE8F0831B782B4923703E
:1031E00003F0F002F02A03D00A78013A13432B705F
:1031F000214B2749274A1B78097812786170A27001
:103200004BB12378F72B06D04FF0010980E7EF2A66
:10321000B3D90122B2E7FFF7B1FEF5E702F11001E1
:10322000C9B2072905D816490B7001239CE7022271
:10323000A4E782F080036F2B9CBF114B1A7001230F
:1032400092E7FFF79BFEA6E7704701211D202DF0B6
:1032500043F80D4B0B4A1B680093009B32331360FD
:1032600003B0BDE8F08300BF1D29FF1F7429FF1FB5
:103270001C29FF1F8C88FF1F7029FF1FA411FF1F2F
:10328000D428FF1F1829FF1F1C86FF1F9388FF1FCC
:103290009088FF1F9188FF1F10B4084C084B2478BA
:1032A000597018709A7024B1F72802D05DF8044B59
:1032B00070475DF8044BFFF761BE00BF7029FF1F28
:1032C0007429FF1F00B5F83883B004280BD8DFE855
:1032D00000F0280A032018004FF60F202EF00EFCF5
:1032E000FA202DF0EFFB01211E202CF0F5FF114BF1
:1032F000114A1B680193019B0133136003B05DF811
:1033000004FB4FF60F402EF0F9FBFC202DF0DAFB0A
:10331000E9E74FF60F302EF0F1FBFB202DF0D2FB4A
:10332000E1E74FF60F002EF0E9FBF8202DF0CAFB85
:10333000D9E700BF1C86FF1F1829FF1F70B50121A8
:103340001D202CF0DDFF01211E202CF0D9FF0021D3
:103350001D202CF0C1FF00211E202CF0BDFF084EC7
:10336000084D094A09480023012447F61221337009
:103370002B7014702BF0D2FBBDE87040FFF7B2BD8C
:103380001C29FF1F7029FF1FA411FF1F701AFF1FA8
:10339000F0B500230D4E0E4D0E4C0F480F49DFF8CF
:1033A00044C01A464FF0640E40270133102B06F834
:1033B00001EF45F804CB04F8017F00F8012F01F874
:1033C000012FF2D1064BFF221A70F0BD8B29FF1F8F
:1033D000AC29FF1F7729FF1F9B29FF1FEB29FF1F28
:1033E0008829FF1FCDCC4C3F38B504460D46D1B1DE
:1033F00007EE901A9FED1C7AF8EE677AF4EEC77A22
:10340000F1EE10FA1FD49FED140B2FF0C1FA14A3A4
:10341000D3E9002351EC100B31F014F931F0E0FA4C
:1034200007EE900A01E0DFED117A114A114B1555B4
:1034300003EB84032046C3ED007AB0EE670ABDE8D3
:10344000384000F059BF17EE900A30F07DFF41EC94
:10345000100BDAE7AFF300800000000000C05F400F
:10346000422E6094726013400000FE420000000093
:103470008C29FF1FAC29FF1F30B4094D2A5C8A42FA
:103480000CD02F290B4694BF002201224F292B5428
:103490008CBF0021012130BC00F03EBB30BC704726
:1034A0007829FF1F034B195401B97047012100F01F
:1034B000B9B900BF9C29FF1FF8B5104E104D3070F0
:1034C0000024034627460FE0834214BF0123002354
:1034D0004FF001012B7001D000F0A4F90134102C41
:1034E00005F1010509D03378FF2BE0B2ECD10134AE
:1034F000102C2F7005F10105F5D1F8BD8829FF1FAB
:103500009C29FF1F014B185C704700BF8C29FF1FCF
:10351000024B03EB800090ED000A7047AC29FF1FBF
:10352000014B185C704700BF7829FF1F034B185CE4
:103530004F288CBF00200120704700BF7829FF1F53
:10354000034B185C2F2894BF00200120704700BF58
:103550007829FF1F014B185C704700BF9C29FF1F93
:10356000034B1B78181AB0FA80F04009704700BF6F
:103570008829FF1F014B1878704700BF8829FF1F5B
:10358000024A135C01331354704700BFEC29FF1F3C
:10359000034A135C013B23EAE3731354704700BFF3
:1035A000EC29FF1F014B00221A547047EC29FF1F22
:1035B000014B185C704700BFEC29FF1F054B185CDE
:1035C0004F2804D82F2894BF0020012070470220E4
:1035D000704700BF7829FF1F0A4B0B4930B4002207
:1035E000002503F5207403201A809A705D6018721C
:1035F000DA601033A34221F8042C41F8082BF3D1F0
:1036000030BC7047A811FF1F002AFF1FF0B51E4BEA
:103610001E4C1B6883B004F5A0750193019E002722
:1036200002E00834AC420ED034F8040C0028F8D084
:103630002368B342F5D8002100F066F9083424F875
:103640000C7CAC42F0D1124C002704F5207502E04E
:103650001034AC4215D034F80C0C0028F8D0236894
:10366000B342F5D814F8042C54ED020A14F80A1CDD
:10367000B7EE000A00F030FF103424F81C7CAC4296
:10368000E9D103B0F0BD00BF1C86FF1F002AFF1F59
:10369000B411FF1F2DE9F04FC0022DED028B1FFA70
:1036A00080F8481C1446404483B01A4680B28946CC
:1036B0002146B0EE408AF0EE608A00F00DFF204611
:1036C000FEF76CFEFEF7FCFD002843D02A4B2B4E84
:1036D0001B680193DDF804B0054608F10108B24605
:1036E00001272B798BB3D5ED047AF5EEC07AF1EE94
:1036F00010FA2ADD2B7D68EE280A012B60EEA70A5E
:1037000033D94FF0020E7A022C7BAB68697902F450
:10371000C062424409EB040052FA80F080B2F3B177
:10372000002301E0282B10D01C010133325B002A5A
:10373000F8D10AEB04032AF80400997083F808E032
:10374000AA68C3ED010A5A44DA600137042F05F173
:103750001405C6D103B0BDEC028BBDE8F08F7246F4
:10376000B0EE480A00F0B8FEEFE7002B0CBF4FF0B8
:10377000010E4FF0030EC6E71C86FF1FA811FF1FA6
:103780002DE9F04FC0021FFA80F8481C404483B076
:10379000144680B28946002100F0B6F82046FEF7B4
:1037A000FDFDFEF78DFD90B31C4B1D4D1B68019375
:1037B000DDF804B0044608F10108AA460127237980
:1037C00003B3D4ED047AF5EEC07AF1EE10FA19DD08
:1037D0007B02207BA16803F4C0634344484453FA4E
:1037E00080F080B2B9B1002302E00133282B11D060
:1037F00035F83320DE00002AF7D1564459442AF820
:10380000330071600137042F04F11404D7D103B0E1
:10381000BDE8F08F002100F077F8F3E71C86FF1F6A
:10382000FC29FF1F2DE9F84F82468946DFF86880A2
:10383000184D00F089FB00244FEACA2AC3462746E8
:10384000264638F81430610003F478424BB15245F3
:1038500007D13A010BEB02034BF802605E609E60F9
:10386000DE6035F8043C03F478424BB1924507D151
:1038700038F80100494600F047F825F8046C2E603E
:103880000834B4F5A07F07F1010705F10805D8D188
:10389000BDE8F88F002AFF1FA811FF1F00F056BADD
:1038A00000F06CBA00F07F000138C0B2704700BF72
:1038B00030B100F47840B0EBC12F0CBF01200020E4
:1038C000704700BFF0B500240C4D0D4E83B0274665
:1038D000AB69E1B253B132680192019A094893424F
:1038E0004FF0000202D824F011F8AF610134242C0B
:1038F00005F11C05ECD103B0F0BD00BF3C2BFF1F50
:103900001C86FF1F5082FF1F2DE9F04F564C85B0DB
:10391000002681468B4604F1180504F57C7806E004
:103920001C34A04506F1010605F11C0542D035F80E
:10393000183C4B45F7B2F3D1BBF1000F3DD000224C
:1039400039464A4823F0A2FF0122824639464748B9
:1039500023F09CFF0F23019000223946434823F0B7
:103960009FFF0F2301223946404823F099FF002290
:1039700039463E4824F00EF8002239463B4823F0F1
:10398000C5FF534600223946384823F089FF019B82
:1039900036483946012223F083FF0023A3611C34FB
:1039A0004FF00003A04525F8183C06F1010605F18B
:1039B0001C05BCD105B0BDE8F08F5A4639462B48EE
:1039C00023F0E8FF5A463946284823F0F9FE50BB59
:1039D00001223946254823F0F3FE4FF00F0AA0B12B
:1039E00001223946214823F0C1FE3E2830D9BAF1E0
:1039F000000F36D145F2F05242FA0AF31C4A12681F
:103A00000392039A1344A361C9E750460AF1FF3AAF
:103A100045F2F0530028F1D001388245EADB45F247
:103A2000F0530341EAE75A463946104823F09EFE18
:103A30003E28CDD85A4639460C4823F027FF0122AC
:103A400082463946094823F0BBFE0028CFD0C7E79D
:103A500039460122054823F019FFBAF1000FD7D0EB
:103A6000D4E70F20D2E700BF3C2BFF1F5082FF1F7F
:103A70001C86FF1F30B52DED028B044683B008462F
:103A8000F0EE408A00F026FF837C9FED218AC3F18F
:103A90003F0307EE903AF8EEE77A214687EE887A00
:103AA000012205461B4868EEC77AB0EE487AA7EEB9
:103AB000887AFCEEC77ACDED017A9DF8043023F0C8
:103AC0005FFE2146134823F099FF012803D003B07D
:103AD000BDEC028B30BDAB790E48C3F13F0307EE5E
:103AE000903AF8EEE77A214687EE887A002268EE6F
:103AF000C78AA8EE888AFCEEC87ACDED017A9DF8D7
:103B0000043003B0BDEC028BBDE8304023F038BE7A
:103B100000007C425082FF1F134B1B78022B21D0E8
:103B20002DE9F0470024924689460746DFF8408099
:103B3000254602E0B4F57C7F12D038F804003946FF
:103B4000FFF7B6FEEEB21C3401350028F2D0314644
:103B500053464A46054824F06BFAB4F57C7FECD115
:103B6000BDE8F087704700BF2C2FFF1F5082FF1F5A
:103B70003C2BFF1F2DE9F04F2DED028B6B4B9FED82
:103B80006C7A1B68DFF8B0A16A4CDFF8BCB185B075
:103B900000250393DDED038AF8EE687A67EE878AE5
:103BA00005E00135242D04F11C0400F0A38034F855
:103BB000103C5FFA85F9002BF3D02379002BF0D16C
:103BC00014F80C0C00F086FE867E14F90C3C7F2E57
:103BD000C8BFA6F58076002BC0F2918034F8100C97
:103BE000FFF760FE30448BFB0036C317C3EB66065D
:103BF00006EB4606A0EB86060236F6B214ED017A15
:103C00005AF82670B5EEC07AF1EE10FA0FFA87F87E
:103C100000F1818014DDB31C474A07EE908A52F808
:103C20002330F8EEE76ADB1B07EE903AF8EE677A8E
:103C3000E7EE276AFDEEE67ACDED007ABDF9008069
:103C400094ED008AB5EEC08AF1EE10FA40DD18EE70
:103C5000900A30F079FB013641EC100B2EF048FD54
:103C60005AF82630DF1B07EE907AF8EE677A8DED72
:103C7000000B67EE887A17EE900A30F065FB9DED39
:103C8000000B06460F46002251EC100B2B4B30F078
:103C9000AFFB0022294B30F0F9F902460B46002019
:103CA000274930F0F1F902460B463046394630F0EC
:103CB0009FFB064640460F4630F034FB02460B465B
:103CC0003046394630F0E2F930F042FE0FFA80F823
:103CD00049461C4823F004FE80453FF462AF42464B
:103CE00049461848013523F011FE242D04F11C0427
:103CF0007FF45DAF05B0BDEC028BBDE8F08F8BFBB0
:103D00000632F317C3EB620303EB4303A6EB830610
:103D10000236F6B272E7B31E074A07EE908A52F8EF
:103D20002330F8EEE76AFB1A7EE700BF1C86FF1F10
:103D3000F6AD003D4C2BFF1F80A803000000E03FC4
:103D40000000F03F5082FF1FABAAAA2A70B50A4CB0
:103D50002DED028B0646B0EE408A04F57C753146A7
:103D60002088FFF7A5FD08B184ED038A1C34AC421E
:103D7000F5D1BDEC028B70BD3C2BFF1F70B50A4C1A
:103D80002DED028B0646B0EE408A04F57C75314677
:103D90002088FFF78DFD08B184ED048A1C34AC4205
:103DA000F5D1BDEC028B70BD3C2BFF1F2DE9F04F10
:103DB000634B83B0C0EBC0070190884603EB8707D5
:103DC000002402E00134192C2BD0E0B2FEF728FACF
:103DD0000578012D0646F5D182783B799A42F1D1DA
:103DE000012D00F0A580B8F1FF0F15D0C2464FF0AD
:103DF00004097378013B062B0ED8DFE803F051600D
:103E0000423324041500F37819EA030F04D0514615
:103E1000327A4C4823F0D8FD022DD3D00135EDB2D3
:103E2000DEE703B0BDE8F08F4FF0000BF17809FA40
:103E30000BF319425FFA8BF20BF1010B4ED1BBF180
:103E4000020FE9D0F2E74FF0000BF17809FA0BF31B
:103E500019425FFA8BF20BF1010B45D1BBF1020F56
:103E6000DAD0F2E74FF0000BF17809FA0BF31942C0
:103E70005FFA8BF20BF1010B48D1BBF1020FCBD0F3
:103E8000F2E74FF0000BF17809FA0BF319425FFAF1
:103E90008BF20BF1010B33D1BBF1020FBCD0F2E777
:103EA0004FF0000BF17809FA0BF319425FFA8BF22D
:103EB0000BF1010B33D1BBF1020FADD0F2E74FF0A4
:103EC000000BF17809FA0BF319425FFA8BF20BF150
:103ED000010B0FD1BBF1020F9ED0F2E7337A1948E4
:103EE000514623F023FCAAE7337A1648514623F0C3
:103EF000D7FCB3E7337A1348514623F06BFCE9E76C
:103F0000337A1048514623F083FCC5E7B3680D4867
:103F1000C3F10F03DBB2514623F09AFCADE7B3685F
:103F20000848C3F13F03DBB2514623F029FCC2E746
:103F3000019BFF2B3FF472AF9A46A94659E700BF99
:103F40003C2BFF1F5082FF1F2DE9F0410C4D064610
:103F500088462F46002403E01C34B4F57C7F0DD046
:103F60003146285BFFF7A4FC0028F5D0385B4146BA
:103F70001C34FFF7C9FCB4F57C7FF1D1BDE8F081BA
:103F80003C2BFF1F0A4B10B403F57C71FF2404E0A7
:103F9000FF2805D01C338B4206D01A798242F7D114
:103FA0001C711C338B42F8D15DF8044B704700BF85
:103FB0003C2BFF1FF8B5174F174B3870002403F543
:103FC0007C760022FF251A805A801D719C60DC607F
:103FD0001C611A759A611C33B342F4D1A0F102013D
:103FE000B1FA81F149090D4823F080FF0B4824F014
:103FF000DBF90121094823F021FD0121074823F0C5
:1040000007FD39780548023918BF0121BDE8F8409D
:1040100024F0B0BA2C2FFF1F3C2BFF1F5082FF1F34
:104020002DE9F04F5C4B1F78012F87B068D0022F2D
:104030000CBF4FF0090E4FF00C0E4FF6FF764FF00D
:10404000FF080022554DDFF8609103969346B24673
:10405000B446CDF81480CDF80480CDF808800090E7
:104060000DE01C795B88200622D4B34202F10102E4
:1040700038BF1E46D3B238BF88469E4528D9022F86
:104080000ABF474B12F80910D15CC1EBC10405EB24
:10409000840335F82440002CE3D11C790098844235
:1040A0000BD05B889C45DED920069C460191DCD56F
:1040B00053453CBF9A460591D7E75888039B049027
:1040C0000BF1010B98425FFA8BFB0BD30346E9E738
:1040D000029BFF2B17D0BBF1010F07D9029807B045
:1040E000BDE8F08F049B03930291DBE7019A0299EC
:1040F0001346FF2A08BF0B46184607B0BDE8F08FED
:104100004FF0060E99E7019BFF2B03D0019807B0F3
:10411000BDE8F08F059CFF2C28D1022F2DD0002167
:10412000DFF888C0059C4FEA4E0E0A460E464FF651
:10413000FF7901E01CF80210C1EBC103501C35F8F7
:10414000237005EB83032FB95B884B4502D21646DB
:1041500099460C46C2B29645ECDCFF2C0DD0314698
:10416000104824F085FA78B92046B8E70D480022B7
:10417000214623F00FFC2046B1E70A4800224146C1
:1041800023F008FC4046AAE706483146002224F006
:10419000C7F82046A3E700BF2C2FFF1F3C2BFF1FB3
:1041A000F0A803005082FF1FC0A8030014A9030059
:1041B00070B52DED048B044682B00846B0EE409AEF
:1041C00000F088FB90F82D309FED498AC3F13F0342
:1041D00007EE903AF8EEE77A2146C7EE888A012288
:1041E0000646444824F0A6F9012201464148F0EE73
:1041F000487A68EE898AE8EEC87AFCEEE77ACDED77
:10420000017A9DF8043023F0BBFA2146394823F0A7
:104210005FFF02285FD00328054627D0012803D07E
:1042200002B0BDEC048B70BDB37C3248C3F13F03D8
:1042300007EE903AF8EEE77A214687EE887A002278
:1042400027EE099A24F076F9A9EE488A01462A4613
:10425000FCEEC87A2748CDED017A9DF8043002B013
:10426000BDEC048BBDE8704023F08ABAB3792148D5
:10427000C3F13F0307EE903AF8EEE77A0022C7EE6B
:10428000888A214624F056F9002201461948F0EEAA
:10429000487A68EE898AE8EEC87AFCEEE77ACDEDD6
:1042A000017A9DF8043023F06BFA96F8213011481A
:1042B000C3F13F0307EE903AF8EEE77A214687EE26
:1042C000887A012227EE099A24F034F9A9EE488A67
:1042D00001460022BCE7B3790648C3F13F0307EE6D
:1042E000903AF8EEE77A214687EE887A0022E9E7ED
:1042F00000007C425082FF1F2DE9F8431C4CDFF880
:1043000074902DED028B8046B0EE408A04F57C77E8
:1043100000250DE094ED020A217919F8050028EE38
:10432000000AFFF745FF1C34BC4205F101051BD014
:1043300041462088EEB2FFF7BBFA0028F3D0237D78
:10434000002BF0D1207900F0E1FA0028E2D194EDC1
:10435000020A2179304628EE000A1C34FFF78AFB56
:10436000BC4205F10105E3D1BDEC028BBDE8F88349
:104370003C2BFF1FCCA803002DE9F04F524B1B78BC
:1043800089B0012B029000F08180022B4FD04FF0BA
:104390000C0900254FF6FF784FF0FF0A2B460695D3
:1043A0002F46C346CDF80480CDF81C80CDF814A06C
:1043B000CDF810A0CDF80CA04448454C03210FE0E7
:1043C000127912062ED4984505F1010588BFBA4628
:1043D000EFB288BF9846B94539D98378C1780230A1
:1043E000C3EBC303C1EBC10104EB830204EB810601
:1043F000B2F802C034F823E07388634528BF6346EF
:10440000BEF1000FDCD134F8211012790029D8D187
:1044100002998A422CD001999942D2D9120601936D
:104420000497D0D59B4584BF9B460597CBE7FF23D8
:10443000039300220399274824F07CF800220146C8
:10444000244823F0A7FA039809B0BDE8F08F039B36
:10445000FF2B1ED0069B012BF5D8049A0399134617
:10446000FF2A08BF0B460393039809B0BDE8F08FFD
:104470003179029EB142CED106990131C9B206917D
:1044800007999942C7D907930397C4E74FF00609E4
:104490007FE7049BFF2B05D0049B0393039809B08F
:1044A000BDE8F08F059CFF2C0BD021460022094867
:1044B00024F040F8002201460648039423F06AFAEB
:1044C000C1E7CDF80CA0B4E72C2FFF1F14A90300FF
:1044D0003C2BFF1F5082FF1F2DE9F04F2DED028B6B
:1044E00006469FB008460D46F0EE408AB0EE608A60
:1044F000924600F001FA002800F0B9809B4B1B782F
:10450000022B05D0284600F001FA002840F0B480C4
:1045100010AB184629460F9300F0E4F928469DF8A1
:104520005AB0934FDFF85882FFF77AFD0446FF2315
:10453000214690480D934FF0000923F021FA0028FE
:1045400040F0CC808C4B1B5D0E93FF2B0AD019469C
:10455000884824F08DF8484504D04A460E9985488D
:1045600023F0DEFEB9F1000F00F0C1804FEAC4096C
:10457000C4EB090307EB83037D4A1B79AB4200F0D0
:10458000DE808DF85AB00DF1480CBCE80F00EE4605
:10459000AEE80F00BCE80F00AEE80F009CE80F008B
:1045A000AEE80700AEF800300F9B0E997148B7EEE9
:1045B000000A0CCB23F0CEFC0E98294628EE280AE0
:1045C000FFF7F6FDCAF340030AF001020D996948AE
:1045D00023F02EFDC4EB09094FEA890907EB090313
:1045E000B8F800205A80002100221D7183ED028A54
:1045F000D96019611A759A612B0627F8096005D4EC
:1046000006F07F06013E5E445FFA86FBBBF1760F43
:104610006ADCBBF1180F00F39C8000260125534B88
:104620001B78022B07D0CAF340030AF0010221468F
:10463000504823F0FDFC2A4621464E4823F086F9D7
:1046400031464C4822F00EFF21460246494823F0ED
:104650005DF90D992046FFF7A9FB21460122454847
:1046600023F098F9B8F800300133A8F800301FB0F3
:10467000BDEC028BBDE8F08F10AB184629460F93B6
:1046800000F030F928469DF85AB0394FDFF8F08035
:10469000FFF772FE394BB8F800E000B203EB4002BE
:1046A00013F8104053780D93C3EBC3029200BB186C
:1046B0000021BE524FF001090022D96019611D711D
:1046C00083ED028AA3F802E09A6183F814902146F0
:1046D000284823F055F900283FF434AF0022214642
:1046E000244823F057F92DE70B26082597E74FEAD2
:1046F000C409C4EB090307EB83031B79AB4217D052
:104700008DF85AB00DF1480CBCE80F00EE46AEE84B
:104710000F00DCF800302EF8023B1B0C8EF8003046
:104720000F9B14480CCBB7EE000A214622F030FF55
:1047300028EE280A29462046FFF79CF94AE70D9BF8
:10474000C3EBC30302EB83021379AB427FF419AFCF
:1047500032E70C26ABF11805BBFBF6F395FBF6F53B
:1047600006FB13B60135EDB2F6B258E72C2FFF1F4A
:104770003C2BFF1F5082FF1FCCA8030014A903008D
:104780002814FF1F08B52DED028BDFED468A9FED43
:10479000468AB0EE680A0322F7EE000A602148F26A
:1047A0003000FFF799FEB0EE480A0322F7EE000A48
:1047B000702148F63000FFF78FFE32202BF0CAFD43
:1047C000B0EE680A0322F7EE000A602148F23500D5
:1047D000FFF782FEB0EE480A0322F7EE000A7021CE
:1047E00048F63500FFF778FE32202BF0B3FDB0EE2F
:1047F000680A0322F7EE000A602148F23900FFF749
:104800006BFEB0EE480A0322F7EE000A702148F66C
:104810003900FFF761FE50202BF09CFDB0EE680AD6
:104820000322F7EE000A602148F23C00FFF754FE35
:10483000B0EE480A0322F7EE000A702148F63C0069
:10484000FFF74AFE4FF4FA702BF084FD002148F286
:104850003000FFF759F8002148F23500FFF754F80F
:10486000002148F23900FFF74FF8002148F23C00E0
:10487000FFF74AF8002148F63000FFF745F800211D
:1048800048F63500FFF740F8002148F63900FFF7F9
:104890003BF8BDEC028B002148F63C00BDE8084027
:1048A000FFF732B83333333FCDCC4C3F84B070B5D3
:1048B000074E05AC362584E80E0005FB0060214656
:1048C0002A462BF0CBF8BDE8704004B0704700BF1B
:1048D000302FFF1F024B362202FB0030704700BF13
:1048E000302FFF1F08B5034B362202FB01312BF09E
:1048F000B5F808BD302FFF1F034A362303FB002005
:1049000090F83500C0097047302FFF1F044A362346
:1049100003FB002090F8350000F00100704700BF55
:10492000302FFF1F054A362303FB002090F8353057
:1049300063F07F0380F83530704700BF302FFF1FD2
:10494000084B362202FB003090F8353021B923F0B5
:10495000010380F83530704743F0010380F83530AB
:10496000704700BF302FFF1F2DE9F84F4FEA001AA4
:1049700089460AF110075446012607E02AF0FAFC9E
:10498000202305460134A7422B7019D02146134835
:10499000002EF3D0CAEB0408414648462AF0EAFC50
:1049A00090F800B00D482146BBF1000F0AD12AF063
:1049B000E1FC013405462023A7425E462B70E5D179
:1049C000BDE8F88F214605482AF0D4FC414605464B
:1049D00048462AF0CFFC0378D4E700BF2C54FF1FD1
:1049E00070B5124C124992B0362606FB00440546BB
:1049F000684623F089FA3246694620462BF02EF8A5
:104A00000123002284F8352023712374E37784F88E
:104A10002B300EA807492AF017FB0EA92846FFF7EE
:104A2000A3FF0EA82AF0D0FA12B070BD302FFF1FDE
:104A30005082FF1F34C303002DE9F04F97B060B9D7
:104A40000446E0B20134FFF7CBFFAF2CF9D1FF20D1
:104A500017B0BDE8F04FFFF795BA00212E201EF0E9
:104A600079FE02284B4F6AD000212F201EF072FEE3
:104A700000F0020000F0FF04002860D1DFF8309160
:104A8000454A3D466E464FF0360A01E059F8042F7C
:104A90004249012330460AFB047823F041FA0134ED
:104AA0004046362231462AF0D9FF8123802C85F8F2
:104AB000353005F13605E9D10DF13C08DFF8F49009
:104AC000374A0024802501E059F8042F3349012397
:104AD000404622F0F3FC362303FB057A2F4930468B
:104AE00023F012FA07EB040B3622314650462AF027
:104AF000B5FF1B2241460BF5D8502AF0AFFF3634E4
:104B00000BF5D95340F6EA128021944205F10105D4
:104B10005975D9D1234E4125002401E016F8015FD3
:104B2000214821462AF026FC0134B4F52F6F057088
:104B3000F4D1FF2017B0BDE8F04FFFF723BADFF83C
:104B400078901A4A3D4600240DF13C086E464FF01D
:104B5000360A01E059F8042F10490123404622F09B
:104B6000ADFC0AFB047B0D49304623F0CDF936221B
:104B7000314658462AF072FF28461B2241462AF049
:104B80006DFF013480239C4285F8353005F13605F0
:104B9000E0D193E7302FFF1F14D403005082FF1F92
:104BA00080D103002CA903002C54FF1FE4D3030081
:104BB000B8D50300E4B6030050C603002DE9F04168
:104BC0000746884610260024214613482AF0D2FBC7
:104BD00006FB0841054611482AF0CCFB0134037856
:104BE0002B70102CF0D10F2400E0D4B221460A48DB
:104BF0002AF0C0FB0378621E002BF6D0611C064829
:104C00002AF0B8FB00230370034938462AF030FA33
:104C10003846BDE8F08100BF1C54FF1F2C54FF1F15
:104C2000014B1878704700BF1A54FF1F014B1870D2
:104C3000704700BF1A54FF1F074B084A01E0934218
:104C400008D093F8350010F0010003F13603F6D0D8
:104C500001207047704700BF302FFF1F1A54FF1FFD
:104C6000F8B50C4F0C4E0D4D0D4C0E4938462AF040
:104C7000EBF93246294638462DF0A4FC20460A4975
:104C80002AF0E2F9324629462046BDE8F8402DF0E8
:104C900099BC00BF2C54FF1F1C0DFF1FC9EF020061
:104CA0001C54FF1F30B8030024C3030038B5054C63
:104CB000A4F580552046103C2AF086F9AC42F9D183
:104CC00038BD00BF8864FF1F2DE9F04F9BB08146BF
:104CD0000D4612A8BD492AF0B7F912A948462AF094
:104CE00023FB044612A82AF06FF9002C00F08B80F9
:104CF000B64948462AF0FAFA58B9D9F80010B44C27
:104D0000B448002908BF214624F0BAF903900028CE
:104D100050D0D9F80020AE4BAE49DFF8BC821AAEB5
:104D2000002A08BF1A4612A8012324F035F916F804
:104D3000141D9DF84C20149B88F80420C8F80830F6
:104D400088F80C10324608F10D0308F11A0712F822
:104D5000011F03F8011BBB429F4CF8D1199BE36173
:104D6000204623F07FFF0390002851D19B4A984BA7
:104D700012689849002A08BF1A4612A8012324F095
:104D80000BF99DF84C10149A9DF8543088F80410D3
:104D90000D34C8F8082088F80C3016F8013F04F8E4
:104DA000013BBC428C4BF8D1199A0398DA611BB0D5
:104DB000BDE8F08F894B87491A68DFF81C8212A87A
:104DC000002A08BF2246012324F0E6F81AAA149B01
:104DD0009DF84C1012F8140DC8F8083088F80C0033
:104DE00088F8041008F10D0308F11A0712F8011FE2
:104DF00003F8011BBB427849F8D1199B0398CB619A
:104E00001BB0BDE8F08F2F2148462AF011FA6FE75A
:104E100049467248DFF8D881DFF8CC91DFF8CCA1A1
:104E20002AF0A2F900276E4BC8F80070394606A890
:104E30001F602AF009F9204624F0A6F93B460196A6
:104E400009F11A07CB461E460122634912A824F035
:104E500041F99DF854209DF84C00149989F80C20D4
:104E6000604B019A89F80400C9F8081012F8011F74
:104E700003F8011BBB42F9D1199B5B48CBF81C30EE
:104E800023F01CFF002800F0B580574823F0E8FE0F
:104E9000014606A82AF078F9534823F0E3FE0446B9
:104EA00000287FD1AB68002B70D02E2106A82AF0F5
:104EB000CBFA06A9421C0AA82AF01EFBAB686BB30A
:104EC000224607E00EA82AF07FF8AB68E4B29C42C5
:104ED000224623D203342346294612A82AF0E8FAB0
:104EE00012A82AF021FB01460EA82AF0C1F812A848
:104EF0002AF06AF80EA90AA82AF0EAF90028E1D0F7
:104F00000AEB061006A92AF02FF9354B344A1B6824
:104F10000EA80133013613602AF056F80AA82AF0C9
:104F200053F8314823F0BCFEFE2E8DDD0296D8F8F2
:104F30000030002B40F313822C4DDDF808A0002731
:104F4000A9463E463C4609E001345445374609F13E
:104F5000100952D0D8F800309E4250DA002148465D
:104F60002AF008FA90F90030002BEDDAA74205EBA1
:104F70000717C0F2E781384600212AF0FBF90378D1
:104F8000013603F07F03F6B20370DDE70AEB06108B
:104F900006A92AF0E9F8124B114A1B6801330136C1
:104FA0001360BEE70AEB061406A920462AF0DCF8D7
:104FB000204600212AF0DEF90378803B0370D8F800
:104FC000003001330136C8F80030AAE718D80300D2
:104FD000227004006C83FF1F4054FF1F6454FF1FA6
:104FE0003C54FF1F8554FF1F7854FF1F9854FF1F28
:104FF0007454FF1F0296002E99D1D8F80030002B70
:1050000034DDCD4D00232E461C4699461F4606E052
:105010000137D8F80030FFB29F423C4679DA05EB01
:105020000414204600212AF0A5F90378303B092B0F
:10503000EED8B945ECD206EB091A514606A82AF07B
:1050400093F8214650462AF08FF809F1010906A984
:1050500020462AF089F85FFA89F9D9E7019A9A1A65
:105060000137FFB297423E46C0F2BA80B34B1B688D
:10507000002B47DDB04DB24F4FF0000A2E4654468C
:10508000D14609E0AD4B09F101091B685FFA89F9C6
:1050900099454C4680F2CD80D8F80000204405EBBD
:1050A000001000212AF066F90378303B092BE9D87B
:1050B000D145E7D93B680AEB030106EB011106A8CD
:1050C0002AF052F83B680AEB0300191906EB0111AC
:1050D00006EB00102AF048F83B68E01806EB0010D9
:1050E00006A90AF1010A2AF03FF85FFA8AFAC9E72D
:1050F000924B1B680137FFB2CAEB03039F423E4647
:10510000C0F2F18006A829F05FFF03981BB0BDE84C
:10511000F08F4946CDF81490CDF80490002900F0A6
:10512000208109F1FF3323F0FF030493CA46BAF14B
:10513000010F41DD0124264604E00136F6B2564552
:10514000344639DA671E05EB07172E2138462AF058
:105150007BF900220346394612A82AF0A9F912A8C1
:105160002AF010FA05EB0414834612A829F02CFF4C
:105170002E2120462AF068F921460346002212A873
:105180002AF096F912A82AF0FDF9814612A829F012
:105190001BFFCB45D1D9214606A829F0E5FF0136F2
:1051A0003946204629F0E0FFF6B206A9384629F034
:1051B000DBFF56453446C5DB049B0AF1FF3A9A45AE
:1051C000B5D1D8F80030019A9A1A002A7FF74EAF6D
:1051D0000599594D01F1010900265FFA89F9374611
:1051E000991B8945BFF63CAF49464C4608E0D8F8C4
:1051F00000300134E4B29A1B94422146BFF62EAF30
:1052000001F1FF3A05EB0A1A05EB011B504659461E
:105210002AF082F80028EAD0594606A829F0A4FF0F
:105220005146584629F0A0FF06A9504629F09CFF98
:10523000DDE7BAF1000F4FD00023CDF804A01E46E1
:10524000D8F800305C1C02E0D8F800300134019A34
:105250001344E4B29B1B9C4236DA04F1FF3905EBA0
:1052600009192E2148462AF0EFF800220346494644
:1052700012A82AF01DF912A82AF084F905EB041AE5
:10528000834612A829F0A0FE2E2150462AF0DCF811
:1052900051460346002212A82AF00AF912A82AF061
:1052A00071F9074612A829F08FFEBB45CCD95146AB
:1052B00006A829F059FF4946504629F055FF06A98E
:1052C000484629F051FFBFE70136019AF3B29A42EE
:1052D000B6D81A4B1B689246CAEB0303002B7FF724
:1052E00011AF00263746D8F80040029B01345444E1
:1052F0009E1BE4B2B44205DBFAE60134E4B2B442E8
:10530000BFF6F6AE04F1FF3905EB091905EB041BF6
:10531000484659462AF000F80028EED0594606A81B
:1053200029F022FF4946584629F01EFF06A94846A3
:1053300029F01AFFE1E700BF9854FF1F3C54FF1FFC
:105340007454FF1F394606A829F00EFF4946384617
:1053500029F00AFF06A9484629F006FF0BE60023BC
:1053600001930022D8F8003005922CE738B50848A0
:10537000084C23F091FD04F5805520460649103471
:1053800029F002FFAC42F8D1044B00221A7038BD5C
:105390006C83FF1F9854FF1F34C303006054FF1F2A
:1053A00038B5054C04F5805520460449103429F0E1
:1053B000EBFEAC42F8D138BD9854FF1F34C3030054
:1053C00038B504460D4600F00DF8054B187800B9C5
:1053D00038BD29462046BDE83840FFF775BC00BF00
:1053E0006054FF1F10B51B2088B0154C2AF07AFFBF
:1053F0002378984209D083F0010323703BB1182130
:10540000104823F01DFD30B9207008B010BDFFF723
:10541000ADFF08B010BD68460B4929F015FE04A881
:105420000A4929F011FE04A96846FFF7C9FF04A83C
:1054300029F0CAFD684629F0C7FD08B010BD00BFBD
:105440006054FF1F6C83FF1F18D8030034C3030090
:1054500008B5012118202AF053FF00211B202AF053
:105460004FFF012118202AF037FFBDE80840FFF761
:10547000B9BF00BF08B5FFF7B5FF014B187808BDED
:105480006054FF1FF0B589B005460C461746FFF77C
:10549000A9FF294B1B78002B2FD02968274E2848BD
:1054A000002908BF314623F0EBFD012C3BD0172C1F
:1054B00026D02A68214822492346002A08BF0246EE
:1054C000684623F069FD08AA1E48029B12F8144D95
:1054D0009DF8041083600473017100F10D031A300C
:1054E00012F8011F03F8011B8342164CF8D1079BE9
:1054F000E361204623F0E2FB70B9002009B0F0BD63
:105500000028D6D0002FD4D029680D48002908BF24
:10551000314623F0D1FDCCE7204623F0CFFB28B95C
:10552000084809B0F0BD0028C3D1E6E7204623F0C3
:1055300099FB0028E1D1F3E76054FF1F22700400BB
:105540006C83FF1F7854FF1F0168034B0348002939
:1055500008BF194623F0A2BD227004006C83FF1F10
:105560000A4A0B4B12681B681344994210B5044653
:1055700004DB084929F068FD204610BD064B03EB0B
:10558000011129F075FD204610BD00BF7454FF1FA6
:105590003C54FF1F34C303009854FF1F10B5034948
:1055A000044629F065FD204610BD00BF6454FF1F6E
:1055B00030B51B4989B005461A4829F097FE40BB13
:1055C0000446174904A829F03FFD04A9154829F00D
:1055D00069FF224603461349684629F069FF04A87B
:1055E00029F0F2FC04A80E4929F02EFD04A9684612
:1055F00029F058FF224603466946284629F058FFFD
:1056000004A829F0E1FC684629F0DEFC284609B030
:1056100030BD0449284629F02BFD284609B030BD8D
:1056200018D803006454FF1F08B50449044829F042
:105630005DFE003018BF012008BD00BF18D8030070
:105640006454FF1F014B1868704700BF7454FF1F5C
:10565000014B1868704700BF3C54FF1F024A034BC0
:1056600010681B68184470477454FF1F3C54FF1F98
:105670000168034B0348002908BF194623F000BD09
:10568000227004006C83FF1F38B510491048114C7C
:1056900029F0DAFC104A11490D482CF093FF10480C
:1056A00023F0D0FA0F4823F0CDFA04F580552046B8
:1056B0000021103429F0C8FCAC42F8D1064A0A494E
:1056C0000020BDE838402CF07DBF00BF18D8030093
:1056D0006454FF1F9854FF1F1C0DFF1FC9EF0200E9
:1056E0004054FF1F7854FF1FAD4C000070B5134DA0
:1056F0000024B0202AF01EFBE1B2013406461CF063
:105700008DFD202C45F8046FF3D10D4D00244FF48E
:10571000A6602AF00FFBE1B2013406461DF0F2F953
:10572000202C45F8046FF2D10649074A00230B707C
:10573000136053609360D36070BD00BF3865FF1F76
:10574000A864FF1F3565FF1F9C64FF1FF0B51D4C4B
:10575000206883B0A0B11DF09BFE88B91A4E336853
:10576000002B0DDD01F092F8054628B3174F184DB8
:105770003B680093009B2A689B1AB3F5C87F01D24F
:1057800003B0F0BD01F076F8013001F0F3F83B68AA
:105790000193019B2B60276801F072F8014638469F
:1057A0001DF0D0FE054638B1246801F069F80146C5
:1057B00020461DF0CBF9E3E720681DF087FA35603D
:1057C00003B0F0BD9864FF1F3065FF1F1C86FF1FEC
:1057D0003865FF1FF8B5114D05F1100755F8044B5A
:1057E000204634B123685E681DF056FE014620460F
:1057F000B047BD42F2D10A4B1C683CB12368204639
:105800005D681DF049FE01462046A8470549064B44
:1058100000204FF0FF3208701A60F8BD9C64FF1F33
:105820009864FF1F2C65FF1FD819FF1F2DE9F04753
:1058300001F038F8214B38B91B780BB9BDE8F08777
:10584000BDE8F047FFF7C6BF0122DFF880801A707D
:1058500001F016F8D8F8003098420746EED0184B01
:105860001B78E3B9174EDFF86890002456F8045B04
:1058700028466DB199F800302341DB0708D52B6825
:10588000D3F800A01DF008FE3A4601462846D0474E
:105890000134042CEAD1C8F80070BDE8F0870A4B47
:1058A0001C68002CDED0236820461D681DF0F4FD26
:1058B0003A4601462046A847EDE700BF2C65FF1F8A
:1058C0003465FF1F9C64FF1F9864FF1FD819FF1FDA
:1058D0003565FF1F2DE9F0410E4E346807460D4631
:1058E00064B123682046D3F804801DF0D5FD01463D
:1058F0002046C04730681DF0CBFD38B1002F064B65
:10590000376008BF00251D70BDE8F08130681DF0CC
:10591000DDF9F3E79864FF1F3465FF1F014B18683A
:10592000704700BF9864FF1F014B53F82000704779
:105930003C65FF1F014B53F820007047AC64FF1F0C
:105940002DE9F0410A4F57F820408C420DD00E4609
:10595000054644B123682046D3F804801DF09CFD21
:1059600001462046C04747F82560BDE8F08100BFEA
:105970009C64FF1F38B5044D2B78834203D0044646
:10598000FFF728FF2C7038BD3465FF1FF8B5D1B97B
:10599000114B124D53F820602B78044666B143FA40
:1059A00000F2D20708D5336830465F681DF074FDF9
:1059B00001463046B8472B78012000FA04F423EA68
:1059C00004032B70F8BD054A0124137804FA00F093
:1059D00018431070F8BD00BF9C64FF1F3565FF1FA2
:1059E00070B5184C206810B11DF052FDF8B9164D75
:1059F000002455F8043BE6B2184653B11DF048FDAB
:105A0000002130B13046FFF79BFF30460021FFF701
:105A1000BDFF0134042CECD10C4C04F1800554F88A
:105A2000040F03689B689847A542F8D170BD2468AD
:105A3000236820465D681DF02FFD01462046A847DB
:105A4000D5E700BF9864FF1F9C64FF1F3865FF1FE8
:105A5000F8B5184C206810B11DF01AFD00B3164EB1
:105A6000002456F8043BE7B218465BB11DF010FD68
:105A70000546014630B93846FFF762FF29463846E9
:105A8000FFF784FF0134042CEBD10C4C04F18005AA
:105A900054F8040F01211CF0DBFFAC42F8D1F8BD33
:105AA0002468236820465D681DF0F6FC0146204608
:105AB000A847D4E79864FF1F9C64FF1FA864FF1FDA
:105AC00008B5FFF78DFFBDE80840FFF7C1BF00BF75
:105AD000064B53F8203033B1054B1B7843FA00F0E6
