:1000000000000320D101000005B40300BDB30300CC
:10001000BDB30300BDB30300BDB30300BDB3030014
:10002000BDB30300BDB30300BDB3030005B40300BB
:1000300005B40300BDB3030059DC03005DDC03001D
:1000400005B4030005B4030005B4030005B40300C0
:1000500005B4030005B4030005B4030005B40300B0
:1000600005B4030005B4030005B4030005B40300A0
:1000700005B4030005B4030005B4030005B4030090
:1000800005B4030005B4030005B4030005B4030080
:1000900005B4030005B4030005B4030005B4030070
:1000A00005B4030005B4030005B4030005B4030060
:1000B00005B4030005B4030005B4030039C503000B
:1000C00005B4030005B4030005B4030005B4030040
:1000D00005B4030005B4030005B4030005B4030030
:1000E00005B4030005B4030005B4030005B4030020
:1000F00005B4030005B4030005B4030005B4030010
:1001000099DD0300ADDD0300C1DD0300D5DD030093
:1001100005B4030081C8030005B4030005B403005F
:1001200005B4030005B4030005B4030005B40300DF
:1001300005B4030005B4030005B4030005B40300CF
:1001400005B4030005B4030005B4030005B40300BF
:1001500005B4030005B4030005B4030005B40300AF
:1001600005B4030005B4030005B4030005B403009F
:1001700005B4030005B4030005B4030005B403008F
:1001800005B4030005B4030005B4030005B403007F
:1001900005B4030005B4030005B4030005B403006F
:1001A00005B4030005B4030005B4030005B403005F
:1001B00005B4030005B4030005B4030005B403004F
:1001C00005B4030005B4030005B4030005B403003F
:1001D0005C4B4CF2205210B51A804DF628121A8052
:1001E00000BF00BF3BF012F9574B4FF030621A606E
:1001F000564A9A60564ADA60564B4FF470021A60BB
:10020000554B564A1A60564B1A78110703D51A787F
:1002100042F008021A70534B5349AA221A70534AEB
:10022000534B8B4204D252F8040F43F8040BF8E707
:10023000504B514900228B4202D243F8042BFAE77B
:100240004E494F4A002352F8230041F8230001335E
:10025000742BF8D14B4B4C4A802103F8011B93427D
:10026000FBD14A4B454A1A60494B8A221A70A3F5C2
:10027000805324225A70A0221A709A799207FCD5D2
:100280009A79D406FCD4434A937903F00C03082BE3
:10029000FAD1414B60221A7002331A78802AFCD1BD
:1002A0003C4B01221A715D225A719A799006FCD555
:1002B0009979384A4906FBD5384B394919600021EC
:1002C000596020231370937903F00C030C2BFAD19F
:1002D000344B354A1A60354A354C136813F4807331
:1002E00003D123604FF4A8531360324B324A1A6093
:1002F00000225A60072243F8042C304AC3F80C2D20
:1003000062B63BF055FC2368DA0705D52C483BF074
:100310000BFA2C4B2C4A1A602C4B1B785B0609D528
:10032000284C294B22689A4204D125483BF0FCF91D
:10033000002323603BF070F840F06EFB3AF062FF60
:10034000FEE700BF0E20054030800440823F0400DD
:100350000100002B88ED00E0002008E0030000858C
:1003600002D0074000E00740D821FF1F4852050097
:10037000400CFF1FD821FF1FC484FF1F0002FF1F76
:100380000000000000E400E064E400E008ED00E0AC
:10039000005006400040064001E007404480044011
:1003A0000000060204800440C010070010D0034083
:1003B00014D0034014E000E01FBF02000000202022
:1003C000FE0D6B651CE00340A5C3945A00F0074086
:1003D000FFFFFFFFFFFFFFFFFFFFFFFFFFFFFFFF2D
:1003E000FFFFFFFFFFFFFFFFFFFFFFFFFFFFFFFF1D
:1003F000FFFFFFFFFFFFFFFFFFFFFFFFFFFFFFFF0D
:10040000FFFFFFFFFFFFFFFFFFFFFFFFDEF9FFFF23
:1004100010B5054C237833B9044B13B10448AFF33E
:1004200000800123237010BDD821FF1F00000000B1
:1004300044520500084B10B51BB108490848AFF3FA
:1004400000800848036803B910BD074B002BFBD0A0
:10045000BDE81040184700BF00000000DC21FF1F6E
:1004600044520500D821FF1F000000002DE9F04F85
:1004700089B00646139D149C0394012D169C049488
:100480009DF84890DDF854B00F4690461C4600F0A9
:100490009C80032B64DD032A00F3A680B3B2BAB2BA
:1004A000059303F1010A531C1BB2A4B206920793F1
:1004B0001A46ADB20FFA8AFAA31E009551461BB236
:1004C000594836F059FB1FFA88F808F1FF3536B263
:1004D0003FB22DB2B9F1000F5BD01FFA8BFB04F1D4
:1004E000FF39CDF800B02B463A4631464E480FFA58
:1004F00089F936F051FBCDF800B04B463A4631460B
:10050000494836F039FB069BBDF80CB01C44013C51
:1005100024B22B4651462246CDF800B0424836F070
:100520003BFB059BBDF81050079ACDF800B09844EE
:1005300008F1FF380FFA88F84B4641463A4836F042
:100540001BFB3A4641462B46374836F089F9364878
:100550002B462246314609B0BDE8F04F36F080B94F
:100560009CD183B28AB2059303F1010A531C1BB2DA
:100570001FFA88F80692ADB20FFA8AFA1A46079364
:10058000A8F10203009551461BB2274836F004FB40
:100590009BE7BDF80C30039300933A462B46314657
:1005A000214804F1FF3936F0F7FA0FFA89F9039B75
:1005B00000933A464B4631461B4836F0DDFA069B1F
:1005C0001C44013C1FFA8BFBA2E783B28AB203F101
:1005D000010A0593531C1BB206921FFA88F8A4B2B5
:1005E0000FFA8AFA079370E78AB29CB2114683B277
:1005F000059303F1010A0B4601331BB206921FFA61
:1006000088F8A21E1846ADB212B20FFA8AFA079302
:10061000A8F102038DE82400514602461BB20248AD
:1006200036F062FC51E700BFB47CFF1F2DE9F047B4
:10063000161E9DF82070099DDDF828E0DDF82CC01D
:10064000DDF830A011DD002B0FDD012E0FD0012BC6
:1006500019D0CDF830A0CDF82CC0CDF828E0099500
:100660000897BDE8F047FFF701BFBDE8F087012D0F
:10067000FBD0ADB208950AB21BB201B2BDE8F0479B
:10068000074836F079BA012DEFD0ADB2089533B2F4
:100690000AB2BDE8F04701B2014836F07DBA00BFAA
:1006A000B47CFF1F2DE9F04F85B004461F460020A3
:1006B0001BB2009301900DF140090F98039099E847
:1006C000000E0D46164613B20C489DF838800AB24B
:1006D00021B238F01FFA03980F90BB1EB21E691C9E
:1006E000601CCDF848B0CDF844A0CDF84090CDF8CE
:1006F000388005B0BDE8F04FFFF798BFB47CFF1F0E
:1007000070B58AB044F208269DF83C4000944FF63C
:10071000FF7548F210440494019403960295144620
:1007200005460E46FFF7BEFF0E9906A839F0DAFF20
:10073000164B06991648002908BF1946002239F0C1
:10074000D3FA0138201A00EBD07040100328CCBF38
:1007500080B204204119F21C12B209B20C4839F0DF
:100760009DFA06A839F06AFF0021094839F0B8FA65
:100770000121074839F0AEFA0E99054839F0BAFC64
:10078000034839F0DDFC0AB070BD00BFDC4A05004B
:10079000B47CFF1F2DE9F0472DED028B86B0B0EE43
:1007A000408A9DF844709DF840A0F0EE608A814632
:1007B000884615461E46002F5BD1043D07EE905A31
:1007C000B8EEE77AF4EEC88AC7EE287AF1EE10FAAE
:1007D000D4BFB0EE680AB0EE480AB5EE400A9FED0D
:1007E0002E7AF1EE10FA98BFB0EE470A27EE800A93
:1007F000FDEEC07A17EE904A002C1DDD44F208236E
:10080000BAF1000F48F2104118BF184644F2FF72C7
:1008100012BF4FF482630A46002000218DE80A00CF
:1008200002920390049317EE902A331F08F10201FD
:1008300009F10200FFF7FAFE27B106B0BDEC028B0A
:10084000BDE8F087A4B209F102092B1B04EB0901F2
:1008500008F10202043E1148119736B21BB209B2E8
:1008600012B2109606B0BDEC028BBDE8F04736F030
:100870003BBB48F2104444F2082E04944FF6FF7438
:10088000CDF80CE002944FF0000E01248DE81040EA
:10089000FFF708FF91E700BF00000000B47CFF1FD6
:1008A00070B586B048F2104344F208264FF6FF7543
:1008B0000124049301930396029500940223FFF709
:1008C000B5FE06B070BD00BF2DE9F0410E4C0F4DD6
:1008D000E561984606460F4620460121154639F047
:1008E000F9F91FFA88F1204639F0FAF93AB231B233
:1008F000204639F0D3F92946204639F0FBFB044B5A
:10090000E361BDE8F08100BFB47CFF1F142E04003A
:10091000942C04002DE9F047284C294DE5610E4642
:100920000546012120469A4617461FFA86F839F0F7
:10093000D1F9BDF82010204639F0D2F90FFA85F927
:1009400008F1FF3212B24946204639F0A7F9ADB29C
:100950003946204639F0CEFB36B2691C324609B220
:10096000204639F09BF93946204639F0C3FB08F19F
:10097000010212B24946204639F090F93946204624
:1009800039F0B8FB691E324609B2204639F086F9C3
:100990003946204639F0AEFB1FFA8AF1204639F07D
:1009A0009FF932464946204639F078F939462046C3
:1009B00039F0A0FB034BE361BDE8F087B47CFF1F77
:1009C000142E0400942C040010B582B01BB2BDF8A4
:1009D00010400093019413B20AB201B2024836F0FB
:1009E00083FA02B010BD00BFB47CFF1F2DE9F04FA9
:1009F00089B08A46139C0693E31D0393159BCDF89B
:100A00001CA00027DDF848B0169E4B4DDDF850A025
:100A1000049004F1FF3905925C1E3946BC4619F872
:100A2000018F14F801EFA5F12003802206E0C1B286
:100A30001E600433AB424FEA520212D01EEA020F8C
:100A400001F10100F3D118EA020F0CF1010056D0B8
:100A5000C3F800A00433AB425FFA80FC4FEA5202B5
:100A6000ECD103F12005039B9945D8D1BC45DDF8B5
:100A70001CA05CD98C455CD2012E0DD0B2B2BDF960
:100A80001830019200930FFA8AF2BDF91430BDF9C3
:100A900010102A4836F028FA069B53449A459B4684
:100AA0003ADA059B049ADFF89C80CDF80CB01F461B
:100AB00017449346BB4527DA214D0AEA0505002D68
:100AC00030DBED005C460FFA8AF90FE02B4458F852
:100AD00023309E4207D0012B21B29BB24A461748D1
:100AE00001D035F0BDFE0134BC420DD0144B234083
:100AF000002BEBDA013B63F007030133E6E7013734
:100B0000FFB2C3F800B094E71AF00F0F07D0039BB1
:100B10000AF1010A9A45CDD109B0BDE8F08F11F074
:100B20001BFDF4E7013D65F007050135C9E75E46A9
:100B3000A2E7FCD9149E9FE71422FF1FB47CFF1F7D
:100B400007000080F421FF1F2DE9F04F8BB0002536
:100B50009A461BB20446884616469DF85C70009380
:100B6000019513B20AB201B26D4808971FFA88FBCB
:100B700037F0D0FFA2B2AAF102000992511C00B2D4
:100B80004FF482670BF10102B31E09B212B200905A
:100B90001BB201976248DFF89091A719079736F0CA
:100BA000A3F9604A019208F1030701220798009215
:100BB00039465346032204950295CDF80C90FFF771
:100BC00015FF584A01920334012200920323049531
:100BD000CDF80C9002952046324608EB0A01FFF74B
:100BE00005FF089B002B70D04FF6FF7944F28F234E
:100BF000102200950493019303920D23A6F1120293
:100C000039462046CDF80890FFF74CFD01214448B5
:100C100039F060F8099942480BF10602083112B226
:100C200009B239F03BF849463D4839F059F8149972
:100C30003B4839F05FFA3A4839F082FA0095079D4F
:100C4000CDF8089048F2104B0D2344F208223946A3
:100C50000392A5F110001A46CDF810B0CDF804B0FB
:100C6000FFF720FD44F208214FF6082207230391E5
:100C7000012100910192CDF810B0CDF80890A5F1B6
:100C80000D001A4608F10601FFF7F0FB159BCBB1EA
:100C9000A3F10203B3FA83F35B0948F2104E44F266
:100CA00008274FF6FF750093169B0193B21FAAF118
:100CB000150308F112012046CDF810E003970295C4
:100CC000FFF7F0FC0BB0BDE8F08F0899009144F2FB
:100CD0008F234FF6FF751022394604930193039238
:100CE0000D23B21F20460295FFF7DCFC01210C48C2
:100CF00038F0F0FF09990A480BF10602083112B2E8
:100D000009B238F0CBFF2946054838F0E9FF1499BD
:100D1000034839F0EFF9024839F012FAB6E700BF9C
:100D2000B47CFF1F9C660400602704002DE9F04F8F
:100D300087B01478049201909DF8402003914FEA07
:100D4000530A002C43D1002A3ED0531EDBB201339C
:100D50001FFA80FB0593DFF8449102940BF1010325
:100D600001940093BAF1000F25D0019B039A9F18BC
:100D7000049B029A3FB203EB0208002618F8015FB9
:100D800045487400A4B22B1104EB0B0109B239F8E9
:100D900023303A4635F064FD009B3F4805F00F05CF
:100DA000E118013639F8253009B23A4635F058FDD8
:100DB000F3B29A45E2D8029A019B52440292059AF4
:100DC000013393420193CDD107B0BDE8F08F012CE0
:100DD000FAD1D90812FB01F10131002AF4D0531ED7
:100DE0004FF0000BDBB20133A0465D465C46CDF808
:100DF00000B0DDF810B005930291BAF1000F1ED0DB
:100E0000039B009A13441BB20493029B00260BEB36
:100E100003071DB91BF8084008F10108220617F85E
:100E2000019B2AD46400E4B2230614D40136F3B241
:100E3000640002359A45E4B205F00705E9D8029A44
:100E4000009B52440292059A013393420093D4D1FD
:100E500007B0BDE8F08F019B039A0F48591C009B17
:100E600009F00F099A180D4B01EB460133F82930B0
:100E700009B212B235F0F4FCD8E7019A064802EB49
:100E800046014FEA2913054A09B232F82330049A81
:100E900035F0E6FCC6E700BFB47CFF1FB42D0400AC
:100EA0002DE9F04F8FB015789DF860609DF8644093
:100EB000002D7CD1002C7AD01F460493631EDBB238
:100EC0000D917108924609914A1E591CC7F30733C8
:100ED000D2B20393C7F303130A910593511C07F091
:100EE0000F03C7F303220C90AB460B9107950892B2
:100EF0000693CDF800A0099B002B50D0079B0D9ABC
:100F0000BDF830900B99DFF8B0809F18009A134617
:100F10005B4401EB0B0AA9F102010193029109F173
:100F2000FF393FB21E46924428E0069A059999423D
:100F300008BF1346039AAA422FD0069A0599A942E0
:100F400008BF1546009A1B4838F82330B4B2CBEBE3
:100F50000401891A029A02EB410109B23A4635F0BE
:100F60007FFC019B1348E11A09EB410109B238F8F3
:100F700025303A4635F074FC564510D016F8015F1E
:100F8000049A2B0905F00F05002ADBD0039A9A4238
:100F9000CBD1039A089BAA42CFD1089DD2E7099AE8
:100FA000079B93440A9A013393420793A3D10FB04E
:100FB000BDE8F08FB47CFF1FB42D040008B50168B4
:100FC000044B0548002908BF1946002238F08CFE62
:100FD000013808BDDC4A0500B47CFF1F08B50021BC
:100FE00009202DF017FB00B908BD022240F6AC51D4
:100FF0000520BDE8084039F037BA00BF08B5002128
:1010000009202DF007FB00B908BD022240F6B831D7
:101010000520BDE8084039F027BA00BF08B5002117
:1010200009202DF0F7FA00B908BD02224FF4FA6149
:101030000520BDE8084039F017BA00BF10B50021FF
:10104000044609202DF0E6FA60B1002C41F20401BB
:101050004FF0020208BF4FF47A610520BDE810404E
:1010600039F002BA10BD00BF10B5002104460920B6
:101070002DF0D0FA60B141F2941141F23013002CFE
:1010800008BF194602220520BDE8104039F0ECB92E
:1010900010BD00BF2DE9F04F8BB0804609910B20A9
:1010A000002192461C462DF0B5FA002106460C2080
:1010B0002DF0B0FA002107460D202DF0ABFA0021EB
:1010C00081460E202DF0A6FA002183460F202DF038
:1010D000A1FA344D344B55F8292053F8200053F829
:1010E0002B1055F8273055F82650039001910492A3
:1010F000029352462346099900954046FFF776FC35
:10110000002110202DF086FA012802D00BB0BDE896
:10111000F08F099BDFF898B000264FF0BA092344FE
:101120000893CDF818903546374609F14603DBB2EF
:101130000793069A089B9342E8DDCDF818906B243C
:1011400012E02B466D081F420BD0A04508EB0A03A6
:1011500007DC9C4205DA099B4B4502DC089B4B45AA
:1011600018DC0134EB2C09D0A4F16B035A07E8D149
:101170001BF80670402501368023E4E7079B1B0718
:1011800005D009F10109B9F59B7FCED1BEE711F079
:10119000E3F9F6E700230FFA89F221B2034835F0AC
:1011A0005FFBDEE7B42D0400A4660400B47CFF1FDF
:1011B000285E04002DE9F04F052397B0013BFDD1D7
:1011C00000210C465548DFF864B1DFF864A136F021
:1011D000C7F8A1462546A046264623462746A2B282
:1011E000D10700F1918052081BF802703A09002BD8
:1011F0006AD102F007014A48415C12073AF821809F
:101200005FD4012633462B44E02B65DC05F1080151
:1012100009B21D4609F11A02CDF8008012B2334618
:101220003E4835F0B9FCE02D71D00023013445F281
:1012300014329442D3D106A83A4939F03FFA0A222F
:1012400002A8012139F080FA02A906A839F04EFB64
:10125000354939F053FB0A22044602210AA839F025
:1012600073FA0AA9204639F041FB2F4939F046FBB1
:101270000A22044601210EA839F066FA0EA920467A
:1012800039F034FB014612A839F02CFA12AA44F2C4
:1012900008234FF49D710020FFF716FB12A839F0C8
:1012A000CDF90EA839F0CAF90AA839F0C7F902A891
:1012B00039F0C4F906A839F0C1F917B0BDE8F08FCC
:1012C00016010133DBB2B1E7012BF9D01644F6B2B7
:1012D00033462B44E02B99DDA9B2C1F1E00309F1BB
:1012E0001A022035083109B21BB212B20B48CDF8F0
:1012F00000802E4435F050FCF6B201208144354682
:101300003AF004FC082185E707F00F026FE701209F
:10131000002581443AF0FAFB2B4687E7B47CFF1F97
:10132000742D0400642D0400BCB10400382E0400A8
:10133000B42D04002DE9F04F85B0002502900391F3
:10134000AB46AA462F462C462B46A946AAB2D10741
:101350005CD452082F4911F802904FEA1912002B61
:1013600031D12D4802F007011207415C2B4830F8BB
:1013700021B025D4012423463B44BE2B2BDCBDF8F1
:101380000880BDF80C60B9B21F4606EB0A02414462
:10139000234612B209B2CDF800B0214835F0FCFB6B
:1013A000BE2F03BF00270AF1010A3B460023013587
:1013B00040F6C2429542C9D105B0BDE8F08F140194
:1013C0000133DBB2F3E7012BF9D01444E4B2234636
:1013D0003B44BE2BD3DDBDF80880BDF80C60CDF8D2
:1013E00000B0BBB2423708EB030106EB0A023C44F3
:1013F000C3F1BE0309B21BB212B20948E4B235F020
:10140000CBFB0AF1010A27460021BEE709F00F02D3
:10141000A5E700BFC45704008C2D0400B42D0400C0
:10142000B47CFF1F2DE9F04F814685B08A461846EF
:1014300047491E46174639F093FA10B105B0BDE88A
:10144000F08F054601214348DFF8108138F042FC57
:10145000BDF83C103F4838F043FC3146684639F04F
:1014600041F900993B48002908BF41462A4638F017
:101470003BFC441E684639F0E1F8A74217DB0E9B9F
:10148000012B60D0022B56D1391B0029ACBF494437
:1014900009F1000109B20FFA8AF22E4838F0FEFB7A
:1014A00031462C4838F026FE05B0BDE8F08F2C46BA
:1014B0001CE039F099FA0178684639F059F9009939
:1014C0002448002908BF4146002238F00DFC83461D
:1014D000684639F0B3F80BF1FF33DBB2E918BA1FF5
:1014E000914203F101030ADA1D44013421463046DA
:1014F00039F07AFA037821463046002BD9D10FFA19
:101500008AF20FFA89F1134838F0C8FB002554B16C
:101510002946304639F068FA013501780D4838F02F
:1015200075FBAC42F4D101220B490A4838F0CCFDDE
:1015300005B0BDE8F08F0FFA8AF20FFA89F105487D
:1015400038F0ACFBACE7391B01EBD17149109CE7DB
:101550000C830400B47CFF1F702D0400DC4A0500DE
:101560002DE9F04FADF51D7D0023838005900E46DB
:10157000174619460DF276200DF11E0323F8061CBE
:1015800023F8041C23F8021C06339842F6D10021EC
:1015900058482BF061F8A6F10F02A7F10F0344F2AF
:1015A0008F2912B21BB2049236B203933FB2CA46DD
:1015B00048F210484FF01E0B1E23039A04994E4820
:1015C000CDF80480CDF800B035F08EFC10230093E8
:1015D0003A4605233146484836F080FB012145480C
:1015E0002BF03AF80F2425B22B463A4631464248B2
:1015F000CDF800A036F0F6F932203AF087FA2B4603
:101600003A4631463C48CDF8008036F0EBF939488F
:101610002BF016F8013CA4B208B1052CE3D13548F3
:101620002BF00EF80028C7D00025002000212C4602
:101630000BE0642DC3F3C70035D03EF02FFE41EC24
:10164000100B3CF041FF51EC100B00222B4B3EF0F5
:10165000D9FC3FF039F90FFA80FB3A465B46314638
:101660002548CDF8009036F0BDF906AB05EB4500F6
:1016700003EB40001F4932F005FD0A203AF046FA1C
:101680005B463A4631461C48CDF8008036F0AAF950
:1016900018482AF0D5FF0134194BE4B2A3FB042308
:1016A00001350028C5D1632C84D94FF480633A46B4
:1016B000314600931048052336F010FB002206AB9C
:1016C00011469CADB3F90040B3F9020006339D42C8
:1016D00021440244F6D10B4BA3FB01010598A3FB67
:1016E00002235B094A09028043800DF51D7DBDE898
:1016F000F08F00BF107CFF1FB47CFF1F000018405C
:10170000CDCCCCCC1F85EB5110B52DED0A8B8AB01A
:101710008DE80C0002AB83E80300BDF90030DFED7B
:101720005C7A5C4C04EE903ABDF9583005EE103A04
:10173000BDF90A3005EE903ABDF9023006EE103AD6
:10174000BDF95A30F8EEE44AB8EEC55A06EE903AC2
:10175000BDF90830C4EEA7AA85EE278A07EE103A35
:10176000F8EEE55AB8EEC66AF8EEE66A86EE27CAE3
:1017700085EEA79AC6EEA7CAB8EEC77A3AEEC8BAFF
:10178000C7EE278A7CEE6CBA6BEE497A28EE4CAA3B
:10179000E8EEAB7AAAEEACAAB7EE007A77EE8A7AD8
:1017A000C7EE279A19EE900A3EF08AFD41EC100B25
:1017B0000221204638F020FD204638F0C1FC68EEBA
:1017C000497A79EE6C6AE8EEAC7A04A932489FED6A
:1017D000336A9FED333ADFED334ADFED335A66EE7D
:1017E000E96A6BEEA9BA66EE863A38EEC88AB2EEBE
:1017F0000E5A67EEE97A28EE298AEBEE853A2AEE50
:10180000C97A39EE4C9A2BEE69BA2AEE29AA66EE0D
:10181000836A28EE064A28EE038A27EE866A67EE78
:10182000837A29EE299AABEE054AA8EE8C7AEBEE84
:10183000856AAAEE056AABEE058AEAEE057AB0EE95
:10184000635AA9EE245A78EEEA8A27EE297A68EEDE
:10185000E98A8DED045AB0EE445AE9EE256AA8EE05
:10186000A45AA7EE246AA8EEA58AE7EE257ACDED64
:10187000076A8DED055A8DED066A8DED088ACDED6E
:10188000097A2AF0FBFE0AB0BDEC0A8B10BD00BF3E
:1018900000007A44CC16FF1F107CFF1F000051434C
:1018A0000000344300006043000099432DE9F04FED
:1018B000A1B001ABDFF84C9307931CAC48F2104188
:1018C000C2480025012635F04BFDC149204638F0BD
:1018D000F5FE2346F0224221284601950096FFF7A7
:1018E000A1FD204638F0AAFEBA49204638F0E6FEAF
:1018F0002346F0224A21284601950096FFF792FDE3
:10190000204638F09BFEB449204638F0D7FE2346E7
:10191000F0223221284601950096FFF783FD2046EC
:1019200038F08CFE0F2211460CA8FFF719FE08278D
:1019300048F21043322201932946F0230097A3482E
:1019400035F0D2FAA549204638F0B8FE2346F022F9
:101950003221284601950096FFF764FD204638F0B5
:101960006DFEB422D1210EA8FFF7FAFD48F2104314
:101970003222009701932946F023944835F0B4FAB7
:101980009749204638F09AFE2346F0223221284615
:1019900001950096FFF746FD204638F04FFE4FF4C4
:1019A0009972E02110A8FFF7DBFD10AB93E803006C
:1019B0000EAB0CCB0090079801800CA903C9FFF770
:1019C000A3FE294687482AF047FE8749204638F07B
:1019D00075FE2346F0226421284601950096FFF704
:1019E00021FD204638F02AFE8049204638F066FE68
:1019F0002346F0226C21284601950096FFF712FD40
:101A0000204638F01BFE7A49204638F057FE234620
:101A1000F0227421284601950096FFF703FD204629
:101A200038F00CFE7349204638F048FE2346F02279
:101A30007C21284601950096FFF7F4FC204638F0FB
:101A4000FDFD4FF6FF7344F2082248F21041049165
:101A500003920293C82201939621642314200096D6
:101A6000FEF720FE6449204638F028FE0D23402270
:101A7000FE219C208DE83000FEF742FE204638F023
:101A8000DDFDD9F800300993DDF82480AA461E2731
:101A900054482AF067FE534912A82AF0C5FD514860
:101AA000BDF948B0BDF94A602AF0BCFD012877D0E5
:101AB00071D3032830D1002D00F0D280BAF1000F8D
:101AC00000F0D080ABF116039BB2C32B24D8A6F153
:101AD00098039BB25F2B1FD84FF4004300965246E9
:101AE0002946019339485B4636F024F9B2465D46F3
:101AF0000026D9F800300A930A9BDFF808B1C8EB3A
:101B00000303B3F57A7F09D2002EC1D035482AF0FD
:101B1000BFFD21B0BDE8F08F0026EAE7082348F2B8
:101B20001042019200937C22F02300212748013FBC
:101B300035F0DAF9FFB2314918A838F0BFFD39465F
:101B400014A838F0EDFD14A918A838F0CFFE2C49E0
:101B500038F0D4FE0146204638F0C4FD00200123B1
:101B6000F0227C21019000932346FFF75BFC204686
:101B700038F064FD14A838F061FD18A838F05EFD57
:101B8000DBF800300B93DDF82C80002EBED1002F47
:101B90007FF47EAF92E64FF0000A55465646A8E71E
:101BA0001FFA8BF3A3F11602C32A2DD8A6F19802CF
:101BB00092B25F2A28D832464FF400435946034870
:101BC000B2465D4634F04CFE002692E7B47CFF1F1F
:101BD0002467040048670400646704008467040005
:101BE000A4670400107CFF1FC4670400E8670400BA
:101BF0001068040034680400486804004C6804005D
:101C0000E0EB04000481FF1F9C3B352B84D8FE3E93
:101C1000B6B20C2E80D814492046012638F04EFD6D
:101C20000D234022FE218DE850009C20FEF768FD28
:101C3000204638F003FD00210C482AF00DFD0A492A
:101C4000204638F03BFD0023019300940D234022F1
:101C5000FE219C20FEF754FD204638F0EFFC48E7BB
:101C60002E4646E7564644E748680400107CFF1FAE
:101C700008B501210F2039F01FFF0121102039F094
:101C80001BFF0121112039F017FF00210F2039F02F
:101C9000FFFE0021102039F0FBFE00211120BDE8DD
:101CA000084039F0F5BE00BF10B500F00101044650
:101CB0000F2039F0EDFE04F00201102039F0E8FEAB
:101CC00004F00401112039F0E3FE0E20BDE81040BD
:101CD00039F0AAB870B50646FFF7E6FF154B054682
:101CE0000021985D2CF0A2FC134B04460021985D66
:101CF0002CF09CFC2D1B001B07EE900A07EE105ADF
:101D0000F8EEE77AB8EEC77AB7EE000AC7EE276AB0
:101D1000F4EEC06AF1EE10FA00D470BDF5EEC06AC0
:101D2000DFED067AF1EE10FA8CBFB0EE660AB0EE87
:101D3000670A70BD380DFF1F400DFF1F0000000037
:101D400000B583B00191FFF7C5FF019907EE901A26
:101D5000F8EEE77AF7EE006A86EEA77A013907EE29
:101D6000901A80EE070AF8EEE77AB4EE670AF1EE11
:101D700010FA48BFF0EE407AF5EEC07AF1EE10FAB4
:101D80008BBFFDEEE77A0023CDED017A0193019838
:101D900003B05DF804FB00BF10B50C46FFF79AFFD7
:101DA000F6EE007AB4EEE70AF1EE10FAACBF0120CD
:101DB00000200CB180F0010010BD00BF0A4B10B430
:101DC000002203F1480401201A7058709A709A603A
:101DD000DA701A710C33A3424FF00001F4D1034BB7
:101DE00019705DF8044B7047480DFF1FF422FF1F68
:101DF000FFF7E4BF084900EB400080000B1810B467
:101E0000002201240A545C709A70DA701A719A6088
:101E10005DF8044B704700BF480DFF1F2DE9F843E4
:101E200047004E4E0446381806EB8009884699F85C
:101E3000020002F015FF054699F8020002F02CFF9F
:101E40000021884218BF4FF0040E484608BF4FF0EB
:101E5000020E0B46C2780A41D20718D54278013AE1
:101E6000062A14D8DFE802F059694939291F04000D
:101E700003F001025B0803EB43034FEA420C03EB60
:101E8000C303624403EB82032B4483F804800131D3
:101E9000CBB29E45DED83C4406EB8404A078BDE876
:101EA000F84302F033B903F001035A00134403EB83
:101EB000C3032B4483F81880E9E703F001025B08B1
:101EC00003EB43034FEA420C03EBC303624403EB0F
:101ED00082032B4483F80A80D9E703F001025B08F0
:101EE00003EB43034FEA420C03EBC303624403EBEF
:101EF00082032B4483F80980C9E703F001025B08E1
:101F000003EB43034FEA420C03EBC303624403EBCE
:101F100082032B4483F80880B9E703F001025B08D1
:101F200003EB43034FEA420C03EBC303624403EBAE
:101F300082032B4483F80680A9E703F001025B08C3
:101F400003EB43034FEA420C03EBC303624403EB8E
:101F500082032B4483F8078099E700BF480DFF1FD9
:101F600061B9104B00EB400003EB80007F228178C9
:101F70005D390123C9B2092000F0ACBD00B5094BA1
:101F800000EB400003EB800083B0817801235D39D2
:101F90000193C9B200937F22092000F0F1FD03B044
:101FA0005DF804FB480DFF1F10B5124B00EB40001D
:101FB00003EB8004E3789B0702D501B1A2B910BD01
:101FC0003AB904F0E3FE0028F9D0BDE8104004F06F
:101FD000FDBC04F0DBFE0028F1D1E078BDE8104044
:101FE000C0F3800004F072BD04F0D0FE0028F4D0ED
:101FF000EBE700BF480DFF1F38B504460D46112022
:1020000000212CF007FB012800D038BD04F0BEFEF3
:102010000028FAD0B5B10C4B04EB440403EB840464
:10202000E3789B070AD404F099FE044601E004F02B
:1020300089FD04F093FE8442F9D038BDBDE83840F4
:1020400004F080BD38BD00BF480DFF1F2DE9F041F1
:102050008F4C904D237803EB43029200A918AA5CA1
:1020600082B1012A1ED0022A29D08B4A013382FB79
:102070000312A2EBE37202EB4202A3EB42032370D2
:10208000BDE8F081A2F15532013302F1004282FB3A
:102090000312A2EBE37202EB4202A3EB42022270B4
:1020A000BDE8F0814A78013A18460A2ADDD8DFE80F
:1020B00002F0B5B3B3B3B323B39E80614500C978D2
:1020C000184601F00101FFF767FE94F800C00CEB21
:1020D0004C0305EB8303002814BFFF26002693F86A
:1020E00001E099680EF1FF3E6346BEF1030F1DD873
:1020F000DFE80EF0C0B2A4960821FFF721FE237896
:10210000DFF88C81634F03EB430205EB8202064646
:1021100091688842A9D051781846FFF77FFE98F859
:10212000003003EB430207EB8207B9688E429CD074
:1021300003EB430205EB8202966096E78021FFF7EE
:10214000FFFD2378DFF84881524F03EB430205EB94
:10215000820206469168884287D0D078F1B2012287
:1021600000F002FE98F8003003EB430207EB820711
:10217000B968DBE74FF48031FFF7E2FD2378DFF841
:102180001081444F03EB430205EB8202A0F50046A9
:1021900091688E423FF469AFD0783146012200F059
:1021A00047FF98F8003003EB430207EB8207B9685A
:1021B000BCE78021FFF7C4FD2378DFF8D480354FDA
:1021C00003EB430205EB82020646916888423FF426
:1021D0004CAFD0780123F2B20A2100F0F5FD98F857
:1021E000003003EB430207EB8207B9689EE78021CA
:1021F000FFF7A6FD2378DFF89880264F03EB430214
:1022000005EB82020646916888423FF42EAFD078F3
:102210000123F2B20721E0E710216EE740216CE7CD
:102220008E423FF422AFFF2E82D104F015FC2378BA
:1022300003EB430205EB8202916877E7711A0246CD
:1022400018BF01216046FFF7AFFE237803EB43027E
:1022500005EB8202916869E78E423FF406AF0146C2
:102260006046FFF7C9FE237803EB430205EB8202C9
:1022700091685BE78E423FF4F8AE01466046FFF797
:102280006FFE237803EB430205EB820291684DE772
:10229000F422FF1F480DFF1FABAAAA2A024B00EB36
:1022A000400003EB80007047480DFF1F044B00EB1C
:1022B000400013F82000003018BF0120704700BF15
:1022C000480DFF1F0E4930B4002201F580654FF024
:1022D0007E54012001F83C2C01F83B2CA1F13C0379
:1022E0001A715A719A601A731C6103F8140F8B42A9
:1022F000F6D103F14001A942ECD130BC704700BFD8
:10230000CC0DFF1F0C49820110B400238C188B5494
:102310003C3263700A44204601214FF07E54037121
:10232000437183600373046100F8141F9042F6D177
:102330005DF8044B704700BF900DFF1F0F289ABF38
:10234000024B03EB80100020704700BF900DFF1F71
:10235000014B8001185C7047900DFF1F8001014BFD
:1023600019547047900DFF1F024B03EB8010417012
:10237000704700BF900DFF1F024B03EB80104078A9
:10238000704700BF900DFF1F8001044B01EB8101DE
:1023900000EB810119440879704700BF900DFF1FC1
:1023A0008001044B01EB810100EB81011944487964
:1023B000704700BF900DFF1F8001044B01EB8101AE
:1023C00000EB810119448868704700BF900DFF1F22
:1023D0008001044B01EB810100EB81011944087B72
:1023E000704700BF900DFF1F8001044B01EB81017E
:1023F00000EB8101194491ED040A7047900DFF1F15
:102400008001044B01EB810100EB81011944087D3F
:10241000704700BF900DFF1F0A4B30B4002203F538
:1024200080651978D4B2013211B15978814205D052
:102430004033AB42F5D1FF2030BC7047204630BC62
:10244000704700BF900DFF1F01EB81018001034B1E
:1024500000EB810119440A71704700BF900DFF1F06
:1024600001EB81018001034B00EB810119444A71AA
:10247000704700BF900DFF1F01EB81018001034BEE
:1024800000EB810119448A60704700BF900DFF1F67
:1024900001EB81018001034B00EB810119440A73B8
:1024A000704700BF900DFF1F07EE902A9FED077A3F
:1024B000074BF8EEE76A01EB8101C6EE877A8001EF
:1024C00000EB81011944C1ED047A70470000FE421F
:1024D000900DFF1F01EB81018001034B00EB810197
:1024E00019440A75704700BF900DFF1F014B187803
:1024F000704700BFF522FF1F014B1878704700BFDF
:10250000F622FF1F014B1870704700BFF522FF1F16
:10251000014B1870704700BFF622FF1F30B5094D00
:10252000094C2B68226883B00093009B9B1AB3F57B
:10253000FA7F05D310F004F82B680193019B236008
:1025400003B030BD0481FF1F0823FF1F064B07495E
:1025500053F82020096810B4002443F8204001FB00
:1025600002F05DF8044B7047FC22FF1F9411FF1F1F
:10257000002808B50CBF2320262039F08FFAB0FAC6
:1025800080F0400908BD00BF0346024A0021105CEC
:10259000D1547047F822FF1F064A13780F2B07D833
:1025A00010B4591C044C117044F823005DF8044B1E
:1025B000704700BFF722FF1F0C23FF1F70B50446B2
:1025C00080B3224E224D337855F82300844236D012
:1025D000FF2B19D133701F4B187868B12B689C42C0
:1025E0002ED01B4A002303E052F8041F8C4210D067
:1025F0000133DBB28342F7D11749184A00230B603D
:102600004B601370537070BD00212CF0E1FAFF2372
:10261000E0E7FF2B3370EFD055F8230001212CF0B9
:10262000D7FAE9E7094D2B78FF2B0CD0084A214651
:1026300052F823002CF0CCFAFF232B70DCE770BD9E
:1026400000233370E8E72B70D6E700BF9211FF1F1D
:102650000C23FF1FF722FF1FFC22FF1FF822FF1F82
:10266000054B1B78834202D80020FFF7A7BF034B1E
:1026700053F82000FFF7A2BFF722FF1F0C23FF1F14
:1026800070B5FF20FFF7ECFF094E0A490A480B4CD2
:102690000B4B0022FF250A704A70026042603270C4
:1026A000257003F1400143F8042F8B42FBD170BD2C
:1026B000F722FF1FF822FF1FFC22FF1F9211FF1FAE
:1026C0000823FF1F70B4214E327872B1204C23686A
:1026D000984238D02146002303E051F8045F854238
:1026E00005D00133DBB29342F7D170BC7047FF2BAA
:1026F000FBD0013AD1B29942317088BF1A4607D94E
:10270000501C54F8205044F82250C2B29142F7D8DD
:10271000104802780025FF2A44F82150E5D09A425B
:1027200005D084BF02F1FF32027070BC7047FF22F7
:1027300002700029D9D0481E9842A8BF1846C0B2DE
:1027400070BCFFF78DBF0023D3E700BFF722FF1F48
:102750000C23FF1F9211FF1F2DE9F04F594C81B040
:1027600039F0B0F92368C01A632802D801B0BDE877
:10277000F08F39F0A7F9544F544EDFF868A1DFF815
:10278000689120600025BB46A8461AF8010B36F870
:10279000024B39F083F940EA440080B2B0F5704F43
:1027A0004DD026F8020C0135042D0BF1040BECD1B1
:1027B000474D2B78002BD9D0464E3A683368002419
:1027C00003FB02F3A3423C6043DD0120FEF736FC2D
:1027D000414B1A78FF2A71D12B784FF001089C42A7
:1027E00058D32046FFF73CFF7B683468002004FB89
:1027F00003F47860002CB9D0374E3378FF2BB5D076
:102800002A789A4284BF354A52F823002CF0FAF90C
:102810000028ABD0002CD4BF00200120FEF724FC00
:1028200033782A789A4223D92C4A52F82300036835
:102830005B6B2146012201B0BDE8F04F1847012D26
:1028400026F8028C17D909EB0503012103F8021CB5
:10285000A9E7C9D02046FEF7F1FB1F4B1A78FF2AE3
:1028600026D0FF234FF0FF38D418E4B22B78B6E718
:1028700000231B68FFDE1A4B585D39F00FF9DBF8B7
:10288000003000280CBF4FF0FF3101210B44CBF882
:10289000003088E7DFF8449059F824002CF0B2F9B2
:1028A00000289ED144442B78E4B2A34299D9F3E79F
:1028B0002B785C1EE4B24FF0FF3890E70123984676
:1028C000D2E700BF0423FF1FFC22FF1F9C11FF1F44
:1028D000F722FF1F9411FF1F9211FF1F0C23FF1FF0
:1028E0009011FF1F9811FF1FF822FF1F10B5002144
:1028F000212039F0E1F80021222039F0DDF8002113
:10290000232039F0D9F80021242039F0D5F800210E
:10291000252039F0D1F80021262039F0CDF800210A
:102920001C2039F0C9F802221E491C2038F080FE14
:102930001D4B1E494FF6FF72002008601A805A8016
:102940009A80DA80FFF708FF232039F0A7F870B1EA
:10295000002131202BF04CFE154B002814BF4FF006
:10296000FF320122BDE810401A60FFF789BE262021
:1029700039F094F804460028EAD14FF4FA724FF483
:102980007A71052037F070FD214631202BF030FEA2
:1029900080F00101C9B2224631202BF05BFE2BF002
:1029A0001BFDD5E71D2500009C11FF1F0423FF1F01
:1029B0009411FF1F0020FFF701BE00BF054B064A20
:1029C0001B7812789A4286BF044A52F823000020EE
:1029D000704700BF9211FF1FF722FF1F0C23FF1F3C
:1029E000034A044B10781B78834298BFFF2070473E
:1029F0009211FF1FF722FF1F70B50646002401E069
:102A00001F2C0DD0E5B22846012100F0CFFF0F2C7E
:102A100004F10104F4D8284600F088FE1F2CF1D1FF
:102A200003F084FC3046BDE8704004F01FBA00BFDC
:102A3000014B185C704700BF1424FF1F70B5064699
:102A40000024E5B22846314600F0B0FF01342846A4
:102A500000F06CFE102CF4D10549064B00220A80D0
:102A600003F1400123F8022F8B42FBD170BD00BF60
:102A70002C24FF1F4A23FF1F2DE9F8430024134D88
:102A800080460E46274602E00134102C1CD015F873
:102A9000013F43455FFA84F9F6D13146484600F0DC
:102AA00085FF484600F042FE094A200202F140013B
:102AB00032F9023F03F47F43984208BF17808A42ED
:102AC000F6D10134102CE2D1BDE8F8831324FF1FA6
:102AD0004A23FF1F0E28F8B50D461F4607DC0446A3
:102AE0000646224B40BB1B88DB0707D419E01F4B6F
:102AF000B3F90030002B12DA0F2426461C490022BD
:102B000002E00132202A1CD031F9020F0028F8D14E
:102B10000135184B05EB062623F81260F8BD0F2689
:102B20003446154B20469A5D294600F0EDFE2046BE
:102B300000F0F2FD9FB9F8BDB3F900300341DA07A8
:102B4000DCD4092EEDD105F15D022046D2B2294632
:102B500000F0DAFE204600F0DFFD002FEBD0294622
:102B60002046BDE8F84003F06FBA00BF2C24FF1FD9
:102B70004A23FF1F4C23FF1F1424FF1FFFFFFFFFEB
:102B80002DE9F04F2DED028B83B001929DF8385066
:102B90009DF83CB0002A00F096800E280446884636
:102BA0001F46064679DC002840F09480002F78D13B
:102BB000DDED017A9FED687AF8EE677AF4EEC77A78
:102BC000F1EE10FA7AD517EE900A3DF079FB41EC60
:102BD000100B3BF069FD2046B0EE408AF0EE608AB3
:102BE00000F07CFD002853D1002C00F09980092CC6
:102BF00079D05A4B13F80690204600F05BFD002870
:102C0000204614BFAA464FF0000A00F05DFD0028E0
:102C100057D0BBF1000F0CBF002502254AA3D3E912
:102C2000002351EC180B3DF0C9FC3DF095FE5544D6
:102C300008EE100AEDB2204600F02EFD2B46F0EE15
:102C4000480A4A464146204600F0E8FD444BB5009C
:102C50002B4493ED000AB5EE400AF1EE10FA6FD165
:102C600007EE906AF8EEE77A3E4AF5EE407AF1EE2A
:102C700010FA14BF042300231344D3ED007AF5EEB9
:102C8000407AF1EE10FA54D1204600F03DFD7FBBB2
:102C900003B0BDEC028BBDE8F08F0F242646002F59
:102CA00086D004F085F8002882D004F087F8A0428E
:102CB0007FF47EAF012003F009FF79E79FED240B3D
:102CC00087E70546AAE703B0BDEC028BBDE8F04FED
:102CD000FFF700BF09287FF469AFA1F123032E2B72
:102CE0007FF664AFD4E708F15D095FFA89F983E7FD
:102CF000204600F0D1FCDFED187A28EE000A4146AC
:102D000020EE270A2046FCEEC07ACDED017A9DF830
:102D1000042003B0BDEC028BBDE8F04F03F000B916
:102D20000FF0A6FD03287FF464AF02F03FF981465F
:102D300062E7154495ED000A204600F075FEA3E712
:102D4000204600F06FFE8BE7422E609472601340C5
:102D50000000000000C05F400000FE421424FF1F7E
:102D60008C23FF1FD423FF1F30B583B00E280191A1
:102D7000DDED017A124BB8EEE77ADFED127A87EEDD
:102D8000270AC4BF0F24204603EB8003D8BF0446A4
:102D900015462046D3ED007AB4EE670AF1EE10FA3C
:102DA00098BFB0EE670A00F03FFE0DB903B030BD2A
:102DB0000199204603B0BDE8304003F051BA00BF8E
:102DC000D423FF1F0000FE420E282DE9F041CABFA8
:102DD0000F2404462046402915461E467CD007D9BC
:102DE00079292ED07B2910D078294BD0BDE8F081ED
:102DF000072965D00A2918D00129F7D1294620468C
:102E00001A46BDE8F041FFF7AFBF4A4BB3F90010D7
:102E100041FA00F010F00101E8D1204600F0C6FDB3
:102E20002046BDE8F04100F081BC1146204600F08C
:102E3000E7FB002EDAD029462046BDE8F04103F03A
:102E4000B9B9002240212046FFF7BEFF6421204689
:102E500000F08EFB2046402100F0D2FB9FED360AA9
:102E6000204600F0DFFD002EC0D06421204603F094
:102E70007BF9204600F018FC01462046BDE8F041F1
:102E800003F098B92B4D2D4A29880123834021EA6C
:102E900003032B80000202F14001002532F9023FBA
:102EA00003F47F43984208BF15809142F6D1204633
:102EB000012100F07BFD2046BDE8F04100F036BC6A
:102EC0001146204600F054FB002E8FD029462046A4
:102ED000BDE8F04103F048B93F2A164921D80A88D5
:102EE000164C0123834022EA03030B80070204F1FE
:102EF00040054FF0000801E0A54210D034F9020F60
:102F000000F47F439F42F7D1411EC9B2C0F30720AE
:102F100033460022FFF7DEFDA4F80080ECE7BDE8B1
:102F2000F0810B88012202FA00F003430B80BDE818
:102F3000F08100BF2C24FF1F000000004A23FF1F68
:102F400038B500240023E0B21A4678210134FFF797
:102F50003BFF102CF6D100203AF010FA38B10020D7
:102F60003AF00CFA0028F6D101E039F059FA39F0BC
:102F700043FA04460028F8D1094B0A4A0A4D187052
:102F800001461D205C709C7014702C7038F080FD20
:102F900021461E2038F07CFD044B1C6038BD00BF6C
:102FA0002824FF1F2424FF1FD023FF1FCC23FF1F33
:102FB0000A2825D00E2870B516460D46044615DCA5
:102FC000F8B9034602467B21FFF7FEFE174B1D7042
:102FD000AEB12046294603F08FF80FF049FC0328D4
:102FE0000DD12846BDE8704016F02ABD00231A46D0
:102FF0007B210F20FFF7E8FE0C4BDD737EB970BD1F
:10300000704700231A467B21FFF7DEFE074B1D5554
:10301000002EF4D02946204603F06EF870BD2946F4
:103020000F20BDE8704003F067B800BF1424FF1FF5
:1030300070B582B00E28D4BF04460F2501914FF021
:1030400012004FF00001D4BF25462C4616462BF047
:10305000E1FA07EE900A9FED107A104BF8EEE77A4E
:1030600003EB8403C7EE276A2846DDED017AF8EE0C
:10307000E77A87EEA67AB0EE470A83ED007A00F091
:10308000D1FC0EB902B070BD0199284602B0BDE86E
:10309000704003F0C5B800BF000080468C23FF1FBE
:1030A00070B5FFF74DFF0125002602E00135EDB2B6
:1030B0000136F4B200231A4620467821FFF784FE39
:1030C000002320461A467921FFF77EFE0022092EB2
:1030D00011462046EAD0FFF76BFF0022114620463A
:1030E000FFF7A6FF002320461A460121FFF76CFEDA
:1030F000102DDBD1BDE870400FF022BA034B1870E1
:1031000008B1FFF71DBFFFF7CBBF00BFD123FF1FE3
:1031100008B503F041FE00B908BD03F037FE0028F2
:10312000FAD0BDE8084003F00DBD00BF08B503F0BC
:1031300033FE00B908BD0020BDE8084003F0C6BC5E
:1031400008B503F029FE00B908BD0120BDE808401C
:1031500003F0BCBC30B558490878A0F1800383B0B7
:1031600000F00F007F2B48D8DFE803F088888888BC
:1031700088888888888888888888888840404040EF
:10318000404040404040404040404040494949491B
:10319000494949494949494949494949999999995F
:1031A00099999999999999999999999981818181EF
:1031B00081818181818181818181818149494949DF
:1031C00049494949494949494949494971717171CF
:1031D00071717171717171717171717147475F476F
:1031E0004747476D5047555A904747A101238A7872
:1031F000497801930093FFF7C3FC03B030BD4978D1
:10320000012203B0BDE83040FFF7AEBD03B0BDE81A
:103210003040FFF77DBF03B0BDE83040FFF786BF09
:1032200003B0BDE83040FFF78BBF8D784C7803F0DA
:10323000B3FD0028E1D004EB052080B203B0BDE867
:103240003040FFF7D9BB1D4B00221A70D5E78B78B1
:103250004A78D90101F47E5302F07F011944A1F5A7
:103260000051012203B0BDE83040FFF7E1BE4978CC
:10327000012203B0BDE83040FFF79ABE8A78497852
:10328000012303B0BDE83040FFF724BC03F084FD08
:103290000028B2D003B0BDE8304003F097BB8A7875
:1032A0004978012303B0BDE83040FFF78DBD03B07E
:1032B000BDE83040FFF7F4BE2824FF1F2424FF1F81
:1032C0002DE9F041524B1C7882B0002C40F08680F2
:1032D000504D514E2F4611E032782A7002F0F00026
:1032E000F0280878197804D09EF80030013B134389
:1032F0003B706870A9700124FFF72CFF00203AF0A2
:103300003DF8DFF834E14549454B0028E4D1414D13
:10331000444E2F4611E0327872B92A78DFF8F480F3
:10332000414C002A3DD021784A1CD2B27B542270F5
:103330003E4B1B78934229D0012439F05DF80028D8
:1033400039D039F06DF80206C3B2E4D5F02B4DD078
:10335000327834492AB1F72B43D0EF2B3ED80022E4
:103360003270314C2B7000220121DF2B21706A70EA
:10337000AA70DFF8A08016D8C02B1AD2802B14D2E6
:1033800001232A49012293420B70D5D1FFF7E2FEB7
:1033900098F800300122EF2B2270CDD900232B703A
:1033A000CAE72278C4E7EF2BEAD8204B03221A7031
:1033B000C2E70223E5E7FCB91D4D2B6873B11D4A36
:1033C00012680192019A934208D221461D2038F0DA
:1033D0005FFB21461E2038F05BFB2C6002B0BDE88D
:1033E000F08100230B7002B0BDE8F0810D4B01228B
:1033F0001A7002B0BDE8F08101211D2038F048FBB1
:103400000C4B0B4A1B680093009B32331360E5E7BB
:10341000D123FF1F2824FF1FAF84FF1FAD84FF1F90
:10342000AC84FF1F2424FF1FD023FF1FA411FF1F04
:10343000CC23FF1F0481FF1FAE84FF1F024B1870B7
:1034400059709A70FFF786BE2824FF1F00B5F83820
:1034500083B004280BD8DFE800F0280A0320180006
:103460004FF60F2039F026FFFA2038F007FF012130
:103470001E2038F00DFB114B114A1B680193019B74
:103480000133136003B05DF804FB4FF60F4039F0D1
:1034900011FFFC2038F0F2FEE9E74FF60F3039F06B
:1034A00009FFFB2038F0EAFEE1E74FF60F0039F0A4
:1034B00001FFF82038F0E2FED9E700BF0481FF1FCA
:1034C000CC23FF1F70B501211D2038F0F5FA012132
:1034D0001E2038F0F1FA00211D2038F0D9FA002121
:1034E0001E2038F0D5FA084E084D094A0948002335
:1034F000012447F6122133702B70147036F06CFDE6
:10350000BDE87040FFF7CCBDD023FF1F2424FF1F70
:10351000A411FF1FE414FF1FF0B500230D4E0E4D44
:103520000E4C0F480F49DFF844C01A464FF0640EA6
:1035300040270133102B06F801EF45F804CB04F8BF
:10354000017F00F8012F01F8012FF2D1064BFF2275
:103550001A70F0BD4324FF1F6424FF1F2F24FF1F98
:103560005324FF1FA324FF1F4024FF1FCDCC4C3F3B
:1035700038B504460D46D1B107EE901A9FED1C7A7E
:10358000F8EE677AF4EEC77AF1EE10FA1FD49FEDE9
:10359000140B3BF089F814A3D3E9002351EC100B72
:1035A0003DF00CF83DF0D8F907EE900A01E0DFEDB0
:1035B000117A114A114B155503EB84032046C3EDD4
:1035C000007AB0EE670ABDE8384000F059BF17EE48
:1035D000900A3CF075FE41EC100BDAE7AFF3008087
:1035E0000000000000C05F40422E609472601340F3
:1035F0000000FE42000000004424FF1F6424FF1F5F
:1036000030B4094D2A5C8A420CD02F290B4694BF56
:10361000002201224F292B548CBF0021012130BCF4
:1036200000F03EBB30BC70473024FF1F034B1954E1
:1036300001B97047012100F0B9B900BF5424FF1F40
:10364000F8B5104E104D30700024034627460FE0A9
:10365000834214BF012300234FF001012B7001D0DE
:1036600000F0A4F90134102C05F1010509D03378DC
:10367000FF2BE0B2ECD10134102C2F7005F10105C5
:10368000F5D1F8BD4024FF1F5424FF1F014B185CE7
:10369000704700BF4424FF1F024B03EB800090EDF6
:1036A000000A70476424FF1F014B185C704700BF7D
:1036B0003024FF1F034B185C4F288CBF00200120D3
:1036C000704700BF3024FF1F034B185C2F2894BFA6
:1036D00000200120704700BF3024FF1F014B185C01
:1036E000704700BF5424FF1F034B1B78181AB0FA11
:1036F00080F04009704700BF4024FF1F014B18783D
:10370000704700BF4024FF1F024A135C013313546B
:10371000704700BFA424FF1F034A135C013B23EA48
:10372000E3731354704700BFA424FF1F014B002212
:103730001A547047A424FF1F014B185C704700BF48
:10374000A424FF1F054B185C4F2804D82F2894BFD2
:103750000020012070470220704700BF3024FF1F67
:103760000A4B0B4930B40022002503F520740320D6
:103770001A809A705D601872DA601033A34221F8E3
:10378000042C41F8082BF3D130BC7047A811FF1F5F
:10379000B824FF1FF0B51E4B1E4C1B6883B004F508
:1037A000A0750193019E002702E00834AC420ED0C0
:1037B00034F8040C0028F8D02368B342F5D800216F
:1037C00000F066F9083424F80C7CAC42F0D1124CBD
:1037D000002704F5207502E01034AC4215D034F80F
:1037E0000C0C0028F8D02368B342F5D814F8042C48
:1037F00054ED020A14F80A1CB7EE000A00F030FF7C
:10380000103424F81C7CAC42E9D103B0F0BD00BFF9
:103810000481FF1FB824FF1FB411FF1F2DE9F04FD3
:10382000C0022DED028B1FFA80F8481C144640445C
:1038300083B01A4680B289462146B0EE408AF0EE47
:10384000608A00F00DFF2046FEF7E6FDFEF776FDEC
:10385000002843D02A4B2B4E1B680193DDF804B09F
:10386000054608F10108B24601272B798BB3D5ED47
:10387000047AF5EEC07AF1EE10FA2ADD2B7D68EEBF
:10388000280A012B60EEA70A33D94FF0020E7A0204
:103890002C7BAB68697902F4C062424409EB0400F6
:1038A00052FA80F080B2F3B1002301E0282B10D04F
:1038B0001C010133325B002AF8D10AEB04032AF819
:1038C0000400997083F808E0AA68C3ED010A5A441D
:1038D000DA600137042F05F11405C6D103B0BDEC41
:1038E000028BBDE8F08F7246B0EE480A00F0B8FED9
:1038F000EFE7002B0CBF4FF0010E4FF0030EC6E7B1
:103900000481FF1FA811FF1F2DE9F04FC0021FFA0D
:1039100080F8481C404483B0144680B28946002198
:1039200000F0B6F82046FEF777FDFEF707FD90B3EE
:103930001C4B1D4D1B680193DDF804B0044608F1D3
:103940000108AA460127237903B3D4ED047AF5EEE2
:10395000C07AF1EE10FA19DD7B02207BA16803F436
:10396000C0634344484453FA80F080B2B9B10023A5
:1039700002E00133282B11D035F83320DE00002A75
:10398000F7D1564459442AF8330071600137042FA7
:1039900004F11404D7D103B0BDE8F08F002100F08A
:1039A00077F8F3E70481FF1FB424FF1F2DE9F84FD8
:1039B00082468946DFF86880184D00F089FB0024B4
:1039C0004FEACA2AC3462746264638F81430610013
:1039D00003F478424BB1524507D13A010BEB020395
:1039E0004BF802605E609E60DE6035F8043C03F4D4
:1039F00078424BB1924507D138F80100494600F0B2
:103A000047F825F8046C2E600834B4F5A07F07F160
:103A1000010705F10805D8D1BDE8F88FB824FF1FCC
:103A2000A811FF1F00F056BA00F06CBA00F07F003A
:103A30000138C0B2704700BF30B100F47840B0EB3D
:103A4000C12F0CBF01200020704700BFF0B500243B
:103A50000C4D0D4E83B02746AB69E1B253B13268CD
:103A60000192019A094893424FF0000202D82FF0C8
:103A700017FAAF610134242C05F11C05ECD103B019
:103A8000F0BD00BFF425FF1F0481FF1F007DFF1F55
:103A90002DE9F04F564C85B0002681468B4604F147
:103AA000180504F57C7806E01C34A04506F10106F3
:103AB00005F11C0542D035F8183C4B45F7B2F3D15F
:103AC000BBF1000F3DD0002239464A482FF0A8F93B
:103AD00001228246394647482FF0A2F90F23019070
:103AE0000022394643482FF0A5F90F230122394619
:103AF00040482FF09FF9002239463E482FF014FA33
:103B0000002239463B482FF0CBF953460022394674
:103B100038482FF08FF9019B3648394601222FF0A3
:103B200089F90023A3611C344FF00003A04525F858
:103B3000183C06F1010605F11C05BCD105B0BDE835
:103B4000F08F5A4639462B482FF0EEF95A4639463F
:103B500028482FF0FFF850BB0122394625482FF0A6
:103B6000F9F84FF00F0AA0B10122394621482FF091
:103B7000C7F83E2830D9BAF1000F36D145F2F052DD
:103B800042FA0AF31C4A12680392039A1344A3618F
:103B9000C9E750460AF1FF3A45F2F0530028F1D048
:103BA00001388245EADB45F2F0530341EAE75A4621
:103BB000394610482FF0A4F83E28CDD85A46394649
:103BC0000C482FF02DF901228246394609482FF082
:103BD000C1F80028CFD0C7E73946012205482FF0A9
:103BE0001FF9BAF1000FD7D0D4E70F20D2E700BFFA
:103BF000F425FF1F007DFF1F0481FF1F30B52DED51
:103C0000028B044683B00846F0EE408A01F028F8A3
:103C1000837C9FED218AC3F13F0307EE903AF8EED3
:103C2000E77A214687EE887A012205461B4868EE2E
:103C3000C77AB0EE487AA7EE887AFCEEC77ACDED67
:103C4000017A9DF804302FF065F8214613482FF0D3
:103C50009FF9012803D003B0BDEC028B30BDAB79D6
:103C60000E48C3F13F0307EE903AF8EEE77A21469B
:103C700087EE887A002268EEC78AA8EE888AFCEE72
:103C8000C87ACDED017A9DF8043003B0BDEC028B0B
:103C9000BDE830402FF03EB800007C42007DFF1FA1
:103CA000134B1B78022B21D02DE9F04700249246BC
:103CB00089460746DFF84080254602E0B4F57C7F60
:103CC00012D038F804003946FFF7B6FEEEB21C34C5
:103CD00001350028F2D0314653464A4605482FF0B8
:103CE00071FCB4F57C7FECD1BDE8F087704700BF74
:103CF000E429FF1F007DFF1FF425FF1F2DE9F04F72
:103D00002DED028B6B4B9FED6C7A1B68DFF8B0A139
:103D10006A4CDFF8BCB185B000250393DDED038A62
:103D2000F8EE687A67EE878A05E00135242D04F104
:103D30001C0400F0A38034F8103C5FFA85F9002BD6
:103D4000F3D02379002BF0D114F80C0C00F088FF8D
:103D5000867E14F90C3C7F2EC8BFA6F58076002B1A
:103D6000C0F2918034F8100CFFF760FE30448BFBFA
:103D70000036C317C3EB660606EB4606A0EB8606C5
:103D80000236F6B214ED017A5AF82670B5EEC07A12
:103D9000F1EE10FA0FFA87F800F1818014DDB31C00
:103DA000474A07EE908A52F82330F8EEE76ADB1BA9
:103DB00007EE903AF8EE677AE7EE276AFDEEE67ACC
:103DC000CDED007ABDF9008094ED008AB5EEC08A91
:103DD000F1EE10FA40DD18EE900A3CF071FA01366F
:103DE00041EC100B3AF010FB5AF82630DF1B07EEBF
:103DF000907AF8EE677A8DED000B67EE887A17EE11
:103E0000900A3CF05DFA9DED000B06460F4600223D
:103E100051EC100B2B4B3CF0A7FA0022294B3CF045
:103E2000F1F802460B46002027493CF0E9F802462B
:103E30000B46304639463CF097FA064640460F4658
:103E40003CF02CFA02460B46304639463CF0DAF894
:103E50003CF03AFD0FFA80F849461C482FF00AF86A
:103E600080453FF462AF42464946184801352FF07D
:103E700017F8242D04F11C047FF45DAF05B0BDECF0
:103E8000028BBDE8F08F8BFB0632F317C3EB6203A6
:103E900003EB4303A6EB83060236F6B272E7B31ECA
:103EA000074A07EE908A52F82330F8EEE76AFB1AC9
:103EB0007EE700BF0481FF1FF6AD003D0426FF1F13
:103EC000586804000000E03F0000F03F007DFF1F45
:103ED000ABAAAA2A70B50A4C2DED028B0646B0EEAD
:103EE000408A04F57C7531462088FFF7A5FD08B1AE
:103EF00084ED038A1C34AC42F5D1BDEC028B70BD5D
:103F0000F425FF1F70B50A4C2DED028B0646B0EE6E
:103F1000408A04F57C7531462088FFF78DFD08B195
:103F200084ED048A1C34AC42F5D1BDEC028B70BD2B
:103F3000F425FF1F2DE9F04F634B83B0C0EBC007A2
:103F40000190884603EB8707002402E00134192C16
:103F50002BD0E0B2FEF7A2F90578012D0646F5D187
:103F600082783B799A42F1D1012D00F0A580B8F119
:103F7000FF0F15D0C2464FF004097378013B062BA2
:103F80000ED8DFE803F05160423324041500F378C3
:103F900019EA030F04D05146327A4C482EF0DEFF66
:103FA000022DD3D00135EDB2DEE703B0BDE8F08FCE
:103FB0004FF0000BF17809FA0BF319425FFA8BF21C
:103FC0000BF1010B4ED1BBF1020FE9D0F2E74FF03C
:103FD000000BF17809FA0BF319425FFA8BF20BF13F
:103FE000010B45D1BBF1020FDAD0F2E74FF0000B25
:103FF000F17809FA0BF319425FFA8BF20BF1010B1E
:1040000048D1BBF1020FCBD0F2E74FF0000BF178B3
:1040100009FA0BF319425FFA8BF20BF1010B33D162
:10402000BBF1020FBCD0F2E74FF0000BF17809FAB8
:104030000BF319425FFA8BF20BF1010B33D1BBF199
:10404000020FADD0F2E74FF0000BF17809FA0BF355
:1040500019425FFA8BF20BF1010B0FD1BBF1020F8A
:104060009ED0F2E7337A194851462EF029FEAAE78E
:10407000337A164851462EF0DDFEB3E7337A134803
:1040800051462EF071FEE9E7337A104851462EF082
:1040900089FEC5E7B3680D48C3F10F03DBB2514693
:1040A0002EF0A0FEADE7B3680848C3F13F03DBB2D2
:1040B00051462EF02FFEC2E7019BFF2B3FF472AF5B
:1040C0009A46A94659E700BFF425FF1F007DFF1F50
:1040D0002DE9F0410C4D064688462F46002403E0AA
:1040E0001C34B4F57C7F0DD03146285BFFF7A4FC6F
:1040F0000028F5D0385B41461C34FFF7C9FCB4F505
:104100007C7FF1D1BDE8F081F425FF1F0A4B10B48C
:1041100003F57C71FF2404E0FF2805D01C338B429B
:1041200006D01A798242F7D11C711C338B42F8D128
:104130005DF8044B704700BFF425FF1FF8B5174F1B
:10414000174B3870002403F57C760022FF251A8077
:104150005A801D719C60DC601C611A759A611C3369
:10416000B342F4D1A0F10201B1FA81F149090D483D
:104170002FF086F90B482FF0E1FB012109482EF0C2
:1041800027FF012107482EF00DFF39780548023935
:1041900018BF0121BDE8F8402FF0B6BCE429FF1F8D
:1041A000F425FF1F007DFF1F2DE9F04F5C4B1F78AA
:1041B000012F87B068D0022F0CBF4FF0090E4FF0CF
:1041C0000C0E4FF6FF764FF0FF080022554DDFF83A
:1041D000609103969346B246B446CDF81480CDF86C
:1041E0000480CDF8088000900DE01C795B882006E3
:1041F00022D4B34202F1010238BF1E46D3B238BF07
:1042000088469E4528D9022F0ABF474B12F809104D
:10421000D15CC1EBC10405EB840335F82440002CCC
:10422000E3D11C79009884420BD05B889C45DED991
:1042300020069C460191DCD553453CBF9A4605912A
:10424000D7E75888039B04900BF1010B98425FFA63
:104250008BFB0BD30346E9E7029BFF2B17D0BBF187
:10426000010F07D9029807B0BDE8F08F049B0393B4
:104270000291DBE7019A02991346FF2A08BF0B4619
:10428000184607B0BDE8F08F4FF0060E99E7019B86
:10429000FF2B03D0019807B0BDE8F08F059CFF2CE1
:1042A00028D1022F2DD00021DFF888C0059C4FEACD
:1042B0004E0E0A460E464FF6FF7901E01CF802103A
:1042C000C1EBC103501C35F8237005EB83032FB9F4
:1042D0005B884B4502D2164699460C46C2B29645BB
:1042E000ECDCFF2C0DD0314610482FF08BFC78B958
:1042F0002046B8E70D48002221462EF015FE204644
:10430000B1E70A48002241462EF00EFE4046AAE7D9
:104310000648314600222FF0CDFA2046A3E700BF21
:10432000E429FF1FF425FF1FC8680400007DFF1F5C
:1043300098680400EC68040070B52DED048B044609
:1043400082B00846B0EE409A00F08AFC90F82D301A
:104350009FED498AC3F13F0307EE903AF8EEE77A02
:104360002146C7EE888A0122064644482FF0ACFB5E
:10437000012201464148F0EE487A68EE898AE8EE6B
:10438000C87AFCEEE77ACDED017A9DF804302EF084
:10439000C1FC214639482FF065F902285FD0032877
:1043A000054627D0012803D002B0BDEC048B70BDB8
:1043B000B37C3248C3F13F0307EE903AF8EEE77A58
:1043C000214687EE887A002227EE099A2FF07CFB9F
:1043D000A9EE488A01462A46FCEEC87A2748CDED68
:1043E000017A9DF8043002B0BDEC048BBDE870404A
:1043F0002EF090BCB3792148C3F13F0307EE903A09
:10440000F8EEE77A0022C7EE888A21462FF05CFB9F
:10441000002201461948F0EE487A68EE898AE8EEF3
:10442000C87AFCEEE77ACDED017A9DF804302EF0E3
:1044300071FC96F821301148C3F13F0307EE903A22
:10444000F8EEE77A214687EE887A012227EE099A6C
:104450002FF03AFBA9EE488A01460022BCE7B37967
:104460000648C3F13F0307EE903AF8EEE77A21469B
:1044700087EE887A0022E9E700007C42007DFF1F7A
:104480002DE9F8431C4CDFF874902DED028B80462B
:10449000B0EE408A04F57C7700250DE094ED020A29
:1044A000217919F8050028EE000AFFF745FF1C34B2
:1044B000BC4205F101051BD041462088EEB2FFF752
:1044C000BBFA0028F3D0237D002BF0D1207900F037
:1044D000E3FB0028E2D194ED020A2179304628EE70
:1044E000000A1C34FFF78AFBBC4205F10105E3D149
:1044F000BDEC028BBDE8F883F425FF1FA46804001F
:104500002DE9F04F524B1B7889B0012B029000F03F
:104510008180022B4FD04FF00C0900254FF6FF7819
:104520004FF0FF0A2B4606952F46C346CDF8048070
:10453000CDF81C80CDF814A0CDF810A0CDF80CA0BB
:104540004448454C03210FE0127912062ED49845B9
:1045500005F1010588BFBA46EFB288BF9846B94554
:1045600039D98378C1780230C3EBC303C1EBC101F1
:1045700004EB830204EB8106B2F802C034F823E0B6
:104580007388634528BF6346BEF1000FDCD134F861
:10459000211012790029D8D102998A422CD0019990
:1045A0009942D2D9120601930497D0D59B4584BF76
:1045B0009B460597CBE7FF230393002203992748E7
:1045C0002FF082FA0022014624482EF0ADFC039819
:1045D00009B0BDE8F08F039BFF2B1ED0069B012B7B
:1045E000F5D8049A03991346FF2A08BF0B46039394
:1045F000039809B0BDE8F08F3179029EB142CED167
:1046000006990131C9B2069107999942C7D9079312
:104610000397C4E74FF006097FE7049BFF2B05D003
:10462000049B0393039809B0BDE8F08F059CFF2C11
:104630000BD02146002209482FF046FA00220146FD
:10464000064803942EF070FCC1E7CDF80CA0B4E747
:10465000E429FF1FEC680400F425FF1F007DFF1F05
:104660002DE9F04F2DED028B06469FB008460D4612
:10467000F0EE408AB0EE608A924600F003FB00281C
:1046800000F0B9809B4B1B78022B05D0284600F028
:1046900003FB002840F0B48010AB184629460F9366
:1046A00000F0E6FA28469DF85AB0934FDFF858829A
:1046B000FFF77AFD0446FF23214690480D934FF003
:1046C00000092EF027FC002840F0CC808C4B1B5DAD
:1046D0000E93FF2B0AD0194688482FF093FA4845CD
:1046E00004D04A460E9985482FF0E4F8B9F1000F3E
:1046F00000F0C1804FEAC409C4EB090307EB830350
:104700007D4A1B79AB4200F0DE808DF85AB00DF186
:10471000480CBCE80F00EE46AEE80F00BCE80F0006
:10472000AEE80F009CE80F00AEE80700AEF80030DE
:104730000F9B0E997148B7EE000A0CCB2EF0D4FEF9
:104740000E98294628EE280AFFF7F6FDCAF3400323
:104750000AF001020D9969482EF034FFC4EB0909F3
:104760004FEA890907EB0903B8F800205A800021B5
:1047700000221D7183ED028AD96019611A759A6150
:104780002B0627F8096005D406F07F06013E5E443B
:104790005FFA86FBBBF16A0F6ADCBBF10C0F00F31A
:1047A0009C8000252E46534B1B78022B07D0CAF362
:1047B00040030AF00102214650482EF003FF324622
:1047C00021464E482EF08CFB29464C482EF014F919
:1047D0002146024649482EF063FB0D992046FFF71B
:1047E000A9FB2146012245482EF09EFBB8F8003077
:1047F0000133A8F800301FB0BDEC028BBDE8F08F8C
:1048000010AB184629460F9300F032FA28469DF85F
:104810005AB0394FDFF8F080FFF772FE394BB8F825
:1048200000E000B203EB400213F8104053780D9300
:10483000C3EBC3029200BB180021BE524FF0010926
:104840000022D96019611D7183ED028AA3F802E08C
:104850009A6183F81490214628482EF05BFB0028CB
:104860003FF434AF0022214624482EF05DFB2DE7B3
:104870000B25072697E74FEAC409C4EB090307EBAA
:1048800083031B79AB4217D08DF85AB00DF1480C59
:10489000BCE80F00EE46AEE80F00DCF800302EF862
:1048A000023B1B0C8EF800300F9B14480CCBB7EE6C
:1048B000000A21462EF036F928EE280A294620461D
:1048C000FFF79CF94AE70D9BC3EBC30302EB83029E
:1048D0001379AB427FF419AF32E70C26BBFBF6F538
:1048E00006FB15B5ABF10C03EDB293FBF6F6F6B291
:1048F00059E700BFE429FF1FF425FF1F007DFF1FBC
:10490000A4680400EC6804002814FF1F08B52DED0E
:10491000028BDFED468A9FED468AB0EE680A0322DD
:10492000F7EE000A602148F23000FFF799FEB0EE82
:10493000480A0322F7EE000A702148F63000FFF71C
:104940008FFE322037F0E2F8B0EE680A0322F7EE6D
:10495000000A602148F23500FFF782FEB0EE480AF7
:104960000322F7EE000A702148F63500FFF778FEC3
:10497000322037F0CBF8B0EE680A0322F7EE000AD7
:10498000602148F23900FFF76BFEB0EE480A0322BF
:10499000F7EE000A702148F63900FFF761FE50205B
:1049A00037F0B4F8B0EE680A0322F7EE000A60218F
:1049B00048F23C00FFF754FEB0EE480A0322F7EE3F
:1049C000000A702148F63C00FFF74AFE4FF4FA70E7
:1049D00037F09CF8002148F23000FFF759F8002129
:1049E00048F23500FFF754F8002148F23900FFF78C
:1049F0004FF8002148F23C00FFF74AF8002148F642
:104A00003000FFF745F8002148F63500FFF740F881
:104A1000002148F63900FFF73BF8BDEC028B00217E
:104A200048F63C00BDE80840FFF732B83333333F67
:104A3000CDCC4C3F2DE9F04F002380468FB0194676
:104A4000B0227C4898F800902FF050F90021794866
:104A50002FF0D8F800221146029076482EF02AFF57
:104A600000231A46202173482DF066FD00231A46C4
:104A7000039040216F482DF05FFD00231A460490FB
:104A800060216C482DF058FD00231A4605908021C6
:104A900068482DF051FD00231A460690E021654834
:104AA0002DF04AFD012307900022202161482DF0BE
:104AB00043FD01230890002240215E482DF03CFD7B
:104AC00001230990002260215A482DF035FD012371
:104AD0000A900022802157482DF02EFD01230B90D3
:104AE0000022E02153482DF027FD00220C90A02148
:104AF00050482DF0F9FC00220D90B0214D482DF0CA
:104B0000F3FC00228246C0214A482DF0EDFC01262C
:104B10008346B9F1000F23D018F80670741CE4B274
:104B2000B7B10025631CDBB218F8042018F8033075
:104B30004048013500212FF0D9F8EBB202349F42F2
:104B4000E4B2EFD806EB470404F2011404F0FF04CA
:104B5000661CF6B218F8040036F0D8FFB145DBD277
:104B6000029A344800212EF0A5FE039A00920023F9
:104B70001A4620212F482EF013FE049A009200239B
:104B80001A4640212B482EF00BFE059A0092002376
:104B90001A46602127482EF003FE069A0092002351
:104BA0001A46802123482EF0FBFD079A009200232D
:104BB0001A46E0211F482EF0F3FD089B00930022C7
:104BC000012320211B482EF0EBFD099B00930022BE
:104BD0000123402117482EF0E3FD0A9B0093002299
:104BE0000123602113482EF0DBFD0B9B0093002274
:104BF000012380210F482EF0D3FD0C9B009300224F
:104C00000123E0210B482EF0CBFD5B460022C021A2
:104C100008482EF0A3FD0D9B06480022A0212EF08F
:104C20009DFD044853460022B0210FB0BDE8F04F6F
:104C30002EF094BD007DFF1F84B070B5074E05AC0B
:104C4000362584E80E0005FB006021462A4636F032
:104C5000E1FABDE8704004B0704700BFE829FF1FCB
:104C6000024B362202FB0030704700BFE829FF1FCD
:104C700008B5034B362202FB013136F0CBFA08BDF2
:104C8000E829FF1F034A362303FB002090F8350074
:104C9000C0097047E829FF1F044A362303FB0020A0
:104CA00090F8350000F00100704700BFE829FF1FB1
:104CB000054A362303FB002090F8353063F07F036C
:104CC00080F83530704700BFE829FF1F084B3622B7
:104CD00002FB003090F8353021B923F0010380F851
:104CE0003530704743F0010380F83530704700BF1E
:104CF000E829FF1F2DE9F84F4FEA001A89460AF10B
:104D000010075446012607E035F06EFE20230546C5
:104D10000134A7422B7019D021461348002EF3D03E
:104D2000CAEB04084146484635F05EFE90F800B0F4
:104D30000D482146BBF1000F0AD135F055FE013474
:104D400005462023A7425E462B70E5D1BDE8F88FCB
:104D50002146054835F048FE41460546484635F0AF
:104D600043FE0378D4E700BFE44EFF1F70B5124C3A
:104D7000124992B0362606FB0044054668462EF0DE
:104D80008DFB32466946204636F044FA0123002264
:104D900084F8352023712374E37784F82B300EA830
:104DA000074935F08BFC0EA92846FFF7A3FF0EA894
:104DB00035F044FC12B070BDE829FF1F007DFF1FD5
:104DC0000C8304002DE9F04F97B060B90446E0B2BF
:104DD0000134FFF7CBFFAF2CF9D1FF2017B0BDE8AE
:104DE000F04FFFF793B900212E2029F013FC022881
:104DF0004B4F6AD000212F2029F00CFC00F002005C
:104E000000F0FF04002860D1DFF83091454A3D46AC
:104E10006E464FF0360A01E059F8042F424901234B
:104E200030460AFB04782EF045FB0134404636221A
:104E3000314636F0EFF98123802C85F8353005F1C5
:104E40003605E9D10DF13C08DFF8F490374A00242B
:104E5000802501E059F8042F3349012340462DF005
:104E6000F7FD362303FB057A2F4930462EF016FB5B
:104E700007EB040B36223146504636F0CBF91B22A5
:104E800041460BF5D85036F0C5F936340BF5D953F9
:104E900040F6EA128021944205F101055975D9D1F5
:104EA000234E4125002401E016F8015F21482146E8
:104EB00035F09AFD0134B4F52F6F0570F4D1FF2061
:104EC00017B0BDE8F04FFFF721B9DFF878901A4A24
:104ED0003D4600240DF13C086E464FF0360A01E0D5
:104EE00059F8042F1049012340462DF0B1FD0AFB6B
:104EF000047B0D4930462EF0D1FA36223146584611
:104F000036F088F928461B22414636F083F90134F1
:104F100080239C4285F8353005F13605E0D193E7D2
:104F2000E829FF1FEC930400007DFF1F5891040047
:104F300004690400E44EFF1FBC9304009095040034
:104F4000BC760400288604002DE9F0410746884617
:104F5000102600242146134835F046FD06FB084183
:104F60000546114835F040FD013403782B70102CB4
:104F7000F0D10F2400E0D4B221460A4835F034FDC8
:104F80000378621E002BF6D0611C064835F02CFD1C
:104F9000002303700349384635F0A4FB3846BDE8CA
:104FA000F08100BFD44EFF1FE44EFF1F014B187865
:104FB000704700BFD24EFF1F014B1870704700BFF3
:104FC000D24EFF1F074B084A01E0934208D093F8E6
:104FD000350010F0010003F13603F6D001207047D0
:104FE000704700BFE829FF1FD24EFF1FF8B50C4FD6
:104FF0000C4E0D4D0D4C0E49384635F05FFB3246D8
:105000002946384638F034FF20460A4935F056FB29
:10501000324629462046BDE8F84038F029BF00BF97
:10502000E44EFF1F1C0DFF1F3DA60300D44EFF1FC3
:1050300008780400FC82040038B5054CA4F58055BE
:105040002046103C35F0FAFAAC42F9D138BD00BF29
:10505000405FFF1F2DE9F04F9BB081460D4612A81F
:10506000BD4935F02BFB12A9484635F097FC0446A4
:1050700012A835F0E3FA002C00F08B80B6494846C0
:1050800035F06EFC58B9D9F80010B44CB44800297A
:1050900008BF21462FF0BEFA0390002850D0D9F85F
:1050A0000020AE4BAE49DFF8BC821AAE002A08BF22
:1050B0001A4612A801232FF039FA16F8141D9DF88C
:1050C0004C20149B88F80420C8F8083088F80C108D
:1050D000324608F10D0308F11A0712F8011F03F810
:1050E000011BBB429F4CF8D1199BE36120462FF076
:1050F00083F80390002851D19B4A984B1268984935
:10510000002A08BF1A4612A801232FF00FFA9DF8B3
:105110004C10149A9DF8543088F804100D34C8F8D7
:10512000082088F80C3016F8013F04F8013BBC4217
:105130008C4BF8D1199A0398DA611BB0BDE8F08F57
:10514000894B87491A68DFF81C8212A8002A08BF19
:10515000224601232FF0EAF91AAA149B9DF84C105D
:1051600012F8140DC8F8083088F80C0088F80410FC
:1051700008F10D0308F11A0712F8011F03F8011BCB
:10518000BB427849F8D1199B0398CB611BB0BDE8AD
:10519000F08F2F21484635F085FB6FE7494672486E
:1051A000DFF8D881DFF8CC91DFF8CCA135F016FB21
:1051B00000276E4BC8F80070394606A81F6035F00E
:1051C0007DFA20462FF0AAFA3B46019609F11A070C
:1051D000CB461E460122634912A82FF045FA9DF8DE
:1051E00054209DF84C00149989F80C20604B019ACA
:1051F00089F80400C9F8081012F8011F03F8011B10
:10520000BB42F9D1199B5B48CBF81C302FF020F83A
:10521000002800F0B58057482EF0ECFF014606A8A4
:1052200035F0ECFA53482EF0E7FF044600287FD112
:10523000AB68002B70D02E2106A835F03FFC06A9E4
:10524000421C0AA835F092FCAB686BB3224607E01B
:105250000EA835F0F3F9AB68E4B29C42224623D2A3
:1052600003342346294612A835F05CFC12A835F019
:1052700095FC01460EA835F035FA12A835F0DEF996
:105280000EA90AA835F05EFB0028E1D00AEB061053
:1052900006A935F0A3FA354B344A1B680EA8013332
:1052A0000136136035F0CAF90AA835F0C7F931485C
:1052B0002EF0C0FFFE2E8DDD0296D8F80030002BB8
:1052C00040F313822C4DDDF808A00027A9463E4686
:1052D0003C4609E001345445374609F1100952D0E3
:1052E000D8F800309E4250DA0021484635F07CFB69
:1052F00090F90030002BEDDAA74205EB0717C0F25A
:10530000E7813846002135F06FFB0378013603F062
:105310007F03F6B20370DDE70AEB061006A935F04D
:105320005DFA124B114A1B68013301361360BEE768
:105330000AEB061406A9204635F050FA2046002153
:1053400035F052FB0378803B0370D8F8003001330E
:105350000136C8F80030AAE7F0970400DC4A0500DF
:10536000687EFF1FF84EFF1F1C4FFF1FF44EFF1FEC
:105370003D4FFF1F304FFF1F504FFF1F2C4FFF1F90
:105380000296002E99D1D8F80030002B34DDCD4D97
:1053900000232E461C4699461F4606E00137D8F8E2
:1053A0000030FFB29F423C4679DA05EB04142046F8
:1053B000002135F019FB0378303B092BEED8B945B5
:1053C000ECD206EB091A514606A835F007FA214639
:1053D000504635F003FA09F1010906A9204635F0D7
:1053E000FDF95FFA89F9D9E7019A9A1A0137FFB2F4
:1053F00097423E46C0F2BA80B34B1B68002B47DD94
:10540000B04DB24F4FF0000A2E465446D14609E047
:10541000AD4B09F101091B685FFA89F999454C46C2
:1054200080F2CD80D8F80000204405EB0010002168
:1054300035F0DAFA0378303B092BE9D8D145E7D9C2
:105440003B680AEB030106EB011106A835F0C6F92B
:105450003B680AEB0300191906EB011106EB00107B
:1054600035F0BCF93B68E01806EB001006A90AF11C
:10547000010A35F0B3F95FFA8AFAC9E7924B1B6863
:105480000137FFB2CAEB03039F423E46C0F2F180F0
:1054900006A835F0D3F803981BB0BDE8F08F494655
:1054A000CDF81490CDF80490002900F0208109F186
:1054B000FF3323F0FF030493CA46BAF1010F41DD25
:1054C0000124264604E00136F6B25645344639DA60
:1054D000671E05EB07172E21384635F0EFFA00223C
:1054E0000346394612A835F01DFB12A835F084FB9F
:1054F00005EB0414834612A835F0A0F82E212046AF
:1055000035F0DCFA21460346002212A835F00AFBEA
:1055100012A835F071FB814612A835F08FF8CB4503
:10552000D1D9214606A835F059F901363946204629
:1055300035F054F9F6B206A9384635F04FF956451C
:105540003446C5DB049B0AF1FF3A9A45B5D1D8F839
:105550000030019A9A1A002A7FF74EAF0599594DEB
:1055600001F1010900265FFA89F93746991B89453F
:10557000BFF63CAF49464C4608E0D8F8003001344D
:10558000E4B29A1B94422146BFF62EAF01F1FF3AD6
:1055900005EB0A1A05EB011B5046594635F0F6F9A2
:1055A0000028EAD0594606A835F018F95146584661
:1055B00035F014F906A9504635F010F9DDE7BAF1D7
:1055C000000F4FD00023CDF804A01E46D8F80030BD
:1055D0005C1C02E0D8F800300134019A1344E4B2B4
:1055E0009B1B9C4236DA04F1FF3905EB09192E2189
:1055F000484635F063FA00220346494612A835F0C2
:1056000091FA12A835F0F8FA05EB041A834612A8AD
:1056100035F014F82E21504635F050FA5146034625
:10562000002212A835F07EFA12A835F0E5FA0746F6
:1056300012A835F003F8BB45CCD9514606A835F081
:10564000CDF84946504635F0C9F806A9484635F028
:10565000C5F8BFE70136019AF3B29A42B6D81A4BA1
:105660001B689246CAEB0303002B7FF711AF00269D
:105670003746D8F80040029B013454449E1BE4B2E4
:10568000B44205DBFAE60134E4B2B442BFF6F6AE4A
:1056900004F1FF3905EB091905EB041B484659468F
:1056A00035F074F90028EED0594606A835F096F882
:1056B0004946584635F092F806A9484635F08EF826
:1056C000E1E700BF504FFF1FF44EFF1F2C4FFF1F9D
:1056D000394606A835F082F84946384635F07EF856
:1056E00006A9484635F07AF80BE60023019300221C
:1056F000D8F8003005922CE738B50848084C2EF051
:1057000095FE04F5805520460649103435F076F8AC
:10571000AC42F8D1044B00221A7038BD687EFF1FDE
:10572000504FFF1F0C830400184FFF1F38B5054C66
:1057300004F5805520460449103435F05FF8AC423A
:10574000F8D138BD504FFF1F0C83040038B5044614
:105750000D4600F00DF8054B187800B938BD294604
:105760002046BDE83840FFF775BC00BF184FFF1F4B
:1057700010B51B2088B0154C36F090F9237898426C
:1057800009D083F0010323703BB1182110482EF09B
:1057900021FE30B9207008B010BDFFF7ADFF08B092
:1057A00010BD68460B4934F089FF04A80A4934F05B
:1057B00085FF04A96846FFF7C9FF04A834F03EFF3F
:1057C000684634F03BFF08B010BD00BF184FFF1F04
:1057D000687EFF1FF09704000C83040008B50121C8
:1057E000182036F069F900211B2036F065F90121F7
:1057F000182036F04DF9BDE80840FFF7B9BF00BFEB
:1058000008B5FFF7B5FF014B187808BD184FFF1F0B
:10581000F0B589B005460C461746FFF7A9FF294B9E
:105820001B78002B2FD02968274E2848002908BF55
:1058300031462EF0EFFE012C3BD0172C26D02A68E3
:10584000214822492346002A08BF024668462EF016
:105850006DFE08AA1E48029B12F8144D9DF8041014
:1058600083600473017100F10D031A3012F8011FF7
:1058700003F8011B8342164CF8D1079BE3612046D5
:105880002EF0E6FC70B9002009B0F0BD0028D6D09B
:10589000002FD4D029680D48002908BF31462EF0CA
:1058A000D5FECCE720462EF0D3FC28B9084809B035
:1058B000F0BD0028C3D1E6E720462EF09DFC00286D
:1058C000E1D1F3E7184FFF1FDC4A0500687EFF1F98
:1058D000304FFF1F0168034B0348002908BF1946DA
:1058E0002EF0A6BEDC4A0500687EFF1F0A4A0B4B5D
:1058F00012681B681344994210B5044604DB08493A
:1059000034F0DCFE204610BD064B03EB011134F0F1
:10591000E9FE204610BD00BF2C4FFF1FF44EFF1FB5
:105920000C830400504FFF1F10B50349044634F0A8
:10593000D9FE204610BD00BF1C4FFF1F30B51B49CC
:1059400089B005461A4835F00BF840BB04461749A4
:1059500004A834F0B3FE04A9154835F0DDF822465A
:1059600003461349684635F0DDF804A834F066FEB6
:1059700004A80E4934F0A2FE04A9684635F0CCF81C
:10598000224603466946284635F0CCF804A834F090
:1059900055FE684634F052FE284609B030BD044931
:1059A000284634F09FFE284609B030BDF097040029
:1059B0001C4FFF1F08B50449044834F0D1FF0030E4
:1059C00018BF012008BD00BFF09704001C4FFF1F47
:1059D000014B1868704700BF2C4FFF1F014B186820
:1059E000704700BFF44EFF1F024A034B10681B684C
:1059F000184470472C4FFF1FF44EFF1F0168034BE4
:105A00000348002908BF19462EF004BEDC4A0500F1
:105A1000687EFF1F38B510491048114C34F04EFE17
:105A2000104A11490D4838F023FA10482EF0D4FBE3
:105A30000F482EF0D1FB04F580552046002110348C
:105A400034F03CFEAC42F8D1064A0A490020BDE8D9
:105A5000384038F00DBA00BFF09704001C4FFF1F0C
:105A6000504FFF1F1C0DFF1F3DA60300F84EFF1FE8
:105A7000304FFF1F3950000070B5134D0024AC208B
:105A800035F034FDE1B20134064627F085F8202CCC
:105A900045F8046FF3D10D4D00244FF4A46035F0A8
:105AA00025FDE1B20134064627F09CFD202C45F887
:105AB000046FF2D10649074A00230B70136053604C
:105AC0009360D36070BD00BFF85FFF1F605FFF1F72
:105AD000ED5FFF1F545FFF1F2DE9F041244C20684C
