:1000000000000320D1010000E92C0300A12C030013
:10001000A12C0300A12C0300A12C0300A12C0300A0
:10002000A12C0300A12C0300A12C0300E92C030048
:10003000E92C0300A12C0300851B0300891B03008E
:10004000E92C0300E92C0300E92C0300E92C030050
:10005000E92C0300E92C0300E92C0300E92C030040
:10006000E92C0300E92C0300E92C0300E92C030030
:10007000E92C0300E92C0300E92C0300E92C030020
:10008000E92C0300E92C0300E92C0300E92C030010
:10009000E92C0300E92C0300E92C0300E92C030000
:1000A000E92C0300E92C0300E92C0300E92C0300F0
:1000B000E92C0300E92C0300E92C03001D3E03009A
:1000C000E92C0300E92C0300E92C0300E92C0300D0
:1000D000E92C0300E92C0300E92C0300E92C0300C0
:1000E000E92C0300E92C0300E92C0300E92C0300B0
:1000F000E92C0300E92C0300E92C0300E92C0300A0
:10010000895503009D550300B1550300C5550300F3
:10011000E92C030065410300E92C0300E92C0300EE
:10012000E92C0300E92C0300E92C0300E92C03006F
:10013000E92C0300E92C0300E92C0300E92C03005F
:10014000E92C0300E92C0300E92C0300E92C03004F
:10015000E92C0300E92C0300E92C0300E92C03003F
:10016000E92C0300E92C0300E92C0300E92C03002F
:10017000E92C0300E92C0300E92C0300E92C03001F
:10018000E92C0300E92C0300E92C0300E92C03000F
:10019000E92C0300E92C0300E92C0300E92C0300FF
:1001A000E92C0300E92C0300E92C0300E92C0300EF
:1001B000E92C0300E92C0300E92C0300E92C0300DF
:1001C000E92C0300E92C0300E92C0300E92C0300CF
:1001D0005C4B4CF2205210B51A804DF628121A8052
:1001E00000BF00BF32F084FD574B4FF030621A6001
:1001F000564A9A60564ADA60564B4FF470021A60BB
:10020000554B564A1A60564B1A78110703D51A787F
:1002100042F008021A70534B5349AA221A70534AEB
:10022000534B8B4204D252F8040F43F8040BF8E707
:10023000504B514900228B4202D243F8042BFAE77B
:100240004E494F4A002352F8230041F8230001335E
:10025000742BF8D14B4B4C4A802103F8011B93427D
:10026000FBD14A4B454A1A60494B8A221A70A3F5C2
:10027000805324225A70A0221A709A799207FCD5D2
:100280009A79D406FCD4434A937903F00C03082BE3
:10029000FAD1414B60221A7002331A78802AFCD1BD
:1002A0003C4B01221A715D225A719A799006FCD555
:1002B0009979384A4906FBD5384B394919600021EC
:1002C000596020231370937903F00C030C2BFAD19F
:1002D000344B354A1A60354A354C136813F4807331
:1002E00003D123604FF4A8531360324B324A1A6093
:1002F00000225A60072243F8042C304AC3F80C2D20
:1003000062B633F0C7F82368DA0705D52C4832F017
:100310007DFE2C4B2C4A1A602C4B1B785B0609D5B2
:10032000284C294B22689A4204D1254832F06EFEAF
:100330000023236032F0E2FC37F002FC32F0D4FB01
:10034000FEE700BF0E20054030800440823F0400DD
:100350000100002B88ED00E0002008E0030000858C
:1003600002D0074000E00740E026FF1F4CAD04002C
:10037000400CFF1FE026FF1F9C89FF1F0002FF1F8C
:100380000000000000E400E064E400E008ED00E0AC
:10039000005006400040064001E007404480044011
:1003A0000000060204800440C010070010D0034083
:1003B00014D0034014E000E01FBF02000000202022
:1003C000E1FBC4641CE00340A5C3945A00F007405D
:1003D000FFFFFFFFFFFFFFFFFFFFFFFFFFFFFFFF2D
:1003E000FFFFFFFFFFFFFFFFFFFFFFFFFFFFFFFF1D
:1003F000FFFFFFFFFFFFFFFFFFFFFFFFFFFFFFFF0D
:10040000FFFFFFFFFFFFFFFFFFFFFFFFDEF9FFFF23
:1004100010B5054C237833B9044B13B10448AFF33E
:1004200000800123237010BDE026FF1F00000000A4
:1004300048AD0400084B10B51BB108490848AFF39C
:1004400000800848036803B910BD074B002BFBD0A0
:10045000BDE81040184700BF00000000E426FF1F61
:1004600048AD0400E026FF1F000000002DE9F04F1A
:1004700089B00646139D149C0394012D169C049488
:100480009DF84890DDF854B00F4690461C4600F0A9
:100490009C80032B64DD032A00F3A680B3B2BAB2BA
:1004A000059303F1010A531C1BB2A4B206920793F1
:1004B0001A46ADB20FFA8AFAA31E009551461BB236
:1004C00059482EF0DDF81FFA88F808F1FF3536B2EA
:1004D0003FB22DB2B9F1000F5BD01FFA8BFB04F1D4
:1004E000FF39CDF800B02B463A4631464E480FFA58
:1004F00089F92EF0D5F8CDF800B04B463A46314692
:1005000049482EF0BDF8069BBDF80CB01C44013CD8
:1005100024B22B4651462246CDF800B042482EF078
:10052000BFF8059BBDF81050079ACDF800B098446D
:1005300008F1FF380FFA88F84B4641463A482EF04A
:100540009FF83A4641462B4637482DF00DFF364876
:100550002B462246314609B0BDE8F04F2DF004BFCE
:100560009CD183B28AB2059303F1010A531C1BB2DA
:100570001FFA88F80692ADB20FFA8AFA1A46079364
:10058000A8F10203009551461BB227482EF088F8C7
:100590009BE7BDF80C30039300933A462B46314657
:1005A000214804F1FF392EF07BF80FFA89F9039BFB
:1005B00000933A464B4631461B482EF061F8069BA5
:1005C0001C44013C1FFA8BFBA2E783B28AB203F101
:1005D000010A0593531C1BB206921FFA88F8A4B2B5
:1005E0000FFA8AFA079370E78AB29CB2114683B277
:1005F000059303F1010A0B4601331BB206921FFA61
:1006000088F8A21E1846ADB212B20FFA8AFA079302
:10061000A8F102038DE82400514602461BB20248AD
:100620002EF0E6F951E700BF1881FF1F2DE9F047D2
:10063000161E9DF82070099DDDF828E0DDF82CC01D
:10064000DDF830A011DD002B0FDD012E0FD0012BC6
:1006500019D0CDF830A0CDF82CC0CDF828E0099500
:100660000897BDE8F047FFF701BFBDE8F087012D0F
:10067000FBD0ADB208950AB21BB201B2BDE8F0479B
:1006800007482DF0FDBF012DEFD0ADB2089533B274
:100690000AB2BDE8F04701B201482EF001B800BF30
:1006A0001881FF1F2DE9F04F85B004461F4600203A
:1006B0001BB2009301900DF140090F98039099E847
:1006C000000E0D46164613B20C489DF838800AB24B
:1006D00021B22FF0A3FF03980F90BB1EB21E691C1E
:1006E000601CCDF848B0CDF844A0CDF84090CDF8CE
:1006F000388005B0BDE8F04FFFF798BF1881FF1FA5
:1007000070B58AB044F208269DF83C4000944FF63C
:10071000FF7548F210440494019403960295144620
:1007200005460E46FFF7BEFF0E9906A831F0EEFC17
:10073000164B06991648002908BF1946002231F0C9
:1007400057F80138201A00EBD07040100328CCBFB6
:1007500080B204204119F21C12B209B20C4831F0E7
:1007600021F806A831F07EFC0021094831F03CF860
:100770000121074831F032F80E99054831F0AAFA04
:10078000034831F0CDFA0AB070BD00BF12A70400D3
:100790001881FF1F2DE9F0472DED028B86B0B0EEDA
:1007A000408A9DF844709DF840A0F0EE608A814632
:1007B000884615461E46002F5BD1043D07EE905A31
:1007C000B8EEE77AF4EEC88AC7EE287AF1EE10FAAE
:1007D000D4BFB0EE680AB0EE480AB5EE400A9FED0D
:1007E0002E7AF1EE10FA98BFB0EE470A27EE800A93
:1007F000FDEEC07A17EE904A002C1DDD44F208236E
:10080000BAF1000F48F2104118BF184644F2FF72C7
:1008100012BF4FF482630A46002000218DE80A00CF
:1008200002920390049317EE902A331F08F10201FD
:1008300009F10200FFF7FAFE27B106B0BDEC028B0A
:10084000BDE8F087A4B209F102092B1B04EB0901F2
:1008500008F10202043E1148119736B21BB209B2E8
:1008600012B2109606B0BDEC028BBDE8F0472EF038
:10087000BFB848F2104444F2082E04944FF6FF74B7
:10088000CDF80CE002944FF0000E01248DE81040EA
:10089000FFF708FF91E700BF000000001881FF1F6D
:1008A00070B586B048F2104344F208264FF6FF7543
:1008B0000124049301930396029500940223FFF709
:1008C000B5FE06B070BD00BF2DE9F0410E4C0F4DD6
:1008D000E561984606460F4620460121154630F050
:1008E0007DFF1FFA88F1204630F07EFF3AB231B228
:1008F000204630F057FF2946204631F0EBF9044BF3
:10090000E361BDE8F08100BF1881FF1F1C9F030059
:10091000A49D03002DE9F047284C294DE5610E46C2
:100920000546012120469A4617461FFA86F830F000
:1009300055FFBDF82010204630F056FF0FFA85F91C
:1009400008F1FF3212B24946204630F02BFFADB21B
:100950003946204631F0BEF936B2691C324609B23A
:10096000204630F01FFF3946204631F0B3F908F138
:10097000010212B24946204630F014FF39462046A3
:1009800031F0A8F9691E324609B2204630F00AFF5C
:100990003946204631F09EF91FFA8AF1204630F0A0
:1009A00023FF32464946204630F0FCFE39462046B9
:1009B00031F090F9034BE361BDE8F0871881FF1F28
:1009C0001C9F0300A49D030010B582B01BB2BDF8AC
:1009D00010400093019413B20AB201B202482EF003
:1009E00007F802B010BD00BF1881FF1F2DE9F04FBE
:1009F00089B08A46139C0693E31D0393159BCDF89B
:100A00001CA00027DDF848B0169E4B4DDDF850A025
:100A1000049004F1FF3905925C1E3946BC4619F872
:100A2000018F14F801EFA5F12003802206E0C1B286
:100A30001E600433AB424FEA520212D01EEA020F8C
:100A400001F10100F3D118EA020F0CF1010056D0B8
:100A5000C3F800A00433AB425FFA80FC4FEA5202B5
:100A6000ECD103F12005039B9945D8D1BC45DDF8B5
:100A70001CA05CD98C455CD2012E0DD0B2B2BDF960
:100A80001830019200930FFA8AF2BDF91430BDF9C3
:100A900010102A482DF0ACFF069B53449A459B4604
:100AA0003ADA059B049ADFF89C80CDF80CB01F461B
:100AB00017449346BB4527DA214D0AEA0505002D68
:100AC00030DBED005C460FFA8AF90FE02B4458F852
:100AD00023309E4207D0012B21B29BB24A461748D1
:100AE00001D02DF041FC0134BC420DD0144B234009
:100AF000002BEBDA013B63F007030133E6E7013734
:100B0000FFB2C3F800B094E71AF00F0F07D0039BB1
:100B10000AF1010A9A45CDD109B0BDE8F08F10F075
:100B2000CBFEF4E7013D65F007050135C9E75E46F8
:100B3000A2E7FCD9149E9FE71C27FF1F1881FF1F07
:100B400007000080FC26FF1F2DE9F04F8BB0002529
:100B50009A461BB20446884616469DF85C70009380
:100B6000019513B20AB201B26D4808971FFA88FBCB
:100B70002FF054FDA2B2AAF102000992511C00B25A
:100B80004FF482670BF10102B31E09B212B200905A
:100B90001BB201976248DFF89091A71907972DF0D3
:100BA00027FF604A019208F103070122079800928B
:100BB00039465346032204950295CDF80C90FFF771
:100BC00015FF584A01920334012200920323049531
:100BD000CDF80C9002952046324608EB0A01FFF74B
:100BE00005FF089B002B70D04FF6FF7944F28F234E
:100BF000102200950493019303920D23A6F1120293
:100C000039462046CDF80890FFF74CFD01214448B5
:100C100030F0E4FD099942480BF10602083112B2A6
:100C200009B230F0BFFD49463D4830F0DDFD149972
:100C30003B4831F04FF83A4831F072F80095079D83
:100C4000CDF8089048F2104B0D2344F208223946A3
:100C50000392A5F110001A46CDF810B0CDF804B0FB
:100C6000FFF720FD44F208214FF6082207230391E5
:100C7000012100910192CDF810B0CDF80890A5F1B6
:100C80000D001A4608F10601FFF7F0FB159BCBB1EA
:100C9000A3F10203B3FA83F35B0948F2104E44F266
:100CA00008274FF6FF750093169B0193B21FAAF118
:100CB000150308F112012046CDF810E003970295C4
:100CC000FFF7F0FC0BB0BDE8F08F0899009144F2FB
:100CD0008F234FF6FF751022394604930193039238
:100CE0000D23B21F20460295FFF7DCFC01210C48C2
:100CF00030F074FD09990A480BF10602083112B26E
:100D000009B230F04FFD2946054830F06DFD1499C9
:100D1000034830F0DFFF024831F002F8B6E700BFC9
:100D20001881FF1FA4D70300A09803002DE9F04FFE
:100D300087B01478049201909DF8402003914FEA07
:100D4000530A002C43D1002A3ED0531EDBB201339C
:100D50001FFA80FB0593DFF8449102940BF1010325
:100D600001940093BAF1000F25D0019B039A9F18BC
:100D7000049B029A3FB203EB0208002618F8015FB9
:100D800045487400A4B22B1104EB0B0109B239F8E9
:100D900023303A462DF0E8FA009B3F4805F00F0556
:100DA000E118013639F8253009B23A462DF0DCFA5F
:100DB000F3B29A45E2D8029A019B52440292059AF4
:100DC000013393420193CDD107B0BDE8F08F012CE0
:100DD000FAD1D90812FB01F10131002AF4D0531ED7
:100DE0004FF0000BDBB20133A0465D465C46CDF808
:100DF00000B0DDF810B005930291BAF1000F1ED0DB
:100E0000039B009A13441BB20493029B00260BEB36
:100E100003071DB91BF8084008F10108220617F85E
:100E2000019B2AD46400E4B2230614D40136F3B241
:100E3000640002359A45E4B205F00705E9D8029A44
:100E4000009B52440292059A013393420093D4D1FD
:100E500007B0BDE8F08F019B039A0F48591C009B17
:100E600009F00F099A180D4B01EB460133F82930B0
:100E700009B212B22DF078FAD8E7019A064802EBCF
:100E800046014FEA2913054A09B232F82330049A81
:100E90002DF06AFAC6E700BF1881FF1FBC9E030051
:100EA0002DE9F04F8FB015789DF860609DF8644093
:100EB000002D7CD1002C7AD01F460493631EDBB238
:100EC0000D917108924609914A1E591CC7F30733C8
:100ED000D2B20393C7F303130A910593511C07F091
:100EE0000F03C7F303220C90AB460B9107950892B2
:100EF0000693CDF800A0099B002B50D0079B0D9ABC
:100F0000BDF830900B99DFF8B0809F18009A134617
:100F10005B4401EB0B0AA9F102010193029109F173
:100F2000FF393FB21E46924428E0069A059999423D
:100F300008BF1346039AAA422FD0069A0599A942E0
:100F400008BF1546009A1B4838F82330B4B2CBEBE3
:100F50000401891A029A02EB410109B23A462DF0C6
:100F600003FA019B1348E11A09EB410109B238F871
:100F700025303A462DF0F8F9564510D016F8015FA5
:100F8000049A2B0905F00F05002ADBD0039A9A4238
:100F9000CBD1039A089BAA42CFD1089DD2E7099AE8
:100FA000079B93440A9A013393420793A3D10FB04E
:100FB000BDE8F08F1881FF1FBC9E030008B50168D3
:100FC000044B0548002908BF1946002230F010FCE8
:100FD000013808BD12A704001881FF1F08B50021C1
:100FE000092025F0ABF800B908BD022240F6AC514B
:100FF0000520BDE8084030F04BBF00BF08B5002118
:10100000092025F09BF800B908BD022240F6B8314E
:101010000520BDE8084030F03BBF00BF08B5002107
:10102000092025F08BF800B908BD02224FF4FA61BF
:101030000520BDE8084030F02BBF00BF10B50021EF
:101040000446092025F07AF860B1002C41F2040131
:101050004FF0020208BF4FF47A610520BDE810404E
:1010600030F016BF10BD00BF10B5002104460920A6
:1010700025F064F860B141F2941141F23013002C74
:1010800008BF194602220520BDE8104030F000BF1D
:1010900010BD00BF2DE9F04F8BB0804609910B20A9
:1010A000002192461C4625F049F8002106460C20F6
:1010B00025F044F8002107460D2025F03FF80021D7
:1010C00081460E2025F03AF8002183460F2025F0B6
:1010D00035F8344D344B55F8292053F8200053F897
:1010E0002B1055F8273055F82650039001910492A3
:1010F000029352462346099900954046FFF776FC35
:101100000021102025F01AF8012802D00BB0BDE80C
:10111000F08F099BDFF898B000264FF0BA092344FE
:101120000893CDF818903546374609F14603DBB2EF
:101130000793069A089B9342E8DDCDF818906B243C
:1011400012E02B466D081F420BD0A04508EB0A03A6
:1011500007DC9C4205DA099B4B4502DC089B4B45AA
:1011600018DC0134EB2C09D0A4F16B035A07E8D149
:101170001BF80670402501368023E4E7079B1B0718
:1011800005D009F10109B9F59B7FCED1BEE710F07A
:1011900093FBF6E700230FFA89F221B203482DF002
:1011A000E3F8DEE7BC9E0300ACD703001881FF1F05
:1011B00030CF03002DE9F04F052397B0013BFDD15F
:1011C00000210C465548DFF864B1DFF864A12DF02A
:1011D0004BFEA1462546A046264623462746A2B2F8
:1011E000D10700F1918052081BF802703A09002BD8
:1011F0006AD102F007014A48415C12073AF821809F
:101200005FD4012633462B44E02B65DC05F1080151
:1012100009B21D4609F11A02CDF8008012B2334618
:101220003E482DF03DFAE02D71D00023013445F207
:1012300014329442D3D106A83A4930F053FF0A221F
:1012400002A8012130F094FF02A906A831F062F84B
:10125000354931F067F80A22044601210AA830F026
:1012600087FF0AA9204631F055F82F4931F05AF886
:101270000A22044603210EA830F07AFF0EA9204668
:1012800031F048F8014612A830F040FF12AA44F2AB
:1012900008234FF49D710020FFF716FB12A830F0D1
:1012A000E1FE0EA830F0DEFE0AA830F0DBFE02A858
:1012B00030F0D8FE06A830F0D5FE17B0BDE8F08FAC
:1012C00016010133DBB2B1E7012BF9D01644F6B2B7
:1012D00033462B44E02B99DDA9B2C1F1E00309F1BB
:1012E0001A022035083109B21BB212B20B48CDF8F0
:1012F00000802E442DF0D4F9F6B201208144354609
:1013000032F076F8082185E707F00F026FE7012039
:101310000025814432F06CF82B4687E71881FF1FC7
:101320007C9E03006C9E030090210400409F0300FC
:10133000BC9E03002DE9F04F85B00025029003917B
:10134000AB46AA462F462C462B46A946AAB2D10741
:101350005CD452082F4911F802904FEA1912002B61
:1013600031D12D4802F007011207415C2B4830F8BB
:1013700021B025D4012423463B44BE2B2BDCBDF8F1
:101380000880BDF80C60B9B21F4606EB0A02414462
:10139000234612B209B2CDF800B021482DF080F9F1
:1013A000BE2F03BF00270AF1010A3B460023013587
:1013B00040F6C2429542C9D105B0BDE8F08F140194
:1013C0000133DBB2F3E7012BF9D01444E4B2234636
:1013D0003B44BE2BD3DDBDF80880BDF80C60CDF8D2
:1013E00000B0BBB2423708EB030106EB0A023C44F3
:1013F000C3F1BE0309B21BB212B20948E4B22DF028
:101400004FF90AF1010A27460021BEE709F00F0251
:10141000A5E700BFCCC80300949E0300BC9E030058
:101420001881FF1F2DE9F04F814685B08A46184686
:1014300047491E46174630F0A7FF10B105B0BDE87A
:10144000F08F054601214348DFF8108130F0C6F9DE
:10145000BDF83C103F4830F0C7F93146684630F0DF
:1014600055FE00993B48002908BF41462A4630F006
:10147000BFF9441E684630F0F5FDA74217DB0E9B0E
:10148000012B60D0022B56D1391B0029ACBF494437
:1014900009F1000109B20FFA8AF22E4830F082F900
:1014A00031462C4830F016FC05B0BDE8F08F2C46D4
:1014B0001CE030F0ADFF0178684630F06DFE009919
:1014C0002448002908BF4146002230F091F98346A4
:1014D000684630F0C7FD0BF1FF33DBB2E918BA1FE5
:1014E000914203F101030ADA1D44013421463046DA
:1014F00030F08EFF037821463046002BD9D10FFA09
:101500008AF20FFA89F1134830F04CF9002554B1F2
:101510002946304630F07CFF013501780D4830F027
:10152000F9F8AC42F4D101220B490A4830F0BCFB77
:1015300005B0BDE8F08F0FFA8AF20FFA89F105487D
:1015400030F030F9ACE7391B01EBD17149109CE761
:10155000F4F303001881FF1F789E030012A7040014
:101560002DE9F04FADF51D7D0023838005900E46DB
:10157000174619460DF276200DF11E0323F8061CBE
:1015800023F8041C23F8021C06339842F6D10021EC
:10159000584823F01DF9A6F10F02A7F10F0344F2FA
:1015A0008F2912B21BB2049236B203933FB2CA46DD
:1015B00048F210484FF01E0B1E23039A04994E4820
:1015C000CDF80480CDF800B02DF012FA102300936E
:1015D0003A460523314648482EF004F90121454892
:1015E00023F0F6F80F2425B22B463A4631464248FE
:1015F000CDF800A02DF07AFF322031F0F9FE2B4615
:101600003A4631463C48CDF800802DF06FFF39480E
:1016100023F000F8013CA4B208B1052CE3D1354811
:1016200022F0F8FF0028C7D00025002000212C461A
:101630000BE0642DC3F3C70035D035F0C3FE41EC99
:10164000100B34F005F951EC100B00222B4B35F048
:101650006DFD36F0CDF90FFA80FB3A465B46314618
:101660002548CDF800902DF041FF06AB05EB450075
:1016700003EB40001F492AF089FA0A2031F0B8FE36
:101680005B463A4631461C48CDF800802DF02EFFCF
:10169000184822F0BFFF0134194BE4B2A3FB042326
:1016A00001350028C5D1632C84D94FF480633A46B4
:1016B00031460093104805232EF094F8002206AB23
:1016C00011469CADB3F90040B3F9020006339D42C8
:1016D00021440244F6D10B4BA3FB01010598A3FB67
:1016E00002235B094A09028043800DF51D7DBDE898
:1016F000F08F00BFB081FF1F1881FF1F000018404E
:10170000CDCCCCCC1F85EB512DE9F04FA1B003AB74
:10171000089304AB0993DFF82C9301AB1CAC07933F
:1017200048F21041BA48002501262DF09DFBB94929
:10173000204630F0D7FC2346F0224221284601956E
:101740000096FFF76FFE204630F08CFCB249204631
:1017500030F0C8FC2346F0224A2128460195009625
:10176000FFF760FE204630F07DFCAC49204630F0AB
:10177000B9FC2346F0223221284601950096FFF756
:1017800051FE204630F06EFC0F2211460EA8FFF7E6
:10179000E7FE082348F210420192294632220093C4
:1017A0009B48F0232DF024F99D49204630F09AFC07
:1017B0002346F0223221284601950096FFF732FE9B
:1017C000204630F04FFC4FF49872E02110A8FFF74C
:1017D000C7FE10AB93E80300089B1860099B1980B3
:1017E0000EAB93E80300079B1860079B8D48998018
:1017F0000F224FF498771146E023009723F018F852
:101800002946884822F0E4FF8749204630F06AFCE8
:101810002346F0226421284601950096FFF702FE38
:10182000204630F01FFC8149204630F05BFC234607
:10183000F0226C21284601950096FFF7F3FD204623
:1018400030F010FC7A49204630F04CFC2346F02260
:101850007421284601950096FFF7E4FD204630F0FC
:1018600001FC7449204630F03DFC2346F0227C21E7
:10187000284601950096FFF7D5FD204630F0F2FB93
:101880004FF6FF7344F2082248F21041049103928C
:101890000293C82201939621642314200096FEF738
:1018A00001FF6549204630F01DFC0D234022FE213A
:1018B0009C208DE83000FEF723FF204630F0D2FB5D
:1018C000D9F800300B93DDF82C80AA461E27554826
:1018D00022F0ACFE534912A822F090FE5148BDF907
:1018E00048B0BDF94A6022F087FE01287AD075D34E
:1018F000032834D1BAF1000F00F0D280002D00F09F
:10190000D180ABF116039BB2C32B28D8A6F1980364
:101910009BB25F2B23D84FF4004300962A465146D2
:1019200001933B485B462DF089FF3546DA46002699
:10193000D9F800300C930C9BDFF808B1C8EB030317
:10194000B3F57A7F0DD2002EC1D0002201210820EC
:1019500024F014FC24F01CFB21B0BDE8F08F00261D
:10196000E6E7082348F21042019200937C22F0231C
:1019700000212748013F2DF03BF8FFB22F4918A85E
:1019800030F0B0FB394614A830F0DEFB14A918A8DB
:1019900030F0C0FC2A4930F0C5FC0146204630F04A
:1019A000B5FB00200123F0227C2101900093234607
:1019B000FFF738FD204630F055FB14A830F052FBFD
:1019C00018A830F04FFBDBF800300D93DDF83480C1
:1019D000002EBAD1002F7FF47AAFA1E60025AA46E7
:1019E0002E46A5E71FFA8BF3A3F11602C32A2BD8C4
:1019F000A6F1980292B25F2A26D832464FF40043ED
:101A0000594603483546DA462CF0AEFC00268FE7EF
:101A10001881FF1F2CD8030050D803006CD8030096
:101A20008CD80300B081FF1FACD80300D0D80300CE
:101A3000F8D803001CD9030030D9030034D90300BF
:101A4000E0580400F085FF1F9C3B352B87D8FE3EF5
:101A5000B6B20C2E83D814492046012630F042FB42
:101A60000D234022FE218DE850009C20FEF748FE09
:101A7000204630F0F7FA00210C4822F0A9FE0A496E
:101A8000204630F02FFB0023019300940D234022C9
:101A9000FE219C20FEF734FE204630F0E3FA47E7B3
:101AA000564645E72E4643E730D90300B081FF1F75
:101AB00008B501210F2031F071FC0121102031F017
:101AC0006DFC0121112031F069FC00210F2031F063
:101AD00051FC0021102031F04DFC00211120BDE807
:101AE000084031F047BC00BF10B500F001010446CA
:101AF0000F2031F03FFC04F00201102031F03AFCDD
:101B000004F00401112031F035FC0E20BDE8104036
:101B100030F09EBE70B50646FFF7E6FF154B054652
:101B20000021985D24F016FB134B04460021985DBC
:101B300024F010FB2D1B001B07EE900A07EE105A35
:101B4000F8EEE77AB8EEC77AB7EE000AC7EE276A72
:101B5000F4EEC06AF1EE10FA00D470BDF5EEC06A82
:101B6000DFED067AF1EE10FA8CBFB0EE660AB0EE49
:101B7000670A70BD380DFF1F400DFF1F00000000F9
:101B800000B583B00191FFF7C5FF019907EE901AE8
:101B9000F8EEE77AF7EE006A86EEA77A013907EEEB
:101BA000901A80EE070AF8EEE77AB4EE670AF1EED3
:101BB00010FA48BFF0EE407AF5EEC07AF1EE10FA76
:101BC0008BBFFDEEE77A0023CDED017A01930198FA
:101BD00003B05DF804FB00BF10B50C46FFF79AFF99
:101BE000F6EE007AB4EEE70AF1EE10FAACBF01208F
:101BF00000200CB180F0010010BD00BF0A4B10B4F2
:101C0000002203F1480401201A7058709A709A60FB
:101C1000DA701A710C33A3424FF00001F4D1034B78
:101C200019705DF8044B7047480DFF1FFC27FF1F1C
:101C3000FFF7E4BF084900EB400080000B1810B428
:101C4000002201240A545C709A70DA701A719A604A
:101C50005DF8044B704700BF480DFF1F2DE9F843A6
:101C600047004E4E0446381806EB8009884699F81E
:101C7000020002F0B7FD054699F8020002F0CEFD21
:101C80000021884218BF4FF0040E484608BF4FF0AD
:101C9000020E0B46C2780A41D20718D54278013AA3
:101CA000062A14D8DFE802F059694939291F0400CF
:101CB00003F001025B0803EB43034FEA420C03EB22
:101CC000C303624403EB82032B4483F80480013195
:101CD000CBB29E45DED83C4406EB8404A078BDE838
:101CE000F84302F0D7B803F001035A00134403EBA2
:101CF000C3032B4483F81880E9E703F001025B0873
:101D000003EB43034FEA420C03EBC303624403EBD0
:101D100082032B4483F80A80D9E703F001025B08B1
:101D200003EB43034FEA420C03EBC303624403EBB0
:101D300082032B4483F80980C9E703F001025B08A2
:101D400003EB43034FEA420C03EBC303624403EB90
:101D500082032B4483F80880B9E703F001025B0893
:101D600003EB43034FEA420C03EBC303624403EB70
:101D700082032B4483F80680A9E703F001025B0885
:101D800003EB43034FEA420C03EBC303624403EB50
:101D900082032B4483F8078099E700BF480DFF1F9B
:101DA00061B9104B00EB400003EB80007F2281788B
:101DB0005D390123C9B2092000F052BD00B5094BBD
:101DC00000EB400003EB800083B0817801235D3994
:101DD0000193C9B200937F22092000F095FD03B062
:101DE0005DF804FB480DFF1F10B5124B00EB4000DF
:101DF00003EB8004E3789B0702D501B1A2B910BDC3
:101E00003AB904F009FD0028F9D0BDE8104004F00B
:101E100043BB04F001FD0028F1D1E078BDE810409B
:101E2000C0F3800004F0B8BB04F0F6FC0028F4D046
:101E3000EBE700BF480DFF1F38B504460D461120E3
:101E4000002124F07BF9012800D038BD04F0E4FC27
:101E50000028FAD0B5B10C4B04EB440403EB840426
:101E6000E3789B070AD404F0BFFC044601E004F0C9
:101E7000CFFB04F0B9FC8442F9D038BDBDE838404E
:101E800004F0C6BB38BD00BF480DFF1F2DE9F0416F
:101E90008F4C904D237803EB43029200A918AA5C63
:101EA00082B1012A1ED0022A29D08B4A013382FB3B
:101EB0000312A2EBE37202EB4202A3EB4203237094
:101EC000BDE8F081A2F15532013302F1004282FBFC
:101ED0000312A2EBE37202EB4202A3EB4202227076
:101EE000BDE8F0814A78013A18460A2ADDD8DFE8D1
:101EF00002F0B5B3B3B3B323B39E80614500C97894
:101F0000184601F00101FFF767FE94F800C00CEBE2
:101F10004C0305EB8303002814BFFF26002693F82B
:101F200001E099680EF1FF3E6346BEF1030F1DD834
:101F3000DFE80EF0C0B2A4960821FFF721FE237857
:101F4000DFF88C81634F03EB430205EB8202064608
:101F500091688842A9D051781846FFF77FFE98F81B
:101F6000003003EB430207EB8207B9688E429CD036
:101F700003EB430205EB8202966096E78021FFF7B0
:101F8000FFFD2378DFF84881524F03EB430205EB56
:101F9000820206469168884287D0D078F1B2012249
:101FA00000F0A6FD98F8003003EB430207EB820730
:101FB000B968DBE74FF48031FFF7E2FD2378DFF803
:101FC0001081444F03EB430205EB8202A0F500466B
:101FD00091688E423FF469AFD0783146012200F01B
:101FE000EBFE98F8003003EB430207EB8207B96879
:101FF000BCE78021FFF7C4FD2378DFF8D480354F9C
:1020000003EB430205EB82020646916888423FF4E7
:102010004CAFD0780123F2B20A2100F099FD98F874
:10202000003003EB430207EB8207B9689EE780218B
:10203000FFF7A6FD2378DFF89880264F03EB4302D5
:1020400005EB82020646916888423FF42EAFD078B5
:102050000123F2B20721E0E710216EE740216CE78F
:102060008E423FF422AFFF2E82D104F05BFA237838
:1020700003EB430205EB8202916877E7711A02468F
:1020800018BF01216046FFF7AFFE237803EB430240
:1020900005EB8202916869E78E423FF406AF014684
:1020A0006046FFF7C9FE237803EB430205EB82028B
:1020B00091685BE78E423FF4F8AE01466046FFF759
:1020C0006FFE237803EB430205EB820291684DE734
:1020D000FC27FF1F480DFF1FABAAAA2A024B00EBEB
:1020E000400003EB80007047480DFF1F044B00EBDE
:1020F000400013F82000003018BF0120704700BFD7
:10210000480DFF1F0E4930B4002201F580654FF0E5
:102110007E54012001F83C2C01F83B2CA1F13C033A
:102120001A715A719A601A731C6103F8140F8B426A
:10213000F6D103F14001A942ECD130BC704700BF99
:10214000CC0DFF1F0C49820110B400238C188B5456
:102150003C3263700A44204601214FF07E540371E3
:10216000437183600373046100F8141F9042F6D139
:102170005DF8044B704700BF900DFF1F0F289ABFFA
:10218000024B03EB80100020704700BF900DFF1F33
:10219000014B8001185C7047900DFF1F8001014BBF
:1021A00019547047900DFF1F024B03EB80104170D4
:1021B000704700BF900DFF1F024B03EB801040786B
:1021C000704700BF900DFF1F8001044B01EB8101A0
:1021D00000EB810119440879704700BF900DFF1F83
:1021E0008001044B01EB810100EB81011944487926
:1021F000704700BF900DFF1F8001044B01EB810170
:1022000000EB810119448868704700BF900DFF1FE3
:102210008001044B01EB810100EB81011944087B33
:10222000704700BF900DFF1F8001044B01EB81013F
:1022300000EB8101194491ED040A7047900DFF1FD6
:102240008001044B01EB810100EB81011944087D01
:10225000704700BF900DFF1F0A4B30B4002203F5FA
:1022600080651978D4B2013211B15978814205D014
:102270004033AB42F5D1FF2030BC7047204630BC24
:10228000704700BF900DFF1F01EB81018001034BE0
:1022900000EB810119440A71704700BF900DFF1FC8
:1022A00001EB81018001034B00EB810119444A716C
:1022B000704700BF900DFF1F01EB81018001034BB0
:1022C00000EB810119448A60704700BF900DFF1F29
:1022D00001EB81018001034B00EB810119440A737A
:1022E000704700BF900DFF1F07EE902A9FED077A01
:1022F000074BF8EEE76A01EB8101C6EE877A8001B1
:1023000000EB81011944C1ED047A70470000FE42E0
:10231000900DFF1F01EB81018001034B00EB810158
:1023200019440A75704700BF900DFF1F014B1878C4
:10233000704700BFFD27FF1F014B1878704700BF93
:10234000FE27FF1F014B1870704700BFFD27FF1FBE
:10235000014B1870704700BFFE27FF1F30B5094DB5
:10236000094C2B68226883B00093009B9B1AB3F53D
:10237000FA7F05D30FF094FA2B680193019B236039
:1023800003B030BDF085FF1F1028FF1F064B074923
:1023900053F82020096810B4002443F8204001FBC2
:1023A00002F05DF8044B70470428FF1F9411FF1FD3
:1023B000002808B50CBF2320262030F0E1FFB0FA3A
:1023C00080F0400908BD00BF0346024A0021105CAE
:1023D000D15470470028FF1F064A13780F2B07D8E7
:1023E00010B4591C044C117044F823005DF8044BE0
:1023F000704700BFFF27FF1F1428FF1F70B51B4E3B
:102400001B4D337855F82320824222D0FF2B0446FF
:1024100003D01046002124F06FF9164B134A1878A8
:10242000FF23337068B12B689C421CD0104A0023F4
:1024300003E052F8041F8C420CD00133DBB283421C
:10244000F7D10D490D4A00230B604B601370537098
:1024500070BD70BDFF2B3370F3D055F82300012100
:1024600024F04AF9EDE700231370F6E79211FF1FFD
:102470001428FF1FFF27FF1F0428FF1F0028FF1F2E
:10248000054B1B78834202D80020FFF7B7BF034BF0
:1024900053F82000FFF7B2BFFF27FF1F1428FF1FCC
:1024A00070B5FF20FFF7ECFF094E0A490A480B4CB4
:1024B0000B4B0022FF250A704A70026042603270A6
:1024C000257003F1400143F8042F8B42FBD170BD0E
:1024D000FF27FF1F0028FF1F0428FF1F9211FF1F67
:1024E0001028FF1F2DE9F04F594C81B030F05CFFF0
:1024F0002368C01A632802D801B0BDE8F08F30F01D
:1025000053FF544F544EDFF868A1DFF86891206004
:102510000025BB46A8461AF8010B36F8024B30F0EE
:102520002FFF40EA440080B2B0F5704F4DD026F83E
:10253000020C0135042D0BF1040BECD1474D2B7827
:10254000002BD9D0464E3A683368002403FB02F3CF
:10255000A3423C6043DD0120FEF770FD414B1A7839
:10256000FF2A71D12B784FF001089C4258D32046A6
:10257000FFF786FF7B683468002004FB03F4786073
:10258000002CB9D0374E3378FF2BB5D02A789A4239
:1025900084BF354A52F8230024F0C8F80028ABD095
:1025A000002CD4BF00200120FEF75EFD33782A788E
:1025B0009A4223D92C4A52F8230003685B6B2146C8
:1025C000012201B0BDE8F04F1847012D26F8028C1A
:1025D00017D909EB0503012103F8021CA9E7C9D0AB
:1025E0002046FEF72BFD1F4B1A78FF2A26D0FF232B
:1025F0004FF0FF38D418E4B22B78B6E700231B68FD
:10260000FFDE1A4B585D30F0BBFEDBF800300028CF
:102610000CBF4FF0FF3101210B44CBF8003088E7AD
:10262000DFF8449059F8240024F080F800289ED167
:1026300044442B78E4B2A34299D9F3E72B785C1E8B
:10264000E4B24FF0FF3890E701239846D2E700BF8D
:102650000C28FF1F0428FF1F9C11FF1FFF27FF1FCF
:102660009411FF1F9211FF1F1428FF1F9011FF1FCD
:102670009811FF1F0028FF1F10B50021212030F006
:102680008DFE0021222030F089FE0021232030F031
:1026900085FE0021242030F081FE0021252030F02D
:1026A0007DFE0021262030F079FE00211C2030F034
:1026B00075FE02221E491C2030F02CFC1D4B1E49C9
:1026C0004FF6FF72002008601A805A809A80DA80E4
:1026D000FFF708FF232030F053FE70B100213120B6
:1026E00023F01AFD154B002814BF4FF0FF320122D2
:1026F000BDE810401A60FFF7D3BE262030F040FE40
:1027000004460028EAD14FF4FA724FF47A7105209A
:102710002FF0BEFB2146312023F0FEFC80F00101AA
:10272000C9B22246312023F029FD23F031FCD5E740
:102730005D2300009C11FF1F0C28FF1F9411FF1F39
:102740000020FFF75BBE00BF054B064A1B781278DE
:102750009A4286BF044A52F823000020704700BF07
:102760009211FF1FFF27FF1F1428FF1F034A044B6E
:1027700010781B78834298BFFF2070479211FF1F8B
:10278000FF27FF1F70B50646002401E01F2C0DD067
:10279000E5B22846012100F0CDFF0F2C04F1010421
:1027A000F4D8284600F086FE1F2CF1D103F024FB5C
:1027B0003046BDE8704004F097B800BF014B185C8C
:1027C000704700BF1C29FF1F70B506460024E5B204
:1027D0002846314600F0AEFF0134284600F06AFE7C
:1027E000102CF4D10549064B00220A8003F1400168
:1027F00023F8022F8B42FBD170BD00BF3429FF1F8D
:102800005228FF1F2DE9F8430024134D80460E4641
:10281000274602E00134102C1CD015F8013F434537
:102820005FFA84F9F6D13146484600F083FF484606
:1028300000F040FE094A200202F1400132F9023F55
:1028400003F47F43984208BF17808A42F6D10134CF
:10285000102CE2D1BDE8F8831B29FF1F5228FF1F6F
:102860000E28F8B50D461F4607DC04460646224BE7
:1028700040BB1B88DB0707D419E01F4BB3F90030BE
:10288000002B12DA0F2426461C49002202E00132F6
:10289000202A1CD031F9020F0028F8D10135184B3D
:1028A00005EB062623F81260F8BD0F263446154BBB
:1028B00020469A5D294600F0EBFE204600F0F0FD30
:1028C0009FB9F8BDB3F900300341DA07DCD4092E13
:1028D000EDD105F15D022046D2B2294600F0D8FEC6
:1028E000204600F0DDFD002FEBD029462046BDE854
:1028F000F84003F019B900BF3429FF1F5228FF1F09
:102900005428FF1F1C29FF1F2DE9F04F2DED028BCE
:1029100083B001929DF838509DF83CB0002A00F039
:1029200096800E28044688461F46064679DC002815
:1029300040F09480002F78D1DDED017A9FED687A28
:10294000F8EE677AF4EEC77AF1EE10FA7AD517EE60
:10295000900A34F049FD41EC100B33F069F8204641
:10296000B0EE408AF0EE608A00F07CFD002853D182
:10297000002C00F09980092C79D05A4B13F806905E
:10298000204600F05BFD0028204614BFAA464FF009
:10299000000A00F05DFD002857D0BBF1000F0CBF0E
:1029A000002502254AA3D3E9002351EC180B34F08B
:1029B00099FE35F065F8554408EE100AEDB2204650
:1029C00000F02EFD2B46F0EE480A4A4641462046CE
:1029D00000F0E8FD444BB5002B4493ED000AB5EE42
:1029E000400AF1EE10FA6FD107EE906AF8EEE77A3E
:1029F0003E4AF5EE407AF1EE10FA14BF04230023AC
:102A00001344D3ED007AF5EE407AF1EE10FA54D18A
:102A1000204600F03DFD7FBB03B0BDEC028BBDE85E
:102A2000F08F0F242646002F86D003F007FF0028E2
:102A300082D003F009FFA0427FF47EAF012003F0B3
:102A4000ABFD79E79FED240B87E70546AAE703B0C6
:102A5000BDEC028BBDE8F04FFFF702BF09287FF401
:102A600069AFA1F123032E2B7FF664AFD4E708F101
:102A70005D095FFA89F983E7204600F0D1FCDFEDBC
:102A8000187A28EE000A414620EE270A2046FCEE7E
:102A9000C07ACDED017A9DF8042003B0BDEC028B25
:102AA000BDE8F04F02F0BABF0FF07EF803287FF4C4
:102AB00064AF02F03DF8814662E7154495ED000AE7
:102AC000204600F075FEA3E7204600F06FFE8BE77E
:102AD000422E6094726013400000000000C05F400E
:102AE0000000FE421C29FF1F9428FF1FDC28FF1F47
:102AF00030B583B00E280191DDED017A124BB8EEAE
:102B0000E77ADFED127A87EE270AC4BF0F2420464A
:102B100003EB8003D8BF044615462046D3ED007A68
:102B2000B4EE670AF1EE10FA98BFB0EE670A00F053
:102B30003FFE0DB903B030BD0199204603B0BDE89A
:102B4000304003F0EFB800BFDC28FF1F0000FE425A
:102B50000E282DE9F041CABF0F2404462046402923
:102B600015461E467CD007D979292ED07B2910D056
:102B700078294BD0BDE8F081072965D00A2918D003
:102B80000129F7D1294620461A46BDE8F041FFF752
:102B9000AFBF4A4BB3F9001041FA00F010F0010149
:102BA000E8D1204600F0C6FD2046BDE8F04100F027
:102BB00081BC1146204600F0E7FB002EDAD0294602
:102BC0002046BDE8F04103F057B8002240212046DE
:102BD000FFF7BEFF6421204600F08EFB2046402117
:102BE00000F0D2FB9FED360A204600F0DFFD002EFC
:102BF000C0D06421204603F019F8204600F018FCEC
:102C000001462046BDE8F04103F036B82B4D2D4A71
:102C100029880123834021EA03032B80000202F16B
:102C20004001002532F9023F03F47F43984208BF78
:102C300015809142F6D12046012100F07BFD20460F
:102C4000BDE8F04100F036BC1146204600F054FBD0
:102C5000002E8FD029462046BDE8F04102F0E6BFA5
:102C60003F2A164921D80A88164C0123834022EABC
:102C700003030B80070204F140054FF0000801E058
:102C8000A54210D034F9020F00F47F439F42F7D1E0
:102C9000411EC9B2C0F3072033460022FFF7E0FD12
:102CA000A4F80080ECE7BDE8F0810B88012202FA6D
:102CB00000F003430B80BDE8F08100BF3429FF1F03
:102CC000000000005228FF1F38B500240023E0B2A6
:102CD0001A4678210134FFF73BFF102CF6D1002073
:102CE00031F0BEFF38B1002031F0BAFF0028F6D134
:102CF00001E031F007F830F0F1FF04460028F8D188
:102D0000094B0A4A0A4D187001461D205C709C70E0
:102D100014702C7030F02EFB21461E2030F02AFB60
:102D2000044B1C6038BD00BF3029FF1F2C29FF1F3A
:102D3000D828FF1FD428FF1F0A2825D00E2870B5D9
:102D400016460D46044615DCF8B9034602467B21BB
:102D5000FFF7FEFE174B1D70AEB12046294602F06C
:102D60002DFF0EF021FF03280DD12846BDE870404D
:102D700015F086BF00231A467B210F20FFF7E8FEDF
:102D80000C4BDD737EB970BD704700231A467B2162
:102D9000FFF7DEFE074B1D55002EF4D029462046D6
:102DA00002F00CFF70BD29460F20BDE8704002F014
:102DB00005BF00BF1C29FF1F70B582B00E28D4BF0D
:102DC00004460F2501914FF012004FF00001D4BFCF
:102DD00025462C46164623F0B1F907EE900A9FEDE2
:102DE000107A104BF8EEE77A03EB8403C7EE276AFC
:102DF0002846DDED017AF8EEE77A87EEA67AB0EEA6
:102E0000470A83ED007A00F0D1FC0EB902B070BD24
:102E10000199284602B0BDE8704002F063BF00BFD0
:102E2000000080469428FF1F70B5FFF74DFF012575
:102E3000002602E00135EDB20136F4B200231A4655
:102E400020467821FFF784FE002320461A46792188
:102E5000FFF77EFE0022092E11462046EAD0FFF73A
:102E60006BFF002211462046FFF7A6FF00232046F5
:102E70001A460121FFF76CFE102DDBD1BDE8704032
:102E80000EF00EBD034B187008B1FFF71DBFFFF722
:102E9000CBBF00BFD928FF1F08B503F0C3FC00B9A2
:102EA00008BD03F0B9FC0028FAD0BDE8084003F0E3
:102EB000AFBB00BF08B503F0B5FC00B908BD0020EA
:102EC000BDE8084003F068BB08B503F0ABFC00B9EF
:102ED00008BD0120BDE8084003F05EBB30B558498D
:102EE0000878A0F1800383B000F00F007F2B48D852
:102EF000DFE803F0888888888888888888888888B8
:102F000088888888404040404040404040404040A1
:102F10004040404049494949494949494949494945
:102F20004949494999999999999999999999999951
:102F30009999999981818181818181818181818121
:102F40008181818149494949494949494949494911
:102F50004949494971717171717171717171717101
:102F60007171717147475F474747476D5047555AE1
:102F7000904747A101238A78497801930093FFF78E
:102F8000C3FC03B030BD4978012203B0BDE8304036
:102F9000FFF7AEBD03B0BDE83040FFF77DBF03B023
:102FA000BDE83040FFF786BF03B0BDE83040FFF713
:102FB0008BBF8D784C7803F035FC0028E1D004EB12
:102FC000052080B203B0BDE83040FFF7DBBB1D4BEE
:102FD00000221A70D5E78B784A78D90101F47E5324
:102FE00002F07F011944A1F50051012203B0BDE8B0
:102FF0003040FFF7E1BE4978012203B0BDE8304020
:10300000FFF79ABE8A784978012303B0BDE83040C3
:10301000FFF726BC03F006FC0028B2D003B0BDE8E1
:10302000304003F039BA8A784978012303B0BDE80B
:103030003040FFF78DBD03B0BDE83040FFF7F4BE70
:103040003029FF1F2C29FF1F2DE9F041524B1C781E
:1030500082B0002C40F08680504D514E2F4611E03A
:1030600032782A7002F0F000F0280878197804D03D
:103070009EF80030013B13433B706870A970012437
:10308000FFF72CFF002031F0EBFDDFF834E145497C
:10309000454B0028E4D1414D444E2F4611E0327893
:1030A00072B92A78DFF8F480414C002A3DD02178AB
:1030B0004A1CD2B27B5422703E4B1B78934229D0DB
:1030C000012430F00BFE002839D030F01BFE020640
:1030D000C3B2E4D5F02B4DD0327834492AB1F72B66
:1030E00043D0EF2B3ED800223270314C2B7000229F
:1030F0000121DF2B21706A70AA70DFF8A08016D83A
:10310000C02B1AD2802B14D201232A4901229342C8
:103110000B70D5D1FFF7E2FE98F800300122EF2BBB
:103120002270CDD900232B70CAE72278C4E7EF2B99
:10313000EAD8204B03221A70C2E70223E5E7FCB964
:103140001D4D2B6873B11D4A12680192019A93427A
:1031500008D221461D2030F00DF921461E2030F006
:1031600009F92C6002B0BDE8F08100230B7002B0B9
:10317000BDE8F0810D4B01221A7002B0BDE8F0816C
:1031800001211D2030F0F6F80C4B0B4A1B68009310
:10319000009B32331360E5E7D928FF1F3029FF1F5A
:1031A0006088FF1F6488FF1F6588FF1F2C29FF1F91
:1031B000D828FF1FA411FF1FD428FF1FF085FF1F71
:1031C0006788FF1F024B187059709A70FFF786BE10
:1031D0003029FF1F00B5F83883B004280BD8DFE88A
:1031E00000F0280A032018004FF60F2031F0D4FC1D
:1031F000FA2030F0B5FC01211E2030F0BBF8114B55
:10320000114A1B680193019B0133136003B05DF801
:1032100004FB4FF60F4031F0BFFCFC2030F0A0FC67
:10322000E9E74FF60F3031F0B7FCFB2030F098FCA7
:10323000E1E74FF60F0031F0AFFCF82030F090FCE2
:10324000D9E700BFF085FF1FD428FF1F70B501210B
:103250001D2030F0A3F801211E2030F09FF800213E
:103260001D2030F087F800211E2030F083F8084E32
:10327000084D094A09480023012447F612213370FA
:103280002B7014702EF098FCBDE87040FFF7CCBD99
:10329000D828FF1F2C29FF1FA411FF1F301AFF1F62
:1032A000F0B500230D4E0E4D0E4C0F480F49DFF8C0
:1032B00044C01A464FF0640E40270133102B06F825
:1032C00001EF45F804CB04F8017F00F8012F01F865
:1032D000012FF2D1064BFF221A70F0BD4B29FF1FC0
:1032E0006C29FF1F3729FF1F5B29FF1FAB29FF1F19
:1032F0004829FF1FCDCC4C3F38B504460D46D1B10F
:1033000007EE901A9FED1C7AF8EE677AF4EEC77A12
:10331000F1EE10FA1FD49FED140B32F089FB14A3C9
:10332000D3E9002351EC100B34F0DCF934F0A8FBA6
:1033300007EE900A01E0DFED117A114A114B1555A5
:1033400003EB84032046C3ED007AB0EE670ABDE8C4
:10335000384000F059BF17EE900A34F045F841ECC0
:10336000100BDAE7AFF300800000000000C05F4000
:10337000422E6094726013400000FE420000000084
:103380004C29FF1F6C29FF1F30B4094D2A5C8A426B
:103390000CD02F290B4694BF002201224F292B5419
:1033A0008CBF0021012130BC00F03EBB30BC704717
:1033B0003829FF1F034B195401B97047012100F050
:1033C000B9B900BF5C29FF1FF8B5104E104D307021
:1033D0000024034627460FE0834214BF0123002345
:1033E0004FF001012B7001D000F0A4F90134102C32
:1033F00005F1010509D03378FF2BE0B2ECD101349F
:10340000102C2F7005F10105F5D1F8BD4829FF1FDB
:103410005C29FF1F014B185C704700BF4C29FF1F40
:10342000024B03EB800090ED000A70476C29FF1FF0
:10343000014B185C704700BF3829FF1F034B185C15
:103440004F288CBF00200120704700BF3829FF1F84
:10345000034B185C2F2894BF00200120704700BF49
:103460003829FF1F014B185C704700BF5C29FF1F04
:10347000034B1B78181AB0FA80F04009704700BF60
:103480004829FF1F014B1878704700BF4829FF1FCC
:10349000024A135C01331354704700BFAC29FF1F6D
:1034A000034A135C013B23EAE3731354704700BFE4
:1034B000AC29FF1F014B00221A547047AC29FF1F93
:1034C000014B185C704700BFAC29FF1F054B185C0F
:1034D0004F2804D82F2894BF0020012070470220D5
:1034E000704700BF3829FF1F0A4B0B4930B4002238
:1034F000002503F5207403201A809A705D6018720D
:10350000DA601033A34221F8042C41F8082BF3D1E0
:1035100030BC7047A811FF1FC029FF1FF0B51E4B1C
:103520001E4C1B6883B004F5A0750193019E002713
:1035300002E00834AC420ED034F8040C0028F8D075
:103540002368B342F5D8002100F066F9083424F866
:103550000C7CAC42F0D1124C002704F5207502E03F
:103560001034AC4215D034F80C0C0028F8D0236885
:10357000B342F5D814F8042C54ED020A14F80A1CCE
:10358000B7EE000A00F030FF103424F81C7CAC4287
:10359000E9D103B0F0BD00BFF085FF1FC029FF1FB8
:1035A000B411FF1F2DE9F04FC0022DED028B1FFA61
:1035B00080F8481C1446404483B01A4680B28946BD
:1035C0002146B0EE408AF0EE608A00F00DFF204602
:1035D000FEF742FEFEF7D2FD002843D02A4B2B4EC9
:1035E0001B680193DDF804B0054608F10108B246F6
:1035F00001272B798BB3D5ED047AF5EEC07AF1EE85
:1036000010FA2ADD2B7D68EE280A012B60EEA70A4E
:1036100033D94FF0020E7A022C7BAB68697902F441
:10362000C062424409EB040052FA80F080B2F3B168
:10363000002301E0282B10D01C010133325B002A4B
:10364000F8D10AEB04032AF80400997083F808E023
:10365000AA68C3ED010A5A44DA600137042F05F164
:103660001405C6D103B0BDEC028BBDE8F08F7246E5
:10367000B0EE480A00F0B8FEEFE7002B0CBF4FF0A9
:10368000010E4FF0030EC6E7F085FF1FA811FF1FC4
:103690002DE9F04FC0021FFA80F8481C404483B067
:1036A000144680B28946002100F0B6F82046FEF7A5
:1036B000D3FDFEF763FD90B31C4B1D4D1B680193BA
:1036C000DDF804B0044608F10108AA460127237971
:1036D00003B3D4ED047AF5EEC07AF1EE10FA19DDF9
:1036E0007B02207BA16803F4C0634344484453FA3F
:1036F00080F080B2B9B1002302E00133282B11D051
:1037000035F83320DE00002AF7D1564459442AF810
:10371000330071600137042F04F11404D7D103B0D2
:10372000BDE8F08F002100F077F8F3E7F085FF1F88
:10373000BC29FF1F2DE9F84F82468946DFF86880D3
:10374000184D00F089FB00244FEACA2AC3462746D9
:10375000264638F81430610003F478424BB15245E4
:1037600007D13A010BEB02034BF802605E609E60EA
:10377000DE6035F8043C03F478424BB1924507D142
:1037800038F80100494600F047F825F8046C2E602F
:103790000834B4F5A07F07F1010705F10805D8D179
:1037A000BDE8F88FC029FF1FA811FF1F00F056BA0F
:1037B00000F06CBA00F07F000138C0B2704700BF63
:1037C00030B100F47840B0EBC12F0CBF01200020D5
:1037D000704700BFF0B500240C4D0D4E83B0274656
:1037E000AB69E1B253B132680192019A0948934240
:1037F0004FF0000202D827F0D7F8AF610134242C33
:1038000005F11C05ECD103B0F0BD00BFFC2AFF1F81
:10381000F085FF1F2082FF1F2DE9F04F564C85B029
:10382000002681468B4604F1180504F57C7806E0F5
:103830001C34A04506F1010605F11C0542D035F8FF
:10384000183C4B45F7B2F3D1BBF1000F3DD000223D
:1038500039464A4827F068F80122824639464748E7
:1038600027F062F80F23019000223946434827F0E1
:1038700065F80F2301223946404827F05FF80022FF
:1038800039463E4827F0D4F8002239463B4827F015
:103890008BF8534600223946384827F04FF8019BF1
:1038A00036483946012227F049F80023A3611C3429
:1038B0004FF00003A04525F8183C06F1010605F17C
:1038C0001C05BCD105B0BDE8F08F5A4639462B48DF
:1038D00027F0AEF85A463946284826F0BFFF50BBBD
:1038E00001223946254826F0B9FF4FF00F0AA0B152
:1038F00001223946214826F087FF3E2830D9BAF107
:10390000000F36D145F2F05242FA0AF31C4A12680F
:103910000392039A1344A361C9E750460AF1FF3AA0
:1039200045F2F0530028F1D001388245EADB45F238
:10393000F0530341EAE75A463946104826F064FF3F
:103940003E28CDD85A4639460C4826F0EDFF0122D4
:1039500082463946094826F081FF0028CFD0C7E7C4
:1039600039460122054826F0DFFFBAF1000FD7D013
:10397000D4E70F20D2E700BFFC2AFF1F2082FF1FE1
:10398000F085FF1F30B52DED028B044683B008464D
:10399000F0EE408A00F026FF837C9FED218AC3F180
:1039A0003F0307EE903AF8EEE77A214687EE887AF1
:1039B000012205461B4868EEC77AB0EE487AA7EEAA
:1039C000887AFCEEC77ACDED017A9DF8043026F0B6
:1039D00025FF2146134827F05FF8012803D003B0E4
:1039E000BDEC028B30BDAB790E48C3F13F0307EE4F
:1039F000903AF8EEE77A214687EE887A002268EE60
:103A0000C78AA8EE888AFCEEC87ACDED017A9DF8C7
:103A1000043003B0BDEC028BBDE8304026F0FEBEA2
:103A200000007C422082FF1F134B1B78022B21D009
:103A30002DE9F0470024924689460746DFF840808A
:103A4000254602E0B4F57C7F12D038F804003946F0
:103A5000FFF7B6FEEEB21C3401350028F2D0314635
:103A600053464A46054827F031FBB4F57C7FECD13C
:103A7000BDE8F087704700BFEC2EFF1F2082FF1FBC
:103A8000FC2AFF1F2DE9F04F2DED028B6B4B9FEDB4
:103A90006C7A1B68DFF8B0A16A4CDFF8BCB185B066
:103AA00000250393DDED038AF8EE687A67EE878AD6
:103AB00005E00135242D04F11C0400F0A38034F846
:103AC000103C5FFA85F9002BF3D02379002BF0D15D
:103AD00014F80C0C00F086FE867E14F90C3C7F2E48
:103AE000C8BFA6F58076002BC0F2918034F8100C88
:103AF000FFF760FE30448BFB0036C317C3EB66064E
:103B000006EB4606A0EB86060236F6B214ED017A05
:103B10005AF82670B5EEC07AF1EE10FA0FFA87F86F
:103B200000F1818014DDB31C474A07EE908A52F8F9
:103B30002330F8EEE76ADB1B07EE903AF8EE677A7F
:103B4000E7EE276AFDEEE67ACDED007ABDF900805A
:103B500094ED008AB5EEC08AF1EE10FA40DD18EE61
:103B6000900A33F041FC013641EC100B31F010FEAD
:103B70005AF82630DF1B07EE907AF8EE677A8DED63
:103B8000000B67EE887A17EE900A33F02DFC9DED5E
:103B9000000B06460F46002251EC100B2B4B33F066
:103BA00077FC0022294B33F0C1FA02460B46002075
:103BB000274933F0B9FA02460B463046394633F00E
:103BC00067FC064640460F4633F0FCFB02460B46B8
:103BD0003046394633F0AAFA33F00AFF0FFA80F87C
:103BE00049461C4826F0CAFE80453FF462AF424673
:103BF00049461848013526F0D7FE242D04F11C044F
:103C00007FF45DAF05B0BDEC028BBDE8F08F8BFBA0
:103C10000632F317C3EB620303EB4303A6EB830601
:103C20000236F6B272E7B31E074A07EE908A52F8E0
:103C30002330F8EEE76AFB1A7EE700BFF085FF1F2E
:103C4000F6AD003D0C2BFF1F40D903000000E03F04
:103C50000000F03F2082FF1FABAAAA2A70B50A4CD1
:103C60002DED028B0646B0EE408A04F57C75314698
:103C70002088FFF7A5FD08B184ED038A1C34AC420F
:103C8000F5D1BDEC028B70BDFC2AFF1F70B50A4C4C
:103C90002DED028B0646B0EE408A04F57C75314668
:103CA0002088FFF78DFD08B184ED048A1C34AC42F6
:103CB000F5D1BDEC028B70BDFC2AFF1F2DE9F04F42
:103CC000634B83B0C0EBC0070190884603EB8707C6
:103CD000002402E00134192C2BD0E0B2FEF7FEF9EB
:103CE0000578012D0646F5D182783B799A42F1D1CB
:103CF000012D00F0A580B8F1FF0F15D0C2464FF09E
:103D000004097378013B062B0ED8DFE803F05160FD
:103D1000423324041500F37819EA030F04D0514606
:103D2000327A4C4826F09EFE022DD3D00135EDB2FA
:103D3000DEE703B0BDE8F08F4FF0000BF17809FA31
:103D40000BF319425FFA8BF20BF1010B4ED1BBF171
:103D5000020FE9D0F2E74FF0000BF17809FA0BF30C
:103D600019425FFA8BF20BF1010B45D1BBF1020F47
:103D7000DAD0F2E74FF0000BF17809FA0BF31942B1
:103D80005FFA8BF20BF1010B48D1BBF1020FCBD0E4
:103D9000F2E74FF0000BF17809FA0BF319425FFAE2
:103DA0008BF20BF1010B33D1BBF1020FBCD0F2E768
:103DB0004FF0000BF17809FA0BF319425FFA8BF21E
:103DC0000BF1010B33D1BBF1020FADD0F2E74FF095
:103DD000000BF17809FA0BF319425FFA8BF20BF141
:103DE000010B0FD1BBF1020F9ED0F2E7337A1948D5
:103DF000514626F0E9FCAAE7337A1648514626F0E8
:103E00009DFDB3E7337A1348514626F031FDE9E7CB
:103E1000337A1048514626F049FDC5E7B3680D488E
:103E2000C3F10F03DBB2514626F060FDADE7B36886
:103E30000848C3F13F03DBB2514626F0EFFCC2E76E
:103E4000019BFF2B3FF472AF9A46A94659E700BF8A
:103E5000FC2AFF1F2082FF1F2DE9F0410C4D064672
:103E600088462F46002403E01C34B4F57C7F0DD037
:103E70003146285BFFF7A4FC0028F5D0385B4146AB
:103E80001C34FFF7C9FCB4F57C7FF1D1BDE8F081AB
:103E9000FC2AFF1F0A4B10B403F57C71FF2404E0D9
:103EA000FF2805D01C338B4206D01A798242F7D105
:103EB0001C711C338B42F8D15DF8044B704700BF76
:103EC000FC2AFF1FF8B5174F174B3870002403F575
:103ED0007C760022FF251A805A801D719C60DC6070
:103EE0001C611A759A611C33B342F4D1A0F102012E
:103EF000B1FA81F149090D4827F046F80B4827F03F
:103F0000A1FA0121094826F0E7FD0121074826F022
:103F1000CDFD39780548023918BF0121BDE8F840C8
:103F200027F076BBEC2EFF1FFC2AFF1F2082FF1F0D
:103F30002DE9F04F5C4B1F78012F87B068D0022F1E
:103F40000CBF4FF0090E4FF00C0E4FF6FF764FF0FE
:103F5000FF080022554DDFF8609103969346B24664
:103F6000B446CDF81480CDF80480CDF808800090D8
:103F70000DE01C795B88200622D4B34202F10102D5
:103F800038BF1E46D3B238BF88469E4528D9022F77
:103F90000ABF474B12F80910D15CC1EBC10405EB15
:103FA000840335F82440002CE3D11C790098844226
:103FB0000BD05B889C45DED920069C460191DCD560
:103FC00053453CBF9A460591D7E75888039B049018
:103FD0000BF1010B98425FFA8BFB0BD30346E9E729
:103FE000029BFF2B17D0BBF1010F07D9029807B036
:103FF000BDE8F08F049B03930291DBE7019A0299DD
:104000001346FF2A08BF0B46184607B0BDE8F08FDD
:104010004FF0060E99E7019BFF2B03D0019807B0E4
:10402000BDE8F08F059CFF2C28D1022F2DD0002158
:10403000DFF888C0059C4FEA4E0E0A460E464FF642
:10404000FF7901E01CF80210C1EBC103501C35F8E8
:10405000237005EB83032FB95B884B4502D21646CC
:1040600099460C46C2B29645ECDCFF2C0DD0314689
:10407000104827F04BFB78B92046B8E70D480022DE
:10408000214626F0D5FC2046B1E70A4800224146E9
:1040900026F0CEFC4046AAE706483146002227F02B
:1040A0008DF92046A3E700BFEC2EFF1FFC2AFF1F5F
:1040B000B0D903002082FF1F80D90300D4D90300A8
:1040C00070B52DED048B044682B00846B0EE409AE0
:1040D00000F088FB90F82D309FED498AC3F13F0333
:1040E00007EE903AF8EEE77A2146C7EE888A012279
:1040F0000646444827F06CFA012201464148F0EE9A
:10410000487A68EE898AE8EEC87AFCEEE77ACDED67
:10411000017A9DF8043026F081FB2146394827F0CA
:1041200025F802285FD00328054627D0012803D0B0
:1041300002B0BDEC048B70BDB37C3248C3F13F03C9
:1041400007EE903AF8EEE77A214687EE887A002269
:1041500027EE099A27F03CFAA9EE488A01462A463A
:10416000FCEEC87A2748CDED017A9DF8043002B004
:10417000BDEC048BBDE8704026F050BBB3792148FC
:10418000C3F13F0307EE903AF8EEE77A0022C7EE5C
:10419000888A214627F01CFA002201461948F0EED1
:1041A000487A68EE898AE8EEC87AFCEEE77ACDEDC7
:1041B000017A9DF8043026F031FB96F82130114841
:1041C000C3F13F0307EE903AF8EEE77A214687EE17
:1041D000887A012227EE099A27F0FAF9A9EE488A8F
:1041E00001460022BCE7B3790648C3F13F0307EE5E
:1041F000903AF8EEE77A214687EE887A0022E9E7DE
:1042000000007C422082FF1F2DE9F8431C4CDFF8A0
:1042100074902DED028B8046B0EE408A04F57C77D9
:1042200000250DE094ED020A217919F8050028EE29
:10423000000AFFF745FF1C34BC4205F101051BD005
:1042400041462088EEB2FFF7BBFA0028F3D0237D69
:10425000002BF0D1207900F0E1FA0028E2D194EDB2
:10426000020A2179304628EE000A1C34FFF78AFB47
:10427000BC4205F10105E3D1BDEC028BBDE8F8833A
:10428000FC2AFF1F8CD903002DE9F04F524B1B78FD
:1042900089B0012B029000F08180022B4FD04FF0AB
:1042A0000C0900254FF6FF784FF0FF0A2B460695C4
:1042B0002F46C346CDF80480CDF81C80CDF814A05D
:1042C000CDF810A0CDF80CA04448454C03210FE0D8
:1042D000127912062ED4984505F1010588BFBA4619
:1042E000EFB288BF9846B94539D98378C178023092
:1042F000C3EBC303C1EBC10104EB830204EB8106F2
:10430000B2F802C034F823E07388634528BF6346DF
:10431000BEF1000FDCD134F8211012790029D8D178
:1043200002998A422CD001999942D2D9120601935E
:104330000497D0D59B4584BF9B460597CBE7FF23C9
:10434000039300220399274827F042F900220146EF
:10435000244826F06DFB039809B0BDE8F08F039B5D
:10436000FF2B1ED0069B012BF5D8049A0399134608
:10437000FF2A08BF0B460393039809B0BDE8F08FEE
:104380003179029EB142CED106990131C9B206916E
:1043900007999942C7D907930397C4E74FF00609D5
:1043A0007FE7049BFF2B05D0049B0393039809B080
:1043B000BDE8F08F059CFF2C0BD021460022094858
:1043C00027F006F9002201460648039426F030FB48
:1043D000C1E7CDF80CA0B4E7EC2EFF1FD4D9030041
:1043E000FC2AFF1F2082FF1F2DE9F04F2DED028BCD
:1043F00006469FB008460D46F0EE408AB0EE608A51
:10440000924600F001FA002800F0B9809B4B1B781F
:10441000022B05D0284600F001FA002840F0B480B5
:1044200010AB184629460F9300F0E4F928469DF892
:104430005AB0934FDFF85882FFF77AFD0446FF2306
:10444000214690480D934FF0000926F0E7FA002826
:1044500040F0CC808C4B1B5D0E93FF2B0AD019468D
:10446000884827F053F9484504D04A460E998548B4
:1044700026F0A4FFB9F1000F00F0C1804FEAC40993
:10448000C4EB090307EB83037D4A1B79AB4200F0C1
:10449000DE808DF85AB00DF1480CBCE80F00EE46F6
:1044A000AEE80F00BCE80F00AEE80F009CE80F007C
:1044B000AEE80700AEF800300F9B0E997148B7EEDA
:1044C000000A0CCB26F094FD0E98294628EE280A07
:1044D000FFF7F6FDCAF340030AF001020D9969489F
:1044E00026F0F4FDC4EB09094FEA890907EB09033B
:1044F000B8F800205A80002100221D7183ED028A45
:10450000D96019611A759A612B0627F8096005D4DC
:1045100006F07F06013E5E445FFA86FBBBF16A0F40
:104520006ADCBBF10C0F00F39C8000252E46534B38
:104530001B78022B07D0CAF340030AF00102214680
:10454000504826F0C3FD324621464E4826F04CFA2C
:1045500029464C4825F0D4FF21460246494826F01A
:1045600023FA0D992046FFF7A9FB21460122454871
:1045700026F05EFAB8F800300133A8F800301FB01A
:10458000BDEC028BBDE8F08F10AB184629460F93A7
:1045900000F030F928469DF85AB0394FDFF8F08026
:1045A000FFF772FE394BB8F800E000B203EB4002AF
:1045B00013F8104053780D93C3EBC3029200BB185D
:1045C0000021BE524FF001090022D96019611D710E
:1045D00083ED028AA3F802E09A6183F814902146E1
:1045E000284826F01BFA00283FF434AF0022214669
:1045F000244826F01DFA2DE70B25072697E74FEAFA
:10460000C409C4EB090307EB83031B79AB4217D042
:104610008DF85AB00DF1480CBCE80F00EE46AEE83C
:104620000F00DCF800302EF8023B1B0C8EF8003037
:104630000F9B14480CCBB7EE000A214625F0F6FF7D
:1046400028EE280A29462046FFF79CF94AE70D9BE9
:10465000C3EBC30302EB83021379AB427FF419AFC0
:1046600032E70C26BBFBF6F506FB15B5ABF10C03E8
:10467000EDB293FBF6F6F6B259E700BFEC2EFF1F42
:10468000FC2AFF1F2082FF1F8CD90300D4D903000E
:104690002814FF1F08B52DED028BDFED468A9FED34
:1046A000468AB0EE680A0322F7EE000A602148F25B
:1046B0003000FFF799FEB0EE480A0322F7EE000A39
:1046C000702148F63000FFF78FFE32202EF090FE6A
:1046D000B0EE680A0322F7EE000A602148F23500C6
:1046E000FFF782FEB0EE480A0322F7EE000A7021BF
:1046F00048F63500FFF778FE32202EF079FEB0EE56
:10470000680A0322F7EE000A602148F23900FFF739
:104710006BFEB0EE480A0322F7EE000A702148F65D
:104720003900FFF761FE50202EF062FEB0EE680AFD
:104730000322F7EE000A602148F23C00FFF754FE26
:10474000B0EE480A0322F7EE000A702148F63C005A
:10475000FFF74AFE4FF4FA702EF04AFE002148F2AD
:104760003000FFF759F8002148F23500FFF754F800
:10477000002148F23900FFF74FF8002148F23C00D1
:10478000FFF74AF8002148F63000FFF745F800210E
:1047900048F63500FFF740F8002148F63900FFF7EA
:1047A0003BF8BDEC028B002148F63C00BDE8084018
:1047B000FFF732B83333333FCDCC4C3F84B070B5C4
:1047C000074E05AC362584E80E0005FB0060214647
:1047D0002A462EF091F9BDE8704004B0704700BF42
:1047E000F02EFF1F024B362202FB0030704700BF45
:1047F000F02EFF1F08B5034B362202FB01312EF0CD
:104800007BF908BDF02EFF1F034A362303FB00206F
:1048100090F83500C0097047F02EFF1F044A362378
:1048200003FB002090F8350000F00100704700BF46
:10483000F02EFF1F054A362303FB002090F8353089
:1048400063F07F0380F83530704700BFF02EFF1F04
:10485000084B362202FB003090F8353021B923F0A6
:10486000010380F83530704743F0010380F835309C
:10487000704700BFF02EFF1F2DE9F84F4FEA001AD6
:1048800089460AF110075446012607E02DF0C0FDC5
:10489000202305460134A7422B7019D02146134826
:1048A000002EF3D0CAEB0408414648462DF0B0FD77
:1048B00090F800B00D482146BBF1000F0AD12DF051
:1048C000A7FD013405462023A7425E462B70E5D1A3
:1048D000BDE8F88F214605482DF09AFD4146054672
:1048E00048462DF095FD0378D4E700BFEC53FF1F39
:1048F00070B5124C124992B0362606FB00440546AC
:10490000684626F04FFB3246694620462EF0F4F802
:104910000123002284F8352023712374E37784F87F
:104920002B300EA807492DF0DDFB0EA92846FFF716
:10493000A3FF0EA82DF096FB12B070BDF02EFF1F46
:104940002082FF1FF4F303002DE9F04F97B060B908
:104950000446E0B20134FFF7CBFFAF2CF9D1FF20C2
:1049600017B0BDE8F04FFFF795BA00212E2021F0D7
:10497000E5FB02284B4F6AD000212F2021F0DEFBFF
:1049800000F0020000F0FF04002860D1DFF8309151
:10499000454A3D466E464FF0360A01E059F8042F6D
:1049A0004249012330460AFB047826F007FB013414
:1049B0004046362231462EF09FF88123802C85F820
:1049C000353005F13605E9D10DF13C08DFF8F490FA
:1049D000374A0024802501E059F8042F3349012388
:1049E000404625F0B9FD362303FB057A2F493046B2
:1049F00026F0D8FA07EB040B3622314650462EF04B
:104A00007BF81B2241460BF5D8502EF075F8363452
:104A10000BF5D95340F6EA128021944205F10105C5
:104A20005975D9D1234E4125002401E016F8015FC4
:104A3000214821462DF0ECFC0134B4F52F6F0570B0
:104A4000F4D1FF2017B0BDE8F04FFFF723BADFF82D
:104A500078901A4A3D4600240DF13C086E464FF00E
:104A6000360A01E059F8042F10490123404625F089
:104A700073FD0AFB047B0D49304626F093FA36227B
:104A8000314658462EF038F828461B2241462EF073
:104A900033F8013480239C4285F8353005F1360522
:104AA000E0D193E7F02EFF1FD40404002082FF1F03
:104AB00040020400ECD90300EC53FF1FA4040400DF
:104AC00078060400A4E7030010F703002DE9F04185
:104AD0000746884610260024214613482DF098FCEE
:104AE00006FB0841054611482DF092FC013403787D
:104AF0002B70102CF0D10F2400E0D4B221460A48CC
:104B00002DF086FC0378621E002BF6D0611C06484F
:104B10002DF07EFC00230370034938462DF0F6FA91
:104B20003846BDE8F08100BFDC53FF1FEC53FF1F88
:104B3000014B1878704700BFDA53FF1F014B187004
:104B4000704700BFDA53FF1F074B084A01E093424A
:104B500008D093F8350010F0010003F13603F6D0C9
:104B600001207047704700BFF02EFF1FDA53FF1F70
:104B7000F8B50C4F0C4E0D4D0D4C0E4938462DF02E
:104B8000B1FA32462946384630F06AFD20460A49D5
:104B90002DF0A8FA324629462046BDE8F84030F00C
:104BA0005FBD00BFEC53FF1F1C0DFF1F65200300FE
:104BB000DC53FF1FF0E80300E4F3030038B5054CB5
:104BC000A4F580552046103C2DF04CFAAC42F9D1AA
:104BD00038BD00BF4864FF1F2DE9F04F9BB08146F0
:104BE0000D4612A8BD492DF07DFA12A948462DF0B8
:104BF000E9FB044612A82DF035FA002C00F08B805A
:104C0000B64948462DF0C0FB58B9D9F80010B44C4D
:104C1000B448002908BF214627F080FA03900028F5
:104C200050D0D9F80020AE4BAE49DFF8BC821AAEA6
:104C3000002A08BF1A4612A8012327F0FBF916F82C
:104C4000141D9DF84C20149B88F80420C8F80830E7
:104C500088F80C10324608F10D0308F11A0712F813
:104C6000011F03F8011BBB429F4CF8D1199BE36164
:104C7000204627F045F80390002851D19B4A984BD5
:104C800012689849002A08BF1A4612A8012327F083
:104C9000D1F99DF84C10149A9DF8543088F80410FE
:104CA0000D34C8F8082088F80C3016F8013F04F8D5
:104CB000013BBC428C4BF8D1199A0398DA611BB0C6
:104CC000BDE8F08F894B87491A68DFF81C8212A86B
:104CD000002A08BF2246012327F0ACF91AAA149B28
:104CE0009DF84C1012F8140DC8F8083088F80C0024
:104CF00088F8041008F10D0308F11A0712F8011FD3
:104D000003F8011BBB427849F8D1199B0398CB618A
:104D10001BB0BDE8F08F2F2148462DF0D7FA6FE782
:104D200049467248DFF8D881DFF8CC91DFF8CCA192
:104D30002DF068FA00276E4BC8F80070394606A8B7
:104D40001F602DF0CFF9204627F06CFA3B46019604
:104D500009F11A07CB461E460122634912A827F023
:104D600007FA9DF854209DF84C00149989F80C20FE
:104D7000604B019A89F80400C9F8081012F8011F65
:104D800003F8011BBB42F9D1199B5B48CBF81C30DF
:104D900026F0E2FF002800F0B580574826F0AEFF6D
:104DA000014606A82DF03EFA534826F0A9FF044616
:104DB00000287FD1AB68002B70D02E2106A82DF0E3
:104DC00091FB06A9421C0AA82DF0E4FBAB686BB36B
:104DD000224607E00EA82DF045F9AB68E4B29C42EC
:104DE000224623D203342346294612A82DF0AEFBD7
:104DF00012A82DF0E7FB01460EA82DF087F912A8A6
:104E00002DF030F90EA90AA82DF0B0FA0028E1D053
:104E10000AEB061006A92DF0F5F9354B344A1B684C
:104E20000EA80133013613602DF01CF90AA82DF0ED
:104E300019F9314826F082FFFE2E8DDD0296D8F852
:104E40000030002B40F313822C4DDDF808A0002722
:104E5000A9463E463C4609E001345445374609F12F
:104E6000100952D0D8F800309E4250DA002148464E
:104E70002DF0CEFA90F90030002BEDDAA74205EBC9
:104E80000717C0F2E781384600212DF0C1FA0378F8
:104E9000013603F07F03F6B20370DDE70AEB06107C
:104EA00006A92DF0AFF9124B114A1B6801330136E8
:104EB0001360BEE70AEB061406A920462DF0A2F9FE
:104EC000204600212DF0A4FA0378803B0370D8F827
:104ED000003001330136C8F80030AAE7D8080400D2
:104EE00012A704004083FF1F0054FF1F2454FF1F1C
:104EF000FC53FF1F4554FF1F3854FF1F5854FF1F1A
:104F00003454FF1F0296002E99D1D8F80030002BA0
:104F100034DDCD4D00232E461C4699461F4606E043
:104F20000137D8F80030FFB29F423C4679DA05EBF2
:104F30000414204600212DF06BFA0378303B092B36
:104F4000EED8B945ECD206EB091A514606A82DF069
:104F500059F9214650462DF055F909F1010906A9E4
:104F600020462DF04FF95FFA89F9D9E7019A9A1A8C
:104F70000137FFB297423E46C0F2BA80B34B1B687E
:104F8000002B47DDB04DB24F4FF0000A2E4654467D
:104F9000D14609E0AD4B09F101091B685FFA89F9B7
:104FA00099454C4680F2CD80D8F80000204405EBAE
:104FB000001000212DF02CFA0378303B092BE9D8A2
:104FC000D145E7D93B680AEB030106EB011106A8BE
:104FD0002DF018F93B680AEB0300191906EB0111D3
:104FE00006EB00102DF00EF93B68E01806EB001000
:104FF00006A90AF1010A2DF005F95FFA8AFAC9E754
:10500000924B1B680137FFB2CAEB03039F423E4637
:10501000C0F2F18006A82DF025F803981BB0BDE87A
:10502000F08F4946CDF81490CDF80490002900F097
:10503000208109F1FF3323F0FF030493CA46BAF13C
:10504000010F41DD0124264604E00136F6B2564543
:10505000344639DA671E05EB07172E2138462DF046
:1050600041FA00220346394612A82DF06FFA12A821
:105070002DF0D6FA05EB0414834612A82CF0F2FFAB
:105080002E2120462DF02EFA21460346002212A89A
:105090002DF05CFA12A82DF0C3FA814612A82CF06C
:1050A000E1FFCB45D1D9214606A82DF0ABF801365A
:1050B000394620462DF0A6F8F6B206A938462DF05E
:1050C000A1F856453446C5DB049B0AF1FF3A9A45E0
:1050D000B5D1D8F80030019A9A1A002A7FF74EAF5E
:1050E0000599594D01F1010900265FFA89F9374602
:1050F000991B8945BFF63CAF49464C4608E0D8F8B5
:1051000000300134E4B29A1B94422146BFF62EAF20
:1051100001F1FF3A05EB0A1A05EB011B504659460F
:105120002DF048F90028EAD0594606A82DF06AF873
:10513000514658462DF066F806A950462DF062F803
:10514000DDE7BAF1000F4FD00023CDF804A01E46D2
:10515000D8F800305C1C02E0D8F800300134019A25
:105160001344E4B29B1B9C4236DA04F1FF3905EB91
:1051700009192E2148462DF0B5F90022034649466B
:1051800012A82DF0E3F912A82DF04AFA05EB041A43
:10519000834612A82CF066FF2E2150462DF0A2F96E
:1051A00051460346002212A82DF0D0F912A82DF086
:1051B00037FA074612A82CF055FFBB45CCD951460B
:1051C00006A82DF01FF8494650462DF01BF806A9F9
:1051D00048462DF017F8BFE70136019AF3B29A421C
:1051E000B6D81A4B1B689246CAEB0303002B7FF715
:1051F00011AF00263746D8F80040029B01345444D2
:105200009E1BE4B2B44205DBFAE60134E4B2B442D8
:10521000BFF6F6AE04F1FF3905EB091905EB041BE7
:10522000484659462DF0C6F80028EED0594606A843
:105230002CF0E8FF494658462CF0E4FF06A9484602
:105240002CF0E0FFE1E700BF5854FF1FFC53FF1FA5
:105250003454FF1F394606A82CF0D4FF494638467F
:105260002CF0D0FF06A948462CF0CCFF0BE600231B
:1052700001930022D8F8003005922CE738B5084891
:10528000084C26F057FE04F5805520460649103498
:105290002CF0C8FFAC42F8D1044B00221A7038BD84
:1052A0004083FF1F5854FF1FF4F303002054FF1FD7
:1052B00038B5054C04F580552046044910342CF0CF
:1052C000B1FFAC42F8D138BD5854FF1FF4F30300CE
:1052D00038B504460D4600F00DF8054B187800B9B6
:1052E00038BD29462046BDE83840FFF775BC00BFF1
:1052F0002054FF1F10B51B2088B0154C2EF040F82D
:105300002378984209D083F0010323703BB1182120
:10531000104826F0E3FD30B9207008B010BDFFF74B
:10532000ADFF08B010BD68460B492CF0DBFE04A8A9
:105330000A492CF0D7FE04A96846FFF7C9FF04A864
:105340002CF090FE68462CF08DFE08B010BD00BF1A
:105350002054FF1F4083FF1FD8080400F4F303000C
:1053600008B5012118202EF019F800211B202EF07D
:1053700015F8012118202DF0FDFFBDE80840FFF7CA
:10538000B9BF00BF08B5FFF7B5FF014B187808BDDE
:105390002054FF1FF0B589B005460C461746FFF7AD
:1053A000A9FF294B1B78002B2FD02968274E2848AE
:1053B000002908BF314626F0B1FE012C3BD0172C46
:1053C00026D02A68214822492346002A08BF0246DF
:1053D000684626F02FFE08AA1E48029B12F8144DBC
:1053E0009DF8041083600473017100F10D031A30FD
:1053F00012F8011F03F8011B8342164CF8D1079BDA
:10540000E361204626F0A8FC70B9002009B0F0BD89
:105410000028D6D0002FD4D029680D48002908BF15
:10542000314626F097FECCE7204626F095FC28B9B9
:10543000084809B0F0BD0028C3D1E6E7204626F0B1
:105440005FFC0028E1D1F3E72054FF1F12A70400FE
:105450004083FF1F3854FF1F0168034B0348002996
:1054600008BF194626F068BE12A704004083FF1F3C
:105470000A4A0B4B12681B681344994210B5044644
:1054800004DB08492CF02EFE204610BD064B03EB32
:1054900001112CF03BFE204610BD00BF3454FF1F0D
:1054A000FC53FF1FF4F303005854FF1F10B50349CA
:1054B00004462CF02BFE204610BD00BF2454FF1FD5
:1054C00030B51B4989B005461A482CF05DFF40BB3A
:1054D0000446174904A82CF005FE04A915482DF030
:1054E0002FF822460346134968462DF02FF804A8EA
:1054F0002CF0B8FD04A80E492CF0F4FD04A9684670
:105500002DF01EF822460346694628462DF01EF867
:1055100004A82CF0A7FD68462CF0A4FD284609B08D
:1055200030BD044928462CF0F1FD284609B030BDB5
:10553000D80804002454FF1F08B5044904482CF07F
:1055400023FF003018BF012008BD00BFD8080400A9
:105550002454FF1F014B1868704700BF3454FF1FCD
:10556000014B1868704700BFFC53FF1F024A034BF2
:1055700010681B68184470473454FF1FFC53FF1F0A
:105580000168034B0348002908BF194626F0C6BD31
:1055900012A704004083FF1F38B510491048114C72
:1055A0002CF0A0FD104A11490D4830F059F8104870
:1055B00026F096FB0F4826F093FB04F58055204615
:1055C000002110342CF08EFDAC42F8D1064A0A4975
:1055D0000020BDE8384030F043B800BFD8080400D0
:1055E0002454FF1F5854FF1F1C0DFF1F652003008C
:1055F0000054FF1F3854FF1FBD4B000070B5134D02
:105600000024B0202DF0E4FBE1B2013406461FF087
:10561000E1FA202C45F8046FF3D10D4D00244FF42E
:10562000A6602DF0D5FBE1B2013406461FF046FF1F
:10563000202C45F8046FF2D10649074A00230B706D
:10564000136053609360D36070BD00BFF864FF1FA8
:105650006864FF1FF564FF1F5C64FF1FF0B51D4CFD
:10566000206883B0A0B120F0EFFB88B91A4E3368F0
:10567000002B0DDD01F0C4F8054628B3174F184D77
:105680003B680093009B2A689B1AB3F5C87F01D240
:1056900003B0F0BD01F0A8F8013001F025F93B6836
:1056A0000193019B2B60276801F0A4F8014638465E
:1056B00020F024FC054638B1246801F09BF801462F
:1056C00020461FF01FFFE3E720681FF0DBFF356077
:1056D00003B0F0BD5864FF1FF064FF1FF085FF1F8B
:1056E000F864FF1FF8B5114D05F1100755F8044B8C
:1056F000204634B123685E6820F0AAFB01462046AC
:10570000B047BD42F2D10A4B1C683CB12368204629
:105710005D6820F09DFB01462046A8470549064BE1
:1057200000204FF0FF3208701A60F8BD5C64FF1F64
:105730005864FF1FEC64FF1FD819FF1F2DE9F047C5
:1057400001F06AF8214B38B91B780BB9BDE8F08736
:10575000BDE8F047FFF7C6BF0122DFF880801A706E
:1057600001F048F8D8F8003098420746EED0184BC0
:105770001B78E3B9174EDFF86890002456F8045BF5
:1057800028466DB199F800302341DB0708D52B6816
:10579000D3F800A020F05CFB3A4601462846D047EB
:1057A0000134042CEAD1C8F80070BDE8F0870A4B38
:1057B0001C68002CDED0236820461D6820F048FBC2
:1057C0003A4601462046A847EDE700BFEC64FF1FBC
:1057D000F464FF1F5C64FF1F5864FF1FD819FF1F8C
:1057E000F564FF1F2DE9F0410E4E346807460D4663
:1057F00064B123682046D3F8048020F029FB0146D9
:105800002046C047306820F01FFB38B1002F064B00
:10581000376008BF00251D70BDE8F08130681FF0BB
:1058200031FFF3E75864FF1FF464FF1F014B186852
:10583000704700BF5864FF1F014B53F820007047AA
:10584000FC64FF1F014B53F8200070476C64FF1F7E
:105850002DE9F0410A4F57F820408C420DD00E46FA
:10586000054644B123682046D3F8048020F0F0FABE
:1058700001462046C04747F82560BDE8F08100BFDB
:105880005C64FF1F38B5044D2B78834203D0044677
:10589000FFF728FF2C7038BDF464FF1FF8B5D1B9AD
:1058A000114B124D53F820602B78044666B143FA31
:1058B00000F2D20708D5336830465F6820F0C8FA96
:1058C00001463046B8472B78012000FA04F423EA59
:1058D00004032B70F8BD054A0124137804FA00F084
:1058E00018431070F8BD00BF5C64FF1FF564FF1F14
:1058F00070B5184C206810B120F0A6FAF8B9164D12
:10590000002455F8043BE6B2184653B120F09CFA47
:10591000002130B13046FFF79BFF30460021FFF7F2
:10592000BDFF0134042CECD10C4C04F1800554F87B
:10593000040F03689B689847A542F8D170BD24689E
:10594000236820465D6820F083FA01462046A84778
:10595000D5E700BF5864FF1F5C64FF1FF864FF1F9A
:10596000F8B5184C206810B120F06EFA00B3164E4E
:10597000002456F8043BE7B218465BB120F064FA05
:105980000546014630B93846FFF762FF29463846DA
:10599000FFF784FF0134042CEBD10C4C04F180059B
:1059A00054F8040F01211FF02FFDAC42F8D1F8BDCF
:1059B0002468236820465D6820F04AFA01462046A4
:1059C000A847D4E75864FF1F5C64FF1F6864FF1F8B
:1059D00008B5FFF78DFFBDE80840FFF7C1BF00BF66
:1059E000064B53F8203033B1054B1B7843FA00F0D7
:1059F00000F0010070471846704700BF5C64FF1F4D
:105A0000F564FF1F014B53F8200070475C64FF1FD3
:105A1000014B1878704700BFF464FF1F2DE9F04177
:105A20003C4E346884B02CB117460D46044600F055
:105A3000E7FE10B904B0BDE8F081306820F008FA44
:105A4000A042F7D1306820F0FFF950BB306820F059
:105A5000FBF90028EED10CF0A7F80428EAD100F0F9
:105A6000C9FE044600F0D8FE88B92B4A2B482C4BBF
:105A700011680391026883FB0413A3EBE471294BC3
:105A8000039C1C6001EB410101324C000260306854
:105A900001263B462A462146019600961FF0AEFDA0
:105AA000C8E70CF081F80228D0D1233DEDB22E2DAD
:105AB000C0D8366800F098FE336804461B6930464B
:105AC000984794FBF0F303FB10405FFA80F8002442
:105AD000E7B2394630461FF017F8854204F1010459
