:1000000000000320D1010000BDF8020075F80200D5
:1000100075F8020075F8020075F8020075F8020024
:1000200075F8020075F8020075F80200BDF80200CC
:10003000BDF8020075F8020061E7020065E7020002
:10004000BDF80200BDF80200BDF80200BDF80200D4
:10005000BDF80200BDF80200BDF80200BDF80200C4
:10006000BDF80200BDF80200BDF80200BDF80200B4
:10007000BDF80200BDF80200BDF80200BDF80200A4
:10008000BDF80200BDF80200BDF80200BDF8020094
:10009000BDF80200BDF80200BDF80200BDF8020084
:1000A000BDF80200BDF80200BDF80200BDF8020074
:1000B000BDF80200BDF80200BDF80200F10903001E
:1000C000BDF80200BDF80200BDF80200BDF8020054
:1000D000BDF80200BDF80200BDF80200BDF8020044
:1000E000BDF80200BDF80200BDF80200BDF8020034
:1000F000BDF80200BDF80200BDF80200BDF8020024
:100100005D21030071210300852103009921030073
:10011000BDF80200390D0300BDF80200BDF8020071
:10012000BDF80200BDF80200BDF80200BDF80200F3
:10013000BDF80200BDF80200BDF80200BDF80200E3
:10014000BDF80200BDF80200BDF80200BDF80200D3
:10015000BDF80200BDF80200BDF80200BDF80200C3
:10016000BDF80200BDF80200BDF80200BDF80200B3
:10017000BDF80200BDF80200BDF80200BDF80200A3
:10018000BDF80200BDF80200BDF80200BDF8020093
:10019000BDF80200BDF80200BDF80200BDF8020083
:1001A000BDF80200BDF80200BDF80200BDF8020073
:1001B000BDF80200BDF80200BDF80200BDF8020063
:1001C000BDF80200BDF80200BDF80200BDF8020053
:1001D0005C4B4CF2205210B51A804DF628121A8052
:1001E00000BF00BF2FF06EFB574B4FF030621A601C
:1001F000564A9A60564ADA60564B4FF470021A60BB
:10020000554B564A1A60564B1A78110703D51A787F
:1002100042F008021A70534B5349AA221A70534AEB
:10022000534B8B4204D252F8040F43F8040BF8E707
:10023000504B514900228B4202D243F8042BFAE77B
:100240004E494F4A002352F8230041F8230001335E
:10025000742BF8D14B4B4C4A802103F8011B93427D
:10026000FBD14A4B454A1A60494B8A221A70A3F5C2
:10027000805324225A70A0221A709A799207FCD5D2
:100280009A79D406FCD4434A937903F00C03082BE3
:10029000FAD1414B60221A7002331A78802AFCD1BD
:1002A0003C4B01221A715D225A719A799006FCD555
:1002B0009979384A4906FBD5384B394919600021EC
:1002C000596020231370937903F00C030C2BFAD19F
:1002D000344B354A1A60354A354C136813F4807331
:1002E00003D123604FF4A8531360324B324A1A6093
:1002F00000225A60072243F8042C304AC3F80C2D20
:1003000062B62FF0B1FE2368DA0705D52C482FF02E
:1003100067FC2C4B2C4A1A602C4B1B785B0609D5CA
:10032000284C294B22689A4204D125482FF058FCCA
:10033000002323602FF0CCFA34F0EAF92FF0BEF955
:10034000FEE700BF0E20054030800440823F0400DD
:100350000100002B88ED00E0002008E0030000858C
:1003600002D0074000E00740E026FF1F187204009B
:10037000400CFF1FE026FF1F4889FF1F0002FF1FE0
:100380000000000000E400E064E400E008ED00E0AC
:10039000005006400040064001E007404480044011
:1003A0000000060204800440C010070010D0034083
:1003B00014D0034014E000E01FBF02000000202022
:1003C0003EA2C9631CE00340A5C3945A00F0074055
:1003D000FFFFFFFFFFFFFFFFFFFFFFFFFFFFFFFF2D
:1003E000FFFFFFFFFFFFFFFFFFFFFFFFFFFFFFFF1D
:1003F000FFFFFFFFFFFFFFFFFFFFFFFFFFFFFFFF0D
:10040000FFFFFFFFFFFFFFFFFFFFFFFFDEF9FFFF23
:1004100010B5054C237833B9044B13B10448AFF33E
:1004200000800123237010BDE026FF1F00000000A4
:1004300014720400084B10B51BB108490848AFF30B
:1004400000800848036803B910BD074B002BFBD0A0
:10045000BDE81040184700BF00000000E426FF1F61
:1004600014720400E026FF1F000000002DE9F04F89
:1004700089B00646149CDDF84CE00294159C039468
:10048000BEF1010F169C9DF848A006940F4600F09F
:10049000818089B29CB283B2084603F101080493BB
:1004A000034601331BB295B20591A11E18461FFAEF
:1004B0008EF209B20FFA88F80793AB1E8DE806009A
:1004C0001BB2024641463A482BF080F8013DADB2DE
:1004D00036B23FB20FFA85F9BAF1000F3ED0013CB7
:1004E000BDF80CA0CDF800A0A4B24B463A46314668
:1004F0002F480FFA84FB2AF0C1FECDF800A05B461E
:100500003A4631462A482AF0A9FE059BBDF808A0C4
:100510001C4424B24B4641462246CDF800A0244854
:100520002AF0ACFE049BBDF81880079ACDF800A015
:100530001D442DB25B4629461D482AF08FFE3A46DF
:10054000294643461A482AF0FDFC194843462246EC
:10055000314609B0BDE8F04F2AF0F4BC013CBDF8CB
:1005600008A0CDF800A0A4B24B463A463146104848
:100570000FFA84FB2AF082FECDF800A05B463A46D3
:1005800031460B482AF06AFE059BBDF80CA02344B7
:100590001C46BEE781B2B8B201F101080491411CCA
:1005A0009CB20BB2059095B20FFA88F807938DE7CD
:1005B000D880FF1F2DE9F04F85B004461F4600206C
:1005C0001BB2009301900DF140090F98039099E838
:1005D000000E0D46164613B20C489DF838800AB23C
:1005E00021B22CF009FE03980F90BB1EB21E691CAD
:1005F000601CCDF848B0CDF844A0CDF84090CDF8BF
:10060000388005B0BDE8F04FFFF730BFD880FF1F3E
:1006100070B58AB044F208269DF83C4000944FF62D
:10062000FF7548F210440494019403960295144611
:1006300005460E46FFF7BEFF0E9906A82EF050FBAA
:10064000164B06991648002908BF194600222DF0BE
:10065000BDFE0138201A00EBD07040100328CCBF3B
:1006600080B204204119F21C12B209B20C482DF0DC
:1006700087FE06A82EF0E0FA002109482DF0A2FE20
:10068000012107482DF098FE0E9905482EF010F92B
:1006900003482EF033F90AB070BD00BFDA6B0400D6
:1006A000D880FF1F2DE9F0432DED028B89B0F0EECD
:1006B000408A9DF84C709DF84890B0EE608A0546DF
:1006C000884614461E46002F70D1231F07EE103AAD
:1006D000B8EEC77AB4EEE88AC7EE087AF1EE10FAFF
:1006E000D4BFF0EE480AF0EE680A9FED3C7AF5EED2
:1006F000400AF1EE10FAF4EEC78A98BFF0EE470A0E
:10070000F1EE10FA27EEA08A1EDD44F20823B9F1BB
:10071000000F48F21041FDEEC87A18BF184644F2A7
:10072000FF7212BF4FF482630A46002000218DE859
:100730000A0002920390049317EE902A331F08F1E7
:100740000201A81CFFF792FE27B109B0BDEC028B95
:10075000BDE8F08307EE904AAB1C00EE903AF8EE4D
:10076000E77AF8EEE00A77EEC87AB1EE007A70EE3A
:10077000880A77EEC77ABDEEE07AFDEEE77A8DED76
:10078000077ACDED067A08F10202043EBDF91C108D
:10079000BDF918301248139736B212B2129609B04A
:1007A000BDEC028BBDE8F0432AF010BF48F2104EBA
:1007B00044F2082CCDF810E04FF6FF7ECDF80CC0C7
:1007C000CDF808E04FF0000C4FF0010ECDF804C05A
:1007D000CDF800E0FFF7EEFE77E700BF0000000075
:1007E000D880FF1F70B586B048F2104344F2082647
:1007F0004FF6FF750124049301930396029500942C
:100800000223FFF733FE06B070BD00BF2DE9F041B3
:100810000E4C0F4DE561984606460F4620460121D5
:1008200015462DF0C9FD1FFA88F120462DF0CAFDAE
:100830003AB231B220462DF0A3FD294620462EF0D3
:1008400037F8044BE361BDE8F08100BFD880FF1F9B
:10085000DC6A0300646903002DE9F047284C294D48
:10086000E5610E460546012120469A4617461FFAC5
:1008700086F82DF0A1FDBDF8201020462DF0A2FD38
:100880000FFA85F908F1FF3212B2494620462DF0E1
:1008900077FDADB2394620462EF00AF836B2691C13
:1008A000324609B220462DF06BFD394620462DF028
:1008B000FFFF08F1010212B2494620462DF060FD0B
:1008C000394620462DF0F4FF691E324609B2204613
:1008D0002DF056FD394620462DF0EAFF1FFA8AF129
:1008E00020462DF06FFD3246494620462DF048FD4A
:1008F000394620462DF0DCFF034BE361BDE8F0876D
:10090000D880FF1FDC6A03006469030010B582B061
:100910001BB2BDF810400093019413B20AB201B2A9
:1009200002482AF053FE02B010BD00BFD880FF1F5E
:100930002DE9F04F8BB00546169E9DF85C4007945C
:10094000012E0C461746069309D0B2B21BB2019293
:1009500000930AB23BB201B247482AF037FE159B1A
:100960009E426DD0454B149A9A4269D0E9194B1EAC
:1009700048BF8B1DDA10424B002D03EA05032846C1
:10098000B8BFE81D002BA2EBE00B66DB3C4AFF2062
:100990000A401841C1B2002A089163DB4FF47F413D
:1009A000EB1A41FA02F20493D3B20993069B002B8F
:1009B00046DD002302940593079B002B43D0304B68
:1009C000059A1340002B43DB149ABBF1000FD35C54
:1009D000039328DB089EBDF854A04FF00008D845CB
:1009E00045D0049BBDF9089003EBC807039BBFB239
:1009F0001E400024802502E00134082C0DD0354231
:100A00004FEA5505F8D0391909B253464A461A48F3
:100A100001342AF097FA082CF1D108F10108C345F6
:100A20004FF0FF06DBDA059B01331C4605930FF000
:100A3000F9FF029B01330293069B1A46A242BBD1E7
:100A40000BB0BDE8F08F0E4B029A1340002BBBDABF
:100A5000013B63F007030133B6E7013B63F0070393
:100A6000013393E7013A62F00702013296E7099BEE
:100A7000002BB6D01E40B4E7D880FF1F606403008F
:100A8000070000802DE9F04F8BB0002498461BB280
:100A900081460E4615469DF85C700093019413B292
:100AA0000AB201B26B4808971FFA86FB2CF0A4FB30
:100AB0001FFA89F2A8F102000992511C00B24FF40A
:100AC00082670BF10102AB1E09B212B200901BB299
:100AD00001976048DFF880A109EB050707972AF026
:100AE00075FDF71C012207980292394643460322FE
:100AF00003940194CDF800A0FFF71AFF09F1030950
:100B000001220292032303940194CDF800A04846E9
:100B10002A4606EB0801FFF70BFF089B002B6FD05E
:100B20004FF6FF7A44F28F2310220094049301932E
:100B300003920D23A5F1120239464846CDF808A0CC
:100B4000FFF738FD012143482DF036FC0999414853
:100B50000BF10602083112B209B22DF011FC514618
:100B60003C482DF02FFC14993A482DF0A1FE39484D
:100B70002DF0C4FE0094079CCDF808A048F2104B5D
:100B80000D2344F2082239460392A4F110001A46BC
:100B9000CDF810B0CDF804B0FFF70CFD44F20821F9
:100BA0004FF6082207230391012100910192CDF80D
:100BB00010B0CDF808A0A4F10D001A46B11DFFF742
:100BC00055FC159BCBB1A3F10203B3FA83F35B0988
:100BD00048F2104E44F208274FF6FF740093169B1C
:100BE0000193AA1FA8F1150306F112014846CDF89A
:100BF00010E003970294FFF7DDFC0BB0BDE8F08F27
:100C00000899009144F28F234FF6FF741022394661
:100C10000493019303920D23AA1F48460294FFF701
:100C2000C9FC01210B482DF0C7FB099909480BF1BC
:100C30000602083112B209B22DF0A2FB2146054886
:100C40002DF0C0FB149903482DF032FE01482DF021
:100C500055FEB6E7D880FF1F64A303002DE9F04FCF
:100C600089B08A46129C0693E31D0393139BCDF82B
:100C70001CA00027DDF850B0169E494DDDF854A0A9
:100C8000049004F1FF3905925C1E3946BC4619F800
:100C9000018F14F801EFA5F12003802206E0C1B214
:100CA0001E600433AB424FEA520212D01EEA020F1A
:100CB00001F10100F3D118EA020F0CF1010052D04A
:100CC000C3F800A00433AB425FFA80FC4FEA520243
:100CD000ECD103F12005039B9945D8D1BC45DDF843
:100CE0001CA058D98C4558D20699059D049C2D48C6
:100CF0000BB200930B46B2B2534401929B460FFADB
:100D00008AF22BB221B22AF061FCDA4538DA2946A0
:100D10002144DFF89890CDF80CB00F46A346BB45B0
:100D200026DA214D0AEA0505002D2FDBED005C4691
:100D30000FFA8AF809E02B4459F823309E429BB2FF
:100D400001D02AF0FFF8BC4212D0174B15482340BF
:100D5000002B21B2424604F10104ECDA013B63F0BE
:100D600007030133E7E70137FFB2C3F800B098E7A4
:100D70001AF00F0F07D0039B0AF1010A9A45CED152
:100D800009B0BDE8F08F0FF04DFEF4E7013D65F0CE
:100D900007050135CAE75E46A6E7FCD9159EA3E71D
:100DA0001C27FF1FD880FF1F07000080FC26FF1FA5
:100DB0002DE9F04F87B01478049201909DF84020FF
:100DC00003914FEA530A002C43D1002A3ED0531E10
:100DD000DBB201331FFA80FB0593DFF844910294E4
:100DE0000BF1010301940093BAF1000F25D0019B90
:100DF000039A9F18049B029A3FB203EB0208002655
:100E000018F8015F45487400A4B22B1104EB0B01E4
:100E100009B239F823303A462AF094F8009B3F484B
:100E200005F00F05E118013639F8253009B23A46C8
:100E30002AF088F8F3B29A45E2D8029A019B52440C
:100E40000292059A013393420193CDD107B0BDE8D8
:100E5000F08F012CFAD1D90812FB01F10131002ADF
:100E6000F4D0531E4FF0000BDBB20133A0465D46B9
:100E70005C46CDF800B0DDF810B005930291BAF1F0
:100E8000000F1ED0039B009A13441BB20493029BD5
:100E900000260BEB03071DB91BF8084008F10108F9
:100EA000220617F8019B2AD46400E4B2230614D466
:100EB0000136F3B2640002359A45E4B205F0070545
:100EC000E9D8029A009B52440292059A0133934258
:100ED0000093D4D107B0BDE8F08F019B039A0F486F
:100EE000591C009B09F00F099A180D4B01EB4601A4
:100EF00033F8293009B212B22AF024F8D8E7019A5F
:100F0000064802EB46014FEA2913054A09B232F8B6
:100F10002330049A2AF016F8C6E700BFD880FF1FD6
:100F20007C6A03002DE9F04F8FB015789DF8606062
:100F30009DF86440002D7CD1002C7AD01F4604938C
:100F4000631EDBB20D917108924609914A1E591C2D
:100F5000C7F30733D2B20393C7F303130A91059380
:100F6000511C07F00F03C7F303220C90AB460B9103
:100F7000079508920693CDF800A0099B002B50D04E
:100F8000079B0D9ABDF830900B99DFF8B0809F1841
:100F9000009A13465B4401EB0B0AA9F1020101938D
:100FA000029109F1FF393FB21E46924428E0069AA9
:100FB0000599994208BF1346039AAA422FD0069A70
:100FC0000599A94208BF1546009A1B4838F82330F6
:100FD000B4B2CBEB0401891A029A02EB410109B2C7
:100FE0003A4629F0AFFF019B1348E11A09EB410192
:100FF00009B238F825303A4629F0A4FF564510D0FA
:1010000016F8015F049A2B0905F00F05002ADBD0C2
:10101000039A9A42CBD1039A089BAA42CFD1089D4A
:10102000D2E7099A079B93440A9A013393420793A4
:10103000A3D10FB0BDE8F08FD880FF1F7C6A0300FA
:1010400008B50168044B0548002908BF194600226D
:101050002DF0BCF9013808BDDA6B0400D880FF1F01
:1010600008B50021092022F02FFA00B908BD02229C
:1010700040F6AC510520BDE808402DF0F7BC00BF9C
:1010800008B50021092022F01FFA00B908BD02228C
:1010900040F6B8310520BDE808402DF0E7BC00BFA0
:1010A00008B50021092022F00FFA00B908BD02227C
:1010B0004FF4FA610520BDE808402DF0D7BC00BF11
:1010C00010B500210446092022F0FEF960B1002C81
:1010D00041F204014FF0020208BF4FF47A6105208B
:1010E000BDE810402DF0C2BC10BD00BF10B50021FE
:1010F0000446092022F0E8F960B141F2941141F26E
:101100003013002C08BF194602220520BDE810400C
:101110002DF0ACBC10BD00BF2DE9F04F8BB0804668
:1011200009910B20002192461C4622F0CDF90021A6
:1011300006460C2022F0C8F9002107460D2022F0B7
:10114000C3F9002181460E2022F0BEF9002183461A
:101150000F2022F0B9F9354D354B55F8292053F8B9
:10116000200053F82B1055F8273055F826500190E1
:101170000026009104920393524623460999029552
:1011800040460596FFF76AFD3146102022F09CF993
:10119000012802D00BB0BDE8F08F099BDFF898B0B2
:1011A0004FF0BA092344089335463746CDF81890D6
:1011B00009F14603DBB20793069A089B9342E9DDE7
:1011C000CDF818906B2412E02B466D081F420BD00F
:1011D000A04508EB0A0307DC9C4205DA099B4B4556
:1011E00002DC089B4B4518DC0134EB2C09D0A4F140
:1011F0006B035A07E8D11BF806704025013680239F
:10120000E4E7079B1B0705D009F10109B9F59B7FAE
:10121000CED1BFE70FF006FCF6E700230FFA89F204
:1012200021B2044829F08EFEDEE700BF7C6A03008D
:101230006CA30300D880FF1FF09A03002DE9F04F44
:10124000052397B0013BFDD100210C465548DFF83E
:1012500064B1DFF864A12AF0F5FBA1462546A0465B
:10126000264623462746A2B2D10700F191805208B4
:101270001BF802703A09002B6AD102F007014A48B4
:10128000415C12073AF821805FD4012633462B4493
:10129000E02B65DC05F1080109B21D4609F11A02CF
:1012A000CDF8008012B233463E4829F0E7FFE02D2A
:1012B00071D00023013445F214329442D3D106A8F0
:1012C0003A492DF0F9FC0A2202A801212DF03AFD3D
:1012D00002A906A82DF008FE35492DF00DFE0A22C0
:1012E000044601210AA82DF02DFD0AA920462DF063
:1012F000FBFD2F492DF000FE0A22044600210EA816
:101300002DF020FD0EA920462DF0EEFD014612A87D
:101310002DF0E6FC12AA44F208234FF49D71002040
:10132000FFF774FA12A82DF087FC0EA82DF084FCAC
:101330000AA82DF081FC02A82DF07EFC06A82DF055
:101340007BFC17B0BDE8F08F16010133DBB2B1E7CB
:10135000012BF9D01644F6B233462B44E02B99DD2D
:10136000A9B2C1F1E00309F11A022035083109B22E
:101370001BB212B20B48CDF800802E4429F07EFF3C
:10138000F6B20120814435462EF01CFE082185E787
:1013900007F00F026FE70120002581442EF012FEB6
:1013A0002B4687E7D880FF1F3C6A03002C6A0300A6
:1013B000D8EC0300006B03007C6A03002DE9F04FBA
:1013C00085B0002502900391AB46AA462F462C46D5
:1013D0002B46A946AAB2D1075CD452082F4911F86E
:1013E00002904FEA1912002B31D12D4802F007016B
:1013F0001207415C2B4830F821B025D40124234644
:101400003B44BE2B2BDCBDF80880BDF80C60B9B2A4
:101410001F4606EB0A024144234612B209B2CDF838
:1014200000B0214829F02AFFBE2F03BF00270AF190
:10143000010A3B460023013540F6C2429542C9D11C
:1014400005B0BDE8F08F14010133DBB2F3E7012BE7
:10145000F9D01444E4B223463B44BE2BD3DDBDF89F
:101460000880BDF80C60CDF800B0BBB2423708EB85
:10147000030106EB0A023C44C3F1BE0309B21BB2EE
:1014800012B20948E4B229F0F9FE0AF1010A27462E
:101490000021BEE709F00F02A5E700BF8C9403000E
:1014A000546A03007C6A0300D880FF1F2DE9F04FC7
:1014B000814685B08A46184647491E4617462DF094
:1014C0004DFD10B105B0BDE8F08F05460121434840
:1014D000DFF810812CF070FFBDF83C103F482CF075
:1014E00071FF314668462DF0FBFB00993B4800290F
:1014F00008BF41462A462CF069FF441E68462DF07D
:101500009BFBA74217DB0E9B012B60D0022B56D111
:10151000391B0029ACBF494409F1000109B20FFA97
:101520008AF22E482CF02CFF31462C482DF0C0F9C1
:1015300005B0BDE8F08F2C461CE02DF053FD01787E
:1015400068462DF013FC00992448002908BF414645
:1015500000222CF03BFF834668462DF06DFB0BF11B
:10156000FF33DBB2E918BA1F914203F101030ADA33
:101570001D440134214630462DF034FD03782146C8
:101580003046002BD9D10FFA8AF20FFA89F11348AD
:101590002CF0F6FE002554B1294630462DF022FDF0
:1015A000013501780D482CF0A3FEAC42F4D10122A4
:1015B0000B490A482DF066F905B0BDE8F08F0FFA27
:1015C0008AF20FFA89F105482CF0DAFEACE7391BF4
:1015D00001EBD17149109CE7B4BF0300D880FF1F15
:1015E000386A0300DA6B04002DE9F04FADF51D7D7C
:1015F0000023838005900E46174619460DF276208B
:101600000DF11E0323F8061C23F8041C23F8021C0A
:1016100006339842F6D10021584820F0CDFAA6F1C1
:101620000F02A7F10F0344F28F2912B21BB20492EA
:1016300036B203933FB2CA4648F210484FF01E0B31
:101640001E23039A04994E48CDF80480CDF800B0CB
:1016500029F0BCFF102300933A4605233146484841
:101660002AF0AEFE0121454820F0A6FA0F2425B24B
:101670002B463A4631464248CDF800A02AF024FDD8
:1016800032202EF09FFC2B463A4631463C48CDF89E
:1016900000802AF019FD394820F0B0F9013CA4B2CD
:1016A00008B1052CE3D1354820F0A8F90028C7D0AF
:1016B0000025002000212C460BE0642DC3F3C70059
:1016C00035D032F067FC41EC100B30F0A9FE51EC44
:1016D000100B00222B4B32F011FB32F071FF0FFA8E
:1016E00080FB3A465B4631462548CDF800902AF00B
:1016F000EBFC06AB05EB450003EB40001F4927F070
:1017000033F80A202EF05EFC5B463A4631461C4810
:10171000CDF800802AF0D8FC184820F06FF9013489
:10172000194BE4B2A3FB042301350028C5D1632C77
:1017300084D94FF480633A4631460093104805231C
:101740002AF03EFE002206AB11469CADB3F90040E4
:10175000B3F9020006339D4221440244F6D10B4BFB
:10176000A3FB01010598A3FB02235B094A09028040
:1017700043800DF51D7DBDE8F08F00BF6081FF1F28
:10178000D880FF1F00001840CDCCCCCC1F85EB517A
:101790002DE9F04FA1B003AB089304AB0993DFF838
:1017A0002C9301AB1CAC079348F21041BA480025BA
:1017B00001262AF047F9B94920462DF07DFA234643
:1017C000F0224221284601950096FFF76FFE204641
:1017D0002DF032FAB24920462DF06EFA2346F0225F
:1017E0004A21284601950096FFF760FE20462DF01D
:1017F00023FAAC4920462DF05FFA2346F02232212D
:10180000284601950096FFF751FE20462DF014FA68
:101810000F2211460EA8FFF7E7FE082348F21042F8
:1018200001922946322200939B48F02329F0CEFEF4
:101830009D4920462DF040FA2346F02232212846C9
:1018400001950096FFF732FE20462DF0F5F94FF492
:101850009872E02110A8FFF7C7FE10AB93E80300D1
:10186000089B1860099B19800EAB93E80300079B47
:101870001860079B8D4899800F224FF49877114686
:10188000E023009720F0C8F92946884820F094F911
:10189000874920462DF010FA2346F022642128467D
:1018A00001950096FFF702FE20462DF0C5F981490B
:1018B00020462DF001FA2346F0226C21284601959E
:1018C0000096FFF7F3FD20462DF0B6F97A49204641
:1018D0002DF0F2F92346F022742128460195009656
:1018E000FFF7E4FD20462DF0A7F9744920462DF0BE
:1018F000E3F92346F0227C21284601950096FFF764
:10190000D5FD20462DF098F94FF6FF7344F20822DA
:1019100048F21041049103920293C8220193962148
:10192000642314200096FEF745FE654920462DF0FD
:10193000C3F90D234022FE219C208DE83000FEF7E4
:1019400067FE20462DF078F9D9F800300B93DDF8CA
:101950002C80AA461E27554820F05CF8534912A84F
:1019600020F040F85148BDF948B0BDF94A6020F078
:1019700037F801287AD075D3032834D1BAF1000F93
:1019800000F0D280002D00F0D180ABF116039BB2A5
:10199000C32B28D8A6F198039BB25F2B23D84FF412
:1019A000004300962A46514601933B485B462AF085
:1019B00033FD3546DA460026D9F800300C930C9BEF
:1019C000DFF808B1C8EB0303B3F57A7F0DD2002E20
:1019D000C1D000220121082021F096FD21F0B6FCA3
:1019E00021B0BDE8F08F0026E6E7082348F2104258
:1019F000019200937C22F02300212748013F29F027
:101A0000E5FDFFB22F4918A82DF056F9394614A864
:101A10002DF084F914A918A82DF066FA2A492DF0A2
:101A20006BFA014620462DF05BF900200123F022DD
:101A30007C21019000932346FFF738FD20462DF0CE
:101A4000FBF814A82DF0F8F818A82DF0F5F8DBF83D
:101A500000300D93DDF83480002EBAD1002F7FF4D2
:101A60007AAFA1E60025AA462E46A5E71FFA8BF31A
:101A7000A3F11602C32A2BD8A6F1980292B25F2ACC
:101A800026D832464FF40043594603483546DA46D5
:101A900029F058FA00268FE7D880FF1FECA3030037
:101AA00010A403002CA403004CA403006081FF1FBA
:101AB0006CA4030090A40300B8A40300DCA40300FA
:101AC000F0A40300F4A40300282004009C85FF1F59
:101AD0009C3B352B87D8FE3EB6B20C2E83D81449DA
:101AE000204601262DF0E8F80D234022FE218DE846
:101AF00050009C20FEF78CFD20462DF09DF8002123
:101B00000C4820F059F80A4920462DF0D5F800235A
:101B1000019300940D234022FE219C20FEF778FDC6
:101B200020462DF089F847E7564645E72E4643E71D
:101B3000F0A403006081FF1F08B501210F202EF0E3
:101B400017FA012110202EF013FA012111202EF096
:101B50000FFA00210F202EF0F7F9002110202EF0AF
:101B6000F3F900211120BDE808402EF0EDB900BFC7
:101B700010B500F0010104460F202EF0E5F904F045
:101B8000020110202EF0E0F904F0040111202EF0E3
:101B9000DBF90E20BDE810402DF044BC70B50646C0
:101BA000FFF7E6FF154B05460021985D21F098FCF4
:101BB000134B04460021985D21F092FC2D1B001B65
:101BC00007EE900A07EE105AF8EEE77AB8EEC77AF9
:101BD000B7EE000AC7EE276AF4EEC06AF1EE10FA1B
:101BE00000D470BDF5EEC06ADFED067AF1EE10FAB2
:101BF0008CBFB0EE660AB0EE670A70BD380DFF1FED
:101C0000400DFF1F0000000000B583B00191FFF7F9
:101C1000C5FF019907EE901AF8EEE77AF7EE006A31
:101C200086EEA77A013907EE901A80EE070AF8EEE1
:101C3000E77AB4EE670AF1EE10FA48BFF0EE407AA8
:101C4000F5EEC07AF1EE10FA8BBFFDEEE77A0023D5
:101C5000CDED017A0193019803B05DF804FB00BF5C
:101C600010B50C46FFF79AFFF6EE007AB4EEE70ADD
:101C7000F1EE10FAACBF012000200CB180F00100A1
:101C800010BD00BF0A4B10B4002203F1480401202C
:101C90001A7058709A709A60DA701A710C33A342F5
:101CA0004FF00001F4D1034B19705DF8044B7047FD
:101CB000480DFF1FFC27FF1FFFF7E4BF084900EB9B
:101CC000400080000B1810B4002201240A545C70FC
:101CD0009A70DA701A719A605DF8044B704700BF11
:101CE000480DFF1F2DE9F84347004E4E04463818B3
:101CF00006EB8009884699F8020002F0FBFC0546D5
:101D000099F8020002F012FD0021884218BF4FF03E
:101D1000040E484608BF4FF0020E0B46C2780A4137
:101D2000D20718D54278013A062A14D8DFE802F023
:101D300059694939291F040003F001025B0803EBCC
:101D400043034FEA420C03EBC303624403EB8203F9
:101D50002B4483F804800131CBB29E45DED83C444D
:101D600006EB8404A078BDE8F84302F01BB803F04A
:101D700001035A00134403EBC3032B4483F8188078
:101D8000E9E703F001025B0803EB43034FEA420C6F
:101D900003EBC303624403EB82032B4483F80A8002
:101DA000D9E703F001025B0803EB43034FEA420C5F
:101DB00003EBC303624403EB82032B4483F80980E3
:101DC000C9E703F001025B0803EB43034FEA420C4F
:101DD00003EBC303624403EB82032B4483F80880C4
:101DE000B9E703F001025B0803EB43034FEA420C3F
:101DF00003EBC303624403EB82032B4483F80680A6
:101E0000A9E703F001025B0803EB43034FEA420C2E
:101E100003EBC303624403EB82032B4483F8078084
:101E200099E700BF480DFF1F61B9104B00EB400060
:101E300003EB80007F2281785D390123C9B209203C
:101E400000F002BD00B5094B00EB400003EB800041
:101E500083B0817801235D390193C9B200937F2259
:101E6000092000F01DFD03B05DF804FB480DFF1FC5
:101E700010B5124B00EB400003EB8004E3789B07A6
:101E800002D501B1A2B910BD3AB904F01BFC00287B
:101E9000F9D0BDE8104004F055BA04F013FC002856
:101EA000F1D1E078BDE81040C0F3800004F0CABA78
:101EB00004F008FC0028F4D0EBE700BF480DFF1F3A
:101EC00038B504460D461120002121F0FDFA012805
:101ED00000D038BD04F0F6FB0028FAD0B5B10C4BA9
:101EE00004EB440403EB8404E3789B070AD404F076
:101EF000D1FB044601E004F0E1FA04F0CBFB84429C
:101F0000F9D038BDBDE8384004F0D8BA38BD00BFBC
:101F1000480DFF1F2DE9F0418F4C904D237803EBC6
:101F200043029200A918AA5C82B1012A1ED0022A9B
:101F300029D08B4A013382FB0312A2EBE37202EB3E
:101F40004202A3EB42032370BDE8F081A2F15532B7
:101F5000013302F1004282FB0312A2EBE37202EBB7
:101F60004202A3EB42022270BDE8F0814A78013AB6
:101F700018460A2ADDD8DFE802F0B5B3B3B3B323BD
:101F8000B39E80614500C978184601F00101FFF752
:101F900067FE94F800C00CEB4C0305EB83030028AC
:101FA00014BFFF26002693F801E099680EF1FF3E6A
:101FB0006346BEF1030F1DD8DFE80EF0C0B2A49651
:101FC0000821FFF721FE2378DFF88C81634F03EBB4
:101FD000430205EB8202064691688842A9D05178F7
:101FE0001846FFF77FFE98F8003003EB430207EB3B
:101FF0008207B9688E429CD003EB430205EB820254
:10200000966096E78021FFF7FFFD2378DFF848818F
:10201000524F03EB430205EB820206469168884269
:1020200087D0D078F1B2012200F022FD98F800307C
:1020300003EB430207EB8207B968DBE74FF480311B
:10204000FFF7E2FD2378DFF81081444F03EB4302F2
:1020500005EB8202A0F5004691688E423FF469AF1D
:10206000D0783146012200F015FE98F8003003EBDD
:10207000430207EB8207B968BCE78021FFF7C4FD84
:102080002378DFF8D480354F03EB430205EB82025F
:102090000646916888423FF44CAFD0780123F2B2F3
:1020A0000A2100F015FD98F8003003EB430207EB1E
:1020B0008207B9689EE78021FFF7A6FD2378DFF845
:1020C0009880264F03EB430205EB82020646916897
:1020D00088423FF42EAFD0780123F2B20721E0E727
:1020E00010216EE740216CE78E423FF422AFFF2EB5
:1020F00082D104F06DF9237803EB430205EB8202F1
:10210000916877E7711A024618BF01216046FFF710
:10211000AFFE237803EB430205EB8202916869E787
:102120008E423FF406AF01466046FFF7C9FE2378B2
:1021300003EB430205EB820291685BE78E423FF4BA
:10214000F8AE01466046FFF76FFE237803EB4302CB
:1021500005EB820291684DE7FC27FF1F480DFF1F2A
:10216000ABAAAA2A024B00EB400003EB80007047A9
:10217000480DFF1F044B00EB400013F82000003017
:1021800018BF0120704700BF480DFF1F0E4930B433
:10219000002201F580654FF07E54012001F83C2CAF
:1021A00001F83B2CA1F13C031A715A719A601A7321
:1021B0001C6103F8140F8B42F6D103F14001A942D0
:1021C000ECD130BC704700BFCC0DFF1F0C49820121
:1021D00010B400238C188B543C3263700A442046A0
:1021E00001214FF07E5403714371836003730461D6
:1021F00000F8141F9042F6D15DF8044B704700BF01
:10220000900DFF1F0F289ABF024B03EB8010002098
:10221000704700BF900DFF1F014B8001185C704795
:10222000900DFF1F8001014B19547047900DFF1F47
:10223000024B03EB80104170704700BF900DFF1FF1
:10224000024B03EB80104078704700BF900DFF1FDA
:102250008001044B01EB810100EB810119440879F5
:10226000704700BF900DFF1F8001044B01EB8101FF
:1022700000EB810119444879704700BF900DFF1FA2
:102280008001044B01EB810100EB81011944886856
:10229000704700BF900DFF1F8001044B01EB8101CF
:1022A00000EB81011944087B704700BF900DFF1FB0
:1022B0008001044B01EB810100EB8101194491ED98
:1022C000040A7047900DFF1F8001044B01EB810150
:1022D00000EB81011944087D704700BF900DFF1F7E
:1022E0000A4B30B4002203F580651978D4B201326C
:1022F00011B15978814205D04033AB42F5D1FF206E
:1023000030BC7047204630BC704700BF900DFF1FA7
:1023100001EB81018001034B00EB810119440A713B
:10232000704700BF900DFF1F01EB81018001034B3F
:1023300000EB810119444A71704700BF900DFF1FE7
:1023400001EB81018001034B00EB810119448A609C
:10235000704700BF900DFF1F01EB81018001034B0F
:1023600000EB810119440A73704700BF900DFF1FF5
:1023700007EE902A9FED077A074BF8EEE76A01EB2C
:102380008101C6EE877A800100EB81011944C1ED1D
:10239000047A70470000FE42900DFF1F01EB81019F
:1023A0008001034B00EB810119440A75704700BF9F
:1023B000900DFF1F014B1878704700BFFD27FF1FCE
:1023C000014B1878704700BFFE27FF1F014B1870A4
:1023D000704700BFFD27FF1F014B1870704700BFFB
:1023E000FE27FF1F30B5094D094C2B68226883B0CA
:1023F0000093009B9B1AB3F5FA7F05D30EF006FB02
:102400002B680193019B236003B030BD9C85FF1FA7
:102410001028FF1F0246034B002153F8200043F809
:10242000221070470428FF1F0346024A0021105C57
:10243000D15470470028FF1F064A13780F2B07D886
:1024400010B4591C044C117044F823005DF8044B7F
:10245000704700BFFF27FF1F1428FF1F70B51B4EDA
:102460001B4D337855F82320824222D0FF2B04469F
:1024700003D01046002121F005FB164B134A1878B3
:10248000FF23337068B12B689C421CD0104A002394
:1024900003E052F8041F8C420CD00133DBB28342BC
:1024A000F7D10D490D4A00230B604B601370537038
:1024B00070BD70BDFF2B3370F3D055F823000121A0
:1024C00021F0E0FAEDE700231370F6E79211FF1F09
:1024D0001428FF1FFF27FF1F0428FF1F0028FF1FCE
:1024E000054B1B78834202D80020FFF7B7BF034B90
:1024F00053F82000FFF7B2BFFF27FF1F1428FF1F6C
:1025000070B5FF20FFF7ECFF094E0A490A480B4C53
:102510000B4B0022FF250A704A7002604260327045
:10252000257003F1400143F8042F8B42FBD170BDAD
:10253000FF27FF1F0028FF1F0428FF1F9211FF1F06
:102540001028FF1F2DE9F04F594C81B02DF016FDDA
:102550002368C01A632802D801B0BDE8F08F2DF0BF
:102560000DFD544F544EDFF868A1DFF868912060EC
:102570000025BB46A8461AF8010B36F8024B2DF091
:10258000E9FC40EA440080B2B0F5704F42D026F832
:10259000020C0135042D0BF1040BECD1474D2B78C7
:1025A000002BD9D03B68002293423A603CDD4FF0CB
:1025B0000108434E336803FB08F8B8F1000F46D119
:1025C0007C68002003FB04F47860002CC4D03D4EEE
:1025D0003378FF2BC0D02A789A4284BF3A4A52F807
:1025E000230021F065FA0028B6D0002CD4BF0020CB
:1025F0000120FEF77BFD33782A789A423AD9324A95
:1026000052F8230003685B6B2146012201B0BDE84C
:10261000F04F1847012D26F8028C09D909EB050364
:10262000012103F8021CB4E73ED04FF0FF38C0E7A9
:10263000264B585D2DF08EFCDBF8003000280CBFD7
:102640004FF0FF3101210B44CBF80030A1E7CCBFA4
:1026500001200020FEF734FD1A4B1C78FF2C0CD013
:1026600044442B78E4B2A34210D82046FFF738FF49
:102670003368A5E700231B68FFDE2B78B8F1000F55
:10268000D6BF03F1FF340024E4B2ECE7DFF8389062
:1026900059F8240021F00CFA0028E6D144442B78A4
:1026A000E4B2A342E1D9F3E7054B1B6888E700BF1A
:1026B0000C28FF1F0428FF1F9C11FF1FFF27FF1F6F
:1026C0009411FF1F9211FF1F1428FF1F9011FF1F6D
:1026D0009811FF1F0028FF1F10B5002121202DF0A9
:1026E00047FC002122202DF043FC002123202DF067
:1026F0003FFC002124202DF03BFC002125202DF063
:1027000037FC002126202DF033FC00211C202DF069
:102710002FFC02221E491C202DF0E6F91D4B1E49FC
:102720004FF6FF72002008601A805A809A80DA8083
:10273000FFF708FF23202DF00DFC70B100213120A0
:1027400020F0B0FE154B002814BF4FF0FF320122DD
:10275000BDE810401A60FFF7D3BE26202DF0FAFB2B
:1027600004460028EAD14FF4FA724FF47A7105203A
:102770002CF07CF92146312020F094FE80F00101FC
:10278000C9B22246312020F0BFFE20F0DFFDD5E7A0
:10279000E52300009C11FF1F0C28FF1F9411FF1F51
:1027A0000020FFF75BBE00BF054B064A1B7812787E
:1027B0009A4286BF044A52F823000020704700BFA7
:1027C0009211FF1FFF27FF1F1428FF1F034A044B0E
:1027D00010781B78834298BFFF2070479211FF1F2B
:1027E000FF27FF1F70B50646002401E01F2C0DD007
:1027F000E5B22846012100F025FF0F2C04F1010469
:10280000F4D8284600F0DEFD1F2CF1D103F04AFA7F
:102810003046BDE8704003F0BDBF00BF014B185CFF
:10282000704700BFE028FF1F70B506460024E5B2E0
:102830002846314600F006FF0134284600F0C2FD6C
:10284000102CF4D170BD00BF0E2870B50D461E4689
:102850000DDC0446024668B9104B20469A5C2946B6
:1028600000F09EFE204600F0A3FD8EB970BD0F243F
:102870002246F1E70928EFD101F15D022046D2B2EC
:10288000294600F08DFE204600F092FD002EEDD08E
:1028900029462046BDE8704003F098B8E028FF1FA5
:1028A0002DE9F04F2DED028B83B001929DF8386039
:1028B0009DF83CB0002A00F093800E28C8BF0F2579
:1028C000044688461F46D4BF05462C469DED018A26
:1028D000002B78D1F8EE487A9FED617AF4EEC77A52
:1028E000F1EE10FA66D49FED5A0B2FF089FE2846C0
:1028F000B0EE408AF0EE608A00F03CFD002854D132
:10290000002D00F09780092D00F09D80554B13F8A5
:102910000490284600F01AFD0028284614BFB2464D
:102920004FF0000A00F01CFD00284AD0BBF1000F58
:102930000CBF0026022648A3D3E9002351EC180B54
:1029400031F0B8FC31F084FE564408EE100AF6B2BD
:10295000284600F0EDFC3346F0EE480A4A46414670
:10296000284600F0A7FD404BA600334493ED000A33
:10297000B5EE400AF1EE10FA58D107EE904AF8EEA3
:10298000E77A3A4AF5EE407AF1EE10FA14BF0423E2
:1029900000231344D3ED007AF5EE407AF1EE10FAFD
:1029A0003DD1284600F0FCFC0FBB03B0BDEC028B10
:1029B000BDE8F08F17EE900A31F0FEFA41EC100BF3
:1029C00093E70646B7E703F08FFE002882D003F0B6
:1029D00091FEA8427FF47EAF012003F033FD79E73A
:1029E00003B0BDEC028BBDE8F04FFFF72DBF2846CA
:1029F00000F09EFCDFED1A7A28EE000A414620EE38
:102A0000270A2846FCEEC07ACDED017A9DF8042015
:102A100003B0BDEC028BBDE8F04F02F087BF164457
:102A200096ED000A284600F04BFEBAE7284600F073
:102A300045FEA2E70EF060F903287FF467AF01F0CE
:102A4000FFFF814665E708F15D095FFA89F960E7F4
:102A50000000000000C05F40422E6094726013408E
:102A60000000FE42E028FF1F5828FF1FA028FF1F7C
:102A700030B583B00E280191DDED017A124BB8EE2E
:102A8000E77ADFED127A87EE270AC4BF0F242046CB
:102A900003EB8003D8BF044615462046D3ED007AE9
:102AA000B4EE670AF1EE10FA98BFB0EE670A00F0D4
:102AB00007FE0DB903B030BD0199204603B0BDE853
:102AC000304003F085B800BFA028FF1F0000FE4281
:102AD0000E2870B5D4BF04460F240A2916461D4699
:102AE0003DD006D9792914D07B294BD078292CD018
:102AF00070BD01293FD0072930D11146204600F092
:102B000083FB002DF4D031462046BDE8704002F032
:102B1000E3BF6421204600F077FB2046402100F00F
:102B2000BBFB9FED1D0A204600F0C8FD002DDFD045
:102B30006421204602F0D0FF204600F001FC01464F
:102B40002046BDE8704002F0EDBF2046012100F0B4
:102B500079FD2046BDE8704000F034BC70BD1146E0
:102B6000204600F099FB002DC2D031462046BDE83A
:102B7000704002F0D7BF314620461A46BDE870408B
:102B8000FFF776BF2046002100F05CFD2046BDE83F
:102B9000704000F017BC00BF0000000070B50024BA
:102BA0000023E0B21A4678210134FFF791FF102C80
:102BB000F6D100202EF03EFE38B100202EF03AFE75
:102BC0000028F6D101E02DF087FE2DF071FE0446BD
:102BD0000028F8D10A4B0B4A0B4E0C4D18700146D9
:102BE0001D205C709C70147034702C702DF0ACF94A
:102BF00021461E202DF0A8F9054B1C6070BD00BFBA
:102C0000F428FF1FF028FF1F9C28FF1F5428FF1FD8
:102C10009828FF1F0A2825D00E2870B516460D46A5
:102C2000044615DCF8B9034602467B21FFF750FF46
:102C3000174B1D70AEB12046294602F011FF0EF071
:102C40005BF803280DD12846BDE8704014F014BF8E
:102C500000231A467B210F20FFF73AFF0C4BDD7350
:102C60007EB970BD704700231A467B21FFF730FF05
:102C7000074B1D55002EF4D02946204602F0F0FEE9
:102C800070BD29460F20BDE8704002F0E9BE00BFCC
:102C9000E028FF1F70B582B00E28D4BF04460F2570
:102CA00001914FF012004FF00001D4BF25462C4691
:102CB000164620F009FC07EE900A9FED107A104BA3
:102CC000F8EEE77A03EB8403C7EE276A2846DDEDCA
:102CD000017AF8EEE77A87EEA67AB0EE470A83ED3E
:102CE000007A00F0EBFC0EB902B070BD01992846E5
:102CF00002B0BDE8704002F04BBF00BF000080464C
:102D00005828FF1F70B5FFF749FF0125002602E094
:102D10000135EDB20136F4B200231A46204678217F
:102D2000FFF7D6FE002320461A467921FFF7D0FE92
:102D30000022092E11462046EAD0FFF76BFF002241
:102D400011462046FFF7A6FF002320461A46012120
:102D5000FFF7BEFE102DDBD1BDE870400DF056BE72
:102D6000034B187008B1FFF719BFFFF7CBBF00BFC7
:102D70009D28FF1F08B503F0ABFC00B908BD00207B
:102D8000BDE8084003F05EBB08B503F0A1FC00B944
:102D900008BD0120BDE8084003F054BB30B55C49D4
:102DA0000878A0F1800383B000F00F007F2B44D897
:102DB000DFE803F08A8A8A8A8A8A8A8A8A8A8A8AE1
:102DC0008A8A8A8A92929292929292929292929203
:102DD000929292924545454545454545454545456F
:102DE000454545459F9F9F9F9F9F9F9F9F9F9F9F5B
:102DF0009F9F9F9FA7A7A7A7A7A7A7A7A7A7A7A783
:102E0000A7A7A7A7454545454545454545454545EA
:102E1000454545454C4C4C4C4C4C4C4C4C4C4C4C0E
:102E20004C4C4C4C40435C434343436A6E43777C79
:102E30008143439A374B01221A7003B030BD497861
:102E4000012203B0BDE83040FFF712BE8B784A780C
:102E5000D90101F47E5302F07F011944A1F500511C
:102E6000012203B0BDE83040FFF714BF8D784C78E5
:102E700003F02EFC0028E0D004EB052080B203B064
:102E8000BDE83040FFF7AEBC224B00221A70D4E7F9
:102E900003F01EFC0028D0D003B0BDE8304003F0A2
:102EA0000DBB03B0BDE83040FFF764BF03B0BDE821
:102EB0003040FFF769BF03F00BFC0028BDD003B022
:102EC000BDE8304003F03EBA8A784978012303B068
:102ED000BDE83040FFF7B8BC01238A7849780193F8
:102EE0000093FFF7DDFCA8E703B0BDE83040FFF733
:102EF00009BF8A784978012303B0BDE83040FFF765
:102F0000E7BD4978012203B0BDE83040FFF782BE3B
:102F1000F428FF1FF028FF1F5B4B1B78002B40F0AD
:102F2000A3802DE9F043594C594E83B0994625466C
:102F300000202EF07FFC18B13278564B002A5CD06E
:102F4000534C524D544FA0462E4608E0534A01338D
:102F50001278DBB29A4223704FF0010925D02DF090
:102F6000A7FC002830D094F800902DF0B5FC237811
:102F700005F80900002BE9D1327811065ED4484BE0
:102F800072701A78327002233978002951D1DF2A01
:102F90004DD8C02A5BD2802A4BD303223F492370ED
:102FA0009A420A704FF00109D9D13B78002B58D0D2
:102FB0003378F72B55D0002388F800304FF0010903
:102FC0002DF076FC0028CED1B9F1000F4DD1354C53
:102FD00023687BB1344A12680192019A934209D264
:102FE00049461D202CF0B0FF49461E202CF0ACFFB6
:102FF000C4F8009003B0BDE8F0831B782B49237020
:1030000003F0F002F02A03D00A78013A13432B7040
:10301000214B2749274A1B78097812786170A270E2
:103020004BB12378F72B06D04FF0010980E7EF2A48
:10303000B3D90122B2E7FFF7B1FEF5E702F11001C3
:10304000C9B2072905D816490B7001239CE7022253
:10305000A4E782F080036F2B9CBF114B1A700123F1
:1030600092E7FFF79BFEA6E7704701211D202CF099
:103070006BFF0D4B0B4A1B680093009B32331360B0
:1030800003B0BDE8F08300BF9D28FF1FF428FF1F99
:103090009C28FF1F0C88FF1FF028FF1FA411FF1F93
:1030A0005428FF1F9828FF1F9C85FF1F1388FF1FB0
:1030B0001088FF1F1188FF1F10B4084C084B24789C
:1030C000597018709A7024B1F72802D05DF8044B3B
:1030D00070475DF8044BFFF761BE00BFF028FF1F8B
:1030E000F428FF1F00B5F83883B004280BD8DFE8B8
:1030F00000F0280A032018004FF60F202EF036FBB0
:10310000FA202DF017FB01211E202CF01DFF114B82
:10311000114A1B680193019B0133136003B05DF8F2
:1031200004FB4FF60F402EF021FBFC202DF002FB9C
:10313000E9E74FF60F302EF019FBFB202DF0FAFADD
:10314000E1E74FF60F002EF011FBF8202DF0F2FA18
:10315000D9E700BF9C85FF1F9828FF1F70B501218C
:103160001D202CF005FF01211E202CF001FF002165
:103170001D202CF0E9FE00211E202CF0E5FE084E5B
:10318000084D094A09480023012447F612213370EB
:103190002B7014702BF0FEFABDE87040FFF7B2BD43
:1031A0009C28FF1FF028FF1FA411FF1F301AFF1FCC
:1031B000F0B500230D4E0E4D0E4C0F480F49DFF8B1
:1031C00044C01A464FF0640E40270133102B06F816
:1031D00001EF45F804CB04F8017F00F8012F01F856
:1031E000012FF2D1064BFF221A70F0BD0B29FF1FF1
:1031F0002C29FF1FF728FF1F1B29FF1F6B29FF1F0B
:103200000829FF1FCDCC4C3F38B504460D46D1B13F
:1032100007EE901A9FED1C7AF8EE677AF4EEC77A03
:10322000F1EE10FA1FD49FED140B2FF0E9F914A35F
:10323000D3E9002351EC100B31F03CF831F008FADF
:1032400007EE900A01E0DFED117A114A114B155596
:1032500003EB84032046C3ED007AB0EE670ABDE8B5
:10326000384000F059BF17EE900A30F0A5FE41EC4F
:10327000100BDAE7AFF300800000000000C05F40F1
:10328000422E6094726013400000FE420000000075
:103290000C29FF1F2C29FF1F30B4094D2A5C8A42DC
:1032A0000CD02F290B4694BF002201224F292B540A
:1032B0008CBF0021012130BC00F03EBB30BC704708
:1032C000F828FF1F034B195401B97047012100F082
:1032D000B9B900BF1C29FF1FF8B5104E104D307052
:1032E0000024034627460FE0834214BF0123002336
:1032F0004FF001012B7001D000F0A4F90134102C23
:1033000005F1010509D03378FF2BE0B2ECD101348F
:10331000102C2F7005F10105F5D1F8BD0829FF1F0C
:103320001C29FF1F014B185C704700BF0C29FF1FB1
:10333000024B03EB800090ED000A70472C29FF1F21
:10334000014B185C704700BFF828FF1F034B185C47
:103350004F288CBF00200120704700BFF828FF1FB6
:10336000034B185C2F2894BF00200120704700BF3A
:10337000F828FF1F014B185C704700BF1C29FF1F76
:10338000034B1B78181AB0FA80F04009704700BF51
:103390000829FF1F014B1878704700BF0829FF1F3D
:1033A000024A135C01331354704700BF6C29FF1F9E
:1033B000034A135C013B23EAE3731354704700BFD5
:1033C0006C29FF1F014B00221A5470476C29FF1F04
:1033D000014B185C704700BF6C29FF1F054B185C40
:1033E0004F2804D82F2894BF0020012070470220C6
:1033F000704700BFF828FF1F0A4B0B4930B400226A
:10340000002503F5207403201A809A705D601872FD
:10341000DA601033A34221F8042C41F8082BF3D1D1
:1034200030BC7047A811FF1F8029FF1FF0B51E4B4D
:103430001E4C1B6883B004F5A0750193019E002704
:1034400002E00834AC420ED034F8040C0028F8D066
:103450002368B342F5D8002100F066F9083424F857
:103460000C7CAC42F0D1124C002704F5207502E030
:103470001034AC4215D034F80C0C0028F8D0236876
:10348000B342F5D814F8042C54ED020A14F80A1CBF
:10349000B7EE000A00F030FF103424F81C7CAC4278
:1034A000E9D103B0F0BD00BF9C85FF1F8029FF1F3D
:1034B000B411FF1F2DE9F04FC0022DED028B1FFA52
:1034C00080F8481C1446404483B01A4680B28946AE
:1034D0002146B0EE408AF0EE608A00F00DFF2046F3
:1034E000FEF7FEFEFEF78EFE002843D02A4B2B4E41
:1034F0001B680193DDF804B0054608F10108B246E7
:1035000001272B798BB3D5ED047AF5EEC07AF1EE75
:1035100010FA2ADD2B7D68EE280A012B60EEA70A3F
:1035200033D94FF0020E7A022C7BAB68697902F432
:10353000C062424409EB040052FA80F080B2F3B159
:10354000002301E0282B10D01C010133325B002A3C
:10355000F8D10AEB04032AF80400997083F808E014
:10356000AA68C3ED010A5A44DA600137042F05F155
:103570001405C6D103B0BDEC028BBDE8F08F7246D6
:10358000B0EE480A00F0B8FEEFE7002B0CBF4FF09A
:10359000010E4FF0030EC6E79C85FF1FA811FF1F09
:1035A0002DE9F04FC0021FFA80F8481C404483B058
:1035B000144680B28946002100F0B6F82046FEF796
:1035C0008FFEFEF71FFE90B31C4B1D4D1B68019331
:1035D000DDF804B0044608F10108AA460127237962
:1035E00003B3D4ED047AF5EEC07AF1EE10FA19DDEA
:1035F0007B02207BA16803F4C0634344484453FA30
:1036000080F080B2B9B1002302E00133282B11D041
:1036100035F83320DE00002AF7D1564459442AF801
:10362000330071600137042F04F11404D7D103B0C3
:10363000BDE8F08F002100F077F8F3E79C85FF1FCD
:103640007C29FF1F2DE9F84F82468946DFF8688004
:10365000184D00F089FB00244FEACA2AC3462746CA
:10366000264638F81430610003F478424BB15245D5
:1036700007D13A010BEB02034BF802605E609E60DB
:10368000DE6035F8043C03F478424BB1924507D133
:1036900038F80100494600F047F825F8046C2E6020
:1036A0000834B4F5A07F07F1010705F10805D8D16A
:1036B000BDE8F88F8029FF1FA811FF1F00F056BA40
:1036C00000F06CBA00F07F000138C0B2704700BF54
:1036D00030B100F47840B0EBC12F0CBF01200020C6
:1036E000704700BFF0B500240C4D0D4E83B0274647
:1036F000AB69E1B253B132680192019A0948934231
:103700004FF0000202D823F051FFAF610134242CA6
:1037100005F11C05ECD103B0F0BD00BFBC2AFF1FB2
:103720009C85FF1FD081FF1F2DE9F04F564C85B0BF
:10373000002681468B4604F1180504F57C7806E0E6
:103740001C34A04506F1010605F11C0542D035F8F0
:10375000183C4B45F7B2F3D1BBF1000F3DD000222E
:1037600039464A4823F0E2FE01228246394647485C
:1037700023F0DCFE0F23019000223946434823F05A
:10378000DFFE0F2301223946404823F0D9FE0022F4
:1037900039463E4823F04EFF002239463B4823F08D
:1037A00005FF534600223946384823F0C9FE019BE5
:1037B00036483946012223F0C3FE0023A3611C349E
:1037C0004FF00003A04525F8183C06F1010605F16D
:1037D0001C05BCD105B0BDE8F08F5A4639462B48D0
:1037E00023F028FF5A463946284823F039FE50BBBB
:1037F00001223946254823F033FE4FF00F0AA0B1CD
:1038000001223946214823F001FE3E2830D9BAF181
:10381000000F36D145F2F05242FA0AF31C4A126800
:103820000392039A1344A361C9E750460AF1FF3A91
:1038300045F2F0530028F1D001388245EADB45F229
:10384000F0530341EAE75A463946104823F0DEFDBB
:103850003E28CDD85A4639460C4823F067FE01224F
:1038600082463946094823F0FBFD0028CFD0C7E740
:1038700039460122054823F059FEBAF1000FD7D08E
:10388000D4E70F20D2E700BFBC2AFF1FD081FF1F63
:103890009C85FF1F30B52DED028B044683B0084692
:1038A000F0EE408A00F026FF837C9FED218AC3F171
:1038B0003F0307EE903AF8EEE77A214687EE887AE2
:1038C000012205461B4868EEC77AB0EE487AA7EE9B
:1038D000887AFCEEC77ACDED017A9DF8043023F0AA
:1038E0009FFD2146134823F0D9FE012803D003B0E1
:1038F000BDEC028B30BDAB790E48C3F13F0307EE40
:10390000903AF8EEE77A214687EE887A002268EE50
:10391000C78AA8EE888AFCEEC87ACDED017A9DF8B8
:10392000043003B0BDEC028BBDE8304023F078BD1D
:1039300000007C42D081FF1F134B1B78022B21D04B
:103940002DE9F0470024924689460746DFF840807B
:10395000254602E0B4F57C7F12D038F804003946E1
:10396000FFF7B6FEEEB21C3401350028F2D0314626
:1039700053464A46054824F0ABF9B4F57C7FECD1B8
:10398000BDE8F087704700BFAC2EFF1FD081FF1F3E
:10399000BC2AFF1F2DE9F04F2DED028B6B4B9FEDE5
:1039A0006C7A1B68DFF8B0A16A4CDFF8BCB185B057
:1039B00000250393DDED038AF8EE687A67EE878AC7
:1039C00005E00135242D04F11C0400F0A38034F837
:1039D000103C5FFA85F9002BF3D02379002BF0D14E
:1039E00014F80C0C00F086FE867E14F90C3C7F2E39
:1039F000C8BFA6F58076002BC0F2918034F8100C79
:103A0000FFF760FE30448BFB0036C317C3EB66063E
:103A100006EB4606A0EB86060236F6B214ED017AF6
:103A20005AF82670B5EEC07AF1EE10FA0FFA87F860
:103A300000F1818014DDB31C474A07EE908A52F8EA
:103A40002330F8EEE76ADB1B07EE903AF8EE677A70
:103A5000E7EE276AFDEEE67ACDED007ABDF900804B
:103A600094ED008AB5EEC08AF1EE10FA40DD18EE52
:103A7000900A30F0A1FA013641EC100B2EF070FCE8
:103A80005AF82630DF1B07EE907AF8EE677A8DED54
:103A9000000B67EE887A17EE900A30F08DFA9DEDF4
:103AA000000B06460F46002251EC100B2B4B30F05A
:103AB000D7FA0022294B30F021F902460B460020AC
:103AC000274930F019F902460B463046394630F0A6
:103AD000C7FA064640460F4630F05CFA02460B46EF
:103AE0003046394630F00AF930F06AFD0FFA80F8B6
:103AF00049461C4823F044FD80453FF462AF4246EE
:103B000049461848013523F051FD242D04F11C04C9
:103B10007FF45DAF05B0BDEC028BBDE8F08F8BFB91
:103B20000632F317C3EB620303EB4303A6EB8306F2
:103B30000236F6B272E7B31E074A07EE908A52F8D1
:103B40002330F8EEE76AFB1A7EE700BF9C85FF1F73
:103B5000F6AD003DCC2AFF1F00A503000000E03FAA
:103B60000000F03FD081FF1FABAAAA2A70B50A4C13
:103B70002DED028B0646B0EE408A04F57C75314689
:103B80002088FFF7A5FD08B184ED038A1C34AC4200
:103B9000F5D1BDEC028B70BDBC2AFF1F70B50A4C7D
:103BA0002DED028B0646B0EE408A04F57C75314659
:103BB0002088FFF78DFD08B184ED048A1C34AC42E7
:103BC000F5D1BDEC028B70BDBC2AFF1F2DE9F04F73
:103BD000634B83B0C0EBC0070190884603EB8707B7
:103BE000002402E00134192C2BD0E0B2FEF7BAFA1F
:103BF0000578012D0646F5D182783B799A42F1D1BC
:103C0000012D00F0A580B8F1FF0F15D0C2464FF08E
:103C100004097378013B062B0ED8DFE803F05160EE
:103C2000423324041500F37819EA030F04D05146F7
:103C3000327A4C4823F018FD022DD3D00135EDB275
:103C4000DEE703B0BDE8F08F4FF0000BF17809FA22
:103C50000BF319425FFA8BF20BF1010B4ED1BBF162
:103C6000020FE9D0F2E74FF0000BF17809FA0BF3FD
:103C700019425FFA8BF20BF1010B45D1BBF1020F38
:103C8000DAD0F2E74FF0000BF17809FA0BF31942A2
:103C90005FFA8BF20BF1010B48D1BBF1020FCBD0D5
:103CA000F2E74FF0000BF17809FA0BF319425FFAD3
:103CB0008BF20BF1010B33D1BBF1020FBCD0F2E759
:103CC0004FF0000BF17809FA0BF319425FFA8BF20F
:103CD0000BF1010B33D1BBF1020FADD0F2E74FF086
:103CE000000BF17809FA0BF319425FFA8BF20BF132
:103CF000010B0FD1BBF1020F9ED0F2E7337A1948C6
:103D0000514623F063FBAAE7337A1648514623F065
:103D100017FCB3E7337A1348514623F0ABFBE9E7CE
:103D2000337A1048514623F0C3FBC5E7B3680D480A
:103D3000C3F10F03DBB2514623F0DAFBADE7B36802
:103D40000848C3F13F03DBB2514623F069FBC2E7E9
:103D5000019BFF2B3FF472AF9A46A94659E700BF7B
:103D6000BC2AFF1FD081FF1F2DE9F0410C4D0646F4
:103D700088462F46002403E01C34B4F57C7F0DD028
:103D80003146285BFFF7A4FC0028F5D0385B41469C
:103D90001C34FFF7C9FCB4F57C7FF1D1BDE8F0819C
:103DA000BC2AFF1F0A4B10B403F57C71FF2404E00A
:103DB000FF2805D01C338B4206D01A798242F7D1F6
:103DC0001C711C338B42F8D15DF8044B704700BF67
:103DD000BC2AFF1FF8B5174F174B3870002403F5A6
:103DE0007C760022FF251A805A801D719C60DC6061
:103DF0001C611A759A611C33B342F4D1A0F102011F
:103E0000B1FA81F149090D4823F0C0FE0B4824F0B6
:103E100011F90121094823F061FC0121074823F031
:103E200047FC39780548023918BF0121BDE8F84040
:103E300024F0E6B9AC2EFF1FBC2AFF1FD081FF1F64
:103E40002DE9F04F5C4B1F78012F87B068D0022F0F
:103E50000CBF4FF0090E4FF00C0E4FF6FF764FF0EF
:103E6000FF080022554DDFF8609103969346B24655
:103E7000B446CDF81480CDF80480CDF808800090C9
:103E80000DE01C795B88200622D4B34202F10102C6
:103E900038BF1E46D3B238BF88469E4528D9022F68
:103EA0000ABF474B12F80910D15CC1EBC10405EB06
:103EB000840335F82440002CE3D11C790098844217
:103EC0000BD05B889C45DED920069C460191DCD551
:103ED00053453CBF9A460591D7E75888039B049009
:103EE0000BF1010B98425FFA8BFB0BD30346E9E71A
:103EF000029BFF2B17D0BBF1010F07D9029807B027
:103F0000BDE8F08F049B03930291DBE7019A0299CD
:103F10001346FF2A08BF0B46184607B0BDE8F08FCE
:103F20004FF0060E99E7019BFF2B03D0019807B0D5
:103F3000BDE8F08F059CFF2C28D1022F2DD0002149
:103F4000DFF888C0059C4FEA4E0E0A460E464FF633
:103F5000FF7901E01CF80210C1EBC103501C35F8D9
:103F6000237005EB83032FB95B884B4502D21646BD
:103F700099460C46C2B29645ECDCFF2C0DD031467A
:103F8000104824F0BBF978B92046B8E70D48002264
:103F9000214623F04FFB2046B1E70A480022414664
:103FA00023F048FB4046AAE706483146002223F0AA
:103FB000FDFF2046A3E700BFAC2EFF1FBC2AFF1F5A
:103FC00070A50300D081FF1F40A5030094A5030046
:103FD00070B52DED048B044682B00846B0EE409AD1
:103FE00000F088FB90F82D309FED498AC3F13F0324
:103FF00007EE903AF8EEE77A2146C7EE888A01226A
:104000000646444824F0DCF8012201464148F0EE1F
:10401000487A68EE898AE8EEC87AFCEEE77ACDED58
:10402000017A9DF8043023F0FBF92146394823F04A
:104030009FFE02285FD00328054627D0012803D021
:1040400002B0BDEC048B70BDB37C3248C3F13F03BA
:1040500007EE903AF8EEE77A214687EE887A00225A
:1040600027EE099A24F0ACF8A9EE488A01462A46C0
:10407000FCEEC87A2748CDED017A9DF8043002B0F5
:10408000BDEC048BBDE8704023F0CAB9B379214878
:10409000C3F13F0307EE903AF8EEE77A0022C7EE4D
:1040A000888A214624F08CF8002201461948F0EE57
:1040B000487A68EE898AE8EEC87AFCEEE77ACDEDB8
:1040C000017A9DF8043023F0ABF996F821301148BD
:1040D000C3F13F0307EE903AF8EEE77A214687EE08
:1040E000887A012227EE099A24F06AF8A9EE488A14
:1040F00001460022BCE7B3790648C3F13F0307EE4F
:10410000903AF8EEE77A214687EE887A0022E9E7CE
:1041100000007C42D081FF1F2DE9F8431C4CDFF8E2
:1041200074902DED028B8046B0EE408A04F57C77CA
:1041300000250DE094ED020A217919F8050028EE1A
:10414000000AFFF745FF1C34BC4205F101051BD0F6
:1041500041462088EEB2FFF7BBFA0028F3D0237D5A
:10416000002BF0D1207900F0E1FA0028E2D194EDA3
:10417000020A2179304628EE000A1C34FFF78AFB38
:10418000BC4205F10105E3D1BDEC028BBDE8F8832B
:10419000BC2AFF1F4CA503002DE9F04F524B1B78A2
:1041A00089B0012B029000F08180022B4FD04FF09C
:1041B0000C0900254FF6FF784FF0FF0A2B460695B5
:1041C0002F46C346CDF80480CDF81C80CDF814A04E
:1041D000CDF810A0CDF80CA04448454C03210FE0C9
:1041E000127912062ED4984505F1010588BFBA460A
:1041F000EFB288BF9846B94539D98378C178023083
:10420000C3EBC303C1EBC10104EB830204EB8106E2
:10421000B2F802C034F823E07388634528BF6346D0
:10422000BEF1000FDCD134F8211012790029D8D169
:1042300002998A422CD001999942D2D9120601934F
:104240000497D0D59B4584BF9B460597CBE7FF23BA
:10425000039300220399274823F0B2FF002201466E
:10426000244823F0E7F9039809B0BDE8F08F039BD9
:10427000FF2B1ED0069B012BF5D8049A03991346F9
:10428000FF2A08BF0B460393039809B0BDE8F08FDF
:104290003179029EB142CED106990131C9B206915F
:1042A00007999942C7D907930397C4E74FF00609C6
:1042B0007FE7049BFF2B05D0049B0393039809B071
:1042C000BDE8F08F059CFF2C0BD021460022094849
:1042D00023F076FF002201460648039423F0AAF952
:1042E000C1E7CDF80CA0B4E7AC2EFF1F94A50300E6
:1042F000BC2AFF1FD081FF1F2DE9F04F2DED028B4F
:1043000006469FB008460D46F0EE408AB0EE608A41
:10431000924600F001FA002800F0B9809B4B1B7810
:10432000022B05D0284600F001FA002840F0B480A6
:1043300010AB184629460F9300F0E4F928469DF883
:104340005AB0934FDFF85882FFF77AFD0446FF23F7
:10435000214690480D934FF0000923F061F90028A1
:1043600040F0CC808C4B1B5D0E93FF2B0AD019467E
:10437000884823F0C3FF484504D04A460E99854833
:1043800023F014FEB9F1000F00F0C1804FEAC40918
:10439000C4EB090307EB83037D4A1B79AB4200F0B2
:1043A000DE808DF85AB00DF1480CBCE80F00EE46E7
:1043B000AEE80F00BCE80F00AEE80F009CE80F006D
:1043C000AEE80700AEF800300F9B0E997148B7EECB
:1043D000000A0CCB23F00EFC0E98294628EE280A82
:1043E000FFF7F6FDCAF340030AF001020D99694890
:1043F00023F06EFCC4EB09094FEA890907EB0903B6
:10440000B8F800205A80002100221D7183ED028A35
:10441000D96019611A759A612B0627F8096005D4CD
:1044200006F07F06013E5E445FFA86FBBBF1760F25
:104430006ADCBBF1180F00F39C8000260125534B6A
:104440001B78022B07D0CAF340030AF00102214671
:10445000504823F03DFC2A4621464E4823F0C6F83A
:1044600031464C4822F04EFE21460246494823F090
:104470009DF80D992046FFF7A9FB214601224548EA
:1044800023F0D8F8B8F800300133A8F800301FB096
:10449000BDEC028BBDE8F08F10AB184629460F9398
:1044A00000F030F928469DF85AB0394FDFF8F08017
:1044B000FFF772FE394BB8F800E000B203EB4002A0
:1044C00013F8104053780D93C3EBC3029200BB184E
:1044D0000021BE524FF001090022D96019611D71FF
:1044E00083ED028AA3F802E09A6183F814902146D2
:1044F000284823F095F800283FF434AF00222146E5
:10450000244823F097F82DE70B26082597E74FEA74
:10451000C409C4EB090307EB83031B79AB4217D033
:104520008DF85AB00DF1480CBCE80F00EE46AEE82D
:104530000F00DCF800302EF8023B1B0C8EF8003028
:104540000F9B14480CCBB7EE000A214622F070FEF8
:1045500028EE280A29462046FFF79CF94AE70D9BDA
:10456000C3EBC30302EB83021379AB427FF419AFB1
:1045700032E70C26ABF11805BBFBF6F395FBF6F51D
:1045800006FB13B60135EDB2F6B258E7AC2EFF1FAD
:10459000BC2AFF1FD081FF1F4CA5030094A5030078
:1045A0002814FF1F08B52DED028BDFED468A9FED25
:1045B000468AB0EE680A0322F7EE000A602148F24C
:1045C0003000FFF799FEB0EE480A0322F7EE000A2A
:1045D000702148F63000FFF78FFE32202BF0F2FCFE
:1045E000B0EE680A0322F7EE000A602148F23500B7
:1045F000FFF782FEB0EE480A0322F7EE000A7021B0
:1046000048F63500FFF778FE32202BF0DBFCB0EEE9
:10461000680A0322F7EE000A602148F23900FFF72A
:104620006BFEB0EE480A0322F7EE000A702148F64E
:104630003900FFF761FE50202BF0C4FCB0EE680A91
:104640000322F7EE000A602148F23C00FFF754FE17
:10465000B0EE480A0322F7EE000A702148F63C004B
:10466000FFF74AFE4FF4FA702BF0ACFC002148F241
:104670003000FFF759F8002148F23500FFF754F8F1
:10468000002148F23900FFF74FF8002148F23C00C2
:10469000FFF74AF8002148F63000FFF745F80021FF
:1046A00048F63500FFF740F8002148F63900FFF7DB
:1046B0003BF8BDEC028B002148F63C00BDE8084009
:1046C000FFF732B83333333FCDCC4C3F84B070B5B5
:1046D000074E05AC362584E80E0005FB0060214638
:1046E0002A462AF0F3FFBDE8704004B0704700BFCF
:1046F000B02EFF1F024B362202FB0030704700BF76
:10470000B02EFF1F08B5034B362202FB01312AF001
:10471000DDFF08BDB02EFF1F034A362303FB002038
:1047200090F83500C0097047B02EFF1F044A3623A9
:1047300003FB002090F8350000F00100704700BF37
:10474000B02EFF1F054A362303FB002090F83530BA
:1047500063F07F0380F83530704700BFB02EFF1F35
:10476000084B362202FB003090F8353021B923F097
:10477000010380F83530704743F0010380F835308D
:10478000704700BFB02EFF1F2DE9F84F4FEA001A07
:1047900089460AF110075446012607E02AF022FC58
:1047A000202305460134A7422B7019D02146134817
:1047B000002EF3D0CAEB0408414648462AF012FC0A
:1047C00090F800B00D482146BBF1000F0AD12AF045
:1047D00009FC013405462023A7425E462B70E5D133
:1047E000BDE8F88F214605482AF0FCFB4146054606
:1047F00048462AF0F7FB0378D4E700BFAC53FF1F0D
:1048000070B5124C124992B0362606FB004405469C
:10481000684623F0C9F93246694620462AF056FF19
:104820000123002284F8352023712374E37784F870
:104830002B300EA807492AF03FFA0EA92846FFF7A9
:10484000A3FF0EA82AF0F8F912B070BDB02EFF1F1A
:10485000D081FF1FB4BF03002DE9F04F97B060B9BE
:104860000446E0B20134FFF7CBFFAF2CF9D1FF20B3
:1048700017B0BDE8F04FFFF795BA00212E201EF0CB
:1048800023FE02284B4F6AD000212F201EF01CFE71
:1048900000F0020000F0FF04002860D1DFF8309142
:1048A000454A3D466E464FF0360A01E059F8042F5E
:1048B0004249012330460AFB047823F081F9013490
:1048C0004046362231462AF001FF8123802C85F8AC
:1048D000353005F13605E9D10DF13C08DFF8F490EB
:1048E000374A0024802501E059F8042F3349012379
:1048F000404622F033FC362303FB057A2F4930462D
:1049000023F052F907EB040B3622314650462AF0C9
:10491000DDFE1B2241460BF5D8502AF0D7FE363477
:104920000BF5D95340F6EA128021944205F10105B6
:104930005975D9D1234E4125002401E016F8015FB5
:10494000214821462AF04EFB0134B4F52F6F057043
:10495000F4D1FF2017B0BDE8F04FFFF723BADFF81E
:1049600078901A4A3D4600240DF13C086E464FF0FF
:10497000360A01E059F8042F10490123404622F07D
:10498000EDFB0AFB047B0D49304623F00DF936227E
:10499000314658462AF09AFE28461B2241462AF004
:1049A00095FE013480239C4285F8353005F13605AB
:1049B000E0D193E7B02EFF1F94D00300D081FF1FFA
:1049C00000CE0300ACA50300AC53FF1F64D003006E
:1049D00038D2030064B30300D0C203002DE9F041D4
:1049E0000746884610260024214613482AF0FAFA82
:1049F00006FB0841054611482AF0F4FA0134037811
:104A00002B70102CF0D10F2400E0D4B221460A48BC
:104A10002AF0E8FA0378621E002BF6D0611C0648E3
:104A20002AF0E0FA00230370034938462AF058F9C7
:104A30003846BDE8F08100BF9C53FF1FAC53FF1FF9
:104A4000014B1878704700BF9A53FF1F014B187035
:104A5000704700BF9A53FF1F074B084A01E093427B
:104A600008D093F8350010F0010003F13603F6D0BA
:104A700001207047704700BFB02EFF1F9A53FF1FE1
:104A8000F8B50C4F0C4E0D4D0D4C0E4938462AF022
:104A900013F93246294638462DF0CCFB20460A4908
:104AA0002AF00AF9324629462046BDE8F8402DF0A2
:104AB000C1BB00BFAC53FF1F1C0DFF1F39EC020030
:104AC0009C53FF1FB0B40300A4BF030038B5054CCE
:104AD000A4F580552046103C2AF0AEF8AC42F9D13E
:104AE00038BD00BF0864FF1F2DE9F04F9BB0814621
:104AF0000D4612A8BD492AF0DFF812A948462AF04F
:104B00004BFA044612A82AF097F8002C00F08B808C
:104B1000B64948462AF022FA58B9D9F80010B44CE0
:104B2000B448002908BF214624F0E6F80390002885
:104B300050D0D9F80020AE4BAE49DFF8BC821AAE97
:104B4000002A08BF1A4612A8012324F061F816F8BB
:104B5000141D9DF84C20149B88F80420C8F80830D8
:104B600088F80C10324608F10D0308F11A0712F804
:104B7000011F03F8011BBB429F4CF8D1199BE36155
:104B8000204623F0ABFE0390002851D19B4A984B5E
:104B900012689849002A08BF1A4612A8012324F077
:104BA00037F89DF84C10149A9DF8543088F804108A
:104BB0000D34C8F8082088F80C3016F8013F04F8C6
:104BC000013BBC428C4BF8D1199A0398DA611BB0B7
:104BD000BDE8F08F894B87491A68DFF81C8212A85C
:104BE000002A08BF2246012324F012F81AAA149BB7
:104BF0009DF84C1012F8140DC8F8083088F80C0015
:104C000088F8041008F10D0308F11A0712F8011FC3
:104C100003F8011BBB427849F8D1199B0398CB617B
:104C20001BB0BDE8F08F2F2148462AF039F96FE715
:104C300049467248DFF8D881DFF8CC91DFF8CCA183
:104C40002AF0CAF800276E4BC8F80070394606A84B
:104C50001F602AF031F8204624F0D2F83B46019636
:104C600009F11A07CB461E460122634912A824F017
:104C70006DF89DF854209DF84C00149989F80C208B
:104C8000604B019A89F80400C9F8081012F8011F56
:104C900003F8011BBB42F9D1199B5B48CBF81C30D0
:104CA00023F048FE002800F0B580574823F014FE9A
:104CB000014606A82AF0A0F8534823F00FFE044648
:104CC00000287FD1AB68002B70D02E2106A82AF0D7
:104CD000F3F906A9421C0AA82AF046FAAB686BB39E
:104CE000224607E00EA829F0A7FFAB68E4B29C4279
:104CF000224623D203342346294612A82AF010FA6A
:104D000012A82AF049FA01460EA829F0E9FF12A8D4
:104D100029F092FF0EA90AA82AF012F90028E1D082
:104D20000AEB061006A92AF057F8354B344A1B68DF
:104D30000EA801330136136029F07EFF0AA829F07E
:104D40007BFF314823F0E8FDFE2E8DDD0296D8F87A
:104D50000030002B40F313822C4DDDF808A0002713
:104D6000A9463E463C4609E001345445374609F120
:104D7000100952D0D8F800309E4250DA002148463F
:104D80002AF030F990F90030002BEDDAA74205EB5C
:104D90000717C0F2E781384600212AF023F903788B
:104DA000013603F07F03F6B20370DDE70AEB06106D
:104DB00006A92AF011F8124B114A1B68013301367B
:104DC0001360BEE70AEB061406A920462AF004F891
:104DD000204600212AF006F90378803B0370D8F8BA
:104DE000003001330136C8F80030AAE798D4030038
:104DF000DA6B0400EC82FF1FC053FF1FE453FF1F58
:104E0000BC53FF1F0554FF1FF853FF1F1854FF1F0B
:104E1000F453FF1F0296002E99D1D8F80030002BD2
:104E200034DDCD4D00232E461C4699461F4606E034
:104E30000137D8F80030FFB29F423C4679DA05EBE3
:104E40000414204600212AF0CDF80378303B092BCA
:104E5000EED8B945ECD206EB091A514606A829F05E
:104E6000BBFF2146504629F0B7FF09F1010906A909
:104E7000204629F0B1FF5FFA89F9D9E7019A9A1A19
:104E80000137FFB297423E46C0F2BA80B34B1B686F
:104E9000002B47DDB04DB24F4FF0000A2E4654466E
:104EA000D14609E0AD4B09F101091B685FFA89F9A8
:104EB00099454C4680F2CD80D8F80000204405EB9F
:104EC000001000212AF08EF80378303B092BE9D836
:104ED000D145E7D93B680AEB030106EB011106A8AF
:104EE00029F07AFF3B680AEB0300191906EB011160
:104EF00006EB001029F070FF3B68E01806EB00108D
:104F000006A90AF1010A29F067FF5FFA8AFAC9E7E0
:104F1000924B1B680137FFB2CAEB03039F423E4628
:104F2000C0F2F18006A829F087FE03981BB0BDE807
:104F3000F08F4946CDF81490CDF80490002900F088
:104F4000208109F1FF3323F0FF030493CA46BAF12D
:104F5000010F41DD0124264604E00136F6B2564534
:104F6000344639DA671E05EB07172E2138462AF03A
:104F7000A3F800220346394612A82AF0D1F812A855
:104F80002AF038F905EB0414834612A829F054FEE0
:104F90002E2120462AF090F821460346002212A82E
:104FA0002AF0BEF812A82AF025F9814612A829F0A5
:104FB00043FECB45D1D9214606A829F00DFF013685
:104FC0003946204629F008FFF6B206A9384629F0EE
:104FD00003FF56453446C5DB049B0AF1FF3A9A4568
:104FE000B5D1D8F80030019A9A1A002A7FF74EAF4F
:104FF0000599594D01F1010900265FFA89F93746F3
:10500000991B8945BFF63CAF49464C4608E0D8F8A5
:1050100000300134E4B29A1B94422146BFF62EAF11
:1050200001F1FF3A05EB0A1A05EB011B5046594600
:1050300029F0AAFF0028EAD0594606A829F0CCFE9C
:105040005146584629F0C8FE06A9504629F0C4FE2C
:10505000DDE7BAF1000F4FD00023CDF804A01E46C3
:10506000D8F800305C1C02E0D8F800300134019A16
:105070001344E4B29B1B9C4236DA04F1FF3905EB82
:1050800009192E2148462AF017F8002203464946FE
:1050900012A82AF045F812A82AF0ACF805EB041A79
:1050A000834612A829F0C8FD2E2150462AF004F8A4
:1050B00051460346002212A82AF032F812A82AF01C
:1050C00099F8074612A829F0B7FDBB45CCD951463F
:1050D00006A829F081FE4946504629F07DFE06A922
:1050E000484629F079FEBFE70136019AF3B29A42A9
:1050F000B6D81A4B1B689246CAEB0303002B7FF706
:1051000011AF00263746D8F80040029B01345444C2
:105110009E1BE4B2B44205DBFAE60134E4B2B442C9
:10512000BFF6F6AE04F1FF3905EB091905EB041BD8
:105130004846594629F028FF0028EED0594606A8CF
:1051400029F04AFE4946584629F046FE06A9484637
:1051500029F042FEE1E700BF1854FF1FBC53FF1FB8
:10516000F453FF1F394606A829F036FE4946384653
:1051700029F032FE06A9484629F02EFE0BE6002350
:1051800001930022D8F8003005922CE738B5084882
:10519000084C23F0BDFC04F5805520460649103428
:1051A00029F02AFEAC42F8D1044B00221A7038BD17
:1051B000EC82FF1F1854FF1FB4BF0300E053FF1F12
:1051C00038B5054C04F5805520460449103429F0C3
:1051D00013FEAC42F8D138BD1854FF1FB4BF030012
:1051E00038B504460D4600F00DF8054B187800B9A7
:1051F00038BD29462046BDE83840FFF775BC00BFE2
:10520000E053FF1F10B51B2088B0154C2AF0A2FEFA
:105210002378984209D083F0010323703BB1182111
:10522000104823F049FC30B9207008B010BDFFF7DA
:10523000ADFF08B010BD68460B4929F03DFD04A83C
:105240000A4929F039FD04A96846FFF7C9FF04A8F7
:1052500029F0F2FC684629F0EFFC08B010BD00BF51
:10526000E053FF1FEC82FF1F98D40300B4BF03007C
:1052700008B5012118202AF07BFE00211B202AF00E
:1052800077FE012118202AF05FFEBDE80840FFF7F5
:10529000B9BF00BF08B5FFF7B5FF014B187808BDCF
:1052A000E053FF1FF0B589B005460C461746FFF7DF
:1052B000A9FF294B1B78002B2FD02968274E28489F
:1052C000002908BF314623F017FD012C3BD0172CD5
:1052D00026D02A68214822492346002A08BF0246D0
:1052E000684623F095FC08AA1E48029B12F8144D4C
:1052F0009DF8041083600473017100F10D031A30EE
:1053000012F8011F03F8011B8342164CF8D1079BCA
:10531000E361204623F00EFB70B9002009B0F0BD18
:105320000028D6D0002FD4D029680D48002908BF06
:10533000314623F0FDFCCCE7204623F0FBFA28B9E8
:10534000084809B0F0BD0028C3D1E6E7204623F0A5
:10535000C5FA0028E1D1F3E7E053FF1FDA6B040040
:10536000EC82FF1FF853FF1F0168034B034800291D
:1053700008BF194623F0CEBCDA6B0400EC82FF1F95
:105380000A4A0B4B12681B681344994210B5044635
:1053900004DB084929F090FC204610BD064B03EBC6
:1053A000011129F09DFC204610BD00BFF453FF1FE2
:1053B000BC53FF1FB4BF03001854FF1F10B50349AF
:1053C000044629F08DFC204610BD00BFE453FF1FAA
:1053D00030B51B4989B005461A4829F0BFFD40BBCE
:1053E0000446174904A829F067FC04A9154829F0C8
:1053F00091FE224603461349684629F091FE04A80F
:1054000029F01AFC04A80E4929F056FC04A96846A4
:1054100029F080FE224603466946284629F080FE90
:1054200004A829F009FC684629F006FC284609B0C2
:1054300030BD0449284629F053FC284609B030BD48
:1054400098D40300E453FF1F08B50449044829F029
:1054500085FD003018BF012008BD00BF98D40300AF
:10546000E453FF1F014B1868704700BFF453FF1F40
:10547000014B1868704700BFBC53FF1F024A034B23
:1054800010681B6818447047F453FF1FBC53FF1F7C
:105490000168034B0348002908BF194623F02CBCC0
:1054A000DA6B0400EC82FF1F38B510491048114C2C
:1054B00029F002FC104A11490D482CF0BBFE10489F
:1054C00023F0FCF90F4823F0F9F904F58055204644
:1054D0000021103429F0F0FBAC42F8D1064A0A4909
:1054E0000020BDE838402CF0A5BE00BF98D40300D2
:1054F000E453FF1F1854FF1F1C0DFF1F39EC02005F
:10550000C053FF1FF853FF1FCD4A000070B5134D65
:105510000024B0202AF046FAE1B2013406461CF01D
:1055200037FD202C45F8046FF3D10D4D00244FF4C6
:10553000A6602AF037FAE1B2013406461DF09CF964
:10554000202C45F8046FF2D10649074A00230B705E
:10555000136053609360D36070BD00BFB864FF1FD9
:105560002864FF1FB564FF1F1C64FF1FF0B51D4CAE
:10557000206883B0A0B11DF045FE88B91A4E33688B
:10558000002B0DDD01F092F8054628B3174F184D9A
:105590003B680093009B2A689B1AB3F5C87F01D231
:1055A00003B0F0BD01F076F8013001F0F3F83B688C
:1055B0000193019B2B60276801F072F80146384681
:1055C0001DF07AFE054638B1246801F069F80146FD
:1055D00020461DF075F9E3E720681DF031FA3560CB
:1055E00003B0F0BD1864FF1FB064FF1F9C85FF1F50
:1055F000B864FF1FF8B5114D05F1100755F8044BBD
:10560000204634B123685E681DF000FE0146204646
:10561000B047BD42F2D10A4B1C683CB1236820461A
:105620005D681DF0F3FD01462046A8470549064B7D
:1056300000204FF0FF3208701A60F8BD1C64FF1F95
:105640001864FF1FAC64FF1FD819FF1F2DE9F04736
:1056500001F038F8214B38B91B780BB9BDE8F08759
:10566000BDE8F047FFF7C6BF0122DFF880801A705F
:1056700001F016F8D8F8003098420746EED0184BE3
:105680001B78E3B9174EDFF86890002456F8045BE6
:1056900028466DB199F800302341DB0708D52B6807
:1056A000D3F800A01DF0B2FD3A4601462846D04787
:1056B0000134042CEAD1C8F80070BDE8F0870A4B29
:1056C0001C68002CDED0236820461D681DF09EFD5E
:1056D0003A4601462046A847EDE700BFAC64FF1FED
:1056E000B464FF1F1C64FF1F1864FF1FD819FF1F3D
:1056F000B564FF1F2DE9F0410E4E346807460D4694
:1057000064B123682046D3F804801DF07FFD014674
:105710002046C04730681DF075FD38B1002F064B9C
:10572000376008BF00251D70BDE8F08130681DF0AE
:1057300087F9F3E71864FF1FB464FF1F014B186873
:10574000704700BF1864FF1F014B53F820007047DB
:10575000BC64FF1F014B53F8200070472C64FF1FEF
:105760002DE9F0410A4F57F820408C420DD00E46EB
:10577000054644B123682046D3F804801DF046FD59
:1057800001462046C04747F82560BDE8F08100BFCC
:105790001C64FF1F38B5044D2B78834203D00446A8
:1057A000FFF728FF2C7038BDB464FF1FF8B5D1B9DE
:1057B000114B124D53F820602B78044666B143FA22
:1057C00000F2D20708D5336830465F681DF01EFD31
:1057D00001463046B8472B78012000FA04F423EA4A
:1057E00004032B70F8BD054A0124137804FA00F075
:1057F00018431070F8BD00BF1C64FF1FB564FF1F85
:1058000070B5184C206810B11DF0FCFCF8B9164DAD
:10581000002455F8043BE6B2184653B11DF0F2FCE3
:10582000002130B13046FFF79BFF30460021FFF7E3
:10583000BDFF0134042CECD10C4C04F1800554F86C
:10584000040F03689B689847A542F8D170BD24688F
:10585000236820465D681DF0D9FC01462046A84714
:10586000D5E700BF1864FF1F1C64FF1FB864FF1F4B
:10587000F8B5184C206810B11DF0C4FC00B3164EEA
:10588000002456F8043BE7B218465BB11DF0BAFCA1
:105890000546014630B93846FFF762FF29463846CB
:1058A000FFF784FF0134042CEBD10C4C04F180058C
:1058B00054F8040F01211CF085FFAC42F8D1F8BD6B
:1058C0002468236820465D681DF0A0FC0146204640
:1058D000A847D4E71864FF1F1C64FF1F2864FF1F3C
:1058E00008B5FFF78DFFBDE80840FFF7C1BF00BF57
:1058F000064B53F8203033B1054B1B7843FA00F0C8
:1059000000F0010070471846704700BF1C64FF1F7D
:10591000B564FF1F014B53F8200070471C64FF1F44
:10592000014B1878704700BFB464FF1FF0B5224CDC
:10593000256885B02DB117460E46054600F0B6FE27
:1059400008B905B0F0BD20681DF060FCA842F8D190
:1059500000F0A6FE054620681DF054FC38BB206808
:105960001DF050FC0028ECD10BF0C6F90428E8D15A
:1059700000F0A8FE88B9114A1149124B1068039033
:105980000A6883FB0503A3EBE5750F4B03981860CA
:1059900005EB450501326D000A60206801243B4695
:1059A00032462946019400941DF006F8C9E70BF031
:1059B000A3F90228D3D1C4E71864FF1F9C85FF1FF9
:1059C000B064FF1FABAAAA2AB864FF1F70B5214CB0
:1059D000236823B10E46054600F068FE00B970BD8D
:1059E00020681DF013FCA842F9D100F059FE0546CD
:1059F00020681DF007FC10BB20681DF003FC002888
:105A0000EDD10BF079F90428E9D100F05BFE78B90B
:105A100011490A68002AE2D0104B83FB0503A3EB6F
:105A2000E57505EB4505013A6D000A6005355AB18B
:105A3000324629462068BDE870401CF0EDBF0BF0EF
:105A40005BF90228D8D170BD00F024FE013000F0CF
:105A5000A1FEEDE71864FF1FB064FF1FABAAAA2ADE
:105A60002DE9F0411A4D2B6823B18846044600F019
:105A70001DFE08B9BDE8F08128681DF0C7FBA042F3
:105A80000646F7D128681DF0BDFB01460028F1D17C
:105A90002D201DF007FDA0B10E4C04F1800701E0A0
:105AA000A7420CD054F8045F28461DF0AFFB864295
:105AB000F6D1284641461CF0FDFEA742F2D1BDE8D2
:105AC000F08141462868BDE8F0411CF0F3BE00BFFC
:105AD0001864FF1F2864FF1F70B5114E336833B17F
