:1000000000000320D1010000C11A0400791A040085
:10001000791A0400791A0400791A0400791A040084
:10002000791A0400791A0400791A0400C11A04002C
:10003000C11A0400791A0400090804000D0804001C
:10004000C11A0400C11A0400C11A0400C11A040034
:10005000C11A0400C11A0400C11A0400C11A040024
:10006000C11A0400C11A0400C11A0400C11A040014
:10007000C11A0400C11A0400C11A0400C11A040004
:10008000C11A0400C11A0400C11A0400C11A0400F4
:10009000C11A0400C11A0400C11A0400C11A0400E4
:1000A000C11A0400C11A0400C11A0400C11A0400D4
:1000B000C11A0400C11A0400C11A04007D2C0400F6
:1000C000C11A0400C11A0400C11A0400C11A0400B4
:1000D000C11A0400C11A0400C11A0400C11A0400A4
:1000E000C11A0400C11A0400C11A0400C11A040094
:1000F000C11A0400C11A0400C11A0400C11A040084
:10010000E9430400FD4304001144040025440400B5
:10011000C11A0400C52F0400C11A0400C11A04004A
:10012000C11A0400C11A0400C11A0400C11A040053
:10013000C11A0400C11A0400C11A0400C11A040043
:10014000C11A0400C11A0400C11A0400C11A040033
:10015000C11A0400C11A0400C11A0400C11A040023
:10016000C11A0400C11A0400C11A0400C11A040013
:10017000C11A0400C11A0400C11A0400C11A040003
:10018000C11A0400C11A0400C11A0400C11A0400F3
:10019000C11A0400C11A0400C11A0400C11A0400E3
:1001A000C11A0400C11A0400C11A0400C11A0400D3
:1001B000C11A0400C11A0400C11A0400C11A0400C3
:1001C000C11A0400C11A0400C11A0400C11A0400B3
:1001D0005C4B4CF2205210B51A804DF628121A8052
:1001E00000BF00BF41F070FC574B4FF030621A6007
:1001F000564A9A60564ADA60564B4FF470021A60BB
:10020000554B564A1A60564B1A78110703D51A787F
:1002100042F008021A70534B5349AA221A70534AEB
:10022000534B8B4204D252F8040F43F8040BF8E707
:10023000504B514900228B4202D243F8042BFAE77B
:100240004E494F4A002352F8230041F8230001335E
:10025000742BF8D14B4B4C4A802103F8011B93427D
:10026000FBD14A4B454A1A60494B8A221A70A3F5C2
:10027000805324225A70A0221A709A799207FCD5D2
:100280009A79D406FCD4434A937903F00C03082BE3
:10029000FAD1414B60221A7002331A78802AFCD1BD
:1002A0003C4B01221A715D225A719A799006FCD555
:1002B0009979384A4906FBD5384B394919600021EC
:1002C000596020231370937903F00C030C2BFAD19F
:1002D000344B354A1A60354A354C136813F4807331
:1002E00003D123604FF4A8531360324B324A1A6093
:1002F00000225A60072243F8042C304AC3F80C2D20
:1003000062B641F0F7FF2368DA0705D52C4841F0C3
:10031000ADFD2C4B2C4A1A602C4B1B785B0609D583
:10032000284C294B22689A4204D1254841F09EFD71
:100330000023236041F0CEFB46F002FC41F0C0FAFE
:10034000FEE700BF0E20054030800440823F0400DD
:100350000100002B88ED00E0002008E0030000858C
:1003600002D0074000E007408026FF1FBCB5050013
:10037000400CFF1F8026FF1F1867FF1F0002FF1F92
:100380000000000000E400E064E400E008ED00E0AC
:10039000005006400040064001E007404480044011
:1003A0000000060204800440C010070010D0034083
:1003B00014D0034014E000E01FBF02000000202022
:1003C000392271671CE00340A5C3945A00F007402E
:1003D000FFFFFFFFFFFFFFFFFFFFFFFFFFFFFFFF2D
:1003E000FFFFFFFFFFFFFFFFFFFFFFFFFFFFFFFF1D
:1003F000FFFFFFFFFFFFFFFFFFFFFFFFFFFFFFFF0D
:10040000FFFFFFFFFFFFFFFFFFFFFFFFDEF9FFFF23
:1004100010B5054C237833B9044B13B10448AFF33E
:1004200000800123237010BD8026FF1F0000000004
:10043000B8B50500084B10B51BB108490848AFF323
:1004400000800848036803B910BD074B002BFBD0A0
:10045000BDE81040184700BF000000008426FF1FC1
:10046000B8B505008026FF1F000000002DE9F04F01
:1004700089B00646139D149C0394012D169C049488
:100480009DF84890DDF854B00F4690461C4600F0A9
:100490009C80032B64DD032A00F3A680B3B2BAB2BA
:1004A000059303F1010A531C1BB2A4B206920793F1
:1004B0001A46ADB20FFA8AFAA31E009551461BB236
:1004C00059483CF01FFF1FFA88F808F1FF3536B293
:1004D0003FB22DB2B9F1000F5BD01FFA8BFB04F1D4
:1004E000FF39CDF800B02B463A4631464E480FFA58
:1004F00089F93CF017FFCDF800B04B463A4631463B
:1005000049483CF0FFFE069BBDF80CB01C44013C82
:1005100024B22B4651462246CDF800B042483CF06A
:1005200001FF059BBDF81050079ACDF800B0984424
:1005300008F1FF380FFA88F84B4641463A483CF03C
:10054000E1FE3A4641462B4637483CF04FFD3648DF
:100550002B462246314609B0BDE8F04F3CF046BD7F
:100560009CD183B28AB2059303F1010A531C1BB2DA
:100570001FFA88F80692ADB20FFA8AFA1A46079364
:10058000A8F10203009551461BB227483CF0CAFE71
:100590009BE7BDF80C30039300933A462B46314657
:1005A000214804F1FF393CF0BDFE0FFA89F9039BA5
:1005B00000933A464B4631461B483CF0A3FE069B4F
:1005C0001C44013C1FFA8BFBA2E783B28AB203F101
:1005D000010A0593531C1BB206921FFA88F8A4B2B5
:1005E0000FFA8AFA079370E78AB29CB2114683B277
:1005F000059303F1010A0B4601331BB206921FFA61
:1006000088F8A21E1846ADB212B20FFA8AFA079302
:10061000A8F102038DE82400514602461BB20248AD
:100620003DF028F851E700BFFC5EFF1F2DE9F047C1
:10063000161E9DF82070099DDDF828E0DDF82CC01D
:10064000DDF830A011DD002B0FDD012E0FD0012BC6
:1006500019D0CDF830A0CDF82CC0CDF828E0099500
:100660000897BDE8F047FFF701BFBDE8F087012D0F
:10067000FBD0ADB208950AB21BB201B2BDE8F0479B
:1006800007483CF03FBE012DEFD0ADB2089533B224
:100690000AB2BDE8F04701B201483CF043BE00BFDA
:1006A000FC5EFF1F2DE9F04F85B004461F46002079
:1006B0001BB2009301900DF140090F98039099E847
:1006C000000E0D46164613B20C489DF838800AB24B
:1006D00021B23EF0E5FD03980F90BB1EB21E691CCF
:1006E000601CCDF848B0CDF844A0CDF84090CDF8CE
:1006F000388005B0BDE8F04FFFF798BFFC5EFF1FE4
:1007000070B58AB044F208269DF83C4000944FF63C
:10071000FF7548F210440494019403960295144620
:1007200005460E46FFF7BEFF0E9906A840F030FBC7
:10073000164B06991648002908BF194600223FF0BB
:1007400099FE0138201A00EBD07040100328CCBF6E
:1007500080B204204119F21C12B209B20C483FF0D9
:1007600063FE06A840F0C0FA002109483FF07EFE73
:10077000012107483FF074FE0E99054840F0ECF85F
:10078000034840F00FF90AB070BD00BF7AAF050012
:10079000FC5EFF1F2DE9F0472DED028B86B0B0EE19
:1007A000408A9DF844709DF840A0F0EE608A814632
:1007B000884615461E46002F5BD1043D07EE905A31
:1007C000B8EEE77AF4EEC88AC7EE287AF1EE10FAAE
:1007D000D4BFB0EE680AB0EE480AB5EE400A9FED0D
:1007E0002E7AF1EE10FA98BFB0EE470A27EE800A93
:1007F000FDEEC07A17EE904A002C1DDD44F208236E
:10080000BAF1000F48F2104118BF184644F2FF72C7
:1008100012BF4FF482630A46002000218DE80A00CF
:1008200002920390049317EE902A331F08F10201FD
:1008300009F10200FFF7FAFE27B106B0BDEC028B0A
:10084000BDE8F087A4B209F102092B1B04EB0901F2
:1008500008F10202043E1148119736B21BB209B2E8
:1008600012B2109606B0BDEC028BBDE8F0473CF02A
:1008700001BF48F2104444F2082E04944FF6FF746E
:10088000CDF80CE002944FF0000E01248DE81040EA
:10089000FFF708FF91E700BF00000000FC5EFF1FAC
:1008A00070B586B048F2104344F208264FF6FF7543
:1008B0000124049301930396029500940223FFF709
:1008C000B5FE06B070BD00BF2DE9F0410E4C0F4DD6
:1008D000E561984606460F462046012115463FF041
:1008E000BFFD1FFA88F120463FF0C0FD3AB231B299
:1008F00020463FF099FD2946204640F02DF8044B54
:10090000E361BDE8F08100BFFC5EFF1F608F040063
:10091000E48D04002DE9F047284C294DE5610E4691
:100920000546012120469A4617461FFA86F83FF0F1
:1009300097FDBDF8201020463FF098FD0FFA85F98D
:1009400008F1FF3212B2494620463FF06DFDADB2CC
:100950003946204640F000F836B2691C324609B2EA
:1009600020463FF061FD394620463FF0F5FF08F193
:10097000010212B2494620463FF056FD3946204654
:100980003FF0EAFF691E324609B220463FF04CFDB7
:10099000394620463FF0E0FF1FFA8AF120463FF03B
:1009A00065FD3246494620463FF03EFD3946204629
:1009B0003FF0D2FF034BE361BDE8F087FC5EFF1F11
:1009C000608F0400E48D040010B582B01BB2BDF846
:1009D00010400093019413B20AB201B202483CF0F5
:1009E00049FE02B010BD00BFFC5EFF1F2DE9F04FB5
:1009F00089B08A46139C0693E31D0393159BCDF89B
:100A00001CA00027DDF848B0169E4B4DDDF850A025
:100A1000049004F1FF3905925C1E3946BC4619F872
:100A2000018F14F801EFA5F12003802206E0C1B286
:100A30001E600433AB424FEA520212D01EEA020F8C
:100A400001F10100F3D118EA020F0CF1010056D0B8
:100A5000C3F800A00433AB425FFA80FC4FEA5202B5
:100A6000ECD103F12005039B9945D8D1BC45DDF8B5
:100A70001CA05CD98C455CD2012E0DD0B2B2BDF960
:100A80001830019200930FFA8AF2BDF91430BDF9C3
:100A900010102A483CF0EEFD069B53449A459B46B5
:100AA0003ADA059B049ADFF89C80CDF80CB01F461B
:100AB00017449346BB4527DA214D0AEA0505002D68
:100AC00030DBED005C460FFA8AF90FE02B4458F852
:100AD00023309E4207D0012B21B29BB24A461748D1
:100AE00001D03CF083FA0134BC420DD0144B2340BA
:100AF000002BEBDA013B63F007030133E6E7013734
:100B0000FFB2C3F800B094E71AF00F0F07D0039BB1
:100B10000AF1010A9A45CDD109B0BDE8F08F14F071
:100B2000B3F9F4E7013D65F007050135C9E75E4615
:100B3000A2E7FCD9149E9FE7BC26FF1FFC5EFF1FA7
:100B4000070000809C26FF1F2DE9F04F8BB0002589
:100B50009A461BB20446884616469DF85C70009380
:100B6000019513B20AB201B26D4808971FFA88FBCB
:100B70003EF096FBA2B2AAF102000992511C00B20B
:100B80004FF482670BF10102B31E09B212B200905A
:100B90001BB201976248DFF89091A71907973CF0C4
:100BA00069FD604A019208F103070122079800924B
:100BB00039465346032204950295CDF80C90FFF771
:100BC00015FF584A01920334012200920323049531
:100BD000CDF80C9002952046324608EB0A01FFF74B
:100BE00005FF089B002B70D04FF6FF7944F28F234E
:100BF000102200950493019303920D23A6F1120293
:100C000039462046CDF80890FFF74CFD01214448B5
:100C10003FF026FC099942480BF10602083112B256
:100C200009B23FF001FC49463D483FF01FFC1499D2
:100C30003B483FF091FE3A483FF0B4FE0095079DD7
:100C4000CDF8089048F2104B0D2344F208223946A3
:100C50000392A5F110001A46CDF810B0CDF804B0FB
:100C6000FFF720FD44F208214FF6082207230391E5
:100C7000012100910192CDF810B0CDF80890A5F1B6
:100C80000D001A4608F10601FFF7F0FB159BCBB1EA
:100C9000A3F10203B3FA83F35B0948F2104E44F266
:100CA00008274FF6FF750093169B0193B21FAAF118
:100CB000150308F112012046CDF810E003970295C4
:100CC000FFF7F0FC0BB0BDE8F08F0899009144F2FB
:100CD0008F234FF6FF751022394604930193039238
:100CE0000D23B21F20460295FFF7DCFC01210C48C2
:100CF0003FF0B6FB09990A480BF10602083112B21F
:100D000009B23FF091FB294605483FF0AFFB14992B
:100D100003483FF021FE02483FF044FEB6E700BF23
:100D2000FC5EFF1FE4C70400A08804002DE9F04F1B
:100D300087B01478049201909DF8402003914FEA07
:100D4000530A002C43D1002A3ED0531EDBB201339C
:100D50001FFA80FB0593DFF8449102940BF1010325
:100D600001940093BAF1000F25D0019B039A9F18BC
:100D7000049B029A3FB203EB0208002618F8015FB9
:100D800045487400A4B22B1104EB0B0109B239F8E9
:100D900023303A463CF02AF9009B3F4805F00F0506
:100DA000E118013639F8253009B23A463CF01EF90F
:100DB000F3B29A45E2D8029A019B52440292059AF4
:100DC000013393420193CDD107B0BDE8F08F012CE0
:100DD000FAD1D90812FB01F10131002AF4D0531ED7
:100DE0004FF0000BDBB20133A0465D465C46CDF808
:100DF00000B0DDF810B005930291BAF1000F1ED0DB
:100E0000039B009A13441BB20493029B00260BEB36
:100E100003071DB91BF8084008F10108220617F85E
:100E2000019B2AD46400E4B2230614D40136F3B241
:100E3000640002359A45E4B205F00705E9D8029A44
:100E4000009B52440292059A013393420093D4D1FD
:100E500007B0BDE8F08F019B039A0F48591C009B17
:100E600009F00F099A180D4B01EB460133F82930B0
:100E700009B212B23CF0BAF8D8E7019A064802EB80
:100E800046014FEA2913054A09B232F82330049A81
:100E90003CF0ACF8C6E700BFFC5EFF1F008F04000B
:100EA0002DE9F04F8FB015789DF860609DF8644093
:100EB000002D7CD1002C7AD01F460493631EDBB238
:100EC0000D917108924609914A1E591CC7F30733C8
:100ED000D2B20393C7F303130A910593511C07F091
:100EE0000F03C7F303220C90AB460B9107950892B2
:100EF0000693CDF800A0099B002B50D0079B0D9ABC
:100F0000BDF830900B99DFF8B0809F18009A134617
:100F10005B4401EB0B0AA9F102010193029109F173
:100F2000FF393FB21E46924428E0069A059999423D
:100F300008BF1346039AAA422FD0069A0599A942E0
:100F400008BF1546009A1B4838F82330B4B2CBEBE3
:100F50000401891A029A02EB410109B23A463CF0B7
:100F600045F8019B1348E11A09EB410109B238F831
:100F700025303A463CF03AF8564510D016F8015F55
:100F8000049A2B0905F00F05002ADBD0039A9A4238
:100F9000CBD1039A089BAA42CFD1089DD2E7099AE8
:100FA000079B93440A9A013393420793A3D10FB04E
:100FB000BDE8F08FFC5EFF1F008F040008B50168DC
:100FC000044B0548002908BF194600223FF052FA99
:100FD000013808BD7AAF0500FC5EFF1F002844F20F
:100FE000082018BF0020704708B50021092033F001
:100FF0005DFF00B908BD044B0222187840F6AC51E1
:10100000BDE808403FF086BDA427FF1F08B50021BA
:10101000092033F04BFF00B908BD044B02221878B9
:1010200040F6B831BDE808403FF074BDA427FF1F6B
:1010300008B50021092033F039FF00B908BD044B81
:10104000022218784FF4FA61BDE808403FF062BD13
:10105000A427FF1F10B500210446092033F026FF06
:1010600060B1074B002C41F20401187808BF4FF41F
:101070007A610222BDE810403FF04CBD10BD00BFB8
:10108000A427FF1F10B500210446092033F00EFFEE
:1010900068B1074A41F2941141F230131078002CE4
:1010A00008BF19460222BDE810403FF033BD10BD15
:1010B000A427FF1F2DE9F04F8BB0804609910B202C
:1010C000002192461C4633F0F1FE002106460C201A
:1010D00033F0ECFE002107460D2033F0E7FE00213F
:1010E00081460E2033F0E2FE002183460F2033F0CC
:1010F000DDFE344D344B55F8292053F8200053F8C9
:101100002B1055F8273055F8265003900191049282
:10111000029352462346099900954046FFF766FC24
:101120000021102033F0C2FE012802D00BB0BDE830
:10113000F08F099BDFF898B000264FF0BA092344DE
:101140000893CDF818903546374609F14603DBB2CF
:101150000793069A089B9342E8DDCDF818906B241C
:1011600012E02B466D081F420BD0A04508EB0A0386
:1011700007DC9C4205DA099B4B4502DC089B4B458A
:1011800018DC0134EB2C09D0A4F16B035A07E8D129
:101190001BF80670402501368023E4E7079B1B07F8
:1011A00005D009F10109B9F59B7FCED1BEE713F057
:1011B0006BFEF6E700230FFA89F221B203483BF0F9
:1011C00015FFDEE7008F0400ECC70400FC5EFF1F84
:1011D00070BF04002DE9F04F052397B0013BFDD10E
:1011E00000210C465548DFF864B1DFF864A13CF0FB
:1011F0007DFCA1462546A046264623462746A2B2A8
:10120000D10700F1918052081BF802703A09002BB7
:101210006AD102F007014A48415C12073AF821807E
:101220005FD4012633462B44E02B65DC05F1080131
:1012300009B21D4609F11A02CDF8008012B23346F8
:101240003E483CF06FF8E02D71D00023013445F2A8
:101250000E329442D3D106A83A493FF085FD0A22C6
:1012600002A802213FF0C6FD02A906A83FF09CFE9D
:1012700035493FF0A1FE0A22044603210AA83FF0A7
:10128000B9FD0AA920463FF08FFE2F493FF094FE9A
:101290000A22044600210EA83FF0ACFD0EA920460C
:1012A0003FF082FE014612A83FF072FD12AA44F2FE
:1012B00008234FF49D710020FFF706FB12A83FF0B2
:1012C00013FD0EA83FF010FD0AA83FF00DFD02A887
:1012D0003FF00AFD06A83FF007FD17B0BDE8F08F0C
:1012E00016010133DBB2B1E7012BF9D01644F6B297
:1012F00033462B44E02B99DDA9B2C1F1E00309F19B
:101300001A022035083109B21BB212B20B48CDF8CF
:1013100000802E443CF006F8F6B2012081443546A8
:1013200040F096FF082185E707F00F026FE70120E4
:101330000025814440F08CFF2B4687E7FC5EFF1FB1
:10134000C08E0400B48E040030100500848F0400A9
:10135000008F04002DE9F04F85B000250290039125
:10136000AB46AA462F462C462B46A946AAB2D10721
:101370005CD452082F4911F802904FEA1912002B41
:1013800031D12D4802F007011207415C2B4830F89B
:1013900021B025D4012423463B44BE2B2BDCBDF8D1
:1013A0000880BDF80C60B9B21F4606EB0A02414442
:1013B000234612B209B2CDF800B021483BF0B2FF8B
:1013C000BE2F03BF00270AF1010A3B460023013567
:1013D00040F6C2429542C9D105B0BDE8F08F140174
:1013E0000133DBB2F3E7012BF9D01444E4B2234616
:1013F0003B44BE2BD3DDBDF80880BDF80C60CDF8B2
:1014000000B0BBB2423708EB030106EB0A023C44D2
:10141000C3F1BE0309B21BB212B20948E4B23BF0F9
:1014200081FF0AF1010A27460021BEE709F00F02F9
:10143000A5E700BF0CB90400D88E0400008F04009B
:10144000FC5EFF1F2DE9F04F814687B08A461846A3
:101450005A491D4617463FF0E1FD18B1012007B07B
:10146000BDE8F08F044601215548564E3EF0F8FF86
:10147000BDF8441052483EF0F9FF294602A83FF05B
:1014800087FC02994E48002908BF314622463EF0AB
:10149000F1FF00F1FF3802A83FF026FC47452BDBA7
:1014A000109B012B17D0022B7FD1C8EB0707002F11
:1014B000ACBF09EB070109F1000109B20FFA8AF28A
:1014C0003F483EF0B1FF29463D483FF045FA012034
:1014D00007B0BDE8F08FC8EB070707EBD7777910A7
:1014E0000029ACBF494409F1000109B20FFA8AF2A0
:1014F00033483EF099FFE6E7334902A83FF034FC59
:1015000002992F48002908BF314622463EF0B2FF1B
:101510005FFA80FB02A83FF0E7FB019626461EE03B
:101520003FF0C0FD017802A83FF08CFC019B0299BE
:101530002348002908BF194600223EF09BFF804641
:1015400002A83FF0D1FB08F1FF30C0B20219CBEB8B
:1015500007039A4200F101000ADA044401363146D9
:1015600028463FF09FFD037831462846002BD7D10F
:101570000FFA8AF20FFA89F111483EF055FF002464
:1015800056B1214628463FF08DFD013401780C48C4
:101590003EF002FFA642F4D101220B4908483FF079
:1015A000C5F9002007B0BDE8F08F0FFA8AF20FFAF4
:1015B00089F103483EF038FF85E700BF8011050040
:1015C000FC5EFF1F7AAF05006C2805002DE9F04393
:1015D00087B004460E9FDDF83C800D46164619463E
:1015E00002A899463FF0D4FB02AB324629468DE86B
:1015F00080012046FFF726FF02A83FF075FB494611
:1016000002A83FF0C5FB3246294602AB8DE88001B7
:10161000601CFFF717FF02A83FF066FB07B0BDE8AC
:10162000F08300BF2DE9F04387B00F4C0E9E0F9F53
:101630000E4DE561884605469146194602A83FF0E1
:10164000A7FB02AB4A4641468DE8C0002846FFF79B
:10165000F9FE054602A83FF047FB054BE36128462B
:1016600007B0BDE8F08300BFFC5EFF1F608F040081
:10167000E48D0400F8B50A24002517203FF032FF5E
:101680000544052040F0E4FD631E13F0FF04F4D18F
:101690007A4B7B4A83FB0513ED171178C5EBA30545
:1016A0008D4202DB53789D4274DD764B1B78012B13
:1016B00073D0DFF83CE27449744F754B754D764E2C
:1016C000764C7748774A4FF0050C8EF800C04FF003
:1016D0001F0E4FF01C0C81F800E087F800C020219D
:1016E000DFF810E2197002274FF0040C2F7086F813
:1016F00000C06D496D4F6E4B19264FF0090C2670D6
:101700008EF800C003256B4E05704FF00A0E4FF0A7
:10171000060C81F800E087F800C0674DDFF8D8E1DB
:1017200066481A2400214FF00F0C1470197086F8C7
:1017300000C0634C6349644A644B07274FF00E0CAA
:101740002F7010260825624F8EF800C04FF0210E32
:101750000570267081F800E05E485F4D5F4E1124F1
:101760004FF0230E147022215D4A87F800E02427F1
:10177000197007705B4C5C495C4B252726202F7045
:1017800010701D271E2518201B2237702570087029
:101790001A70F8BD3B4B01221A70DFF854E13A4948
:1017A0003A4F3B4B3B4D3C4E3C4C3D483D4A4FF045
:1017B000180C8EF800C04FF00A0E4FF0000C81F8A4
:1017C00000E087F800C00221DFF828E119700E2739
:1017D0004FF0280C2F7086F800C03349334F344B3C
:1017E0000F264FF0240C26708EF800C02925314EAC
:1017F00005704FF0230E4FF0190C81F800E087F8C8
:1018000000C02D4DDFF8F0E02C48102425214FF0CA
:10181000200C1470197086F800C0294C29492A4AF6
:101820002A4B22274FF0260C2F701F262125284FE8
:101830008EF800C04FF0090E0570267081F800E0A8
:101840002448254D254E1E244FF0070E1470082104
:10185000234A87F800E0062719700770214C2249B7
:10186000224B052704202F7010701D271C251520E2
:1018700016223770257008701A70F8BD67666666A4
:10188000200DFF1FB727FF1FB327FF1FB827FF1F1C
:10189000AF27FF1FA227FF1FA727FF1FA027FF1F9C
:1018A000A327FF1FB527FF1FB927FF1FA627FF1F6D
:1018B000B227FF1FAB27FF1FA827FF1FAA27FF1F65
:1018C000AC27FF1FA927FF1FAD27FF1F9C27FF1F66
:1018D000AE27FF1FB027FF1F9E27FF1FA127FF1F57
:1018E000B627FF1FB127FF1F9F27FF1F9D27FF1F41
:1018F000A427FF1FB427FF1FA527FF1F014B187840
:10190000704700BFB727FF1F30B595B000240223F2
:101910000420E8224E210A938DF80D408DF80E40E8
:101920008DF812408DF814408DF84840FEF7B8FF4E
:10193000AA4B187840F054FC88B90546A84906A877
:101940003FF012FA0195009506ABDC2254210A20E3
:10195000FFF778FD06A83FF0C7F915B030BDA149E3
:1019600006A83FF001FA06ABDC2254210194009452
:101970000A20FFF767FD06A83FF0B6F99A4B02A8C8
:101980001A78214639F018FC054680B9974906A80F
:101990003FF0EAF906ABDC225C21019500950A20B4
:1019A000FFF750FD06A83FF09FF915B030BD9049F4
:1019B00006A83FF0D9F906ABDC225C210194009423
:1019C0000A20FFF73FFD06A83FF08EF9894906A8D7
:1019D0003FF0CAF906ABDC226421019400940A208E
:1019E000FFF730FD06A83FF07FF99DF81430022B79
:1019F00000F0C080032B00F0DA80012B00F0D580CE
:101A00007D4906A83FF0B0F9642106ABDC22084608
:101A100001940094FFF7DAFD06A83FF065F97749D5
:101A200006A83FF0A1F90023DC226C21019300936A
:101A30000A2006ABFFF706FD06A83FF055F90AA8F5
:101A4000012202A93AF0CAFD002800F095809DF815
:101A50004830102B00F0AD80202B00F0BD800C2B07
:101A600000F0B8800024664906A83FF07DF906AB77
:101A7000DC227421019400940A20FFF7E3FC06A8FD
:101A80003FF032F90D990A2206A83FF0C7F906ABDC
:101A9000DC227421019400946420FFF797FD06A8CE
:101AA0003FF022F9574906A83FF05EF906ABDC2269
:101AB0007C21019400940A20FFF7C4FC06A83FF0A3
:101AC00013F99DF82C1006A83FF080F906ABDC2234
:101AD0007C21019400946420FFF778FD06A83FF074
:101AE00003F9494906A83FF03FF906ABDC228421FF
:101AF000019400940A20FFF7A5FC06A83FF0F4F833
:101B00009DF82C300D990A2201FB03F106A83FF045
:101B100085F906ABDC228421019400946420FFF750
:101B200055FD06A83FF0E0F80D9B9DF82C50374975
:101B300006A803FB05F53FF017F906ABDC228C2164
:101B4000019400940A20FFF77DFC06A83FF0CCF832
:101B500069080A2206A83FF061F906ABDC228C2155
:101B6000019400946420FFF731FD06A83FF0BCF813
:101B700015B030BD264944E7024602A90AA83AF04A
:101B80002DFD044600287FF462AF224906A83FF0ED
:101B9000EBF80194009406ABDC226C216420FFF783
:101BA00015FD06A83FF0A0F8D7E61B4929E71B4919
:101BB00027E71B4906A83FF0D7F8002301930093BD
:101BC000DC2206AB6C216420FFF700FD06A83FF085
:101BD0008BF847E71349EDE71349EBE79D27FF1F14
:101BE0006CC8040080C804009F27FF1F90C8040031
:101BF000ACC80400C4C80400E0C80400E8C804007D
:101C000020C904002CC9040040C9040050C90400C4
:101C1000D4C80400F4C80400D0C80400D8C8040024
:101C200010C9040008C9040018C9040000B5E8225E
:101C300087B098210420FEF733FE02A808493FF040
:101C400093F8002202AB019200929E21DC220A202E
:101C5000FFF7F8FB02A83FF047F807B05DF804FB78
:101C600064C9040070B586B048F210430093DC22CA
:101C70000723A6210A20FEF7A7FE002426460A25F0
:101C8000E0B200F02FFD0A22014602A83FF0B2F8B0
:101C900002AB1E22A621284601960096FFF796FC6D
:101CA000013402A83FF020F8062C05F12605E7D103
:101CB00006B070BD2DE9F04F002099B003F01AFF77
:101CC000002103F035F948F2104183469A483BF071
:101CD0000DFF20230A2100930846984A0026FFF7AB
:101CE00025F8974914A83FF03FF814AB64221B2154
:101CF000019600962D20FFF769FC14A83EF0F4FF32
:101D0000904908A83FF030F80A22022104A83FF0C9
:101D100071F804A908A83FF047F98B493FF04CF946
:101D20000A22044603210CA83FF064F80CA92046BF
:101D30003FF03AF984493FF03FF90A220446314620
:101D400010A83FF057F810A920463FF02DF90146A2
:101D500014A83FF01DF814AB7822232101960096B9
:101D60002D20FFF76FFB14A83EF0BEFF10A83EF039
:101D7000BBFF0CA83EF0B8FF04A83EF0B5FF08A8D2
:101D80003EF0B2FFE8222C210420FEF789FD6F49C6
:101D900014A83EF0E9FF14ABDC2232210196009634
:101DA0000A20FFF74FFB14A83EF09EFF684914A8D5
:101DB0003EF0DAFF14ABDC223A21019600960A20AD
:101DC000FFF740FB14A83EF08FFF624914A83EF0D5
:101DD000CBFF14ABDC224221019600960A20FFF7CC
:101DE00031FB14A83EF080FFFFF78EFDFFF71EFFCA
:101DF000012303930323029348F210430093242208
:101E0000072342218720FEF7DFFD029B032B00F012
:101E10009080029B022B0CBF4F49504914A83EF002
:101E2000A3FF14ABDC224221019600968720FFF726
:101E3000CDFB14A83EF058FF0021012002F0B2FAB9
:101E4000029BDDF80C80C3F340090027072348F20A
:101E5000104A1A4632218720CDF800A0FEF7B4FDC3
:101E60003F4BFDB2A3FB0534A40821460A2214A867
:101E70003EF0C0FF14ABDC22322101960096872091
:101E8000FFF7A4FB14A83EF02FFF04EBC4040723C4
:101E90000D223A218720CDF800A0FEF795FDA5EB95
:101EA0004401C9B20A2214A83EF0A4FF14ABDC22FC
:101EB0003A21019600968720FFF788FB14A83EF090
:101EC00013FF28460122594602F068FB4246494664
:101ED000284602F017FD05F130019FED220AC9B234
:101EE000284602F0C9FB0121284602F08BFCFA20AB
:101EF00040F0AEF901372846002102F083FCFFF7DD
:101F0000B1FE242FA2D10424FFF7ACFE013CFA203D
:101F100040F09EF914F0FF04F6D1029B039A013BB6
:101F200082F0010213F0FF03039202933FF460AFCB
:101F300062E70D4972E700BFFC5EFF1FFCC90400A9
:101F400080C9040090C9040030100500A0C9040035
:101F5000B4C90400CCC90400ECC90400F4C90400ED
:101F6000398EE33800000000E4C904002DE9F04F89
:101F7000ADF51D7D0023838005900E46174619465A
:101F80000DF276200DF11E0323F8061C23F8041C25
:101F900023F8021C06339842F6D10021584830F04D
:101FA0005FFFA6F10F02A7F10F0344F28F2912B2CF
:101FB0001BB2049236B203933FB2CA4648F21048AD
:101FC0004FF01E0B1E23039A04994E48CDF804804F
:101FD000CDF800B03BF04EFB102300933A460523AA
:101FE000314648483CF040FA0121454830F038FF7E
:101FF0000F2425B22B463A4631464248CDF800A080
:102000003CF0B6F8322040F023F92B463A463146F0
:102010003C48CDF800803CF0ABF8394830F014FF74
:10202000013CA4B208B1052CE3D1354830F00CFFD7
:102030000028C7D00025002000212C460BE0642D8D
:10204000C3F3C70035D044F0BDF941EC100B42F0AA
:10205000CFFA51EC100B00222B4B44F067F844F000
:10206000C7FC0FFA80FB3A465B4631462548CDF85F
:1020700000903CF07DF806AB05EB450003EB40001B
:102080001F4938F0C5FB0A2040F0E2F85B463A46AB
:1020900031461C48CDF800803CF06AF8184830F012
:1020A000D3FE0134194BE4B2A3FB0423013500280D
:1020B000C5D1632C84D94FF480633A4631460093EE
:1020C000104805233CF0D0F9002206AB11469CAD28
:1020D000B3F90040B3F9020006339D4221440244A3
:1020E000F6D10B4BA3FB01010598A3FB02235B096F
:1020F0004A09028043800DF51D7DBDE8F08F00BFC9
:10210000905EFF1FFC5EFF1F00001840CDCCCCCCC2
:102110001F85EB5110B52DED028B8AB08DE80C00B8
:1021200002AB83E80300BDF900309FED576A9FEDD5
:10213000570ADFED574ADFED572A9FED573A5748C8
:1021400007EE903ABDF9383005EE103ABDF90A3085
:1021500004EE103ABDF9023007EE103ABDF93A30FC
:10216000F8EEE77A05EE903AB8EEC55ABDF90830B8
:10217000C7EE860A04A9C5EE067A06EE903AB8EED6
:10218000C44AB8EEC77AF8EEE55A84EE065AC7EEAE
:10219000068AF8EEE66A85EE867AC6EE865A30EE54
:1021A000E78A78EEC71A68EE456A27EEE86AE5EE38
:1021B000A16AA0EE876AB7EE002A76EE866AF0EE94
:1021C000463A82EE264A27EEC56A75EEE77AA5EE14
:1021D000876A35EE477A20EEC52A27EE447A61EE0B
:1021E000841A67EE847A27EE241A27EE007A66EEC8
:1021F000446A23EE846AF0EE423AB2EE0E2A28EEEA
:10220000448AA1EE821AA1EE827A67EEA41AE5EE64
:10221000A83A67EE807A66EEA44A66EE806AE8EE37
:10222000021A35EE685AE6EE024AE6EE026A75EEEA
:10223000E05AE8EE027A25EE045A23EE846A65EE4F
:10224000C45AB0EE414AA5EE224AA5EE037AB0EE9A
:10225000615AA5EEA25AE6EE224AE5EE837AE6EE50
:10226000036A8DED044A8DED077A8DED055ACDEDAB
:10227000064ACDED087ACDED096A30F003FE0AB0CA
:10228000BDEC028B10BD00BF00007A440000344357
:10229000000051430000604300009943905EFF1F1F
:1022A0002DE9F04FA1B001ABDFF84C9307931CACC4
:1022B00048F21041C248002501263BF017FCC149F5
:1022C00020463EF051FD2346F0224221019528464A
:1022D0000096FFF7B7F820463EF006FDBA492046C3
:1022E0003EF042FD2346F0224A2101950096284601
:1022F000FFF7A8F820463EF0F7FCB44920463EF030
:1023000033FD2346F0223221019500962846FFF73F
:1023100099F820463EF0E8FC0F2211460CA8FFF782
:1023200025FE082748F21043322201932946F02364
:102330000097A3483BF09EF9A54920463EF014FDC6
:102340002346F0223221019500962846FFF77AF8BD
:1023500020463EF0C9FCB422D1210EA8FFF706FEAC
:1023600048F210433222009701932946F023944803
:102370003BF080F9974920463EF0F6FC2346F022D8
:102380003221019500962846FFF75CF820463EF082
:10239000ABFC4FF49972E02110A8FFF7E7FD10ABFA
:1023A00093E803000EAB0CCB0090079801800CA9BA
:1023B00003C9FFF7AFFE2946874830F051FD874932
:1023C00020463EF0D1FC2346F02264210195009680
:1023D0002846FFF737F820463EF086FC8049204625
:1023E0003EF0C2FC2346F0226C210195009628465F
:1023F000FFF728F820463EF077FC7A4920463EF069
:10240000B3FC2346F0227421019500962846FFF77D
:1024100019F820463EF068FC734920463EF0A4FCC3
:102420002346F0227C21019500962846FFF70AF802
:1024300020463EF059FC4FF6FF7344F2082248F262
:102440001041049103920293C822019396216423C0
:1024500014200096FEF726F9644920463EF084FCDD
:102460000D234022FE219C208DE83000FEF748F924
:1024700020463EF039FCD9F800300993DDF824807D
:10248000AA461E27544830F071FD534912A830F077
:10249000CFFC5148BDF948B0BDF94A6030F0C6FCE8
:1024A000012877D071D3032830D1002D00F0D280DD
:1024B000BAF1000F00F0D080ABF116039BB2C32B32
:1024C00024D8A6F198039BB25F2B1FD84FF400438A
:1024D000009652462946019339485B463BF0F0FF8F
:1024E000B2465D460026D9F800300A930A9BDFF811
:1024F00008B1C8EB0303B3F57A7F09D2002EC1D02F
:10250000354830F0C9FC21B0BDE8F08F0026EAE77D
:10251000082348F21042019200937C22F02300210C
:102520002748013F3BF0A6F8FFB2314918A83EF01A
:102530001BFC394614A83EF049FC14A918A83EF02B
:1025400033FD2C493EF038FD014620463EF020FC8C
:1025500000200123F0227C21009301902346FEF706
:1025600071FF20463EF0C0FB14A83EF0BDFB18A84A
:102570003EF0BAFBDBF800300B93DDF82C80002E28
:10258000BED1002F7FF47EAF92E64FF0000A554691
:102590005646A8E71FFA8BF3A3F11602C32A2DD8DB
:1025A000A6F1980292B25F2A28D832464FF400432F
:1025B00059460348B2465D463AF018FD002692E7B8
:1025C000FC5EFF1F00CC040024CC040040CC0400BF
:1025D00060CC040080CC0400905EFF1FA0CC0400FF
:1025E000C4CC0400ECCC040010CD040024CD0400C5
:1025F00028CD04001C5605006C63FF1F9C3B352B47
:1026000084D8FE3EB6B20C2E80D81449204601264E
:102610003EF0AAFB0D234022FE218DE850009C20B5
:10262000FEF76EF820463EF05FFB00210C4830F0CC
:1026300017FC0A4920463EF097FB002301930094C3
:102640000D234022FE219C20FEF75AF820463EF042
:102650004BFB48E72E4646E7564644E724CD0400A8
:10266000905EFF1F064B1B6810B5044613B1184659
:102670001BF0F2FB2046BDE8104003F0E3BD00BFB5
:102680003060FF1F044B1B6823B10A460146184601
:1026900016F0DCBF704700BF585EFF1F70B50E4ECE
:1026A0000E4D30780E4C01213FF0A8FD2878012115
:1026B0003FF0A4FD207801213FF0A0FD30780021FB
:1026C0003FF088FD287800213FF084FD207800212C
:1026D000BDE870403FF07EBDAB27FF1FAC27FF1F5A
:1026E000AD27FF1F10B50C4B044600F00101187810
:1026F0003FF070FD094B04F0020118783FF06AFDCD
:10270000074B04F0040118783FF064FD054BBDE869
:10271000104018783EF0E6BEAB27FF1FAC27FF1F26
:10272000AD27FF1FA527FF1F70B50646FFF7DAFF8D
:10273000154B05460021985D32F0C4FB134B04464F
:102740000021985D32F0BEFB2D1B001B07EE900AA6
:1027500007EE105AF8EEE77AB8EEC77AB7EE000A3D
:10276000C7EE276AF4EEC06AF1EE10FA00D470BD2D
:10277000F5EEC06ADFED067AF1EE10FA8CBFB0EE2E
:10278000660AB0EE670A70BD3C0DFF1F440DFF1FC7
:102790000000000000B583B00191FFF7C5FF01996B
:1027A00007EE901AF8EEE77AF7EE006A86EEA77A5F
:1027B000013907EE901A80EE070AF8EEE77AB4EED8
:1027C000670AF1EE10FA48BFF0EE407AF5EEC07AF3
:1027D000F1EE10FA8BBFFDEEE77A0023CDED017A22
:1027E0000193019803B05DF804FB00BF10B50C46DF
:1027F000FFF79AFFF6EE007AB4EEE70AF1EE10FA70
:10280000ACBF012000200CB180F0010010BD00BF62
:10281000064B002203F1300001211A7059705A60F2
:102820009A70DA7008338342F7D170474C0DFF1F5E
:10283000FFF7EEBF074901EBC00310B400220124EB
:1028400001F830205C709A70DA705A605DF8044BC1
:10285000704700BF4C0DFF1F084B7F2203EBC000E9
:1028600029B981785D39C9B2892001F065B98178CB
:102870005D39C9B2992001F05FB900BF4C0DFF1F4F
:1028800010B5114C04EBC004A3789B0701D549B9DE
:1028900010BDA1B906F0E0FB0028F9D0BDE810405A
:1028A00006F0E2B906F0D8FB0028F7D1A07880F056
:1028B0000400C0F38000BDE8104006F05BBA06F0EB
:1028C000CBFB0028E4D1F1E74C0DFF1F10B50C46FF
:1028D00006F0C2FB20B11CB1BDE8104006F086BA7C
:1028E00010BD00BF2DE9F041304F002482B03D46BD
:1028F000A04617F83430E6B2D3B1012B20D0E978E6
:10290000304601F00101FFF771FF6B68002814BF2A
:102910007F2200229A420BD06B786A60013B032B26
:1029200006D8DFE803F0382E240208B106F0E8F9F3
:102930000134062C05F10805DBD102B0BDE8F081B9
:1029400030468021FFF726FF6B6898420646EFD09D
:10295000EB786978A878CDF80080F2B26E60013427
:1029600006F00AF8062C05F10805C2D1E5E7014694
:1029700001343046FFF784FF062C05F10805B8D175
:10298000DBE7014601343046FFF7A0FF062C05F1D6
:102990000805AED1D1E7014601343046FFF75CFFB0
:1029A000062C05F10805A4D1C7E700BF4C0DFF1F99
:1029B000014B03EBC00070474C0DFF1F034B13F896
:1029C0003000003018BF0120704700BF4C0DFF1FC2
:1029D00070B5074C002604F51075A17826700B061B
:1029E00002D4607803F0E8FA0C34AC42F5D170BD43
:1029F000BC27FF1F114A70B4FF2002F5806600213A
:102A00004FF07E550324134603F83C0D187199606E
:102A100019731D6103F8144F9342F7D103F140027B
:102A2000B242F0D1002306491A46CA540C33B3F51A
:102A3000107FFAD170BCFFF7CBBF00BFB80DFF1FEE
:102A4000BC27FF1F38B5154C04F5107506E014F8C7
:102A5000030C03F055FA0C34AC421DD014F8042CCE
:102A6000531EDBB2002AF6D004F8043C002BF2D14E
:102A700014F8023C13F0800F1946E8D0227994ED47
:102A8000000A14F8030C03F07F010C3414F80D3C19
:102A900003F0AAFDAC42E1D138BD00BFC027FF1F43
:102AA0002DE9F84F2DED028B2B4E894600239C011A
:102AB0002949355D954203F1010305D0102BF6D16C
:102AC000BDEC028BBDE8F88F244D04F13C0716469F
:102AD0008046B0EE408AAA460F440C44A9F1800B10
:102AE0002379FF2B25D0D4F808E09E4208BFFF23AE
:102AF000BEF1000F24DD00210A4602E00132302A37
:102B000017D0685C0C310028F8D102EB4202D4EDFA
:102B1000047A217B0AF822E067EE887A0AEB8202C7
:102B20005944207D82F80180D3709170C2ED017A02
:102B300010721434BC42D3D1BDEC028BBDE8F88FC7
:102B4000217B94ED040A227D4944C9B228EE000A93
:102B5000404603F049FDECE77C0DFF1FBC27FF1F3B
:102B60002DE9F8431D4E884600239C011B49355D25
:102B7000954203F1010303D0102BF6D1BDE8F88391
:102B8000174D04F13C060746A9460E440C44237930
:102B9000FF2B16D0A068002818DD0022134602E0A3
:102BA0000133302B0DD0A95C0C320029F8D103EB96
:102BB0004303227B09F8230009EB830342445F703F
:102BC0009A701434B442E2D1BDE8F883217B4144C9
:102BD000C9B2384603F0F0F9F3E700BF7C0DFF1FE0
:102BE000BC27FF1F0F289ABF024B03EB8010002069
:102BF000704700BF7C0DFF1F034B8001185CFF383E
:102C000018BF0120704700BF7C0DFF1F0B4B8101D7
:102C1000FF2230B408465A543C31194418444FF04E
:102C20007E5500230324027183600373056100F85D
:102C3000144F8842F7D130BC704700BF7C0DFF1F96
:102C4000FFF7E4BF8001054B01EB810100EB81013F
:102C500019440879FF3818BF012070477C0DFF1F09
:102C600080010A4B01EB810100EB8101194410B492
:102C70000023FF2403224FF07E500C710A750B7362
:102C800008618B605DF8044B704700BF7C0DFF1F2F
:102C900030B5094D094C2B68226883B00093009B26
:102CA0009B1AB3F5FA7F05D312F0E0F82B68019375
:102CB000019B236003B030BD6C63FF1F182AFF1F08
:102CC000014B18783FF08EB8AF27FF1F064B07491E
:102CD00053F82020096810B4002443F8204001FB79
:102CE00002F05DF8044B70470C2AFF1F8011FF1F94
:102CF00008B538B1074B18783FF072FAB0FA80F097
:102D0000400908BD044B18783FF06AFAB0FA80F029
:102D1000400908BDB627FF1FAE27FF1F0346024A22
:102D20000021105CD1547047042AFF1F064A137813
:102D30000F2B07D810B4591C044C117044F8230011
:102D40005DF8044B704700BF002AFF1F1C2AFF1FBD
:102D500070B5044680B3224E224D337855F82300D7
:102D6000844236D0FF2B19D133701F4B187868B1CD
:102D70002B689C422ED01B4A002303E052F8041F0C
:102D80008C4210D00133DBB28342F7D11749184A85
:102D900000230B604B601370537070BD002132F044
:102DA00021FCFF23E0E7FF2B3370EFD055F8230021
:102DB000012132F017FCE9E7094D2B78FF2B0CD0ED
:102DC000084A214652F8230032F00CFCFF232B70F6
:102DD000DCE770BD00233370E8E72B70D6E700BF57
:102DE0007C11FF1F1C2AFF1F002AFF1F0C2AFF1F38
:102DF000042AFF1F054B1B78834202D80020FFF7EF
:102E0000A7BF034B53F82000FFF7A2BF002AFF1F04
:102E10001C2AFF1F70B5FF20FFF7ECFF094E0A497F
:102E20000A480B4C0B4B0022FF250A704A700260C7
:102E300042603270257003F1400143F8042F8B4249
:102E4000FBD170BD002AFF1F042AFF1F0C2AFF1FA1
:102E50007C11FF1F182AFF1FF8B5264E377887B15F
:102E6000254D2B68834201463DD02B46002403E0CC
:102E700053F8042F8A4205D00134E4B2BC42F7D1A2
:102E8000F8BDF8BD0846002132F0ACFBFF2C2FD076
:102E900030780138C0B2A042307088BF234607D9CD
:102EA0005A1C55F8221045F82310D3B29842F7D88F
:102EB000124A13780021FF2B45F8201012D0A342AC
:102EC00003D0DED9013B1370F8BDFF231370002837
:102ED000D7D00138A042A8BF2046C0B2BDE8F84014
:102EE000FFF788BFF8BD002132F07CFB0024CFE75C
:102EF000F8BD00BF002AFF1F1C2AFF1F7C11FF1F07
:102F00002DE9F04F6D4C81B03FF07EF92368C01A77
:102F1000632802D801B0BDE8F08F3FF075F9684F23
:102F2000684EDFF8B8A1DFF8AC9120600025BB4601
:102F3000A8461AF8010B36F8024B3FF051F940EA67
:102F4000440080B2B0F5704F61D026F8020C013514
:102F5000042D0BF1040BECD15B4D2B78002BD9D059
:102F6000DFF87C813A68D8F80030584E002403FB23
:102F700002F3A3423C6054DD0120FEF76BF8337886
:102F8000FF2B40F097802B784FF0010A9C427BD3B7
:102F90002046FFF72FFF7B68D8F80040002004FB95
:102FA00003F4786064B13378FF2BB3D02A789A4267
:102FB00084BF474A52F8230032F02EFB00283ED14E
:102FC00033782A789A42A5D9414A52F82340002CF6
:102FD000A0D0204632F020FB00289BD0236820465A
:102FE000DB6B9847002895D03A4B5A7800215970EE
:102FF000002A8FD0236820460121DB689847236888
:103000001B692046012101B0BDE8F04F1847012D92
:1030100026F8028C29D909EB0503012103F8021CCB
:1030200095E7B8D02046FEF715F83378FF2B3BD054
:10303000FF244FF0FF3A1C44E4B22B78A6E7002CA3
:10304000D4BF00200120FEF71DF833782A789A4279
:1030500008D91F4A52F82300036821469B6B0122BE
:103060009847ADE700231B68FFDE1B4B585D3FF020
:10307000B7F8DBF8003000280CBF4FF0FF3101211A
:103080000B44CBF8003062E7DFF8449059F8240095
:1030900032F0C2FA00287FF47BAF54442B78E4B2BC
:1030A000A3427FF675AFF1E72B785C1EE4B24FF0D8
:1030B000FF3A6BE70124A246BDE700BF142AFF1FB9
:1030C0000C2AFF1F8411FF1F002AFF1F7C11FF1F06
:1030D0001C2AFF1F042AFF1F082AFF1FFC29FF1FAD
:1030E0008011FF1F2DE9F047474FDFF84C913878EA
:1030F000464C474EDFF84481464D00213FF07EF8B4
:1031000099F8000000213FF079F8207800213FF085
:1031100075F8307800213FF071F898F80000002130
:103120003FF06CF8287800213FF068F8FEF7E6FBE6
:10313000002845D1DFF808A101469AF800003FF0C9
:103140005DF89AF80000344902223EF0CFFD334B7F
:10315000334999F8000098F800C03278187083F865
:1031600001C03048304B97F800E026782F784A703D
:1031700000254FF6FF72056081F800E0CF708E7079
:103180001A805A809A80DA80FFF7BAFE2078214CA4
:103190003FF026F8D8B10021312031F075FE234CE4
:1031A000002814BF4FF0FF3301232360FEF7A6FB76
:1031B00010B123685B422360BDE8F047FFF72ABEE9
:1031C0001B4B1549187802223EF090FDBFE720788E
:1031D0003FF006F804460028DDD1164B4FF4FA7292
:1031E00018784FF47A713DF095FC2146312031F08A
:1031F0004BFE80F00101C9B22246312031F076FE4B
:1032000031F014FDC7E700BFA927FF1FAE27FF1F3E
:10321000B027FF1FB627FF1F912C0000082AFF1FB1
:10322000FC29FF1F142AFF1F8411FF1F8011FF1F9D
:10323000AF27FF1FA427FF1F9C27FF1F9E27FF1FED
:10324000B827FF1F0020FFF783BD00BF054B064ACC
:103250001B7812789A4286BF044A52F82300002055
:10326000704700BF7C11FF1F002AFF1F1C2AFF1F91
:10327000034A044B10781B78834298BFFF207047A5
:103280007C11FF1F002AFF1F38B505460024E0B25D
:103290000021013402F0A8FE102CF8D104F0DCFD6E
:1032A0002846BDE8384005F045BF00BF014B1878FF
:1032B000704700BFA22AFF1F014B00221A707047FF
:1032C000A22AFF1F38B505460024E0B22946013482
:1032D00002F08AFE102CF8D10549064B00220A8024
:1032E00003F1400123F8022F8B42FBD138BD00BF10
:1032F000AC2AFF1F5A2AFF1F2DE9F041002705467F
:103300000E463C4602E00137102F1AD05FFA87F8CC
:10331000404602F0FFFBA842F5D14046314602F09C
:1033200063FE094A380202F1400132F9023F03F418
:103330007F43984208BF14808A42F6D10137102F8C
:10334000E4D1BDE8F08100BF5A2AFF1F164A0E28BB
:10335000F8B5B2F90020C4BF0F26304642FA00F299
:103360001F46D8BF0646D3070D4610D50F49002289
:1033700002E00132202A0AD031F9024F002CF8D1A4
:1033800001350B4B05EB002023F81200F8BD294650
:10339000304602F011FE07B9F8BD29463046BDE8B7
:1033A000F84004F04DBB00BFAC2AFF1F5A2AFF1F94
:1033B0005C2AFF1FFFFFFFFF70B52DED028B82B06F
:1033C0000192002A64D00E2804460E461D4621DCD8
:1033D000002864D10DBBDDED017A9FED397AF8EE5E
:1033E000677AF4EEC77AF1EE10FA22D517EE900A5A
:1033F00042F0FAFF41EC100B41F0EAF92046B0EE42
:10340000408AF0EE608A00F0F5FCA8B102B0BDEC95
:10341000028B70BD0F24002DDDD005F02FFE00289B
:10342000D9D005F031FEA042D5D1012005F0A2FC93
:10343000D1E79FED1F0BDFE71FA3D3E9002351EC7A
:10344000180B43F04FF943F01BFB032208EE100A60
:1034500000EE100A3146204603F02EFA002DD5D09A
:10346000204600F0A5FCDFED167A28EE000A314672
:1034700020EE270A2046FCEEC07ACDED017A9DF8B9
:10348000042002B0BDEC028BBDE8704004F044BAE9
:1034900002B0BDEC028BBDE87040FFF757BF0928B2
:1034A00098D1A1F123032E2B94D9AFE7AFF300807D
:1034B0000000000000C05F40422E60947260134024
:1034C0000000FE420E2870B5D4BF04460F241646F5
:1034D00020460D4605F0B2F906B970BD29462046D2
:1034E000BDE8704004F0B4BB0E282DE9F041C8BF20
:1034F0000F241E46434BD4BF04462046782919703A
:1035000057D026D979290BD07B294CD13E4BB3F922
:10351000001041FA00F010F001016DD0BDE8F0811B
:103520004021204633460022FFF7DEFF00212046DF
:1035300005F0E4FA002EF1D06421204604F00CFBE3
:10354000204600F03DFC01462046BDE8F04104F075
:1035500029BB402927D13F2A2B4945D80A882B4C23
:103560000123834022EA03030B80070204F1400594
:103570004FF0000801E0A54213D034F9020F00F427
:103580007F430028F7D09F42F5D1411EC9B2C0F356
:10359000072033460022FFF7D9FEA542A4F8008099
:1035A000EBD1BDE8F08133462046BDE8F04105F09F
:1035B000D7BA154D154A29880123834021EA030310
:1035C0002B80000202F14001002532F9023F03F492
:1035D0007F43984208BF15809142F6D120460121D1
:1035E000BDE8F04102F000BD0B88012202FA00F0B4
:1035F00003430B80BDE8F0812046BDE8F04102F0B6
:10360000F3BC00BFA22AFF1FAC2AFF1F5A2AFF1FCC
:1036100038B500240023E0B21A4678210134FFF7C0
:1036200063FF102CF6D1002040F04AFA38B1002098
:1036300040F046FA0028F6D101E03FF093FA3FF05F
:103640007DFA04460028F8D10A490B4B0B4A0C4D71
:1036500008781C7021465C709C7014702C703EF0D1
:10366000B9FD084B214618783EF0B4FD064B1C60AE
:1036700038BD00BFA127FF1FA82AFF1FA72AFF1FD1
:10368000A02AFF1FB127FF1F9C2AFF1F0E282DE92C
:10369000F0410D4690461ADD0F2426460F460023C2
:1036A0007B2120461A46FFF71FFF2946204602F0DD
:1036B0007DFBB8F1000F03D02946204604F014FA30
:1036C0003A4631460120BDE8F04111F0B1BD044653
:1036D000064608B92F46E2E70928FBD12E2903D870
:1036E00081F080052F46DAE780273D46D7E700BF07
:1036F00006EE901ADFED1A7A9FED1A7AFAEEE96A71
:1037000030B5E6EEA77A0E2883B0D8BF0446F4EEB3
:10371000C77AC8BF0F24F1EE10FA0091154610D5F4
:10372000F5EEC07AF1EE10FA13D80021204605F02C
:103730006BF865B10099204603B0BDE8304004F055
:1037400067BA7F21204605F05FF8002DF2D103B063
:1037500030BDFCEEE77ACDED017A9DF80410F1E77B
:10376000000080420000FE4270B5FFF751FF0125C6
:10377000002602E00135EDB20136F4B200231A460C
:1037800020467821FFF7B0FE002320461A46792113
:10379000FFF7AAFE0022092E1146204615D0FFF79A
:1037A00075FF002211462046FFF7A2FF00232046A6
:1037B0001A460121FFF798FE102DDBD10B4B00229A
:1037C0001A70BDE8704011F051BB304600228021D4
:1037D000FFF75CFF002211463046FFF789FF002308
:1037E0001A4601213046FFF77FFEC3E7A22AFF1FDA
:1037F00008B5074B187018B9BDE80840FFF7B4BF0B
:10380000FFF706FF0020BDE80840FFF75BBD00BFE3
:10381000A12AFF1F08B505F025FC00B908BD05F079
:103820001BFC0028FAD0BDE8084005F0DFBA00BF55
:1038300008B505F017FC00B908BD0020BDE8084038
:1038400005F098BA08B505F00DFC00B908BD0120D7
:10385000BDE8084005F08EBA70B552490878A0F16D
:10386000800300F00F007F2B45D8DFE803F07D7D5B
:103870007D7D7D7D7D7D7D7D7D7D7D7D7D7D84846A
:103880008484848484848484848484848484454576
:1038900045454545454545454545454545458B8B4C
:1038A0008B8B8B8B8B8B8B8B8B8B8B8B8B8B777790
:1038B00077777777777777777777777777774545FC
:1038C0004545454545454545454545454545686862
:1038D00068686868686868686868686868684444B0
:1038E0005744444444644B444F534044449205F08D
:1038F000B9FB002851D170BD49780122BDE8704064
:10390000FFF7E0BDBDE87040FFF784BFBDE8704041
:10391000FFF78EBFBDE87040FFF794BF8D784C78FD
:1039200005F0A0FB0028E6D004EB052080B2BDE83E
:103930007040FFF7A9BC1C4B00221A7070BD8B7839
:103940004A78D90101F47E5302F07F011944A1F5B0
:1039500000510122BDE87040FFF7CABE497801223C
:10396000BDE87040FFF792BE8A7849780123BDE830
:103970007040FFF7EBBC8A7849780123BDE87040BE
:10398000FFF71ABD8A7849780123BDE87040FFF738
:10399000ABBDBDE87040FFF7E7BEBDE8704005F085
:1039A00063B900BFA82AFF1FA72AFF1F2DE9F04116
:1039B000544B1C7882B0002C40F08880524D534EFE
:1039C0002F4611E032782A7002F0F000F0280878D3
:1039D000197804D09EF80030013B13433B706870A7
:1039E000A9700124FFF738FF002040F069F8DFF8E4
:1039F00044E14749474B0028E4D1434D464E2F460A
:103A000011E0327872B92A78DFF8FC80434C002A42
:103A10003DD021784A1CD2B27B542270404B1B7897
:103A2000934229D001243FF089F8002839D03FF093
:103A300099F80206C3B2E4D5F02B4FD0327836495C
:103A40002AB1F72B45D0EF2B40D800223270334CEF
:103A50002B7000220121DF2B21706A70AA70DFF821
:103A6000A88016D8C02B1AD2802B14D201232C493F
:103A7000012293420B70D5D1FFF7EEFE98F800308B
:103A80000122EF2B2270CDD900232B70CAE72278B8
:103A9000C4E7EF2BEAD8224B03221A70C2E70223B5
:103AA000E5E70CBB1F4D2B6883B11F4A12680192DA
:103AB000019A93420AD21D4B214618783EF08AFBA8
:103AC0001B4B214618783EF085FB2C6002B0BDE808
:103AD000F08100230B7002B0BDE8F0810E4B012293
:103AE0001A7002B0BDE8F081104B012118783EF049
:103AF00071FB0D4B0B4A1B680093009B3233136024
:103B0000E4E700BFA12AFF1FA82AFF1F0367FF1FCA
:103B10000167FF1F0067FF1FA72AFF1FA02AFF1FC3
:103B20008C11FF1F9C2AFF1F6C63FF1FA127FF1F23
:103B3000B127FF1F0267FF1FF8B50A4C0A4DA37893
:103B400027786678AB706170A27020702F706E70ED
:103B5000FFF782FE29786A78AB7821706270A370D3
:103B6000F8BD00BFA82AFF1FA42AFF1F00B5F83820
:103B700083B004280BD8DFE800F0290A03211900DC
:103B80004FF60F203FF038FFFA203EF019FF134B9D
:103B9000012118783EF01EFB114B124A1B6801935D
:103BA000019B0133136003B05DF804FB4FF60F4037
:103BB0003FF022FFFC203EF003FFE8E74FF60F3016
:103BC0003FF01AFFFB203EF0FBFEE0E74FF60F0050
:103BD0003FF012FFF8203EF0F3FED8E7B127FF1FB9
:103BE0006C63FF1F9C2AFF1F70B5114D114C287884
:103BF000114E01213EF002FB207801213EF0FEFA39
:103C000028780E4D00213EF0E5FA207800213EF0A4
:103C1000E1FA0B4A0B480023012447F612213370C6
:103C20002B7014703CF00AFEBDE87040FFF79CBD9D
:103C3000A127FF1FB127FF1FA02AFF1FA72AFF1FD1
:103C40008C11FF1FD019FF1F38B504460D46C9B1AE
:103C500007EE901A9FED1A7AF8EE677AF4EEC77ABB
:103C6000F1EE10FA1AD49FED120B40F0B1FD12A341
:103C7000D3E9002351EC100B42F034FD42F000FF79
:103C8000024600E000220F4B0F4903EB84030D5561
:103C900020461A60BDE8384002F03CBA17EE900AA0
:103CA00042F0A2FB41EC100BDFE700BFAFF3008056
:103CB0000000000000C05F40422E6094726013401C
:103CC0000000FE42E42AFF1FC42AFF1F10B4064A68
:103CD000145C8C4204D011545DF8044B02F07CBAA1
:103CE0005DF8044B704700BFB02AFF1F034B195407
:103CF00001B97047012102F077B900BFD42AFF1F34
:103D0000F8B5104E104D30700024034627460FE0E2
:103D1000834214BF012300234FF001012B7001D017
:103D200002F062F90134102C05F1010509D0337855
:103D3000FF2BE0B2ECD10134102C2F7005F10105FE
:103D4000F5D1F8BDC02AFF1FD42AFF1FF0B500230C
:103D50000E4E0F4D0F4C10481049DFF844C01A4664
:103D60004FF0640E40270133102B06F801EF45F8A1
:103D700004CB04F8017F00F8012F01F8012FF2D1E4
:103D8000FF20BDE8F040FFF7BBBF00BFC32AFF1F05
:103D9000E42AFF1FAF2AFF1FD32AFF1F232BFF1F79
:103DA000CDCC4C3F014B185C704700BFC42AFF1FAD
:103DB000024B03EB800090ED000A7047E42AFF1FDE
:103DC000014B185C704700BFB02AFF1F034B185C03
:103DD0004F288CBF00200120704700BFB02AFF1F72
:103DE000034B185C2F2894BF00200120704700BFB0
:103DF000B02AFF1F014B185C704700BFD42AFF1F79
:103E0000034B1B78181AB0FA80F04009704700BFC6
:103E1000C02AFF1F014B1878704700BFC02AFF1F40
:103E2000024A135C01331354704700BF242BFF1F59
:103E3000034A135C013B23EAE3731354704700BF4A
:103E4000242BFF1F014B00221A547047242BFF1F05
:103E5000014B185C704700BF242BFF1F054B185CFB
:103E60004F2804D82F2894BF00200120704702203B
:103E7000704700BFB02AFF1F30B4084C002004F187
:103E800010052246111B12F8013B003318BF012315
:103E90008B40AA421844F5D130BC7047242BFF1F39
:103EA000F8B5204C204F2078204E214D01213EF0C6
:103EB000A5F9387801213EF0A1F9307801213EF0D2
:103EC0009DF9287801213EF099F91A4B01211878C3
:103ED0003EF094F9207800213EF07CF938780021FA
:103EE0003EF078F9307800213EF074F9287801210D
:103EF0003EF070F9207800213EF06CF9FDF7FEFCF1
:103F00000D4B002814BF012200221A7004D10B4867
:103F1000BDE8F84035F0BCB80948BDE8F84035F0D8
:103F2000B7B800BFA227FF1FA327FF1FA727FF1FA8
:103F3000A027FF1FB527FF1FA62DFF1F4C19FF1F2E
:103F40008C19FF1F952811D8802855D235281FD8E5
:103F500020284BD2042844D036D905285DD0082823
:103F600056D106200C23087013707047BD2859D015
:103F70001CD8A0284CD3A82859D9A0F1B003082BED
:103F800046D800F00F00093005230B701070704701
:103F900040283DD3552835D9A0F16003152B37D8DB
:103FA00000F01F0002230B7010707047C0282FD341
:103FB000C82810D9A0F1E003152B29D800F01F0064
:103FC00004230B7010707047012821D106200923AB
:103FD00008701370704700F00F0006230B7010700C
:103FE000704706200A2308701370704700F01F0006
:103FF00000230B701070704700F01F0003230B703C
:104000001070704700F01F0001230B701070704794
:1040100006200F2308701370704706200B230870CA
:104020001370704706200D2308701370704700F05E
:104030000F0005230B701070704700BF2DE9F04191
:1040400082B00D468046144608460DF107020DF178
:104050000601FFF777FF9DF806309DF80710062B45
:104060006FD003EB43039322374E3848384F007824
:10407000C3EBC30302FB08333344364E5C54C8F32E
:1040800040013EF0A7F8344B08F0010118783EF0EB
:10409000A1F8387800213EF09DF83378002B3CD011
:1040A0002E4B1A684FF00043D3625563D36A002B3E
:1040B000FCDA2B4D936B287800214FF4F0783EF01A
:1040C00089F84346013BFDD1012128783EF082F872
:1040D000B8F10108FCD1012138783EF07BF8337843
:1040E0002BB31E4B1A684FF00043D3625463D36A5C
:1040F000002BFCDA2878936B00214FF4F0743EF02B
:1041000069F82346013BFDD1012128783EF062F891
:10411000013CFDD102B0BDE8F081124B1A684FF0AE
:104120000043D3625563D36A002BFCDAC1E70D4B21
:104130001A684FF00043D3625463D36A002BFCDA51
:10414000D8E70F298DD1E5E74C2BFF1FA727FF1FCD
:10415000A227FF1FA62DFF1FA327FF1F8C19FF1FDC
:10416000A027FF1F4C19FF1F2DE9F0472D4B2E4FA5
:104170002E4DDFF8C490A3FB00235B0803EBC302C2
:104180002DED028B821A08462B700E46F0EE408A07
:104190003A7001F085F80230C0B2254B9FED258AB8
:1041A00013F800804FF0000A5FFA8AF421460122DA
:1041B000304600F05BFE48FA0AF1C34311F0010FEC
:1041C000024603F03F03287804F0010414D007EE00
:1041D000903AF8EEE77A02F0C00287EE887A68EE4D
:1041E000C77AB0EE487AA7EE887AFCEEC77A17EE67
:1041F000903A52FA83F2D2B23B78BAF1010F09EB4E
:10420000C40188BF03330C440AF1010AE15C403168
:10421000C9B2FFF713FFBAF1040FC5D1BDEC028B91
:10422000BDE8F087398EE3383C2BFF1FA52DFF1F1B
:1042300034CD040000007C4274CD04002DE9F04F21
:10424000DFF858B1DBF8002083B0002A00F0988036
:104250004D4E3168002900F093804C4BDFF840A1AF
:10426000186800900098DAF80040844200F28480D8
:10427000474C206881422FDD175C431C2360FFB14F
:104280000025A14603E0DBF80020D9F80030D05C1F
:10429000DFF8FC80591C216003F1020C515CC4F86A
:1042A00000C012F80C20033301352360FFF7C6FE6F
:1042B000EAB29742E7D8D8F80030DBF8002031683E
:1042C0003248D55C0068019001985A1C28448A4203
:1042D0002260CAF800004FDB2E4A2F4C12780521CD
:1042E0000120FFF7ABFE227820210020FFF7A6FE79
:1042F000627840210020FFF7A1FEA2786021002013
:10430000FFF79CFEE27880210020FFF797FE2279DC
:10431000E0210020FFF792FE627923210020FFF7C1
:104320008DFEA27943210020FFF788FEE279632108
:104330000020FFF783FE227A83210020FFF77EFE14
:10434000627AE3210020FFF779FE227BC021002062
:10435000FFF774FEA27AA0210020FFF76FFEE27A39
:10436000B0210020FFF76AFE00220120CBF80020D8
:10437000326003B0BDE8F08F002003B0BDE8F08FDD
:10438000012003B0BDE8F08F382BFF1F6C63FF1FC7
:10439000482BFF1F342BFF1F982DFF1F402BFF1FA3
:1043A000442BFF1FF8B5274F397000283DD1002658
:1043B00000252A4606E03F3C152C05F101058CBF7F
:1043C00000223F22ECB221463046FFF737FEFE2D99
:1043D000F1D10136F6B2042EEAD13A78012A8CBF27
:1043E0000022012205210120FFF728FE3A78012A48
:1043F0008CBF0022012205210320FFF71FFE40226F
:1044000008210120FFF71AFE402208210320FFF7B0
:1044100015FEC022BD210120FFF710FEC022BD21E4
:104420000320BDE8F840FFF709BE074C00212078C3
:104430003DF0D0FE01203DF00BFF207801213DF042
:10444000C9FEB4E7A72DFF1FB527FF1F2DE9F047D1
:10445000374C384F384EDFF8F090A4FB0034640836
:104460002DED028B04EBC403C01AC3B282B0A3F1DA
:104470004000E4B2154688460DF107020DF1060131
:10448000C0B23B703470F0EE408AFFF75BFD9DF8E0
:1044900006302A4A9FED2A8A03EB43039321C3EB9C
:1044A000C30301FB043313449DF80710254A5B5CEA
:1044B00003F001036D0012F803A0EDB200242919E6
:1044C000C9B20122404600F0D1FC4AFA04FEC343BF
:1044D00004EBC4011EF0010F024603F03F0397F8FE
:1044E00000C03078494404F1010414D007EE903A3A
:1044F000F8EEE77A02F0C00287EE887A68EEC77AB3
:10450000B0EE487AA7EE887AFCEEC77A17EE903ABA
:1045100052FA83F2D2B211F80C104031C9B2FFF74F
:104520008DFD022CCBD102B0BDEC028BBDE8F08733
:10453000398EE3383C2BFF1FA52DFF1F4C2BFF1F8F
:1045400000007C4234CD040074CD0400F0B583B08B
:1045500005460E46144608460DF107020DF1060108
:104560001F46FFF7EFFC9DF806100B4A9DF8070069
:1045700001EB41019323C1EBC10103FB0511114480
:1045800024EA07020B5C1F40314628463A43FFF7F6
:1045900055FD03B0F0BD00BF4C2BFF1F2DE9F04FC0
:1045A000314BDFF8CC80314FDFF8C890A3FB0043DC
:1045B0005B0803EBC304001B83B08A46C1B2D8B2C8
:1045C000019288F80010387055460026F400A319AF
:1045D00009EB030BAA781BF801102031C9B2FFF7D1
:1045E0002DFD019B002B34D134444C4498F800300D
:1045F0002A79E15C38786031C9B2FFF71FFD98F87D
:1046000000306A79E15C387881F08001FFF716FDAF
:1046100098F80030AA79E15C387820390136C9B2BF
:10462000FFF70CFD022E05F1050504D00F4B18789D
:104630000F4B1978CAE70E4B9AF8012019780B4BEB
:1046400040391878C9B2F02303B0BDE8F04FFFF746
:104650007DBF98F80010EA781BF8011038784031D7
:10466000C9B2FFF7EBFCBFE7398EE338A52DFF1F7A
:104670003C2BFF1F74CD0400F8B5B5EE400AF1EEF7
:1046800010FA2DED028B04460D4625D15E2941DD41
:1046900087251E22564B574F574EA3FB04135B082A
:1046A00003EBC30ECEEB04045FFA84FEAEF15001BF
:1046B000DCB22046C9B2E02387F800E03470FFF78F
:1046C00045FFBDEC028B3978307860392A46C9B293
:1046D000BDE8F840FFF7B2BCB5EEC00AF1EE10FA43
:1046E000B0EE408A10EE100A58DB41F07DFE41EC3E
:1046F000100B3FF07DFF51EC100B42F079F90544AF
:104700005E2D1EDC002D54DC4FF4AB7529460022D3
:1047100001231BE000295FD0384A394BA2FB051268
:10472000D20802EB4201A5EB8105EDB20135920002
:1047300053F8255002F01C02C5F301231A44EDB2D0
:10474000A8E740F2872529461C220C2307EE900A91
:10475000F8EEE77A38EE678AB5EE408AF1EE10FAA5
:1047600017D0B5EEC08AF1EE10FA38DD01332448D7
:1047700050F823305B1A07EE103A07EE905AB8EE65
:10478000C77AF8EEE77AE8EE077AFDEEE77A17EEF9
:10479000905AC5F301231A44EDB27BE741F024FEA1
:1047A00041EC100B3FF094FE51EC100B42F020F95D
:1047B000A5E7124A1249EDB2A2FB0532D20802EB7C
:1047C0004203A5EB83056B1CDBB2920051F823106A
:1047D00002F01C020D46B9E7562501225AE7013BBB
:1047E000074850F82330CB1A07EE103AC5E700BF50
:1047F000398EE3383C2BFF1FA52DFF1FABAAAAAAB9
:104800003CCD04000C4BA3FB0023F0B45B0803EB8E
:10481000C3050A4F0A4E401BC5B2DCB200293D70E9
:10482000A5F1500120463470C9B214BF20220022E5
:10483000DF23F0BCFFF78ABE398EE3383C2BFF1F25
:10484000A52DFF1F1D4BA3FB00235B082DE9F041A5
:1048500003EBC304001B1A4E1A4DC4B2D8B2347015
:10486000287041B90A46A4F15001C9B21F23BDE81E
:10487000F041FFF76BBE144F395D4031C9B2C02320
:104880003F22FFF763FE327828783A44C023517AFA
:104890004031C9B23F22FFF759FE317828785039AC
:1048A000C9B20022FFF7CAFB317828786039C9B253
:1048B0000022BDE8F041FFF7C1BB00BF398EE338ED
:1048C0003C2BFF1FA52DFF1F74CD04000C4BA3FB39
:1048D00000239B0803EB4303A0EB43030122DBB25D
:1048E00002FA03F30628DAB26FEA020334BF0120AA
:1048F00003200029DBB208BF00220421FFF726BEF7
:10490000ABAAAAAA114B1B78012B00D97047104BF8
:10491000F0B4A3FB00435B0803EBC305401B002975
:104920000C4F0D4EC5B214BF10200020002ADCB27F
:10493000A5F1400114BF202200223D7002443470D2
:104940002046C9B2CF23F0BCFFF700BEA72DFF1F42
:10495000398EE3383C2BFF1FA52DFF1F2DE9F043B7
:10496000364D2B6883B00446002B5FD0DFF8EC9007
:10497000334FD9F800300093DFF8E480314E009ACD
:104980003B68C8F800203360FFF758FC2C602378A0
:104990006278D9F8001001912B49DFF8C8E001983E
:1049A000C8F80000002403EB0223204622463B60A7
:1049B0000C700225DF23B0218EF800403560FFF730
:1049C000C5FD224B224D1B78012B8CBF00230123F8
:1049D0002246052101202B70FFF730FB1D4A1E4B9C
:1049E0001778567D92F82A5092F83F4092F854007A
:1049F000D1781F705E70177E92F82D609D70DC700C
:104A000092F8425092F857401871597192F8690023
:104A100092F8721092F87E209F71DE711D725C72A6
:104A20009872D9721A7303B0BDE8F083054E044F33
:104A3000DFF82890DFF82880A8E700BF402BFF1F91
:104A4000382BFF1F482BFF1FA52DFF1FA72DFF1F72
:104A5000342BFF1F4C2BFF1F982DFF1F6C63FF1F74
:104A6000442BFF1F3C2BFF1F10B5FFF777FFFFF70D
:104A7000E5FB044601203DF0EBFB002CF7D010BD18
:104A80002DE9F04F404C414F414E424DDFF808A117
:104A9000A4FB0034640804EBC403C01AC3B283B09F
:104AA000F85C3370E4B280F080000DF107028846B4
:104AB0000DF106012C70FFF745FA9DF806303278AB
:104AC0009DF807E095F800903A4403EB43034FF05C
:104AD000930BC3EBC303507A0BFB043353440DF128
:104AE00007020DF1060180F0800013F80E40FFF779
:104AF00029FA9DF806209DF8071002EB4202C2EB4E
:104B0000C2020BFB0922924404F00F041AF80120A0
:104B100002F00F03A342A8BF23465BB1013BDBB207
:104B20004FF4005242FA03F3984507DA002003B02D
:104B3000BDE8F08F4FF400539845F7DB33782878C1
:104B4000F95C4031C9B2C0233F22FFF7FFFC337844
:104B500028781F443F22797A4031C023C9B2FFF739
:104B6000F5FC317828785039C9B20022FFF766FA8F
:104B7000317828786039C9B20022FFF75FFA012046
:104B800003B0BDE8F08F00BF398EE33874CD040068
:104B90003C2BFF1FA52DFF1F4C2BFF1F014B18782F
:104BA000704700BFA72DFF1F034B187801288CBF4B
:104BB00000200120704700BFA72DFF1F10B504463D
:104BC000806920B10C213CF0F3FF0023A361E06970
:104BD00010B10C213CF0ECFF204610BDF0B585B0C3
:104BE0000546254968463CF0BFF86E1C002405E0E8
:104BF00001342020102C06F8010F0BD0029B9C42A0
:104C0000F6D2214668463CF03DFA0134102C06F8F5
:104C1000010FF3D1684600243CF066F83F27214697
:104C2000F02612E090691844817090691844C770AA
:104C30009069184401719069184446719069034461
:104C400099719369597093691970EB69E0B2002BFF
:104C500018BF4FF0040E00F0010308BF4FF0020E22
:104C600042084FEA830C704505EB8202634404F16D
:104C70000104D7D305B0F0BD80110500007870475E
:104C80000170704710B5023104463CF06DF82046C3
:104C900010BD00BF70B50E46451C002405E0013470
:104CA0002020102C05F8010F0BD0B3689C42F6D2DF
:104CB000214630463CF0E6F90134102C05F8010F8E
:104CC000F3D170BDC069003018BF0120704700BF2C
:104CD0000078C009704700BF2DE9F047334E344FCC
:104CE000C46996F800C097F80080002292461146E9
:104CF00015461EE01B791B0918BF45F001056346E8
:104D0000BEF1010F94BF4FF000084FF0010808F109
:104D1000060E03EB830350F82EE0734402335B78F6
:104D20004FF0010A03F03F033E2B98BF41F0010111
:104D300052445FFA82FEC4B1BEF1030F27D80EF0D1
:104D4000010C04EB8C03BEF1010F6344D2D88369DC
:104D50000EEB8E0C9C4473469CF804C05FEA1C1C4E
:104D600018BF45F00105F446CAE7BEF1010F0EEB8E
:104D70008E090CD883694B440233F44693F802E061
:104D80005FEA1E1E18BF45F00105A046C7E7BAF14D
:104D9000000F05D1002D14BF08460020BDE8F087A4
:104DA00087F8008086F800C0F4E700BFA82DFF1F39
:104DB000A92DFF1FC369002B14BF042002207047D8
:104DC0004078704743788B420ED070B504460D464C
:104DD000617011B1C56945B170BDC069A0B10C2148
:104DE0003CF0E6FEE56170BD70470C203CF0DCFE57
:104DF000294606460C2242F07DFAB01C0A220349DD
:104E00003CF066FDE66170BD70BD00BF88CD04005A
:104E10002DE9F041144F002504460E46904607F157
:104E20000C014570112202303CF052FD00236361F9
:104E30002670A561E5610C203CF0B6FE29460646C9
:104E40000C2242F057FA0A223946B01C3CF040FDD1
:104E500041462046A661FFF7B5FF2046FFF7BEFE9C
:104E60002046BDE8F08100BF88CD0400C369002B57
:104E700030B40CBF02240424A14201D2052A02D975
:104E8000002030BC704715D0DBB1012994BF00244D
:104E900001242346063301F0010150F823300A4D66
:104EA0000A48297003EB810319441144047030BC93
:104EB000887870474908063130BC50F8213058785E
:104EC00070471C46E6E700BFA82DFF1FA92DFF1F56
:104ED00070B4C469002C14BF04250225A94201D274
:104EE000052A01D970BC704715D0DCB1012994BFE7
:104EF000002501252C46063401F0010150F824005C
:104F0000094E0A4C317000EB8100014411442570B8
:104F10008B7070BC70474C08063450F824406370A6
:104F2000C469E2E72546E6E7A82DFF1FA92DFF1F6C
:104F3000C3692BB101F00101063150F8210070471F
:104F40001946063150F82100704700BF4378012B05
:104F50000BD041B9063150F821301878030600D43F
:104F60007047802804D10020704701F00101F1E76B
:104F7000A0F58070704700BF90ED050A704700BF34
:104F8000C36910B4ABB1012994BF002201221346BA
:104F90000633094C50F82300084B01F00101217041
:104FA0008C00214401441A7088785DF8044BC009D4
:104FB00070471A46ECE700BFA82DFF1FA92DFF1F61
:104FC000C36910B4B3B1012994BF00220122134672
:104FD0000633094C50F82300084B01F00101217001
:104FE0008C00214401441A7088785DF8044BC0F3AA
:104FF000801070471A46EBE7A82DFF1FA92DFF1F51
:10500000C36910B4B3B1012994BF00220122134631
:105010000633094C50F82300084B01F001012170C0
:105020008C00214401441A7088785DF8044BC0F369
:10503000401070471A46EBE7A82DFF1FA92DFF1F50
:10504000C36910B4B3B1012994BF002201221346F1
:105050000633094C50F82300084B01F00101217080
:105060008C00214401441A7088785DF8044BC0F329
:10507000001070471A46EBE7A82DFF1FA92DFF1F50
:10508000C36910B4B3B1012994BF002201221346B1
:105090000633094C50F82300084B01F00101217040
:1050A0008C00214401441A7088785DF8044B00F0AC
:1050B0000F0070471A46EBE7A82DFF1FA92DFF1F11
:1050C000C36910B4ABB1012994BF00220122134679
:1050D0000633094C50F82300084B01F00101217000
:1050E0008C00214401441A70C8785DF8044B800993
:1050F00070471A46ECE700BFA82DFF1FA92DFF1F20
:10510000C36910B4B3B1012994BF00220122134630
:105110000633094C50F82300084B01F001012170BF
:105120008C00214401441A70C8785DF8044B00F0EB
:105130003F0070471A46EBE7A82DFF1FA92DFF1F60
:10514000C36910B4ABB1012994BF002201221346F8
:105150000633094C50F82300084B01F0010121707F
:105160008C00214401441A7008795DF8044B000951
:1051700070471A46ECE700BFA82DFF1FA92DFF1F9F
:10518000C36910B4B3B1012994BF002201221346B0
:105190000633094C50F82300084B01F0010121703F
:1051A0008C00214401441A7008795DF8044B00F02A
:1051B0000F0070471A46EBE7A82DFF1FA92DFF1F10
:1051C000C36910B4ABB1012994BF00220122134678
:1051D0000633094C50F82300084B01F001012170FF
:1051E0008C00214401441A7048795DF8044B000991
:1051F00070471A46ECE700BFA82DFF1FA92DFF1F1F
:10520000C36910B4B3B1012994BF0022012213462F
:105210000633094C50F82300084B01F001012170BE
:105220008C00214401441A7048795DF8044B00F069
:105230000F0070471A46EBE7A82DFF1FA92DFF1F8F
:10524000C36910B4B3B1012994BF002201221346EF
:105250000633094C50F82300084B01F0010121707E
:105260008C00214401441A7088795DF8044B00F0E9
:10527000070070471A46EBE7A82DFF1FA92DFF1F57
:10528000C36903B101B9836958784008704700BF0A
:10529000C36903B101B98369587800F00100704710
:1052A000C3694BB182695B7850785B0003F00203FD
:1052B00000F00100184470478369587800F001003D
:1052C000704700BF1AB14378012B0DD0704790F999
:1052D0000030002B43781CDB5E2925DD012B2FD00D
:1052E00083695F211970704790F90030002B24DB2F
:1052F0005E2925DC6FF05E039942B8BF194602F0C3
:1053000001020632002950F822301EDDC9B21970A0
:105310007047012B11D006325E2950F82230E0DCB4
:105320000029F3DC0021DDE711F15E0F0FDA012B1C
:1053300008D08369A1211970704702F00102EAE7E1
:105340005F21DCE76FF05E01D9E7CBD0DEE7012B10
:10535000D7D1D4E7F0EE007AB4EEE70AF1EE10FA16
:1053600008D5F8EE007AB4EEE70AF1EE10FA88BF3D
:10537000F0EE407AC0ED057A704700BF10B4C36903
:10538000C2B183B3012994BF002201221346063320
:10539000174C50F82300174B01F0010121708C00CD
:1053A000214401441A708B7863F07F038B705DF8A1
:1053B000044B7047CBB1012994BF00220122134650
:1053C00006330B4C50F823000A4B01F00101217009
:1053D0008C00214401441A708B7803F07F038B709A
:1053E0005DF8044B70471A46D1E71A46E8E700BF5C
:1053F000A82DFF1FA92DFF1F10B4C369C2B183B32D
:10540000012994BF0022012213460633174C50F89D
:105410002300174B01F0010121708C00214401444D
:105420001A708B7843F040038B705DF8044B704723
:10543000CBB1012994BF00220122134606330B4C45
:1054400050F823000A4B01F0010121708C00214427
:1054500001441A708B7823F040038B705DF8044B85
:1054600070471A46D1E71A46E8E700BFA82DFF1F8C
:10547000A92DFF1F10B4C369C2B183B3012994BF22
:105480000022012213460633174C50F82300174B15
:1054900001F0010121708C00214401441A708B78C5
:1054A00043F020038B705DF8044B7047CBB10129AA
:1054B00094BF00220122134606330B4C50F8230000
:1054C0000A4B01F0010121708C00214401441A7043
:1054D0008B7823F020038B705DF8044B70471A46DD
:1054E000D1E71A46E8E700BFA82DFF1FA92DFF1F2F
:1054F00010B4C369C2B183B3012994BF0022012251
:1055000013460633174C50F82300174B01F00101E6
:1055100021708C00214401441A708B7843F01003F1
:105520008B705DF8044B7047CBB1012994BF00220A
:105530000122134606330B4C50F823000A4B01F0AE
:10554000010121708C00214401441A708B7823F0F2
:1055500010038B705DF8044B70471A46D1E71A466A
:10556000E8E700BFA82DFF1FA92DFF1FC36910B4D6
:10557000FBB1012914D901F0010103EB81031248A9
:105580000B4401700233012110480170197802F0B8
:105590000F0221F00F010A441A705DF8044B7047A6
:1055A0008469094801EB810323440233017000211F
:1055B000EAE701F00101846903488B000B442344AE
:1055C00002330170F3E700BFA82DFF1FA92DFF1FB5
:1055D000C36910B4F3B1012913D901F001011248D4
:1055E00003EB81030B4401700233012059780F4C07
:1055F00001F03F0101EB82125A7020705DF8044BFC
:1056000070478469084801EB810323440233017029
:105610000020EBE701F00101846903488B000B4493
:10562000234402330170F3E7A82DFF1FA92DFF1FAC
:10563000C36910B4FBB1012914D901F00101134869
:1056400003EB81030B440170023301205978104CA5
:1056500002F03F0221F03F010A445A7020705DF8C9
:10566000044B70478469094801EB810323440233EA
:1056700001700020EAE701F00101846903488B0012
:105680000B44234402330170F3E700BFA82DFF1F32
:10569000A92DFF1FC36910B4F3B1012913D901F07B
:1056A0000101124803EB81030B4401700233012016
:1056B00099780F4C01F00F0101EB02129A702070E3
:1056C0005DF8044B70478469084801EB810323446B
:1056D000023301700020EBE701F001018469034807
:1056E0008B000B44234402330170F3E7A82DFF1F06
:1056F000A92DFF1FC36910B4FBB1012914D901F012
:105700000101134803EB81030B44017002330120B4
:105710009978104C02F00F0221F00F010A449A70A0
:1057200020705DF8044B70478469094801EB8103E0
:105730002344023301700020EAE701F0010184698B
:1057400003488B000B44234402330170F3E700BF8E
:10575000A82DFF1FA92DFF1FC36910B4F3B10129A4
:1057600013D901F00101124803EB81030B440170CE
:1057700002330120D9780F4C01F00F0101EB021226
:10578000DA7020705DF8044B70478469084801EBBB
:1057900081032344023301700020EBE701F0010193
:1057A000846903488B000B44234402330170F3E700
:1057B000A82DFF1FA92DFF1FC36910B4FBB101293C
:1057C00014D901F00101134803EB81030B4401706C
:1057D00002330120D978104C02F00F0221F00F01A2
:1057E0000A44DA7020705DF8044B704784690948F8
:1057F00001EB81032344023301700020EAE701F04A
:105800000101846903488B000B4423440233017077
:10581000F3E700BFA82DFF1FA92DFF1FC36930B4F8
:10582000ABB1012994BF0024012423460633094D5E
:1058300050F82300084B01F0010129708D00294424
:10584000014402F007028A711C7030BC70471C468C
:10585000ECE700BFA82DFF1FA92DFF1FC3694BB1A7
:1058600041B15978520002F00E0201F001010A44E0
:105870005A7070478369F4E7C3693AB103B101B95B
:1058800083695A7842F001025A70704703B101B936
:1058900083695A7822F001025A70704782695378FE
:1058A00011F0010F14BF43F0010323F00103537003
:1058B000C3692BB189075A7803D422F001025A70C8
:1058C000704742F001025A70704700BF2DE9F04F57
:1058D00047B28BB0064620200C463CF065F9002FFD
:1058E000054653DB002C0CBF02220022314628461D
:1058F000FFF78EFA514A00238DF8243002EB06128E
:1059000005AB09A812F8011B03F8011B8342F9D16A
:1059100005A901A83BF028FA01A92846FFF7BAF922
:1059200001A83BF0E1F9002F7EDB8CB30021284673
:10593000FFF7FEFA424B53F826800746002298F8FC
:1059400000102846FFF7BEFC4446781C08F105010C
:10595000BA1D002314F8016F00F8016F013311F82C
:10596000016F02F8016F042BF4D198F80A3003F0AC
:105970000703BB7198F80A30C3F30213FB7298F85F
:1059800005307B7028460BB0BDE8F08F0022ADE7F4
:1059900021462846FFF7CCFA012180462846FFF72A
:1059A000C7FA284B53F82660074622463178284626
:1059B000FFF788FCB24606F1050906F10A0C06F16C
:1059C0000F0E08F1010008F106017A1CBB1D1AF840
:1059D00001BF00F801BF19F801BF01F801BF1CF8B1
:1059E00001BF02F801BF01341EF801BF03F801BF77
:1059F000042CECD1B37A03F0070388F80630B37AAD
:105A0000C3F3021388F80B30737988F80130337DC3
:105A10001B11BB71337D03F00F03FB72F37B7B70B3
:105A200028460BB0BDE8F08F00212846FFF780FA2A
:105A3000803E054B074653F826807FE7A8CD04003B
:105A4000D8DF040034EF040060DB04002DE9F047E8
:105A5000002182462F202FF029FA244EC0F340095E
:105A600006F52F783446002754F8045F3DB12846E8
:105A7000FFF7A4F8284620213CF09AF82760444517
:105A8000F2D1BAF1000F26D1544620203CF08CF818
:105A9000E1B2002201340546FFF7BAF9AF2C46F80F
:105AA000045FF2D1124D002402E00134102C0ED01C
:105AB00055F8043F002BF8D1092C0CBF80200020A2
:105AC0004946FFF703FF0134102C2860F0D1BDE8F0
:105AD000F047FDF749BE0024E0B24946FFF7F6FE65
