:1000000000000320D101000061CF030019CF0300DD
:1000100019CF030019CF030019CF030019CF030034
:1000200019CF030019CF030019CF030061CF0300DC
:1000300061CF030019CF0300D1BC0300D5BC03007E
:1000400061CF030061CF030061CF030061CF0300E4
:1000500061CF030061CF030061CF030061CF0300D4
:1000600061CF030061CF030061CF030061CF0300C4
:1000700061CF030061CF030061CF030061CF0300B4
:1000800061CF030061CF030061CF030061CF0300A4
:1000900061CF030061CF030061CF030061CF030094
:1000A00061CF030061CF030061CF030061CF030084
:1000B00061CF030061CF030061CF03001DE10300A6
:1000C00061CF030061CF030061CF030061CF030064
:1000D00061CF030061CF030061CF030061CF030054
:1000E00061CF030061CF030061CF030061CF030044
:1000F00061CF030061CF030061CF030061CF030034
:1001000089F803009DF80300B1F80300C5F8030067
:1001100061CF030065E4030061CF030061CF0300FA
:1001200061CF030061CF030061CF030061CF030003
:1001300061CF030061CF030061CF030061CF0300F3
:1001400061CF030061CF030061CF030061CF0300E3
:1001500061CF030061CF030061CF030061CF0300D3
:1001600061CF030061CF030061CF030061CF0300C3
:1001700061CF030061CF030061CF030061CF0300B3
:1001800061CF030061CF030061CF030061CF0300A3
:1001900061CF030061CF030061CF030061CF030093
:1001A00061CF030061CF030061CF030061CF030083
:1001B00061CF030061CF030061CF030061CF030073
:1001C00061CF030061CF030061CF030061CF030063
:1001D0005C4B4CF2205210B51A804DF628121A8052
:1001E00000BF00BF3CF0C0FE574B4FF030621A60BA
:1001F000564A9A60564ADA60564B4FF470021A60BB
:10020000554B564A1A60564B1A78110703D51A787F
:1002100042F008021A70534B5349AA221A70534AEB
:10022000534B8B4204D252F8040F43F8040BF8E707
:10023000504B514900228B4202D243F8042BFAE77B
:100240004E494F4A002352F8230041F8230001335E
:10025000742BF8D14B4B4C4A802103F8011B93427D
:10026000FBD14A4B454A1A60494B8A221A70A3F5C2
:10027000805324225A70A0221A709A799207FCD5D2
:100280009A79D406FCD4434A937903F00C03082BE3
:10029000FAD1414B60221A7002331A78802AFCD1BD
:1002A0003C4B01221A715D225A719A799006FCD555
:1002B0009979384A4906FBD5384B394919600021EC
:1002C000596020231370937903F00C030C2BFAD19F
:1002D000344B354A1A60354A354C136813F4807331
:1002E00003D123604FF4A8531360324B324A1A6093
:1002F00000225A60072243F8042C304AC3F80C2D20
:1003000062B63DF047FA2368DA0705D52C483CF081
:10031000FDFF2C4B2C4A1A602C4B1B785B0609D531
:10032000284C294B22689A4204D125483CF0EEFF24
:10033000002323603CF01EFE41F052FE3CF010FD15
:10034000FEE700BF0E20054030800440823F0400DD
:100350000100002B88ED00E0002008E0030000858C
:1003600002D0074000E007408826FF1F045D05001B
:10037000400CFF1F8826FF1F6867FF1F0002FF1F3A
:100380000000000000E400E064E400E008ED00E0AC
:10039000005006400040064001E007404480044011
:1003A0000000060204800440C010070010D0034083
:1003B00014D0034014E000E01FBF02000000202022
:1003C000863E37661CE00340A5C3945A00F0074000
:1003D000FFFFFFFFFFFFFFFFFFFFFFFFFFFFFFFF2D
:1003E000FFFFFFFFFFFFFFFFFFFFFFFFFFFFFFFF1D
:1003F000FFFFFFFFFFFFFFFFFFFFFFFFFFFFFFFF0D
:10040000FFFFFFFFFFFFFFFFFFFFFFFFDEF9FFFF23
:1004100010B5054C237833B9044B13B10448AFF33E
:1004200000800123237010BD8826FF1F00000000FC
:10043000005D0500084B10B51BB108490848AFF333
:1004400000800848036803B910BD074B002BFBD0A0
:10045000BDE81040184700BF000000008C26FF1FB9
:10046000005D05008826FF1F000000002DE9F04F09
:1004700089B00646139D149C0394012D169C049488
:100480009DF84890DDF854B00F4690461C4600F0A9
:100490009C80032B64DD032A00F3A680B3B2BAB2BA
:1004A000059303F1010A531C1BB2A4B206920793F1
:1004B0001A46ADB20FFA8AFAA31E009551461BB236
:1004C000594838F083F91FFA88F808F1FF3536B239
:1004D0003FB22DB2B9F1000F5BD01FFA8BFB04F1D4
:1004E000FF39CDF800B02B463A4631464E480FFA58
:1004F00089F938F07BF9CDF800B04B463A463146E1
:10050000494838F063F9069BBDF80CB01C44013C27
:1005100024B22B4651462246CDF800B0424838F06E
:1005200065F9059BBDF81050079ACDF800B09844C6
:1005300008F1FF380FFA88F84B4641463A4838F040
:1005400045F93A4641462B46374837F0B3FF36481F
:100550002B462246314609B0BDE8F04F37F0AABF1E
:100560009CD183B28AB2059303F1010A531C1BB2DA
:100570001FFA88F80692ADB20FFA8AFA1A46079364
:10058000A8F10203009551461BB2274838F02EF916
:100590009BE7BDF80C30039300933A462B46314657
:1005A000214804F1FF3938F021F90FFA89F9039B4A
:1005B00000933A464B4631461B4838F007F9069BF4
:1005C0001C44013C1FFA8BFBA2E783B28AB203F101
:1005D000010A0593531C1BB206921FFA88F8A4B2B5
:1005E0000FFA8AFA079370E78AB29CB2114683B277
:1005F000059303F1010A0B4601331BB206921FFA61
:1006000088F8A21E1846ADB212B20FFA8AFA079302
:10061000A8F102038DE82400514602461BB20248AD
:1006200038F08CFA51E700BF585FFF1F2DE9F04703
:10063000161E9DF82070099DDDF828E0DDF82CC01D
:10064000DDF830A011DD002B0FDD012E0FD0012BC6
:1006500019D0CDF830A0CDF82CC0CDF828E0099500
:100660000897BDE8F047FFF701BFBDE8F087012D0F
:10067000FBD0ADB208950AB21BB201B2BDE8F0479B
:10068000074838F0A3B8012DEFD0ADB2089533B2CA
:100690000AB2BDE8F04701B2014838F0A7B800BF80
:1006A000585FFF1F2DE9F04F85B004461F4600201C
:1006B0001BB2009301900DF140090F98039099E847
:1006C000000E0D46164613B20C489DF838800AB24B
:1006D00021B23AF049F803980F90BB1EB21E691C74
:1006E000601CCDF848B0CDF844A0CDF84090CDF8CE
:1006F000388005B0BDE8F04FFFF798BF585FFF1F87
:1007000070B58AB044F208269DF83C4000944FF63C
:10071000FF7548F210440494019403960295144620
:1007200005460E46FFF7BEFF0E9906A83BF094FD66
:10073000164B06991648002908BF194600223BF0BF
:10074000FDF80138201A00EBD07040100328CCBF10
:1007500080B204204119F21C12B209B20C483BF0DD
:10076000C7F806A83BF024FD002109483BF0E2F859
:10077000012107483BF0D8F80E9905483BF050FBA3
:1007800003483BF073FB0AB070BD00BFC2560500C2
:10079000585FFF1F2DE9F0472DED028B86B0B0EEBC
:1007A000408A9DF844709DF840A0F0EE608A814632
:1007B000884615461E46002F5BD1043D07EE905A31
:1007C000B8EEE77AF4EEC88AC7EE287AF1EE10FAAE
:1007D000D4BFB0EE680AB0EE480AB5EE400A9FED0D
:1007E0002E7AF1EE10FA98BFB0EE470A27EE800A93
:1007F000FDEEC07A17EE904A002C1DDD44F208236E
:10080000BAF1000F48F2104118BF184644F2FF72C7
:1008100012BF4FF482630A46002000218DE80A00CF
:1008200002920390049317EE902A331F08F10201FD
:1008300009F10200FFF7FAFE27B106B0BDEC028B0A
:10084000BDE8F087A4B209F102092B1B04EB0901F2
:1008500008F10202043E1148119736B21BB209B2E8
:1008600012B2109606B0BDEC028BBDE8F04738F02E
:1008700065B948F2104444F2082E04944FF6FF7410
:10088000CDF80CE002944FF0000E01248DE81040EA
:10089000FFF708FF91E700BF00000000585FFF1F4F
:1008A00070B586B048F2104344F208264FF6FF7543
:1008B0000124049301930396029500940223FFF709
:1008C000B5FE06B070BD00BF2DE9F0410E4C0F4DD6
:1008D000E561984606460F462046012115463BF045
:1008E00023F81FFA88F120463BF024F83AB231B2DF
:1008F00020463AF0FDFF294620463BF091FA044B92
:10090000E361BDE8F08100BF585FFF1FD4430400DE
:10091000544204002DE9F047284C294DE5610E466C
:100920000546012120469A4617461FFA86F83AF0F6
:10093000FBFFBDF8201020463AF0FCFF0FFA85F9C6
:1009400008F1FF3212B2494620463AF0D1FFADB26B
:10095000394620463BF064FA36B2691C324609B289
:1009600020463AF0C5FF394620463BF059FA08F1D7
:10097000010212B2494620463AF0BAFF39462046F3
:100980003BF04EFA691E324609B220463AF0B0FFFB
:10099000394620463BF044FA1FFA8AF120463AF0E5
:1009A000C9FF3246494620463AF0A2FF3946204662
:1009B0003BF036FA034BE361BDE8F087585FFF1F59
:1009C000D44304005442040010B582B01BB2BDF8F9
:1009D00010400093019413B20AB201B2024838F0F9
:1009E000ADF802B010BD00BF585FFF1F2DE9F04FFA
:1009F00089B08A46139C0693E31D0393159BCDF89B
:100A00001CA00027DDF848B0169E4B4DDDF850A025
:100A1000049004F1FF3905925C1E3946BC4619F872
:100A2000018F14F801EFA5F12003802206E0C1B286
:100A30001E600433AB424FEA520212D01EEA020F8C
:100A400001F10100F3D118EA020F0CF1010056D0B8
:100A5000C3F800A00433AB425FFA80FC4FEA5202B5
:100A6000ECD103F12005039B9945D8D1BC45DDF8B5
:100A70001CA05CD98C455CD2012E0DD0B2B2BDF960
:100A80001830019200930FFA8AF2BDF91430BDF9C3
:100A900010102A4838F052F8069B53449A459B465A
:100AA0003ADA059B049ADFF89C80CDF80CB01F461B
:100AB00017449346BB4527DA214D0AEA0505002D68
:100AC00030DBED005C460FFA8AF90FE02B4458F852
:100AD00023309E4207D0012B21B29BB24A461748D1
:100AE00001D037F0E7FC0134BC420DD0144B234059
:100AF000002BEBDA013B63F007030133E6E7013734
:100B0000FFB2C3F800B094E71AF00F0F07D0039BB1
:100B10000AF1010A9A45CDD109B0BDE8F08F12F073
:100B2000B7F9F4E7013D65F007050135C9E75E4611
:100B3000A2E7FCD9149E9FE7C426FF1F585FFF1F42
:100B400007000080A426FF1F2DE9F04F8BB0002581
:100B50009A461BB20446884616469DF85C70009380
:100B6000019513B20AB201B26D4808971FFA88FBCB
:100B700039F0FAFDA2B2AAF102000992511C00B2AA
:100B80004FF482670BF10102B31E09B212B200905A
:100B90001BB201976248DFF89091A719079737F0C9
:100BA000CDFF604A019208F10307012207980092E5
:100BB00039465346032204950295CDF80C90FFF771
:100BC00015FF584A01920334012200920323049531
:100BD000CDF80C9002952046324608EB0A01FFF74B
:100BE00005FF089B002B70D04FF6FF7944F28F234E
:100BF000102200950493019303920D23A6F1120293
:100C000039462046CDF80890FFF74CFD01214448B5
:100C10003AF08AFE099942480BF10602083112B2F5
:100C200009B23AF065FE49463D483AF083FE149910
:100C30003B483BF0F5F83A483BF018F90095079D22
:100C4000CDF8089048F2104B0D2344F208223946A3
:100C50000392A5F110001A46CDF810B0CDF804B0FB
:100C6000FFF720FD44F208214FF6082207230391E5
:100C7000012100910192CDF810B0CDF80890A5F1B6
:100C80000D001A4608F10601FFF7F0FB159BCBB1EA
:100C9000A3F10203B3FA83F35B0948F2104E44F266
:100CA00008274FF6FF750093169B0193B21FAAF118
:100CB000150308F112012046CDF810E003970295C4
:100CC000FFF7F0FC0BB0BDE8F08F0899009144F2FB
:100CD0008F234FF6FF751022394604930193039238
:100CE0000D23B21F20460295FFF7DCFC01210C48C2
:100CF0003AF01AFE09990A480BF10602083112B2BD
:100D000009B23AF0F5FD294605483AF013FE149968
:100D100003483BF085F802483BF0A8F8B6E700BF6F
:100D2000585FFF1F587C0400203D04002DE9F04F60
:100D300087B01478049201909DF8402003914FEA07
:100D4000530A002C43D1002A3ED0531EDBB201339C
:100D50001FFA80FB0593DFF8449102940BF1010325
:100D600001940093BAF1000F25D0019B039A9F18BC
:100D7000049B029A3FB203EB0208002618F8015FB9
:100D800045487400A4B22B1104EB0B0109B239F8E9
:100D900023303A4637F08EFB009B3F4805F00F05A5
:100DA000E118013639F8253009B23A4637F082FBAE
:100DB000F3B29A45E2D8029A019B52440292059AF4
:100DC000013393420193CDD107B0BDE8F08F012CE0
:100DD000FAD1D90812FB01F10131002AF4D0531ED7
:100DE0004FF0000BDBB20133A0465D465C46CDF808
:100DF00000B0DDF810B005930291BAF1000F1ED0DB
:100E0000039B009A13441BB20493029B00260BEB36
:100E100003071DB91BF8084008F10108220617F85E
:100E2000019B2AD46400E4B2230614D40136F3B241
:100E3000640002359A45E4B205F00705E9D8029A44
:100E4000009B52440292059A013393420093D4D1FD
:100E500007B0BDE8F08F019B039A0F48591C009B17
:100E600009F00F099A180D4B01EB460133F82930B0
:100E700009B212B237F01EFBD8E7019A064802EB1E
:100E800046014FEA2913054A09B232F82330049A81
:100E900037F010FBC6E700BF585FFF1F7443040024
:100EA0002DE9F04F8FB015789DF860609DF8644093
:100EB000002D7CD1002C7AD01F460493631EDBB238
:100EC0000D917108924609914A1E591CC7F30733C8
:100ED000D2B20393C7F303130A910593511C07F091
:100EE0000F03C7F303220C90AB460B9107950892B2
:100EF0000693CDF800A0099B002B50D0079B0D9ABC
:100F0000BDF830900B99DFF8B0809F18009A134617
:100F10005B4401EB0B0AA9F102010193029109F173
:100F2000FF393FB21E46924428E0069A059999423D
:100F300008BF1346039AAA422FD0069A0599A942E0
:100F400008BF1546009A1B4838F82330B4B2CBEBE3
:100F50000401891A029A02EB410109B23A4637F0BC
:100F6000A9FA019B1348E11A09EB410109B238F8CB
:100F700025303A4637F09EFA564510D016F8015FF4
:100F8000049A2B0905F00F05002ADBD0039A9A4238
:100F9000CBD1039A089BAA42CFD1089DD2E7099AE8
:100FA000079B93440A9A013393420793A3D10FB04E
:100FB000BDE8F08F585FFF1F7443040008B5016857
:100FC000044B0548002908BF194600223AF0B6FC38
:100FD000013808BDC2560500585FFF1F002844F2C3
:100FE000082018BF0020704708B5002109202FF005
:100FF000D3F900B908BD044B0222187840F6AC5171
:10100000BDE808403AF0EABFAC27FF1F08B5002151
:1010100009202FF0C1F900B908BD044B022218784D
:1010200040F6B831BDE808403AF0D8BFAC27FF1F02
:1010300008B5002109202FF0AFF900B908BD044B15
:10104000022218784FF4FA61BDE808403AF0C6BFB2
:10105000AC27FF1F10B50021044609202FF09CF992
:1010600060B1074B002C41F20401187808BF4FF41F
:101070007A610222BDE810403AF0B0BF10BD00BF57
:10108000AC27FF1F10B50021044609202FF084F97A
:1010900068B1074A41F2941141F230131078002CE4
:1010A00008BF19460222BDE810403AF097BF10BDB4
:1010B000AC27FF1F2DE9F04F8BB0804609910B2024
:1010C000002192461C462FF067F9002106460C20AD
:1010D0002FF062F9002107460D202FF05DF9002165
:1010E00081460E202FF058F9002183460F202FF063
:1010F00053F9344D344B55F8292053F8200053F858
:101100002B1055F8273055F8265003900191049282
:10111000029352462346099900954046FFF766FC24
:10112000002110202FF038F9012802D00BB0BDE8C3
:10113000F08F099BDFF898B000264FF0BA092344DE
:101140000893CDF818903546374609F14603DBB2CF
:101150000793069A089B9342E8DDCDF818906B241C
:1011600012E02B466D081F420BD0A04508EB0A0386
:1011700007DC9C4205DA099B4B4502DC089B4B458A
:1011800018DC0134EB2C09D0A4F16B035A07E8D129
:101190001BF80670402501368023E4E7079B1B07F8
:1011A00005D009F10109B9F59B7FCED1BEE711F059
:1011B0006FFEF6E700230FFA89F221B2034837F0F9
:1011C00079F9DEE774430400607C0400585FFF1F78
:1011D000E47304002DE9F04F052397B0013BFDD1E6
:1011E00000210C465548DFF864B1DFF864A137F000
:1011F000E1FEA1462546A046264623462746A2B242
:10120000D10700F1918052081BF802703A09002BB7
:101210006AD102F007014A48415C12073AF821807E
:101220005FD4012633462B44E02B65DC05F1080131
:1012300009B21D4609F11A02CDF8008012B23346F8
:101240003E4837F0D3FAE02D71D00023013445F247
:101250000E329442D3D106A83A493AF0E9FF0A2265
:1012600002A802213BF02AF802A906A83BF0ECF8FC
:1012700035493BF0F1F80A22044600210AA83BF068
:101280001DF80AA920463BF0DFF82F493BF0E4F8AF
:101290000A22044600210EA83BF010F80EA92046B1
:1012A0003BF0D2F8014612A83AF0D6FF12AA44F257
:1012B00008234FF49D710020FFF706FB12A83AF0B7
:1012C00077FF0EA83AF074FF0AA83AF071FF02A85F
:1012D0003AF06EFF06A83AF06BFF17B0BDE8F08F4A
:1012E00016010133DBB2B1E7012BF9D01644F6B297
:1012F00033462B44E02B99DDA9B2C1F1E00309F19B
:101300001A022035083109B21BB212B20B48CDF8CF
:1013100000802E4437F06AFAF6B201208144354647
:101320003CF0E6F9082185E707F00F026FE701209E
:10133000002581443CF0DCF92B4687E7585FFF1F0E
:10134000344304002443040028B70400F843040095
:10135000744304002DE9F04F85B0002502900391FD
:10136000AB46AA462F462C462B46A946AAB2D10721
:101370005CD452082F4911F802904FEA1912002B41
:1013800031D12D4802F007011207415C2B4830F89B
:1013900021B025D4012423463B44BE2B2BDCBDF8D1
:1013A0000880BDF80C60B9B21F4606EB0A02414442
:1013B000234612B209B2CDF800B0214837F016FA30
:1013C000BE2F03BF00270AF1010A3B460023013567
:1013D00040F6C2429542C9D105B0BDE8F08F140174
:1013E0000133DBB2F3E7012BF9D01444E4B2234616
:1013F0003B44BE2BD3DDBDF80880BDF80C60CDF8B2
:1014000000B0BBB2423708EB030106EB0A023C44D2
:10141000C3F1BE0309B21BB212B20948E4B237F0FD
:10142000E5F90AF1010A27460021BEE709F00F029B
:10143000A5E700BF806D04004C4304007443040022
:10144000585FFF1F2DE9F04F814687B08A46184646
:101450005A491D4617463BF031F818B1012007B034
:10146000BDE8F08F044601215548564E3AF05CFA2B
:10147000BDF8441052483AF05DFA294602A83AF005
:10148000EBFE02994E48002908BF314622463AF049
:1014900055FA00F1FF3802A83AF08AFE47452BDBE7
:1014A000109B012B17D0022B7FD1C8EB0707002F11
:1014B000ACBF09EB070109F1000109B20FFA8AF28A
:1014C0003F483AF015FA29463D483AF0A9FC012078
:1014D00007B0BDE8F08FC8EB070707EBD7777910A7
:1014E0000029ACBF494409F1000109B20FFA8AF2A0
:1014F00033483AF0FDF9E6E7334902A83AF098FE9E
:1015000002992F48002908BF314622463AF016FAC0
:101510005FFA80FB02A83AF04BFE019626461EE0D9
:101520003BF010F8017802A83AF0DCFE019B02992A
:101530002348002908BF194600223AF0FFF98046E7
:1015400002A83AF035FE08F1FF30C0B20219CBEB29
:1015500007039A4200F101000ADA044401363146D9
:1015600028463AF0EFFF037831462846002BD7D1C2
:101570000FFA8AF20FFA89F111483AF0B9F900240A
:1015800056B1214628463AF0DDFF013401780C4877
:101590003AF066F9A642F4D101220B4908483AF024
:1015A00029FC002007B0BDE8F08F0FFA8AF20FFA8D
:1015B00089F103483AF09CF985E700BF90B8040030
:1015C000585FFF1FC2560500304304002DE9F04369
:1015D00087B00F4C0E9E0F9F0E4DE5618846054665
:1015E0009146194602A83AF037FE02AB4A464146F8
:1015F0008DE8C0002846FFF725FF054602A83AF00F
:10160000D7FD054BE361284607B0BDE8F08300BF76
:10161000585FFF1FD443040054420400F8B50A2465
:10162000002517203BF0AEF9054405203CF060F89A
:10163000631E13F0FF04F4D17A4B7B4A83FB05133E
:10164000ED171178C5EBA3058D4202DB53789D425F
:1016500074DD764B1B78012B73D0DFF83CE27449C4
:10166000744F754B754D764E764C7748774A4FF0F0
:10167000050C8EF800C04FF01F0E4FF01C0C81F8C7
:1016800000E087F800C02021DFF810E2197002277F
:101690004FF0040C2F7086F800C06D496D4F6E4BF3
:1016A00019264FF0090C26708EF800C003256B4EEA
:1016B00005704FF00A0E4FF0060C81F800E087F835
:1016C00000C0674DDFF8D8E166481A2400214FF0CA
:1016D0000F0C1470197086F800C0634C6349644A9B
:1016E000644B07274FF00E0C2F7010260825624F11
:1016F0008EF800C04FF0210E0570267081F800E0D2
:101700005E485F4D5F4E11244FF0230E147022216E
:101710005D4A87F800E02427197007705B4C5C492C
:101720005C4B252726202F7010701D271E251820A2
:101730001B223770257008701A70F8BD3B4B0122D0
:101740001A70DFF854E13A493A4F3B4B3B4D3C4E5F
:101750003C4C3D483D4A4FF0180C8EF800C04FF00D
:101760000A0E4FF0000C81F800E087F800C002215B
:10177000DFF828E119700E274FF0280C2F7086F83B
:1017800000C03349334F344B0F264FF0240C2670E2
:101790008EF800C02925314E05704FF0230E4FF012
:1017A000190C81F800E087F800C02D4DDFF8F0E05B
:1017B0002C48102425214FF0200C1470197086F845
:1017C00000C0294C29492A4A2A4B22274FF0260CCF
:1017D0002F701F262125284F8EF800C04FF0090ECC
:1017E0000570267081F800E02448254D254E1E2402
:1017F0004FF0070E14700821234A87F800E00627EF
:1018000019700770214C2249224B052704202F70A4
:1018100010701D271C2515201622377025700870A2
:101820001A70F8BD67666666200DFF1FBF27FF1F91
:10183000BB27FF1FC027FF1FB727FF1FAA27FF1FB8
:10184000AF27FF1FA827FF1FAB27FF1FBD27FF1FC5
:10185000C127FF1FAE27FF1FBA27FF1FB327FF1F98
:10186000B027FF1FB227FF1FB427FF1FB127FF1F9D
:10187000B527FF1FA427FF1FB627FF1FB827FF1F8D
:10188000A627FF1FA927FF1FBE27FF1FB927FF1F7E
:10189000A727FF1FA527FF1FAC27FF1FBC27FF1F80
:1018A000AD27FF1F014B1878704700BFBF27FF1FF0
:1018B0002DE9F04FADF51D7D0023838005900E4688
:1018C000174619460DF276200DF11E0323F8061C6B
:1018D00023F8041C23F8021C06339842F6D1002199
:1018E00058482CF075FDA6F10F02A7F10F0344F242
:1018F0008F2912B21BB2049236B203933FB2CA468A
:1019000048F210484FF01E0B1E23039A04994E48CC
:10191000CDF80480CDF800B037F010F91023009313
:101920003A4605233146484838F002F80121454837
:101930002CF04EFD0F2425B22B463A463146424844
:10194000CDF800A037F078FE32203BF0D1FE2B46D8
:101950003A4631463C48CDF8008037F06DFE3948B4
:101960002CF02AFD013CA4B208B1052CE3D1354886
:101970002CF022FD0028C7D00025002000212C4695
:101980000BE0642DC3F3C70035D03FF06BFF41EC93
:10199000100B3EF07DF851EC100B00222B4B3FF06A
:1019A00015FE40F075FA0FFA80FB3A465B46314669
:1019B0002548CDF8009037F03FFE06AB05EB45001B
:1019C00003EB40001F4934F087F90A203BF090FEFA
:1019D0005B463A4631461C48CDF8008037F02CFE75
:1019E00018482CF0E9FC0134194BE4B2A3FB0423A2
:1019F00001350028C5D1632C84D94FF480633A4661
:101A0000314600931048052337F092FF002206ABC1
:101A100011469CADB3F90040B3F9020006339D4274
:101A200021440244F6D10B4BA3FB01010598A3FB13
:101A300002235B094A09028043800DF51D7DBDE844
:101A4000F08F00BFB45EFF1F585FFF1F00001840FB
:101A5000CDCCCCCC1F85EB5110B52DED028B8AB0CF
:101A60008DE80C0002AB83E80300BDF900309FED68
:101A7000576A9FED570ADFED574ADFED572A9FED72
:101A8000573A574807EE903ABDF9383005EE103A0C
:101A9000BDF90A3004EE103ABDF9023007EE103AF3
:101AA000BDF93A30F8EEE77A05EE903AB8EEC55A4D
:101AB000BDF90830C7EE860A04A9C5EE067A06EE1F
:101AC000903AB8EEC44AB8EEC77AF8EEE55A84EE1A
:101AD000065AC7EE068AF8EEE66A85EE867AC6EE04
:101AE000865A30EEE78A78EEC71A68EE456A27EE26
:101AF000E86AE5EEA16AA0EE876AB7EE002A76EE04
:101B0000866AF0EE463A82EE264A27EEC56A75EE00
:101B1000E77AA5EE876A35EE477A20EEC52A27EEEA
:101B2000447A61EE841A67EE847A27EE241A27EE4F
:101B3000007A66EE446A23EE846AF0EE423AB2EE30
:101B40000E2A28EE448AA1EE821AA1EE827A67EE6E
:101B5000A41AE5EEA83A67EE807A66EEA44A66EE2D
:101B6000806AE8EE021A35EE685AE6EE024AE6EEC0
:101B7000026A75EEE05AE8EE027A25EE045A23EE88
:101B8000846A65EEC45AB0EE414AA5EE224AA5EE3B
:101B9000037AB0EE615AA5EEA25AE6EE224AE5EECD
:101BA000837AE6EE036A8DED044A8DED077A8DEDBA
:101BB000055ACDED064ACDED087ACDED096A2CF037
:101BC00019FC0AB0BDEC028B10BD00BF00007A44C6
:101BD000000034430000514300006043000099437B
:101BE000B45EFF1F2DE9F04FA1B001ABDFF84C93BD
:101BF00007931CAC48F21041C2480025012637F07B
:101C0000D9F9C14920463AF013FB2346F02242217C
:101C1000019528460096FFF715FC20463AF0C8FAD1
:101C2000BA4920463AF004FB2346F0224A210195A6
:101C300000962846FFF706FC20463AF0B9FAB44968
:101C400020463AF0F5FA2346F0223221019500961B
:101C50002846FFF7F7FB20463AF0AAFA0F22114672
:101C60000CA8FFF725FE082748F210433222019303
:101C70002946F0230097A34836F060FFA549204687
:101C80003AF0D6FA2346F0223221019500962846F2
:101C9000FFF7D8FB20463AF08BFAB422D1210EA8E8
:101CA000FFF706FE48F210433222009701932946BF
:101CB000F023944836F042FF974920463AF0B8FAAC
:101CC0002346F0223221019500962846FFF7BAFB01
:101CD00020463AF06DFA4FF49972E02110A8FFF710
:101CE000E7FD10AB93E803000EAB0CCB0090079818
:101CF00001800CA903C9FFF7AFFE294687482CF0E5
:101D000067FB874920463AF093FA2346F022642184
:101D1000019500962846FFF795FB20463AF048FAD1
:101D2000804920463AF084FA2346F0226C2101953E
:101D300000962846FFF786FB20463AF039FA7A49A2
:101D400020463AF075FA2346F02274210195009658
:101D50002846FFF777FB20463AF02AFA73492046D7
:101D60003AF066FA2346F0227C2101950096284637
:101D7000FFF768FB20463AF01BFA4FF6FF7344F278
:101D8000082248F21041049103920293C822019361
:101D90009621642314200096FEF784FC64492046B3
:101DA0003AF046FA0D234022FE219C208DE83000B7
:101DB000FEF7A6FC20463AF0FBF9D9F8003009936B
:101DC000DDF82480AA461E2754482CF087FB53498F
:101DD00012A82CF0E5FA5148BDF948B0BDF94A60A7
:101DE0002CF0DCFA012877D071D3032830D1002DF4
:101DF00000F0D280BAF1000F00F0D080ABF11603F2
:101E00009BB2C32B24D8A6F198039BB25F2B1FD89B
:101E10004FF40043009652462946019339485B46E9
:101E200037F0B2FDB2465D460026D9F800300A937D
:101E30000A9BDFF808B1C8EB0303B3F57A7F09D238
:101E4000002EC1D035482CF0DFFA21B0BDE8F08F6C
:101E50000026EAE7082348F21042019200937C2210
:101E6000F02300212748013F36F068FEFFB23149D8
:101E700018A83AF0DDF9394614A83AF00BFA14A97B
:101E800018A83AF0E1FA2C493AF0E6FA0146204661
:101E90003AF0E2F900200123F0227C210093019026
:101EA0002346FFF7CFFA20463AF082F914A83AF019
:101EB0007FF918A83AF07CF9DBF800300B93DDF8D5
:101EC0002C80002EBED1002F7FF47EAF92E64FF023
:101ED000000A55465646A8E71FFA8BF3A3F11602EF
:101EE000C32A2DD8A6F1980292B25F2A28D832468A
:101EF0004FF4004359460348B2465D4636F0DAFADD
:101F0000002692E7585FFF1FE07C0400047D040078
:101F1000207D0400407D0400607D0400B45EFF1F4E
:101F2000807D0400A47D0400CC7D0400F07D0400CD
:101F3000047E0400087E0400E0F20400BC63FF1F7E
:101F40009C3B352B84D8FE3EB6B20C2E80D814496B
:101F5000204601263AF06CF90D234022FE218DE83F
:101F600050009C20FEF7CCFB20463AF021F90021DE
:101F70000C482CF02DFA0A4920463AF059F9002372
:101F8000019300940D234022FE219C20FEF7B8FB14
:101F900020463AF00DF948E72E4646E7564644E714
:101FA000047E0400B45EFF1F70B50E4E0E4D3078F7
:101FB0000E4C01213BF072FB287801213BF06EFBB7
:101FC000207801213BF06AFB307800213BF052FB86
:101FD000287800213BF04EFB20780021BDE87040BE
:101FE0003BF048BBB327FF1FB427FF1FB527FF1FD8
:101FF00010B50C4B044600F0010118783BF03AFB99
:10200000094B04F0020118783BF034FB074B04F055
:10201000040118783BF02EFB054BBDE81040187802
:102020003AF0B0BCB327FF1FB427FF1FB527FF1F2F
:10203000AD27FF1F70B50646FFF7DAFF154B0546C3
:102040000021985D2EF0B4F9134B04460021985DF1
:102050002EF0AEF92D1B001B07EE900A07EE105A6A
:10206000F8EEE77AB8EEC77AB7EE000AC7EE276A4D
:10207000F4EEC06AF1EE10FA00D470BDF5EEC06A5D
:10208000DFED067AF1EE10FA8CBFB0EE660AB0EE24
:10209000670A70BD3C0DFF1F440DFF1F00000000CC
:1020A00000B583B00191FFF7C5FF019907EE901AC3
:1020B000F8EEE77AF7EE006A86EEA77A013907EEC6
:1020C000901A80EE070AF8EEE77AB4EE670AF1EEAE
:1020D00010FA48BFF0EE407AF5EEC07AF1EE10FA51
:1020E0008BBFFDEEE77A0023CDED017A01930198D5
:1020F00003B05DF804FB00BF10B50C46FFF79AFF74
:10210000F6EE007AB4EEE70AF1EE10FAACBF012069
:1021100000200CB180F0010010BD00BF064B002272
:1021200003F1300001211A7059705A609A70DA7008
:1021300008338342F7D170474C0DFF1FFFF7EEBF06
:10214000074901EBC00310B40022012401F830203C
:102150005C709A70DA705A605DF8044B704700BF8B
:102160004C0DFF1F084B7F2203EBC00029B981787B
:102170005D39C9B2892001F087B981785D39C9B26A
:10218000992001F081B900BF4C0DFF1F10B5114C13
:1021900004EBC004A3789B0701D549B910BDA1B9D0
:1021A00005F0CAFF0028F9D0BDE8104005F0E2BDF7
:1021B00005F0C2FF0028F7D1A07880F00400C0F33A
:1021C0008000BDE8104005F055BE05F0B5FF0028C1
:1021D000E4D1F1E74C0DFF1F10B50C4605F0ACFF44
:1021E00020B11CB1BDE8104005F080BE10BD00BF9D
:1021F000F8B52D4F00243D4617F83430E6B2D3B180
:10220000012B1ED0E978304601F00101FFF774FF81
:102210006B68002814BF7F2200229A420BD06B7893
:102220006A60013B032B06D8DFE803F0342A200262
:1022300008B105F0E5FD0134062C05F10805DBD1F8
:10224000F8BD30468021FFF72BFF6B6898420646A9
:10225000F1D0C2B2EB786978A8786E60013405F0ED
:1022600061FC062C05F10805C6D1E9E701460134F9
:102270003046FFF78BFF062C05F10805BCD1DFE7E0
:10228000014601343046FFF7A7FF062C05F108058B
:10229000B2D1D5E7014601343046FFF763FF062C83
:1022A00005F10805A8D1CBE74C0DFF1F014B03EB4F
:1022B000C00070474C0DFF1F034B13F83000003077
:1022C00018BF0120704700BF4C0DFF1F70B5074CB1
:1022D000002604F51075A17826700B0602D46078EC
:1022E00003F03CF90C34AC42F5D170BDC427FF1F9C
:1022F000114A70B4FF2002F5806600214FF07E5530
:102300000324134603F83C0D1871996019731D617D
:1023100003F8144F9342F7D103F14002B242F0D1D7
:10232000002306491A46CA540C33B3F5107FFAD17C
:1023300070BCFFF7CBBF00BFB80DFF1FC427FF1F46
:1023400038B5154C04F5107506E014F8030C03F0CD
:1023500005F90C34AC421DD014F8042C531EDBB22A
:10236000002AF6D004F8043C002BF2D114F8023C09
:1023700013F0800F1946E8D0227994ED000A14F882
:10238000030C03F07F010C3414F80D3C03F03AFC0D
:10239000AC42E1D138BD00BFC827FF1F2DE9F0478F
:1023A0002DED028B294E884600239C012749355D7F
:1023B000954203F1010305D0102BF6D1BDEC028B41
:1023C000BDE8F087224D04F13C060746B0EE408A96
:1023D000A9460E440C44A8F1800A2379FF2B21D092
:1023E000D4F808E0BEF1000F23DD00210A4602E028
:1023F0000132302A16D0685C0C310028F8D102EB8B
:102400004202D4ED047A217B09F822E067EE887A53
:1024100009EB82025144207D5770D3709170C2ED58
:10242000017A10721434B442D7D1BDEC028BBDE8EE
:10243000F087217B94ED040A227D4144C9B228EE45
:10244000000A384603F0DEFBECE700BF7C0DFF1FFF
:10245000C427FF1F2DE9F8431D4E884600239C0129
:102460001B49355D954203F1010303D0102BF6D1D2
:10247000BDE8F883174D04F13C060746A9460E4413
:102480000C442379FF2B16D0A068002818DD002209
:10249000134602E00133302B0DD0A95C0C32002929
:1024A000F8D103EB4303227B09F8230009EB8303F4
:1024B00042445F709A701434B442E2D1BDE8F883AC
:1024C000217B4144C9B2384603F048F8F3E700BF26
:1024D0007C0DFF1FC427FF1F0F289ABF024B03EB81
:1024E00080100020704700BF7C0DFF1F034B800150
:1024F000185CFF3818BF0120704700BF7C0DFF1F1C
:102500000B4B8101FF2230B408465A543C31194428
:1025100018444FF07E550023032402718360037337
:10252000056100F8144F8842F7D130BC704700BFF6
:102530007C0DFF1FFFF7E4BF8001054B01EB81011C
:1025400000EB810119440879FF3818BF012070475A
:102550007C0DFF1F80010A4B01EB810100EB810123
:10256000194410B40023FF2403224FF07E500C7155
:102570000A750B7308618B605DF8044B704700BFF0
:102580007C0DFF1F30B5094D094C2B68226883B0C4
:102590000093009B9B1AB3F5FA7F05D310F06AFCF9
:1025A0002B680193019B236003B030BDBC63FF1F08
:1025B000202AFF1F014B18783AF064BEB727FF1F8F
:1025C000064B074953F82020096810B4002443F84B
:1025D000204001FB02F05DF8044B7047142AFF1FF6
:1025E0008011FF1F08B538B1074B18783BF048F849
:1025F000B0FA80F0400908BD044B18783BF040F871
:10260000B0FA80F0400908BDBE27FF1FB627FF1FA4
:102610000346024A0021105CD15470470C2AFF1F68
:10262000064A13780F2B07D810B4591C044C1170AC
:1026300044F823005DF8044B704700BF082AFF1FD1
:10264000242AFF1F70B5044680B3224E224D3378F2
:1026500055F82300844236D0FF2B19D133701F4B1D
:10266000187868B12B689C422ED01B4A002303E0E7
:1026700052F8041F8C4210D00133DBB28342F7D1F1
:102680001749184A00230B604B601370537070BDDC
:1026900000212EF05FF9FF23E0E7FF2B3370EFD02E
:1026A00055F8230001212EF055F9E9E7094D2B7863
:1026B000FF2B0CD0084A214652F823002EF04AF98D
:1026C000FF232B70DCE770BD00233370E8E72B702D
:1026D000D6E700BF7C11FF1F242AFF1F082AFF1F17
:1026E000142AFF1F0C2AFF1F054B1B78834202D8B8
:1026F0000020FFF7A7BF034B53F82000FFF7A2BF4E
:10270000082AFF1F242AFF1F70B5FF20FFF7ECFFE8
:10271000094E0A490A480B4C0B4B0022FF250A7050
:102720004A70026042603270257003F1400143F844
:10273000042F8B42FBD170BD082AFF1F0C2AFF1FFC
:10274000142AFF1F7C11FF1F202AFF1FF8B5264EF9
:10275000377887B1254D2B68834201463DD02B4603
:10276000002403E053F8042F8A4205D00134E4B278
:10277000BC42F7D1F8BDF8BD084600212EF0EAF8BA
:10278000FF2C2FD030780138C0B2A042307088BF03
:10279000234607D95A1C55F8221045F82310D3B206
:1027A0009842F7D8124A13780021FF2B45F82010E1
:1027B00012D0A34203D0DED9013B1370F8BDFF2332
:1027C00013700028D7D00138A042A8BF2046C0B25D
:1027D000BDE8F840FFF788BFF8BD00212EF0BAF839
:1027E0000024CFE7F8BD00BF082AFF1F242AFF1FDF
:1027F0007C11FF1F2DE9F04F594C81B03AF054FF86
:102800002368C01A632802D801B0BDE8F08F3AF0FF
:102810004BFF544F544EDFF868A1DFF868912060F9
:102820000025BB46A8461AF8010B36F8024B3AF0D1
:1028300027FF40EA440080B2B0F5704F4DD026F833
:10284000020C0135042D0BF1040BECD1474D2B7814
:10285000002BD9D0464E3A683368002403FB02F3BC
:10286000A3423C6043DD0120FEF7F4FB414B1A78A4
:10287000FF2A71D12B784FF001089C4258D3204693
:10288000FFF732FF7B683468002004FB03F47860B4
:10289000002CB9D0374E3378FF2BB5D02A789A4226
:1028A00084BF354A52F823002EF06EF80028ABD0D2
:1028B000002CD4BF00200120FEF7E4FB33782A78F7
:1028C0009A4223D92C4A52F8230003685B6B2146B5
:1028D000012201B0BDE8F04F1847012D26F8028C07
:1028E00017D909EB0503012103F8021CA9E7C9D098
:1028F0002046FEF7AFFB1F4B1A78FF2A26D0FF2396
:102900004FF0FF38D418E4B22B78B6E700231B68E9
:10291000FFDE1A4B585D3AF0B3FEDBF800300028BA
:102920000CBF4FF0FF3101210B44CBF8003088E79A
:10293000DFF8449059F824002EF026F800289ED1A4
:1029400044442B78E4B2A34299D9F3E72B785C1E78
:10295000E4B24FF0FF3890E701239846D2E700BF7A
:102960001C2AFF1F142AFF1F8411FF1F082AFF1FA4
:102970008011FF1F7C11FF1F242AFF1F102AFF1F39
:10298000042AFF1F0C2AFF1F2DE9F047444FDFF8F0
:1029900040913878434C444EDFF83881434D002154
:1029A0003AF07CFE99F8000000213AF077FE20789A
:1029B00000213AF073FE307800213AF06FFE98F86B
:1029C000000000213AF06AFE287800213AF066FE05
:1029D000FEF768FF00283FD1DFF8FCA001469AF817
:1029E00000003AF05BFE9AF80000314902223AF00A
:1029F000CDFB304B304999F8000098F800C0327890
:102A0000187083F801C02D482D4B97F800E0267808
:102A10002F784A7000254FF6FF72056081F800E0BC
:102A2000CF708E701A805A809A80DA80FFF7E2FEAB
:102A300020781E4C3AF024FEA8B1002131202DF060
:102A400099FC204B002814BF4FF0FF320122BDE853
:102A5000F0471A60FFF758BE1B4B15491878022241
:102A60003AF094FBC5E720783AF00AFE04460028C5
:102A7000E3D1164B4FF4FA7218784FF47A7139F0AB
:102A8000ADFA214631202DF075FC80F00101C9B26C
:102A9000224631202DF0A0FC2DF060FBCDE700BFD9
:102AA000B127FF1FB627FF1FB827FF1FBE27FF1F35
:102AB00085250000102AFF1F042AFF1F1C2AFF1F64
:102AC0008411FF1F8011FF1FB727FF1FAC27FF1FB7
:102AD000A427FF1FA627FF1FC027FF1F0020FFF707
:102AE000B1BD00BF054B064A1B7812789A4286BFDB
:102AF000044A52F823000020704700BF7C11FF1FDA
:102B0000082AFF1F242AFF1F034A044B10781B7852
:102B1000834298BFFF2070477C11FF1F082AFF1FC8
:102B200038B505460024E0B20021013402F072FD00
:102B3000102CF8D104F042FB2846BDE8384005F0DF
:102B40006BBB00BF014B185C704700BF8C11FF1FAF
:102B500038B505460024E0B22946013402F05AFD9A
:102B6000102CF8D10549064B00220A8003F14001E0
:102B700023F8022F8B42FBD138BD00BFF42AFF1F80
:102B8000622AFF1F2DE9F0410024114D80460E46B8
:102B9000274602E00134102C17D015F8013F4345B9
:102BA000E0B2F7D1314602F035FD0A4A200202F1C7
:102BB000400132F9023F03F47F43984208BF178077
:102BC0008A42F6D10134102CE7D1BDE8F08100BF74
:102BD0008B11FF1F622AFF1F0E28F8B50D461F46F6
:102BE00007DC044606461F4B50BB1B88DB0707D497
:102BF00019E01C4BB3F90030002B12DA0F242646E3
:102C00001949002202E00132202A1ED031F9020FB8
:102C10000028F8D10135154B05EB062623F8126084
:102C2000F8BD0F263446124B9E5D2946204602F021
:102C300095FC324629462046FFF70CFC5FB9F8BDEB
:102C4000B3F900300341DA07DAD4092EEBD105F1EC
:102C50005D06F6B2E9E729462046BDE8F84004F0F3
:102C60003BB900BFF42AFF1F622AFF1F642AFF1F1F
:102C70008C11FF1FFFFFFFFFF0B52DED028B83B01E
:102C80000192002A5ED00E2804460D461E460746D5
:102C900045DC00285DD1002E45D1DDED017A9FEDA8
:102CA000407AF8EE677AF4EEC77AF1EE10FA46D57C
:102CB00017EE900A3EF0E8FD41EC100B3CF0D8FF17
:102CC0002046B0EE408AF0EE608A00F03BFD10BB7B
:102CD000092C16BF334B05F15D07DF5D51EC180B76
:102CE0002BA3D3E9002308BFFFB23EF04BFF3FF018
:102CF00017F908EE100A00EE100A032229462046B2
:102D0000FF2302F07FFFB0EE480A3A4629462046EC
:102D1000FFF744FB26BB03B0BDEC028BF0BD0F24D4
:102D20002746002EB9D005F019FA0028B5D005F0D5
:102D30001BFAA042B1D1012005F09CF8ADE79FED50
:102D4000160BBBE703B0BDEC028BBDE8F040FFF70C
:102D500043BF09289FD1A1F123032E2B9BD9DAE78A
:102D6000204600F0CDFCDFED0E7A28EE000A294661
:102D700020EE270A2046FCEEC07ACDED017A9DF8C0
:102D8000042003B0BDEC028BBDE8F04004F010B8A5
:102D9000422E6094726013400000000000C05F404B
:102DA0000000FE428C11FF1F0E2870B5D4BF0446F0
:102DB0000F24164620460D4604F034FE06B970BDB9
:102DC00029462046BDE8704004F092B90E282DE94E
:102DD000F041D6BF05460F262E460C463046C8BFEA
:102DE00035461746984604F05FFF402C70D007D94F
:102DF000792C2BD07B2C10D0782C41D0BDE8F081E1
:102E0000072C58D00A2C14D0012CF7D14246394651
:102E10003046BDE8F041FFF7C7BF434BB3F90000B0
:102E2000284110F00101E9D13046BDE8F04102F03F
:102E3000F1BB3946304600F01DFCB8F1000FDDD083
:102E400039463046BDE8F04104F0FCB84021304638
:102E500043460022FFF7BAFF0021304604F004FF8A
:102E6000B8F1000FCAD06421304604F0C5F83046EE
:102E700000F04EFC01463046BDE8F04104F0E2B8F7
:102E800029482A4A01880123AB4021EA0303038031
:102E900002F140012802002432F9023F03F47F438B
:102EA000984208BF14809142F6D130460121BDE816
:102EB000F04102F0AFBB3946304600F099FBB8F163
:102EC000000F9BD039463046BDE8F04104F094B87D
:102ED0003F2F20D81449154C0A880123AB4022EA21
:102EE00003030B802D0204F14006002701E0A642F7
:102EF0000FD034F9020F00F47F439D42F7D1411EF9
:102F0000C9B2C0F3072043460022FFF765FE2780C1
:102F1000EDE7BDE8F081044A01201388A84003438F
:102F20001380BDE8F08100BFF42AFF1F622AFF1F53
:102F300038B500240023E0B21A4678210134FFF7A7
:102F400045FF102CF6D100203CF00AF838B10020E3
:102F50003CF006F80028F6D101E03BF053F83BF0D6
:102F60003DF804460028F8D10A490B4B0B4A0C4D9A
:102F700008781C7021465C709C7014702C703AF0BC
:102F800079FB084B214618783AF074FB064B1C601D
:102F900038BD00BFA927FF1FF02AFF1FEF2AFF1F20
:102FA000E82AFF1FB927FF1FE42AFF1F0A282DE97F
:102FB000F0410D4622D00E280446174606461ADD7B
:102FC0000F242646884600231A467B212046FFF719
:102FD000FDFE174B294620469D5502F023FA1FB1EE
:102FE0002946204603F0D0FF424631460120BDE885
:102FF000F04110F0EBB870B9A846E4E78035AE2D8B
:103000000B4BD4BFEDB2AF259D7229460A20BDE817
:10301000F04102F007BA0928EED12E2903D881F039
:103020008005A846CFE74FF080084546CBE700BFB4
:103030008C11FF1F0E28F8B50C46D4BF07460F258C
:103040004FF000014FF01200CCBF2F463D46164610
:103050002DF0A2F907EE900A9FED177A174BF8EEC4
:10306000E77A002CC7EE276A2146B8BF04F17F013A
:10307000C911403103EB87037E2907EE904AF8EE31
:10308000E77A87EEA67A83ED007A0CDC002911DC62
:103090000021284604F0A6FC5EB121462846BDE882
:1030A000F84004F005B87F21284604F09BFC002E70
:1030B000F3D1F8BDC9B2F7E700008046A42AFF1F8C
:1030C00070B5FFF735FF0125002602E00135EDB2AE
:1030D0000136F4B200231A4620467821FFF776FE27
:1030E000002320461A467921FFF770FE0022092EA0
:1030F0001146204612D0FFF759FF00221146204604
:10310000FFF798FF002320461A460121FFF75EFED5
:10311000102DDBD1BDE870400FF0ACBE3046002270
:103120008021FFF743FF002211463046FFF782FF60
:1031300000231A4601213046FFF748FEC6E700BFCC
:1031400008B5074B187018B9BDE80840FFF7B8BFBD
:10315000FFF7EEFE0020BDE80840FFF7F9BC00BF16
:10316000E92AFF1F08B504F0EDFF00B908BD04F01F
:10317000E3FF0028FAD0BDE8084004F0B7BE00BF66
:1031800008B504F0DFFF00B908BD0020BDE8084025
:1031900004F070BE08B504F0D5FF00B908BD0120E9
:1031A000BDE8084004F066BE70B552490878A0F149
:1031B000800300F00F007F2B45D8DFE803F07D7D12
:1031C0007D7D7D7D7D7D7D7D7D7D7D7D7D7D848421
:1031D000848484848484848484848484848445452D
:1031E00045454545454545454545454545458B8B03
:1031F0008B8B8B8B8B8B8B8B8B8B8B8B8B8B777747
:1032000077777777777777777777777777774545B2
:103210004545454545454545454545454545686818
:103220006868686868686868686868686868444466
:103230005744444444644B444F534044449204F044
:1032400081FF002851D170BD49780122BDE870404E
:10325000FFF7AABDBDE87040FFF784BFBDE870402E
:10326000FFF78EBFBDE87040FFF794BF8D784C78B4
:1032700004F068FF0028E6D004EB052080B2BDE82A
:103280007040FFF74DBC1C4B00221A7070BD8B784C
:103290004A78D90101F47E5302F07F011944A1F567
:1032A00000510122BDE87040FFF7C4BE49780122F9
:1032B000BDE87040FFF77ABE8A7849780123BDE8FF
:1032C0007040FFF789BC8A7849780123BDE87040D7
:1032D000FFF7D2BC8A7849780123BDE87040FFF738
:1032E00075BDBDE87040FFF7EBBEBDE8704004F06F
:1032F00041BD00BFF02AFF1FEF2AFF1F2DE9F0415B
:10330000544B1C7882B0002C40F08880524D534EB4
:103310002F4611E032782A7002F0F000F028087889
:10332000197804D09EF80030013B13433B7068705D
:10333000A9700124FFF738FF00203BF011FEDFF8F1
:1033400044E14749474B0028E4D1434D464E2F46C0
:1033500011E0327872B92A78DFF8FC80434C002AF9
:103360003DD021784A1CD2B27B542270404B1B784E
:10337000934229D001243AF031FE002839D03AF0A6
:1033800041FE0206C3B2E4D5F02B4FD03278364965
:103390002AB1F72B45D0EF2B40D800223270334CA6
:1033A0002B7000220121DF2B21706A70AA70DFF8D8
:1033B000A88016D8C02B1AD2802B14D201232C49F6
:1033C000012293420B70D5D1FFF7EEFE98F8003042
:1033D0000122EF2B2270CDD900232B70CAE722786F
:1033E000C4E7EF2BEAD8224B03221A70C2E702236C
:1033F000E5E70CBB1F4D2B6883B11F4A1268019291
:10340000019A93420AD21D4B214618783AF032F9BC
:103410001B4B214618783AF02DF92C6002B0BDE81C
:10342000F08100230B7002B0BDE8F0810E4B012249
:103430001A7002B0BDE8F081104B012118783AF003
:1034400019F90D4B0B4A1B680093009B3233136034
:10345000E4E700BFE92AFF1FF02AFF1F5367FF1FA1
:103460005167FF1F5067FF1FEF2AFF1FE82AFF1F4A
:103470009C11FF1FE42AFF1FBC63FF1FA927FF1F2A
:10348000B927FF1F5267FF1FF8B50A4C0A4DA378F2
:1034900027786678AB706170A27020702F706E70A4
:1034A000FFF782FE29786A78AB7821706270A3708A
:1034B000F8BD00BFF02AFF1FEC2AFF1F00B5F83847
:1034C00083B004280BD8DFE800F0290A0321190093
:1034D0004FF60F203BF0E0FCFA203AF0C1FC134B12
:1034E000012118783AF0C6F8114B124A1B68019373
:1034F000019B0133136003B05DF804FB4FF60F40EE
:103500003BF0CAFCFC203AF0ABFCE8E74FF60F308A
:103510003BF0C2FCFB203AF0A3FCE0E74FF60F00C3
:103520003BF0BAFCF8203AF09BFCD8E7B927FF1F24
:10353000BC63FF1FE42AFF1F70B5114D114C2878A2
:10354000114E01213AF0AAF8207801213AF0A6F8AC
:1035500028780E4D00213AF08DF8207800213AF0BD
:1035600089F80B4A0B480023012447F612213370D7
:103570002B70147038F0C6FBBDE87040FFF7A0BD9B
:10358000A927FF1FB927FF1FE82AFF1FEF2AFF1FE8
:103590009C11FF1FDC19FF1FF0B500230D4E0E4DCF
:1035A0000E4C0F480F49DFF844C01A464FF0640E26
:1035B00040270133102B06F801EF45F804CB04F83F
:1035C000017F00F8012F01F8012FF2D1064BFF22F5
:1035D0001A70F0BD0B2BFF1F2C2BFF1FF72AFF1FAC
:1035E0001B2BFF1F6B2BFF1F082BFF1FCDCC4C3F4E
:1035F00038B504460D46C9B107EE901A9FED1A7A08
:10360000F8EE677AF4EEC77AF1EE10FA1AD49FED6D
:10361000120B3CF02DFB12A3D3E9002351EC100B4D
:103620003EF0B0FA3EF07CFC024600E000220F4B78
:103630000F4903EB84030D5520461A60BDE838405E
:1036400002F066B817EE900A3EF01EF941EC100B3E
:10365000DFE700BFAFF300800000000000C05F4064
:10366000422E6094726013400000FE422C2BFF1F1C
:103670000C2BFF1F10B4064A145C8C4204D011546A
:103680005DF8044B02F0A6B85DF8044B704700BF2C
:10369000F82AFF1F034B195401B97047012101F0AB
:1036A000B9BF00BF1C2BFF1FF8B5104E104D307076
:1036B0000024034627460FE0834214BF0123002362
:1036C0004FF001012B7001D001F0A4FF0134102C48
:1036D00005F1010509D03378FF2BE0B2ECD10134BC
:1036E000102C2F7005F10105F5D1F8BD082BFF1F37
:1036F0001C2BFF1F014B185C704700BF0C2BFF1FDA
:10370000024B03EB800090ED000A70472C2BFF1F4B
:10371000014B185C704700BFF82AFF1F034B185C71
:103720004F288CBF00200120704700BFF82AFF1FE0
:10373000034B185C2F2894BF00200120704700BF66
:10374000F82AFF1F014B185C704700BF1C2BFF1F9E
:10375000034B1B78181AB0FA80F04009704700BF7D
:10376000082BFF1F014B1878704700BF082BFF1F65
:10377000024A135C01331354704700BF6C2BFF1FC8
:10378000034A135C013B23EAE3731354704700BF01
:103790006C2BFF1F014B00221A5470476C2BFF1F2C
:1037A000014B185C704700BF6C2BFF1F054B185C6A
:1037B0004F2804D82F2894BF0020012070470220F2
:1037C000704700BFF82AFF1F30B4084C002004F1F6
:1037D00010052246111B12F8013B003318BF0123CC
:1037E0008B40AA421844F5D130BC70476C2BFF1FA8
:1037F000F8B5204C204F2078204E214D012139F082
:103800004DFF3878012139F049FF3078012139F036
:1038100045FF2878012139F041FF1A4B0121187822
:1038200039F03CFF2078002139F024FF387800215E
:1038300039F020FF3078002139F01CFF2878012171
:1038400039F018FF2078002139F014FFFEF72AF82C
:103850000D4B002814BF012200221A7004D10B481E
:10386000BDE8F84030F078BE0948BDE8F84030F0D7
:1038700073BE00BFAA27FF1FAB27FF1FAF27FF1F85
:10388000A827FF1FBD27FF1FCD2DFF1F5819FF1FA2
:103890009819FF1F952811D8802855D235281FD890
:1038A00020284BD2042844D036D905285DD00828DA
:1038B00056D106200C23087013707047BD2859D0CC
:1038C0001CD8A0284CD3A82859D9A0F1B003082BA4
:1038D00046D800F00F00093005230B7010707047B8
:1038E00040283DD3552835D9A0F16003152B37D892
:1038F00000F01F0002230B7010707047C0282FD3F8
:10390000C82810D9A0F1E003152B29D800F01F001A
:1039100004230B7010707047012821D10620092361
:1039200008701370704700F00F0006230B701070C2
:10393000704706200A2308701370704700F01F00BC
:1039400000230B701070704700F01F0003230B70F2
:103950001070704700F01F0001230B70107070474B
:1039600006200F2308701370704706200B23087081
:103970001370704706200D2308701370704700F015
:103980000F0005230B701070704700BF2DE9F04148
:1039900082B00E460546144608460DF107020DF1A9
:1039A0000601FFF777FF9DF806309DF80710062BFC
:1039B00074D003EB43039322C3EBC303394802FBE8
:1039C000053303445A5CA24251D0374A5C54107804
:1039D000DFF8EC80354FC5F3400139F04BFE344B36
:1039E00005F00101187839F045FE98F80000002133
:1039F00039F040FE3B78002B3CD02E4B1A684FF03C
:103A00000043D3625663D36A002BFCDA2A4D936BD2
:103A1000287800214FF4F07639F02CFE3346013B34
:103A2000FDD10121287839F025FE013EFDD101218B
:103A300098F8000039F01EFE3B782BB31D4B1A6836
:103A40004FF00043D3625463D36A002BFCDA28782A
:103A5000936B00214FF4F07439F00CFE2346013BC8
:103A6000FDD10121287839F005FE013CFDD102B0DD
:103A7000BDE8F081114B1A684FF00043D3625663E2
:103A8000D36A002BFCDAC1E70C4B1A684FF00043F5
:103A9000D3625463D36A002BFCDAD8E70F2988D1AC
:103AA000E5E700BF802BFF1FAF27FF1FCD2DFF1FB6
:103AB000AB27FF1F9819FF1FA827FF1F5819FF1FCB
:103AC000AA27FF1F2DE9F0472D4B2E4F2E4DDFF873
:103AD000C490A3FB00235B0803EBC3022DED028B14
:103AE000821A08462B700E46F0EE408A3A7000F0BB
:103AF00095FF0230C0B2254B9FED258A13F8008058
:103B00004FF0000A5FFA8AF421460122304600F0A5
:103B1000BFFD48FA0AF1C34311F0010F024603F05A
:103B20003F03287804F0010414D007EE903AF8EE31
:103B3000E77A02F0C00287EE887A68EEC77AB0EEC4
:103B4000487AA7EE887AFCEEC77A17EE903A52FAD6
:103B500083F2D2B23B78BAF1010F09EBC40188BFFE
:103B600003330C440AF1010AE15C4031C9B2FFF7AA
:103B70000DFFBAF1040FC5D1BDEC028BBDE8F08793
:103B8000398EE3387C2BFF1FCC2DFF1F147E0400E1
:103B900000007C42547E0400F8B5274F397000289D
:103BA0003DD1002600252A4606E03F3C152C05F1B4
:103BB00001058CBF00223F22ECB221463046FFF7C0
:103BC000E5FEFE2DF1D10136F6B2042EEAD13A78A7
:103BD000012A8CBF0022012205210120FFF7D6FE19
:103BE0003A78012A8CBF0022012205210320FFF729
:103BF000CDFE402208210120FFF7C8FE4022082107
:103C00000320FFF7C3FEC022BD210120FFF7BEFE47
:103C1000C022BD210320BDE8F840FFF7B7BE074C26
:103C20000021207839F026FD012039F061FD20784F
:103C3000012139F01FFDB4E7CE2DFF1FBD27FF1F67
:103C40002DE9F047374C384F384EDFF8F090A4FBA1
:103C5000003464082DED028B04EBC403C01AC3B218
:103C600082B0A3F14000E4B2154688460DF1070288
:103C70000DF10601C0B23B703470F0EE408AFFF7E0
:103C800009FE9DF806302A4A9FED2A8A03EB43037A
:103C90009321C3EBC30301FB043313449DF80710C6
:103CA000254A5B5C03F001036D0012F803A0EDB23E
:103CB00000242919C9B20122404600F0E9FC4AFA61
:103CC00004FEC34304EBC4011EF0010F024603F0DF
:103CD0003F0397F800C03078494404F1010414D040
:103CE00007EE903AF8EEE77A02F0C00287EE887AA3
:103CF00068EEC77AB0EE487AA7EE887AFCEEC77A0B
:103D000017EE903A52FA83F2D2B211F80C10403109
:103D1000C9B2FFF73BFE022CCBD102B0BDEC028B47
:103D2000BDE8F087398EE3387C2BFF1FCC2DFF1FB9
:103D3000802BFF1F00007C42147E0400547E040090
:103D4000F0B583B005460E46144608460DF107024D
:103D50000DF106011F46FFF79DFD9DF806100B4A69
:103D60009DF8070001EB41019323C1EBC10103FB67
:103D70000511114424EA07020B5C1F403146284616
:103D80003A43FFF703FE03B0F0BD00BF802BFF1FD7
:103D90002DE9F04F314BDFF8CC80314FDFF8C89080
:103DA000A3FB00435B0803EBC304001B83B08A46FC
:103DB000C1B2D8B2019288F800103870564600257A
:103DC000EC00631909EB030B72781BF8011020312A
:103DD000C9B2FFF7DBFD019B002B33D12C444C44CF
:103DE00098F80030F278E15C38786031C9B2FFF7BA
:103DF000CDFD98F800303279E15C387881F08001AF
:103E0000FFF7C4FD98F8003016F8052FE15C38780C
:103E100020390135C9B2FFF7B9FD022D04D0104B8E
:103E20001878104B1978CBE70E4B9AF800201978C8
:103E30000B4B40391878C9B2F02303B0BDE8F04FFE
:103E4000FFF77EBF98F80010B2781BF801103878A1
:103E50004031C9B2FFF79AFDC0E700BF398EE338A1
:103E6000CC2DFF1F7C2BFF1F547E0400F8B5B5EE50
:103E7000400AF1EE10FA2DED028B04460D4625D1D5
:103E80005E2941DD87251E22564B574F574EA3FB17
:103E900004135B0803EBC30ECEEB04045FFA84FE4D
:103EA000AEF15001DCB22046C9B2E02387F800E051
:103EB0003470FFF745FFBDEC028B397830786039FC
:103EC0002A46C9B2BDE8F840FFF760BDB5EEC00AAA
:103ED000F1EE10FAB0EE408A10EE100A58DB3DF019
:103EE000D3FC41EC100B3BF0D3FD51EC100B3DF03B
:103EF000CFFF05445E2D1EDC002D54DC4FF4AB7566
:103F00002946002201231BE000295FD0384A394BA3
:103F1000A2FB0512D20802EB4201A5EB8105EDB22E
:103F20000135920053F8255002F01C02C5F301231D
:103F30001A44EDB2A8E740F2872529461C220C233B
:103F400007EE900AF8EEE77A38EE678AB5EE408A17
:103F5000F1EE10FA17D0B5EEC08AF1EE10FA38DDA6
:103F60000133244850F823305B1A07EE103A07EE6D
:103F7000905AB8EEC77AF8EEE77AE8EE077AFDEEE7
:103F8000E77A17EE905AC5F301231A44EDB27BE7A6
:103F90003DF07AFC41EC100B3BF0EAFC51EC100BCD
:103FA0003DF076FFA5E7124A1249EDB2A2FB0532B9
:103FB000D20802EB4203A5EB83056B1CDBB2920037
:103FC00051F8231002F01C020D46B9E756250122D4
:103FD0005AE7013B074850F82330CB1A07EE103A56
:103FE000C5E700BF398EE3387C2BFF1FCC2DFF1FA8
:103FF000ABAAAAAA1C7E04000F4BF0B4A3FB00439B
:104000005B0803EBC305401B00290C4F0C4EC5B2E7
:1040100014BF10200020002ADCB2A5F1400114BF1B
:10402000202200223D70024434702046C9B2CF23C2
:10403000F0BCFFF785BE00BF398EE3387C2BFF1F35
:10404000CC2DFF1F0C4BA3FB0023F0B45B0803EB4C
:10405000C3050A4F0A4E401BC5B2DCB200293D70B1
:10406000A5F1500120463470C9B214BF20220022AD
:10407000DF23F0BCFFF764BE398EE3387C2BFF1FD3
:10408000CC2DFF1F1D4BA3FB00235B082DE9F04146
:1040900003EBC304001B1A4E1A4DC4B2D8B23470DD
:1040A000287041B90A46A4F15001C9B21F23BDE8E6
:1040B000F041FFF745BE144F395D4031C9B2C0230E
:1040C0003F22FFF73DFE327828783A44C023517AE8
:1040D0004031C9B23F22FFF733FE3178287850399A
:1040E000C9B20022FFF752FC317828786039C9B292
:1040F0000022BDE8F041FFF749BC00BF398EE3382C
:104100007C2BFF1FCC2DFF1F547E04000C4BA3FB08
:1041100000239B0803EB4303A0EB43030122DBB224
:1041200002FA03F30628DAB26FEA020334BF012071
:1041300003200029DBB208BF00220421FFF700BEE4
:10414000ABAAAAAA2DE9F04F002490F800E090F85D
:104150000190544E544D34708FB02246DF23B0216D
:10416000074620460EEB09292C70FFF7E9FD4F4B5F
:1041700022461B78019305210120FFF707FC4C4BD9
:104180005A7D0D9293F82A200C9293F83F200B92BF
:1041900093F854200A92DA7809921A7E089293F8DA
:1041A0002D20079293F84220069293F8572005920B
:1041B00093F8692093F800B00492B9F1010F93F8D5
:1041C000722093F87E30039202931EDD02244FF09A
:1041D00003083B5D3D19661C8BB15E1EF6B204F10F
:1041E000030A18FB06AABA44EA78A9786878033566
:1041F000FFF7CCFBAA45F7D1043418FB0646741C24
:10420000B85D39F075FAA145E3DA019B012B8CBF4B
:104210000022012205210120FFF7B8FB5A46202188
:104220000020FFF7B3FB0D9A40210020FFF7AEFB03
:104230000C9A60210020FFF7A9FB0B9A8021002037
:10424000FFF7A4FB0A9AE0210020FFF79FFB099AE1
:1042500023210020FFF79AFB089A43210020FFF753
:1042600095FB079A63210020FFF790FB069A8321B4
:104270000020FFF78BFB059AE3210020FFF786FB68
:10428000029AC0210020FFF781FB049AA0210020A0
:10429000FFF77CFB039AB02100200FB0BDE8F04F80
:1042A000FFF774BBCC2DFF1F7C2BFF1FCE2DFF1FF4
:1042B000802BFF1F2DE9F04F404C414F414E424DA6
:1042C000DFF808A1A4FB0034640804EBC403C01A9F
:1042D000C3B283B0F85C3370E4B280F080000DF1BB
:1042E000070288460DF106012C70FFF7D3FA9DF8FE
:1042F000063032789DF807E095F800903A4403EBD9
:1043000043034FF0930BC3EBC303507A0BFB04330F
:1043100053440DF107020DF1060180F0800013F8FF
:104320000E40FFF7B7FA9DF806209DF8071002EB44
:104330004202C2EBC2020BFB0922924404F00F04BA
:104340001AF8012002F00F03A342A8BF23465BB175
:10435000013BDBB24FF4005242FA03F3984507DA0F
:10436000002003B0BDE8F08F4FF400539845F7DB11
:1043700033782878F95C4031C9B2C0233F22FFF777
:10438000DFFC337828781F443F22797A4031C023FC
:10439000C9B2FFF7D5FC317828785039C9B200226C
:1043A000FFF7F4FA317828786039C9B20022FFF7B4
:1043B000EDFA012003B0BDE8F08F00BF398EE3387D
:1043C000547E04007C2BFF1FCC2DFF1F802BFF1F72
:1043D000014B1878704700BFCE2DFF1F034B187894
:1043E00001288CBF00200120704700BFCE2DFF1F89
:1043F00010B50446806920B10B2138F029FE002356
:10440000A361E06910B10B2138F022FE204610BDF7
:10441000F0B585B005462449684637F009FF6E1CA3
:10442000002405E001342020102C06F8010F0BD0E9
:10443000029B9C42F6D22146684638F073F801345C
:10444000102C06F8010FF3D16846002437F0B0FEB7
:104450003F26214610E09069184441709069184445
:10446000867090691844C170906918440171906910
:104470000344597193691970EB69E0B2002B18BFBE
:10448000042700F0010308BF022742084FEA830E09
:10449000B84205EB8202734404F10104DBD300232C
:1044A0006B6105B0F0BD00BF90B8040000787047A4
:1044B0000170704710B50231044637F0B9FE20464E
:1044C00010BD00BF70B50E46451C002405E0013448
:1044D0002020102C05F8010F0BD0B3689C42F6D2B7
:1044E0002146304638F01EF80134102C05F8010F33
:1044F000F3D170BDC069003018BF0120704700BF04
:104500000078C009704700BF2DE9F047334E344FA3
:10451000C46996F800C097F80080002292461146C0
:1045200015461EE0DB781B0918BF45F00105634600
:10453000BEF1010F94BF4FF000084FF0010808F1E1
:10454000060E03EB830350F82EE0734401335B78CF
:104550004FF0010A03F03F033E2B98BF41F00101E9
:1045600052445FFA82FEC4B1BEF1030F27D80EF0A9
:10457000010C04EB8C03BEF1010F6344D2D88369B4
:104580000EEB8E0C9C4473469CF803C05FEA1C1C27
:1045900018BF45F00105F446CAE7BEF1010F0EEB66
:1045A0008E090CD883694B440133F44693F802E03A
:1045B0005FEA1E1E18BF45F00105A046C7E7BAF125
:1045C000000F05D1002D14BF08460020BDE8F0877C
:1045D00087F8008086F800C0F4E700BFCF2DFF1FEA
:1045E000D02DFF1FC369002B14BF04200220704789
:1045F0004078704770B50446417039B9C069B8B1A8
:104600000D460B2138F024FDE56170BDC569002D14
:10461000FBD10B2038F018FD294606460B223EF050
:10462000B9F8701C0A22034938F0A2FBE66170BD9C
:1046300070BD00BF687E04002DE9F041134F0446B1
:1046400000250E46904607F10C01457011220230FC
:1046500038F08EFB26706561A561E5610B2038F0AE
:10466000F3FC294606460B223EF094F80A2239460E
:10467000701C38F07DFB41462046A661FFF7BAFF6B
:104680002046FFF7C5FE2046BDE8F081687E0400A5
:10469000052A17D0C36930B4D3B1012994BF0024CF
:1046A00001242346063301F0010150F82330094D5F
:1046B0000948297003EB810319441144047030BC8C
:1046C000487870474908063150F82130187870470B
:1046D0001C46E7E7CF2DFF1FD02DFF1FC3692BB16D
:1046E00001F00101063150F82100704719460631EA
:1046F00050F82100704700BF40697047C36910B48B
:10470000ABB1012994BF0022012213460633094CA4
:1047100050F82300084B01F0010121708C00214466
:1047200001441A7048785DF8044BC00970471A4676
:10473000ECE700BFCF2DFF1FD02DFF1FC36910B4C2
:10474000B3B1012994BF0022012213460633094C5C
:1047500050F82300084B01F0010121708C00214426
:1047600001441A7048785DF8044BC0F3801070471C
:104770001A46EBE7CF2DFF1FD02DFF1FC36910B4E2
:10478000B3B1012994BF0022012213460633094C1C
:1047900050F82300084B01F0010121708C002144E6
:1047A00001441A7048785DF8044BC0F3401070471C
:1047B0001A46EBE7CF2DFF1FD02DFF1FC36910B4A2
:1047C000B3B1012994BF0022012213460633094CDC
:1047D00050F82300084B01F0010121708C002144A6
:1047E00001441A7048785DF8044BC0F3001070471C
:1047F0001A46EBE7CF2DFF1FD02DFF1FC36910B462
:10480000B3B1012994BF0022012213460633094C9B
:1048100050F82300084B01F0010121708C00214465
:1048200001441A7048785DF8044B00F00F0070479F
:104830001A46EBE7CF2DFF1FD02DFF1FC36910B421
:10484000ABB1012994BF0022012213460633094C63
:1048500050F82300084B01F0010121708C00214425
:1048600001441A7088785DF8044B800970471A4635
:10487000ECE700BFCF2DFF1FD02DFF1FC36910B481
:10488000B3B1012994BF0022012213460633094C1B
:1048900050F82300084B01F0010121708C002144E5
:1048A00001441A7088785DF8044B00F03F007047AF
:1048B0001A46EBE7CF2DFF1FD02DFF1FC36910B4A1
:1048C000ABB1012994BF0022012213460633094CE3
:1048D00050F82300084B01F0010121708C002144A5
:1048E00001441A70C8785DF8044B000970471A46F5
:1048F000ECE700BFCF2DFF1FD02DFF1FC36910B401
:10490000B3B1012994BF0022012213460633094C9A
:1049100050F82300084B01F0010121708C00214464
:1049200001441A70C8785DF8044B00F00F0070471E
:104930001A46EBE7CF2DFF1FD02DFF1FC36910B420
:10494000ABB1012994BF0022012213460633094C62
:1049500050F82300084B01F0010121708C00214424
:1049600001441A7008795DF8044B000970471A4633
:10497000ECE700BFCF2DFF1FD02DFF1FC36910B480
:10498000B3B1012994BF0022012213460633094C1A
:1049900050F82300084B01F0010121708C002144E4
:1049A00001441A7008795DF8044B00F00F0070475D
:1049B0001A46EBE7CF2DFF1FD02DFF1FC36910B4A0
:1049C000B3B1012994BF0022012213460633094CDA
:1049D00050F82300084B01F0010121708C002144A4
:1049E00001441A7048795DF8044B00F007007047E5
:1049F0001A46EBE7CF2DFF1FD02DFF1FC36903B170
:104A000001B9836918784008704700BFC36903B1D2
:104A100001B98369187800F001007047C3694BB190
:104A200082691B7810785B0003F0020300F001003C
:104A3000184470478369187800F00100704700BF80
:104A400090F90030002B0BDB5E2902DD5F21416114
:104A5000704711F15E0FB8BF6FF05E0141617047A2
:104A60005E29F3DC0029D8BF00214161704700BFF7
:104A700010B4C369C2B183B3012994BF00220122DB
:104A800013460633174C50F82300174B01F0010171
:104A900021708C00214401441A704B7863F07F032D
:104AA0004B705DF8044B7047CBB1012994BF0022D5
:104AB0000122134606330B4C50F823000A4B01F039
:104AC000010121708C00214401441A704B7803F0DD
:104AD0007F034B705DF8044B70471A46D1E71A46C6
:104AE000E8E700BFCF2DFF1FD02DFF1F10B4C36913
:104AF000C2B183B3012994BF0022012213460633B9
:104B0000174C50F82300174B01F0010121708C0065
:104B1000214401441A704B7843F040034B705DF818
:104B2000044B7047CBB1012994BF002201221346E8
:104B300006330B4C50F823000A4B01F001012170A1
:104B40008C00214401441A704B7823F040034B70D1
:104B50005DF8044B70471A46D1E71A46E8E700BFF4
:104B6000CF2DFF1FD02DFF1F10B4C369C2B183B377
:104B7000012994BF0022012213460633174C50F836
:104B80002300174B01F0010121708C0021440144E6
:104B90001A704B7843F020034B705DF8044B70475C
:104BA000CBB1012994BF00220122134606330B4CDE
:104BB00050F823000A4B01F0010121708C002144C0
:104BC00001441A704B7823F020034B705DF8044BBE
:104BD00070471A46D1E71A46E8E700BFCF2DFF1FFE
:104BE000D02DFF1F10B4C369C2B183B3012994BF94
:104BF0000022012213460633174C50F82300174BAE
:104C000001F0010121708C00214401441A704B789D
:104C100043F010034B705DF8044B7047CBB1012992
:104C200094BF00220122134606330B4C50F8230098
:104C30000A4B01F0010121708C00214401441A70DB
:104C40004B7823F010034B705DF8044B70471A4605
:104C5000D1E71A46E8E700BFCF2DFF1FD02DFF1F79
:104C6000C36910B4FBB1012914D901F0010103EBB0
:104C7000810312480B440170013301211048017077
:104C8000197802F00F0221F00F010A441A705DF842
:104C9000044B70478469094801EB810323440133C5
:104CA00001700021EAE701F00101846903488B00EB
:104CB0000B44234401330170F3E700BFCF2DFF1FE6
:104CC000D02DFF1FC36910B4F3B1012913D901F02E
:104CD0000101124803EB81030B44017001330120F1
:104CE00059780F4C01F03F0101EB82125A7020708D
:104CF0005DF8044B70478469084801EB8103234445
:104D0000013301700020EBE701F0010184690348E1
:104D10008B000B44234401330170F3E7CF2DFF1FB9
:104D2000D02DFF1FC36910B4FBB1012914D901F0C4
:104D30000101134803EB81030B440170013301208F
:104D40005978104C02F03F0221F03F010A445A709A
:104D500020705DF8044B70478469094801EB8103BA
:104D60002344013301700020EAE701F00101846966
:104D700003488B000B44234401330170F3E700BF69
:104D8000CF2DFF1FD02DFF1FC36910B4F3B1012930
:104D900013D901F00101124803EB81030B440170A8
:104DA0000133012099780F4C01F00F0101EB021241
:104DB0009A7020705DF8044B70478469084801EBD5
:104DC00081032344013301700020EBE701F001016E
:104DD000846903488B000B44234401330170F3E7DB
:104DE000CF2DFF1FD02DFF1FC36910B4FBB10129C8
:104DF00014D901F00101134803EB81030B44017046
:104E0000013301209978104C02F00F0221F00F01BC
:104E10000A449A7020705DF8044B70478469094811
:104E200001EB81032344013301700020EAE701F024
:104E30000101846903488B000B4423440133017052
:104E4000F3E700BFCF2DFF1FD02DFF1FC36910B4A4
:104E5000F3B1012913D901F00101124803EB8103D9
:104E60000B44017001330120D9780F4C01F00F0180
:104E700001EB0212DA7020705DF8044B7047846910
:104E8000084801EB81032344013301700020EBE764
:104E900001F00101846903488B000B442344013372
:104EA0000170F3E7CF2DFF1FD02DFF1FC36910B492
:104EB000FBB1012914D901F00101134803EB81036F
:104EC0000B44017001330120D978104C02F00F021D
:104ED00021F00F010A44DA7020705DF8044B70472E
:104EE0008469094801EB81032344013301700020E8
:104EF000EAE701F00101846903488B000B44234475
:104F000001330170F3E700BFCF2DFF1FD02DFF1F2E
:104F1000C36930B4ABB1012994BF002401242346F6
:104F20000633094D50F82300084B01F001012970A8
:104F30008D002944014402F007024A711C7030BC04
:104F400070471C46ECE700BFCF2DFF1FD02DFF1F81
:104F5000C3694BB141B11978520002F00E0201F061
:104F600001010A441A7070478369F4E7C3693AB1D2
:104F700003B101B983691A7842F001021A707047CF
:104F800003B101B983691A7822F001021A707047DF
:104F90008269137811F0010F14BF43F0010323F06D
:104FA00001031370C3692BB189071A7803D422F067
:104FB00001021A70704742F001021A70704700BF78
:104FC0002DE9F04305468BB046B2202038F03CF87E
:104FD000F243D20F29460446FFF72EFB474A00232F
:104FE0008DF8243002EB051205AB09A812F8011B5D
:104FF00003F8011B8342F9D105A901A837F018F97C
:1050000001A92046FFF75EFA01A837F0D1F8002E7B
:105010004FF00001204649DBFFF760FB012180468D
:105020002046FFF75BFB364B53F82550074629789F
:105030002046FFF705FD05F10A06AC4605F1050E11
:1050400005F10F0042463B4600211CF8019F82F803
:1050500001901EF8019F82F8069016F8019F83F8D0
:105060000190013110F8019F83F80690042902F1A4
:10507000010203F10103E8D1AB7A03F0070388F8DA
:105080000530AB7AC3F3021388F80A306B7988F8DD
:1050900000302B7D1B117B712B7D03F00F03BB7246
:1050A000EB7B3B7020460BB0BDE8F083FFF716FBAF
:1050B000803D144B53F82570064639782046FFF79B
:1050C000BFFC3846791D3346002210F8015F5D7041
:1050D000013211F8015F9D71042A03F10103F4D13B
:1050E000BB7A03F007037371BB7AC3F30213B37285
:1050F0007B79337020460BB0BDE8F0834484040014
:1051000010930400247F04002DE9F843244F8046C7
:1051100007F52F763C464FF0000954F8045F45B17F
:105120002846FFF765F92846202137F091FFC4F89B
:105130000090B442F1D1002406E0FFF741FF0134B2
:10514000AF2C47F8040F12D0E6B23046B8F1000F8A
:10515000F3D1202037F078FF01340546424631462E
:10516000FFF76AFA2846AF2C47F8040FECD10D4D33
:10517000002402E00134102C0DD055F8043F002B20
:10518000F8D1092C0CBF80200020FFF719FF013453
:10519000102C2860F1D1BDE8F843FDF791BF00BFA6
:1051A000102EFF1FD02DFF1FAE28A8BFAE20024B30
:1051B00053F82000704700BF142EFF1F014B53F817
:1051C00020007047D42DFF1FF0B50D4691B0044666
:1051D000002A00F0A5800B0657D4584F584904A860
:1051E000632D98BF394637F023F8564BA3FB0523B0
:1051F0005B09642101FB1353DBB2092B3FD95249F0
:10520000A1FB0331C90868460A226E4637F056F8FA
:10521000314604A837F018F94B49A1FB0531C908FC
:1052200001EB8101A5EB41010A220746C9B208A89A
:1052300037F044F808A9384637F006F9434937F003
:105240000BF9434B074653F825100CA8FFF732F92A
:105250000CA9384637F0F8F80146204636F0FCFF36
:105260000CA836F0A5FF08A836F0A2FF304636F0AD
:105270009FFF04A836F09CFF204611B0F0BD3946D0
:1052800068466E4636F0D4FFC2E72E4B81F08007A9
:10529000A3FB07235B09642101FB1373DBB2092B1A
:1052A00046D92949A1FB0331C90868460A226E463E
:1052B00037F004F8314608A836F0CEFF2249A1FBAA
:1052C0000731C90801EB8101A7EB41010A22C9B2EC
:1052D00004A836F0F3FF04A908A837F0B5F81B4975
:1052E00037F0BAF81A4B074653F825100CA8FFF709
:1052F000E1F80CA9384637F0A7F80146204636F009
:10530000ABFF0CA836F054FF04A836F051FF08A8F4
:1053100036F04EFF304636F04BFF204611B0F0BD60
:105320000B4B53F82110FFF7C5F8204611B0F0BD24
:10533000684602496E4636F07BFFBBE7B88304003F
:10534000D4CC04001F85EB51CDCCCCCCBC83040065
:10535000142EFF1F2DE9F043064685B0002860D0CB
:105360000F4600294DD0FFF7A1F801463846FFF758
:105370009FF83046FFF73CF901463846FFF73AF907
:1053800068463146FFF796F869463846FFF79AF8BF
:10539000684636F00DFF3046FFF7AEF90146384655
:1053A000FFF74EFB3046FFF71DF90025ECB28442B3
:1053B00023D24FEA540949463046FFF78FF904F0EB
:1053C0000104804649463846FFF788F9A3001C448B
:1053D000611D98F8003003704144204408EB040339
:1053E00013F8012F00F8012F8B42F9D13046FFF757
:1053F000F9F80135ECB28442DBD3384605B0BDE89C
:10540000F083FFF753F804463046FFF7F1F80546FE
:10541000202037F019FE2A4621460746FFF70CF9EF
:10542000AEE7EBE7AE290A46044B0549A8BFAE221A
:1054300051F8201053F82200FFF78CBF142EFF1FE5
:10544000D42DFF1F38B5094C054654F82000FFF74E
:105450002DF8AE28064B54F82510A8BFAE2053F8FF
:105460002000BDE83840FFF775BF00BFD42DFF1FF7
:10547000142EFF1F024B53F82000FEF7C9BF00BFD8
:10548000142EFF1F024B53F82000FFF73DB800BF5A
:10549000142EFF1F08B5044B53F82000FFF7A8F89F
:1054A000003018BF012008BD142EFF1F38B5074C6F
:1054B00004F52F7501E0AC4207D054F8040FFFF754
:1054C00097F80028F7D0012038BD38BD102EFF1FF7
:1054D00070B5FEF77DFF1C4B0228187027D00328FB
:1054E00019D001280BD0194D194C1A481A4A0C230F
:1054F000242604212E7023700370117070BD134D8B
:10550000134C1448144A0623122602212E702370CD
:105510000370117070BD0D4E0D4D0E480E4A1223D2
:105520000024022133702B700470117070BD074E7F
:10553000074D0848084A09230024012133702B70C5
:105540000470117070BD00BFD030FF1F9015FF1F99
:105550009D11FF1F9215FF1F9115FF1F2DE9F04FA1
:10556000DFF8ACB0274C9BF80030D4F8008083B053
:105570008146002B3FD0244F013BDBB21C2404FBAF
:105580000374283407F10C0302E01C339C4211D051
:1055900018784845F9D158788842F6D153F8080C64
:1055A0004045F2D213F80C5C1C33002D18BF804626
:1055B0009C42EDD10024A24605E001349BF8003066
:1055C000E4B2A34217D9C4EBC40607EB86056B68A7
:1055D0009845F2D120460021FEF734FD0B4B07F829
:1055E00026A01B680193019BAB6001349BF800303F
:1055F000E4B2A342E7D84846FEF7C2F803B0BDE8DC
:10560000F08F00BF9415FF1FA011FF1FBC63FF1F89
:105610009015FF1F2DE9F04FDFF880A09AF80030B9
:1056200083B0074683B300248B461B4EDFF870908F
:10563000A04605E001349AF80030E4B2A34223D931
:10564000E5002B1B06EB8302117BB942F2D116F861
:1056500023302046594613B99368002BEAD0FEF751
:1056600011FDBBF1000F15D1D9F800300193019A5B
:105670002D1B06EB850301349A609AF8003006F87A
:105680002580E4B2A342DBD83846FEF783F803B0A6
:10569000BDE8F08F0022EBE7A011FF1F9015FF1F60
:1056A000BC63FF1F2DE9F041174F3B784BB3064613
:1056B000164D002404E001343B78E4B2A3421ED925
:1056C000E3001A1B05EB8201087BB042F3D115F809
:1056D00022200B4612B98A68002AECD01A7E002AD2
:1056E000E9D193F80E80304602F0FEFA204641469A
:1056F000FEF7BCFB01343B78E4B2A342E0D8BDE83E
:10570000F081BDE8F08100BF9015FF1FA011FF1FC1
:105710002DE9F0472DED028B0646FDF7F1FF2B4FEB
:105720003046B0EE408A02F0EDFA3B7828EE008A6F
:10573000002B39D0DFF89880002404E001343B7856
:10574000E4B2A34230D9E5002B1B08EB8302117BA6
:10575000B142F3D118F8233013B99368002BEDD080
:10576000C4EB050A08EB8A0ADAF81490B9F1000FC5
:10577000E4D04846FEF73CFF012819D04846FEF722
:1057800037FF0128DAD02D1B08EB850595ED040ABB
:105790002A7E2046494628EE000AFEF751FA0134D7
:1057A0003B78E4B2A342CED8BDEC028BBDE8F087D3
:1057B0009AF81830002BE1D19AED040A494628EEF8
:1057C000000A2046FEF77EF9B8E700BF9015FF1FDC
:1057D000A011FF1F2DE9F0470746FDF79FFFDFF8F7
:1057E0005CA080463846FDF7A3FF9AF800300BB363
:1057F0008146114E002405E001349AF80030E4B2ED
:10580000A34217D9C4EBC40306EB83052A7BBA4233
:10581000F2D116F8233020464A46414613B9AB6808
:10582000002BE9D0FEF7E8FB01349AF80030E4B22F
:10583000A342E7D8BDE8F087A011FF1F9015FF1F16
:10584000F8B5184F3B78064633B3174D002404E0F3
:1058500001343B78E4B2A3421ED9E3001A1B05EBE6
:105860008201087BB042F3D115F822200B4612B911
:105870008A68002AECD05A691046002AE8D0197EBE
:10588000FEF72CFF002201462046FEF781FA013484
:105890003B78E4B2A342E0D83046BDE8F840FFF7D9
:1058A00037BF00BF9015FF1FA011FF1F2DE9F04368
:1058B000DFF8609099F8003083B033B3144EDFF80E
:1058C0005880002405E0013499F80030E4B2A34286
:1058D0001BD9C4EBC40306EB830716F82350002D35
:1058E000F1D1BB68002BEED0D8F8002001920199CD
:1058F0002046C91AFEF7DEFC0028E4D0013499F8EE
:105900000030BD60E4B2A342E3D803B0BDE8F08349
:10591000A011FF1F9015FF1FBC63FF1F2DE9F04F63
:10592000644B654A1B78126885B0002B00F0AB8091
:10593000624C63492478634E039204EBC404640010
:10594000013BFF2554FA83F3013C0C4401EB030CAB
:105950000295AA460195904691464FF0000B0090A3
:105960000DE0DEF804705B1A06EB83031B7B092B4A
:1059700022D047453CBFB8460D46A44521D014F877
:10598000011FFF29F9D0CB005F1A06EB870E16F82E
:105990002770002FE5D1DEF8147000988742DEF8FA
:1059A000047018D09742DED25B1A06EB83033A46A6
:1059B0001B7B092B8A46DCD14F453CBFB94602917F
:1059C000D7E7019BFF2B10D0BBF1010F0DD9019838
:1059D00005B0BDE8F08F03980BF1010B87425FFA29
:1059E0008BFBDFD203970191DCE7BAF1FF0F05D003
:1059F000CDF804A0019805B0BDE8F08F324B93F8C4
:105A000000A0BAF1000F35D00026FF2300952F48E3
:105A10002C4CB646B346B04603271D46914604E0DB
:105A20009CF802E09CF803700230CEEBCE03C7EB8B
:105A3000C70114F823200136844604EB83032AB9F6
:105A40005B68994502D999467546C34614F82130DA
:105A500004EB81012BB94B68994502D9C34699469D
:105A60003D465FFA86F8C245DAD82B46FF2B0195F2
:105A7000009D12D1029CFF2C15D000212046FEF77C
:105A8000E1FA0194A3E7104B93F800A0BAF1000FDC
:105A900008D0FF2302931D46B6E758460021FEF7C3
:105AA00035FB94E7FF2500212846FEF7CBFA019548
:105AB0008DE700BF9D11FF1F9415FF1FD030FF1F02
:105AC000789A0400A011FF1F9215FF1FC09A0400CE
:105AD0002DE9F04F474B93F8009089B0B9F1000FD2
