:1000000000000320D1010000590F0400110F04006B
:10001000110F0400110F0400110F0400110F040050
:10002000110F0400110F0400110F0400590F0400F8
:10003000590F0400110F0400A1FC0300A5FC0300EC
:10004000590F0400590F0400590F0400590F040000
:10005000590F0400590F0400590F0400590F0400F0
:10006000590F0400590F0400590F0400590F0400E0
:10007000590F0400590F0400590F0400590F0400D0
:10008000590F0400590F0400590F0400590F0400C0
:10009000590F0400590F0400590F0400590F0400B0
:1000A000590F0400590F0400590F0400590F0400A0
:1000B000590F0400590F0400590F040015210400C2
:1000C000590F0400590F0400590F0400590F040080
:1000D000590F0400590F0400590F0400590F040070
:1000E000590F0400590F0400590F0400590F040060
:1000F000590F0400590F0400590F0400590F040050
:100100008138040095380400A9380400BD38040083
:10011000590F04005D240400590F0400590F040016
:10012000590F0400590F0400590F0400590F04001F
:10013000590F0400590F0400590F0400590F04000F
:10014000590F0400590F0400590F0400590F0400FF
:10015000590F0400590F0400590F0400590F0400EF
:10016000590F0400590F0400590F0400590F0400DF
:10017000590F0400590F0400590F0400590F0400CF
:10018000590F0400590F0400590F0400590F0400BF
:10019000590F0400590F0400590F0400590F0400AF
:1001A000590F0400590F0400590F0400590F04009F
:1001B000590F0400590F0400590F0400590F04008F
:1001C000590F0400590F0400590F0400590F04007F
:1001D0005C4B4CF2205210B51A804DF628121A8052
:1001E00000BF00BF40F0BCFE574B4FF030621A60BA
:1001F000564A9A60564ADA60564B4FF470021A60BB
:10020000554B564A1A60564B1A78110703D51A787F
:1002100042F008021A70534B5349AA221A70534AEB
:10022000534B8B4204D252F8040F43F8040BF8E707
:10023000504B514900228B4202D243F8042BFAE77B
:100240004E494F4A002352F8230041F8230001335E
:10025000742BF8D14B4B4C4A802103F8011B93427D
:10026000FBD14A4B454A1A60494B8A221A70A3F5C2
:10027000805324225A70A0221A709A799207FCD5D2
:100280009A79D406FCD4434A937903F00C03082BE3
:10029000FAD1414B60221A7002331A78802AFCD1BD
:1002A0003C4B01221A715D225A719A799006FCD555
:1002B0009979384A4906FBD5384B394919600021EC
:1002C000596020231370937903F00C030C2BFAD19F
:1002D000344B354A1A60354A354C136813F4807331
:1002E00003D123604FF4A8531360324B324A1A6093
:1002F00000225A60072243F8042C304AC3F80C2D20
:1003000062B641F043FA2368DA0705D52C4840F07D
:10031000F9FF2C4B2C4A1A602C4B1B785B0609D535
:10032000284C294B22689A4204D1254840F0EAFF24
:100330000023236040F01AFE45F04EFE40F00CFD15
:10034000FEE700BF0E20054030800440823F0400DD
:100350000100002B88ED00E0002008E0030000858C
:1003600002D0074000E007407826FF1F2CA80500B8
:10037000400CFF1F7826FF1F0C67FF1F0002FF1FA6
:100380000000000000E400E064E400E008ED00E0AC
:10039000005006400040064001E007404480044011
:1003A0000000060204800440C010070010D0034083
:1003B00014D0034014E000E01FBF02000000202022
:1003C000CD1829671CE00340A5C3945A00F00740EC
:1003D000FFFFFFFFFFFFFFFFFFFFFFFFFFFFFFFF2D
:1003E000FFFFFFFFFFFFFFFFFFFFFFFFFFFFFFFF1D
:1003F000FFFFFFFFFFFFFFFFFFFFFFFFFFFFFFFF0D
:10040000FFFFFFFFFFFFFFFFFFFFFFFFDEF9FFFF23
:1004100010B5054C237833B9044B13B10448AFF33E
:1004200000800123237010BD7826FF1F000000000C
:1004300028A80500084B10B51BB108490848AFF3C0
:1004400000800848036803B910BD074B002BFBD0A0
:10045000BDE81040184700BF000000007C26FF1FC9
:1004600028A805007826FF1F000000002DE9F04FA6
:1004700089B00646139D149C0394012D169C049488
:100480009DF84890DDF854B00F4690461C4600F0A9
:100490009C80032B64DD032A00F3A680B3B2BAB2BA
:1004A000059303F1010A531C1BB2A4B206920793F1
:1004B0001A46ADB20FFA8AFAA31E009551461BB236
:1004C00059483CF06BF91FFA88F808F1FF3536B24D
:1004D0003FB22DB2B9F1000F5BD01FFA8BFB04F1D4
:1004E000FF39CDF800B02B463A4631464E480FFA58
:1004F00089F93CF063F9CDF800B04B463A463146F5
:1005000049483CF04BF9069BBDF80CB01C44013C3B
:1005100024B22B4651462246CDF800B042483CF06A
:100520004DF9059BBDF81050079ACDF800B09844DE
:1005300008F1FF380FFA88F84B4641463A483CF03C
:100540002DF93A4641462B4637483BF09BFF36484B
:100550002B462246314609B0BDE8F04F3BF092BF32
:100560009CD183B28AB2059303F1010A531C1BB2DA
:100570001FFA88F80692ADB20FFA8AFA1A46079364
:10058000A8F10203009551461BB227483CF016F92A
:100590009BE7BDF80C30039300933A462B46314657
:1005A000214804F1FF393CF009F90FFA89F9039B5E
:1005B00000933A464B4631461B483CF0EFF8069B09
:1005C0001C44013C1FFA8BFBA2E783B28AB203F101
:1005D000010A0593531C1BB206921FFA88F8A4B2B5
:1005E0000FFA8AFA079370E78AB29CB2114683B277
:1005F000059303F1010A0B4601331BB206921FFA61
:1006000088F8A21E1846ADB212B20FFA8AFA079302
:10061000A8F102038DE82400514602461BB20248AD
:100620003CF074FA51E700BFF05EFF1F2DE9F04780
:10063000161E9DF82070099DDDF828E0DDF82CC01D
:10064000DDF830A011DD002B0FDD012E0FD0012BC6
:1006500019D0CDF830A0CDF82CC0CDF828E0099500
:100660000897BDE8F047FFF701BFBDE8F087012D0F
:10067000FBD0ADB208950AB21BB201B2BDE8F0479B
:1006800007483CF08BB8012DEFD0ADB2089533B2DE
:100690000AB2BDE8F04701B201483CF08FB800BF94
:1006A000F05EFF1F2DE9F04F85B004461F46002085
:1006B0001BB2009301900DF140090F98039099E847
:1006C000000E0D46164613B20C489DF838800AB24B
:1006D00021B23EF031F803980F90BB1EB21E691C88
:1006E000601CCDF848B0CDF844A0CDF84090CDF8CE
:1006F000388005B0BDE8F04FFFF798BFF05EFF1FF0
:1007000070B58AB044F208269DF83C4000944FF63C
:10071000FF7548F210440494019403960295144620
:1007200005460E46FFF7BEFF0E9906A83FF07CFD7A
:10073000164B06991648002908BF194600223FF0BB
:10074000E5F80138201A00EBD07040100328CCBF28
:1007500080B204204119F21C12B209B20C483FF0D9
:10076000AFF806A83FF00CFD002109483FF0CAF899
:10077000012107483FF0C0F80E9905483FF038FBCB
:1007800003483FF05BFB0AB070BD00BFE6A1050067
:10079000F05EFF1F2DE9F0472DED028B86B0B0EE25
:1007A000408A9DF844709DF840A0F0EE608A814632
:1007B000884615461E46002F5BD1043D07EE905A31
:1007C000B8EEE77AF4EEC88AC7EE287AF1EE10FAAE
:1007D000D4BFB0EE680AB0EE480AB5EE400A9FED0D
:1007E0002E7AF1EE10FA98BFB0EE470A27EE800A93
:1007F000FDEEC07A17EE904A002C1DDD44F208236E
:10080000BAF1000F48F2104118BF184644F2FF72C7
:1008100012BF4FF482630A46002000218DE80A00CF
:1008200002920390049317EE902A331F08F10201FD
:1008300009F10200FFF7FAFE27B106B0BDEC028B0A
:10084000BDE8F087A4B209F102092B1B04EB0901F2
:1008500008F10202043E1148119736B21BB209B2E8
:1008600012B2109606B0BDEC028BBDE8F0473CF02A
:100870004DB948F2104444F2082E04944FF6FF7428
:10088000CDF80CE002944FF0000E01248DE81040EA
:10089000FFF708FF91E700BF00000000F05EFF1FB8
:1008A00070B586B048F2104344F208264FF6FF7543
:1008B0000124049301930396029500940223FFF709
:1008C000B5FE06B070BD00BF2DE9F0410E4C0F4DD6
:1008D000E561984606460F462046012115463FF041
:1008E0000BF81FFA88F120463FF00CF83AB231B20B
:1008F00020463EF0E5FF294620463FF079FA044BBA
:10090000E361BDE8F08100BFF05EFF1FD883040003
:100910005C8204002DE9F047284C294DE5610E4624
:100920000546012120469A4617461FFA86F83EF0F2
:10093000E3FFBDF8201020463EF0E4FF0FFA85F9F2
:1009400008F1FF3212B2494620463EF0B9FFADB27F
:10095000394620463FF04CFA36B2691C324609B29D
:1009600020463EF0ADFF394620463FF041FA08F1FF
:10097000010212B2494620463EF0A2FF3946204607
:100980003FF036FA691E324609B220463EF098FF23
:10099000394620463FF02CFA1FFA8AF120463EF0F5
:1009A000B1FF3246494620463EF08AFF394620468E
:1009B0003FF01EFA034BE361BDE8F087F05EFF1FD6
:1009C000D88304005C82040010B582B01BB2BDF86D
:1009D00010400093019413B20AB201B202483CF0F5
:1009E00095F802B010BD00BFF05EFF1F2DE9F04F7B
:1009F00089B08A46139C0693E31D0393159BCDF89B
:100A00001CA00027DDF848B0169E4B4DDDF850A025
:100A1000049004F1FF3905925C1E3946BC4619F872
:100A2000018F14F801EFA5F12003802206E0C1B286
:100A30001E600433AB424FEA520212D01EEA020F8C
:100A400001F10100F3D118EA020F0CF1010056D0B8
:100A5000C3F800A00433AB425FFA80FC4FEA5202B5
:100A6000ECD103F12005039B9945D8D1BC45DDF8B5
:100A70001CA05CD98C455CD2012E0DD0B2B2BDF960
:100A80001830019200930FFA8AF2BDF91430BDF9C3
:100A900010102A483CF03AF8069B53449A459B466E
:100AA0003ADA059B049ADFF89C80CDF80CB01F461B
:100AB00017449346BB4527DA214D0AEA0505002D68
:100AC00030DBED005C460FFA8AF90FE02B4458F852
:100AD00023309E4207D0012B21B29BB24A461748D1
:100AE00001D03BF0CFFC0134BC420DD0144B23406D
:100AF000002BEBDA013B63F007030133E6E7013734
:100B0000FFB2C3F800B094E71AF00F0F07D0039BB1
:100B10000AF1010A9A45CDD109B0BDE8F08F14F071
:100B20004DF9F4E7013D65F007050135C9E75E467B
:100B3000A2E7FCD9149E9FE7B426FF1FF05EFF1FBB
:100B4000070000809426FF1F2DE9F04F8BB0002591
:100B50009A461BB20446884616469DF85C70009380
:100B6000019513B20AB201B26D4808971FFA88FBCB
:100B70003DF0E2FDA2B2AAF102000992511C00B2BE
:100B80004FF482670BF10102B31E09B212B200905A
:100B90001BB201976248DFF89091A71907973BF0C5
:100BA000B5FF604A019208F10307012207980092FD
:100BB00039465346032204950295CDF80C90FFF771
:100BC00015FF584A01920334012200920323049531
:100BD000CDF80C9002952046324608EB0A01FFF74B
:100BE00005FF089B002B70D04FF6FF7944F28F234E
:100BF000102200950493019303920D23A6F1120293
:100C000039462046CDF80890FFF74CFD01214448B5
:100C10003EF072FE099942480BF10602083112B209
:100C200009B23EF04DFE49463D483EF06BFE149938
:100C30003B483FF0DDF83A483FF000F90095079D4A
:100C4000CDF8089048F2104B0D2344F208223946A3
:100C50000392A5F110001A46CDF810B0CDF804B0FB
:100C6000FFF720FD44F208214FF6082207230391E5
:100C7000012100910192CDF810B0CDF80890A5F1B6
:100C80000D001A4608F10601FFF7F0FB159BCBB1EA
:100C9000A3F10203B3FA83F35B0948F2104E44F266
:100CA00008274FF6FF750093169B0193B21FAAF118
:100CB000150308F112012046CDF810E003970295C4
:100CC000FFF7F0FC0BB0BDE8F08F0899009144F2FB
:100CD0008F234FF6FF751022394604930193039238
:100CE0000D23B21F20460295FFF7DCFC01210C48C2
:100CF0003EF002FE09990A480BF10602083112B2D1
:100D000009B23EF0DDFD294605483EF0FBFD149991
:100D100003483FF06DF802483FF090F8B6E700BF97
:100D2000F05EFF1F5CBC0400207D04002DE9F04F45
:100D300087B01478049201909DF8402003914FEA07
:100D4000530A002C43D1002A3ED0531EDBB201339C
:100D50001FFA80FB0593DFF8449102940BF1010325
:100D600001940093BAF1000F25D0019B039A9F18BC
:100D7000049B029A3FB203EB0208002618F8015FB9
:100D800045487400A4B22B1104EB0B0109B239F8E9
:100D900023303A463BF076FB009B3F4805F00F05B9
:100DA000E118013639F8253009B23A463BF06AFBC2
:100DB000F3B29A45E2D8029A019B52440292059AF4
:100DC000013393420193CDD107B0BDE8F08F012CE0
:100DD000FAD1D90812FB01F10131002AF4D0531ED7
:100DE0004FF0000BDBB20133A0465D465C46CDF808
:100DF00000B0DDF810B005930291BAF1000F1ED0DB
:100E0000039B009A13441BB20493029B00260BEB36
:100E100003071DB91BF8084008F10108220617F85E
:100E2000019B2AD46400E4B2230614D40136F3B241
:100E3000640002359A45E4B205F00705E9D8029A44
:100E4000009B52440292059A013393420093D4D1FD
:100E500007B0BDE8F08F019B039A0F48591C009B17
:100E600009F00F099A180D4B01EB460133F82930B0
:100E700009B212B23BF006FBD8E7019A064802EB32
:100E800046014FEA2913054A09B232F82330049A81
:100E90003BF0F8FAC6E700BFF05EFF1F788304005E
:100EA0002DE9F04F8FB015789DF860609DF8644093
:100EB000002D7CD1002C7AD01F460493631EDBB238
:100EC0000D917108924609914A1E591CC7F30733C8
:100ED000D2B20393C7F303130A910593511C07F091
:100EE0000F03C7F303220C90AB460B9107950892B2
:100EF0000693CDF800A0099B002B50D0079B0D9ABC
:100F0000BDF830900B99DFF8B0809F18009A134617
:100F10005B4401EB0B0AA9F102010193029109F173
:100F2000FF393FB21E46924428E0069A059999423D
:100F300008BF1346039AAA422FD0069A0599A942E0
:100F400008BF1546009A1B4838F82330B4B2CBEBE3
:100F50000401891A029A02EB410109B23A463BF0B8
:100F600091FA019B1348E11A09EB410109B238F8E3
:100F700025303A463BF086FA564510D016F8015F08
:100F8000049A2B0905F00F05002ADBD0039A9A4238
:100F9000CBD1039A089BAA42CFD1089DD2E7099AE8
:100FA000079B93440A9A013393420793A3D10FB04E
:100FB000BDE8F08FF05EFF1F7883040008B501687C
:100FC000044B0548002908BF194600223EF09EFC4C
:100FD000013808BDE6A10500F05EFF1F002844F2BD
:100FE000082018BF0020704708B50021092033F001
:100FF000BDF900B908BD044B0222187840F6AC5187
:10100000BDE808403EF0D2BF9C27FF1F08B5002175
:10101000092033F0ABF900B908BD044B022218785F
:1010200040F6B831BDE808403EF0C0BF9C27FF1F26
:1010300008B50021092033F099F900B908BD044B27
:10104000022218784FF4FA61BDE808403EF0AEBFC6
:101050009C27FF1F10B500210446092033F086F9B4
:1010600060B1074B002C41F20401187808BF4FF41F
:101070007A610222BDE810403EF098BF10BD00BF6B
:101080009C27FF1F10B500210446092033F06EF99C
:1010900068B1074A41F2941141F230131078002CE4
:1010A00008BF19460222BDE810403EF07FBF10BDC8
:1010B0009C27FF1F2DE9F04F8BB0804609910B2034
:1010C000002192461C4633F051F9002106460C20BF
:1010D00033F04CF9002107460D2033F047F9002189
:1010E00081460E2033F042F9002183460F2033F071
:1010F0003DF9344D344B55F8292053F8200053F86E
:101100002B1055F8273055F8265003900191049282
:10111000029352462346099900954046FFF766FC24
:101120000021102033F022F9012802D00BB0BDE8D5
:10113000F08F099BDFF898B000264FF0BA092344DE
:101140000893CDF818903546374609F14603DBB2CF
:101150000793069A089B9342E8DDCDF818906B241C
:1011600012E02B466D081F420BD0A04508EB0A0386
:1011700007DC9C4205DA099B4B4502DC089B4B458A
:1011800018DC0134EB2C09D0A4F16B035A07E8D129
:101190001BF80670402501368023E4E7079B1B07F8
:1011A00005D009F10109B9F59B7FCED1BEE713F057
:1011B00005FEF6E700230FFA89F221B203483BF05F
:1011C00061F9DEE77883040064BC0400F05EFF1F71
:1011D000E8B304002DE9F04F052397B0013BFDD1A2
:1011E00000210C465548DFF864B1DFF864A13BF0FC
:1011F000C9FEA1462546A046264623462746A2B25A
:10120000D10700F1918052081BF802703A09002BB7
:101210006AD102F007014A48415C12073AF821807E
:101220005FD4012633462B44E02B65DC05F1080131
:1012300009B21D4609F11A02CDF8008012B23346F8
:101240003E483BF0BBFAE02D71D00023013445F25B
:101250000E329442D3D106A83A493EF0D1FF0A2279
:1012600002A802213FF012F802A906A83FF0E8F810
:1012700035493FF0EDF80A22044602210AA83FF062
:1012800005F80AA920463FF0DBF82F493FF0E0F8C7
:101290000A22044602210EA83EF0F8FF0EA92046BD
:1012A0003FF0CEF8014612A83EF0BEFF12AA44F26B
:1012B00008234FF49D710020FFF706FB12A83EF0B3
:1012C0005FFF0EA83EF05CFF0AA83EF059FF02A89F
:1012D0003EF056FF06A83EF053FF17B0BDE8F08F72
:1012E00016010133DBB2B1E7012BF9D01644F6B297
:1012F00033462B44E02B99DDA9B2C1F1E00309F19B
:101300001A022035083109B21BB212B20B48CDF8CF
:1013100000802E443BF052FAF6B20120814435465B
:1013200040F0E2F9082185E707F00F026FE701209E
:101330000025814440F0D8F92B4687E7F05EFF1F77
:10134000388304002C830400A8040500FC830400F7
:10135000788304002DE9F04F85B0002502900391B9
:10136000AB46AA462F462C462B46A946AAB2D10721
:101370005CD452082F4911F802904FEA1912002B41
:1013800031D12D4802F007011207415C2B4830F89B
:1013900021B025D4012423463B44BE2B2BDCBDF8D1
:1013A0000880BDF80C60B9B21F4606EB0A02414442
:1013B000234612B209B2CDF800B021483BF0FEF945
:1013C000BE2F03BF00270AF1010A3B460023013567
:1013D00040F6C2429542C9D105B0BDE8F08F140174
:1013E0000133DBB2F3E7012BF9D01444E4B2234616
:1013F0003B44BE2BD3DDBDF80880BDF80C60CDF8B2
:1014000000B0BBB2423708EB030106EB0A023C44D2
:10141000C3F1BE0309B21BB212B20948E4B23BF0F9
:10142000CDF90AF1010A27460021BEE709F00F02B3
:10143000A5E700BF84AD0400508304007883040056
:10144000F05EFF1F2DE9F04F814687B08A461846AF
:101450005A491D4617463FF02DF818B1012007B034
:10146000BDE8F08F044601215548564E3EF044FA3F
:10147000BDF8441052483EF045FA294602A83EF015
:10148000D3FE02994E48002908BF314622463EF05D
:101490003DFA00F1FF3802A83EF072FE47452BDB13
:1014A000109B012B17D0022B7FD1C8EB0707002F11
:1014B000ACBF09EB070109F1000109B20FFA8AF28A
:1014C0003F483EF0FDF929463D483EF091FC0120A1
:1014D00007B0BDE8F08FC8EB070707EBD7777910A7
:1014E0000029ACBF494409F1000109B20FFA8AF2A0
:1014F00033483EF0E5F9E6E7334902A83EF080FEC6
:1015000002992F48002908BF314622463EF0FEF9D5
:101510005FFA80FB02A83EF033FE019626461EE0ED
:101520003FF00CF8017802A83EF0D8FE019B02992A
:101530002348002908BF194600223EF0E7F98046FB
:1015400002A83EF01DFE08F1FF30C0B20219CBEB3D
:1015500007039A4200F101000ADA044401363146D9
:1015600028463EF0EBFF037831462846002BD7D1C2
:101570000FFA8AF20FFA89F111483EF0A1F900241E
:1015800056B1214628463EF0D9FF013401780C4877
:101590003EF04EF9A642F4D101220B4908483EF034
:1015A00011FC002007B0BDE8F08F0FFA8AF20FFAA5
:1015B00089F103483EF084F985E700BFF80505008E
:1015C000F05EFF1FE6A10500DC1C05002DE9F043DD
:1015D00087B004460E9FDDF83C800D46164619463E
:1015E00002A899463EF020FE02AB324629468DE81D
:1015F00080012046FFF726FF02A83EF0C1FD4946C4
:1016000002A83EF011FE3246294602AB8DE8800169
:10161000601CFFF717FF02A83EF0B2FD07B0BDE85F
:10162000F08300BF2DE9F04387B00F4C0E9E0F9F53
:101630000E4DE561884605469146194602A83EF0E2
:10164000F3FD02AB4A4641468DE8C0002846FFF74D
:10165000F9FE054602A83EF093FD054BE3612846DE
:1016600007B0BDE8F08300BFF05EFF1FD883040021
:101670005C820400F8B50A24002517203FF07EF9AB
:101680000544052040F030F8631E13F0FF04F4D148
:101690007A4B7B4A83FB0513ED171178C5EBA30545
:1016A0008D4202DB53789D4274DD764B1B78012B13
:1016B00073D0DFF83CE27449744F754B754D764E2C
:1016C000764C7748774A4FF0050C8EF800C04FF003
:1016D0001F0E4FF01C0C81F800E087F800C020219D
:1016E000DFF810E2197002274FF0040C2F7086F813
:1016F00000C06D496D4F6E4B19264FF0090C2670D6
:101700008EF800C003256B4E05704FF00A0E4FF0A7
:10171000060C81F800E087F800C0674DDFF8D8E1DB
:1017200066481A2400214FF00F0C1470197086F8C7
:1017300000C0634C6349644A644B07274FF00E0CAA
:101740002F7010260825624F8EF800C04FF0210E32
:101750000570267081F800E05E485F4D5F4E1124F1
:101760004FF0230E147022215D4A87F800E02427F1
:10177000197007705B4C5C495C4B252726202F7045
:1017800010701D271E2518201B2237702570087029
:101790001A70F8BD3B4B01221A70DFF854E13A4948
:1017A0003A4F3B4B3B4D3C4E3C4C3D483D4A4FF045
:1017B000180C8EF800C04FF00A0E4FF0000C81F8A4
:1017C00000E087F800C00221DFF828E119700E2739
:1017D0004FF0280C2F7086F800C03349334F344B3C
:1017E0000F264FF0240C26708EF800C02925314EAC
:1017F00005704FF0230E4FF0190C81F800E087F8C8
:1018000000C02D4DDFF8F0E02C48102425214FF0CA
:10181000200C1470197086F800C0294C29492A4AF6
:101820002A4B22274FF0260C2F701F262125284FE8
:101830008EF800C04FF0090E0570267081F800E0A8
:101840002448254D254E1E244FF0070E1470082104
:10185000234A87F800E0062719700770214C2249B7
:10186000224B052704202F7010701D271C251520E2
:1018700016223770257008701A70F8BD67666666A4
:10188000200DFF1FAF27FF1FAB27FF1FB027FF1F34
:10189000A727FF1F9A27FF1F9F27FF1F9827FF1FBC
:1018A0009B27FF1FAD27FF1FB127FF1F9E27FF1F8D
:1018B000AA27FF1FA327FF1FA027FF1FA227FF1F85
:1018C000A427FF1FA127FF1FA527FF1F9427FF1F86
:1018D000A627FF1FA827FF1F9627FF1F9927FF1F77
:1018E000AE27FF1FA927FF1F9727FF1F9527FF1F61
:1018F0009C27FF1FAC27FF1F9D27FF1F014B187858
:10190000704700BFAF27FF1F30B595B000240223FA
:101910000420E8224E210A938DF80D408DF80E40E8
:101920008DF812408DF814408DF84840FEF7B8FF4E
:10193000AA4B18783FF0A0FE88B90546A84906A82A
:101940003EF05EFC0195009506ABDC2254210A2096
:10195000FFF778FD06A83EF013FC15B030BDA14995
:1019600006A83EF04DFC06ABDC2254210194009405
:101970000A20FFF767FD06A83EF002FC9A4B02A87A
:101980001A78214638F064FE054680B9974906A8C2
:101990003EF036FC06ABDC225C21019500950A2066
:1019A000FFF750FD06A83EF0EBFB15B030BD9049A7
:1019B00006A83EF025FC06ABDC225C2101940094D5
:1019C0000A20FFF73FFD06A83EF0DAFB894906A88A
:1019D0003EF016FC06ABDC226421019400940A2040
:1019E000FFF730FD06A83EF0CBFB9DF81430022B2C
:1019F00000F0C080032B00F0DA80012B00F0D580CE
:101A00007D4906A83EF0FCFB642106ABDC220846BB
:101A100001940094FFF7DAFD06A83EF0B1FB774988
:101A200006A83EF0EDFB0023DC226C21019300931D
:101A30000A2006ABFFF706FD06A83EF0A1FB0AA8A8
:101A4000012202A93AF016F8002800F095809DF8CE
:101A50004830102B00F0AD80202B00F0BD800C2B07
:101A600000F0B8800024664906A83EF0C9FB06AB2A
:101A7000DC227421019400940A20FFF7E3FC06A8FD
:101A80003EF07EFB0D990A2206A83EF013FC06AB41
:101A9000DC227421019400946420FFF797FD06A8CE
:101AA0003EF06EFB574906A83EF0AAFB06ABDC22CF
:101AB0007C21019400940A20FFF7C4FC06A83EF0A4
:101AC0005FFB9DF82C1006A83EF0CCFB06ABDC2299
:101AD0007C21019400946420FFF778FD06A83EF075
:101AE0004FFB494906A83EF08BFB06ABDC22842164
:101AF000019400940A20FFF7A5FC06A83EF040FBE5
:101B00009DF82C300D990A2201FB03F106A83EF046
:101B1000D1FB06ABDC228421019400946420FFF702
:101B200055FD06A83EF02CFB0D9B9DF82C50374927
:101B300006A803FB05F53EF063FB06ABDC228C2117
:101B4000019400940A20FFF77DFC06A83EF018FBE4
:101B500069080A2206A83EF0ADFB06ABDC228C2108
:101B6000019400946420FFF731FD06A83EF008FBC5
:101B700015B030BD264944E7024602A90AA839F04B
:101B800079FF044600287FF462AF224906A83EF0A0
:101B900037FB0194009406ABDC226C216420FFF734
:101BA00015FD06A83EF0ECFAD7E61B4929E71B49CC
:101BB00027E71B4906A83EF023FB0023019300936F
:101BC000DC2206AB6C216420FFF700FD06A83EF086
:101BD000D7FA47E71349EDE71349EBE79527FF1FCE
:101BE000E4BC0400F8BC04009727FF1F08BD0400F4
:101BF00024BD04003CBD040058BD040060BD0400C9
:101C000098BD0400A4BD0400B8BD0400C8BD040014
:101C10004CBD04006CBD040048BD040050BD040070
:101C200088BD040080BD040090BD040000B5E8221A
:101C300087B098210420FEF733FE02A808493EF041
:101C4000DFFA002202AB019200929E21DC220A20E0
:101C5000FFF7F8FB02A83EF093FA07B05DF804FB2B
:101C6000DCBD040070B586B048F210430093DC225E
:101C70000723A6210A20FEF7A7FE002426460A25F0
:101C8000E0B200F023FD0A22014602A83EF0FEFA6F
:101C900002AB1E22A621284601960096FFF796FC6D
:101CA000013402A83EF06CFA062C05F12605E7D1B6
:101CB00006B070BD2DE9F04F002099B003F0E6FEAC
:101CC000002103F001F948F2104183469A483BF0A5
:101CD00059F920230A2100930846984A0026FFF765
:101CE00025F8974914A83EF08BFA14AB64221B2107
:101CF000019600962D20FFF769FC14A83EF040FAEB
:101D0000904908A83EF07CFA0A22022104A83EF07D
:101D1000BDFA04A908A83EF093FB8B493EF098FB5E
:101D20000A22044602210CA83EF0B0FA0CA9204673
:101D30003EF086FB84493EF08BFB0A2204460221DA
:101D400010A83EF0A3FA10A920463EF079FB014608
:101D500014A83EF069FA14AB78222321019600966C
:101D60002D20FFF76FFB14A83EF00AFA10A83EF0F2
:101D700007FA0CA83EF004FA04A83EF001FA08A8FD
:101D80003EF0FEF9E8222C210420FEF789FD6F4980
:101D900014A83EF035FA14ABDC22322101960096ED
:101DA0000A20FFF74FFB14A83EF0EAF9684914A88F
:101DB0003EF026FA14ABDC223A21019600960A2066
:101DC000FFF740FB14A83EF0DBF9624914A83EF08F
:101DD00017FA14ABDC224221019600960A20FFF785
:101DE00031FB14A83EF0CCF9FFF78EFDFFF71EFF84
:101DF000012303930323029348F210430093242208
:101E0000072342218720FEF7DFFD029B032B00F012
:101E10009080029B022B0CBF4F49504914A83EF002
:101E2000EFF914ABDC224221019600968720FFF7E0
:101E3000CDFB14A83EF0A4F90021012002F07EFAA7
:101E4000029BDDF80C80C3F340090027072348F20A
:101E5000104A1A4632218720CDF800A0FEF7B4FDC3
:101E60003F4BFDB2A3FB0534A40821460A2214A867
:101E70003EF00CFA14ABDC2232210196009687204A
:101E8000FFF7A4FB14A83EF07BF904EBC40407237E
:101E90000D223A218720CDF800A0FEF795FDA5EB95
:101EA0004401C9B20A2214A83EF0F0F914ABDC22B6
:101EB0003A21019600968720FFF788FB14A83EF090
:101EC0005FF928460122594602F034FB4246494652
:101ED000284602F0E3FC05F130019FED220AC9B269
:101EE000284602F095FB0121284602F057FCFA2013
:101EF0003FF0FAFB01372846002102F04FFCFFF7C4
:101F0000B1FE242FA2D10424FFF7ACFE013CFA203D
:101F10003FF0EAFB14F0FF04F6D1029B039A013B69
:101F200082F0010213F0FF03039202933FF460AFCB
:101F300062E70D4972E700BFF05EFF1F74BE040048
:101F4000F8BD040008BE0400A804050018BE040083
:101F50002CBE040044BE040064BE04006CBE040039
:101F6000398EE338000000005CBE04002DE9F04F1C
:101F7000ADF51D7D0023838005900E46174619465A
:101F80000DF276200DF11E0323F8061C23F8041C25
:101F900023F8021C06339842F6D10021584830F04D
:101FA000C5F9A6F10F02A7F10F0344F28F2912B26F
:101FB0001BB2049236B203933FB2CA4648F21048AD
:101FC0004FF01E0B1E23039A04994E48CDF804804F
:101FD000CDF800B03AF09AFD102300933A4605235D
:101FE000314648483BF08CFC0121454830F09EF9D1
:101FF0000F2425B22B463A4631464248CDF800A080
:102000003BF002FB32203FF06FFB2B463A46314655
:102010003C48CDF800803BF0F7FA394830F07AF9C7
:10202000013CA4B208B1052CE3D1354830F072F977
:102030000028C7D00025002000212C460BE0642D8D
:10204000C3F3C70035D043F009FC41EC100B41F05D
:102050001BFD51EC100B00222B4B43F0B3FA43F065
:1020600013FF0FFA80FB3A465B4631462548CDF810
:1020700000903BF0C9FA06AB05EB450003EB4000CE
:102080001F4937F011FE0A203FF02EFB5B463A460F
:1020900031461C48CDF800803BF0B6FA184830F0C5
:1020A00039F90134194BE4B2A3FB042301350028AC
:1020B000C5D1632C84D94FF480633A4631460093EE
:1020C000104805233BF01CFC002206AB11469CADDA
:1020D000B3F90040B3F9020006339D4221440244A3
:1020E000F6D10B4BA3FB01010598A3FB02235B096F
:1020F0004A09028043800DF51D7DBDE8F08F00BFC9
:10210000845EFF1FF05EFF1F00001840CDCCCCCCDA
:102110001F85EB5110B52DED028B8AB08DE80C00B8
:1021200002AB83E80300BDF900309FED576A9FEDD5
:10213000570ADFED574ADFED572A9FED573A5748C8
:1021400007EE903ABDF9383005EE103ABDF90A3085
:1021500004EE103ABDF9023007EE103ABDF93A30FC
:10216000F8EEE77A05EE903AB8EEC55ABDF90830B8
:10217000C7EE860A04A9C5EE067A06EE903AB8EED6
:10218000C44AB8EEC77AF8EEE55A84EE065AC7EEAE
:10219000068AF8EEE66A85EE867AC6EE865A30EE54
:1021A000E78A78EEC71A68EE456A27EEE86AE5EE38
:1021B000A16AA0EE876AB7EE002A76EE866AF0EE94
:1021C000463A82EE264A27EEC56A75EEE77AA5EE14
:1021D000876A35EE477A20EEC52A27EE447A61EE0B
:1021E000841A67EE847A27EE241A27EE007A66EEC8
:1021F000446A23EE846AF0EE423AB2EE0E2A28EEEA
:10220000448AA1EE821AA1EE827A67EEA41AE5EE64
:10221000A83A67EE807A66EEA44A66EE806AE8EE37
:10222000021A35EE685AE6EE024AE6EE026A75EEEA
:10223000E05AE8EE027A25EE045A23EE846A65EE4F
:10224000C45AB0EE414AA5EE224AA5EE037AB0EE9A
:10225000615AA5EEA25AE6EE224AE5EE837AE6EE50
:10226000036A8DED044A8DED077A8DED055ACDEDAB
:10227000064ACDED087ACDED096A30F069F80AB06A
:10228000BDEC028B10BD00BF00007A440000344357
:10229000000051430000604300009943845EFF1F2B
:1022A0002DE9F04FA1B001ABDFF84C9307931CACC4
:1022B00048F21041C248002501263AF063FEC149A8
:1022C00020463DF09DFF2346F022422101952846FD
:1022D0000096FFF7B7F820463DF052FFBA49204676
:1022E0003DF08EFF2346F0224A21019500962846B4
:1022F000FFF7A8F820463DF043FFB44920463DF0E3
:102300007FFF2346F0223221019500962846FFF7F1
:1023100099F820463DF034FF0F2211460CA8FFF734
:1023200025FE082748F21043322201932946F02364
:102330000097A3483AF0EAFBA54920463DF060FF2C
:102340002346F0223221019500962846FFF77AF8BD
:1023500020463DF015FFB422D1210EA8FFF706FE5E
:1023600048F210433222009701932946F023944803
:102370003AF0CCFB974920463DF042FF2346F0223D
:102380003221019500962846FFF75CF820463DF083
:10239000F7FE4FF49972E02110A8FFF7E7FD10ABAC
:1023A00093E803000EAB0CCB0090079801800CA9BA
:1023B00003C9FFF7AFFE294687482FF0B7FF8749CB
:1023C00020463DF01DFF2346F02264210195009632
:1023D0002846FFF737F820463DF0D2FE80492046D8
:1023E0003DF00EFF2346F0226C2101950096284611
:1023F000FFF728F820463DF0C3FE7A4920463DF01D
:10240000FFFE2346F0227421019500962846FFF72F
:1024100019F820463DF0B4FE734920463DF0F0FE29
:102420002346F0227C21019500962846FFF70AF802
:1024300020463DF0A5FE4FF6FF7344F2082248F215
:102440001041049103920293C822019396216423C0
:1024500014200096FEF726F9644920463DF0D0FE90
:102460000D234022FE219C208DE83000FEF748F924
:1024700020463DF085FED9F800300993DDF8248030
:10248000AA461E2754482FF0D7FF534912A82FF011
:1024900035FF5148BDF948B0BDF94A602FF02CFF17
:1024A000012877D071D3032830D1002D00F0D280DD
:1024B000BAF1000F00F0D080ABF116039BB2C32B32
:1024C00024D8A6F198039BB25F2B1FD84FF400438A
:1024D000009652462946019339485B463BF03CFA48
:1024E000B2465D460026D9F800300A930A9BDFF811
:1024F00008B1C8EB0303B3F57A7F09D2002EC1D02F
:1025000035482FF02FFF21B0BDE8F08F0026EAE715
:10251000082348F21042019200937C22F02300210C
:102520002748013F3AF0F2FAFFB2314918A83DF0CE
:1025300067FE394614A83DF095FE14A918A83DF091
:102540007FFF2C493DF084FF014620463DF06CFEA4
:1025500000200123F0227C21009301902346FEF706
:1025600071FF20463DF00CFE14A83DF009FE18A8AE
:102570003DF006FEDBF800300B93DDF82C80002EDA
:10258000BED1002F7FF47EAF92E64FF0000A554691
:102590005646A8E71FFA8BF3A3F11602C32A2DD8DB
:1025A000A6F1980292B25F2A28D832464FF400432F
:1025B00059460348B2465D4639F064FF002692E76B
:1025C000F05EFF1F78C004009CC00400B8C0040087
:1025D000D8C00400F8C00400845EFF1F18C10400C6
:1025E0003CC1040064C1040088C104009CC1040013
:1025F000A0C10400904105006063FF1F9C3B352B88
:1026000084D8FE3EB6B20C2E80D81449204601264E
:102610003DF0F6FD0D234022FE218DE850009C2068
:10262000FEF76EF820463DF0ABFD00210C482FF080
:102630007DFE0A4920463DF0E3FD0023019300940E
:102640000D234022FE219C20FEF75AF820463DF043
:1026500097FD48E72E4646E7564644E79CC10400EE
:10266000845EFF1F064B1B6810B5044613B1184665
:1026700018F09CFE2046BDE8104003F0AFBD00BF3F
:102680002860FF1F70B50E4E0E4D30780E4C0121A4
:102690003FF000F8287801213EF0FCFF207801216E
:1026A0003EF0F8FF307800213EF0E0FF287800216E
:1026B0003EF0DCFF20780021BDE870403EF0D6BF40
:1026C000A327FF1FA427FF1FA527FF1F10B50C4B33
:1026D000044600F0010118783EF0C8FF094B04F0F1
:1026E000020118783EF0C2FF074B04F0040118788D
:1026F0003EF0BCFF054BBDE8104018783EF03EB9F7
:10270000A327FF1FA427FF1FA527FF1F9D27FF1F2C
:1027100070B50646FFF7DAFF154B05460021985DB8
:1027200031F030FE134B04460021985D31F02AFE53
:102730002D1B001B07EE900A07EE105AF8EEE77A01
:10274000B8EEC77AB7EE000AC7EE276AF4EEC06AA1
:10275000F1EE10FA00D470BDF5EEC06ADFED067A36
:10276000F1EE10FA8CBFB0EE660AB0EE670A70BDEB
:102770003C0DFF1F440DFF1F0000000000B583B09B
:102780000191FFF7C5FF019907EE901AF8EEE77A7D
:10279000F7EE006A86EEA77A013907EE901A80EE0E
:1027A000070AF8EEE77AB4EE670AF1EE10FA48BFCE
:1027B000F0EE407AF5EEC07AF1EE10FA8BBFFDEE46
:1027C000E77A0023CDED017A0193019803B05DF81B
:1027D00004FB00BF10B50C46FFF79AFFF6EE007A37
:1027E000B4EEE70AF1EE10FAACBF012000200CB104
:1027F00080F0010010BD00BF064B002203F1300045
:1028000001211A7059705A609A70DA700833834245
:10281000F7D170474C0DFF1FFFF7EEBF074901EBE3
:10282000C00310B40022012401F830205C709A70BB
:10283000DA705A605DF8044B704700BF4C0DFF1F03
:10284000084B7F2203EBC00029B981785D39C9B2FA
:10285000892001F03DB981785D39C9B2992001F034
:1028600037B900BF4C0DFF1F10B5114C04EBC0046D
:10287000A3789B0701D549B910BDA1B906F094FB17
:102880000028F9D0BDE8104006F0ACB906F08CFB8A
:102890000028F7D1A07880F00400C0F38000BDE8E4
:1028A000104006F01FBA06F07FFB0028E4D1F1E7E4
:1028B0004C0DFF1F10B50C4606F076FB20B11CB185
:1028C000BDE8104006F04ABA10BD00BF2DE9F04146
:1028D000304F002482B03D46A04617F83430E6B2AF
:1028E000D3B1012B20D0E978304601F00101FFF788
:1028F00071FF6B68002814BF7F2200229A420BD020
:102900006B786A60013B032B06D8DFE803F0382EB2
:10291000240208B106F0ACF90134062C05F10805D3
:10292000DBD102B0BDE8F08130468021FFF726FF01
:102930006B6898420646EFD0EB786978A878CDF8B6
:102940000080F2B26E60013405F0D4FF062C05F170
:102950000805C2D1E5E7014601343046FFF784FFA0
:10296000062C05F10805B8D1DBE7014601343046F5
:10297000FFF7A0FF062C05F10805AED1D1E701460F
:1029800001343046FFF75CFF062C05F10805A4D1A1
:10299000C7E700BF4C0DFF1F014B03EBC0007047A2
:1029A0004C0DFF1F034B13F83000003018BF0120FF
:1029B000704700BF4C0DFF1F70B5074C002604F593
:1029C0001075A17826700B0602D4607803F0C0FA67
:1029D0000C34AC42F5D170BDB427FF1F114A70B45E
:1029E000FF2002F5806600214FF07E550324134638
:1029F00003F83C0D1871996019731D6103F8144FA9
:102A00009342F7D103F14002B242F0D100230649CC
:102A10001A46CA540C33B3F5107FFAD170BCFFF7D5
:102A2000CBBF00BFB80DFF1FB427FF1F38B5154C33
:102A300004F5107506E014F8030C03F02DFA0C34BD
:102A4000AC421DD014F8042C531EDBB2002AF6D081
:102A500004F8043C002BF2D114F8023C13F0800F70
:102A60001946E8D0227994ED000A14F8030C03F01B
:102A70007F010C3414F80D3C03F082FDAC42E1D12F
:102A800038BD00BFB827FF1F2DE9F84F2DED028B91
:102A90002B4E894600239C012949355D954203F15F
:102AA000010305D0102BF6D1BDEC028BBDE8F88FE9
:102AB000244D04F13C0716468046B0EE408AAA46F3
:102AC0000F440C44A9F1800B2379FF2B25D0D4F8B7
:102AD00008E09E4208BFFF23BEF1000F24DD002165
:102AE0000A4602E00132302A17D0685C0C31002817
:102AF000F8D102EB4202D4ED047A217B0AF822E0FD
:102B000067EE887A0AEB82025944207D82F80180C0
:102B1000D3709170C2ED017A10721434BC42D3D1DB
:102B2000BDEC028BBDE8F88F217B94ED040A227D79
:102B30004944C9B228EE000A404603F021FDECE703
:102B40007C0DFF1FB427FF1F2DE9F8431D4E88465B
:102B500000239C011B49355D954203F1010303D01D
:102B6000102BF6D1BDE8F883174D04F13C0607465B
:102B7000A9460E440C442379FF2B16D0A0680028E8
:102B800018DD0022134602E00133302B0DD0A95C82
:102B90000C320029F8D103EB4303227B09F8230010
:102BA00009EB830342445F709A701434B442E2D15B
:102BB000BDE8F883217B4144C9B2384603F0C8F927
:102BC000F3E700BF7C0DFF1FB427FF1F0F289ABF3C
:102BD000024B03EB80100020704700BF7C0DFF1FED
:102BE000034B8001185CFF3818BF0120704700BFFD
:102BF0007C0DFF1F0B4B8101FF2230B408465A5455
:102C00003C31194418444FF07E55002303240271CF
:102C100083600373056100F8144F8842F7D130BC1C
:102C2000704700BF7C0DFF1FFFF7E4BF8001054B1D
:102C300001EB810100EB810119440879FF3818BFCD
:102C4000012070477C0DFF1F80010A4B01EB8101C1
:102C500000EB8101194410B40023FF2403224FF03C
:102C60007E500C710A750B7308618B605DF8044B24
:102C7000704700BF7C0DFF1F30B5094D094C2B6814
:102C8000226883B00093009B9B1AB3F5FA7F05D3AB
:102C900012F086F82B680193019B236003B030BDCE
:102CA0006063FF1F102AFF1F014B18783EF0E6BA41
:102CB000A727FF1F064B074953F82020096810B4C7
:102CC000002443F8204001FB02F05DF8044B7047FC
:102CD000042AFF1F8011FF1F08B538B1074B187871
:102CE0003EF0CAFCB0FA80F0400908BD044B1878E9
:102CF0003EF0C2FCB0FA80F0400908BDAE27FF1FCD
:102D0000A627FF1F0346024A0021105CD1547047DA
:102D1000FC29FF1F064A13780F2B07D810B4591C43
:102D2000044C117044F823005DF8044B704700BF59
:102D3000F829FF1F142AFF1F70B5044680B3224EE6
:102D4000224D337855F82300844236D0FF2B19D119
:102D500033701F4B187868B12B689C422ED01B4AE9
:102D6000002303E052F8041F8C4210D00133DBB281
:102D70008342F7D11749184A00230B604B60137048
:102D8000537070BD002131F0E1FDFF23E0E7FF2B20
:102D90003370EFD055F82300012131F0D7FDE9E77A
:102DA000094D2B78FF2B0CD0084A214652F82300FE
:102DB00031F0CCFDFF232B70DCE770BD00233370B6
:102DC000E8E72B70D6E700BF7C11FF1F142AFF1F16
:102DD000F829FF1F042AFF1FFC29FF1F054B1B7842
:102DE000834202D80020FFF7A7BF034B53F820000F
:102DF000FFF7A2BFF829FF1F142AFF1F70B5FF209D
:102E0000FFF7ECFF094E0A490A480B4C0B4B002216
:102E1000FF250A704A70026042603270257003F12B
:102E2000400143F8042F8B42FBD170BDF829FF1FEE
:102E3000FC29FF1F042AFF1F7C11FF1F102AFF1F00
:102E4000F8B5264E377887B1254D2B688342014669
:102E50003DD02B46002403E053F8042F8A4205D0CE
:102E60000134E4B2BC42F7D1F8BDF8BD08460021F8
:102E700031F06CFDFF2C2FD030780138C0B2A04269
:102E8000307088BF234607D95A1C55F8221045F8E0
:102E90002310D3B29842F7D8124A13780021FF2B9F
:102EA00045F8201012D0A34203D0DED9013B1370A5
:102EB000F8BDFF2313700028D7D00138A042A8BF67
:102EC0002046C0B2BDE8F840FFF788BFF8BD00213A
:102ED00031F03CFD0024CFE7F8BD00BFF829FF1F0B
:102EE000142AFF1F7C11FF1F2DE9F04F594C81B0B0
:102EF0003EF0D6FB2368C01A632802D801B0BDE8B3
:102F0000F08F3EF0CDFB544F544EDFF868A1DFF850
:102F1000689120600025BB46A8461AF8010B36F8D8
:102F2000024B3EF0A9FB40EA440080B2B0F5704F7E
:102F30004DD026F8020C0135042D0BF1040BECD119
:102F4000474D2B78002BD9D0464E3A683368002481
:102F500003FB02F3A3423C6043DD0120FEF77AF855
:102F6000414B1A78FF2A71D12B784FF001089C420F
:102F700058D32046FFF732FF7B683468002004FBFB
:102F800003F47860002CB9D0374E3378FF2BB5D0DE
:102F90002A789A4284BF354A52F8230031F0F0FC77
:102FA0000028ABD0002CD4BF00200120FEF76AF827
:102FB00033782A789A4223D92C4A52F8230003689E
:102FC0005B6B2146012201B0BDE8F04F1847012D8F
:102FD00026F8028C17D909EB0503012103F8021C1E
:102FE000A9E7C9D02046FEF735F81F4B1A78FF2A0B
:102FF00026D0FF234FF0FF38D418E4B22B78B6E781
:1030000000231B68FFDE1A4B585D3EF035FBDBF8F2
:10301000003000280CBF4FF0FF3101210B44CBF8EA
:10302000003088E7DFF8449059F8240031F0A8FC1C
:1030300000289ED144442B78E4B2A34299D9F3E707
:103040002B785C1EE4B24FF0FF3890E701239846DE
:10305000D2E700BF0C2AFF1F042AFF1F8411FF1FA5
:10306000F829FF1F8011FF1F7C11FF1F142AFF1F6B
:10307000002AFF1FF429FF1FFC29FF1F2DE9F0473D
:10308000474FDFF84C913878464C474EDFF8448183
:10309000464D00213EF0FEFA99F8000000213EF076
:1030A000F9FA207800213EF0F5FA307800213EF060
:1030B000F1FA98F8000000213EF0ECFA287800219F
:1030C0003EF0E8FAFEF71AFC002845D1DFF808A127
:1030D00001469AF800003EF0DDFA9AF80000344903
:1030E00002223EF04FF8334B334999F8000098F82C
:1030F00000C03278187083F801C03048304B97F820
:1031000000E026782F784A7000254FF6FF720560A0
:1031100081F800E0CF708E701A805A809A80DA8031
:10312000FFF7E2FE2078214C3EF0A6FAD8B100214C
:10313000312031F009F9234C002814BF4FF0FF3340
:1031400001232360FEF7DAFB10B123685B422360A2
:10315000BDE8F047FFF752BE1B4B15491878022215
:103160003EF010F8BFE720783EF086FA04460028CB
:10317000DDD1164B4FF4FA7218784FF47A713CF0A7
:1031800015FF2146312031F0DFF880F00101C9B28E
:103190002246312031F00AF930F0B0FFC7E700BF16
:1031A000A127FF1FA627FF1FA827FF1FAE27FF1F6E
:1031B000792C0000002AFF1FF429FF1F0C2AFF1F93
:1031C0008411FF1F8011FF1FA727FF1F9C27FF1FD0
:1031D0009427FF1F9627FF1FB027FF1F0020FFF730
:1031E000ABBD00BF054B064A1B7812789A4286BFDA
:1031F000044A52F823000020704700BF7C11FF1FD3
:10320000F829FF1F142AFF1F034A044B10781B786C
:10321000834298BFFF2070477C11FF1FF829FF1FD2
:1032200038B505460024E0B20021013402F0A8FEC2
:10323000102CF8D104F0CEFD2846BDE8384005F04A
:1032400023BF00BF014B1878704700BF9A2AFF1FA9
:10325000014B00221A7070479A2AFF1F38B50546A5
:103260000024E0B22946013402F08AFE102CF8D185
:103270000549064B00220A8003F1400123F8022F82
:103280008B42FBD138BD00BFA42AFF1F522AFF1F6B
:103290002DE9F041002705460E463C4602E0013785
:1032A000102F1AD05FFA87F8404602F0FFFBA842C1
:1032B000F5D14046314602F063FE094A380202F178
:1032C000400132F9023F03F47F43984208BF148063
:1032D0008A42F6D10137102FE4D1BDE8F08100BF5A
:1032E000522AFF1F164A0E28F8B5B2F90020C4BFB3
:1032F0000F26304642FA00F21F46D8BF0646D307D3
:103300000D4610D50F49002202E00132202A0AD0D2
:1033100031F9024F002CF8D101350B4B05EB0020A1
:1033200023F81200F8BD2946304602F011FE07B915
:10333000F8BD29463046BDE8F84004F03BBB00BF6D
:10334000A42AFF1F522AFF1F542AFF1FFFFFFFFF5F
:1033500070B52DED028B82B00192002A64D00E2848
:1033600004460E461D4621DC002864D10DBBDDED70
:10337000017A9FED397AF8EE677AF4EEC77AF1EECA
:1033800010FA22D517EE900A42F07AFA41EC100BAF
:1033900040F06AFC2046B0EE408AF0EE608A00F011
:1033A000F5FCA8B102B0BDEC028B70BD0F24002D5E
:1033B000DDD005F00BFE0028D9D005F00DFEA042AF
:1033C000D5D1012005F08EFCD1E79FED1F0BDFE783
:1033D0001FA3D3E9002351EC180B42F0CFFB42F0BE
:1033E0009BFD032208EE100A00EE100A314620462B
:1033F00003F02EFA002DD5D0204600F0A5FCDFED1D
:10340000167A28EE000A314620EE270A2046FCEE06
:10341000C07ACDED017A9DF8042002B0BDEC028B9C
:10342000BDE8704004F032BA02B0BDEC028BBDE8DA
:103430007040FFF757BF092898D1A1F123032E2B25
:1034400094D9AFE7AFF300800000000000C05F40F8
:10345000422E6094726013400000FE420E2870B548
:10346000D4BF04460F24164620460D4605F0A4F9A5
:1034700006B970BD29462046BDE8704004F0A6BBE1
:103480000E282DE9F041C8BF0F241E46434BD4BF80
:10349000044620467829197057D026D979290BD0AF
:1034A0007B294CD13E4BB3F9001041FA00F010F0EB
:1034B00001016DD0BDE8F081402120463346002255
:1034C000FFF7DEFF0021204605F0D6FA002EF1D0EE
:1034D0006421204604F0FEFA204600F03DFC01463F
:1034E0002046BDE8F04104F01BBB402927D13F2A0C
:1034F0002B4945D80A882B4C0123834022EA030339
:103500000B80070204F140054FF0000801E0A542DE
:1035100013D034F9020F00F47F430028F7D09F4204
:10352000F5D1411EC9B2C0F3072033460022FFF790
:10353000D9FEA542A4F80080EBD1BDE8F081334666
:103540002046BDE8F04105F0C9BA154D154A298855
:103550000123834021EA03032B80000202F1400192
:10356000002532F9023F03F47F43984208BF1580DB
:103570009142F6D120460121BDE8F04102F000BDA4
:103580000B88012202FA00F003430B80BDE8F081B2
:103590002046BDE8F04102F0F3BC00BF9A2AFF1FAD
:1035A000A42AFF1F522AFF1F38B500240023E0B2CF
:1035B0001A4678210134FFF763FF102CF6D1002062
:1035C0003FF0CAFC38B100203FF0C6FC0028F6D11D
:1035D00001E03EF013FD3EF0FDFC04460028F8D16A
:1035E0000A490B4B0B4A0C4D08781C7021465C7045
:1035F0009C7014702C703EF039F8084B21461878F6
:103600003EF034F8064B1C6038BD00BF9927FF1F01
:10361000A02AFF1F9F2AFF1F982AFF1FA927FF1F0D
:10362000942AFF1F0E282DE9F0410D4690461ADD21
:103630000F2426460F4600237B2120461A46FFF71B
:103640001FFF2946204602F07DFBB8F1000F03D092
:103650002946204604F006FA3A4631460120BDE8E4
:10366000F04111F07FBD0446064608B92F46E2E757
:103670000928FBD12E2903D881F080052F46DAE7EF
:1036800080273D46D7E700BF06EE901ADFED1A7A95
:103690009FED1A7AFAEEE96A30B5E6EEA77A0E28BF
:1036A00083B0D8BF0446F4EEC77AC8BF0F24F1EE4A
:1036B00010FA0091154610D5F5EEC07AF1EE10FA29
:1036C00013D80021204605F05DF865B10099204629
:1036D00003B0BDE8304004F059BA7F21204605F020
:1036E00051F8002DF2D103B030BDFCEEE77ACDEDFC
:1036F000017A9DF80410F1E7000080420000FE42CC
:1037000070B5FFF751FF0125002602E00135EDB24B
:103710000136F4B200231A4620467821FFF7B0FEA6
:10372000002320461A467921FFF7AAFE0022092E1F
:103730001146204615D0FFF775FF0022114620469E
:10374000FFF7A2FF002320461A460121FFF798FE4B
:10375000102DDBD10B4B00221A70BDE8704011F028
:103760001FBB304600228021FFF75CFF002211467C
:103770003046FFF789FF00231A4601213046FFF744
:103780007FFEC3E79A2AFF1F08B5074B187018B9C8
:10379000BDE80840FFF7B4BFFFF706FF0020BDE813
:1037A0000840FFF75BBD00BF992AFF1F08B505F071
:1037B00001FC00B908BD05F0F7FB0028FAD0BDE810
:1037C000084005F0CBBA00BF08B505F0F3FB00B91F
:1037D00008BD0020BDE8084005F084BA08B505F032
:1037E000E9FB00B908BD0120BDE8084005F07ABA40
:1037F00070B552490878A0F1800300F00F007F2BCC
:1038000045D8DFE803F07D7D7D7D7D7D7D7D7D7DFF
:103810007D7D7D7D7D7D8484848484848484848492
:1038200084848484848445454545454545454545CE
:103830004545454545458B8B8B8B8B8B8B8B8B8B7C
:103840008B8B8B8B8B8B7777777777777777777790
:1038500077777777777745454545454545454545EC
:1038600045454545454568686868686868686868AA
:1038700068686868686844445744444444644B44F6
:103880004F534044449205F095FB002851D170BD40
:1038900049780122BDE87040FFF7E0BDBDE8704007
:1038A000FFF784BFBDE87040FFF78EBFBDE87040F2
:1038B000FFF794BF8D784C7805F07CFB0028E6D0AC
:1038C00004EB052080B2BDE87040FFF7A9BC1C4B9B
:1038D00000221A7070BD8B784A78D90101F47E53AA
:1038E00002F07F011944A1F500510122BDE87040AA
:1038F000FFF7CABE49780122BDE87040FFF792BECB
:103900008A7849780123BDE87040FFF7EBBC8A78DC
:1039100049780123BDE87040FFF71ABD8A784978DD
:103920000123BDE87040FFF7ABBDBDE87040FFF775
:10393000E7BEBDE8704005F055B900BFA02AFF1FE3
:103940009F2AFF1F2DE9F041544B1C7882B0002CB8
:1039500040F08880524D534E2F4611E032782A7045
:1039600002F0F000F0280878197804D09EF80030B2
:10397000013B13433B706870A9700124FFF738FFC7
:1039800000203FF0E9FADFF844E14749474B0028BF
:10399000E4D1434D464E2F4611E0327872B92A7871
:1039A000DFF8FC80434C002A3DD021784A1CD2B27B
:1039B0007B542270404B1B78934229D001243EF067
:1039C00009FB002839D03EF019FB0206C3B2E4D54A
:1039D000F02B4FD0327836492AB1F72B45D0EF2B58
:1039E00040D800223270334C2B7000220121DF2B93
:1039F00021706A70AA70DFF8A88016D8C02B1AD27E
:103A0000802B14D201232C49012293420B70D5D173
:103A1000FFF7EEFE98F800300122EF2B2270CDD98F
:103A200000232B70CAE72278C4E7EF2BEAD8224B99
:103A300003221A70C2E70223E5E70CBB1F4D2B6877
:103A400083B11F4A12680192019A93420AD21D4B18
:103A5000214618783DF00AFE1B4B214618783DF0B0
:103A600005FE2C6002B0BDE8F08100230B7002B0AF
:103A7000BDE8F0810E4B01221A7002B0BDE8F08162
:103A8000104B012118783DF0F1FD0D4B0B4A1B68DE
:103A90000093009B32331360E4E700BF992AFF1FB5
:103AA000A02AFF1FF766FF1FF566FF1FF466FF1FC2
:103AB0009F2AFF1F982AFF1F8C11FF1F942AFF1FA8
:103AC0006063FF1F9927FF1FA927FF1FF666FF1FCF
:103AD000F8B50A4C0A4DA37827786678AB70617008
:103AE000A27020702F706E70FFF782FE29786A78BE
:103AF000AB7821706270A370F8BD00BFA02AFF1FD1
:103B00009C2AFF1F00B5F83883B004280BD8DFE8E3
:103B100000F0290A032119004FF60F203FF0B8F9F1
:103B2000FA203EF099F9134B012118783DF09EFDE3
:103B3000114B124A1B680193019B0133136003B0C0
:103B40005DF804FB4FF60F403FF0A2F9FC203EF079
:103B500083F9E8E74FF60F303FF09AF9FB203EF08B
:103B60007BF9E0E74FF60F003FF092F9F8203EF0C6
:103B700073F9D8E7A927FF1F6063FF1F942AFF1F6F
:103B800070B5114D114C2878114E01213DF082FD88
:103B9000207801213DF07EFD28780E4D00213DF07A
:103BA00065FD207800213DF061FD0B4A0B480023A4
:103BB000012447F6122133702B7014703CF08AF800
:103BC000BDE87040FFF79CBD9927FF1FA927FF1F85
:103BD000982AFF1F9F2AFF1F8C11FF1FCC19FF1F60
:103BE00038B504460D46C9B107EE901A9FED1A7A12
:103BF000F8EE677AF4EEC77AF1EE10FA1AD49FED78
:103C0000120B40F031F812A3D3E9002351EC100B52
:103C100041F0B4FF42F080F9024600E000220F4B71
:103C20000F4903EB84030D5520461A60BDE8384068
:103C300002F03CBA17EE900A41F022FE41EC100B64
:103C4000DFE700BFAFF300800000000000C05F406E
:103C5000422E6094726013400000FE42DC2AFF1F77
:103C6000BC2AFF1F10B4064A145C8C4204D01154C5
:103C70005DF8044B02F07CBA5DF8044B704700BF5E
:103C8000A82AFF1F034B195401B97047012102F004
:103C900077B900BFCC2AFF1FF8B5104E104D307019
:103CA0000024034627460FE0834214BF012300236C
:103CB0004FF001012B7001D002F062F90134102C99
:103CC00005F1010509D03378FF2BE0B2ECD10134C6
:103CD000102C2F7005F10105F5D1F8BDB82AFF1F92
:103CE000CC2AFF1FF0B500230E4E0F4D0F4C10488D
:103CF0001049DFF844C01A464FF0640E40270133E4
:103D0000102B06F801EF45F804CB04F8017F00F80A
:103D1000012F01F8012FF2D1FF20BDE8F040FFF79D
:103D2000BBBF00BFBB2AFF1FDC2AFF1FA72AFF1F44
:103D3000CB2AFF1F1B2BFF1FCDCC4C3F014B185C28
:103D4000704700BFBC2AFF1F024B03EB800090EDC1
:103D5000000A7047DC2AFF1F014B185C704700BF48
:103D6000A82AFF1F034B185C4F288CBF002001209E
:103D7000704700BFA82AFF1F034B185C2F2894BF71
:103D800000200120704700BFA82AFF1F014B185CCC
:103D9000704700BFCC2AFF1F034B1B78181AB0FADC
:103DA00080F04009704700BFB82AFF1F014B187808
:103DB000704700BFB82AFF1F024A135C0133135437
:103DC000704700BF1C2BFF1F034A135C013B23EA13
:103DD000E3731354704700BF1C2BFF1F014B0022DD
:103DE0001A5470471C2BFF1F014B185C704700BF13
:103DF0001C2BFF1F054B185C4F2804D82F2894BF9D
:103E00000020012070470220704700BFA82AFF1F32
:103E100030B4084C002004F110052246111B12F8A2
:103E2000013B003318BF01238B40AA421844F5D14F
:103E300030BC70471C2BFF1FF8B5204C204F20785A
:103E4000204E214D01213DF025FC387801213DF027
:103E500021FC307801213DF01DFC287801213DF046
:103E600019FC1A4B012118783DF014FC2078002130
:103E70003DF0FCFB387800213DF0F8FB3078002164
:103E80003DF0F4FB287801213DF0F0FB2078002183
:103E90003DF0ECFBFDF732FD0D4B002814BF012275
:103EA00000221A7004D10B48BDE8F84034F03CBB46
:103EB0000948BDE8F84034F037BB00BF9A27FF1F20
:103EC0009B27FF1F9F27FF1F9827FF1FAD27FF1F5F
:103ED0009E2DFF1F4819FF1F8819FF1F952811D815
:103EE000802855D235281FD820284BD2042844D00A
:103EF00036D905285DD0082856D106200C23087035
:103F000013707047BD2859D01CD8A0284CD3A828BE
:103F100059D9A0F1B003082B46D800F00F000930A2
:103F200005230B701070704740283DD3552835D9B4
:103F3000A0F16003152B37D800F01F0002230B708F
:103F400010707047C0282FD3C82810D9A0F1E00303
:103F5000152B29D800F01F0004230B701070704738
:103F6000012821D10620092308701370704700F042
:103F70000F0006230B701070704706200A2308708C
:103F80001370704700F01F0000230B701070704713
:103F900000F01F0003230B701070704700F01F002B
:103FA00001230B701070704706200F2308701370E8
:103FB000704706200B2308701370704706200D23EE
:103FC00008701370704700F00F0005230B7010701D
:103FD000704700BF2DE9F04182B00D46804614467F
:103FE00008460DF107020DF10601FFF777FF9DF876
:103FF00006309DF80710062B6FD003EB4303932286
:10400000374E3848384F0078C3EBC30302FB083300
:104010003344364E5C54C8F340013DF027FB344B2B
:1040200008F0010118783DF021FB387800213DF0BF
:104030001DFB3378002B3CD02E4B1A684FF0004309
:10404000D3625563D36A002BFCDA2B4D936B28782F
:1040500000214FF4F0783DF009FB4346013BFDD1D0
:10406000012128783DF002FBB8F10108FCD10121C3
:1040700038783DF0FBFA33782BB31E4B1A684FF0BB
:104080000043D3625463D36A002BFCDA2878936B25
:1040900000214FF4F0743DF0E9FA2346013BFDD1D5
:1040A000012128783DF0E2FA013CFDD102B0BDE8E3
:1040B000F081124B1A684FF00043D3625563D36A04
:1040C000002BFCDAC1E70D4B1A684FF00043D362B6
:1040D0005463D36A002BFCDAD8E70F298DD1E5E7CA
:1040E000442BFF1F9F27FF1F9A27FF1F9E2DFF1F97
:1040F0009B27FF1F8819FF1F9827FF1F4819FF1FC5
:104100002DE9F0472D4B2E4F2E4DDFF8C490A3FB29
:1041100000235B0803EBC3022DED028B821A0846D5
:104120002B700E46F0EE408A3A7001F085F80230AE
:10413000C0B2254B9FED258A13F800804FF0000A8E
:104140005FFA8AF421460122304600F05BFE48FA0D
:104150000AF1C34311F0010F024603F03F03287830
:1041600004F0010414D007EE903AF8EEE77A02F07A
:10417000C00287EE887A68EEC77AB0EE487AA7EE7A
:10418000887AFCEEC77A17EE903A52FA83F2D2B2EE
:104190003B78BAF1010F09EBC40188BF03330C442B
:1041A0000AF1010AE15C4031C9B2FFF713FFBAF12D
:1041B000040FC5D1BDEC028BBDE8F087398EE33822
:1041C000342BFF1F9D2DFF1FACC1040000007C425B
:1041D000ECC104002DE9F04FDFF858B1DBF8002006
:1041E00083B0002A00F098804D4E3168002900F01D
:1041F00093804C4BDFF840A1186800900098DAF8E3
:104200000040844200F28480474C206881422FDDC8
:10421000175C431C2360FFB10025A14603E0DBF8D7
:104220000020D9F80030D05CDFF8FC80591C2160F8
:1042300003F1020C515CC4F800C012F80C200333E7
:1042400001352360FFF7C6FEEAB29742E7D8D8F8F7
:104250000030DBF8002031683248D55C00680190FE
:1042600001985A1C28448A422260CAF800004FDB99
:104270002E4A2F4C127805210120FFF7ABFE227841
:1042800020210020FFF7A6FE627840210020FFF7E2
:10429000A1FEA27860210020FFF79CFEE278802139
:1042A0000020FFF797FE2279E0210020FFF792FE21
:1042B000627923210020FFF78DFEA279432100209F
:1042C000FFF788FEE27963210020FFF783FE227A60
:1042D00083210020FFF77EFE627AE3210020FFF7B2
:1042E00079FE227BC0210020FFF774FEA27AA02174
:1042F0000020FFF76FFEE27AB0210020FFF76AFE90
:1043000000220120CBF80020326003B0BDE8F08F1E
:10431000002003B0BDE8F08F012003B0BDE8F08FAE
:10432000302BFF1F6063FF1F402BFF1F2C2BFF1F35
:10433000902DFF1F382BFF1F3C2BFF1FF8B5274F79
:10434000397000283DD1002600252A4606E03F3C72
:10435000152C05F101058CBF00223F22ECB221464D
:104360003046FFF737FEFE2DF1D10136F6B2042EAE
:10437000EAD13A78012A8CBF0022012205210120CE
:10438000FFF728FE3A78012A8CBF0022012205217E
:104390000320FFF71FFE402208210120FFF71AFE2D
:1043A000402208210320FFF715FEC022BD21012075
:1043B000FFF710FEC022BD210320BDE8F840FFF743
:1043C00009BE074C002120783DF050F901203DF056
:1043D0008BF9207801213DF049F9B4E79F2DFF1FAB
:1043E000AD27FF1F2DE9F047374C384F384EDFF827
:1043F000F090A4FB003464082DED028B04EBC403A1
:10440000C01AC3B282B0A3F14000E4B21546884698
:104410000DF107020DF10601C0B23B703470F0EEF1
:10442000408AFFF75BFD9DF806302A4A9FED2A8AF5
:1044300003EB43039321C3EBC30301FB0433134496
:104440009DF80710254A5B5C03F001036D0012F82C
:1044500003A0EDB200242919C9B20122404600F0A0
:10446000D1FC4AFA04FEC34304EBC4011EF0010F61
:10447000024603F03F0397F800C03078494404F146
:10448000010414D007EE903AF8EEE77A02F0C00289
:1044900087EE887A68EEC77AB0EE487AA7EE887A17
:1044A000FCEEC77A17EE903A52FA83F2D2B211F8C4
:1044B0000C104031C9B2FFF78DFD022CCBD102B0F8
:1044C000BDEC028BBDE8F087398EE338342BFF1F3B
:1044D0009D2DFF1F442BFF1F00007C42ACC1040038
:1044E000ECC10400F0B583B005460E4614460846FC
:1044F0000DF107020DF106011F46FFF7EFFC9DF8D5
:1045000006100B4A9DF8070001EB41019323C1EB14
:10451000C10103FB0511114424EA07020B5C1F4093
:10452000314628463A43FFF755FD03B0F0BD00BFC2
:10453000442BFF1F2DE9F04F314BDFF8CC80314F7A
:10454000DFF8C890A3FB00435B0803EBC304001B28
:1045500083B08A46C1B2D8B2019288F80010387090
:1045600055460026F400A31909EB030BAA781BF8A3
:1045700001102031C9B2FFF72DFD019B002B34D172
:1045800034444C4498F800302A79E15C3878603142
:10459000C9B2FFF71FFD98F800306A79E15C3878FE
:1045A00081F08001FFF716FD98F80030AA79E15CF0
:1045B000387820390136C9B2FFF70CFD022E05F11B
:1045C000050504D00F4B18780F4B1978CAE70E4B2E
:1045D0009AF8012019780B4B40391878C9B2F023AA
:1045E00003B0BDE8F04FFFF77DBF98F80010EA7800
:1045F0001BF8011038784031C9B2FFF7EBFCBFE778
:10460000398EE3389D2DFF1F342BFF1FECC10400B2
:10461000F8B5B5EE400AF1EE10FA2DED028B044626
:104620000D4625D15E2941DD87251E22564B574F69
:10463000574EA3FB04135B0803EBC30ECEEB04043D
:104640005FFA84FEAEF15001DCB22046C9B2E0232D
:1046500087F800E03470FFF745FFBDEC028B397836
:10466000307860392A46C9B2BDE8F840FFF7B2BCDD
:10467000B5EEC00AF1EE10FAB0EE408A10EE100A64
:1046800058DB41F0FDF841EC100B3FF0FDF951EC27
:10469000100B41F0F9FB05445E2D1EDC002D54DCAF
:1046A0004FF4AB752946002201231BE000295FD09F
:1046B000384A394BA2FB0512D20802EB4201A5EBA6
:1046C0008105EDB20135920053F8255002F01C022D
:1046D000C5F301231A44EDB2A8E740F28725294625
:1046E0001C220C2307EE900AF8EEE77A38EE678A70
:1046F000B5EE408AF1EE10FA17D0B5EEC08AF1EEB1
:1047000010FA38DD0133244850F823305B1A07EEE5
:10471000103A07EE905AB8EEC77AF8EEE77AE8EE6C
:10472000077AFDEEE77A17EE905AC5F301231A4493
:10473000EDB27BE741F0A4F841EC100B3FF014F927
:1047400051EC100B41F0A0FBA5E7124A1249EDB263
:10475000A2FB0532D20802EB4203A5EB83056B1CDA
:10476000DBB2920051F8231002F01C020D46B9E7AB
:10477000562501225AE7013B074850F82330CB1A4F
:1047800007EE103AC5E700BF398EE338342BFF1F20
:104790009D2DFF1FABAAAAAAB4C104000C4BA3FB1A
:1047A0000023F0B45B0803EBC3050A4F0A4E401B1D
:1047B000C5B2DCB200293D70A5F15001204634702D
:1047C000C9B214BF20220022DF23F0BCFFF78ABE4B
:1047D000398EE338342BFF1F9D2DFF1F1D4BA3FB8C
:1047E00000235B082DE9F04103EBC304001B1A4EC4
:1047F0001A4DC4B2D8B23470287041B90A46A4F137
:104800005001C9B21F23BDE8F041FFF76BBE144F42
:10481000395D4031C9B2C0233F22FFF763FE3278D1
:1048200028783A44C023517A4031C9B23F22FFF779
:1048300059FE317828785039C9B20022FFF7CAFBF7
:10484000317828786039C9B20022BDE8F041FFF71D
:10485000C1BB00BF398EE338342BFF1F9D2DFF1FD6
:10486000ECC104000C4BA3FB00239B0803EB4303A8
:10487000A0EB43030122DBB202FA03F30628DAB20B
:104880006FEA020334BF012003200029DBB208BF16
:1048900000220421FFF726BEABAAAAAA114B1B785F
:1048A000012B00D97047104BF0B4A3FB00435B0809
:1048B00003EBC305401B00290C4F0D4EC5B214BFBE
:1048C00010200020002ADCB2A5F1400114BF2022F4
:1048D00000223D70024434702046C9B2CF23F0BCA0
:1048E000FFF700BE9F2DFF1F398EE338342BFF1FCB
:1048F0009D2DFF1F2DE9F043364D2B6883B00446F4
:10490000002B5FD0DFF8EC90334FD9F800300093E4
:10491000DFF8E480314E009A3B68C8F8002033602D
:10492000FFF758FC2C6023786278D9F800100191C9
:104930002B49DFF8C8E00198C8F80000002403EB19
:104940000223204622463B600C700225DF23B02163
:104950008EF800403560FFF7C5FD224B224D1B78D5
:10496000012B8CBF002301232246052101202B703F
:10497000FFF730FB1D4A1E4B1778567D92F82A50E0
:1049800092F83F4092F85400D1781F705E70177E05
:1049900092F82D609D70DC7092F8425092F857406A
:1049A0001871597192F8690092F8721092F87E208D
:1049B0009F71DE711D725C729872D9721A7303B0A6
:1049C000BDE8F083054E044FDFF82890DFF828801B
:1049D000A8E700BF382BFF1F302BFF1F402BFF1F06
:1049E0009D2DFF1F9F2DFF1F2C2BFF1F442BFF1FF3
:1049F000902DFF1F6063FF1F3C2BFF1F342BFF1FF9
:104A000010B5FFF777FFFFF7E5FB044601203CF008
:104A10006BFE002CF7D010BD2DE9F04F404C414FFC
:104A2000414E424DDFF808A1A4FB0034640804EBBA
:104A3000C403C01AC3B283B0F85C3370E4B280F030
:104A400080000DF1070288460DF106012C70FFF77A
:104A500045FA9DF8063032789DF807E095F8009009
:104A60003A4403EB43034FF0930BC3EBC303507A79
:104A70000BFB043353440DF107020DF1060180F0E6
:104A8000800013F80E40FFF729FA9DF806209DF8E4
:104A9000071002EB4202C2EBC2020BFB0922924456
:104AA00004F00F041AF8012002F00F03A342A8BF7C
:104AB00023465BB1013BDBB24FF4005242FA03F3F1
:104AC000984507DA002003B0BDE8F08F4FF400539B
:104AD0009845F7DB33782878F95C4031C9B2C023B8
:104AE0003F22FFF7FFFC337828781F443F22797A72
:104AF0004031C023C9B2FFF7F5FC3178287850392E
:104B0000C9B20022FFF766FA317828786039C9B255
:104B10000022FFF75FFA012003B0BDE8F08F00BF6D
:104B2000398EE338ECC10400342BFF1F9D2DFF1F8D
:104B3000442BFF1F014B1878704700BF9F2DFF1FAC
:104B4000034B187801288CBF00200120704700BF5C
:104B50009F2DFF1F10B50446806920B10C213CF049
:104B600073FA0023A361E06910B10C213CF06CFAE8
:104B7000204610BDF0B585B00546254968463BF096
:104B80003FFB6E1C002405E001342020102C06F8A9
:104B9000010F0BD0029B9C42F6D2214668463BF0A7
:104BA000BDFC0134102C06F8010FF3D16846002437
:104BB0003BF0E6FA3F272146F02612E090691844C0
:104BC000817090691844C7709069184401719069A8
:104BD00018444671906903449971936959709369B7
:104BE0001970EB69E0B2002B18BF4FF0040E00F013
:104BF000010308BF4FF0020E42084FEA830C7045D4
:104C000005EB8202634404F10104D7D305B0F0BD83
:104C1000F8050500007870470170704710B5023143
:104C200004463BF0EDFA204610BD00BF70B50E46BD
:104C3000451C002405E001342020102C05F8010F4C
:104C40000BD0B3689C42F6D2214630463BF066FC5E
:104C50000134102C05F8010FF3D170BDC06900308C
:104C600018BF0120704700BF0078C009704700BF1F
:104C70002DE9F047334E344FC46996F800C097F8D9
:104C8000008000229246114615461EE01B791B0942
:104C900018BF45F001056346BEF1010F94BF4FF008
:104CA00000084FF0010808F1060E03EB830350F8EB
:104CB0002EE0734402335B784FF0010A03F03F03A8
:104CC0003E2B98BF41F0010152445FFA82FEC4B10D
:104CD000BEF1030F27D80EF0010C04EB8C03BEF1DC
:104CE000010F6344D2D883690EEB8E0C9C4473464B
:104CF0009CF804C05FEA1C1C18BF45F00105F4468F
:104D0000CAE7BEF1010F0EEB8E090CD883694B4444
:104D10000233F44693F802E05FEA1E1E18BF45F026
:104D20000105A046C7E7BAF1000F05D1002D14BF59
:104D300008460020BDE8F08787F8008086F800C0AC
:104D4000F4E700BFA02DFF1FA12DFF1FC369002B9B
:104D500014BF0420022070474078704743788B428C
:104D60000ED070B504460D46617011B1C56945B1EC
:104D700070BDC069A0B10C213CF066F9E56170BD61
:104D800070470C203CF05CF9294606460C2241F0A5
:104D9000FDFCB01C0A2203493BF0E6FFE66170BD52
:104DA00070BD00BF00C204002DE9F041144F002582
:104DB00004460E46904607F10C0145701122023060
:104DC0003BF0D2FF002363612670A561E5610C20F2
:104DD0003CF036F9294606460C2241F0D7FC0A225F
:104DE0003946B01C3BF0C0FF41462046A661FFF7A4
:104DF000B5FF2046FFF7BEFE2046BDE8F08100BFAC
:104E000000C20400C369002B30B40CBF0224042488
:104E1000A14201D2052A02D9002030BC704715D02A
:104E2000DBB1012994BF002401242346063301F09D
:104E3000010150F823300A4D0A48297003EB810321
:104E400019441144047030BC887870474908063111
:104E500030BC50F82130587870471C46E6E700BF58
:104E6000A02DFF1FA12DFF1F70B4C469002C14BF1B
:104E700004250225A94201D2052A01D970BC704738
:104E800015D0DCB1012994BF002501252C4606343C
:104E900001F0010150F82400094E0A4C317000EB7A
:104EA00081000144114425708B7070BC70474C0820
:104EB000063450F824406370C469E2E72546E6E70B
:104EC000A02DFF1FA12DFF1FC3692BB101F0010110
:104ED000063150F8210070471946063150F821007C
:104EE000704700BF4378012B0BD041B9063150F811
:104EF00021301878030600D47047802804D10020A0
:104F0000704701F00101F1E7A0F58070704700BF24
:104F100090ED050A704700BFC36910B4ABB1012919
:104F200094BF0022012213460633094C50F8230097
:104F3000084B01F0010121708C00214401441A70DA
:104F400088785DF8044BC00970471A46ECE700BF4B
:104F5000A02DFF1FA12DFF1FC36910B4B3B10129FC
:104F600094BF0022012213460633094C50F8230057
:104F7000084B01F0010121708C00214401441A709A
:104F800088785DF8044BC0F3801070471A46EBE751
:104F9000A02DFF1FA12DFF1FC36910B4B3B10129BC
:104FA00094BF0022012213460633094C50F8230017
:104FB000084B01F0010121708C00214401441A705A
:104FC00088785DF8044BC0F3401070471A46EBE751
:104FD000A02DFF1FA12DFF1FC36910B4B3B101297C
:104FE00094BF0022012213460633094C50F82300D7
:104FF000084B01F0010121708C00214401441A701A
:1050000088785DF8044BC0F3001070471A46EBE750
:10501000A02DFF1FA12DFF1FC36910B4B3B101293B
:1050200094BF0022012213460633094C50F8230096
:10503000084B01F0010121708C00214401441A70D9
:1050400088785DF8044B00F00F0070471A46EBE7D4
:10505000A02DFF1FA12DFF1FC36910B4ABB1012903
:1050600094BF0022012213460633094C50F8230056
:10507000084B01F0010121708C00214401441A7099
:10508000C8785DF8044B800970471A46ECE700BF0A
:10509000A02DFF1FA12DFF1FC36910B4B3B10129BB
:1050A00094BF0022012213460633094C50F8230016
:1050B000084B01F0010121708C00214401441A7059
:1050C000C8785DF8044B00F03F0070471A46EBE7E4
:1050D000A02DFF1FA12DFF1FC36910B4ABB1012983
:1050E00094BF0022012213460633094C50F82300D6
:1050F000084B01F0010121708C00214401441A7019
:1051000008795DF8044B000970471A46ECE700BFC8
:10511000A02DFF1FA12DFF1FC36910B4B3B101293A
:1051200094BF0022012213460633094C50F8230095
:10513000084B01F0010121708C00214401441A70D8
:1051400008795DF8044B00F00F0070471A46EBE752
:10515000A02DFF1FA12DFF1FC36910B4ABB1012902
:1051600094BF0022012213460633094C50F8230055
:10517000084B01F0010121708C00214401441A7098
:1051800048795DF8044B000970471A46ECE700BF08
:10519000A02DFF1FA12DFF1FC36910B4B3B10129BA
:1051A00094BF0022012213460633094C50F8230015
:1051B000084B01F0010121708C00214401441A7058
:1051C00048795DF8044B00F00F0070471A46EBE792
:1051D000A02DFF1FA12DFF1FC36910B4B3B101297A
:1051E00094BF0022012213460633094C50F82300D5
:1051F000084B01F0010121708C00214401441A7018
:1052000088795DF8044B00F0070070471A46EBE719
:10521000A02DFF1FA12DFF1FC36903B101B9836931
:1052200058784008704700BFC36903B101B983696A
:10523000587800F001007047C3694BB182695B7810
:1052400050785B0003F0020300F00100184470473F
:105250008369587800F00100704700BF1AB14378A5
:10526000012B0DD0704790F90030002B43781CDBE8
:105270005E2925DD012B2FD083695F2119707047CE
:1052800090F90030002B24DB5E2925DC6FF05E03F3
:105290009942B8BF194602F001020632002950F8BF
:1052A00022301EDDC9B219707047012B11D00632B1
:1052B0005E2950F82230E0DC0029F3DC0021DDE734
:1052C00011F15E0F0FDA012B08D08369A12119704B
:1052D000704702F00102EAE75F21DCE76FF05E0150
:1052E000D9E7CBD0DEE7012BD7D1D4E7F0EE007AB7
:1052F000B4EEE70AF1EE10FA08D5F8EE007AB4EE53
:10530000E70AF1EE10FA88BFF0EE407AC0ED057AB8
:10531000704700BF10B4C369C2B183B3012994BF01
:105320000022012213460633174C50F82300174B76
:1053300001F0010121708C00214401441A708B7826
:1053400063F07F038B705DF8044B7047CBB101298C
:1053500094BF00220122134606330B4C50F8230061
:105360000A4B01F0010121708C00214401441A70A4
:105370008B7803F07F038B705DF8044B70471A46FF
:10538000D1E71A46E8E700BFA02DFF1FA12DFF1FA0
:1053900010B4C369C2B183B3012994BF00220122B2
:1053A00013460633174C50F82300174B01F0010148
:1053B00021708C00214401441A708B7843F0400323
:1053C0008B705DF8044B7047CBB1012994BF00226C
:1053D0000122134606330B4C50F823000A4B01F010
:1053E000010121708C00214401441A708B7823F054
:1053F00040038B705DF8044B70471A46D1E71A469C
:10540000E8E700BFA02DFF1FA12DFF1F10B4C36947
:10541000C2B183B3012994BF00220122134606338F
:10542000174C50F82300174B01F0010121708C003C
:10543000214401441A708B7843F020038B705DF88F
:10544000044B7047CBB1012994BF002201221346BF
:1054500006330B4C50F823000A4B01F00101217078
:105460008C00214401441A708B7823F020038B7048
:105470005DF8044B70471A46D1E71A46E8E700BFCB
:10548000A02DFF1FA12DFF1F10B4C369C2B183B3AC
:10549000012994BF0022012213460633174C50F80D
:1054A0002300174B01F0010121708C0021440144BD
:1054B0001A708B7843F010038B705DF8044B7047C3
:1054C000CBB1012994BF00220122134606330B4CB5
:1054D00050F823000A4B01F0010121708C00214497
:1054E00001441A708B7823F010038B705DF8044B25
:1054F00070471A46D1E71A46E8E700BFA02DFF1F04
:10550000A12DFF1FC36910B4FBB1012914D901F00B
:10551000010103EB810312480B44017002330121A6
:1055200010480170197802F00F0221F00F010A44AF
:105530001A705DF8044B70478469094801EB8103D8
:105540002344023301700021EAE701F0010184697C
:1055500003488B000B44234402330170F3E700BF80
:10556000A02DFF1FA12DFF1FC36910B4F3B10129A6
:1055700013D901F00101124803EB81030B440170C0
:105580000233012059780F4C01F03F0101EB8212E8
:105590005A7020705DF8044B70478469084801EB2D
:1055A00081032344023301700020EBE701F0010185
:1055B000846903488B000B44234402330170F3E7F2
:1055C000A02DFF1FA12DFF1FC36910B4FBB101293E
:1055D00014D901F00101134803EB81030B4401705E
:1055E000023301205978104C02F03F0221F03F01B4
:1055F0000A445A7020705DF8044B7047846909486A
:1056000001EB81032344023301700020EAE701F03B
:105610000101846903488B000B4423440233017069
:10562000F3E700BFA02DFF1FA12DFF1FC36910B41A
:10563000F3B1012913D901F00101124803EB8103F1
:105640000B4401700233012099780F4C01F00F01D7
:1056500001EB02129A7020705DF8044B7047846968
:10566000084801EB81032344023301700020EBE77B
:1056700001F00101846903488B000B442344023389
:105680000170F3E7A02DFF1FA12DFF1FC36910B408
:10569000FBB1012914D901F00101134803EB810387
:1056A0000B440170023301209978104C02F00F0274
:1056B00021F00F010A449A7020705DF8044B704786
:1056C0008469094801EB81032344023301700020FF
:1056D000EAE701F00101846903488B000B4423448D
:1056E00002330170F3E700BFA02DFF1FA12DFF1FA4
:1056F000C36910B4F3B1012913D901F001011248B3
:1057000003EB81030B44017002330120D9780F4C65
:1057100001F00F0101EB0212DA7020705DF8044B0A
:1057200070478469084801EB810323440233017008
:105730000020EBE701F00101846903488B000B4472
:10574000234402330170F3E7A02DFF1FA12DFF1F9B
:10575000C36910B4FBB1012914D901F00101134848
:1057600003EB81030B44017002330120D978104C04
:1057700002F00F0221F00F010A44DA7020705DF888
:10578000044B70478469094801EB810323440233C9
:1057900001700020EAE701F00101846903488B00F1
:1057A0000B44234402330170F3E700BFA02DFF1F19
:1057B000A12DFF1FC36930B4ABB1012994BF0024F0
:1057C000012423460633094D50F82300084B01F00D
:1057D000010129708D002944014402F007028A71F9
:1057E0001C7030BC70471C46ECE700BFA02DFF1FAB
:1057F000A12DFF1FC3694BB141B15978520002F08E
:105800000E0201F001010A445A7070478369F4E7FF
:10581000C3693AB103B101B983695A7842F0010210
:105820005A70704703B101B983695A7822F00102B6
:105830005A7070478269537811F0010F14BF43F01A
:10584000010323F001035370C3692BB189075A7810
:1058500003D422F001025A70704742F001025A70DC
:10586000704700BF2DE9F04F47B28BB006462020AD
:105870000C463BF0E5FB002F054653DB002C0CBF2C
:105880000222002231462846FFF78EFA514A0023B1
:105890008DF8243002EB061205AB09A812F8011BA3
:1058A00003F8011B8342F9D105A901A83AF0A8FC2D
:1058B00001A92846FFF7BAF901A83AF061FC002FC8
:1058C0007EDB8CB300212846FFF7FEFA424B53F8EB
:1058D00026800746002298F800102846FFF7BEFCF5
:1058E0004446781C08F10501BA1D002314F8016F25
:1058F00000F8016F013311F8016F02F8016F042BFA
:10590000F4D198F80A3003F00703BB7198F80A3015
:10591000C3F30213FB7298F805307B7028460BB076
:10592000BDE8F08F0022ADE721462846FFF7CCFA0C
:10593000012180462846FFF7C7FA284B53F8266016
:105940000746224631782846FFF788FCB24606F122
:10595000050906F10A0C06F10F0E08F1010008F125
:1059600006017A1CBB1D1AF801BF00F801BF19F827
:1059700001BF01F801BF1CF801BF02F801BF0134EB
:105980001EF801BF03F801BF042CECD1B37A03F079
:10599000070388F80630B37AC3F3021388F80B3094
:1059A000737988F80130337D1B11BB71337D03F0AF
:1059B0000F03FB72F37B7B7028460BB0BDE8F08FC2
:1059C00000212846FFF780FA803E054B074653F832
:1059D00026807FE720C2040050D40400ACE304001A
:1059E000D8CF04002DE9F047002182462F202EF069
:1059F000BDFC244EC0F3400906F52F78344600273D
:105A000054F8045F3DB12846FFF7A4F8284620214A
:105A10003BF01AFB27604445F2D1BAF1000F26D1C2
:105A2000544620203BF00CFBE1B200220134054635
:105A3000FFF7BAF9AF2C46F8045FF2D1124D0024FB
:105A400002E00134102C0ED055F8043F002BF8D1A1
:105A5000092C0CBF802000204946FFF703FF0134CA
:105A6000102C2860F0D1BDE8F047FDF749BE0024B6
:105A7000E0B24946FFF7F6FE0134AF2C46F8040FBA
:105A8000F6D1DBE7E02DFF1FA02DFF1FAE28A8BF3A
:105A9000AE20024B53F82000704700BFE42DFF1FDB
:105AA000014B53F820007047A42DFF1F024B53F801
:105AB0002000FFF7AFB800BFA42DFF1FF0B50D46C3
:105AC00091B00446002A00F0A5800B0657D4584F29
:105AD000584904A8632D98BF39463AF091FB564BBC
