:1000000000000320D1010000A9C7030061C703005D
:1000100061C7030061C7030061C7030061C7030034
:1000200061C7030061C7030061C70300A9C70300DC
:10003000A9C7030061C70300FDEF030001F003003F
:10004000A9C70300A9C70300A9C70300A9C70300E4
:10005000A9C70300A9C70300A9C70300A9C70300D4
:10006000A9C70300A9C70300A9C70300A9C70300C4
:10007000A9C70300A9C70300A9C70300A9C70300B4
:10008000A9C70300A9C70300A9C70300A9C70300A4
:10009000A9C70300A9C70300A9C70300A9C7030094
:1000A000A9C70300A9C70300A9C70300A9C7030084
:1000B000A9C70300A9C70300A9C70300DDD803002F
:1000C000A9C70300A9C70300A9C70300A9C7030064
:1000D000A9C70300A9C70300A9C70300A9C7030054
:1000E000A9C70300A9C70300A9C70300A9C7030044
:1000F000A9C70300A9C70300A9C70300A9C7030034
:100100003DF1030051F1030065F1030079F10300B3
:10011000A9C7030025DC0300A9C70300A9C7030082
:10012000A9C70300A9C70300A9C70300A9C7030003
:10013000A9C70300A9C70300A9C70300A9C70300F3
:10014000A9C70300A9C70300A9C70300A9C70300E3
:10015000A9C70300A9C70300A9C70300A9C70300D3
:10016000A9C70300A9C70300A9C70300A9C70300C3
:10017000A9C70300A9C70300A9C70300A9C70300B3
:10018000A9C70300A9C70300A9C70300A9C70300A3
:10019000A9C70300A9C70300A9C70300A9C7030093
:1001A000A9C70300A9C70300A9C70300A9C7030083
:1001B000A9C70300A9C70300A9C70300A9C7030073
:1001C000A9C70300A9C70300A9C70300A9C7030063
:1001D0005C4B4CF2205210B51A804DF628121A8052
:1001E00000BF00BF3CF0E4FA574B4FF030621A609A
:1001F000564A9A60564ADA60564B4FF470021A60BB
:10020000554B564A1A60564B1A78110703D51A787F
:1002100042F008021A70534B5349AA221A70534AEB
:10022000534B8B4204D252F8040F43F8040BF8E707
:10023000504B514900228B4202D243F8042BFAE77B
:100240004E494F4A002352F8230041F8230001335E
:10025000742BF8D14B4B4C4A802103F8011B93427D
:10026000FBD14A4B454A1A60494B8A221A70A3F5C2
:10027000805324225A70A0221A709A799207FCD5D2
:100280009A79D406FCD4434A937903F00C03082BE3
:10029000FAD1414B60221A7002331A78802AFCD1BD
:1002A0003C4B01221A715D225A719A799006FCD555
:1002B0009979384A4906FBD5384B394919600021EC
:1002C000596020231370937903F00C030C2BFAD19F
:1002D000344B354A1A60354A354C136813F4807331
:1002E00003D123604FF4A8531360324B324A1A6093
:1002F00000225A60072243F8042C304AC3F80C2D20
:1003000062B63CF027FE2368DA0705D52C483CF09E
:10031000DDFB2C4B2C4A1A602C4B1B785B0609D555
:10032000284C294B22689A4204D125483CF0CEFB48
:10033000002323603CF042FA41F042FD3CF034F9E6
:10034000FEE700BF0E20054030800440823F0400DD
:100350000100002B88ED00E0002008E0030000858C
:1003600002D0074000E00740D821FF1F286A05009F
:10037000400CFF1FD821FF1FC484FF1F0002FF1F76
:100380000000000000E400E064E400E008ED00E0AC
:10039000005006400040064001E007404480044011
:1003A0000000060204800440C010070010D0034083
:1003B00014D0034014E000E01FBF02000000202022
:1003C000826599651CE00340A5C3945A00F007407C
:1003D000FFFFFFFFFFFFFFFFFFFFFFFFFFFFFFFF2D
:1003E000FFFFFFFFFFFFFFFFFFFFFFFFFFFFFFFF1D
:1003F000FFFFFFFFFFFFFFFFFFFFFFFFFFFFFFFF0D
:10040000FFFFFFFFFFFFFFFFFFFFFFFFDEF9FFFF23
:1004100010B5054C237833B9044B13B10448AFF33E
:1004200000800123237010BDD821FF1F00000000B1
:10043000246A0500084B10B51BB108490848AFF302
:1004400000800848036803B910BD074B002BFBD0A0
:10045000BDE81040184700BF00000000DC21FF1F6E
:10046000246A0500D821FF1F000000002DE9F04F8D
:1004700089B00646139D149C0394012D169C049488
:100480009DF84890DDF854B00F4690461C4600F0A9
:100490009C80032B64DD032A00F3A680B3B2BAB2BA
:1004A000059303F1010A531C1BB2A4B206920793F1
:1004B0001A46ADB20FFA8AFAA31E009551461BB236
:1004C000594837F013FE1FFA88F808F1FF3536B2A5
:1004D0003FB22DB2B9F1000F5BD01FFA8BFB04F1D4
:1004E000FF39CDF800B02B463A4631464E480FFA58
:1004F00089F937F00BFECDF800B04B463A4631464D
:10050000494837F0F3FD069BBDF80CB01C44013C94
:1005100024B22B4651462246CDF800B0424837F06F
:10052000F5FD059BBDF81050079ACDF800B0984432
:1005300008F1FF380FFA88F84B4641463A4837F041
:10054000D5FD3A4641462B46374837F043FC3648FE
:100550002B462246314609B0BDE8F04F37F03ABC91
:100560009CD183B28AB2059303F1010A531C1BB2DA
:100570001FFA88F80692ADB20FFA8AFA1A46079364
:10058000A8F10203009551461BB2274837F0BEFD83
:100590009BE7BDF80C30039300933A462B46314657
:1005A000214804F1FF3937F0B1FD0FFA89F9039BB7
:1005B00000933A464B4631461B4837F097FD069B61
:1005C0001C44013C1FFA8BFBA2E783B28AB203F101
:1005D000010A0593531C1BB206921FFA88F8A4B2B5
:1005E0000FFA8AFA079370E78AB29CB2114683B277
:1005F000059303F1010A0B4601331BB206921FFA61
:1006000088F8A21E1846ADB212B20FFA8AFA079302
:10061000A8F102038DE82400514602461BB20248AD
:1006200037F01CFF51E700BFB47CFF1F2DE9F047F6
:10063000161E9DF82070099DDDF828E0DDF82CC01D
:10064000DDF830A011DD002B0FDD012E0FD0012BC6
:1006500019D0CDF830A0CDF82CC0CDF828E0099500
:100660000897BDE8F047FFF701BFBDE8F087012D0F
:10067000FBD0ADB208950AB21BB201B2BDE8F0479B
:10068000074837F033BD012DEFD0ADB2089533B236
:100690000AB2BDE8F04701B2014837F037BD00BFEC
:1006A000B47CFF1F2DE9F04F85B004461F460020A3
:1006B0001BB2009301900DF140090F98039099E847
:1006C000000E0D46164613B20C489DF838800AB24B
:1006D00021B239F0D9FC03980F90BB1EB21E691CE1
:1006E000601CCDF848B0CDF844A0CDF84090CDF8CE
:1006F000388005B0BDE8F04FFFF798BFB47CFF1F0E
:1007000070B58AB044F208269DF83C4000944FF63C
:10071000FF7548F210440494019403960295144620
:1007200005460E46FFF7BEFF0E9906A83BF0B8F946
:10073000164B06991648002908BF194600223AF0C0
:100740008DFD0138201A00EBD07040100328CCBF7B
:1007500080B204204119F21C12B209B20C483AF0DE
:1007600057FD06A83BF048F9002109483AF072FD10
:10077000012107483AF068FD0E9905483AF074FFE8
:1007800003483AF097FF0AB070BD00BFC26205008F
:10079000B47CFF1F2DE9F0472DED028B86B0B0EE43
:1007A000408A9DF844709DF840A0F0EE608A814632
:1007B000884615461E46002F5BD1043D07EE905A31
:1007C000B8EEE77AF4EEC88AC7EE287AF1EE10FAAE
:1007D000D4BFB0EE680AB0EE480AB5EE400A9FED0D
:1007E0002E7AF1EE10FA98BFB0EE470A27EE800A93
:1007F000FDEEC07A17EE904A002C1DDD44F208236E
:10080000BAF1000F48F2104118BF184644F2FF72C7
:1008100012BF4FF482630A46002000218DE80A00CF
:1008200002920390049317EE902A331F08F10201FD
:1008300009F10200FFF7FAFE27B106B0BDEC028B0A
:10084000BDE8F087A4B209F102092B1B04EB0901F2
:1008500008F10202043E1148119736B21BB209B2E8
:1008600012B2109606B0BDEC028BBDE8F04737F02F
:10087000F5BD48F2104444F2082E04944FF6FF747C
:10088000CDF80CE002944FF0000E01248DE81040EA
:10089000FFF708FF91E700BF00000000B47CFF1FD6
:1008A00070B586B048F2104344F208264FF6FF7543
:1008B0000124049301930396029500940223FFF709
:1008C000B5FE06B070BD00BF2DE9F0410E4C0F4DD6
:1008D000E561984606460F462046012115463AF046
:1008E000B3FC1FFA88F120463AF0B4FC3AB231B2B8
:1008F00020463AF08DFC294620463AF0B5FE044BDE
:10090000E361BDE8F08100BFB47CFF1FD441040067
:10091000544004002DE9F047284C294DE5610E466E
:100920000546012120469A4617461FFA86F83AF0F6
:100930008BFCBDF8201020463AF08CFC0FFA85F9AC
:1009400008F1FF3212B2494620463AF061FCADB2DE
:10095000394620463AF088FE36B2691C324609B262
:1009600020463AF055FC394620463AF07DFE08F123
:10097000010212B2494620463AF04AFC3946204666
:100980003AF072FE691E324609B220463AF040FC47
:10099000394620463AF068FE1FFA8AF120463AF0BE
:1009A00059FC3246494620463AF032FC3946204648
:1009B0003AF05AFE034BE361BDE8F087B47CFF1FB9
:1009C000D44104005440040010B582B01BB2BDF8FD
:1009D00010400093019413B20AB201B2024837F0FA
:1009E0003DFD02B010BD00BFB47CFF1F2DE9F04FEC
:1009F00089B08A46139C0693E31D0393159BCDF89B
:100A00001CA00027DDF848B0169E4B4DDDF850A025
:100A1000049004F1FF3905925C1E3946BC4619F872
:100A2000018F14F801EFA5F12003802206E0C1B286
:100A30001E600433AB424FEA520212D01EEA020F8C
:100A400001F10100F3D118EA020F0CF1010056D0B8
:100A5000C3F800A00433AB425FFA80FC4FEA5202B5
:100A6000ECD103F12005039B9945D8D1BC45DDF8B5
:100A70001CA05CD98C455CD2012E0DD0B2B2BDF960
:100A80001830019200930FFA8AF2BDF91430BDF9C3
:100A900010102A4837F0E2FC069B53449A459B46C7
:100AA0003ADA059B049ADFF89C80CDF80CB01F461B
:100AB00017449346BB4527DA214D0AEA0505002D68
:100AC00030DBED005C460FFA8AF90FE02B4458F852
:100AD00023309E4207D0012B21B29BB24A461748D1
:100AE00001D037F077F90134BC420DD0144B2340CC
:100AF000002BEBDA013B63F007030133E6E7013734
:100B0000FFB2C3F800B094E71AF00F0F07D0039BB1
:100B10000AF1010A9A45CDD109B0BDE8F08F11F074
:100B20005BF8F4E7013D65F007050135C9E75E466E
:100B3000A2E7FCD9149E9FE71422FF1FB47CFF1F7D
:100B400007000080F421FF1F2DE9F04F8BB0002536
:100B50009A461BB20446884616469DF85C70009380
:100B6000019513B20AB201B26D4808971FFA88FBCB
:100B700039F08AFAA2B2AAF102000992511C00B21D
:100B80004FF482670BF10102B31E09B212B200905A
:100B90001BB201976248DFF89091A719079737F0C9
:100BA0005DFC604A019208F1030701220798009258
:100BB00039465346032204950295CDF80C90FFF771
:100BC00015FF584A01920334012200920323049531
:100BD000CDF80C9002952046324608EB0A01FFF74B
:100BE00005FF089B002B70D04FF6FF7944F28F234E
:100BF000102200950493019303920D23A6F1120293
:100C000039462046CDF80890FFF74CFD01214448B5
:100C10003AF01AFB099942480BF10602083112B268
:100C200009B23AF0F5FA49463D483AF013FB1499F7
:100C30003B483AF019FD3A483AF03CFD0095079DD3
:100C4000CDF8089048F2104B0D2344F208223946A3
:100C50000392A5F110001A46CDF810B0CDF804B0FB
:100C6000FFF720FD44F208214FF6082207230391E5
:100C7000012100910192CDF810B0CDF80890A5F1B6
:100C80000D001A4608F10601FFF7F0FB159BCBB1EA
:100C9000A3F10203B3FA83F35B0948F2104E44F266
:100CA00008274FF6FF750093169B0193B21FAAF118
:100CB000150308F112012046CDF810E003970295C4
:100CC000FFF7F0FC0BB0BDE8F08F0899009144F2FB
:100CD0008F234FF6FF751022394604930193039238
:100CE0000D23B21F20460295FFF7DCFC01210C48C2
:100CF0003AF0AAFA09990A480BF10602083112B231
:100D000009B23AF085FA294605483AF0A3FA14994F
:100D100003483AF0A9FC02483AF0CCFCB6E700BF21
:100D2000B47CFF1F587A0400203B04002DE9F04FEB
:100D300087B01478049201909DF8402003914FEA07
:100D4000530A002C43D1002A3ED0531EDBB201339C
:100D50001FFA80FB0593DFF8449102940BF1010325
:100D600001940093BAF1000F25D0019B039A9F18BC
:100D7000049B029A3FB203EB0208002618F8015FB9
:100D800045487400A4B22B1104EB0B0109B239F8E9
:100D900023303A4637F01EF8009B3F4805F00F0518
:100DA000E118013639F8253009B23A4637F012F821
:100DB000F3B29A45E2D8029A019B52440292059AF4
:100DC000013393420193CDD107B0BDE8F08F012CE0
:100DD000FAD1D90812FB01F10131002AF4D0531ED7
:100DE0004FF0000BDBB20133A0465D465C46CDF808
:100DF00000B0DDF810B005930291BAF1000F1ED0DB
:100E0000039B009A13441BB20493029B00260BEB36
:100E100003071DB91BF8084008F10108220617F85E
:100E2000019B2AD46400E4B2230614D40136F3B241
:100E3000640002359A45E4B205F00705E9D8029A44
:100E4000009B52440292059A013393420093D4D1FD
:100E500007B0BDE8F08F019B039A0F48591C009B17
:100E600009F00F099A180D4B01EB460133F82930B0
:100E700009B212B236F0AEFFD8E7019A064802EB8B
:100E800046014FEA2913054A09B232F82330049A81
:100E900036F0A0FFC6E700BFB47CFF1F744104001A
:100EA0002DE9F04F8FB015789DF860609DF8644093
:100EB000002D7CD1002C7AD01F460493631EDBB238
:100EC0000D917108924609914A1E591CC7F30733C8
:100ED000D2B20393C7F303130A910593511C07F091
:100EE0000F03C7F303220C90AB460B9107950892B2
:100EF0000693CDF800A0099B002B50D0079B0D9ABC
:100F0000BDF830900B99DFF8B0809F18009A134617
:100F10005B4401EB0B0AA9F102010193029109F173
:100F2000FF393FB21E46924428E0069A059999423D
:100F300008BF1346039AAA422FD0069A0599A942E0
:100F400008BF1546009A1B4838F82330B4B2CBEBE3
:100F50000401891A029A02EB410109B23A4636F0BD
:100F600039FF019B1348E11A09EB410109B238F836
:100F700025303A4636F02EFF564510D016F8015F60
:100F8000049A2B0905F00F05002ADBD0039A9A4238
:100F9000CBD1039A089BAA42CFD1089DD2E7099AE8
:100FA000079B93440A9A013393420793A3D10FB04E
:100FB000BDE8F08FB47CFF1F7441040008B50168E0
:100FC000044B0548002908BF194600223AF046F9AB
:100FD000013808BDC2620500B47CFF1F08B50021BE
:100FE00009202EF083FD00B908BD022240F6AC5165
:100FF0000520BDE808403AF015BC00BF08B5002147
:1010000009202EF073FD00B908BD022240F6B83168
:101010000520BDE808403AF005BC00BF08B5002136
:1010200009202EF063FD00B908BD02224FF4FA61D9
:101030000520BDE808403AF0F5BB00BF10B500211F
:10104000044609202EF052FD60B1002C41F204014B
:101050004FF0020208BF4FF47A610520BDE810404E
:101060003AF0E0BB10BD00BF10B5002104460920D6
:101070002EF03CFD60B141F2941141F23013002C8E
:1010800008BF194602220520BDE810403AF0CABB4D
:1010900010BD00BF2DE9F04F8BB0804609910B20A9
:1010A000002192461C462EF021FD002106460C2010
:1010B0002EF01CFD002107460D202EF017FD00210B
:1010C00081460E202EF012FD002183460F202EF0C7
:1010D0000DFD344D344B55F8292053F8200053F8BA
:1010E0002B1055F8273055F82650039001910492A3
:1010F000029352462346099900954046FFF776FC35
:10110000002110202EF0F2FC012802D00BB0BDE827
:10111000F08F099BDFF898B000264FF0BA092344FE
:101120000893CDF818903546374609F14603DBB2EF
:101130000793069A089B9342E8DDCDF818906B243C
:1011400012E02B466D081F420BD0A04508EB0A03A6
:1011500007DC9C4205DA099B4B4502DC089B4B45AA
:1011600018DC0134EB2C09D0A4F16B035A07E8D149
:101170001BF80670402501368023E4E7079B1B0718
:1011800005D009F10109B9F59B7FCED1BEE710F07A
:1011900023FDF6E700230FFA89F221B2034836F067
:1011A00019FEDEE774410400607A0400B47CFF1F7E
:1011B000E47104002DE9F04F052397B0013BFDD108
:1011C00000210C465548DFF864B1DFF864A137F020
:1011D00081FBA1462546A046264623462746A2B2C5
:1011E000D10700F1918052081BF802703A09002BD8
:1011F0006AD102F007014A48415C12073AF821809F
:101200005FD4012633462B44E02B65DC05F1080151
:1012100009B21D4609F11A02CDF8008012B2334618
:101220003E4836F073FFE02D71D00023013445F2C3
:101230000E329442D3D106A83A493AF01DFC0A2254
:1012400002A801213AF05EFC02A906A83AF020FDAE
:1012500035493AF025FD0A22044602210AA83AF04F
:1012600051FC0AA920463AF013FD2F493AF018FD27
:101270000A22044602210EA83AF044FC0EA9204698
:101280003AF006FD014612A83AF00AFC12AA44F20E
:1012900008234FF49D710020FFF716FB12A83AF0C7
:1012A000ABFB0EA83AF0A8FB0AA83AF0A5FB02A8EF
:1012B0003AF0A2FB06A83AF09FFB17B0BDE8F08F0A
:1012C00016010133DBB2B1E7012BF9D01644F6B2B7
:1012D00033462B44E02B99DDA9B2C1F1E00309F1BB
:1012E0001A022035083109B21BB212B20B48CDF8F0
:1012F00000802E4436F00AFFF6B2012081443546C4
:101300003BF0D6FD082185E707F00F026FE70120CB
:10131000002581443BF0CCFD2B4687E7B47CFF1FC2
:10132000344104002441040078C50400F84104005D
:10133000744104002DE9F04F85B00025029003911F
:10134000AB46AA462F462C462B46A946AAB2D10741
:101350005CD452082F4911F802904FEA1912002B61
:1013600031D12D4802F007011207415C2B4830F8BB
:1013700021B025D4012423463B44BE2B2BDCBDF8F1
:101380000880BDF80C60B9B21F4606EB0A02414462
:10139000234612B209B2CDF800B0214836F0B6FEAD
:1013A000BE2F03BF00270AF1010A3B460023013587
:1013B00040F6C2429542C9D105B0BDE8F08F140194
:1013C0000133DBB2F3E7012BF9D01444E4B2234636
:1013D0003B44BE2BD3DDBDF80880BDF80C60CDF8D2
:1013E00000B0BBB2423708EB030106EB0A023C44F3
:1013F000C3F1BE0309B21BB212B20948E4B236F01F
:1014000085FE0AF1010A27460021BEE709F00F0216
:10141000A5E700BF806B04004C4104007441040048
:10142000B47CFF1F2DE9F04F814687B08A461846ED
:101430005A491D4617463AF065FC18B1012007B01D
:10144000BDE8F08F044601215548564E39F0FCFEA8
:10145000BDF84410524839F0FDFE294602A83AF082
:101460001FFB02994E48002908BF3146224639F039
:10147000F5FE00F1FF3802A83AF0BEFA47452BDB33
:10148000109B012B17D0022B7FD1C8EB0707002F31
:10149000ACBF09EB070109F1000109B20FFA8AF2AA
:1014A0003F4839F0B5FE29463D483AF0DDF80120C5
:1014B00007B0BDE8F08FC8EB070707EBD7777910C7
:1014C0000029ACBF494409F1000109B20FFA8AF2C0
:1014D000334839F09DFEE6E7334902A83AF0CCFAEA
:1014E00002992F48002908BF3146224639F0B6FE3E
:1014F0005FFA80FB02A83AF07FFA019626461EE0CA
:101500003AF044FC017802A83AF010FB019B0299E2
:101510002348002908BF1946002239F09FFE804663
:1015200002A83AF069FA08F1FF30C0B20219CBEB19
:1015300007039A4200F101000ADA044401363146F9
:1015400028463AF023FC037831462846002BD7D1B1
:101550000FFA8AF20FFA89F1114839F059FE002486
:1015600056B1214628463AF011FC013401780C4866
:1015700039F006FEA642F4D101220B4908483AF0A0
:101580005DF8002007B0BDE8F08F0FFA8AF20FFA7D
:1015900089F1034839F03CFE85E700BFC896040096
:1015A000B47CFF1FC2620500304104002DE9F04306
:1015B00087B00F4C0E9E0F9F0E4DE5618846054685
:1015C0009146194602A83AF06BFA02AB4A464146E8
:1015D0008DE8C0002846FFF725FF054602A83AF02F
:1015E0000BFA054BE361284607B0BDE8F08300BF66
:1015F000B47CFF1FD4410400544004002DE9F04F97
:10160000ADF51D7D0023838005900E4617461946D3
:101610000DF276200DF11E0323F8061C23F8041C9E
:1016200023F8021C06339842F6D1002158482CF0CA
:101630007FFAA6F10F02A7F10F0344F28F2912B22D
:101640001BB2049236B203933FB2CA4648F2104826
:101650004FF01E0B1E23039A04994E48CDF80480C8
:10166000CDF800B036F0FAFE102300933A46052379
:101670003146484837F0ECFD012145482CF058FA36
:101680000F2425B22B463A4631464248CDF800A0F9
:1016900037F062FC32203BF00BFC2B463A463146D9
:1016A0003C48CDF8008037F057FC39482CF034FA2C
:1016B000013CA4B208B1052CE3D135482CF02CFA3A
:1016C0000028C7D00025002000212C460BE0642D07
:1016D000C3F3C70035D03FF0B5FF41EC100B3EF02F
:1016E000C7F851EC100B00222B4B3FF05FFE40F08F
:1016F000BFFA0FFA80FB3A465B4631462548CDF8E3
:10170000009037F029FC06AB05EB450003EB4000E9
:101710001F4933F071FF0A203BF0CAFB5B463A4693
:1017200031461C48CDF8008037F016FC18482CF0E4
:10173000F3F90134194BE4B2A3FB0423013500286B
:10174000C5D1632C84D94FF480633A463146009367
:101750001048052337F07CFD002206AB11469CADF6
:10176000B3F90040B3F9020006339D42214402441C
:10177000F6D10B4BA3FB01010598A3FB02235B09E8
:101780004A09028043800DF51D7DBDE8F08F00BF42
:10179000107CFF1FB47CFF1F00001840CDCCCCCCC8
:1017A0001F85EB5110B52DED028B8AB08DE80C0032
:1017B00002AB83E80300BDF900309FED576A9FED4F
:1017C000570ADFED574ADFED572A9FED573A574842
:1017D00007EE903ABDF9383005EE103ABDF90A30FF
:1017E00004EE103ABDF9023007EE103ABDF93A3076
:1017F000F8EEE77A05EE903AB8EEC55ABDF9083032
:10180000C7EE860A04A9C5EE067A06EE903AB8EE4F
:10181000C44AB8EEC77AF8EEE55A84EE065AC7EE27
:10182000068AF8EEE66A85EE867AC6EE865A30EECD
:10183000E78A78EEC71A68EE456A27EEE86AE5EEB1
:10184000A16AA0EE876AB7EE002A76EE866AF0EE0D
:10185000463A82EE264A27EEC56A75EEE77AA5EE8D
:10186000876A35EE477A20EEC52A27EE447A61EE84
:10187000841A67EE847A27EE241A27EE007A66EE41
:10188000446A23EE846AF0EE423AB2EE0E2A28EE63
:10189000448AA1EE821AA1EE827A67EEA41AE5EEDE
:1018A000A83A67EE807A66EEA44A66EE806AE8EEB1
:1018B000021A35EE685AE6EE024AE6EE026A75EE64
:1018C000E05AE8EE027A25EE045A23EE846A65EEC9
:1018D000C45AB0EE414AA5EE224AA5EE037AB0EE14
:1018E000615AA5EEA25AE6EE224AE5EE837AE6EECA
:1018F000036A8DED044A8DED077A8DED055ACDED25
:10190000064ACDED087ACDED096A2CF023F90AB02C
:10191000BDEC028B10BD00BF00007A4400003443D0
:10192000000051430000604300009943107CFF1FFA
:101930002DE9F04FA1B001ABDFF84C9307931CAC3D
:1019400048F21041C2480025012636F0C3FFC149C4
:1019500020463AF091F82346F0224221019528468C
:101960000096FFF75FFD20463AF046F8BA49204658
:101970003AF082F82346F0224A2101950096284643
:10198000FFF750FD20463AF037F8B44920463AF0C8
:1019900073F82346F0223221019500962846FFF77E
:1019A00041FD20463AF028F80F2211460CA8FFF717
:1019B00025FE082748F21043322201932946F023DE
:1019C0000097A34836F04AFDA54920463AF054F85E
:1019D0002346F0223221019500962846FFF722FD8A
:1019E00020463AF009F8B422D1210EA8FFF706FEEE
:1019F00048F210433222009701932946F02394487D
:101A000036F02CFD974920463AF036F82346F0226E
:101A10003221019500962846FFF704FD204639F053
:101A2000EBFF4FF49972E02110A8FFF7E7FD10AB30
:101A300093E803000EAB0CCB0090079801800CA933
:101A400003C9FFF7AFFE294687482CF071F8874994
:101A500020463AF011F82346F022642101950096C1
:101A60002846FFF7DFFC204639F0C6FF80492046B4
:101A70003AF002F82346F0226C21019500962846A0
:101A8000FFF7D0FC204639F0B7FF7A49204639F0FD
:101A9000F3FF2346F0227421019500962846FFF7B4
:101AA000C1FC204639F0A8FF7349204639F0E4FF15
:101AB0002346F0227C21019500962846FFF7B2FCD0
:101AC000204639F099FF4FF6FF7344F2082248F29E
:101AD0001041049103920293C8220193962164233A
:101AE00014200096FEF7DEFD6449204639F0C4FF5D
:101AF0000D234022FE219C208DE83000FEF700FEE1
:101B0000204639F079FFD9F800300993DDF82480B8
:101B1000AA461E2754482CF091F8534912A82BF0DE
:101B2000EFFF5148BDF948B0BDF94A602BF0E6FF20
:101B3000012877D071D3032830D1002D00F0D28056
:101B4000BAF1000F00F0D080ABF116039BB2C32BAB
:101B500024D8A6F198039BB25F2B1FD84FF4004303
:101B6000009652462946019339485B4637F09CFB64
:101B7000B2465D460026D9F800300A930A9BDFF88A
:101B800008B1C8EB0303B3F57A7F09D2002EC1D0A8
:101B900035482BF0E9FF21B0BDE8F08F0026EAE7D9
:101BA000082348F21042019200937C22F023002186
:101BB0002748013F36F052FCFFB2314918A839F0EE
:101BC0005BFF394614A839F089FF14A918A83AF028
:101BD0005FF82C493AF064F80146204639F060FF7E
:101BE00000200123F0227C21009301902346FFF77F
:101BF00019FC204639F000FF14A839F0FDFE18A8A2
:101C000039F0FAFEDBF800300B93DDF82C80002E63
:101C1000BED1002F7FF47EAF92E64FF0000A55460A
:101C20005646A8E71FFA8BF3A3F11602C32A2DD854
:101C3000A6F1980292B25F2A28D832464FF40043A8
:101C400059460348B2465D4636F0C4F8002692E78E
:101C5000B47CFF1FE07A0400047B0400207B0400B6
:101C6000407B0400607B0400107CFF1F807B04002D
:101C7000A47B0400CC7B0400F07B0400047C040003
:101C8000087C04008CFF04000481FF1F9C3B352B63
:101C900084D8FE3EB6B20C2E80D8144920460126C8
:101CA00039F0EAFE0D234022FE218DE850009C20F1
:101CB000FEF726FD204639F09FFE00210C482BF050
:101CC00037FF0A49204639F0D7FE002301930094DC
:101CD0000D234022FE219C20FEF712FD204639F004
:101CE0008BFE48E72E4646E7564644E7047C040050
:101CF000107CFF1F08B501210F203BF0AFF8012138
:101D000010203BF0ABF8012111203BF0A7F8002197
:101D10000F203BF08FF8002110203BF08BF80021C2
:101D20001120BDE808403BF085B800BF10B500F0B9
:101D3000010104460F203BF07DF804F00201102061
:101D40003BF078F804F0040111203BF073F80E200A
:101D5000BDE810403AF03ABA70B50646FFF7E6FF24
:101D6000154B05460021985D2DF0CCFE134B044623
:101D70000021985D2DF0C6FE2D1B001B07EE900A7A
:101D800007EE105AF8EEE77AB8EEC77AB7EE000A17
:101D9000C7EE276AF4EEC06AF1EE10FA00D470BD07
:101DA000F5EEC06ADFED067AF1EE10FA8CBFB0EE08
:101DB000660AB0EE670A70BD380DFF1F400DFF1FA9
:101DC0000000000000B583B00191FFF7C5FF019945
:101DD00007EE901AF8EEE77AF7EE006A86EEA77A39
:101DE000013907EE901A80EE070AF8EEE77AB4EEB2
:101DF000670AF1EE10FA48BFF0EE407AF5EEC07ACD
:101E0000F1EE10FA8BBFFDEEE77A0023CDED017AFB
:101E10000193019803B05DF804FB00BF10B50C46B8
:101E2000FFF79AFFF6EE007AB4EEE70AF1EE10FA49
:101E3000ACBF012000200CB180F0010010BD00BF3C
:101E40000A4B10B4002203F1480401201A705870A4
:101E50009A709A60DA701A710C33A3424FF0000145
:101E6000F4D1034B19705DF8044B7047480DFF1F08
:101E7000F422FF1FFFF7E4BF084900EB4000800099
:101E80000B1810B4002201240A545C709A70DA70A6
:101E90001A719A605DF8044B704700BF480DFF1F30
:101EA0002DE9F84347004E4E0446381806EB8009EA
:101EB000884699F8020002F039FF054699F80200B9
:101EC00002F050FF0021884218BF4FF0040E484630
:101ED00008BF4FF0020E0B46C2780A41D20718D550
:101EE0004278013A062A14D8DFE802F059694939E4
:101EF000291F040003F001025B0803EB43034FEAD0
:101F0000420C03EBC303624403EB82032B4483F8CC
:101F100004800131CBB29E45DED83C4406EB8404FC
:101F2000A078BDE8F84302F04DB903F001035A0070
:101F3000134403EBC3032B4483F81880E9E703F051
:101F400001025B0803EB43034FEA420C03EBC303BC
:101F5000624403EB82032B4483F80A80D9E703F041
:101F600001025B0803EB43034FEA420C03EBC3039C
:101F7000624403EB82032B4483F80980C9E703F032
:101F800001025B0803EB43034FEA420C03EBC3037C
:101F9000624403EB82032B4483F80880B9E703F023
:101FA00001025B0803EB43034FEA420C03EBC3035C
:101FB000624403EB82032B4483F80680A9E703F015
:101FC00001025B0803EB43034FEA420C03EBC3033C
:101FD000624403EB82032B4483F8078099E700BF38
:101FE000480DFF1F61B9104B00EB400003EB800070
:101FF0007F2281785D390123C9B2092000F0ACBD90
:1020000000B5094B00EB400003EB800083B0817802
:1020100001235D390193C9B200937F22092000F0AA
:10202000EFFD03B05DF804FB480DFF1F10B5124B28
:1020300000EB400003EB8004E3789B0702D501B17D
:10204000A2B910BD3AB904F007FF0028F9D0BDE8E5
:10205000104004F021BD04F0FFFE0028F1D1E0782B
:10206000BDE81040C0F3800004F096BD04F0F4FE1B
:102070000028F4D0EBE700BF480DFF1F38B5044639
:102080000D46112000212DF031FD012800D038BD72
:1020900004F0E2FE0028FAD0B5B10C4B04EB440486
:1020A00003EB8404E3789B070AD404F0BDFE0446E6
:1020B00001E004F0ADFD04F0B7FE8442F9D038BD74
:1020C000BDE8384004F0A4BD38BD00BF480DFF1F77
:1020D0002DE9F0418F4C904D237803EB43029200A1
:1020E000A918AA5C82B1012A1ED0022A29D08B4AE3
:1020F000013382FB0312A2EBE37202EB4202A3EB79
:1021000042032370BDE8F081A2F15532013302F1A0
:10211000004282FB0312A2EBE37202EB4202A3EB4A
:1021200042022270BDE8F0814A78013A18460A2A34
:10213000DDD8DFE802F0B5B3B3B3B323B39E80615B
:102140004500C978184601F00101FFF767FE94F8D1
:1021500000C00CEB4C0305EB8303002814BFFF26E3
:10216000002693F801E099680EF1FF3E6346BEF148
:10217000030F1DD8DFE80EF0C0B2A4960821FFF7C8
:1021800021FE2378DFF88C81634F03EB430205EBDC
:102190008202064691688842A9D051781846FFF716
:1021A0007FFE98F8003003EB430207EB8207B96823
:1021B0008E429CD003EB430205EB8202966096E7C9
:1021C0008021FFF7FFFD2378DFF84881524F03EBB2
:1021D000430205EB820206469168884287D0D07898
:1021E000F1B2012200F000FE98F8003003EB430248
:1021F00007EB8207B968DBE74FF48031FFF7E2FDB8
:102200002378DFF81081444F03EB430205EB820291
:10221000A0F5004691688E423FF469AFD078314610
:10222000012200F045FF98F8003003EB430207EB72
:102230008207B968BCE78021FFF7C4FD2378DFF887
:10224000D480354F03EB430205EB820206469168CA
:1022500088423FF44CAFD0780123F2B20A2100F05B
:10226000F3FD98F8003003EB430207EB8207B968EF
:102270009EE78021FFF7A6FD2378DFF89880264FA0
:1022800003EB430205EB82020646916888423FF465
:102290002EAFD0780123F2B20721E0E710216EE7DC
:1022A00040216CE78E423FF422AFFF2E82D104F032
:1022B00039FC237803EB430205EB8202916877E750
:1022C000711A024618BF01216046FFF7AFFE23785E
:1022D00003EB430205EB8202916869E78E423FF40B
:1022E00006AF01466046FFF7C9FE237803EB4302C1
:1022F00005EB820291685BE78E423FF4F8AE01463F
:102300006046FFF76FFE237803EB430205EB820282
:1023100091684DE7F422FF1F480DFF1FABAAAA2AC0
:10232000024B00EB400003EB80007047480DFF1F9D
:10233000044B00EB400013F82000003018BF0120D0
:10234000704700BF480DFF1F0E4930B4002201F551
:1023500080654FF07E54012001F83C2C01F83B2CA5
:10236000A1F13C031A715A719A601A731C6103F847
:10237000140F8B42F6D103F14001A942ECD130BCDD
:10238000704700BFCC0DFF1F0C49820110B4002321
:102390008C188B543C3263700A44204601214FF064
:1023A0007E540371437183600373046100F8141F4A
:1023B0009042F6D15DF8044B704700BF900DFF1FAF
:1023C0000F289ABF024B03EB80100020704700BF1C
:1023D000900DFF1F014B8001185C7047900DFF1F8F
:1023E0008001014B19547047900DFF1F024B03EB06
:1023F00080104170704700BF900DFF1F024B03EB30
:1024000080104078704700BF900DFF1F8001044B83
:1024100001EB810100EB810119440879704700BF8D
:10242000900DFF1F8001044B01EB810100EB810146
:1024300019444879704700BF900DFF1F8001044B7D
:1024400001EB810100EB810119448868704700BFEE
:10245000900DFF1F8001044B01EB810100EB810116
:102460001944087B704700BF900DFF1F8001044B8B
:1024700001EB810100EB8101194491ED040A7047E1
:10248000900DFF1F8001044B01EB810100EB8101E6
:102490001944087D704700BF900DFF1F0A4B30B4F0
:1024A000002203F580651978D4B2013211B1597850
:1024B000814205D04033AB42F5D1FF2030BC70479C
:1024C000204630BC704700BF900DFF1F01EB81011B
:1024D0008001034B00EB810119440A71704700BF72
:1024E000900DFF1F01EB81018001034B00EB810187
:1024F00019444A71704700BF900DFF1F01EB810125
:102500008001034B00EB810119448A60704700BFD2
:10251000900DFF1F01EB81018001034B00EB810156
:1025200019440A73704700BF900DFF1F07EE902AF1
:102530009FED077A074BF8EEE76A01EB8101C6EEE3
:10254000877A800100EB81011944C1ED047A70475C
:102550000000FE42900DFF1F01EB81018001034B43
:1025600000EB810119440A75704700BF900DFF1FF1
:10257000014B1878704700BFF522FF1F014B1878F8
:10258000704700BFF622FF1F014B1870704700BF55
:10259000F522FF1F014B1870704700BFF622FF1F86
:1025A00030B5094D094C2B68226883B00093009B1D
:1025B0009B1AB3F5FA7F05D30FF002FB2B6801934A
:1025C000019B236003B030BD0481FF1F0823FF1F60
:1025D000064B074953F82020096810B4002443F83B
:1025E000204001FB02F05DF8044B7047FC22FF1F06
:1025F0009411FF1F002808B50CBF232026203AF0B5
:102600001FFCB0FA80F0400908BD00BF0346024A33
:102610000021105CD1547047F822FF1F064A13783E
:102620000F2B07D810B4591C044C117044F8230028
:102630005DF8044B704700BFF722FF1F0C23FF1FFC
:1026400070B5044680B3224E224D337855F82300EE
:10265000844236D0FF2B19D133701F4B187868B1E4
:102660002B689C422ED01B4A002303E052F8041F23
:102670008C4210D00133DBB28342F7D11749184A9C
:1026800000230B604B601370537070BD00212DF060
:102690000BFDFF23E0E7FF2B3370EFD055F823004D
:1026A00001212DF001FDE9E7094D2B78FF2B0CD01E
:1026B000084A214652F823002DF0F6FCFF232B7028
:1026C000DCE770BD00233370E8E72B70D6E700BF6E
:1026D0009211FF1F0C23FF1FF722FF1FFC22FF1F79
:1026E000F822FF1F054B1B78834202D80020FFF71A
:1026F000A7BF034B53F82000FFF7A2BFF722FF1F2D
:102700000C23FF1F70B5FF20FFF7ECFF094E0A49AD
:102710000A480B4C0B4B0022FF250A704A700260DE
:1027200042603270257003F1400143F8042F8B4260
:10273000FBD170BDF722FF1FF822FF1FFC22FF1FF5
:102740009211FF1F0823FF1F70B4214E327872B11F
:10275000204C2368984238D02146002303E051F8EA
:10276000045F854205D00133DBB29342F7D170BCE0
:102770007047FF2BFBD0013AD1B29942317088BF2C
:102780001A4607D9501C54F8205044F82250C2B2BF
:102790009142F7D8104802780025FF2A44F82150CA
:1027A000E5D09A4205D084BF02F1FF32027070BCBE
:1027B0007047FF2202700029D9D0481E9842A8BF56
:1027C0001846C0B270BCFFF78DBF0023D3E700BF2F
:1027D000F722FF1F0C23FF1F9211FF1F2DE9F04F5F
:1027E000594C81B03AF040FB2368C01A632802D8E4
:1027F00001B0BDE8F08F3AF037FB544F544EDFF88C
:1028000068A1DFF8689120600025BB46A8461AF849
:10281000010B36F8024B3AF013FB40EA440080B259
:10282000B0F5704F4DD026F8020C0135042D0BF198
:10283000040BECD1474D2B78002BD9D0464E3A688B
:102840003368002403FB02F3A3423C6043DD012014
:10285000FEF7F4FB414B1A78FF2A71D12B784FF029
:1028600001089C4258D32046FFF73CFF7B68346840
:10287000002004FB03F47860002CB9D0374E337885
:10288000FF2BB5D02A789A4284BF354A52F82300EC
:102890002DF024FC0028ABD0002CD4BF0020012058
:1028A000FEF7E2FB33782A789A4223D92C4A52F871
:1028B000230003685B6B2146012201B0BDE8F04FA5
:1028C0001847012D26F8028C17D909EB05030121C1
:1028D00003F8021CA9E7C9D02046FEF7AFFB1F4B47
:1028E0001A78FF2A26D0FF234FF0FF38D418E4B21D
:1028F0002B78B6E700231B68FFDE1A4B585D3AF0D1
:102900009FFADBF8003000280CBF4FF0FF310121A7
:102910000B44CBF8003088E7DFF8449059F82400E6
:102920002DF0DCFB00289ED144442B78E4B2A34276
:1029300099D9F3E72B785C1EE4B24FF0FF3890E7AB
:1029400001239846D2E700BF0423FF1FFC22FF1F8C
:102950009C11FF1FF722FF1F9411FF1F9211FF1FF1
:102960000C23FF1F9011FF1F9811FF1FF822FF1F5C
:1029700010B5002121203AF071FA002122203AF00E
:102980006DFA002123203AF069FA002124203AF060
:1029900065FA002125203AF061FA002126203AF05C
:1029A0005DFA00211C203AF059FA02221E491C202F
:1029B0003AF010F81D4B1E494FF6FF7200200860D8
:1029C0001A805A809A80DA80FFF708FF23203AF0B5
:1029D00037FA70B1002131202DF076F8154B002820
:1029E00014BF4FF0FF320122BDE810401A60FFF71C
:1029F00089BE26203AF024FA04460028EAD14FF492
:102A0000FA724FF47A71052038F00CFF214631201C
:102A10002DF05AF880F00101C9B2224631202DF084
:102A200085F82CF045FFD5E7A12500009C11FF1F7C
:102A30000423FF1F9411FF1F0020FFF701BE00BFFA
:102A4000054B064A1B7812789A4286BF044A52F810
:102A500023000020704700BF9211FF1FF722FF1FC5
:102A60000C23FF1F034A044B10781B78834298BF46
:102A7000FF2070479211FF1FF722FF1F70B5064617
:102A8000002401E01F2C0DD0E5B22846012100F002
:102A9000E9FF0F2C04F10104F4D8284600F08EFE63
:102AA0001F2CF1D103F0A8FC3046BDE8704004F0C3
:102AB00043BA00BF014B185C704700BF1424FF1FCE
:102AC00070B506460024E5B22846314600F0CAFF3C
:102AD0000134284600F072FE102CF4D10549064B53
:102AE00000220A8003F1400123F8022F8B42FBD120
:102AF00070BD00BF2C24FF1F4A23FF1F2DE9F843A0
:102B00000024134D80460E46274602E00134102C67
:102B10001CD015F8013F43455FFA84F9F6D13146E0
:102B2000484600F09FFF484600F048FE094A200250
:102B300002F1400132F9023F03F47F43984208BF9B
:102B400017808A42F6D10134102CE2D1BDE8F88317
:102B50001324FF1F4A23FF1F0E28F8B50D461F46FA
:102B600007DC04460646224B40BB1B88DB0707D424
:102B700019E01F4BB3F90030002B12DA0F24264660
:102B80001C49002202E00132202A1CD031F9020F38
:102B90000028F8D10135184B05EB062623F8126002
:102BA000F8BD0F263446154B20469A5D294600F0A5
:102BB00007FF204600F0F8FD9FB9F8BDB3F90030DB
:102BC0000341DA07DCD4092EEDD105F15D02204680
:102BD000D2B2294600F0F4FE204600F0E5FD002FB9
:102BE000EBD029462046BDE8F84003F093BA00BF79
:102BF0002C24FF1F4A23FF1F4C23FF1F1424FF1FF9
:102C00002DE9F04F2DED028B83B001929DF83850E5
:102C10009DF83CB0002A00F096800E2804468846B5
:102C20001F46064679DC002840F09480002F78D1BA
:102C3000DDED017A9FED687AF8EE677AF4EEC77AF7
:102C4000F1EE10FA7AD517EE900A3EF00DFD41EC48
:102C5000100B3CF0FDFE2046B0EE408AF0EE608A9C
:102C600000F084FD002853D1002C00F09980092C3D
:102C700079D05A4B13F80690204600F063FD0028E7
:102C8000204614BFAA464FF0000A00F065FD002858
:102C900057D0BBF1000F0CBF002502254AA3D3E992
:102CA000002351EC180B3EF05DFE3FF029F855442F
:102CB00008EE100AEDB2204600F036FD2B46F0EE8D
:102CC000480A4A464146204600F004FE444BB500FF
:102CD0002B4493ED000AB5EE400AF1EE10FA6FD1E5
:102CE00007EE906AF8EEE77A3E4AF5EE407AF1EEAA
:102CF00010FA14BF042300231344D3ED007AF5EE39
:102D0000407AF1EE10FA54D1204600F045FD7FBB29
:102D100003B0BDEC028BBDE8F08F0F242646002FD8
:102D200086D004F0ABF8002882D004F0ADF8A042C1
:102D30007FF47EAF012003F02FFF79E79FED240B96
:102D400087E70546AAE703B0BDEC028BBDE8F04F6C
:102D5000FFF702BF09287FF469AFA1F123032E2BEF
:102D60007FF664AFD4E708F15D095FFA89F983E77C
:102D7000204600F0D9FCDFED187A28EE000A414623
:102D800020EE270A2046FCEEC07ACDED017A9DF8B0
:102D9000042003B0BDEC028BBDE8F04F03F026B970
:102DA0000FF0A6F803287FF464AF02F065F98146BE
:102DB00062E7154495ED000A204600F091FEA3E776
:102DC000204600F08BFE8BE7422E60947260134029
:102DD0000000000000C05F400000FE421424FF1FFE
:102DE0008C23FF1FD423FF1F30B583B00E28019121
:102DF000DDED017A124BB8EEE77ADFED127A87EE5D
:102E0000270AC4BF0F24204603EB8003D8BF044623
:102E100015462046D3ED007AB4EE670AF1EE10FABB
:102E200098BFB0EE670A00F05BFE0DB903B030BD8D
:102E30000199204603B0BDE8304003F077BA00BFE7
:102E4000D423FF1F0000FE420E282DE9F041CABF27
:102E50000F2404462046402915461E467CD007D93B
:102E600079292ED07B2910D078294BD0BDE8F0816C
:102E7000072965D00A2918D00129F7D1294620460B
:102E80001A46BDE8F041FFF7AFBF4A4BB3F9001057
:102E900041FA00F010F00101E8D1204600F0E2FD17
:102EA0002046BDE8F04100F089BC1146204600F004
:102EB000EFFB002EDAD029462046BDE8F04103F0B2
:102EC000DFB9002240212046FFF7BEFF64212046E3
:102ED00000F096FB2046402100F0DAFB9FED360A19
:102EE000204600F0FBFD002EC0D06421204603F0F8
:102EF000A1F9204600F020FC01462046BDE8F04143
:102F000003F0BEB92B4D2D4A29880123834021EAC5
:102F100003032B80000202F14001002532F9023F39
:102F200003F47F43984208BF15809142F6D12046B2
:102F3000012100F097FD2046BDE8F04100F03EBCC5
:102F40001146204600F05CFB002E8FD0294620461B
:102F5000BDE8F04103F06EB93F2A164921D80A882E
:102F6000164C0123834022EA03030B80070204F17D
:102F700040054FF0000801E0A54210D034F9020FDF
:102F800000F47F439F42F7D1411EC9B2C0F307202E
:102F900033460022FFF7E0FDA4F80080ECE7BDE82F
:102FA000F0810B88012202FA00F003430B80BDE898
:102FB000F08100BF2C24FF1F000000004A23FF1FE8
:102FC00038B500240023E0B21A4678210134FFF717
:102FD0003BFF102CF6D100203BF0A2FB38B10020C3
:102FE0003BF09EFB0028F6D101E03AF0EBFB3AF013
:102FF000D5FB04460028F8D1094B0A4A0A4D18703F
:1030000001461D205C709C7014702C7039F012FF0A
:1030100021461E2039F00EFF044B1C6038BD00BF56
:103020002824FF1F2424FF1FD023FF1FCC23FF1FB2
:103030000A2825D00E2870B516460D46044615DC24
:10304000F8B9034602467B21FFF7FEFE174B1D70C1
:10305000AEB12046294603F0B5F80EF049FF03282B
:103060000DD12846BDE8704016F02CB800231A4652
:103070007B210F20FFF7E8FE0C4BDD737EB970BD9E
:10308000704700231A467B21FFF7DEFE074B1D55D4
:10309000002EF4D02946204603F094F870BD29464E
:1030A0000F20BDE8704003F08DB800BF1424FF1F4F
:1030B00070B582B00E28D4BF04460F2501914FF0A1
:1030C00012004FF00001D4BF25462C4616462CF0C6
:1030D0000DFD07EE900A9FED107A104BF8EEE77A9F
:1030E00003EB8403C7EE276A2846DDED017AF8EE8C
:1030F000E77A87EEA67AB0EE470A83ED007A00F011
:10310000EDFC0EB902B070BD0199284602B0BDE8D1
:10311000704003F0EBB800BF000080468C23FF1F17
:1031200070B5FFF74DFF0125002602E00135EDB235
:103130000136F4B200231A4620467821FFF784FEB8
:10314000002320461A467921FFF77EFE0022092E31
:1031500011462046EAD0FFF76BFF002211462046B9
:10316000FFF7A6FF002320461A460121FFF76CFE59
:10317000102DDBD1BDE870400EF022BD08B5074B25
:10318000187018B9BDE80840FFF7CABFFFF718FF6D
:103190000020BDE80840FFF793BC00BFD123FF1F0C
:1031A00008B503F05FFE00B908BD03F055FE002826
:1031B000FAD0BDE8084003F02BBD00BF08B503F00E
:1031C00051FE00B908BD0020BDE8084003F0E4BC92
:1031D00008B503F047FE00B908BD0120BDE808406E
:1031E00003F0DABC30B558490878A0F1800383B009
:1031F00000F00F007F2B48D8DFE803F0888888882C
:10320000888888888888888888888888404040405E
:10321000404040404040404040404040494949498A
:1032200049494949494949494949494999999999CE
:10323000999999999999999999999999818181815E
:10324000818181818181818181818181494949494E
:10325000494949494949494949494949717171713E
:1032600071717171717171717171717147475F47DE
:103270004747476D5047555A904747A101238A78E1
:10328000497801930093FFF7BBFC03B030BD497848
:10329000012203B0BDE83040FFF7A6BD03B0BDE892
:1032A0003040FFF77DBF03B0BDE83040FFF786BF79
:1032B00003B0BDE83040FFF78BBF8D784C7803F04A
:1032C000D1FD0028E1D004EB052080B203B0BDE8B9
:1032D0003040FFF7D3BB1D4B00221A70D5E78B7827
:1032E0004A78D90101F47E5302F07F011944A1F517
:1032F0000051012203B0BDE83040FFF7D9BE497844
:10330000012203B0BDE83040FFF792BE8A784978C9
:10331000012303B0BDE83040FFF71EBC03F0A2FD5F
:103320000028B2D003B0BDE8304003F0B5BB8A78C6
:103330004978012303B0BDE83040FFF785BD03B0F5
:10334000BDE83040FFF7ECBE2824FF1F2424FF1FF8
:103350002DE9F041524B1C7882B0002C40F0868061
:10336000504D514E2F4611E032782A7002F0F00095
:10337000F0280878197804D09EF80030013B1343F8
:103380003B706870A9700124FFF72CFF00203BF010
:10339000C7F9DFF834E14549454B0028E4D1414DF8
:1033A000444E2F4611E0327872B92A78DFF8F48063
:1033B000414C002A3DD021784A1CD2B27B54227065
:1033C0003E4B1B78934229D001243AF0E7F90028BC
:1033D00039D03AF0F7F90206C3B2E4D5F02B4DD05C
:1033E000327834492AB1F72B43D0EF2B3ED8002254
:1033F0003270314C2B7000220121DF2B21706A705A
:10340000AA70DFF8A08016D8C02B1AD2802B14D255
:1034100001232A49012293420B70D5D1FFF7E2FE26
:1034200098F800300122EF2B2270CDD900232B70A9
:10343000CAE72278C4E7EF2BEAD8204B03221A70A0
:10344000C2E70223E5E7FCB91D4D2B6873B11D4AA5
:1034500012680192019A934208D221461D2039F048
:10346000E9FC21461E2039F0E5FC2C6002B0BDE8E5
:10347000F08100230B7002B0BDE8F0810D4B0122FA
:103480001A7002B0BDE8F08101211D2039F0D2FC94
:103490000C4B0B4A1B680093009B32331360E5E72B
:1034A000D123FF1F2824FF1FAF84FF1FAD84FF1F00
:1034B000AC84FF1F2424FF1FD023FF1FA411FF1F74
:1034C000CC23FF1F0481FF1FAE84FF1F024B187027
:1034D00059709A70FFF786BE2824FF1F00B5F83890
:1034E00083B004280BD8DFE800F0280A0320180076
:1034F0004FF60F203BF0B0F8FA203AF091F8012196
:103500001E2039F097FC114B114A1B680193019B57
:103510000133136003B05DF804FB4FF60F403BF03E
:103520009BF8FC203AF07CF8E9E74FF60F303BF0CF
:1035300093F8FB203AF074F8E1E74FF60F003BF008
:103540008BF8F8203AF06CF8D9E700BF0481FF1F30
:10355000CC23FF1F70B501211D2039F07FFC012114
:103560001E2039F07BFC00211D2039F063FC002176
:103570001E2039F05FFC084E084D094A0948002317
:10358000012447F6122133702B70147037F0DEFFE0
:10359000BDE87040FFF7C4BDD023FF1F2424FF1FE8
:1035A000A411FF1FE414FF1FF0B500230D4E0E4DB4
:1035B0000E4C0F480F49DFF844C01A464FF0640E16
:1035C00040270133102B06F801EF45F804CB04F82F
:1035D000017F00F8012F01F8012FF2D1064BFF22E5
:1035E0001A70F0BD4324FF1F6424FF1F2F24FF1F08
:1035F0005324FF1FA324FF1F4024FF1FCDCC4C3FAB
:1036000038B504460D46D1B107EE901A9FED1C7AED
:10361000F8EE677AF4EEC77AF1EE10FA1FD49FED58
:10362000140B3CF015FA14A3D3E9002351EC100B52
:103630003EF098F93EF064FB07EE900A01E0DFED02
:10364000117A114A114B155503EB84032046C3ED43
:10365000007AB0EE670ABDE8384000F06FBF17EEA1
:10366000900A3EF001F841EC100BDAE7AFF300806E
:103670000000000000C05F40422E60947260134062
:103680000000FE42000000004424FF1F6424FF1FCE
:1036900030B4094D2A5C8A420CD02F290B4694BFC6
:1036A000002201224F292B548CBF0021012130BC64
:1036B00000F052BB30BC70473024FF1F034B19543D
:1036C00001B97047012100F0CDB900BF5424FF1F9C
:1036D000F8B5104E104D30700024034627460FE019
:1036E000834214BF012300234FF001012B7001D04E
:1036F00000F0B8F90134102C05F1010509D0337838
:10370000FF2BE0B2ECD10134102C2F7005F1010534
:10371000F5D1F8BD4024FF1F5424FF1F014B185C56
:10372000704700BF4424FF1F024B03EB800090ED65
:10373000000A70476424FF1F014B185C704700BFEC
:103740003024FF1F034B185C4F288CBF0020012042
:10375000704700BF3024FF1F034B185C2F2894BF15
:1037600000200120704700BF3024FF1F014B185C70
:10377000704700BF5424FF1F034B1B78181AB0FA80
:1037800080F04009704700BF4024FF1F014B1878AC
:10379000704700BF4024FF1F024A135C01331354DB
:1037A000704700BFA424FF1F034A135C013B23EAB8
:1037B000E3731354704700BFA424FF1F014B002282
:1037C0001A547047A424FF1F014B185C704700BFB8
:1037D000A424FF1F054B185C4F2804D82F2894BF42
:1037E0000020012070470220704700BF3024FF1FD7
:1037F00030B4084C002004F110052246111B12F8C9
:10380000013B003318BF01238B40AA421844F5D175
:1038100030BC7047A424FF1F0A4B0B4930B4002270
:10382000002503F5207403201A809A705D601872D9
:10383000DA601033A34221F8042C41F8082BF3D1AD
:1038400030BC7047A811FF1FB824FF1FF0B51E4BF6
:103850001E4C1B6883B004F5A0750193019E0027E0
:1038600002E00834AC420ED034F8040C0028F8D042
:103870002368B342F5D8002100F066F9083424F833
:103880000C7CAC42F0D1124C002704F5207502E00C
:103890001034AC4215D034F80C0C0028F8D0236852
:1038A000B342F5D814F8042C54ED020A14F80A1C9B
:1038B000B7EE000A00F032FF103424F81C7CAC4252
:1038C000E9D103B0F0BD00BF0481FF1FB824FF1F82
:1038D000B411FF1F2DE9F04FC0022DED028B1FFA2E
:1038E00080F8481C1446404483B01A4680B289468A
:1038F0002146B0EE408AF0EE608A00F00FFF2046CD
:10390000FEF7CCFDFEF75CFD002843D02A4B2B4E82
:103910001B680193DDF804B0054608F10108B246C2
:1039200001272B798BB3D5ED047AF5EEC07AF1EE51
:1039300010FA2ADD2B7D68EE280A012B60EEA70A1B
:1039400033D94FF0020E7A022C7BAB68697902F40E
:10395000C062424409EB040052FA80F080B2F3B135
:10396000002301E0282B10D01C010133325B002A18
:10397000F8D10AEB04032AF80400997083F808E0F0
:10398000AA68C3ED010A5A44DA600137042F05F131
:103990001405C6D103B0BDEC028BBDE8F08F7246B2
:1039A000B0EE480A00F0BAFEEFE7002B0CBF4FF074
:1039B000010E4FF0030EC6E70481FF1FA811FF1F81
:1039C0002DE9F04FC0021FFA80F8481C404483B034
:1039D000144680B28946002100F0B6F82046FEF772
:1039E0005DFDFEF7EDFC90B31C4B1D4D1B68019374
:1039F000DDF804B0044608F10108AA46012723793E
:103A000003B3D4ED047AF5EEC07AF1EE10FA19DDC5
:103A10007B02207BA16803F4C0634344484453FA0B
:103A200080F080B2B9B1002302E00133282B11D01D
:103A300035F83320DE00002AF7D1564459442AF8DD
:103A4000330071600137042F04F11404D7D103B09F
:103A5000BDE8F08F002100F077F8F3E70481FF1F45
:103A6000B424FF1F2DE9F84F82468946DFF86880AD
:103A7000184D00F089FB00244FEACA2AC3462746A6
:103A8000264638F81430610003F478424BB15245B1
:103A900007D13A010BEB02034BF802605E609E60B7
:103AA000DE6035F8043C03F478424BB1924507D10F
:103AB00038F80100494600F047F825F8046C2E60FC
:103AC0000834B4F5A07F07F1010705F10805D8D146
:103AD000BDE8F88FB824FF1FA811FF1F00F056BAE9
:103AE00000F06CBA00F07F000138C0B2704700BF30
:103AF00030B100F47840B0EBC12F0CBF01200020A2
:103B0000704700BFF0B500240C4D0D4E83B0274622
:103B1000AB69E1B253B132680192019A094893420C
:103B20004FF0000202D830F07FFCAF610134242C4A
:103B300005F11C05ECD103B0F0BD00BFF425FF1F5B
:103B40000481FF1F007DFF1F2DE9F04F564C85B00B
:103B5000002681468B4604F1180504F57C7806E0C2
:103B60001C34A04506F1010605F11C0542D035F8CC
:103B7000183C4B45F7B2F3D1BBF1000F3DD000220A
:103B800039464A4830F010FC0122824639464748FF
:103B900030F00AFC0F23019000223946434830F0F0
:103BA0000DFC0F2301223946404830F007FC00226B
:103BB00039463E4830F07CFC002239463B4830F024
:103BC00033FC534600223946384830F0F7FB019B5E
:103BD00036483946012230F0F1FB0023A3611C3442
:103BE0004FF00003A04525F8183C06F1010605F149
:103BF0001C05BCD105B0BDE8F08F5A4639462B48AC
:103C000030F056FC5A463946284830F067FB50BB26
:103C100001223946254830F061FB4FF00F0AA0B170
:103C200001223946214830F02FFB3E2830D9BAF125
:103C3000000F36D145F2F05242FA0AF31C4A1268DC
:103C40000392039A1344A361C9E750460AF1FF3A6D
:103C500045F2F0530028F1D001388245EADB45F205
:103C6000F0530341EAE75A463946104830F00CFB5E
:103C70003E28CDD85A4639460C4830F095FB0122F3
:103C800082463946094830F029FB0028CFD0C7E7E3
:103C900039460122054830F087FBBAF1000FD7D032
:103CA000D4E70F20D2E700BFF425FF1F007DFF1FE0
:103CB0000481FF1F30B52DED028B044683B008460A
:103CC000F0EE408A01F032F8837C9FED218AC3F147
:103CD0003F0307EE903AF8EEE77A214687EE887ABE
:103CE000012205461B4868EEC77AB0EE487AA7EE77
:103CF000887AFCEEC77ACDED017A9DF8043030F079
:103D0000CDFA2146134830F007FC012803D003B058
:103D1000BDEC028B30BDAB790E48C3F13F0307EE1B
:103D2000903AF8EEE77A214687EE887A002268EE2C
:103D3000C78AA8EE888AFCEEC87ACDED017A9DF894
:103D4000043003B0BDEC028BBDE8304030F0A6BAC1
:103D500000007C42007DFF1F134B1B78022B21D0FB
:103D60002DE9F0470024924689460746DFF8408057
:103D7000254602E0B4F57C7F12D038F804003946BD
:103D8000FFF7B6FEEEB21C3401350028F2D0314602
:103D900053464A46054830F0D9FEB4F57C7FECD155
:103DA000BDE8F087704700BFE429FF1F007DFF1FBB
:103DB000F425FF1F2DE9F04F2DED028B6B4B9FED8E
:103DC0006C7A1B68DFF8B0A16A4CDFF8BCB185B033
:103DD00000250393DDED038AF8EE687A67EE878AA3
:103DE00005E00135242D04F11C0400F0A38034F813
:103DF000103C5FFA85F9002BF3D02379002BF0D12A
:103E000014F80C0C00F092FF867E14F90C3C7F2E07
:103E1000C8BFA6F58076002BC0F2918034F8100C54
:103E2000FFF760FE30448BFB0036C317C3EB66061A
:103E300006EB4606A0EB86060236F6B214ED017AD2
:103E40005AF82670B5EEC07AF1EE10FA0FFA87F83C
:103E500000F1818014DDB31C474A07EE908A52F8C6
:103E60002330F8EEE76ADB1B07EE903AF8EE677A4C
:103E7000E7EE276AFDEEE67ACDED007ABDF9008027
:103E800094ED008AB5EEC08AF1EE10FA40DD18EE2E
:103E9000900A3DF0E9FB013641EC100B3BF088FC49
:103EA0005AF82630DF1B07EE907AF8EE677A8DED30
:103EB000000B67EE887A17EE900A3DF0D5FB9DED7A
:103EC000000B06460F46002251EC100B2B4B3DF029
:103ED0001FFC0022294B3DF069FA02460B460020E8
:103EE00027493DF061FA02460B46304639463DF01F
:103EF0000FFC064640460F463DF0A4FB02460B462B
:103F0000304639463DF052FA3DF0B2FE0FFA80F8E5
:103F100049461C4830F072FA80453FF462AF424691
:103F200049461848013530F07FFA242D04F11C046D
:103F30007FF45DAF05B0BDEC028BBDE8F08F8BFB6D
:103F40000632F317C3EB620303EB4303A6EB8306CE
:103F50000236F6B272E7B31E074A07EE908A52F8AD
:103F60002330F8EEE76AFB1A7EE700BF0481FF1FEB
:103F7000F6AD003D0426FF1F147C04000000E03F66
:103F80000000F03F007DFF1FABAAAA2A70B50A4CC3
:103F90002DED028B0646B0EE408A04F57C75314665
:103FA0002088FFF7A5FD08B184ED038A1C34AC42DC
:103FB000F5D1BDEC028B70BDF425FF1F70B50A4C26
:103FC0002DED028B0646B0EE408A04F57C75314635
:103FD0002088FFF78DFD08B184ED048A1C34AC42C3
:103FE000F5D1BDEC028B70BDF425FF1F2DE9F04F1C
:103FF000634B83B0C0EBC0070190884603EB870793
:10400000002402E00134192C2BD0E0B2FEF788F92D
:104010000578012D0646F5D182783B799A42F1D197
:10402000012D00F0A580B8F1FF0F15D0C2464FF06A
:1040300004097378013B062B0ED8DFE803F05160CA
:10404000423324041500F37819EA030F04D05146D3
:10405000327A4C4830F046FA022DD3D00135EDB219
:10406000DEE703B0BDE8F08F4FF0000BF17809FAFE
:104070000BF319425FFA8BF20BF1010B4ED1BBF13E
:10408000020FE9D0F2E74FF0000BF17809FA0BF3D9
:1040900019425FFA8BF20BF1010B45D1BBF1020F14
:1040A000DAD0F2E74FF0000BF17809FA0BF319427E
:1040B0005FFA8BF20BF1010B48D1BBF1020FCBD0B1
:1040C000F2E74FF0000BF17809FA0BF319425FFAAF
:1040D0008BF20BF1010B33D1BBF1020FBCD0F2E735
:1040E0004FF0000BF17809FA0BF319425FFA8BF2EB
:1040F0000BF1010B33D1BBF1020FADD0F2E74FF062
:10410000000BF17809FA0BF319425FFA8BF20BF10D
:10411000010B0FD1BBF1020F9ED0F2E7337A1948A1
:10412000514630F091F8AAE7337A1648514630F0FC
:1041300045F9B3E7337A1348514630F0D9F8E9E747
:10414000337A1048514630F0F1F8C5E7B3680D48AE
:10415000C3F10F03DBB2514630F008F9ADE7B368A5
:104160000848C3F13F03DBB2514630F097F8C2E78D
:10417000019BFF2B3FF472AF9A46A94659E700BF57
:10418000F425FF1F007DFF1F2DE9F0410C4D064671
:1041900088462F46002403E01C34B4F57C7F0DD004
:1041A0003146285BFFF7A4FC0028F5D0385B414678
:1041B0001C34FFF7C9FCB4F57C7FF1D1BDE8F08178
:1041C000F425FF1F0A4B10B403F57C71FF2404E0B3
:1041D000FF2805D01C338B4206D01A798242F7D1D2
:1041E0001C711C338B42F8D15DF8044B704700BF43
:1041F000F425FF1FF8B5184E184B30700F460024F9
:1042000003F57C750022FF211A805A8019719C6089
:10421000DC601C611A759A611C33AB42F4D1A0F1C9
:104220000201B1FA81F149090D4830F0EDFB394640
:104230000B4830F047FE0121094830F08DF901218B
:10424000074830F073F931780548023918BF012169
:10425000BDE8F84030F01CBFE429FF1FF425FF1F24
:10426000007DFF1F2DE9F04F5C4B1F78012F87B0B9
:1042700068D0022F0CBF4FF0090E4FF00C0E4FF616
:10428000FF764FF0FF080022554DDFF8609103964E
:104290009346B246B446CDF81480CDF80480CDF8EC
:1042A000088000900DE01C795B88200622D4B34280
:1042B00002F1010238BF1E46D3B238BF88469E4580
:1042C00028D9022F0ABF474B12F80910D15CC1EB65
:1042D000C10405EB840335F82440002CE3D11C799C
:1042E000009884420BD05B889C45DED920069C4612
:1042F0000191DCD553453CBF9A460591D7E75888D4
:10430000039B04900BF1010B98425FFA8BFB0BD3DC
:104310000346E9E7029BFF2B17D0BBF1010F07D93A
:10432000029807B0BDE8F08F049B03930291DBE78E
:10433000019A02991346FF2A08BF0B46184607B098
:10434000BDE8F08F4FF0060E99E7019BFF2B03D0DD
:10435000019807B0BDE8F08F059CFF2C28D1022FF3
:104360002DD00021DFF888C0059C4FEA4E0E0A468A
:104370000E464FF6FF7901E01CF80210C1EBC103B5
:10438000501C35F8237005EB83032FB95B884B4530
:1043900002D2164699460C46C2B29645ECDCFF2C7A
:1043A0000DD03146104830F0F1FE78B92046B8E71C
:1043B0000D480022214630F07BF82046B1E70A483C
:1043C0000022414630F074F84046AAE706483146DC
:1043D000002230F033FD2046A3E700BFE429FF1F91
:1043E000F425FF1F847C0400007DFF1F547C040023
:1043F000A87C040070B52DED048B044682B00846FD
:10440000B0EE409A00F092FC90F82D309FED498A72
:10441000C3F13F0307EE903AF8EEE77A2146C7EE84
:10442000888A01220646444830F012FE01220146E5
:104430004148F0EE487A68EE898AE8EEC87AFCEEE8
:10444000E77ACDED017A9DF804302FF027FF214661
:10445000394830F0CBFB02285FD00328054627D02F
:10446000012803D002B0BDEC048B70BDB37C324890
:10447000C3F13F0307EE903AF8EEE77A214687EE64
:10448000887A002227EE099A30F0E2FDA9EE488AE8
:1044900001462A46FCEEC87A2748CDED017A9DF800
:1044A000043002B0BDEC048BBDE870402FF0F6BEC6
:1044B000B3792148C3F13F0307EE903AF8EEE77A6B
:1044C0000022C7EE888A214630F0C2FD0022014654
:1044D0001948F0EE487A68EE898AE8EEC87AFCEE70
:1044E000E77ACDED017A9DF804302FF0D7FE96F8EB
:1044F00021301148C3F13F0307EE903AF8EEE77A16
:10450000214687EE887A012227EE099A30F0A0FD35
:10451000A9EE488A01460022BCE7B3790648C3F1F8
:104520003F0307EE903AF8EEE77A214687EE887A65
:104530000022E9E700007C42007DFF1F2DE9F843DF
:104540001C4CDFF874902DED028B8046B0EE408A53
:1045500004F57C7700250DE094ED020A217919F825
:10456000050028EE000AFFF745FF1C34BC4205F1A8
:1045700001051BD041462088EEB2FFF7B9FA0028AA
:10458000F3D0237D002BF0D1207900F0EBFB002845
:10459000E2D194ED020A2179304628EE000A1C345B
:1045A000FFF788FBBC4205F10105E3D1BDEC028BAE
:1045B000BDE8F883F425FF1F607C04002DE9F04F6F
:1045C000524B1B7889B0012B029000F08180022BA6
:1045D0004FD04FF00C0900254FF6FF784FF0FF0A3F
:1045E0002B4606952F46C346CDF80480CDF81C8097
:1045F000CDF814A0CDF810A0CDF80CA04448454C3F
:1046000003210FE0127912062ED4984505F1010519
:1046100088BFBA46EFB288BF9846B94539D9837882
:10462000C1780230C3EBC303C1EBC10104EB8302C9
:1046300004EB8106B2F802C034F823E073886345C6
:1046400028BF6346BEF1000FDCD134F82110127987
:104650000029D8D102998A422CD001999942D2D905
:10466000120601930497D0D59B4584BF9B460597BE
:10467000CBE7FF23039300220399274830F0E8FC9F
:104680000022014624482FF013FF039809B0BDE82B
:10469000F08F039BFF2B1ED0069B012BF5D8049AAD
:1046A00003991346FF2A08BF0B460393039809B0EA
:1046B000BDE8F08F3179029EB142CED10699013129
:1046C000C9B2069107999942C7D907930397C4E7DE
:1046D0004FF006097FE7049BFF2B05D0049B039353
:1046E000039809B0BDE8F08F059CFF2C0BD0214644
:1046F0000022094830F0ACFC002201460648039431
:104700002FF0D6FEC1E7CDF80CA0B4E7E429FF1FD7
:10471000A87C0400F425FF1F007DFF1F2DE9F04F4A
:104720002DED028B06469FB008460D46F0EE408AFE
:10473000B0EE608A924600F00BFB002800F0B980D2
:104740009B4B1B78022B05D0284600F00BFB002862
:1047500040F0B48010AB184629460F9300F0EEFAF3
:1047600028469DF85AB0934FDFF85882FFF77AFD3C
:104770000446FF23214690480D934FF000092FF087
:104780008DFE002840F0CC808C4B1B5D0E93FF2BE0
:104790000AD01946884830F0F9FC484504D04A460A
:1047A0000E99854830F04AFBB9F1000F00F0C18046
:1047B0004FEAC409C4EB090307EB83037D4A1B7965
:1047C000AB4200F0DE808DF85AB00DF1480CBCE829
:1047D0000F00EE46AEE80F00BCE80F00AEE80F0099
:1047E0009CE80F00AEE80700AEF800300F9B0E9972
:1047F0007148B7EE000A0CCB30F03AF90E98294612
:1048000028EE280AFFF7F6FDCAF340030AF001027A
:104810000D99694830F09AF9C4EB09094FEA890902
:1048200007EB0903B8F800205A80002100221D710F
:1048300083ED028AD96019611A759A612B0627F8EF
:10484000096005D406F07F06013E5E445FFA86FBF0
:10485000BBF16A0F6ADCBBF10C0F00F39C800025F2
:104860002E46534B1B78022B07D0CAF340030AF0A5
:1048700001022146504830F069F9324621464E483F
:104880002FF0F2FD29464C482FF07AFB21460246D4
:1048900049482FF0C9FD0D992046FFF7A7FB214697
:1048A000012245482FF004FEB8F800300133A8F883
:1048B00000301FB0BDEC028BBDE8F08F10AB184686
:1048C00029460F9300F03AFA28469DF85AB0394F1E
:1048D000DFF8F080FFF772FE394BB8F800E000B265
:1048E00003EB400213F8104053780D93C3EBC3025F
:1048F0009200BB180021BE524FF001090022D9607E
:1049000019611D7183ED028AA3F802E09A6183F8B0
:104910001490214628482FF0C1FD00283FF434AF01
:104920000022214624482FF0C3FD2DE70B25072642
:1049300097E74FEAC409C4EB090307EB83031B792C
:10494000AB4217D08DF85AB00DF1480CBCE80F00FF
:10495000EE46AEE80F00DCF800302EF8023B1B0CF0
:104960008EF800300F9B14480CCBB7EE000A21469E
:104970002FF09CFB28EE280A29462046FFF79AF9DB
:104980004AE70D9BC3EBC30302EB83021379AB42EF
:104990007FF419AF32E70C26BBFBF6F506FB15B525
:1049A000ABF10C03EDB293FBF6F6F6B259E700BF9C
:1049B000E429FF1FF425FF1F007DFF1F607C04001A
:1049C000A87C04002814FF1F08B52DED028BDFED35
:1049D000468A9FED468AB0EE680A0322F7EE000A87
:1049E000602148F23000FFF799FEB0EE480A03223A
:1049F000F7EE000A702148F63000FFF78FFE3220F4
:104A000038F056FAB0EE680A0322F7EE000A602189
:104A100048F23500FFF782FEB0EE480A0322F7EEB7
:104A2000000A702148F63500FFF778FE322038F092
:104A30003FFAB0EE680A0322F7EE000A602148F25E
:104A40003900FFF76BFEB0EE480A0322F7EE000ACA
:104A5000702148F63900FFF761FE502038F028FA3F
:104A6000B0EE680A0322F7EE000A602148F23C002B
:104A7000FFF754FEB0EE480A0322F7EE000A702159
:104A800048F63C00FFF74AFE4FF4FA7038F010FA8F
:104A9000002148F23000FFF757F8002148F23500B6
:104AA000FFF752F8002148F23900FFF74DF80021D6
:104AB00048F23C00FFF748F8002148F63000FFF7C5
:104AC00043F8002148F63500FFF73EF8002148F68C
:104AD0003900FFF739F8BDEC028B002148F63C00A5
:104AE000BDE80840FFF730B83333333FCDCC4C3FFF
:104AF00013460A460146014830F0B2BB007DFF1F55
:104B00002DE9F04F002380468FB01946B0227C4833
:104B100098F8009030F0A4FB0021794830F036FB83
:104B2000002211460290764830F088F900231A4698
:104B3000202173482EF0C4FF00231A460390402121
:104B40006F482EF0BDFF00231A46049060216C4888
:104B50002EF0B6FF00231A460590802168482EF0FB
:104B6000AFFF00231A460690E02165482EF0A8FF0B
:104B7000012307900022202161482EF0A1FF01238C
:104B80000890002240215E482EF09AFF01230990F0
:104B9000002260215A482EF093FF01230A90002240
:104BA000802157482EF08CFF01230B900022E0213A
:104BB00053482EF085FF00220C90A02150482EF083
:104BC00057FF00220D90B0214D482EF051FF0022DA
:104BD0008246C0214A482EF04BFF01268346B9F198
:104BE000000F23D018F80670741CE4B2B7B100258A
:104BF000631CDBB218F8042018F803304048013574
:104C0000002130F02DFBEBB202349F42E4B2EFD82A
:104C100006EB470404F2011404F0FF04661CF6B22C
:104C200018F8040038F044F9B145DBD2029A344850
:104C3000002130F003F9039A009200231A46202144
:104C40002F4830F071F8049A009200231A46402150
:104C50002B4830F069F8059A009200231A4660212B
:104C6000274830F061F8069A009200231A46802106
:104C7000234830F059F8079A009200231A46E021A1
:104C80001F4830F051F8089B009300220123202197
:104C90001B4830F049F8099B009300220123402172
:104CA000174830F041F80A9B00930022012360214D
:104CB000134830F039F80B9B009300220123802128
:104CC0000F4830F031F80C9B009300220123E021C3
:104CD0000B4830F029F85B460022C021084830F02C
:104CE00001F80D9B06480022A0212FF0FBFF04488D
:104CF00053460022B0210FB0BDE8F04F2FF0F2BFB5
:104D0000007DFF1F84B070B5074E05AC362584E8E2
:104D10000E0005FB006021462A4637F04DFCBDE839
:104D2000704004B0704700BFE829FF1F024B3622D5
:104D300002FB0030704700BFE829FF1F08B5034B96
:104D4000362202FB013137F037FC08BDE829FF1F8E
:104D5000034A362303FB002090F83500C009704752
:104D6000E829FF1F044A362303FB002090F8350092
:104D700000F00100704700BFE829FF1F054A3623F5
:104D800003FB002090F8353063F07F0380F8353066
:104D9000704700BFE829FF1F084B362202FB003096
:104DA00090F8353021B923F0010380F83530704791
:104DB00043F0010380F83530704700BFE829FF1F3A
:104DC0002DE9F84F4FEA001A89460AF110075446B8
:104DD000012607E036F0DAFF202305460134A7421A
:104DE0002B7019D021461348002EF3D0CAEB0408CB
:104DF0004146484636F0CAFF90F800B00D482146BB
:104E0000BBF1000F0AD136F0C1FF01340546202363
:104E1000A7425E462B70E5D1BDE8F88F21460548D4
:104E200036F0B4FF41460546484636F0AFFF0378FA
:104E3000D4E700BFE44EFF1F70B5124C124992B088
:104E4000362606FB0044054668462FF0EBFD324649
:104E50006946204637F0B0FB0123002284F8352054
:104E600023712374E37784F82B300EA8074936F0BA
:104E700003FE0EA92846FFF7A3FF0EA836F0BCFDDF
:104E800012B070BDE829FF1F007DFF1FC896040007
:104E90002DE9F04F97B060B90446E0B20134FFF756
:104EA000CBFFAF2CF9D1FF2017B0BDE8F04FFFF7D3
:104EB00089B900212E202AF019FE02284B4F6AD012
:104EC00000212F202AF012FE00F0020000F0FF0463
:104ED000002860D1DFF83091454A3D466E464FF0DC
:104EE000360A01E059F8042F4249012330460AFBF3
:104EF00004782FF0A3FD013440463622314637F0C6
:104F00005BFB8123802C85F8353005F13605E9D12E
:104F10000DF13C08DFF8F490374A0024802501E0C9
:104F200059F8042F3349012340462FF055F8362312
:104F300003FB057A2F4930462FF074FD07EB040B75
:104F400036223146504637F037FB1B2241460BF5DF
:104F5000D85037F031FB36340BF5D95340F6EA120E
:104F60008021944205F101055975D9D1234E41257F
:104F7000002401E016F8015F2148214636F006FFC3
:104F80000134B4F52F6F0570F4D1FF2017B0BDE8E0
:104F9000F04FFFF717B9DFF878901A4A3D46002422
:104FA0000DF13C086E464FF0360A01E059F8042F27
:104FB0001049012340462FF00FF80AFB047B0D49EE
:104FC00030462FF02FFD36223146584637F0F4FA9E
:104FD00028461B22414637F0EFFA013480239C42D9
:104FE00085F8353005F13605E0D193E7E829FF1F54
:104FF000A8A70400007DFF1F14A50400C07C0400C6
:10500000E44EFF1F78A704004CA90400788A04002E
:10501000E49904002DE9F041074688461026002453
:105020002146134836F0B2FE06FB084105461148FA
:1050300036F0ACFE013403782B70102CF0D10F2425
:1050400000E0D4B221460A4836F0A0FE0378621E82
:10505000002BF6D0611C064836F098FE0023037042
:105060000349384636F01CFD3846BDE8F08100BFE4
:10507000D44EFF1FE44EFF1F014B1878704700BF4E
:10508000D24EFF1F014B1870704700BFD24EFF1F5A
:10509000074B084A01E0934208D093F8350010F01E
:1050A000010003F13603F6D001207047704700BFBE
:1050B000E829FF1FD24EFF1FF8B50C4F0C4E0D4DC7
:1050C0000D4C0E49384636F0D7FC32462946384654
:1050D0003AF0A0F820460A4936F0CEFC324629467E
:1050E0002046BDE8F8403AF095B800BFE44EFF1FF7
:1050F0001C0DFF1FF9B90300D44EFF1FC48B040021
:10510000B896040038B5054CA4F580552046103CEF
:1051100036F072FCAC42F9D138BD00BF405FFF1FD2
:105120002DE9F04F9BB081460D4612A8BD4936F0DF
:10513000A3FC12A9484636F003FE044612A836F036
:105140005BFC002C00F08B80B649484636F0DAFD57
:1051500058B9D9F80010B44CB448002908BF21460A
:1051600030F012FD0390002850D0D9F80020AE4B4B
:10517000AE49DFF8BC821AAE002A08BF1A4612A850
:10518000012330F08DFC16F8141D9DF84C20149B63
:1051900088F80420C8F8083088F80C10324608F166
:1051A0000D0308F11A0712F8011F03F8011BBB4297
:1051B0009F4CF8D1199BE361204630F0D7FA039059
:1051C000002851D19B4A984B12689849002A08BF81
:1051D0001A4612A8012330F063FC9DF84C10149A73
:1051E0009DF8543088F804100D34C8F8082088F869
:1051F0000C3016F8013F04F8013BBC428C4BF8D14F
:10520000199A0398DA611BB0BDE8F08F894B874982
:105210001A68DFF81C8212A8002A08BF2246012360
:1052200030F03EFC1AAA149B9DF84C1012F8140D95
:10523000C8F8083088F80C0088F8041008F10D034D
:1052400008F11A0712F8011F03F8011BBB42784945
:10525000F8D1199B0398CB611BB0BDE8F08F2F21CB
:10526000484636F0F1FC6FE749467248DFF8D881CE
:10527000DFF8CC91DFF8CCA136F082FC00276E4B32
:10528000C8F80070394606A81F6036F0F5FB2046C6
:1052900030F0FEFC3B46019609F11A07CB461E464C
:1052A0000122634912A830F099FC9DF854209DF822
:1052B0004C00149989F80C20604B019A89F804007D
:1052C000C9F8081012F8011F03F8011BBB42F9D1FD
:1052D000199B5B48CBF81C3030F074FA002800F0C2
:1052E000B580574830F040FA014606A836F058FC21
:1052F000534830F03BFA044600287FD1AB68002BBE
:1053000070D02E2106A836F0ABFD06A9421C0AA8D3
:1053100036F0FEFDAB686BB3224607E00EA836F010
:105320006BFBAB68E4B29C42224623D20334234693
:10533000294612A836F0C8FD12A836F001FE014633
:105340000EA836F0ADFB12A836F056FB0EA90AA83F
:1053500036F0CAFC0028E1D00AEB061006A936F0A8
:105360000FFC354B344A1B680EA80133013613601D
:1053700036F042FB0AA836F03FFB314830F014FA11
:10538000FE2E8DDD0296D8F80030002B40F31382FC
:105390002C4DDDF808A00027A9463E463C4609E012
:1053A00001345445374609F1100952D0D8F800307D
:1053B0009E4250DA0021484636F0E8FC90F9003071
:1053C000002BEDDAA74205EB0717C0F2E78138465C
:1053D000002136F0DBFC0378013603F07F03F6B2E0
:1053E0000370DDE70AEB061006A936F0C9FB124B85
:1053F000114A1B68013301361360BEE70AEB06143D
:1054000006A9204636F0BCFB2046002136F0BEFC43
:105410000378803B0370D8F8003001330136C8F8B8
:105420000030AAE7ACAB0400C2620500687EFF1F33
:10543000F84EFF1F1C4FFF1FF44EFF1F3D4FFF1F75
:10544000304FFF1F504FFF1F2C4FFF1F0296002EA3
:1054500099D1D8F80030002B34DDCD4D00232E46F5
:105460001C4699461F4606E00137D8F80030FFB2C7
:105470009F423C4679DA05EB04142046002136F0C1
:1054800085FC0378303B092BEED8B945ECD206EB0E
:10549000091A514606A836F073FB2146504636F0ED
:1054A0006FFB09F1010906A9204636F069FB5FFA96
:1054B00089F9D9E7019A9A1A0137FFB297423E4615
:1054C000C0F2BA80B34B1B68002B47DDB04DB24F22
:1054D0004FF0000A2E465446D14609E0AD4B09F183
:1054E00001091B685FFA89F999454C4680F2CD8025
:1054F000D8F80000204405EB0010002136F046FCEF
:105500000378303B092BE9D8D145E7D93B680AEB52
:10551000030106EB011106A836F032FB3B680AEBEB
:105520000300191906EB011106EB001036F028FBF9
:105530003B68E01806EB001006A90AF1010A36F0F4
:105540001FFB5FFA8AFAC9E7924B1B680137FFB26B
:10555000CAEB03039F423E46C0F2F18006A836F034
:105560004BFA03981BB0BDE8F08F4946CDF8149074
:10557000CDF80490002900F0208109F1FF3323F0D9
:10558000FF030493CA46BAF1010F41DD0124264608
:1055900004E00136F6B25645344639DA671E05EBAB
:1055A00007172E21384636F05BFC002203463946A9
:1055B00012A836F089FC12A836F0F0FC05EB0414B2
:1055C000834612A836F018FA2E21204636F048FC01
:1055D00021460346002212A836F076FC12A836F0C7
:1055E000DDFC814612A836F007FACB45D1D9214619
:1055F00006A836F0C5FA01363946204636F0C0FA1C
:10560000F6B206A9384636F0BBFA56453446C5DB35
:10561000049B0AF1FF3A9A45B5D1D8F80030019AB7
:105620009A1A002A7FF74EAF0599594D01F10109E9
:1056300000265FFA89F93746991B8945BFF63CAFCA
:1056400049464C4608E0D8F800300134E4B29A1BD1
:1056500094422146BFF62EAF01F1FF3A05EB0A1A3C
:1056600005EB011B5046594636F062FB0028EAD094
:10567000594606A836F084FA5146584636F080FA64
:1056800006A9504636F07CFADDE7BAF1000F4FD09C
:105690000023CDF804A01E46D8F800305C1C02E0C0
:1056A000D8F800300134019A1344E4B29B1B9C42A9
:1056B00036DA04F1FF3905EB09192E21484636F098
:1056C000CFFB00220346494612A836F0FDFB12A884
:1056D00036F064FC05EB041A834612A836F08CF908
:1056E0002E21504636F0BCFB51460346002212A83C
:1056F00036F0EAFB12A836F051FC074612A836F045
:105700007BF9BB45CCD9514606A836F039FA494653
:10571000504636F035FA06A9484636F031FABFE76A
:105720000136019AF3B29A42B6D81A4B1B689246D8
:10573000CAEB0303002B7FF711AF00263746D8F8DA
:105740000040029B013454449E1BE4B2B44205DB8A
:10575000FAE60134E4B2B442BFF6F6AE04F1FF3922
:1057600005EB091905EB041B4846594636F0E0FAEB
:105770000028EED0594606A836F002FA49465846A7
:1057800036F0FEF906A9484636F0FAF9E1E700BF1F
:10579000504FFF1FF44EFF1F2C4FFF1F394606A826
:1057A00036F0EEF94946384636F0EAF906A9484699
:1057B00036F0E6F90BE6002301930022D8F800301A
:1057C00005922CE738B50848084C30F0E9F804F5A4
:1057D000805520460649103436F0E2F9AC42F8D143
:1057E000044B00221A7038BD687EFF1F504FFF1F08
:1057F000C8960400184FFF1F38B5054C04F58055B6
:1058000020460449103436F0CBF9AC42F8D138BD0B
:10581000504FFF1FC896040038B504460D4600F0EF
:105820000DF8054B187800B938BD29462046BDE86B
:105830003840FFF775BC00BF184FFF1F10B51B2085
:1058400088B0154C37F0FCFA2378984209D083F0E1
:10585000010323703BB11821104830F075F830B9BE
:10586000207008B010BDFFF7ADFF08B010BD68464E
:105870000B4936F001F904A80A4936F0FDF804A9ED
:105880006846FFF7C9FF04A836F0B6F8684636F058
:10589000B3F808B010BD00BF184FFF1F687EFF1F90
:1058A000ACAB0400C896040008B50121182037F0FD
:1058B000D5FA00211B2037F0D1FA0121182037F04A
:1058C000B9FABDE80840FFF7B9BF00BF08B5FFF758
:1058D000B5FF014B187808BD184FFF1FF0B589B010
:1058E00005460C461746FFF7A9FF294B1B78002BEE
:1058F0002FD02968274E2848002908BF314630F0AC
:1059000043F9012C3BD0172C26D02A682148224984
:105910002346002A08BF0246684630F0C1F808AAAC
:105920001E48029B12F8144D9DF804108360047306
:10593000017100F10D031A3012F8011F03F8011B69
:105940008342164CF8D1079BE36120462FF03AFFC3
:1059500070B9002009B0F0BD0028D6D0002FD4D0F7
:1059600029680D48002908BF314630F029F9CCE7F5
:1059700020462FF027FF28B9084809B0F0BD0028BD
:10598000C3D1E6E720462FF0F1FE0028E1D1F3E78E
:10599000184FFF1FC2620500687EFF1F304FFF1FB8
:1059A0000168034B0348002908BF194630F0FAB8D4
:1059B000C2620500687EFF1F0A4A0B4B12681B6813
:1059C0001344994210B5044604DB084936F054F8F4
:1059D000204610BD064B03EB011136F061F820465E
:1059E00010BD00BF2C4FFF1FF44EFF1FC8960400D0
:1059F000504FFF1F10B50349044636F051F82046BA
:105A000010BD00BF1C4FFF1F30B51B4989B00546B4
:105A10001A4836F077F940BB0446174904A836F017
:105A20002BF804A9154836F049FA224603461349D3
:105A3000684636F049FA04A835F0DEFF04A80E499E
:105A400036F01AF804A9684636F038FA22460346BA
:105A50006946284636F038FA04A835F0CDFF684686
:105A600035F0CAFF284609B030BD0449284636F053
:105A700017F8284609B030BDACAB04001C4FFF1F1F
:105A800008B50449044836F03DF9003018BF01203C
:105A900008BD00BFACAB04001C4FFF1F014B1868D2
:105AA000704700BF2C4FFF1F014B1868704700BFA5
:105AB000F44EFF1F024A034B10681B6818447047DE
:105AC0002C4FFF1FF44EFF1F0168034B03480029B2
:105AD00008BF194630F058B8C2620500687EFF1F43
