:1000000000000320D10100003DA50200F5A402007C
:10001000F5A40200F5A40200F5A40200F5A4020074
:10002000F5A40200F5A40200F5A402003DA502001B
:100030003DA50200F5A40200F9930200FD93020021
:100040003DA502003DA502003DA502003DA5020020
:100050003DA502003DA502003DA502003DA5020010
:100060003DA502003DA502003DA502003DA5020000
:100070003DA502003DA502003DA502003DA50200F0
:100080003DA502003DA502003DA502003DA50200E0
:100090003DA502003DA502003DA502003DA50200D0
:1000A0003DA502003DA502003DA502003DA50200C0
:1000B0003DA502003DA502003DA5020075B6020067
:1000C0003DA502003DA502003DA502003DA50200A0
:1000D0003DA502003DA502003DA502003DA5020090
:1000E0003DA502003DA502003DA502003DA5020080
:1000F0003DA502003DA502003DA502003DA5020070
:10010000E1CD0200F5CD020009CE02001DCE0200B5
:100110003DA50200BDB902003DA502003DA50200BB
:100120003DA502003DA502003DA502003DA502003F
:100130003DA502003DA502003DA502003DA502002F
:100140003DA502003DA502003DA502003DA502001F
:100150003DA502003DA502003DA502003DA502000F
:100160003DA502003DA502003DA502003DA50200FF
:100170003DA502003DA502003DA502003DA50200EF
:100180003DA502003DA502003DA502003DA50200DF
:100190003DA502003DA502003DA502003DA50200CF
:1001A0003DA502003DA502003DA502003DA50200BF
:1001B0003DA502003DA502003DA502003DA50200AF
:1001C0003DA502003DA502003DA502003DA502009F
:1001D0005C4B4CF2205210B51A804DF628121A8052
:1001E00000BF00BF2AF0AEF9574B4FF030621A60E3
:1001F000564A9A60564ADA60564B4FF470021A60BB
:10020000554B564A1A60564B1A78110703D51A787F
:1002100042F008021A70534B5349AA221A70534AEB
:10022000534B8B4204D252F8040F43F8040BF8E707
:10023000504B514900228B4202D243F8042BFAE77B
:100240004E494F4A002352F8230041F8230001335E
:10025000742BF8D14B4B4C4A802103F8011B93427D
:10026000FBD14A4B454A1A60494B8A221A70A3F5C2
:10027000805324225A70A0221A709A799207FCD5D2
:100280009A79D406FCD4434A937903F00C03082BE3
:10029000FAD1414B60221A7002331A78802AFCD1BD
:1002A0003C4B01221A715D225A719A799006FCD555
:1002B0009979384A4906FBD5384B394919600021EC
:1002C000596020231370937903F00C030C2BFAD19F
:1002D000344B354A1A60354A354C136813F4807331
:1002E00003D123604FF4A8531360324B324A1A6093
:1002F00000225A60072243F8042C304AC3F80C2D20
:1003000062B62AF0F3FC2368DA0705D52C482AF0F8
:10031000A9FA2C4B2C4A1A602C4B1B785B0609D58A
:10032000284C294B22689A4204D125482AF09AFA8F
:10033000002323602AF00CF92FF02EF829F0FEFF9D
:10034000FEE700BF0E20054030800440823F0400DD
:100350000100002B88ED00E0002008E0030000858C
:1003600002D0074000E00740E026FF1FA81004006D
:10037000400CFF1FE026FF1F7089FF1F0002FF1FB8
:100380000000000000E400E064E400E008ED00E0AC
:10039000005006400040064001E007404480044011
:1003A0000000060204800440C010070010D0034083
:1003B00014D0034014E000E01FBF02000000202022
:1003C0003F8C66631CE00340A5C3945A00F00740CD
:1003D000FFFFFFFFFFFFFFFFFFFFFFFFFFFFFFFF2D
:1003E000FFFFFFFFFFFFFFFFFFFFFFFFFFFFFFFF1D
:1003F000FFFFFFFFFFFFFFFFFFFFFFFFFFFFFFFF0D
:10040000FFFFFFFFFFFFFFFFFFFFFFFFDEF9FFFF23
:1004100010B5054C237833B9044B13B10448AFF33E
:1004200000800123237010BDE026FF1F00000000A4
:10043000A4100400084B10B51BB108490848AFF3DD
:1004400000800848036803B910BD074B002BFBD0A0
:10045000BDE81040184700BF00000000E426FF1F61
:10046000A4100400E026FF1F000000002DE9F04169
:100470000D4C07460E4620460C4990461D4624F07A
:100480003DF92046012124F031F9ABB24146204626
:10049000E781A3826382268229F056F82046044928
:1004A000BDE8F04124F02AB9D480FF1FBC1A030034
:1004B0009C1303002DE9F84F244CDDF828B00546C5
:1004C0000F462046224990461E461FFA87F924F01F
:1004D00015F92046012124F009F90FFA85FA09F1EE
:1004E000FF321FFA8BF34146ADB2204622823FB263
:1004F000A3826382A4F80EA029F026F86B1C414663
:100500002046E381278209F1010929F01DF84146BF
:100510002046A4F81090A4F80EA0013D29F014F88C
:1005200041462046E581278229F00EF8B3B24146C4
:100530002046A4F80EA02782A382638229F004F843
:1005400020460449BDE8F84F24F0D8B8D480FF1FF6
:10055000BC1A03009C13030070B586B004AA0023E4
:100560000DF1160605AD0DF1120401468DE874007B
:1005700003481A4624F00AFABDF8140006B070BD0C
:10058000D480FF1F08B50021092020F015F900B91B
:1005900008BD022240F6AC510520BDE8084029F014
:1005A000B1B800BF08B50021092020F005F900B955
:1005B00008BD022240F6B8310520BDE8084029F008
:1005C000A1B800BF08B50021092020F0F5F800B956
:1005D00008BD02224FF4FA610520BDE8084029F069
:1005E00091B800BF10B500210446092020F0E4F8BE
:1005F00060B1002C41F204014FF0020208BF4FF439
:100600007A610520BDE8104029F07CB810BD00BF1C
:1006100010B500210446092020F0CEF860B141F267
:10062000941141F23013002C08BF19460222052014
:10063000BDE8104029F066B810BD00BF10B582B00B
:100640001BB2BDF810400093019413B20AB201B27C
:10065000024824F015FA02B010BD00BFD480FF1F7D
:100660002DE9F04F85B0002502900391AB46AA46D4
:100670002F462C462B46A946AAB2D1075CD4520875
:100680002F4911F802904FEA1912002B31D12D4851
:1006900002F007011207415C2B4830F821B025D445
:1006A000012423463B44BE2B2BDCBDF80880BDF85B
:1006B0000C60B9B21F4606EB0A024144234612B24F
:1006C00009B2CDF800B0214824F0CCFABE2F03BF08
:1006D00000270AF1010A3B460023013540F6C242D9
:1006E0009542C9D105B0BDE8F08F14010133DBB2EA
:1006F000F3E7012BF9D01444E4B223463B44BE2B6C
:10070000D3DDBDF80880BDF80C60CDF800B0BBB2F9
:10071000423708EB030106EB0A023C44C3F1BE0377
:1007200009B21BB212B20948E4B224F09BFA0AF1F2
:10073000010A27460021BEE709F00F02A5E700BF26
:100740005C440300F413030054170300D480FF1F1C
:100750002DE9F04F89B00646149CDDF84CE0029478
:10076000159C0394BEF1010F169C9DF848A00694B9
:100770000F4600F0818089B29CB283B2084603F133
:1007800001080493034601331BB295B20591A11EE3
:1007900018461FFA8EF209B20FFA88F80793AB1EBB
:1007A0008DE806001BB2024641463A4824F068F93B
:1007B000013DADB236B23FB20FFA85F9BAF1000F82
:1007C0003ED0013CBDF80CA0CDF800A0A4B24B4631
:1007D0003A4631462F480FFA84FB24F043FACDF80D
:1007E00000A05B463A4631462A4824F0EFF9059BC3
:1007F000BDF808A01C4424B24B4641462246CDF821
:1008000000A0244824F02EFA049BBDF81880079A13
:10081000CDF800A01D442DB25B4629461D4824F0AA
:10082000D5F93A46294643461A4824F0F9FE1948B4
:1008300043462246314609B0BDE8F04F24F0F0BEF1
:10084000013CBDF808A0CDF800A0A4B24B463A4642
:10085000314610480FFA84FB24F004FACDF800A0CA
:100860005B463A4631460B4824F0B0F9059BBDF88B
:100870000CA023441C46BEE781B2B8B201F10108C6
:100880000491411C9CB20BB2059095B20FFA88F806
:1008900007938DE7D480FF1F70B586B048F21043F0
:1008A00044F208264FF6FF75012404930193039642
:1008B000029500940223FFF74BFF06B070BD00BF06
:1008C0002DE9F04F8BB00546169E9DF85C400794CD
:1008D000012E0C461746069309D0B2B21BB2019204
:1008E00000930AB23BB201B2474824F0C9F8159B05
:1008F0009E426DD0454B149A9A4269D0E9194B1E1D
:1009000048BF8B1DDA10424B002D03EA0503284631
:10091000B8BFE81D002BA2EBE00B66DB3C4AFF20D2
:100920000A401841C1B2002A089163DB4FF47F41AD
:10093000EB1A41FA02F20493D3B20993069B002BFF
:1009400046DD002302940593079B002B43D0304BD8
:10095000059A1340002B43DB149ABBF1000FD35CC4
:10096000039328DB089EBDF854A04FF00008D8453B
:1009700045D0049BBDF9089003EBC807039BBFB2A9
:100980001E400024802502E00134082C0DD03542A1
:100990004FEA5505F8D0391909B253464A461A4864
:1009A000013424F03DFE082CF1D108F10108C345C3
:1009B0004FF0FF06DBDA059B01331C4605930EF072
:1009C00075FD029B01330293069B1A46A242BBD1DE
:1009D0000BB0BDE8F08F0E4B029A1340002BBBDA30
:1009E000013B63F007030133B6E7013B63F0070304
:1009F000013393E7013A62F00702013296E7099B5F
:100A0000002BB6D01E40B4E7D480FF1FE0100300D7
:100A1000070000802DE9F04F89B08A46129C0693AA
:100A2000E31D0393139BCDF81CA00027DDF850B005
:100A3000169E464DDDF854A0049004F1FF3905924E
:100A40005C1E3946BC4619F8018F14F801EFA5F178
:100A50002003802206E0C1B21E600433AB424FEA9D
:100A6000520212D01EEA020F01F10100F3D118EA7E
:100A7000020F0CF1010052D0C3F800A00433AB42C6
:100A80005FFA80FC4FEA5202ECD103F12005039B90
:100A90009945D8D1BC45DDF81CA052D98C4552D21D
:100AA0000699059D049C2A480BB200930B46B2B2EE
:100AB000534401929B460FFA8AF22BB221B223F0E3
:100AC000DFFFDA4535DA29462144DFF88C90CDF88E
:100AD0000CB00F46A346BB4526DA1E4D0AEA0505B3
:100AE000002D29DBED005C460FFA8AF809E02B4463
:100AF00059F823309E429BB201D024F091FDBC42B4
:100B000012D0144B12482340002B21B2424604F16C
:100B10000104ECDA013B63F007030133E7E7013737
:100B2000FFB2C3F800B098E7039B0AF1010A9A45A7
:100B3000D1D109B0BDE8F08F013D65F00705013561
:100B4000D0E75E46ACE7FCD9159EA9E71C27FF1F3E
:100B5000D480FF1F07000080FC26FF1F2DE9F04F07
:100B600087B01478049201909DF8402003914FEAD9
:100B7000530A002C43D1002A3ED0531EDBB201336E
:100B80001FFA80FB0593DFF8449102940BF10103F7
:100B900001940093BAF1000F25D0019B039A9F188E
:100BA000049B029A3FB203EB0208002618F8015F8B
:100BB00045487400A4B22B1104EB0B0109B239F8BB
:100BC00023303A4624F02CFD009B3F4805F00F05EA
:100BD000E118013639F8253009B23A4624F020FDF3
:100BE000F3B29A45E2D8029A019B52440292059AC6
:100BF000013393420193CDD107B0BDE8F08F012CB2
:100C0000FAD1D90812FB01F10131002AF4D0531EA8
:100C10004FF0000BDBB20133A0465D465C46CDF8D9
:100C200000B0DDF810B005930291BAF1000F1ED0AC
:100C3000039B009A13441BB20493029B00260BEB08
:100C400003071DB91BF8084008F10108220617F830
:100C5000019B2AD46400E4B2230614D40136F3B213
:100C6000640002359A45E4B205F00705E9D8029A16
:100C7000009B52440292059A013393420093D4D1CF
:100C800007B0BDE8F08F019B039A0F48591C009BE9
:100C900009F00F099A180D4B01EB460133F8293082
:100CA00009B212B224F0BCFCD8E7019A064802EB64
:100CB00046014FEA2913054A09B232F82330049A53
:100CC00024F0AEFCC6E700BFD480FF1F541703001A
:100CD0002DE9F04F8FB015789DF860609DF8644065
:100CE000002D7CD1002C7AD01F460493631EDBB20A
:100CF0000D917108924609914A1E591CC7F307339A
:100D0000D2B20393C7F303130A910593511C07F062
:100D10000F03C7F303220C90AB460B910795089283
:100D20000693CDF800A0099B002B50D0079B0D9A8D
:100D3000BDF830900B99DFF8B0809F18009A1346E9
:100D40005B4401EB0B0AA9F102010193029109F145
:100D5000FF393FB21E46924428E0069A059999420F
:100D600008BF1346039AAA422FD0069A0599A942B2
:100D700008BF1546009A1B4838F82330B4B2CBEBB5
:100D80000401891A029A02EB410109B23A4624F0A1
:100D900047FC019B1348E11A09EB410109B238F8FD
:100DA00025303A4624F03CFC564510D016F8015F39
:100DB000049A2B0905F00F05002ADBD0039A9A420A
:100DC000CBD1039A089BAA42CFD1089DD2E7099ABA
:100DD000079B93440A9A013393420793A3D10FB020
:100DE000BDE8F08FD480FF1F541703002DE9F04FAA
:100DF0008BB0804609910B20002192461C461FF0C3
:100E0000DBFC002106460C201FF0D6FC0021074623
:100E10000D201FF0D1FC002181460E201FF0CCFCDC
:100E2000002183460F201FF0C7FC354D354B55F888
:100E3000292053F8200053F82B1055F8273055F887
:100E400026500190002600910492039352462346B7
:100E50000999029540460596FFF7DCFD31461020C2
:100E60001FF0AAFC012802D00BB0BDE8F08F099B4F
:100E7000DFF898B04FF0BA09234408933546374657
:100E8000CDF8189009F14603DBB20793069A089B48
:100E90009342E9DDCDF818906B2412E02B466D08E3
:100EA0001F420BD0A04508EB0A0307DC9C4205DA81
:100EB000099B4B4502DC089B4B4518DC0134EB2CAD
:100EC00009D0A4F16B035A07E8D11BF8067040253E
:100ED00001368023E4E7079B1B0705D009F10109D0
:100EE000B9F59B7FCED1BFE70EF0E0FAF6E700231D
:100EF0000FFA89F221B2044824F092FBDEE700BF2A
:100F000054170300E0520300D480FF1FC04A0300BF
:100F10002DE9F04F85B004461F4600201BB2009318
:100F200001900DF140090F98039099E8000E0D46CD
:100F3000164613B20C489DF838800AB221B222F04E
:100F400071FF03980F90BB1EB21E691C601CCDF888
:100F500048B0CDF844A0CDF84090CDF8388005B029
:100F6000BDE8F04FFFF7F4BBD480FF1FF0B58DB0A4
:100F700044F208269DF84C4000944FF6FF7548F265
:100F800010440494019403960295144606460D46B7
:100F9000FFF7BEFF129908A828F0EEFC0DF11E0322
:100FA0000DF11A0006AA039307AF002308A90190C8
:100FB000009202971A46124823F0E8FCBDF81C2064
:100FC000A21A02EBD2725210032A0D4CCCBF92B27D
:100FD000042232440335E28108A8258228F078FCF7
:100FE0000023A38263822046012123F07FFB129914
:100FF000204628F0A9FA204628F0CCFA0DB0F0BD22
:10100000D480FF1F2DE9F0432DED028B89B0F0EE67
:10101000408A9DF84C709DF84890B0EE608A054675
:10102000884614461E46002F70D1231F07EE103A43
:10103000B8EEC77AB4EEE88AC7EE087AF1EE10FA95
:10104000D4BFF0EE480AF0EE680A9FED3C7AF5EE68
:10105000400AF1EE10FAF4EEC78A98BFF0EE470AA4
:10106000F1EE10FA27EEA08A1EDD44F20823B9F152
:10107000000F48F21041FDEEC87A18BF184644F23E
:10108000FF7212BF4FF482630A46002000218DE8F0
:101090000A0002920390049317EE902A331F08F17E
:1010A0000201A81CFFF754FB27B109B0BDEC028B6D
:1010B000BDE8F08307EE904AAB1C00EE903AF8EEE4
:1010C000E77AF8EEE00A77EEC87AB1EE007A70EED1
:1010D000880A77EEC77ABDEEE07AFDEEE77A8DED0D
:1010E000077ACDED067A08F10202043EBDF91C1024
:1010F000BDF918301248139736B212B2129609B0E1
:10110000BDEC028BBDE8F04323F0BABC48F2104EB0
:1011100044F2082CCDF810E04FF6FF7ECDF80CC05D
:10112000CDF808E04FF0000C4FF0010ECDF804C0F0
:10113000CDF800E0FFF7ECFE77E700BF000000000D
:10114000D480FF1F2DE9F04F8BB09846DFF8CCA17B
:101150009DF85C30089300240FFA88F381460E4610
:1011600015460093019413B20AB201B2504622F020
:1011700059FE1FFA89FBB2B2A8F10200099200B22F
:101180004FF482670BF101010132AB1E09B212B2BA
:1011900000901BB25046019709EB0507079723F013
:1011A0006FFC01220292F71C5B4A079800923946B5
:1011B0004346032203940194FFF782FB012202922B
:1011C00009F10309544A0092032303940194484609
:1011D0002A4606EB0801FFF773FB089B002B71D032
:1011E00044F28F231022049301934FF6FF7300946F
:1011F00003920293A5F112020D2339464846FFF7E8
:1012000087FE5046012123F071FA099B14990BF1D6
:1012100008024FF0FF3E0633AAF814E0AAF812E0E5
:10122000AAF80E20AAF81030504628F08DF9504642
:1012300028F0B0F90094079C48F2104A0D2344F2BC
:10124000082B4FF6FF72029239461A46A4F110009D
:10125000CDF810A0CDF804A0CDF80CB0FFF758FEE3
:101260004FF6FF714FF608220723029101210091EA
:101270000192CDF810A0CDF80CB0A4F10D001A46E3
:10128000B11DFFF765FA159BCBB1A3F10203B3FAC9
:1012900083F35B0948F2104E44F208274FF6FF74BF
:1012A0000093169B0193AA1FA8F1150306F11201E2
:1012B0004846CDF810E003970294FFF729FE0BB0E3
:1012C000BDE8F08F4FF6FF740899009144F28F2328
:1012D000102239460493019303920D23AA1F484616
:1012E0000294FFF715FE5046012123F0FFF9099BF8
:1012F0001499AAF814400BF1080206335046AAF8D4
:101300001240AAF80E20AAF8103028F01DF9504615
:1013100028F040F9B7E700BFD8520300D480FF1F80
:101320002DE9F04F00210C4697B05348DFF858B133
:10133000DFF858A122F07AFCA0462546A1462646B1
:1013400023462746A2B2D10700F1938052081BF82A
:1013500002703A09002B6ED102F007014748415C48
:1013600012073AF8219063D4012633462B44E02B30
:1013700069DC05F1080109B21D4608F11A0233467D
:10138000CDF8009012B23C4823F06CFCE02D03BF76
:10139000002508F101082B460023013445F21032E4
:1013A0009442CFD106A8364928F0D2FA0A2202A8E0
:1013B000012128F013FB02A906A828F0D5FB31492A
:1013C00028F0DAFB0A22044600210AA828F006FBCE
:1013D0000AA9204628F0C8FB2A4928F0CDFB0A229A
:1013E000044601210EA828F0F9FA0EA9204628F09B
:1013F000BBFB014612A828F0BFFA12AA44F2082348
:101400004FF49D710020FFF731F812A828F060FA20
:101410000EA828F05DFA0AA828F05AFA02A828F0C7
:1014200057FA06A828F054FA17B0BDE8F08F160155
:101430000133DBB2B1E7012BF9D01644F6B23346E3
:101440002B44E02B95DDA9B22035C1F1E00308F172
:101450001A022E44083109B2CDF800901BB212B224
:101460000548F6B223F0FEFB08F1010835460821D5
:1014700083E707F00F026DE7D480FF1FDC13030042
:10148000CC130300689C0300D41A03005417030014
:101490002DE9F04F8FB01E46069007911846584927
:1014A000144628F09BFB10B10FB0BDE8F08FDFF8B9
:1014B00054B105460121584623F018F9BDF86430AF
:1014C000ABF8143031460AA8ABF812300DF1260AF9
:1014D00028F052FA0DF124090DF1220308AF0AA9F0
:1014E000584601932A462B46CDF80CA0CDF808901B
:1014F000009723F04BFABDF8243005930AA828F092
:10150000E7F9059B9C4216DB189A012A69D0022A4A
:101510005ED1E41A069B002CA8BF1B19ABF80E3055
:10152000BDF81C30ABF810303146364828F00CF8C6
:101530000FB0BDE8F08FA31F05932C4622E028F0E2
:1015400091FB01780AA828F05DFA00230DF1220230
:101550000AA901922B48CDF80CA01A46CDF80890A4
:10156000009723F013FABDF824800AA828F0B0F9F8
:101570005FFA88F30599EA188A4203F101030ADA4F
:101580001D4401342146304628F06CFB0378214687
:101590003046002BD3D1BDF81830ABF80E30BDF873
:1015A0001C30ABF81030002554B12946304628F0E5
:1015B00059FB01350178134822F0FAFFAC42F4D10F
:1015C000012211490F4827F0A9FF0FB0BDE8F08FA5
:1015D000BDF81830ABF80E30BDF81C30ABF8103049
:1015E000A2E7E41A04EBD474069A6310002BA8BF98
:1015F000D218BDF81C30ABF80E20ABF8103093E7D2
:10160000546F0300D480FF1FD81303002DE9F04F5F
:10161000ADF51D7D0023838005900E4617461946C3
:101620000DF276200DF11E0323F8061C23F8041C8E
:1016300023F8021C06339842F6D1002158481DF0C9
:1016400003FCA6F10F02A7F10F0344F28F2912B297
:101650001BB2049236B203933FB2CA4648F2104816
:101660004FF01E0B1E23039A04994E48CDF80480B8
:10167000CDF800B023F004FA102300933A46052376
:101680003146484822F0CEFD012145481DF0DCFBE3
:101690000F2425B22B463A4631464248CDF800A0E9
:1016A00022F02AFC322029F0CFFA2B463A46314666
:1016B0003C48CDF8008022F01FFC39481DF0E6FAC6
:1016C000013CA4B208B1052CE3D135481DF0DEFA87
:1016D0000028C7D00025002000212C460BE0642DF7
:1016E000C3F3C70035D02DF099FA41EC100B2BF065
:1016F000DBFC51EC100B00222B4B2DF043F92DF0AD
:10170000A3FD0FFA80FB3A465B4631462548CDF8EB
:10171000009022F0F1FB06AB05EB450003EB400027
:101720001F4925F09BFE0A2029F08EFA5B463A46B7
:1017300031461C48CDF8008022F0DEFB18481DF031
:10174000A5FA0134194BE4B2A3FB042301350028A8
:10175000C5D1632C84D94FF480633A463146009357
:101760001048052322F05EFD002206AB11469CAD19
:10177000B3F90040B3F9020006339D42214402440C
:10178000F6D10B4BA3FB01010598A3FB02235B09D8
:101790004A09028043800DF51D7DBDE8F08F00BF32
:1017A0008881FF1FD480FF1F00001840CDCCCCCC17
:1017B0001F85EB512DE9F04FA1B003AB089304ABAB
:1017C0000993DFF82C9301AB1CAC079348F210414E
:1017D000BA480025012622F029FAB949204628F006
:1017E000B7F82346F0224221284601950096FFF7DC
:1017F0004FFE204628F06CF8B249204628F0A8F8A1
:101800002346F0224A21284601950096FFF740FE24
:10181000204628F05DF8AC49204628F099F8234688
:10182000F0223221284601950096FFF731FE20462E
:1018300028F04EF80F2211460EA8FFF7E7FE082306
:1018400048F2104201922946322200939B48F0232D
:1018500023F016F99D49204628F07AF82346F02215
:101860003221284601950096FFF712FE204628F007
:101870002FF84FF49872E02110A8FFF7C7FE10ABC5
:1018800093E80300089B1860099B19800EAB93E84E
:101890000300079B1860079B8D4899800F224FF427
:1018A00098771146E02300971DF0FEFA29468848F4
:1018B0001DF0CAFA8749204628F04AF82346F0224C
:1018C0006421284601950096FFF7E2FD204627F0A7
:1018D000FFFF8149204628F03BF82346F0226C2187
:1018E000284601950096FFF7D3FD204627F0F0FF2C
:1018F0007A49204628F02CF82346F0227421284605
:1019000001950096FFF7C4FD204627F0E1FF7449DA
:10191000204628F01DF82346F0227C212846019518
:101920000096FFF7B5FD204627F0D2FF4FF6FF7374
:1019300044F2082248F21041049103920293C82213
:1019400001939621642314200096FFF7E1FA65497C
:10195000204627F0FDFF0D234022FE219C208DE82C
:101960003000FFF703FB204627F0B2FFD9F8003024
:101970000B93DDF82C80AA461E2755481DF092F9DE
:10198000534912A81DF076F95148BDF948B0BDF988
:101990004A601DF06DF901287AD075D3032834D13F
:1019A000BAF1000F00F0D280002D00F0D180ABF131
:1019B00016039BB2C32B28D8A6F198039BB25F2BCA
:1019C00023D84FF4004300962A46514601933B48E2
:1019D0005B4622F0D7F93546DA460026D9F80030C2
:1019E0000C930C9BDFF808B1C8EB0303B3F57A7FC7
:1019F0000DD2002EC1D00022012108201EF0FCFED5
:101A00001EF01CFE21B0BDE8F08F0026E6E708239B
:101A100048F21042019200937C22F02300212748D3
:101A2000013F23F02DF8FFB22F4918A827F090FFAF
:101A3000394614A827F0BEFF14A918A828F094F876
:101A40002A4928F099F80146204627F095FF002002
:101A50000123F0227C21019000932346FFF718FD1B
:101A6000204627F035FF14A827F032FF18A827F0EA
:101A70002FFFDBF800300D93DDF83480002EBAD153
:101A8000002F7FF47AAFA1E60025AA462E46A5E7EF
:101A90001FFA8BF3A3F11602C32A2BD8A6F19802E2
:101AA00092B25F2A26D832464FF400435946034883
:101AB0003546DA4623F0B4FD00268FE7D480FF1FB9
:101AC0006053030084530300A0530300C05303007A
:101AD0008881FF1FE0530300045403002C540300CB
:101AE000505403006454030068540300B8D1030049
:101AF000C485FF1F9C3B352B87D8FE3EB6B20C2E0B
:101B000083D814492046012627F022FF0D234022C6
:101B1000FE218DE850009C20FFF728FA204627F090
:101B2000D7FE00210C481DF08FF90A49204627F006
:101B30000FFF0023019300940D234022FE219C20DF
:101B4000FFF714FA204627F0C3FE47E7564645E75D
:101B50002E4643E7645403008881FF1F08B5012126
:101B60000F2029F047F80121102029F043F8012126
:101B7000112029F03FF800210F2029F027F800213B
:101B8000102029F023F800211120BDE8084029F099
:101B90001DB800BF10B500F0010104460F2029F068
:101BA00015F804F00201102029F010F804F00401E7
:101BB000112029F00BF80E20BDE8104028F072BA71
:101BC00070B50646FFF7E6FF154B05460021985D08
:101BD0001EF0FEFD134B04460021985D1EF0F8FD3B
:101BE0002D1B001B07EE900A07EE105AF8EEE77A5D
:101BF000B8EEC77AB7EE000AC7EE276AF4EEC06AFD
:101C0000F1EE10FA00D470BDF5EEC06ADFED067A91
:101C1000F1EE10FA8CBFB0EE660AB0EE670A70BD46
:101C2000380DFF1F400DFF1F0000000008B52DED0F
:101C3000028B08EE101AFFF7C3FFB8EEC88AB7EEA2
:101C4000007AC7EE087ABDEC028B80EE270AFDEE23
:101C5000C07A17EE900A08BD10B50C46FFF7B0FF2A
:101C6000F6EE007AB4EEE70AF1EE10FAACBF01200E
:101C700000200CB180F0010010BD00BF0A4B10B471
:101C8000002203F1480401201A7058709A709A607B
:101C9000DA701A710C33A3424FF00001F4D1034BF8
:101CA00019705DF8044B7047480DFF1FFC27FF1F9C
:101CB000FFF7E4BF084900EB400080000B1810B4A8
:101CC000002201240A545C709A70DA701A719A60CA
:101CD0005DF8044B704700BF480DFF1F2DE9F04130
:101CE0008A4C8B4D237803EB43029200A918AA5C1F
:101CF000012A0ED0022A3DD0864A013382FB03120C
:101D0000A2EBE37202EB4202A3EB42022270BDE8B7
:101D1000F0814A78013A1846062AEDD8DFE802F049
:101D2000221A1A1A1A041A000821FFF77FFF062840
:101D3000064637DC26EAE676237803EB430205EB1A
:101D4000820292689642D7D05A001A4405EB82026A
:101D50009660D1E71021FFF769FF0E280646E9DDFE
:101D60000F26E9E74021FFF761FF3E280646E1DD47
:101D70003F26E1E7C978184601F00101FFF76CFF43
:101D800023785A00D11805EB81010028497801F128
:101D9000FF310CBF0026FF26032971D8DFE801F0D0
:101DA000532E16040726C7E7D11805EB8101584FBB
:101DB00089688E42A0D0FF2EC7D104F0A7F92378FE
:101DC00003EB430207EB8207BA68BBE7D11805EBC8
:101DD00081014F4F886886428ED0C978890754D5D3
:101DE000FF2EB2D104F00CFB00287FD004F048F99C
:101DF00023780C2202FB0377BA68A3E700211120A5
:101E00001EF0DAFC012897D104F0FAFA002893D0EA
:101E10002378DFF8F8803E4F5A00D11805EB810196
:101E2000886886423FF468AFFF2E8ED1CB78980742
:101E300051D504F0E1F998F8003003EB430207EBC9
:101E40008207BA687EE71A4405EB8202304F916838
:101E50008E423FF451AF9178FF2EA1F15D01C9B2DE
:101E60004FF001034FF07F024FF0090019D000F04E
:101E7000E9FB237803EB430207EB8207BA6861E7CB
:101E80001A4405EB820292685CE704F0B9FA88B163
:101E900004F0F6F8237803EB430207EB8207BA68F5
:101EA00050E700F0FDFB237803EB430207EB8207CA
:101EB000BA6847E7237803EB430307EB8303D8783B
:101EC000C0F3800004F05CF9237803EB430207EBD6
:101ED0008207BA6836E704F07BFA074601E004F0AF
:101EE0008BF904F075FA8742F9D025E723784FF093
:101EF0000C0808FB0373D878C0F3800004F040F9A5
:101F0000237808FB0377BA681CE700BFFC27FF1F94
:101F1000480DFF1FABAAAA2A024B00EB400003EBBF
:101F200080007047480DFF1F044B00EB400013F882
:101F30002000003018BF0120704700BF480DFF1F70
:101F40000E4930B4002201F580654FF07E54012027
:101F500001F83C2C01F83B2CA1F13C031A715A7199
:101F60009A601A731C6103F8140F8B42F6D103F1C7
:101F70004001A942ECD130BC704700BFCC0DFF1F1F
:101F80000C49820110B400238C188B543C326370CE
:101F90000A44204601214FF07E540371437183604F
:101FA0000373046100F8141F9042F6D15DF8044BEE
:101FB000704700BF900DFF1F0F289ABF024B03EB25
:101FC00080100020704700BF900DFF1F014B800163
:101FD000185C7047900DFF1F8001014B195470472A
:101FE000900DFF1F024B03EB80104170704700BF44
:101FF000900DFF1F024B03EB80104078704700BF2D
:10200000900DFF1F8001044B01EB810100EB81016A
:1020100019440879704700BF900DFF1F8001044BE1
:1020200001EB810100EB810119444879704700BF41
:10203000900DFF1F8001044B01EB810100EB81013A
:1020400019448868704700BF900DFF1F8001044B42
:1020500001EB810100EB81011944087B704700BF4F
:10206000900DFF1F8001044B01EB810100EB81010A
:10207000194491ED040A7047900DFF1F8001044B35
:1020800001EB810100EB81011944087D704700BF1D
:10209000900DFF1F0A4B30B4002203F580651978BC
:1020A000D4B2013211B15978814205D04033AB42EC
:1020B000F5D1FF2030BC7047204630BC704700BFD0
:1020C000900DFF1F01EB81018001034B00EB8101AB
:1020D00019440A71704700BF900DFF1F01EB810189
:1020E0008001034B00EB810119444A71704700BF26
:1020F000900DFF1F01EB81018001034B00EB81017B
:1021000019448A60704700BF900DFF1F01EB8101E9
:102110008001034B00EB810119440A73704700BF33
:10212000900DFF1F07EE902A9FED077A074BF8EE00
:10213000E76A01EB8101C6EE877A800100EB81013D
:102140001944C1ED047A70470000FE42900DFF1F54
:1021500001EB81018001034B00EB810119440A75F9
:10216000704700BF900DFF1F014B1878704700BFEC
:10217000FD27FF1F014B1878704700BFFE27FF1F88
:10218000014B1870704700BFFD27FF1F014B1870EF
:10219000704700BFFE27FF1F30B5094D094C2B6863
:1021A000226883B00093009B9B1AB3F5FA7F05D396
:1021B0000DF070F92B680193019B236003B030BDD3
:1021C000C485FF1F1028FF1F0246034B002153F850
:1021D000200043F8221070470428FF1F0346024ADC
:1021E0000021105CD15470470028FF1F064A137865
:1021F0000F2B07D810B4591C044C117044F823005D
:102200005DF8044B704700BFFF27FF1F1428FF1F16
:1022100070B51B4E1B4D337855F82320824222D0D7
:10222000FF2B044603D0104600211EF0A3FD164BE1
:10223000134A1878FF23337068B12B689C421CD076
:10224000104A002303E052F8041F8C420CD00133E3
:10225000DBB28342F7D10D490D4A00230B604B607E
:102260001370537070BD70BDFF2B3370F3D055F8F1
:10227000230001211EF07EFDEDE700231370F6E739
:102280009211FF1F1428FF1FFF27FF1F0428FF1FA5
:102290000028FF1F054B1B78834202D80020FFF760
:1022A000B7BF034B53F82000FFF7B2BFFF27FF1F54
:1022B0001428FF1F70B5FF20FFF7ECFF094E0A49F5
:1022C0000A480B4C0B4B0022FF250A704A70026033
:1022D00042603270257003F1400143F8042F8B42B5
:1022E000FBD170BDFF27FF1F0028FF1F0428FF1F21
:1022F0009211FF1F1028FF1F2DE9F04F594C81B09C
:1023000028F07EFC2368C01A632802D801B0BDE81B
:10231000F08F28F075FC544F544EDFF868A1DFF8B9
:10232000689120600025BB46A8461AF8010B36F8D4
:10233000024B28F051FC40EA440080B2B0F5704FE7
:1023400042D026F8020C0135042D0BF1040BECD120
:10235000474D2B78002BD9D03B68002293423A603E
:102360003CDD4FF00108434E336803FB08F8B8F139
:10237000000F46D17C68002003FB04F47860002C39
:10238000C4D03D4E3378FF2BC0D02A789A4284BF08
:102390003A4A52F823001EF003FD0028B6D0002C64
:1023A000D4BF00200120FEF733F933782A789A420F
:1023B0003AD9324A52F8230003685B6B2146012266
:1023C00001B0BDE8F04F1847012D26F8028C09D95D
:1023D00009EB0503012103F8021CB4E73ED04FF0DE
:1023E000FF38C0E7264B585D28F0F6FBDBF80030DD
:1023F00000280CBF4FF0FF3101210B44CBF8003017
:10240000A1E7CCBF01200020FEF7ECF81A4B1C78A6
:10241000FF2C0CD044442B78E4B2A34210D82046C1
:10242000FFF738FF3368A5E700231B68FFDE2B7832
:10243000B8F1000FD6BF03F1FF340024E4B2ECE79B
:10244000DFF8389059F824001EF0AAFC0028E6D1E5
:1024500044442B78E4B2A342E1D9F3E7054B1B686F
:1024600088E700BF0C28FF1F0428FF1F9C11FF1FD7
:10247000FF27FF1F9411FF1F9211FF1F1428FF1F3A
:102480009011FF1F9811FF1F0028FF1F10B500219A
:10249000212028F0AFFB0021222028F0ABFB0021F7
:1024A000232028F0A7FB0021242028F0A3FB0021F3
:1024B000252028F09FFB0021262028F09BFB0021EF
:1024C0001C2028F097FB022232491C2028F04EF9EC
:1024D000314B32494FF6FF7200201A805A809A80A1
:1024E000DA800860FFF708FF08212D482AF068FA13
:1024F0002C4827F04FF8232028F06EFB2A4A2B4B5C
:1025000000280BBF05210621104618462AF058FA6C
:10251000244827F03FF8262028F05EFB244A254B6C
:1025200000280BBF10461846052106212AF048FA5C
:102530001C4827F02FF8232028F04EFB70B1002113
:1025400031201EF027F91C4B00280CBF01224FF050
:10255000FF32BDE810401A60FFF7ACBE262028F01D
:102560003BFB04460028EAD14FF4FA724FF47A712B
:10257000052027F0C7F8214631201EF00BF980F026
:102580000101C9B2224631201EF036F91EF056F87C
:10259000D5E700BF992100009C11FF1F0C28FF1FE9
:1025A00094540300181CFF1F7C5403007454030050
:1025B0008C540300845403009411FF1F0020FFF784
:1025C00027BE00BF054B064A1B7812789A4286BF89
:1025D000044A52F823000020704700BF9211FF1FE9
:1025E000FF27FF1F1428FF1F034A044B10781B7896
:1025F000834298BFFF2070479211FF1FFF27FF1FE4
:1026000070B50646002401E01F2C0DD0E5B2284627
:10261000012100F0B7FE0F2C04F10104F4D8284684
:1026200000F070FD1F2CF1D103F0DAF93046BDE85F
:10263000704003F04DBF00BF014B185C704700BFF6
:10264000DC28FF1F0E2870B50D461E460DDC044623
:10265000024668B9104B20469A5C294600F040FEBD
:10266000204600F045FD8EB970BD0F242246F1E7EB
:102670000928EFD101F15D022046D2B2294600F0CF
:102680002FFE204600F034FD002EEDD029462046D6
:10269000BDE8704003F038B8DC28FF1FFFFFFFFFE4
:1026A0002DE9F0472DED028B82B00192002A00F057
:1026B0008D800E28C8BF0F2504460F461E46D4BF86
:1026C00005462C469DED018A002B73D1F8EE487A21
:1026D0009FED5F7AF4EEC77AF1EE10FA63D49FEDC6
:1026E000580B2AF0D1FD2846B0EE408AF0EE608A01
:1026F00000F0E0FC002851D1002D00F09180092D60
:1027000000F09780534B13F80490284600F0BEFC6D
:102710008046284600F0C4FC4BA3D3E900230028E0
:1027200051EC180B0CBF4FF0000A4FF0020A2CF0CE
:1027300005FC2CF0D1FDD04408EE100A5FFA88F8B1
:10274000284600F095FC4346F0EE480A4A463946D2
:10275000284600F04FFD404B4FEA8408434493ED78
:10276000000AB5EE400AF1EE10FA55D107EE904A94
:10277000F8EEE77A394AF5EE407AF1EE10FA14BF36
:10278000042300231344D3ED007AF5EE407AF1EEF2
:1027900010FA3AD1284600F0A3FCF6B902B0BDEC1D
:1027A000028BBDE8F08717EE900A2CF049FA41EC55
:1027B000100B96E703F036FE002887D003F038FEB2
:1027C000A84283D1012003F0DBFC7FE702B0BDEC1F
:1027D000028BBDE8F047FFF735BF284600F048FC04
:1027E000DFED1B7A28EE000A394620EE270A28463C
:1027F000FCEEC07ACDED017A9DF8042002B0BDEC6C
:10280000028BBDE8F04702F02FBF904498ED000A1C
:10281000284600F0F5FDBDE7284600F0EFFDA5E7EE
:102820000CF0A0FF03287FF46DAF01F0A9FF8146F3
:102830006BE707F15D095FFA89F966E7AFF300809E
:102840000000000000C05F40422E609472601340A0
:102850000000FE42DC28FF1F5428FF1F9C28FF1F9A
:1028600030B583B00E280191DDED017A124BB8EE40
:10287000E77ADFED127A87EE270AC4BF0F242046DD
:1028800003EB8003D8BF044615462046D3ED007AFB
:10289000B4EE670AF1EE10FA98BFB0EE670A00F0E6
:1028A000AFFD0DB903B030BD0199204603B0BDE8BE
:1028B000304003F02BB800BF9C28FF1F0000FE42F1
:1028C0000E2870B5D4BF04460F240A2916461D46AB
:1028D0003DD006D9792914D07B294BD078292CD02A
:1028E00070BD01293FD0072930D11146204600F0A4
:1028F0002FFB002DF4D031462046BDE8704002F099
:1029000089BF6421204600F023FB2046402100F0CF
:1029100067FB9FED1D0A204600F070FD002DDFD003
:102920006421204602F076FF204600F0A9FB014614
:102930002046BDE8704002F093BF2046012100F020
:1029400021FD2046BDE8704000F0DCBB70BD1146A3
:10295000204600F045FB002DC2D031462046BDE8A0
:10296000704002F07DBF314620461A46BDE87040F7
:10297000FFF776BF2046002100F004FD2046BDE8A9
:10298000704000F0BFBB00BF0000000038B500245D
:102990000023E0B21A4678210134FFF791FF102C92
:1029A000F6D1002029F088FD38B1002029F084FDFF
:1029B0000028F6D101E028F0D1FD28F0BBFD044647
:1029C0000028F8D1094B0A4A0A4D187001461D200B
:1029D0005C709C7014702C7028F0F8F821461E2052
:1029E00028F0F4F8044B1C6038BD00BFF028FF1F2E
:1029F000EC28FF1F9828FF1F9428FF1F0A2825D0C6
:102A00000E2870B516460D46044615DCF8B9034687
:102A100002467B21FFF754FF174B1D70AEB12046D5
:102A2000294602F0BBFE0CF09DFE03280DD128467E
:102A3000BDE8704013F088BC00231A467B210F20AC
:102A4000FFF73EFF0C4BDD737EB970BD704700236E
:102A50001A467B21FFF734FF074B1D55002EF4D09B
:102A60002946204602F09AFE70BD29460F20BDE897
:102A7000704002F093BE00BFDC28FF1F70B582B02B
:102A80000E28D4BF04460F2501914FF012004FF0DD
:102A90000001D4BF25462C4616461DF08DFE07EEDC
:102AA000900A9FED107A104BF8EEE77A03EB84035F
:102AB000C7EE276A2846DDED017AF8EEE77A87EE61
:102AC000A67AB0EE470A83ED007A00F097FC0EB9C3
:102AD00002B070BD0199284602B0BDE8704002F016
:102AE000F5BE00BF000080465428FF1F70B5FFF7F9
:102AF0004DFF0125002602E00135EDB20136F4B2AA
:102B000000231A4620467821FFF7DAFE00232046EC
:102B10001A467921FFF7D4FE0022092E11462046DD
:102B2000EAD0FFF76BFF002211462046FFF7A6FF11
:102B3000002320461A460121FFF7C2FE102DDBD1EB
:102B4000BDE870400CF0A6BC08B503F05FFC00B90E
:102B500008BD0020BDE8084003F012BB08B503F033
:102B600055FC00B908BD0120BDE8084003F008BBD2
:102B700070B556490878A0F1800300F00F007F2B54
:102B800045D8DFE803F07F7F7F7F7F7F7F7F7F7F78
:102B90007F7F7F7F7F7F86868686868686868686FF
:102BA000868686868686454545454545454545454F
:102BB00045454545454591919191919191919191CD
:102BC00091919191919198989898989898989898AF
:102BD00098989898989845454545454545454545B3
:102BE0004545454545454B4B4B4B4B4B4B4B4B4B59
:102BF0004B4B4B4B4B4B5A445E444444446B6F44E9
:102C0000777B4044448D03F001FC002859D170BD0E
:102C100049780122BDE87040FFF722BE8B784A78E0
:102C2000D90101F47E5302F07F011944A1F500514E
:102C30000122BDE87040FFF721BF254B01221A7029
:102C400070BD8D784C7803F0E1FB0028DFD004EBF9
:102C5000052080B2BDE87040FFF7D2BC1C4B0022BB
:102C60001A7070BD03F0D2FB0028D0D0BDE87040D0
:102C700003F0C2BABDE87040FFF766BFBDE8704020
:102C8000FFF76CBF8A7849780123BDE87040FFF7F1
:102C9000D9BC8A7849780123BDE87040FFF700BDB0
:102CA000BDE87040FFF722BF8A7849780123BDE86C
:102CB0007040FFF705BE49780122BDE87040FFF77C
:102CC0009DBEBDE8704003F0DBB900BFF028FF1FD8
:102CD000EC28FF1F2DE9F043494C4A4E83B02546AE
:102CE0004FF00009002029F0E7FB10B13278464B85
:102CF00042B3444C424D454EA0462F4608E0444A5C
:102D000012780133DBB2934223704FF0010955D0A2
:102D100028F010FC002838D094F8009028F01EFC11
:102D2000237805F80900002BE9D131783A7829BBDE
:102D3000DF2A21D8C02A26D2802A1FD30322344971
:102D40000A70DEE71B783349237003F0F002F02AA3
:102D500003D00A78013A13432B702C4B2E492F4A8B
:102D60001B78097812786170A2704BB12378F72B29
:102D700006D04FF00109B5E7EF2ADFD90122DEE7DF
:102D8000FFF7F6FEF5E70222D9E7B9F1000F28D1E7
:102D9000234C23687BB1234A12680192019A934223
:102DA00009D249461D2027F011FF49461E2027F071
:102DB0000DFFC4F8009003B0BDE8F083337843B151
:102DC0003B78F72B05D0002388F800304FF001093D
:102DD0009EE7FFF7CDFE002388F800304FF0010991
:102DE00096E701211D2027F0F1FE0E4B0C4A1B68CF
:102DF0000093009B3233136003B0BDE8F08300BF43
:102E0000F028FF1F9828FF1F3488FF1FEC28FF1FA2
:102E1000A411FF1F3B88FF1F3888FF1F3988FF1F41
:102E20009428FF1FC485FF1F00B5F83883B004281D
:102E30000BD8DFE800F0280A032018004FF60F2017
:102E400029F0D6FAFA2028F0B7FA01211E2027F03F
:102E5000BDFE114B114A1B680193019B01331360A6
:102E600003B05DF804FB4FF60F4029F0C1FAFC20D7
:102E700028F0A2FAE9E74FF60F3029F0B9FAFB2063
:102E800028F09AFAE1E74FF60F0029F0B1FAF8209E
:102E900028F092FAD9E700BFC485FF1F9428FF1FCE
:102EA00070B501211D2027F0A5FE01211E2027F06D
:102EB000A1FE00211D2027F089FE00211E2027F001
:102EC00085FE084E084D094A09480023012447F6AB
:102ED000122133702B70147026F0A8FABDE87040F0
:102EE000FFF704BE9828FF1FEC28FF1FA411FF1F47
:102EF000301AFF1FF0B500230D4E0E4D0E4C0F483B
:102F00000F49DFF844C01A464FF0640E40270133E2
:102F1000102B06F801EF45F804CB04F8017F00F808
:102F2000012F01F8012FF2D1064BFF221A70F0BDDC
:102F30000729FF1F2829FF1FF328FF1F1729FF1F3D
:102F40006729FF1F0429FF1FCDCC4C3FFFFFFFFF68
:102F500038B504460D46D1B107EE901A9FED1C7AA4
:102F6000F8EE677AF4EEC77AF1EE10FA1FD49FED0F
:102F7000140B2AF089F914A3D3E9002351EC100BA8
:102F80002BF0DCFF2CF0A8F907EE900A01E0DFED52
:102F9000117A114A114B155503EB84032046C3EDFA
:102FA000007AB0EE670ABDE8384000F055BF17EE72
:102FB000900A2BF045FE41EC100BDAE7AFF30080EE
:102FC0000000000000C05F40422E60947260134019
:102FD0000000FE42000000000829FF1F2829FF1FF3
:102FE0002F2910B4064C0B4694BF002201224F2912
:102FF00023548CBF002101215DF8044B00F03CBB41
:10300000F428FF1F034B195401B97047012100F048
:10301000B9B900BF1829FF1FF8B5104E104D307018
:103020000024034627460FE0834214BF01230023F8
:103030004FF001012B7001D000F0A4F90134102CE5
:1030400005F1010509D03378FF2BE0B2ECD1013452
:10305000102C2F7005F10105F5D1F8BD0429FF1FD3
:103060001829FF1F014B185C704700BF0829FF1F7C
:10307000024B03EB800090ED000A70472829FF1FE8
:10308000014B185C704700BFF428FF1F034B185C0E
:103090004F288CBF00200120704700BFF428FF1F7D
:1030A000034B185C2F2894BF00200120704700BFFD
:1030B000F428FF1F014B185C704700BF1829FF1F41
:1030C000034B1B78181AB0FA80F04009704700BF14
:1030D0000429FF1F014B1878704700BF0429FF1F08
:1030E000024A135C01331354704700BF6829FF1F65
:1030F000034A135C013B23EAE3731354704700BF98
:103100006829FF1F014B00221A5470476829FF1FCE
:10311000014B185C704700BF6829FF1F054B185C06
:103120004F2804D82F2894BF002001207047022088
:10313000704700BFF428FF1F0A4B0B4930B4002230
:10314000002503F5207403201A809A705D601872C0
:10315000DA601033A34221F8042C41F8082BF3D194
:1031600030BC7047A811FF1F7C29FF1FF0B51E4B14
:103170001E4C1B6883B004F5A0750193019E0027C7
:1031800002E00834AC420ED034F8040C0028F8D029
:103190002368B342F5D8002100F066F9083424F81A
:1031A0000C7CAC42F0D1124C002704F5207502E0F3
:1031B0001034AC4215D034F80C0C0028F8D0236839
:1031C000B342F5D814F8042C54ED020A14F80A1C82
:1031D000B7EE000A00F030FF103424F81C7CAC423B
:1031E000E9D103B0F0BD00BFC485FF1F7C29FF1FDC
:1031F000B411FF1F2DE9F04FC0022DED028B1FFA15
:1032000080F8481C1446404483B01A4680B2894670
:103210002146B0EE408AF0EE608A00F00DFF2046B5
:10322000FEF738FFFEF7C8FE002843D02A4B2B4E8E
:103230001B680193DDF804B0054608F10108B246A9
:1032400001272B798BB3D5ED047AF5EEC07AF1EE38
:1032500010FA2ADD2B7D68EE280A012B60EEA70A02
:1032600033D94FF0020E7A022C7BAB68697902F4F5
:10327000C062424409EB040052FA80F080B2F3B11C
:10328000002301E0282B10D01C010133325B002AFF
:10329000F8D10AEB04032AF80400997083F808E0D7
:1032A000AA68C3ED010A5A44DA600137042F05F118
:1032B0001405C6D103B0BDEC028BBDE8F08F724699
:1032C000B0EE480A00F0B8FEEFE7002B0CBF4FF05D
:1032D000010E4FF0030EC6E7C485FF1FA811FF1FA4
:1032E0002DE9F04FC0021FFA80F8481C404483B01B
:1032F000144680B28946002100F0B6F82046FEF759
:10330000C9FEFEF759FE90B31C4B1D4D1B6801937F
:10331000DDF804B0044608F10108AA460127237924
:1033200003B3D4ED047AF5EEC07AF1EE10FA19DDAC
:103330007B02207BA16803F4C0634344484453FAF2
:1033400080F080B2B9B1002302E00133282B11D004
:1033500035F83320DE00002AF7D1564459442AF8C4
:10336000330071600137042F04F11404D7D103B086
:10337000BDE8F08F002100F077F8F3E7C485FF1F68
:103380007829FF1F2DE9F84F82468946DFF86880CB
:10339000184D00F089FB00244FEACA2AC34627468D
:1033A000264638F81430610003F478424BB1524598
:1033B00007D13A010BEB02034BF802605E609E609E
:1033C000DE6035F8043C03F478424BB1924507D1F6
:1033D00038F80100494600F047F825F8046C2E60E3
:1033E0000834B4F5A07F07F1010705F10805D8D12D
:1033F000BDE8F88F7C29FF1FA811FF1F00F056BA07
:1034000000F06CBA00F07F000138C0B2704700BF16
:1034100030B100F47840B0EBC12F0CBF0120002088
:10342000704700BFF0B500240C4D0D4E83B0274609
:10343000AB69E1B253B132680192019A09489342F3
:103440004FF0000202D822F02BFFAF610134242C90
:1034500005F11C05ECD103B0F0BD00BFB82AFF1F79
:10346000C485FF1FF881FF1F2DE9F04F564C85B032
:10347000002681468B4604F1180504F57C7806E0A9
:103480001C34A04506F1010605F11C0542D035F8B3
:10349000183C4B45F7B2F3D1BBF1000F3DD00022F1
:1034A00039464A4822F0BCFE012282463946474846
:1034B00022F0B6FE0F23019000223946434822F045
:1034C000B9FE0F2301223946404822F0B3FE002204
:1034D00039463E4822F028FF002239463B4822F078
:1034E000DFFE534600223946384822F0A3FE019BF6
:1034F00036483946012222F09DFE0023A3611C3488
:103500004FF00003A04525F8183C06F1010605F12F
:103510001C05BCD105B0BDE8F08F5A4639462B4892
:1035200022F002FF5A463946284822F013FE50BBCB
:1035300001223946254822F00DFE4FF00F0AA0B1B6
:1035400001223946214822F0DBFD3E2830D9BAF16C
:10355000000F36D145F2F05242FA0AF31C4A1268C3
:103560000392039A1344A361C9E750460AF1FF3A54
:1035700045F2F0530028F1D001388245EADB45F2EC
:10358000F0530341EAE75A463946104822F0B8FDA5
:103590003E28CDD85A4639460C4822F041FE012239
:1035A00082463946094822F0D5FD0028CFD0C7E72A
:1035B00039460122054822F033FEBAF1000FD7D078
:1035C000D4E70F20D2E700BFB82AFF1FF881FF1F02
:1035D000C485FF1F30B52DED028B044683B008462D
:1035E000F0EE408A00F026FF837C9FED218AC3F134
:1035F0003F0307EE903AF8EEE77A214687EE887AA5
:10360000012205461B4868EEC77AB0EE487AA7EE5D
:10361000887AFCEEC77ACDED017A9DF8043022F06D
:1036200079FD2146134822F0B3FE012803D003B0F0
:10363000BDEC028B30BDAB790E48C3F13F0307EE02
:10364000903AF8EEE77A214687EE887A002268EE13
:10365000C78AA8EE888AFCEEC87ACDED017A9DF87B
:10366000043003B0BDEC028BBDE8304022F052BD07
:1036700000007C42F881FF1F134B1B78022B21D0E6
:103680002DE9F0470024924689460746DFF840803E
:10369000254602E0B4F57C7F12D038F804003946A4
:1036A000FFF7B6FEEEB21C3401350028F2D03146E9
:1036B00053464A46054823F085F9B4F57C7FECD1A2
:1036C000BDE8F087704700BFA82EFF1FF881FF1FDD
:1036D000B82AFF1F2DE9F04F2DED028B6B4B9FEDAC
:1036E0006C7A1B68DFF8B0A16A4CDFF8BCB185B01A
:1036F00000250393DDED038AF8EE687A67EE878A8A
:1037000005E00135242D04F11C0400F0A38034F8F9
:10371000103C5FFA85F9002BF3D02379002BF0D110
:1037200014F80C0C00F086FE867E14F90C3C7F2EFB
:10373000C8BFA6F58076002BC0F2918034F8100C3B
:10374000FFF760FE30448BFB0036C317C3EB660601
:1037500006EB4606A0EB86060236F6B214ED017AB9
:103760005AF82670B5EEC07AF1EE10FA0FFA87F823
:1037700000F1818014DDB31C474A07EE908A52F8AD
:103780002330F8EEE76ADB1B07EE903AF8EE677A33
:10379000E7EE276AFDEEE67ACDED007ABDF900800E
:1037A00094ED008AB5EEC08AF1EE10FA40DD18EE15
:1037B000900A2BF045FA013641EC100B29F014FC6D
:1037C0005AF82630DF1B07EE907AF8EE677A8DED17
:1037D000000B67EE887A17EE900A2BF031FA9DED18
:1037E000000B06460F46002251EC100B2B4B2BF022
:1037F0007BFA0022294B2BF0C5F802460B4600202D
:1038000027492BF0BDF802460B46304639462BF0CF
:103810006BFA064640460F462BF000FA02460B466E
:10382000304639462BF0AEF82BF00EFD0FFA80F83B
:1038300049461C4822F01EFD80453FF462AF4246D7
:1038400049461848013522F02BFD242D04F11C04B3
:103850007FF45DAF05B0BDEC028BBDE8F08F8BFB54
:103860000632F317C3EB620303EB4303A6EB8306B5
:103870000236F6B272E7B31E074A07EE908A52F894
:103880002330F8EEE76AFB1A7EE700BFC485FF1F0E
:10389000F6AD003DC82AFF1FA05403000000E03F22
:1038A0000000F03FF881FF1FABAAAA2A70B50A4CAE
:1038B0002DED028B0646B0EE408A04F57C7531464C
:1038C0002088FFF7A5FD08B184ED038A1C34AC42C3
:1038D000F5D1BDEC028B70BDB82AFF1F70B50A4C44
:1038E0002DED028B0646B0EE408A04F57C7531461C
:1038F0002088FFF78DFD08B184ED048A1C34AC42AA
:10390000F5D1BDEC028B70BDB82AFF1F2DE9F04F39
:10391000634B83B0C0EBC0070190884603EB870779
:10392000002402E00134192C2BD0E0B2FEF7F4FAA7
:103930000578012D0646F5D182783B799A42F1D17E
:10394000012D00F0A580B8F1FF0F15D0C2464FF051
:1039500004097378013B062B0ED8DFE803F05160B1
:10396000423324041500F37819EA030F04D05146BA
:10397000327A4C4822F0F2FC022DD3D00135EDB260
:10398000DEE703B0BDE8F08F4FF0000BF17809FAE5
:103990000BF319425FFA8BF20BF1010B4ED1BBF125
:1039A000020FE9D0F2E74FF0000BF17809FA0BF3C0
:1039B00019425FFA8BF20BF1010B45D1BBF1020FFB
:1039C000DAD0F2E74FF0000BF17809FA0BF3194265
:1039D0005FFA8BF20BF1010B48D1BBF1020FCBD098
:1039E000F2E74FF0000BF17809FA0BF319425FFA96
:1039F0008BF20BF1010B33D1BBF1020FBCD0F2E71C
:103A00004FF0000BF17809FA0BF319425FFA8BF2D1
:103A10000BF1010B33D1BBF1020FADD0F2E74FF048
:103A2000000BF17809FA0BF319425FFA8BF20BF1F4
:103A3000010B0FD1BBF1020F9ED0F2E7337A194888
:103A4000514622F03DFBAAE7337A1648514622F050
:103A5000F1FBB3E7337A1348514622F085FBE9E7DF
:103A6000337A1048514622F09DFBC5E7B3680D48F4
:103A7000C3F10F03DBB2514622F0B4FBADE7B368EC
:103A80000848C3F13F03DBB2514622F043FBC2E7D3
:103A9000019BFF2B3FF472AF9A46A94659E700BF3E
:103AA000B82AFF1FF881FF1F2DE9F0410C4D064693
:103AB00088462F46002403E01C34B4F57C7F0DD0EB
:103AC0003146285BFFF7A4FC0028F5D0385B41465F
:103AD0001C34FFF7C9FCB4F57C7FF1D1BDE8F0815F
:103AE000B82AFF1F0A4B10B403F57C71FF2404E0D1
:103AF000FF2805D01C338B4206D01A798242F7D1B9
:103B00001C711C338B42F8D15DF8044B704700BF29
:103B1000B82AFF1FF8B5174F174B3870002403F56C
:103B20007C760022FF251A805A801D719C60DC6023
:103B30001C611A759A611C33B342F4D1A0F10201E1
:103B4000B1FA81F149090D4822F09AFE0B4823F0A1
:103B5000EBF80121094822F03BFC0121074822F043
:103B600021FC39780548023918BF0121BDE8F84029
:103B700023F0C0B9A82EFF1FB82AFF1FF881FF1F2E
:103B80002DE9F04F5C4B1F78012F87B068D0022FD2
:103B90000CBF4FF0090E4FF00C0E4FF6FF764FF0B2
:103BA000FF080022554DDFF8609103969346B24618
:103BB000B446CDF81480CDF80480CDF8088000908C
:103BC0000DE01C795B88200622D4B34202F1010289
:103BD00038BF1E46D3B238BF88469E4528D9022F2B
:103BE0000ABF474B12F80910D15CC1EBC10405EBC9
:103BF000840335F82440002CE3D11C7900988442DA
:103C00000BD05B889C45DED920069C460191DCD513
:103C100053453CBF9A460591D7E75888039B0490CB
:103C20000BF1010B98425FFA8BFB0BD30346E9E7DC
:103C3000029BFF2B17D0BBF1010F07D9029807B0E9
:103C4000BDE8F08F049B03930291DBE7019A029990
:103C50001346FF2A08BF0B46184607B0BDE8F08F91
:103C60004FF0060E99E7019BFF2B03D0019807B098
:103C7000BDE8F08F059CFF2C28D1022F2DD000210C
:103C8000DFF888C0059C4FEA4E0E0A460E464FF6F6
:103C9000FF7901E01CF80210C1EBC103501C35F89C
:103CA000237005EB83032FB95B884B4502D2164680
:103CB00099460C46C2B29645ECDCFF2C0DD031463D
:103CC000104823F095F978B92046B8E70D4800224E
:103CD000214622F029FB2046B1E70A48002241464E
:103CE00022F022FB4046AAE706483146002222F095
:103CF000D7FF2046A3E700BFA82EFF1FB82AFF1F4B
:103D000010550300F881FF1FE054030034550300F1
:103D100070B52DED048B044682B00846B0EE409A93
:103D200000F088FB90F82D309FED498AC3F13F03E6
:103D300007EE903AF8EEE77A2146C7EE888A01222C
:103D40000646444823F0B6F8012201464148F0EE09
:103D5000487A68EE898AE8EEC87AFCEEE77ACDED1B
:103D6000017A9DF8043022F0D5F92146394822F035
:103D700079FE02285FD00328054627D0012803D00A
:103D800002B0BDEC048B70BDB37C3248C3F13F037D
:103D900007EE903AF8EEE77A214687EE887A00221D
:103DA00027EE099A23F086F8A9EE488A01462A46AA
:103DB000FCEEC87A2748CDED017A9DF8043002B0B8
:103DC000BDEC048BBDE8704022F0A4B9B379214862
:103DD000C3F13F0307EE903AF8EEE77A0022C7EE10
:103DE000888A214623F066F8002201461948F0EE41
:103DF000487A68EE898AE8EEC87AFCEEE77ACDED7B
:103E0000017A9DF8043022F085F996F821301148A6
:103E1000C3F13F0307EE903AF8EEE77A214687EECA
:103E2000887A012227EE099A23F044F8A9EE488AFD
:103E300001460022BCE7B3790648C3F13F0307EE11
:103E4000903AF8EEE77A214687EE887A0022E9E791
:103E500000007C42F881FF1F2DE9F8431C4CDFF87D
:103E600074902DED028B8046B0EE408A04F57C778D
:103E700000250DE094ED020A217919F8050028EEDD
:103E8000000AFFF745FF1C34BC4205F101051BD0B9
:103E900041462088EEB2FFF7BBFA0028F3D0237D1D
:103EA000002BF0D1207900F0E1FA0028E2D194ED66
:103EB000020A2179304628EE000A1C34FFF78AFBFB
:103EC000BC4205F10105E3D1BDEC028BBDE8F883EE
:103ED000B82AFF1FEC5403002DE9F04F524B1B781A
:103EE00089B0012B029000F08180022B4FD04FF05F
:103EF0000C0900254FF6FF784FF0FF0A2B46069578
:103F00002F46C346CDF80480CDF81C80CDF814A010
:103F1000CDF810A0CDF80CA04448454C03210FE08B
:103F2000127912062ED4984505F1010588BFBA46CC
:103F3000EFB288BF9846B94539D98378C178023045
:103F4000C3EBC303C1EBC10104EB830204EB8106A5
:103F5000B2F802C034F823E07388634528BF634693
:103F6000BEF1000FDCD134F8211012790029D8D12C
:103F700002998A422CD001999942D2D91206019312
:103F80000497D0D59B4584BF9B460597CBE7FF237D
:103F9000039300220399274822F08CFF0022014658
:103FA000244822F0C1F9039809B0BDE8F08F039BC3
:103FB000FF2B1ED0069B012BF5D8049A03991346BC
:103FC000FF2A08BF0B460393039809B0BDE8F08FA2
:103FD0003179029EB142CED106990131C9B2069122
:103FE00007999942C7D907930397C4E74FF0060989
:103FF0007FE7049BFF2B05D0049B0393039809B034
:10400000BDE8F08F059CFF2C0BD02146002209480B
:1040100022F050FF002201460648039422F084F962
:10402000C1E7CDF80CA0B4E7A82EFF1F345503005C
:10403000B82AFF1FF881FF1F2DE9F04F2DED028BED
:1040400006469FB008460D46F0EE408AB0EE608A04
:10405000924600F001FA002800F0B9809B4B1B78D3
:10406000022B05D0284600F001FA002840F0B48069
:1040700010AB184629460F9300F0E4F928469DF846
:104080005AB0934FDFF85882FFF77AFD0446FF23BA
:10409000214690480D934FF0000922F03BF900288B
:1040A00040F0CC808C4B1B5D0E93FF2B0AD0194641
:1040B000884822F09DFF484504D04A460E9985481D
:1040C00022F0EEFDB9F1000F00F0C1804FEAC40903
:1040D000C4EB090307EB83037D4A1B79AB4200F075
:1040E000DE808DF85AB00DF1480CBCE80F00EE46AA
:1040F000AEE80F00BCE80F00AEE80F009CE80F0030
:10410000AEE80700AEF800300F9B0E997148B7EE8D
:10411000000A0CCB22F0E8FB0E98294628EE280A6C
:10412000FFF7F6FDCAF340030AF001020D99694852
:1041300022F048FCC4EB09094FEA890907EB09039F
:10414000B8F800205A80002100221D7183ED028AF8
:10415000D96019611A759A612B0627F8096005D490
:1041600006F07F06013E5E445FFA86FBBBF1760FE8
:104170006ADCBBF1180F00F39C8000260125534B2D
:104180001B78022B07D0CAF340030AF00102214634
:10419000504822F017FC2A4621464E4822F0A0F84B
:1041A00031464C4821F028FE21460246494822F07B
:1041B00077F80D992046FFF7A9FB214601224548D3
:1041C00022F0B2F8B8F800300133A8F800301FB080
:1041D000BDEC028BBDE8F08F10AB184629460F935B
:1041E00000F030F928469DF85AB0394FDFF8F080DA
:1041F000FFF772FE394BB8F800E000B203EB400263
:1042000013F8104053780D93C3EBC3029200BB1810
:104210000021BE524FF001090022D96019611D71C1
:1042200083ED028AA3F802E09A6183F81490214694
:10423000284822F06FF800283FF434AF00222146CE
:10424000244822F071F82DE70B26082597E74FEA5E
:10425000C409C4EB090307EB83031B79AB4217D0F6
:104260008DF85AB00DF1480CBCE80F00EE46AEE8F0
:104270000F00DCF800302EF8023B1B0C8EF80030EB
:104280000F9B14480CCBB7EE000A214621F04AFEE2
:1042900028EE280A29462046FFF79CF94AE70D9B9D
:1042A000C3EBC30302EB83021379AB427FF419AF74
:1042B00032E70C26ABF11805BBFBF6F395FBF6F5E0
:1042C00006FB13B60135EDB2F6B258E7A82EFF1F74
:1042D000B82AFF1FF881FF1FEC5403003455030078
:1042E0002814FF1F08B52DED028BDFED468A9FEDE8
:1042F000468AB0EE680A0322F7EE000A602148F20F
:104300003000FFF799FEB0EE480A0322F7EE000AEC
:10431000702148F63000FFF78FFE322026F094FC23
:10432000B0EE680A0322F7EE000A602148F2350079
:10433000FFF782FEB0EE480A0322F7EE000A702172
:1043400048F63500FFF778FE322026F07DFCB0EE0F
:10435000680A0322F7EE000A602148F23900FFF7ED
:104360006BFEB0EE480A0322F7EE000A702148F611
:104370003900FFF761FE502026F066FCB0EE680AB7
:104380000322F7EE000A602148F23C00FFF754FEDA
:10439000B0EE480A0322F7EE000A702148F63C000E
:1043A000FFF74AFE4FF4FA7026F04EFC002148F267
:1043B0003000FFF759F8002148F23500FFF754F8B4
:1043C000002148F23900FFF74FF8002148F23C0085
:1043D000FFF74AF8002148F63000FFF745F80021C2
:1043E00048F63500FFF740F8002148F63900FFF79E
:1043F0003BF8BDEC028B002148F63C00BDE80840CC
:10440000FFF732B83333333FCDCC4C3F84B070B577
:10441000074E05AC362584E80E0005FB00602146FA
:104420002A4625F093FFBDE8704004B0704700BFF6
:10443000AC2EFF1F024B362202FB0030704700BF3C
:10444000AC2EFF1F08B5034B362202FB013125F0CD
:104450007DFF08BDAC2EFF1F034A362303FB00205F
:1044600090F83500C0097047AC2EFF1F044A362370
:1044700003FB002090F8350000F00100704700BFFA
:10448000AC2EFF1F054A362303FB002090F8353081
:1044900063F07F0380F83530704700BFAC2EFF1FFC
:1044A000084B362202FB003090F8353021B923F05A
:1044B000010380F83530704743F0010380F8353050
:1044C000704700BFAC2EFF1F2DE9F84F4FEA001ACE
:1044D00089460AF110075446012607E025F0C2FB81
:1044E000202305460134A7422B7019D021461348DA
:1044F000002EF3D0CAEB04084146484625F0B2FB33
:1045000090F800B00D482146BBF1000F0AD125F00C
:10451000A9FB013405462023A7425E462B70E5D156
:10452000BDE8F88F2146054825F09CFB414605462D
:10453000484625F097FB0378D4E700BFA853FF1F38
:1045400070B5124C124992B0362606FB004405465F
:10455000684622F0A3F932466946204625F0F6FE69
:104560000123002284F8352023712374E37784F833
:104570002B300EA8074925F0EBF90EA92846FFF7C6
:10458000A3FF0EA825F0A4F912B070BDAC2EFF1F3A
:10459000F881FF1F546F03002DE9F04F97B060B909
:1045A0000446E0B20134FFF7CBFFAF2CF9D1FF2076
:1045B00017B0BDE8F04FFFF795BA00212E201CF090
:1045C000FBF802284B4F6AD000212F201CF0F4F892
:1045D00000F0020000F0FF04002860D1DFF8309105
:1045E000454A3D466E464FF0360A01E059F8042F21
:1045F0004249012330460AFB047822F05BF901347A
:1046000040463622314625F0A1FE8123802C85F8D4
:10461000353005F13605E9D10DF13C08DFF8F490AD
:10462000374A0024802501E059F8042F334901233B
:10463000404621F00DFC362303FB057A2F49304616
:1046400022F02CF907EB040B36223146504625F0B8
:104650007DFE1B2241460BF5D85025F077FE3634FF
:104660000BF5D95340F6EA128021944205F1010579
:104670005975D9D1234E4125002401E016F8015F78
:104680002148214625F0EEFA0134B4F52F6F05706C
:10469000F4D1FF2017B0BDE8F04FFFF723BADFF8E1
:1046A00078901A4A3D4600240DF13C086E464FF0C2
:1046B000360A01E059F8042F10490123404621F041
:1046C000C7FB0AFB047B0D49304622F0E7F836228F
:1046D0003146584625F03AFE28461B22414625F031
:1046E00035FE013480239C4285F8353005F13605CE
:1046F000E0D193E7AC2EFF1F34800300F881FF1F49
:10470000A07D03004C550300A853FF1F0480030045
:10471000D881030004630300707203002DE9F041A7
:1047200007468846102600242146134825F09AFAA9
:1047300006FB08410546114825F094FA0134037838
:104740002B70102CF0D10F2400E0D4B221460A487F
:1047500025F088FA0378621E002BF6D0611C06480B
:1047600025F080FA002303700349384625F004F948
:104770003846BDE8F08100BF9853FF1FA853FF1FC4
:10478000014B1878704700BF9653FF1F014B1870FC
:10479000704700BF9653FF1F074B084A01E0934242
:1047A00008D093F8350010F0010003F13603F6D07D
:1047B00001207047704700BFAC2EFF1F9653FF1FAC
:1047C000F8B50C4F0C4E0D4D0D4C0E49384625F0EA
:1047D000BFF832462946384628F06EFB20460A4983
:1047E00025F0B6F8324629462046BDE8F84028F0C4
:1047F00063BB00BFA853FF1F1C0DFF1FD198020011
:104800009853FF1F50640300446F030038B5054CF4
:10481000A4F580552046103C25F05AF8AC42F9D159
:1048200038BD00BF0464FF1F2DE9F04F9BB08146E7
:104830000D4612A8BD4925F08BF812A9484625F06F
:10484000EBF9044612A825F043F8002C00F08B8009
:10485000B649484625F0C2F958B9D9F80010B44C09
:10486000B448002908BF214623F0BCF80390002873
:1048700050D0D9F80020AE4BAE49DFF8BC821AAE5A
:10488000002A08BF1A4612A8012323F037F816F8A9
:10489000141D9DF84C20149B88F80420C8F808309B
:1048A00088F80C10324608F10D0308F11A0712F8C7
:1048B000011F03F8011BBB429F4CF8D1199BE36118
:1048C000204622F081FE0390002851D19B4A984B4C
:1048D00012689849002A08BF1A4612A8012323F03B
:1048E0000DF89DF84C10149A9DF8543088F8041077
:1048F0000D34C8F8082088F80C3016F8013F04F889
:10490000013BBC428C4BF8D1199A0398DA611BB079
:10491000BDE8F08F894B87491A68DFF81C8212A81E
:10492000002A08BF2246012322F0E8FF1AAA149B9E
:104930009DF84C1012F8140DC8F8083088F80C00D7
:1049400088F8041008F10D0308F11A0712F8011F86
:1049500003F8011BBB427849F8D1199B0398CB613E
:104960001BB0BDE8F08F2F21484625F0D9F86FE73E
:1049700049467248DFF8D881DFF8CC91DFF8CCA146
:1049800025F06AF800276E4BC8F80070394606A873
:104990001F6024F0DDFF204623F0A8F83B46019677
:1049A00009F11A07CB461E460122634912A823F0DB
:1049B00043F89DF854209DF84C00149989F80C2078
:1049C000604B019A89F80400C9F8081012F8011F19
:1049D00003F8011BBB42F9D1199B5B48CBF81C3093
:1049E00022F01EFE002800F0B580574822F0EAFDB4
:1049F000014606A825F040F8534822F0E5FD04469C
:104A000000287FD1AB68002B70D02E2106A825F09E
:104A100093F906A9421C0AA825F0E6F9AB686BB326
:104A2000224607E00EA824F053FFAB68E4B29C4294
:104A3000224623D203342346294612A825F0B0F992
:104A400012A825F0E9F901460EA824F095FF12A856
:104A500024F03EFF0EA90AA825F0B2F80028E1D004
:104A60000AEB061006A924F0F7FF354B344A1B6801
:104A70000EA801330136136024F02AFF0AA824F09F
:104A800027FF314822F0BEFDFE2E8DDD0296D8F8BC
:104A90000030002B40F313822C4DDDF808A00027D6
:104AA000A9463E463C4609E001345445374609F1E3
:104AB000100952D0D8F800309E4250DA0021484602
:104AC00025F0D0F890F90030002BEDDAA74205EB85
:104AD0000717C0F2E7813846002125F0C3F80378B4
:104AE000013603F07F03F6B20370DDE70AEB061030
:104AF00006A924F0B1FF124B114A1B68013301369D
:104B00001360BEE70AEB061406A9204624F0A4FFB2
:104B10002046002125F0A6F80378803B0370D8F8E2
:104B2000003001330136C8F80030AAE738840300AA
:104B3000660A04001483FF1FBC53FF1FE053FF1FCE
:104B4000B853FF1F0154FF1FF453FF1F1454FF1FDE
:104B5000F053FF1F0296002E99D1D8F80030002B99
:104B600034DDCD4D00232E461C4699461F4606E0F7
:104B70000137D8F80030FFB29F423C4679DA05EBA6
:104B800004142046002125F06DF80378303B092BF2
:104B9000EED8B945ECD206EB091A514606A824F026
:104BA0005BFF2146504624F057FF09F1010906A991
:104BB000204624F051FF5FFA89F9D9E7019A9A1A41
:104BC0000137FFB297423E46C0F2BA80B34B1B6832
:104BD000002B47DDB04DB24F4FF0000A2E46544631
:104BE000D14609E0AD4B09F101091B685FFA89F96B
:104BF00099454C4680F2CD80D8F80000204405EB62
:104C00000010002125F02EF80378303B092BE9D85D
:104C1000D145E7D93B680AEB030106EB011106A871
:104C200024F01AFF3B680AEB0300191906EB011187
:104C300006EB001024F010FF3B68E01806EB0010B4
:104C400006A90AF1010A24F007FF5FFA8AFAC9E708
:104C5000924B1B680137FFB2CAEB03039F423E46EB
:104C6000C0F2F18006A824F033FE03981BB0BDE823
:104C7000F08F4946CDF81490CDF80490002900F04B
:104C8000208109F1FF3323F0FF030493CA46BAF1F0
:104C9000010F41DD0124264604E00136F6B25645F7
:104CA000344639DA671E05EB07172E21384625F002
:104CB00043F800220346394612A825F071F812A8DD
:104CC00025F0D8F805EB0414834612A824F000FE62
:104CD0002E21204625F030F821460346002212A856
:104CE00025F05EF812A825F0C5F8814612A824F038
:104CF000EFFDCB45D1D9214606A824F0ADFE013603
:104D00003946204624F0A8FEF6B206A9384624F01B
:104D1000A3FE56453446C5DB049B0AF1FF3A9A458B
:104D2000B5D1D8F80030019A9A1A002A7FF74EAF11
:104D30000599594D01F1010900265FFA89F93746B5
:104D4000991B8945BFF63CAF49464C4608E0D8F868
:104D500000300134E4B29A1B94422146BFF62EAFD4
:104D600001F1FF3A05EB0A1A05EB011B50465946C3
:104D700024F04AFF0028EAD0594606A824F06CFE29
:104D80005146584624F068FE06A9504624F064FEB9
:104D9000DDE7BAF1000F4FD00023CDF804A01E4686
:104DA000D8F800305C1C02E0D8F800300134019AD9
:104DB0001344E4B29B1B9C4236DA04F1FF3905EB45
:104DC00009192E21484624F0B7FF00220346494620
:104DD00012A824F0E5FF12A825F04CF805EB041A00
:104DE000834612A824F074FD2E21504624F0A4FF1F
:104DF00051460346002212A824F0D2FF12A825F043
:104E000039F8074612A824F063FDBB45CCD95146BA
:104E100006A824F021FE4946504624F01DFE06A9AE
:104E2000484624F019FEBFE70136019AF3B29A42D0
:104E3000B6D81A4B1B689246CAEB0303002B7FF7C8
:104E400011AF00263746D8F80040029B0134544485
:104E50009E1BE4B2B44205DBFAE60134E4B2B4428C
:104E6000BFF6F6AE04F1FF3905EB091905EB041B9B
:104E70004846594624F0C8FE0028EED0594606A8F8
:104E800024F0EAFD4946584624F0E6FD06A94846C6
:104E900024F0E2FDE1E700BF1454FF1FB853FF1FE9
:104EA000F053FF1F394606A824F0D6FD4946384680
:104EB00024F0D2FD06A9484624F0CEFD0BE60023DF
:104EC00001930022D8F8003005922CE738B5084845
:104ED000084C22F093FC04F5805520460649103416
:104EE00024F0CAFDAC42F8D1044B00221A7038BD40
:104EF0001483FF1F1454FF1F546F0300DC53FF1F64
:104F000038B5054C04F5805520460449103424F08A
:104F1000B3FDAC42F8D138BD1454FF1F546F0300E9
:104F2000014B1878704700BFDC53FF1F38B50446AB
:104F30000D4600F00DF8054B187800B938BD29462C
:104F40002046BDE83840FFF76FBC00BFDC53FF1FB1
:104F500010B51B2088B0154C25F03EFE23789842F2
:104F600009D083F0010323703BB11821104822F0CF
:104F700019FC30B9207008B010BDFFF7A7FF08B0CA
:104F800010BD68460B4924F0E3FC04A80A4924F04C
:104F9000DFFC04A96846FFF7C9FF04A824F098FCC9
:104FA000684624F095FC08B010BD00BFDC53FF1F1D
:104FB0001483FF1F38840300546F030008B50121D8
:104FC000182025F017FE00211B2025F013FE0121DB
:104FD000182025F0FBFDBDE80840FFF7B9BF00BF72
:104FE000F0B589B005460C461746FFF7B1FF294BCF
:104FF0001B78002B2FD02968274E2848002908BF8E
:10500000314622F0EFFC012C3BD0172C26D02A6829
:10501000214822492346002A08BF0246684622F05A
:105020006DFC08AA1E48029B12F8144D9DF804104E
:1050300083600473017100F10D031A3012F8011F2F
:1050400003F8011B8342164CF8D1079BE36120460D
:1050500022F0E6FA70B9002009B0F0BD0028D6D0E1
:10506000002FD4D029680D48002908BF314622F00E
:10507000D5FCCCE7204622F0D3FA28B9084809B07D
:10508000F0BD0028C3D1E6E7204622F09DFA0028B3
:10509000E1D1F3E7DC53FF1F660A04001483FF1F0E
:1050A000F453FF1F0168034B0348002908BF19464A
:1050B00022F0A6BC660A04001483FF1F0A4A0B4BA9
:1050C00012681B681344994210B5044604DB084972
:1050D00024F03EFC204610BD064B03EB011124F0EA
:1050E0004BFC204610BD00BFF053FF1FB853FF1FFD
:1050F000546F03001454FF1F10B50349044624F0F5
:105100003BFC204610BD00BFE053FF1F30B51B49DC
:1051100089B005461A4824F061FD40BB0446174992
:1051200004A824F015FC04A9154824F033FE2246F7
:1051300003461349684624F033FE04A824F0C8FB54
:1051400004A80E4924F004FC04A9684624F022FEB9
:10515000224603466946284624F022FE04A824F08D
:10516000B7FB684624F0B4FB284609B030BD0449BB
:10517000284624F001FC284609B030BD38840300DD
:10518000E053FF1F08B50449044824F027FD003010
:1051900018BF012008BD00BF38840300E053FF1F83
:1051A000014B1868704700BFF053FF1F014B186890
:1051B000704700BFB853FF1F024A034B10681B68BB
:1051C00018447047F053FF1FB853FF1F0168034B8B
:1051D0000348002908BF194622F004BC660A0400EF
:1051E0001483FF1F38B510491048114C24F0B0FB50
:1051F000104A11490D4827F05FFE104822F0D4F9FB
:105200000F4822F0D1F904F58055204600211034D2
:1052100024F09EFBAC42F8D1064A0A490020BDE8C2
:10522000384027F049BE00BF38840300E053FF1F19
:105230001454FF1F1C0DFF1FD1980200BC53FF1F09
:10524000F453FF1F0D48000070B5134D0024B0202B
:1052500025F0EAF9E1B2013406461AF013F8202CE1
:1052600045F8046FF3D10D4D00244FF4A66025F0EE
:10527000DBF9E1B2013406461AF076FC202C45F841
:10528000046FF2D10649074A00230B701360536084
:105290009360D36070BD00BFB464FF1F2464FF1F20
:1052A000B164FF1F1864FF1FF0B51D4C206883B068
:1052B000A0B11BF01FF988B91A4E3368002B0DDD21
:1052C00001F092F8054628B3174F184D3B6800933C
:1052D000009B2A689B1AB3F5C87F01D203B0F0BDCA
:1052E00001F076F8013001F0F3F83B680193019B7F
:1052F0002B60276801F072F8014638461BF054F91C
:10530000054638B1246801F069F8014620461AF0D4
:105310004FFCE3E720681AF00BFD356003B0F0BDE9
:105320001464FF1FAC64FF1FC485FF1FB464FF1F1C
:10533000F8B5114D05F1100755F8044B204634B16E
:1053400023685E681BF0DAF801462046B047BD428C
:10535000F2D10A4B1C683CB1236820465D681BF003
:10536000CDF801462046A8470549064B00204FF0DE
:10537000FF3208701A60F8BD1864FF1F1464FF1F25
:10538000A864FF1FD819FF1F2DE9F04701F038F876
:10539000214B38B91B780BB9BDE8F087BDE8F04761
:1053A000FFF7C6BF0122DFF880801A7001F016F8FF
:1053B000D8F8003098420746EED0184B1B78E3B976
:1053C000174EDFF86890002456F8045B28466DB14C
:1053D00099F800302341DB0708D52B68D3F800A0EB
:1053E0001BF08CF83A4601462846D0470134042C7D
:1053F000EAD1C8F80070BDE8F0870A4B1C68002CA1
:10540000DED0236820461D681BF078F83A46014636
:105410002046A847EDE700BFA864FF1FB064FF1F48
:105420001864FF1F1464FF1FD819FF1FB164FF1F0A
:105430002DE9F0410E4E346807460D4664B12368ED
:105440002046D3F804801BF059F801462046C04797
:1054500030681BF04FF838B1002F064B376008BF9B
:1054600000251D70BDE8F08130681AF061FCF3E79B
:105470001464FF1FB064FF1F014B1868704700BF22
:105480001464FF1F014B53F820007047B864FF1FDE
:10549000014B53F8200070472864FF1F2DE9F041AD
:1054A0000A4F57F820408C420DD00E46054644B1B5
:1054B00023682046D3F804801BF020F801462046DC
:1054C000C04747F82560BDE8F08100BF1864FF1FA2
:1054D00038B5044D2B78834203D00446FFF728FFEC
:1054E0002C7038BDB064FF1FF8B5D1B9114B124D07
:1054F00053F820602B78044666B143FA00F2D207D5
:1055000008D5336830465F681AF0F8FF0146304628
:10551000B8472B78012000FA04F423EA04032B7027
:10552000F8BD054A0124137804FA00F018431070FE
:10553000F8BD00BF1864FF1FB164FF1F70B5184CA1
:10554000206810B11AF0D6FFF8B9164D002455F8AE
:10555000043BE6B2184653B11AF0CCFF002130B13B
:105560003046FFF79BFF30460021FFF7BDFF0134B7
:10557000042CECD10C4C04F1800554F8040F0368A2
:105580009B689847A542F8D170BD246823682046DF
:105590005D681AF0B3FF01462046A847D5E700BF73
:1055A0001464FF1F1864FF1FB464FF1FF8B5184C84
:1055B000206810B11AF09EFF00B3164E002456F872
:1055C000043BE7B218465BB11AF094FF054601466A
:1055D00030B93846FFF762FF29463846FFF784FFA7
:1055E0000134042CEBD10C4C04F1800554F8040F69
:1055F00001211AF05FFAAC42F8D1F8BD24682368A3
:1056000020465D681AF07AFF01462046A847D4E795
:105610001464FF1F1864FF1F2464FF1F08B5FFF701
:105620008DFFBDE80840FFF7C1BF00BF064B53F830
:10563000203033B1054B1B7843FA00F000F0010035
:1056400070471846704700BF1864FF1FB164FF1F02
:10565000014B53F8200070471864FF1F014B187866
:10566000704700BFB064FF1FF0B5224C256885B0BD
:105670002DB117460E46054600F0B6FE08B905B036
:10568000F0BD20681AF03AFFA842F8D100F0A6FE5B
:10569000054620681AF02EFF38BB20681AF02AFF52
:1056A0000028ECD10AF05EF80428E8D100F0A8FE4A
:1056B00088B9114A1149124B106803900A6883FB9C
:1056C0000503A3EBE5750F4B0398186005EB450543
:1056D00001326D000A60206801243B4632462946AB
:1056E000019400941AF0E0FAC9E70AF03BF80228A6
:1056F000D3D1C4E71464FF1FC485FF1FAC64FF1F30
:10570000ABAAAA2AB464FF1F70B5214C236823B149
:105710000E46054600F068FE00B970BD20681AF01C
:10572000EDFEA842F9D100F059FE054620681AF0B6
:10573000E1FE10BB20681AF0DDFE0028EDD10AF072
:1057400011F80428E9D100F05BFE78B911490A6824
:10575000002AE2D0104B83FB0503A3EBE57505EBB4
:105760004505013A6D000A6005355AB132462946B1
:105770002068BDE870401AF0C7BA09F0F3FF0228AC
:10578000D8D170BD00F024FE013000F0A1FEEDE79D
:105790001464FF1FAC64FF1FABAAAA2A2DE9F041D5
:1057A0001A4D2B6823B18846044600F01DFE08B947
:1057B000BDE8F08128681AF0A1FEA0420646F7D1A4
:1057C00028681AF097FE01460028F1D12D201AF022
:1057D000E1FFA0B10E4C04F1800701E0A7420CD01C
:1057E00054F8045F28461AF089FE8642F6D128460E
:1057F00041461AF0D7F9A742F2D1BDE8F0814146FF
:105800002868BDE8F0411AF0CDB900BF1464FF1F4D
:105810002464FF1F70B5114E336833B10446184637
:105820000D461AF06BFEA04200D070BD30681AF031
:1058300061FE0028F9D100F0D7FD28B9294630686B
:10584000BDE870401AF07AB8346800F0C7FD2A4607
:1058500001462046BDE870401AF060B81464FF1F8E
:1058600070B5194E336833B1044618460D461AF028
:1058700045FEA04200D070BD30681AF03BFE002803
:10588000F9D100F0B1FD60B92F2D94BF00220122A3
:105890004F2D30688CBF00210121BDE870401AF007
:1058A000CBB8346800F09AFD2F2D94BF002301235C
:1058B0004F2D014688BF0022204698BF0122BDE837
:1058C00070401AF09FB800BF1464FF1F70B50E4CF3
:1058D000236823B10E46054600F086FD00B970BD71
:1058E00020681AF00BFEA842F9D120681AF002FED7
:1058F0000028F4D1246800F071FD324601462046AC
:10590000BDE870401AF05CB81464FF1F70B50E4C0F
:10591000236823B10E46054600F066FD00B970BD50
:1059200020681AF0EBFDA842F9D120681AF0E2FDD8
:105930000028F4D1246800F051FD3246014620468B
:10594000BDE870401AF04EB81464FF1F004870475D
:105950003C19FF1F004870472C14FF1FF8B50024A6
:10596000194D1A4F26462B68E1B21846013413B17F
:105970001B685B689847062C45F8046B47F8046B76
:10598000F1D1134B1348002103F5C0550C4603F524
:10599000806203F8011F9342FBD19D4200F8014B46
:1059A000F5D10D4B002103F5807243F8041F9A4294
:1059B000FBD10A4B002203F500711A601A710833FB
:1059C0009942FAD1F8BD00BF3866FF1F5880FF1F0B
:1059D0004F66FF1F5080FF1F3465FF1F507EFF1F63
:1059E000F8B50024084D094F26462B68E1B2184649
:1059F000013413B11B685B689847062C45F8046BAB
:105A000047F8046BF1D1F8BD3866FF1F5880FF1FBF
:105A1000094B0A48002130B403F5C0550C4603F584
:105A2000806203F8011F9342FBD19D4200F8014BB5
:105A3000F5D130BC704700BF4F66FF1F5080FF1F7D
:105A40002DE9F0411C4C4FF0000804F5C0574046CA
:105A5000454604F580668DB1227805EB08039A422D
:105A600000D02370013810F0FF0008BF002501347A
:105A7000B442F0D1A742ECD1BDE8F08123781A06F8
:105A800003D4002BF3D02570F1E703F03F0503F0BA
:105A90004002681E02F0FF08C0B232B1FFF7F8FC06
:105AA0001AF030FD002DE2D0DCE7FFF7EBFC1AF036
:105AB00029FD002DDBD0D5E75066FF1F30B4134D14
:105AC00080022B185B5C9A061ED000290DDD1B0698
:105AD0000BD40A182A444B1E04E012F9014D002C85
