:1000000000000320D101000065FD03001DFD030079
:100010001DFD03001DFD03001DFD03001DFD03006C
:100020001DFD03001DFD03001DFD030065FD030014
:1000300065FD03001DFD0300D5EA0300D9EA0300B6
:1000400065FD030065FD030065FD030065FD03001C
:1000500065FD030065FD030065FD030065FD03000C
:1000600065FD030065FD030065FD030065FD0300FC
:1000700065FD030065FD030065FD030065FD0300EC
:1000800065FD030065FD030065FD030065FD0300DC
:1000900065FD030065FD030065FD030065FD0300CC
:1000A00065FD030065FD030065FD030065FD0300BC
:1000B00065FD030065FD030065FD0300210F0400DD
:1000C00065FD030065FD030065FD030065FD03009C
:1000D00065FD030065FD030065FD030065FD03008C
:1000E00065FD030065FD030065FD030065FD03007C
:1000F00065FD030065FD030065FD030065FD03006C
:100100008D260400A1260400B5260400C92604009B
:1001100065FD03006912040065FD030065FD030031
:1001200065FD030065FD030065FD030065FD03003B
:1001300065FD030065FD030065FD030065FD03002B
:1001400065FD030065FD030065FD030065FD03001B
:1001500065FD030065FD030065FD030065FD03000B
:1001600065FD030065FD030065FD030065FD0300FB
:1001700065FD030065FD030065FD030065FD0300EB
:1001800065FD030065FD030065FD030065FD0300DB
:1001900065FD030065FD030065FD030065FD0300CB
:1001A00065FD030065FD030065FD030065FD0300BB
:1001B00065FD030065FD030065FD030065FD0300AB
:1001C00065FD030065FD030065FD030065FD03009B
:1001D0005C4B4CF2205210B51A804DF628121A8052
:1001E00000BF00BF3FF0C2FD574B4FF030621A60B6
:1001F000564A9A60564ADA60564B4FF470021A60BB
:10020000554B564A1A60564B1A78110703D51A787F
:1002100042F008021A70534B5349AA221A70534AEB
:10022000534B8B4204D252F8040F43F8040BF8E707
:10023000504B514900228B4202D243F8042BFAE77B
:100240004E494F4A002352F8230041F8230001335E
:10025000742BF8D14B4B4C4A802103F8011B93427D
:10026000FBD14A4B454A1A60494B8A221A70A3F5C2
:10027000805324225A70A0221A709A799207FCD5D2
:100280009A79D406FCD4434A937903F00C03082BE3
:10029000FAD1414B60221A7002331A78802AFCD1BD
:1002A0003C4B01221A715D225A719A799006FCD555
:1002B0009979384A4906FBD5384B394919600021EC
:1002C000596020231370937903F00C030C2BFAD19F
:1002D000344B354A1A60354A354C136813F4807331
:1002E00003D123604FF4A8531360324B324A1A6093
:1002F00000225A60072243F8042C304AC3F80C2D20
:1003000062B640F049F92368DA0705D52C483FF07A
:10031000FFFE2C4B2C4A1A602C4B1B785B0609D530
:10032000284C294B22689A4204D125483FF0F0FE20
:10033000002323603FF020FD44F052FD3FF012FC0B
:10034000FEE700BF0E20054030800440823F0400DD
:100350000100002B88ED00E0002008E0030000858C
:1003600002D0074000E007407826FF1FFC930500FD
:10037000400CFF1F7826FF1FE866FF1F0002FF1FCB
:100380000000000000E400E064E400E008ED00E0AC
:10039000005006400040064001E007404480044011
:1003A0000000060204800440C010070010D0034083
:1003B00014D0034014E000E01FBF02000000202022
:1003C0002186DD661CE00340A5C3945A00F0074077
:1003D000FFFFFFFFFFFFFFFFFFFFFFFFFFFFFFFF2D
:1003E000FFFFFFFFFFFFFFFFFFFFFFFFFFFFFFFF1D
:1003F000FFFFFFFFFFFFFFFFFFFFFFFFFFFFFFFF0D
:10040000FFFFFFFFFFFFFFFFFFFFFFFFDEF9FFFF23
:1004100010B5054C237833B9044B13B10448AFF33E
:1004200000800123237010BD7826FF1F000000000C
:10043000F8930500084B10B51BB108490848AFF305
:1004400000800848036803B910BD074B002BFBD0A0
:10045000BDE81040184700BF000000007C26FF1FC9
:10046000F89305007826FF1F000000002DE9F04FEB
:1004700089B00646139D149C0394012D169C049488
:100480009DF84890DDF854B00F4690461C4600F0A9
:100490009C80032B64DD032A00F3A680B3B2BAB2BA
:1004A000059303F1010A531C1BB2A4B206920793F1
:1004B0001A46ADB20FFA8AFAA31E009551461BB236
:1004C00059483BF085F81FFA88F808F1FF3536B235
:1004D0003FB22DB2B9F1000F5BD01FFA8BFB04F1D4
:1004E000FF39CDF800B02B463A4631464E480FFA58
:1004F00089F93BF07DF8CDF800B04B463A463146DD
:1005000049483BF065F8069BBDF80CB01C44013C23
:1005100024B22B4651462246CDF800B042483BF06B
:1005200067F8059BBDF81050079ACDF800B09844C5
:1005300008F1FF380FFA88F84B4641463A483BF03D
:1005400047F83A4641462B4637483AF0B5FE36481A
:100550002B462246314609B0BDE8F04F3AF0ACBE1A
:100560009CD183B28AB2059303F1010A531C1BB2DA
:100570001FFA88F80692ADB20FFA8AFA1A46079364
:10058000A8F10203009551461BB227483BF030F812
:100590009BE7BDF80C30039300933A462B46314657
:1005A000214804F1FF393BF023F80FFA89F9039B46
:1005B00000933A464B4631461B483BF009F8069BF0
:1005C0001C44013C1FFA8BFBA2E783B28AB203F101
:1005D000010A0593531C1BB206921FFA88F8A4B2B5
:1005E0000FFA8AFA079370E78AB29CB2114683B277
:1005F000059303F1010A0B4601331BB206921FFA61
:1006000088F8A21E1846ADB212B20FFA8AFA079302
:10061000A8F102038DE82400514602461BB20248AD
:100620003BF08EF951E700BFD05EFF1F2DE9F04788
:10063000161E9DF82070099DDDF828E0DDF82CC01D
:10064000DDF830A011DD002B0FDD012E0FD0012BC6
:1006500019D0CDF830A0CDF82CC0CDF828E0099500
:100660000897BDE8F047FFF701BFBDE8F087012D0F
:10067000FBD0ADB208950AB21BB201B2BDE8F0479B
:1006800007483AF0A5BF012DEFD0ADB2089533B2BF
:100690000AB2BDE8F04701B201483AF0A9BF00BF75
:1006A000D05EFF1F2DE9F04F85B004461F460020A5
:1006B0001BB2009301900DF140090F98039099E847
:1006C000000E0D46164613B20C489DF838800AB24B
:1006D00021B23CF04BFF03980F90BB1EB21E691C69
:1006E000601CCDF848B0CDF844A0CDF84090CDF8CE
:1006F000388005B0BDE8F04FFFF798BFD05EFF1F10
:1007000070B58AB044F208269DF83C4000944FF63C
:10071000FF7548F210440494019403960295144620
:1007200005460E46FFF7BEFF0E9906A83EF096FC62
:10073000164B06991648002908BF194600223DF0BD
:10074000FFFF0138201A00EBD07040100328CCBF07
:1007500080B204204119F21C12B209B20C483DF0DB
:10076000C9FF06A83EF026FC002109483DF0E4FF41
:10077000012107483DF0DAFF0E9905483EF052FA94
:1007800003483EF075FA0AB070BD00BFBA8D05008F
:10079000D05EFF1F2DE9F0472DED028B86B0B0EE45
:1007A000408A9DF844709DF840A0F0EE608A814632
:1007B000884615461E46002F5BD1043D07EE905A31
:1007C000B8EEE77AF4EEC88AC7EE287AF1EE10FAAE
:1007D000D4BFB0EE680AB0EE480AB5EE400A9FED0D
:1007E0002E7AF1EE10FA98BFB0EE470A27EE800A93
:1007F000FDEEC07A17EE904A002C1DDD44F208236E
:10080000BAF1000F48F2104118BF184644F2FF72C7
:1008100012BF4FF482630A46002000218DE80A00CF
:1008200002920390049317EE902A331F08F10201FD
:1008300009F10200FFF7FAFE27B106B0BDEC028B0A
:10084000BDE8F087A4B209F102092B1B04EB0901F2
:1008500008F10202043E1148119736B21BB209B2E8
:1008600012B2109606B0BDEC028BBDE8F0473BF02B
:1008700067B848F2104444F2082E04944FF6FF740F
:10088000CDF80CE002944FF0000E01248DE81040EA
:10089000FFF708FF91E700BF00000000D05EFF1FD8
:1008A00070B586B048F2104344F208264FF6FF7543
:1008B0000124049301930396029500940223FFF709
:1008C000B5FE06B070BD00BF2DE9F0410E4C0F4DD6
:1008D000E561984606460F462046012115463DF043
:1008E00025FF1FFA88F120463DF026FF3AB231B2CB
:1008F00020463DF0FFFE294620463EF093F9044B8A
:10090000E361BDE8F08100BFD05EFF1FD07104003D
:10091000547004002DE9F047284C294DE5610E463E
:100920000546012120469A4617461FFA86F83DF0F3
:10093000FDFEBDF8201020463DF0FEFE0FFA85F9C1
:1009400008F1FF3212B2494620463DF0D3FEADB267
:10095000394620463EF066F936B2691C324609B285
:1009600020463DF0C7FE394620463EF05BF908F1CF
:10097000010212B2494620463DF0BCFE39462046EF
:100980003EF050F9691E324609B220463DF0B2FEF3
:10099000394620463EF046F91FFA8AF120463DF0DE
:1009A000CBFE3246494620463DF0A4FE394620465D
:1009B0003EF038F9034BE361BDE8F087D05EFF1FDE
:1009C000D07104005470040010B582B01BB2BDF8A1
:1009D00010400093019413B20AB201B202483AF0F7
:1009E000AFFF02B010BD00BFD05EFF1F2DE9F04F7A
:1009F00089B08A46139C0693E31D0393159BCDF89B
:100A00001CA00027DDF848B0169E4B4DDDF850A025
:100A1000049004F1FF3905925C1E3946BC4619F872
:100A2000018F14F801EFA5F12003802206E0C1B286
:100A30001E600433AB424FEA520212D01EEA020F8C
:100A400001F10100F3D118EA020F0CF1010056D0B8
:100A5000C3F800A00433AB425FFA80FC4FEA5202B5
:100A6000ECD103F12005039B9945D8D1BC45DDF8B5
:100A70001CA05CD98C455CD2012E0DD0B2B2BDF960
:100A80001830019200930FFA8AF2BDF91430BDF9C3
:100A900010102A483AF054FF069B53449A459B464F
:100AA0003ADA059B049ADFF89C80CDF80CB01F461B
:100AB00017449346BB4527DA214D0AEA0505002D68
:100AC00030DBED005C460FFA8AF90FE02B4458F852
:100AD00023309E4207D0012B21B29BB24A461748D1
:100AE00001D03AF0E9FB0134BC420DD0144B234055
:100AF000002BEBDA013B63F007030133E6E7013734
:100B0000FFB2C3F800B094E71AF00F0F07D0039BB1
:100B10000AF1010A9A45CDD109B0BDE8F08F13F072
:100B2000D3FBF4E7013D65F007050135C9E75E46F3
:100B3000A2E7FCD9149E9FE7B426FF1FD05EFF1FDB
:100B4000070000809426FF1F2DE9F04F8BB0002591
:100B50009A461BB20446884616469DF85C70009380
:100B6000019513B20AB201B26D4808971FFA88FBCB
:100B70003CF0FCFCA2B2AAF102000992511C00B2A6
:100B80004FF482670BF10102B31E09B212B200905A
:100B90001BB201976248DFF89091A71907973AF0C6
:100BA000CFFE604A019208F10307012207980092E4
:100BB00039465346032204950295CDF80C90FFF771
:100BC00015FF584A01920334012200920323049531
:100BD000CDF80C9002952046324608EB0A01FFF74B
:100BE00005FF089B002B70D04FF6FF7944F28F234E
:100BF000102200950493019303920D23A6F1120293
:100C000039462046CDF80890FFF74CFD01214448B5
:100C10003DF08CFD099942480BF10602083112B2F1
:100C200009B23DF067FD49463D483DF085FD149908
:100C30003B483DF0F7FF3A483EF01AF80095079D13
:100C4000CDF8089048F2104B0D2344F208223946A3
:100C50000392A5F110001A46CDF810B0CDF804B0FB
:100C6000FFF720FD44F208214FF6082207230391E5
:100C7000012100910192CDF810B0CDF80890A5F1B6
:100C80000D001A4608F10601FFF7F0FB159BCBB1EA
:100C9000A3F10203B3FA83F35B0948F2104E44F266
:100CA00008274FF6FF750093169B0193B21FAAF118
:100CB000150308F112012046CDF810E003970295C4
:100CC000FFF7F0FC0BB0BDE8F08F0899009144F2FB
:100CD0008F234FF6FF751022394604930193039238
:100CE0000D23B21F20460295FFF7DCFC01210C48C2
:100CF0003DF01CFD09990A480BF10602083112B2B9
:100D000009B23DF0F7FC294605483DF015FD149960
:100D100003483DF087FF02483DF0AAFFB6E700BF59
:100D2000D05EFF1F54AA0400206B04002DE9F04F91
:100D300087B01478049201909DF8402003914FEA07
:100D4000530A002C43D1002A3ED0531EDBB201339C
:100D50001FFA80FB0593DFF8449102940BF1010325
:100D600001940093BAF1000F25D0019B039A9F18BC
:100D7000049B029A3FB203EB0208002618F8015FB9
:100D800045487400A4B22B1104EB0B0109B239F8E9
:100D900023303A463AF090FA009B3F4805F00F05A1
:100DA000E118013639F8253009B23A463AF084FAAA
:100DB000F3B29A45E2D8029A019B52440292059AF4
:100DC000013393420193CDD107B0BDE8F08F012CE0
:100DD000FAD1D90812FB01F10131002AF4D0531ED7
:100DE0004FF0000BDBB20133A0465D465C46CDF808
:100DF00000B0DDF810B005930291BAF1000F1ED0DB
:100E0000039B009A13441BB20493029B00260BEB36
:100E100003071DB91BF8084008F10108220617F85E
:100E2000019B2AD46400E4B2230614D40136F3B241
:100E3000640002359A45E4B205F00705E9D8029A44
:100E4000009B52440292059A013393420093D4D1FD
:100E500007B0BDE8F08F019B039A0F48591C009B17
:100E600009F00F099A180D4B01EB460133F82930B0
:100E700009B212B23AF020FAD8E7019A064802EB1A
:100E800046014FEA2913054A09B232F82330049A81
:100E90003AF012FAC6E700BFD05EFF1F707104007F
:100EA0002DE9F04F8FB015789DF860609DF8644093
:100EB000002D7CD1002C7AD01F460493631EDBB238
:100EC0000D917108924609914A1E591CC7F30733C8
:100ED000D2B20393C7F303130A910593511C07F091
:100EE0000F03C7F303220C90AB460B9107950892B2
:100EF0000693CDF800A0099B002B50D0079B0D9ABC
:100F0000BDF830900B99DFF8B0809F18009A134617
:100F10005B4401EB0B0AA9F102010193029109F173
:100F2000FF393FB21E46924428E0069A059999423D
:100F300008BF1346039AAA422FD0069A0599A942E0
:100F400008BF1546009A1B4838F82330B4B2CBEBE3
:100F50000401891A029A02EB410109B23A463AF0B9
:100F6000ABF9019B1348E11A09EB410109B238F8CA
:100F700025303A463AF0A0F9564510D016F8015FF0
:100F8000049A2B0905F00F05002ADBD0039A9A4238
:100F9000CBD1039A089BAA42CFD1089DD2E7099AE8
:100FA000079B93440A9A013393420793A3D10FB04E
:100FB000BDE8F08FD05EFF1F7071040008B50168B6
:100FC000044B0548002908BF194600223DF0B8FB34
:100FD000013808BDBA8D0500D05EFF1F002844F21D
:100FE000082018BF0020704708B50021092032F002
:100FF000F3F800B908BD044B0222187840F6AC5152
:10100000BDE808403DF0ECBE9C27FF1F08B500215D
:10101000092032F0E1F800B908BD044B022218782B
:1010200040F6B831BDE808403DF0DABE9C27FF1F0E
:1010300008B50021092032F0CFF800B908BD044BF3
:10104000022218784FF4FA61BDE808403DF0C8BEAE
:101050009C27FF1F10B500210446092032F0BCF880
:1010600060B1074B002C41F20401187808BF4FF41F
:101070007A610222BDE810403DF0B2BE10BD00BF53
:101080009C27FF1F10B500210446092032F0A4F868
:1010900068B1074A41F2941141F230131078002CE4
:1010A00008BF19460222BDE810403DF099BE10BDB0
:1010B0009C27FF1F2DE9F04F8BB0804609910B2034
:1010C000002192461C4632F087F8002106460C208B
:1010D00032F082F8002107460D2032F07DF8002121
:1010E00081460E2032F078F8002183460F2032F03E
:1010F00073F8344D344B55F8292053F8200053F839
:101100002B1055F8273055F8265003900191049282
:10111000029352462346099900954046FFF766FC24
:101120000021102032F058F8012802D00BB0BDE8A1
:10113000F08F099BDFF898B000264FF0BA092344DE
:101140000893CDF818903546374609F14603DBB2CF
:101150000793069A089B9342E8DDCDF818906B241C
:1011600012E02B466D081F420BD0A04508EB0A0386
:1011700007DC9C4205DA099B4B4502DC089B4B458A
:1011800018DC0134EB2C09D0A4F16B035A07E8D129
:101190001BF80670402501368023E4E7079B1B07F8
:1011A00005D009F10109B9F59B7FCED1BEE713F057
:1011B0008BF8F6E700230FFA89F221B203483AF0E0
:1011C0007BF8DEE7707104005CAA0400D05EFF1FAC
:1011D000E0A104002DE9F04F052397B0013BFDD1BC
:1011E00000210C465548DFF864B1DFF864A13AF0FD
:1011F000E3FDA1462546A046264623462746A2B241
:10120000D10700F1918052081BF802703A09002BB7
:101210006AD102F007014A48415C12073AF821807E
:101220005FD4012633462B44E02B65DC05F1080131
:1012300009B21D4609F11A02CDF8008012B23346F8
:101240003E483AF0D5F9E02D71D00023013445F243
:101250000E329442D3D106A83A493DF0EBFE0A2261
:1012600002A802213DF02CFF02A906A83DF0EEFFE6
:1012700035493DF0F3FF0A22044602210AA83DF059
:101280001FFF0AA920463DF0E1FF2F493DF0E6FF90
:101290000A22044600210EA83DF012FF0EA92046A6
:1012A0003DF0D4FF014612A83DF0D8FE12AA44F248
:1012B00008234FF49D710020FFF706FB12A83DF0B4
:1012C00079FE0EA83DF076FE0AA83DF073FE02A856
:1012D0003DF070FE06A83DF06DFE17B0BDE8F08F42
:1012E00016010133DBB2B1E7012BF9D01644F6B297
:1012F00033462B44E02B99DDA9B2C1F1E00309F19B
:101300001A022035083109B21BB212B20B48CDF8CF
:1013100000802E443AF06CF9F6B201208144354643
:101320003FF0E8F8082185E707F00F026FE701209A
:10133000002581443FF0DEF82B4687E7D05EFF1F93
:1013400030710400247104007CF10400F471040085
:10135000707104002DE9F04F85B0002502900391D3
:10136000AB46AA462F462C462B46A946AAB2D10721
:101370005CD452082F4911F802904FEA1912002B41
:1013800031D12D4802F007011207415C2B4830F89B
:1013900021B025D4012423463B44BE2B2BDCBDF8D1
:1013A0000880BDF80C60B9B21F4606EB0A02414442
:1013B000234612B209B2CDF800B021483AF018F92C
:1013C000BE2F03BF00270AF1010A3B460023013567
:1013D00040F6C2429542C9D105B0BDE8F08F140174
:1013E0000133DBB2F3E7012BF9D01444E4B2234616
:1013F0003B44BE2BD3DDBDF80880BDF80C60CDF8B2
:1014000000B0BBB2423708EB030106EB0A023C44D2
:10141000C3F1BE0309B21BB212B20948E4B23AF0FA
:10142000E7F80AF1010A27460021BEE709F00F029A
:10143000A5E700BF7C9B04004871040070710400A4
:10144000D05EFF1F2DE9F04F814687B08A461846CF
:101450005A491D4617463DF033FF18B1012007B029
:10146000BDE8F08F044601215548564E3DF05EF927
:10147000BDF8441052483DF05FF9294602A83DF0FE
:10148000EDFD02994E48002908BF314622463DF045
:1014900057F900F1FF3802A83DF08CFD47452BDBE2
:1014A000109B012B17D0022B7FD1C8EB0707002F11
:1014B000ACBF09EB070109F1000109B20FFA8AF28A
:1014C0003F483DF017F929463D483DF0ABFB012070
:1014D00007B0BDE8F08FC8EB070707EBD7777910A7
:1014E0000029ACBF494409F1000109B20FFA8AF2A0
:1014F00033483DF0FFF8E6E7334902A83DF09AFD96
:1015000002992F48002908BF314622463DF018F9BC
:101510005FFA80FB02A83DF04DFD019626461EE0D5
:101520003DF012FF017802A83DF0DEFD019B02991B
:101530002348002908BF194600223DF001F98046E2
:1015400002A83DF037FD08F1FF30C0B20219CBEB25
:1015500007039A4200F101000ADA044401363146D9
:1015600028463DF0F1FE037831462846002BD7D1BE
:101570000FFA8AF20FFA89F111483DF0BBF8002406
:1015800056B1214628463DF0DFFE013401780C4873
:101590003DF068F8A642F4D101220B4908483DF01D
:1015A0002BFB002007B0BDE8F08F0FFA8AF20FFA8C
:1015B00089F103483DF09EF885E700BF08F3040079
:1015C000D05EFF1FBA8D0500980A05002DE9F04393
:1015D00087B00F4C0E9E0F9F0E4DE5618846054665
:1015E0009146194602A83DF039FD02AB4A464146F4
:1015F0008DE8C0002846FFF725FF054602A83DF00C
:10160000D9FC054BE361284607B0BDE8F08300BF75
:10161000D05EFF1FD071040054700400F8B50A2496
:10162000002517203EF0B0F8054405203EF062FF8B
:10163000631E13F0FF04F4D17A4B7B4A83FB05133E
:10164000ED171178C5EBA3058D4202DB53789D425F
:1016500074DD764B1B78012B73D0DFF83CE27449C4
:10166000744F754B754D764E764C7748774A4FF0F0
:10167000050C8EF800C04FF01F0E4FF01C0C81F8C7
:1016800000E087F800C02021DFF810E2197002277F
:101690004FF0040C2F7086F800C06D496D4F6E4BF3
:1016A00019264FF0090C26708EF800C003256B4EEA
:1016B00005704FF00A0E4FF0060C81F800E087F835
:1016C00000C0674DDFF8D8E166481A2400214FF0CA
:1016D0000F0C1470197086F800C0634C6349644A9B
:1016E000644B07274FF00E0C2F7010260825624F11
:1016F0008EF800C04FF0210E0570267081F800E0D2
:101700005E485F4D5F4E11244FF0230E147022216E
:101710005D4A87F800E02427197007705B4C5C492C
:101720005C4B252726202F7010701D271E251820A2
:101730001B223770257008701A70F8BD3B4B0122D0
:101740001A70DFF854E13A493A4F3B4B3B4D3C4E5F
:101750003C4C3D483D4A4FF0180C8EF800C04FF00D
:101760000A0E4FF0000C81F800E087F800C002215B
:10177000DFF828E119700E274FF0280C2F7086F83B
:1017800000C03349334F344B0F264FF0240C2670E2
:101790008EF800C02925314E05704FF0230E4FF012
:1017A000190C81F800E087F800C02D4DDFF8F0E05B
:1017B0002C48102425214FF0200C1470197086F845
:1017C00000C0294C29492A4A2A4B22274FF0260CCF
:1017D0002F701F262125284F8EF800C04FF0090ECC
:1017E0000570267081F800E02448254D254E1E2402
:1017F0004FF0070E14700821234A87F800E00627EF
:1018000019700770214C2249224B052704202F70A4
:1018100010701D271C2515201622377025700870A2
:101820001A70F8BD67666666200DFF1FAF27FF1FA1
:10183000AB27FF1FB027FF1FA727FF1F9A27FF1FF8
:101840009F27FF1F9827FF1F9B27FF1FAD27FF1F05
:10185000B127FF1F9E27FF1FAA27FF1FA327FF1FD8
:10186000A027FF1FA227FF1FA427FF1FA127FF1FDD
:10187000A527FF1F9427FF1FA627FF1FA827FF1FCD
:101880009627FF1F9927FF1FAE27FF1FA927FF1FBE
:101890009727FF1F9527FF1F9C27FF1FAC27FF1FC0
:1018A0009D27FF1F014B1878704700BFAF27FF1F10
:1018B0002DE9F04F002089B003F0FAFD002103F07C
:1018C00015F848F2104183467A483AF075FA202319
:1018D0000A2100930846784A0026FFF727FA77493D
:1018E00004A83DF0A7FB04AB6422232101960096D7
:1018F0003220FFF7A7FD04A83DF05CFB6F4904A868
:101900003DF098FB04AB642223210196009633201E
:10191000FFF798FD04A83DF04DFBE8222C210420A0
:10192000FEF7BEFF664904A83DF084FB04ABDC2251
:101930003221019600960A20FFF784FD04A83DF0AD
:1019400039FB604904A83DF075FB04ABDC223A2169
:10195000019600960A20FFF775FD04A83DF02AFBCA
:10196000594904A83DF066FB0196009604ABDC22C1
:1019700042210A20FFF766FD04A83DF01BFB01236E
:1019800003930323029348F2104300932422072376
:1019900042218720FFF718F8029B032B00F0888074
:1019A000029B022B0CBF4949494904A83DF042FB68
:1019B00004ABDC224221019600968720FFF742FD0E
:1019C00004A83DF0F7FA0021012002F0DFF9029BA4
:1019D000DDF80C80C3F34009002748F2104A0723C2
:1019E000062232218720CDF800A0FEF7EDFF394B0B
:1019F000FDB2A3FB0534A40821460A2204A83DF049
:101A00005FFB04ABDC223221019600968720FFF7B2
:101A100019FD04A83DF0CEFA04EBC40407230C2200
:101A20003A218720CDF800A0FEF7CEFFA5EB4401B8
:101A3000C9B20A2204A83DF043FB04ABDC223A21E0
:101A4000019600968720FFF7FDFC04A83DF0B2FA4E
:101A500028460122594602F095FA42464946284650
:101A600002F044FC05F130019FED1B0AC9B2284683
:101A700002F0F6FA0121284602F0B8FBFA203EF007
:101A800039FD01372846002102F0B0FB242FA4D1F4
:101A90004FF47A703EF02EFD029B039A013B82F0D8
:101AA000010213F0FF03039202933FF468AF6AE769
:101AB0000A497AE7D05EFF1F48AB0400DCAA0400A5
:101AC000ECAA040000AB040018AB040038AB04001F
:101AD00040AB0400398EE3380000000030AB040056
:101AE0002DE9F04FADF51D7D0023838005900E4656
:101AF000174619460DF276200DF11E0323F8061C39
:101B000023F8041C23F8021C06339842F6D1002166
:101B100058482FF053FBA6F10F02A7F10F0344F230
:101B20008F2912B21BB2049236B203933FB2CA4657
:101B300048F210484FF01E0B1E23039A04994E489A
:101B4000CDF80480CDF800B039F0FAFE10230093F0
:101B50003A460523314648483AF0ECFD0121454814
:101B60002FF02CFB0F2425B22B463A463146424833
:101B7000CDF800A03AF062FC32203EF0BBFC2B46D0
:101B80003A4631463C48CDF800803AF057FC394897
:101B90002FF008FB013CA4B208B1052CE3D1354875
:101BA0002FF000FB0028C7D00025002000212C4684
:101BB0000BE0642DC3F3C70035D042F053FD41EC78
:101BC000100B40F065FE51EC100B00222B4B42F045
:101BD000FDFB43F05DF80FFA80FB3A465B46314669
:101BE0002548CDF800903AF029FC06AB05EB4500FE
:101BF00003EB40001F4936F071FF0A203EF07AFCEB
:101C00005B463A4631461C48CDF800803AF016FC57
:101C100018482FF0C7FA0134194BE4B2A3FB042390
:101C200001350028C5D1632C84D94FF480633A462E
:101C300031460093104805233AF07CFD002206ABA4
:101C400011469CADB3F90040B3F9020006339D4242
:101C500021440244F6D10B4BA3FB01010598A3FBE1
:101C600002235B094A09028043800DF51D7DBDE812
:101C7000F08F00BF645EFF1FD05EFF1F00001840A2
:101C8000CDCCCCCC1F85EB5110B52DED028B8AB09D
:101C90008DE80C0002AB83E80300BDF900309FED36
:101CA000576A9FED570ADFED574ADFED572A9FED40
:101CB000573A574807EE903ABDF9383005EE103ADA
:101CC000BDF90A3004EE103ABDF9023007EE103AC1
:101CD000BDF93A30F8EEE77A05EE903AB8EEC55A1B
:101CE000BDF90830C7EE860A04A9C5EE067A06EEED
:101CF000903AB8EEC44AB8EEC77AF8EEE55A84EEE8
:101D0000065AC7EE068AF8EEE66A85EE867AC6EED1
:101D1000865A30EEE78A78EEC71A68EE456A27EEF3
:101D2000E86AE5EEA16AA0EE876AB7EE002A76EED1
:101D3000866AF0EE463A82EE264A27EEC56A75EECE
:101D4000E77AA5EE876A35EE477A20EEC52A27EEB8
:101D5000447A61EE841A67EE847A27EE241A27EE1D
:101D6000007A66EE446A23EE846AF0EE423AB2EEFE
:101D70000E2A28EE448AA1EE821AA1EE827A67EE3C
:101D8000A41AE5EEA83A67EE807A66EEA44A66EEFB
:101D9000806AE8EE021A35EE685AE6EE024AE6EE8E
:101DA000026A75EEE05AE8EE027A25EE045A23EE56
:101DB000846A65EEC45AB0EE414AA5EE224AA5EE09
:101DC000037AB0EE615AA5EEA25AE6EE224AE5EE9B
:101DD000837AE6EE036A8DED044A8DED077A8DED88
:101DE000055ACDED064ACDED087ACDED096A2FF002
:101DF000F7F90AB0BDEC028B10BD00BF00007A44B9
:101E00000000344300005143000060430000994348
:101E1000645EFF1F2DE9F04FA1B001ABDFF84C93DA
:101E200007931CAC48F21041C2480025012639F046
:101E3000C3FFC14920463DF0FDF82346F022422170
:101E4000019528460096FFF7FDFA20463DF0B2F8CE
:101E5000BA4920463DF0EEF82346F0224A2101958A
:101E600000962846FFF7EEFA20463DF0A3F8B44965
:101E700020463DF0DFF82346F022322101950096FE
:101E80002846FFF7DFFA20463DF094F80F2211466E
:101E90000CA8FFF725FE082748F2104332220193D1
:101EA0002946F0230097A34839F04AFDA54920466A
:101EB0003DF0C0F82346F0223221019500962846D5
:101EC000FFF7C0FA20463DF075F8B422D1210EA8E4
:101ED000FFF706FE48F2104332220097019329468D
:101EE000F023944839F02CFD974920463DF0A2F8A4
:101EF0002346F0223221019500962846FFF7A2FAE8
:101F000020463DF057F84FF49972E02110A8FFF7F2
:101F1000E7FD10AB93E803000EAB0CCB00900798E5
:101F200001800CA903C9FFF7AFFE294687482FF0AF
:101F300045F9874920463DF07DF82346F02264218B
:101F4000019500962846FFF77DFA20463DF032F8CD
:101F5000804920463DF06EF82346F0226C21019521
:101F600000962846FFF76EFA20463DF023F87A499E
:101F700020463DF05FF82346F0227421019500963B
:101F80002846FFF75FFA20463DF014F873492046D3
:101F90003DF050F82346F0227C210195009628461A
:101FA000FFF750FA20463DF005F84FF6FF7344F274
:101FB000082248F21041049103920293C82201932F
:101FC0009621642314200096FEF76CFB644920469A
:101FD0003DF030F80D234022FE219C208DE830009A
:101FE000FEF78EFB20463CF0E5FFD9F80030099360
:101FF000DDF82480AA461E2754482FF065F953497E
:1020000012A82FF0C3F85148BDF948B0BDF94A6095
:102010002FF0BAF8012877D071D3032830D1002DE2
:1020200000F0D280BAF1000F00F0D080ABF11603BF
:102030009BB2C32B24D8A6F198039BB25F2B1FD869
:102040004FF40043009652462946019339485B46B7
:102050003AF09CFBB2465D460026D9F800300A9360
:102060000A9BDFF808B1C8EB0303B3F57A7F09D206
:10207000002EC1D035482FF0BDF821B0BDE8F08F5B
:102080000026EAE7082348F21042019200937C22DE
:10209000F02300212748013F39F052FCFFB23149BB
:1020A00018A83CF0C7FF394614A83CF0F5FF14A966
:1020B00018A83DF0CBF82C493DF0D0F80146204659
:1020C0003CF0CCFF00200123F0227C210093019002
:1020D0002346FFF7B7F920463CF06CFF14A83CF00C
:1020E00069FF18A83CF066FFDBF800300B93DDF8C1
:1020F0002C80002EBED1002F7FF47EAF92E64FF0F1
:10210000000A55465646A8E71FFA8BF3A3F11602BC
:10211000C32A2DD8A6F1980292B25F2A28D8324657
:102120004FF4004359460348B2465D4639F0C4F8BF
:10213000002692E7D05EFF1F4CAD040070AD040096
:102140008CAD0400ACAD0400CCAD0400645EFF1F98
:10215000ECAD040010AE040038AE04005CAE040028
:1021600070AE040074AE0400782D05003C63FF1FC0
:102170009C3B352B84D8FE3EB6B20C2E80D8144939
:10218000204601263CF056FF0D234022FE218DE81B
:1021900050009C20FEF7B4FA20463CF00BFF0021D3
:1021A0000C482FF00BF80A4920463CF043FF00236F
:1021B000019300940D234022FE219C20FEF7A0FAFB
:1021C00020463CF0F7FE48E72E4646E7564644E7F1
:1021D00070AE0400645EFF1F064B1B6810B504461A
:1021E00013B1184618F012FB2046BDE8104003F06A
:1021F000E9BC00BF0860FF1F70B50E4E0E4D307871
:102200000E4C01213EF04CF9287801213EF048F9AE
:10221000207801213EF044F9307800213EF02CF97D
:10222000287800213EF028F920780021BDE8704090
:102230003EF022B9A327FF1FA427FF1FA527FF1FDA
:1022400010B50C4B044600F0010118783EF014F96B
:10225000094B04F0020118783EF00EF9074B04F028
:10226000040118783EF008F9054BBDE810401878D5
:102270003DF08ABAA327FF1FA427FF1FA527FF1F32
:102280009D27FF1F70B50646FFF7DAFF154B054681
:102290000021985D30F0ACFF134B04460021985D9F
:1022A00030F0A6FF2D1B001B07EE900A07EE105A18
:1022B000F8EEE77AB8EEC77AB7EE000AC7EE276AFB
:1022C000F4EEC06AF1EE10FA00D470BDF5EEC06A0B
:1022D000DFED067AF1EE10FA8CBFB0EE660AB0EED2
:1022E000670A70BD3C0DFF1F440DFF1F000000007A
:1022F00000B583B00191FFF7C5FF019907EE901A71
:10230000F8EEE77AF7EE006A86EEA77A013907EE73
:10231000901A80EE070AF8EEE77AB4EE670AF1EE5B
:1023200010FA48BFF0EE407AF5EEC07AF1EE10FAFE
:102330008BBFFDEEE77A0023CDED017A0193019882
:1023400003B05DF804FB00BF10B50C46FFF79AFF21
:10235000F6EE007AB4EEE70AF1EE10FAACBF012017
:1023600000200CB180F0010010BD00BF064B002220
:1023700003F1300001211A7059705A609A70DA70B6
:1023800008338342F7D170474C0DFF1FFFF7EEBFB4
:10239000074901EBC00310B40022012401F83020EA
:1023A0005C709A70DA705A605DF8044B704700BF39
:1023B0004C0DFF1F084B7F2203EBC00029B9817829
:1023C0005D39C9B2892001F05DB981785D39C9B242
:1023D000992001F057B900BF4C0DFF1F10B5114CEB
:1023E00004EBC004A3789B0701D549B910BDA1B97E
:1023F00006F0A2FA0028F9D0BDE8104006F0BAB8FD
:1024000006F09AFA0028F7D1A07880F00400C0F313
:102410008000BDE8104006F02DB906F08DFA0028C6
:10242000E4D1F1E74C0DFF1F10B50C4606F084FA1D
:1024300020B11CB1BDE8104006F058B910BD00BF76
:102440002DE9F041304F002482B03D46A04617F8F8
:102450003430E6B2D3B1012B20D0E978304601F018
:102460000101FFF771FF6B68002814BF7F22002273
:102470009A420BD06B786A60013B032B06D8DFE8E9
:1024800003F0382E240208B106F0BAF80134062C05
:1024900005F10805DBD102B0BDE8F08130468021AE
:1024A000FFF726FF6B6898420646EFD0EB78697815
:1024B000A878CDF80080F2B26E60013405F0E2FE3B
:1024C000062C05F10805C2D1E5E701460134304686
:1024D000FFF784FF062C05F10805B8D1DBE70146BC
:1024E00001343046FFF7A0FF062C05F10805AED1F8
:1024F000D1E7014601343046FFF75CFF062C05F1B9
:102500000805A4D1C7E700BF4C0DFF1F014B03EB2B
:10251000C00070474C0DFF1F034B13F83000003014
:1025200018BF0120704700BF4C0DFF1F70B5074C4E
:10253000002604F51075A17826700B0602D4607889
:1025400003F0B6F90C34AC42F5D170BDB427FF1FCF
:10255000114A70B4FF2002F5806600214FF07E55CD
:102560000324134603F83C0D1871996019731D611B
:1025700003F8144F9342F7D103F14002B242F0D175
:10258000002306491A46CA540C33B3F5107FFAD11A
:1025900070BCFFF7CBBF00BFB80DFF1FB427FF1FF4
:1025A00038B5154C04F5107506E014F8030C03F06B
:1025B0007FF90C34AC421DD014F8042C531EDBB24E
:1025C000002AF6D004F8043C002BF2D114F8023CA7
:1025D00013F0800F1946E8D0227994ED000A14F820
:1025E000030C03F07F010C3414F80D3C03F0BCFC29
:1025F000AC42E1D138BD00BFB827FF1F2DE9F0473D
:102600002DED028B294E884600239C012749355D1C
:10261000954203F1010305D0102BF6D1BDEC028BDE
:10262000BDE8F087224D04F13C060746B0EE408A33
:10263000A9460E440C44A8F1800A2379FF2B21D02F
:10264000D4F808E0BEF1000F23DD00210A4602E0C5
:102650000132302A16D0685C0C310028F8D102EB28
:102660004202D4ED047A217B09F822E067EE887AF1
:1026700009EB82025144207D5770D3709170C2EDF6
:10268000017A10721434B442D7D1BDEC028BBDE88C
:10269000F087217B94ED040A227D4144C9B228EEE3
:1026A000000A384603F060FCECE700BF7C0DFF1F1A
:1026B000B427FF1F2DE9F8431D4E884600239C01D7
:1026C0001B49355D954203F1010303D0102BF6D170
:1026D000BDE8F883174D04F13C060746A9460E44B1
:1026E0000C442379FF2B16D0A068002818DD0022A7
:1026F000134602E00133302B0DD0A95C0C320029C7
:10270000F8D103EB4303227B09F8230009EB830391
:1027100042445F709A701434B442E2D1BDE8F88349
:10272000217B4144C9B2384603F0C2F8F3E700BF49
:102730007C0DFF1FB427FF1F0F289ABF024B03EB2E
:1027400080100020704700BF7C0DFF1F034B8001ED
:10275000185CFF3818BF0120704700BF7C0DFF1FB9
:102760000B4B8101FF2230B408465A543C311944C6
:1027700018444FF07E5500230324027183600373D5
:10278000056100F8144F8842F7D130BC704700BF94
:102790007C0DFF1FFFF7E4BF8001054B01EB8101BA
:1027A00000EB810119440879FF3818BF01207047F8
:1027B0007C0DFF1F80010A4B01EB810100EB8101C1
:1027C000194410B40023FF2403224FF07E500C71F3
:1027D0000A750B7308618B605DF8044B704700BF8E
:1027E0007C0DFF1F30B5094D094C2B68226883B062
:1027F0000093009B9B1AB3F5FA7F05D311F056FDA9
:102800002B680193019B236003B030BD3C63FF1F25
:10281000102AFF1F014B18783DF036BCA727FF1F79
:10282000064B074953F82020096810B4002443F8E8
:10283000204001FB02F05DF8044B7047042AFF1FA3
:102840008011FF1F08B538B1074B18783DF01AFE0C
:10285000B0FA80F0400908BD044B18783DF012FE34
:10286000B0FA80F0400908BDAE27FF1FA627FF1F62
:102870000346024A0021105CD1547047FC29FF1F17
:10288000064A13780F2B07D810B4591C044C11704A
:1028900044F823005DF8044B704700BFF829FF1F80
:1028A000142AFF1F70B5044680B3224E224D3378A0
:1028B00055F82300844236D0FF2B19D133701F4BBB
:1028C000187868B12B689C422ED01B4A002303E085
:1028D00052F8041F8C4210D00133DBB28342F7D18F
:1028E0001749184A00230B604B601370537070BD7A
:1028F000002130F04FFFFF23E0E7FF2B3370EFD0D4
:1029000055F82300012130F045FFE9E7094D2B7808
:10291000FF2B0CD0084A214652F8230030F03AFF32
:10292000FF232B70DCE770BD00233370E8E72B70CA
:10293000D6E700BF7C11FF1F142AFF1FF829FF1FD5
:10294000042AFF1FFC29FF1F054B1B78834202D876
:102950000020FFF7A7BF034B53F82000FFF7A2BFEB
:10296000F829FF1F142AFF1F70B5FF20FFF7ECFFA7
:10297000094E0A490A480B4C0B4B0022FF250A70EE
:102980004A70026042603270257003F1400143F8E2
:10299000042F8B42FBD170BDF829FF1FFC29FF1FBC
:1029A000042AFF1F7C11FF1F102AFF1FF8B5264EB7
:1029B000377887B1254D2B68834201463DD02B46A1
:1029C000002403E053F8042F8A4205D00134E4B216
:1029D000BC42F7D1F8BDF8BD0846002130F0DAFE60
:1029E000FF2C2FD030780138C0B2A042307088BFA1
:1029F000234607D95A1C55F8221045F82310D3B2A4
:102A00009842F7D8124A13780021FF2B45F820107E
:102A100012D0A34203D0DED9013B1370F8BDFF23CF
:102A200013700028D7D00138A042A8BF2046C0B2FA
:102A3000BDE8F840FFF788BFF8BD002130F0AAFEDE
:102A40000024CFE7F8BD00BFF829FF1F142AFF1F9D
:102A50007C11FF1F2DE9F04F594C81B03DF026FD50
:102A60002368C01A632802D801B0BDE8F08F3DF09A
:102A70001DFD544F544EDFF868A1DFF868912060C7
:102A80000025BB46A8461AF8010B36F8024B3DF06C
:102A9000F9FC40EA440080B2B0F5704F4DD026F802
:102AA000020C0135042D0BF1040BECD1474D2B78B2
:102AB000002BD9D0464E3A683368002403FB02F35A
:102AC000A3423C6043DD0120FEF7C4FA414B1A7873
:102AD000FF2A71D12B784FF001089C4258D3204631
:102AE000FFF732FF7B683468002004FB03F4786052
:102AF000002CB9D0374E3378FF2BB5D02A789A42C4
:102B000084BF354A52F8230030F05EFE0028ABD077
:102B1000002CD4BF00200120FEF7B4FA33782A78C5
:102B20009A4223D92C4A52F8230003685B6B214652
:102B3000012201B0BDE8F04F1847012D26F8028CA4
:102B400017D909EB0503012103F8021CA9E7C9D035
:102B50002046FEF77FFA1F4B1A78FF2A26D0FF2364
:102B60004FF0FF38D418E4B22B78B6E700231B6887
:102B7000FFDE1A4B585D3DF085FCDBF80030002885
:102B80000CBF4FF0FF3101210B44CBF8003088E738
:102B9000DFF8449059F8240030F016FE00289ED14A
:102BA00044442B78E4B2A34299D9F3E72B785C1E16
:102BB000E4B24FF0FF3890E701239846D2E700BF18
:102BC0000C2AFF1F042AFF1F8411FF1FF829FF1F73
:102BD0008011FF1F7C11FF1F142AFF1F002AFF1FF7
:102BE000F429FF1FFC29FF1F2DE9F047474FDFF8AD
:102BF0004C913878464C474EDFF84481464D0021D1
:102C00003DF04EFC99F8000000213DF049FC207891
:102C100000213DF045FC307800213DF041FC98F862
:102C2000000000213DF03CFC287800213DF038FCFC
:102C3000FEF738FE002845D1DFF808A101469AF8D2
:102C400000003DF02DFC9AF80000344902223DF0CE
:102C50009FF9334B334999F8000098F800C0327857
:102C6000187083F801C03048304B97F800E02678A0
:102C70002F784A7000254FF6FF72056081F800E05A
:102C8000CF708E701A805A809A80DA80FFF7E2FE49
:102C90002078214C3DF0F6FBD8B10021312030F0F6
:102CA00089FA234C002814BF4FF0FF33012323601F
:102CB000FEF7F8FD10B123685B422360BDE8F047E2
:102CC000FFF752BE1B4B1549187802223DF060F900
:102CD000BFE720783DF0D6FB04460028DDD1164B37
:102CE0004FF4FA7218784FF47A713CF079F8214673
:102CF000312030F05FFA80F00101C9B22246312064
:102D000030F08AFA30F03AF9C7E700BFA127FF1F79
:102D1000A627FF1FA827FF1FAE27FF1FE5270000DC
:102D2000002AFF1FF429FF1F0C2AFF1F8411FF1F19
:102D30008011FF1FA727FF1F9C27FF1F9427FF1F3E
:102D40009627FF1FB027FF1F0020FFF7ABBD00BF76
:102D5000054B064A1B7812789A4286BF044A52F8FD
:102D600023000020704700BF7C11FF1FF829FF1FC0
:102D7000142AFF1F034A044B10781B78834298BF24
:102D8000FF2070477C11FF1FF829FF1F38B505464B
:102D90000024E0B20021013402F0E6FD102CF8D14D
:102DA00004F0E0FC2846BDE8384005F035BE00BF21
:102DB000014B1878704700BF9A2AFF1F014B002271
:102DC0001A7070479A2AFF1F38B505460024E0B2F2
:102DD0002946013402F0C8FD102CF8D10549064BF4
:102DE00000220A8003F1400123F8022F8B42FBD11D
:102DF00038BD00BFA42AFF1F522AFF1F2DE9F04152
:102E0000002705460E463C4602E00137102F1AD037
:102E10005FFA87F8404602F05BFBA842F5D14046D6
:102E2000314602F0A1FD094A380202F1400132F9AF
:102E3000023F03F47F43984208BF14808A42F6D1D0
:102E40000137102FE4D1BDE8F08100BF522AFF1FE7
:102E50000E28F8B51F4604460D461F4B12DC48BB32
:102E60001B88DB0715D4204602F032FB06462946B4
:102E7000204602F01DFD324629462046FFF71AFC87
:102E80001FBBF8BDB3F90030002B4FF00F04EADA96
:102E90002046124A002302E00133202B0FD032F9E2
:102EA000021F0029F8D101350D4A05EB002022F858
:102EB0001300F8BDB3F900300341DA07E9D409285B
:102EC000D1D105F15D06F6B2D1E729462046BDE82D
:102ED000F84004F039BA00BFA42AFF1F522AFF1F8E
:102EE000542AFF1FFFFFFFFFF0B52DED028B83B0CB
:102EF0000192002A5ED00E2804460D461E4642DC92
:102F000000285ED1002E41D1DDED017A9FED407A9F
:102F1000F8EE677AF4EEC77AF1EE10FA42D517EEC2
:102F2000900A41F0B1FB41EC100B3FF0A1FD2046AF
:102F3000B0EE408AF0EE608A00F004FDF8B9092C8A
:102F400033D105F15D07FFB22DA3D3E9002351EC86
:102F5000180B41F017FD41F0E3FE08EE100A00EEF9
:102F6000100A032229462046FF2302F0FDFFB0EE9F
:102F7000480A3A4629462046FFF740FB46BB03B0C5
:102F8000BDEC028BF0BD0F24002EBDD005F0E6FC99
:102F90000028B9D005F0E8FCA042B5D1012005F029
:102FA00069FBB1E79FED180BBFE7204602F090FAEE
:102FB0000746C9E703B0BDEC028BBDE8F040FFF760
:102FC00047BF09289ED1A1F123032E2B9AD9D6E71A
:102FD000204600F095FCDFED0E7A28EE000A294627
:102FE00020EE270A2046FCEEC07ACDED017A9DF84E
:102FF000042003B0BDEC028BBDE8F04004F010B932
:10300000422E6094726013400000000000C05F40D8
:103010000000FE420E2870B5D4BF04460F241646A9
:1030200020460D4605F090F806B970BD29462046A9
:10303000BDE8704004F094BA0E282DE9F041C8BFF5
:103040000F241F46424BD4BF0446204678291970EE
:1030500055D026D979290BD07B294AD13D4BB3F9DC
:10306000006046FA00F010F001016BD0BDE8F0817D
:10307000402120463B460022FFF7DEFF002120468C
:1030800005F0C2F9002FF1D06421204604F0ECF9DC
:10309000204600F03DFC01462046BDE8F04104F02A
:1030A00009BA402925D13F2A2A4943D80A882A4CFF
:1030B0000123834022EA03030B80060204F140054A
:1030C0004FF0000801E0A54211D034F9020F00F4DE
:1030D0007F439E42F7D1411EC9B2C0F307203B4651
:1030E0000022FFF7B5FEA542A4F80080EDD1BDE8AF
:1030F000F0813B462046BDE8F04105F0B7B9154DDB
:10310000154A29880123834021EA03032B8000020A
:1031100002F14001002532F9023F03F47F43984257
:1031200008BF15809142F6D120460121BDE8F0414B
:1031300002F01ABC0B88012202FA00F003430B8054
:10314000BDE8F0812046BDE8F04102F00DBC00BFB3
:103150009A2AFF1FA42AFF1F522AFF1F38B50024F6
:103160000023E0B21A4678210134FFF765FF102CE6
:10317000F6D100203EF0F6FD38B100203EF0F2FD21
:103180000028F6D101E03DF03FFE3DF029FE044667
:103190000028F8D10A490B4B0B4A0C4D08781C70DB
:1031A00021465C709C7014702C703DF065F9084BE2
:1031B000214618783DF060F9064B1C6038BD00BF11
:1031C0009927FF1FA02AFF1F9F2AFF1F982AFF1F72
:1031D000A927FF1F942AFF1F0E282DE9F0410D4655
:1031E00090461ADD0F2426460F4600237B212046F9
:1031F0001A46FFF721FF2946204602F0B1FAB8F13E
:10320000000F03D02946204604F0F6F83A4631462E
:103210000120BDE8F04111F02BBA0446064608B97A
:103220002F46E2E70928FBD12E2903D881F080053B
:103230002F46DAE780273D46D7E700BF06EE901A13
:10324000DFED1A7A9FED1A7AFAEEE96A30B5E6EE0A
:10325000A77A0E2883B0D8BF0446F4EEC77AC8BF59
:103260000F24F1EE10FA0091154610D5F5EEC07A54
:10327000F1EE10FA13D80021204604F04BFF65B19F
:103280000099204603B0BDE8304004F049B97F21E1
:10329000204604F03FFF002DF2D103B030BDFCEE1C
:1032A000E77ACDED017A9DF80410F1E70000804245
:1032B0000000FE4270B5FFF751FF0125002602E035
:1032C0000135EDB20136F4B200231A4620467821CA
:1032D000FFF7B2FE002320461A467921FFF7ACFE25
:1032E0000022092E1146204615D0FFF775FF002257
:1032F00011462046FFF7A2FF002320461A4601216F
:10330000FFF79AFE102DDBD10B4B00221A70BDE89F
:10331000704010F0CBBF304600228021FFF75CFFE9
:10332000002211463046FFF789FF00231A4601218B
:103330003046FFF781FEC3E79A2AFF1F08B5074B07
:10334000187018B9BDE80840FFF7B4BFFFF706FFD3
:103350000020BDE80840FFF737BD00BF992AFF1FD6
:1033600008B505F0EFFA00B908BD05F0E5FA002848
:10337000FAD0BDE8084005F0B9B900BF08B505F0BE
:10338000E1FA00B908BD0020BDE8084005F072B9B7
:1033900008B505F0D7FA00B908BD0120BDE808401E
:1033A00005F068B970B552490878A0F1800300F0C3
:1033B0000F007F2B45D8DFE803F07D7D7D7D7D7D8F
:1033C0007D7D7D7D7D7D7D7D7D7D84848484848403
:1033D0008484848484848484848445454545454527
:1033E000454545454545454545458B8B8B8B8B8BE9
:1033F0008B8B8B8B8B8B8B8B8B8B77777777777795
:103400007777777777777777777745454545454578
:10341000454545454545454545456868686868688A
:1034200068686868686868686868444457444444E1
:1034300044644B444F534044449205F083FA0028BF
:1034400051D170BD49780122BDE87040FFF7E2BD5F
:10345000BDE87040FFF784BFBDE87040FFF78EBF46
:10346000BDE87040FFF794BF8D784C7805F06AFA9C
:103470000028E6D004EB052080B2BDE87040FFF7DD
:1034800085BC1C4B00221A7070BD8B784A78D9011C
:1034900001F47E5302F07F011944A1F5005101228D
:1034A000BDE87040FFF7CABE49780122BDE8704010
:1034B000FFF792BE8A7849780123BDE87040FFF794
:1034C000C7BC8A7849780123BDE87040FFF70CBD7E
:1034D0008A7849780123BDE87040FFF7ADBDBDE8AB
:1034E0007040FFF7E7BEBDE8704005F043B800BF8D
:1034F000A02AFF1F9F2AFF1F2DE9F041544B1C7883
:1035000082B0002C40F08880524D534E2F4611E07F
:1035100032782A7002F0F000F0280878197804D088
:103520009EF80030013B13433B706870A970012482
:10353000FFF738FF00203EF015FCDFF844E1474973
:10354000474B0028E4D1434D464E2F4611E03278D8
:1035500072B92A78DFF8FC80434C002A3DD02178EC
:103560004A1CD2B27B542270404B1B78934229D024
:1035700001243DF035FC002839D03DF045FC020621
:10358000C3B2E4D5F02B4FD0327836492AB1F72BAD
:1035900045D0EF2B40D800223270334C2B700022E4
:1035A0000121DF2B21706A70AA70DFF8A88016D87D
:1035B000C02B1AD2802B14D201232C490122934212
:1035C0000B70D5D1FFF7EEFE98F800300122EF2BFB
:1035D0002270CDD900232B70CAE72278C4E7EF2BE5
:1035E000EAD8224B03221A70C2E70223E5E70CBB9C
:1035F0001F4D2B6883B11F4A12680192019A9342B2
:103600000AD21D4B214618783CF036FF1B4B214651
:1036100018783CF031FF2C6002B0BDE8F081002347
:103620000B7002B0BDE8F0810E4B01221A7002B09F
:10363000BDE8F081104B012118783CF01DFF0D4BC7
:103640000B4A1B680093009B32331360E4E700BF12
:10365000992AFF1FA02AFF1FD366FF1FD166FF1FF5
:10366000D066FF1F9F2AFF1F982AFF1F8C11FF1F84
:10367000942AFF1F3C63FF1F9927FF1FA927FF1FE5
:10368000D266FF1FF8B50A4C0A4DA37827786678F2
:10369000AB706170A27020702F706E70FFF782FEA9
:1036A00029786A78AB7821706270A370F8BD00BF8A
:1036B000A02AFF1F9C2AFF1F00B5F83883B00428FA
:1036C0000BD8DFE800F0290A032119004FF60F207C
:1036D0003EF0E4FAFA203DF0C5FA134B01211878C8
:1036E0003CF0CAFE114B124A1B680193019B013347
:1036F000136003B05DF804FB4FF60F403EF0CEFAC6
:10370000FC203DF0AFFAE8E74FF60F303EF0C6FA86
:10371000FB203DF0A7FAE0E74FF60F003EF0BEFABF
:10372000F8203DF09FFAD8E7A927FF1F3C63FF1F51
:10373000942AFF1F70B5114D114C2878114E0121AC
:103740003CF0AEFE207801213CF0AAFE28780E4D18
:1037500000213CF091FE207800213CF08DFE0B4AC8
:103760000B480023012447F6122133702B7014708C
:103770003BF0CAF9BDE87040FFF79CBD9927FF1FD9
:10378000A927FF1F982AFF1F9F2AFF1F8C11FF1FC9
:10379000CC19FF1FFFFFFFFF38B504460D46C9B126
:1037A00007EE901A9FED1A7AF8EE677AF4EEC77A70
:1037B000F1EE10FA1AD49FED120B3FF059F912A353
:1037C000D3E9002351EC100B41F0DCF841F0A8FAEA
:1037D000024600E000220F4B0F4903EB84030D5516
:1037E00020461A60BDE8384002F054B917EE900A3E
:1037F00040F04AFF41EC100BDFE700BFAFF3008061
:103800000000000000C05F40422E609472601340D0
:103810000000FE42DC2AFF1FBC2AFF1F10B4064A2C
:10382000145C8C4204D011545DF8044B02F094B93E
:103830005DF8044B704700BFA82AFF1F034B1954C3
:1038400001B97047012102F08FB800BFCC2AFF1FD9
:10385000F8B5104E104D30700024034627460FE097
:10386000834214BF012300234FF001012B7001D0CC
:1038700002F07AF80134102C05F1010509D03378F3
:10388000FF2BE0B2ECD10134102C2F7005F10105B3
:10389000F5D1F8BDB82AFF1FCC2AFF1FF0B50023D1
:1038A0000E4E0F4D0F4C10481049DFF844C01A4619
:1038B0004FF0640E40270133102B06F801EF45F856
:1038C00004CB04F8017F00F8012F01F8012FF2D199
:1038D000FF20BDE8F040FFF7BBBF00BFBB2AFF1FC2
:1038E000DC2AFF1FA72AFF1FCB2AFF1F1B2BFF1F4E
:1038F000CDCC4C3F014B185C704700BFBC2AFF1F6A
:10390000024B03EB800090ED000A7047DC2AFF1F9A
:10391000014B185C704700BFA82AFF1F034B185CBF
:103920004F288CBF00200120704700BFA82AFF1F2E
:10393000034B185C2F2894BF00200120704700BF64
:10394000A82AFF1F014B185C704700BFCC2AFF1F3D
:10395000034B1B78181AB0FA80F04009704700BF7B
:10396000B82AFF1F014B1878704700BFB82AFF1F05
:10397000024A135C01331354704700BF1C2BFF1F16
:10398000034A135C013B23EAE3731354704700BFFF
:103990001C2BFF1F014B00221A5470471C2BFF1FCA
:1039A000014B185C704700BF1C2BFF1F054B185CB8
:1039B0004F2804D82F2894BF0020012070470220F0
:1039C000704700BFA82AFF1F30B4084C002004F144
:1039D00010052246111B12F8013B003318BF0123CA
:1039E0008B40AA421844F5D130BC70471C2BFF1FF6
:1039F000F8B5204C204F2078204E214D01213CF07D
:103A00004FFD387801213CF04BFD307801213CF02E
:103A100047FD287801213CF043FD1A4B012118781D
:103A20003CF03EFD207800213CF026FD3878002156
:103A30003CF022FD307800213CF01EFD2878012169
:103A40003CF01AFD207800213CF016FDFDF72AFF1E
:103A50000D4B002814BF012200221A7004D10B481C
:103A6000BDE8F84033F07ABC0948BDE8F84033F0CF
:103A700075BC00BF9A27FF1F9B27FF1F9F27FF1FB3
:103A80009827FF1FAD27FF1F7D2DFF1F4819FF1F20
:103A90008819FF1F952811D8802855D235281FD89E
:103AA00020284BD2042844D036D905285DD00828D8
:103AB00056D106200C23087013707047BD2859D0CA
:103AC0001CD8A0284CD3A82859D9A0F1B003082BA2
:103AD00046D800F00F00093005230B7010707047B6
:103AE00040283DD3552835D9A0F16003152B37D890
:103AF00000F01F0002230B7010707047C0282FD3F6
:103B0000C82810D9A0F1E003152B29D800F01F0018
:103B100004230B7010707047012821D1062009235F
:103B200008701370704700F00F0006230B701070C0
:103B3000704706200A2308701370704700F01F00BA
:103B400000230B701070704700F01F0003230B70F0
:103B50001070704700F01F0001230B701070704749
:103B600006200F2308701370704706200B2308707F
:103B70001370704706200D2308701370704700F013
:103B80000F0005230B701070704700BF2DE9F04146
:103B900082B00D468046144608460DF107020DF12D
:103BA0000601FFF777FF9DF806309DF80710062BFA
:103BB0006FD003EB43039322374E3848384F0078D9
:103BC000C3EBC30302FB08333344364E5C54C8F3E3
:103BD00040013CF051FC344B08F0010118783CF0F6
:103BE0004BFC387800213CF047FC3378002B3CD06C
:103BF0002E4B1A684FF00043D3625563D36A002BF3
:103C0000FCDA2B4D936B287800214FF4F0783CF0D0
:103C100033FC4346013BFDD1012128783CF02CFCCC
:103C2000B8F10108FCD1012138783CF025FC33784B
:103C30002BB31E4B1A684FF00043D3625463D36A10
:103C4000002BFCDA2878936B00214FF4F0743CF0E1
:103C500013FC2346013BFDD1012128783CF00CFCEC
:103C6000013CFDD102B0BDE8F081124B1A684FF063
:103C70000043D3625563D36A002BFCDAC1E70D4BD6
:103C80001A684FF00043D3625463D36A002BFCDA06
:103C9000D8E70F298DD1E5E7302BFF1F9F27FF1FA6
:103CA0009A27FF1F7D2DFF1F9B27FF1F8819FF1FCE
:103CB0009827FF1F4819FF1F2DE9F0472D4B2E4F66
:103CC0002E4DDFF8C490A3FB00235B0803EBC30277
:103CD0002DED028B821A08462B700E46F0EE408ABC
:103CE0003A7000F0BBFF0230C0B2254B9FED258A31
:103CF00013F800804FF0000A5FFA8AF4214601228F
:103D0000304600F0CDFD48FA0AF1C34311F0010F2F
:103D1000024603F03F03287804F0010414D007EEB4
:103D2000903AF8EEE77A02F0C00287EE887A68EE01
:103D3000C77AB0EE487AA7EE887AFCEEC77A17EE1B
:103D4000903A52FA83F2D2B23B78BAF1010F09EB02
:103D5000C40188BF03330C440AF1010AE15C40311D
:103D6000C9B2FFF713FFBAF1040FC5D1BDEC028B46
:103D7000BDE8F087398EE3382C2BFF1F7C2DFF1F09
:103D800080AE040000007C42C0AE0400F8B5274FAE
:103D9000397000283DD1002600252A4606E03F3C28
:103DA000152C05F101058CBF00223F22ECB2214603
:103DB0003046FFF7EBFEFE2DF1D10136F6B2042EB0
:103DC000EAD13A78012A8CBF002201220521012084
:103DD000FFF7DCFE3A78012A8CBF00220122052180
:103DE0000320FFF7D3FE402208210120FFF7CEFE7B
:103DF000402208210320FFF7C9FEC022BD21012077
:103E0000FFF7C4FEC022BD210320BDE8F840FFF744
:103E1000BDBE074C002120783CF02EFB01203CF079
:103E200069FB207801213CF027FBB4E77E2DFF1FC2
:103E3000AD27FF1F2DE9F047374C384F384EDFF8DC
:103E4000F090A4FB003464082DED028B04EBC40356
:103E5000C01AC3B282B0A3F14000E4B2154688464E
:103E60000DF107020DF10601C0B23B703470F0EEA7
:103E7000408AFFF70FFE9DF806302A4A9FED2A8AF6
:103E800003EB43039321C3EBC30301FB043313444C
:103E90009DF80710254A5B5C03F001036D0012F8E2
:103EA00003A0EDB200242919C9B20122404600F056
:103EB000F7FC4AFA04FEC34304EBC4011EF0010FF1
:103EC000024603F03F0397F800C03078494404F1FC
:103ED000010414D007EE903AF8EEE77A02F0C0023F
:103EE00087EE887A68EEC77AB0EE487AA7EE887ACD
:103EF000FCEEC77A17EE903A52FA83F2D2B211F87A
:103F00000C104031C9B2FFF741FE022CCBD102B0F8
:103F1000BDEC028BBDE8F087398EE3382C2BFF1FF8
:103F20007C2DFF1F302BFF1F00007C4280AE040061
:103F3000C0AE0400F0B583B005460E4614460846F0
:103F40000DF107020DF106011F46FFF7A3FD9DF8D5
:103F500006100B4A9DF8070001EB41019323C1EBCA
:103F6000C10103FB0511114424EA07020B5C1F4049
:103F7000314628463A43FFF709FE03B0F0BD00BFC3
:103F8000302BFF1F2DE9F04F314BDFF8CC80314F44
:103F9000DFF8C890A3FB00435B0803EBC304001BDE
:103FA00083B08A46C1B2D8B2019288F80010387046
:103FB00055460026F400A31909EB030BAA781BF859
:103FC00001102031C9B2FFF7E1FD019B002B34D174
:103FD00034444C4498F800302A79E15C38786031F8
:103FE000C9B2FFF7D3FD98F800306A79E15C387800
:103FF00081F08001FFF7CAFD98F80030AA79E15CF2
:10400000387820390136C9B2FFF7C0FD022E05F11C
:10401000050504D00F4B18780F4B1978CAE70E4BE3
:104020009AF8012019780B4B40391878C9B2F0235F
:1040300003B0BDE8F04FFFF77DBF98F80010EA78B5
:104040001BF8011038784031C9B2FFF79FFDBFE778
:10405000398EE3387C2DFF1F2C2BFF1FC0AE0400D0
:10406000F8B5B5EE400AF1EE10FA2DED028B0446DC
:104070000D4625D15E2941DD87251E22564B574F1F
:10408000574EA3FB04135B0803EBC30ECEEB0404F3
:104090005FFA84FEAEF15001DCB22046C9B2E023E3
:1040A00087F800E03470FFF745FFBDEC028B3978EC
:1040B000307860392A46C9B2BDE8F840FFF766BDDE
:1040C000B5EEC00AF1EE10FAB0EE408A10EE100A1A
:1040D00058DB40F0D9FA41EC100B3EF0D9FB51EC23
:1040E000100B40F0D5FD05445E2D1EDC002D54DC88
:1040F0004FF4AB752946002201231BE000295FD055
:10410000384A394BA2FB0512D20802EB4201A5EB5B
:104110008105EDB20135920053F8255002F01C02E2
:10412000C5F301231A44EDB2A8E740F287252946DA
:104130001C220C2307EE900AF8EEE77A38EE678A25
:10414000B5EE408AF1EE10FA17D0B5EEC08AF1EE66
:1041500010FA38DD0133244850F823305B1A07EE9B
:10416000103A07EE905AB8EEC77AF8EEE77AE8EE22
:10417000077AFDEEE77A17EE905AC5F301231A4449
:10418000EDB27BE740F080FA41EC100B3EF0F0FA24
:1041900051EC100B40F07CFDA5E7124A1249EDB23C
:1041A000A2FB0532D20802EB4203A5EB83056B1C90
:1041B000DBB2920051F8231002F01C020D46B9E761
:1041C000562501225AE7013B074850F82330CB1A05
:1041D00007EE103AC5E700BF398EE3382C2BFF1FDE
:1041E0007C2DFF1FABAAAAAA88AE04000C4BA3FB30
:1041F0000023F0B45B0803EBC3050A4F0A4E401BD3
:10420000C5B2DCB200293D70A5F1500120463470E2
:10421000C9B214BF20220022DF23F0BCFFF78ABE00
:10422000398EE3382C2BFF1F7C2DFF1F1D4BA3FB6A
:1042300000235B082DE9F04103EBC304001B1A4E79
:104240001A4DC4B2D8B23470287041B90A46A4F1EC
:104250005001C9B21F23BDE8F041FFF76BBE144FF8
:10426000395D4031C9B2C0233F22FFF763FE327887
:1042700028783A44C023517A4031C9B23F22FFF72F
:1042800059FE317828785039C9B20022FFF77EFCF8
:10429000317828786039C9B20022BDE8F041FFF7D3
:1042A00075BC00BF398EE3382C2BFF1F7C2DFF1F00
:1042B000C0AE04000C4BA3FB00239B0803EB43039D
:1042C000A0EB43030122DBB202FA03F30628DAB2C1
:1042D0006FEA020334BF012003200029DBB208BFCC
:1042E00000220421FFF726BEABAAAAAA114B1B7815
:1042F000012B00D97047104BF0B4A3FB00435B08BF
:1043000003EBC305401B00290C4F0D4EC5B214BF73
:1043100010200020002ADCB2A5F1400114BF2022A9
:1043200000223D70024434702046C9B2CF23F0BC55
:10433000FFF700BE7E2DFF1F398EE3382C2BFF1FA9
:104340007C2DFF1F2DE9F04F002490F800E090F83D
:104350000190544E544D34708FB02246DF23B0216B
:10436000074620460EEB09292C70FFF7E3FD4F4B63
:1043700022461B78019305210120FFF707FC4C4BD7
:104380005A7D0D9293F82A200C9293F83F200B92BD
:1043900093F854200A92DA7809921A7E089293F8D8
:1043A0002D20079293F84220069293F85720059209
:1043B00093F8692093F800B00492B9F1010F93F8D3
:1043C000722093F87E30039202931EDD02244FF098
:1043D00003083B5D3D19661C8BB15E1EF6B204F10D
:1043E000030A18FB06AABA44EA78A9786878033564
:1043F000FFF7CCFBAA45F7D1043418FB0646741C22
:10440000B85D3CF077F8A145E3DA019B012B8CBF46
:104410000022012205210120FFF7B8FB5A46202186
:104420000020FFF7B3FB0D9A40210020FFF7AEFB01
:104430000C9A60210020FFF7A9FB0B9A8021002035
:10444000FFF7A4FB0A9AE0210020FFF79FFB099ADF
:1044500023210020FFF79AFB089A43210020FFF751
:1044600095FB079A63210020FFF790FB069A8321B2
:104470000020FFF78BFB059AE3210020FFF786FB66
:10448000029AC0210020FFF781FB049AA02100209E
:10449000FFF77CFB039AB02100200FB0BDE8F04F7E
:1044A000FFF774BB7C2DFF1F2C2BFF1F7E2DFF1FE2
:1044B000302BFF1F2DE9F04F404C414F414E424DF4
:1044C000DFF808A1A4FB0034640804EBC403C01A9D
:1044D000C3B283B0F85C3370E4B280F080000DF1B9
:1044E000070288460DF106012C70FFF7D3FA9DF8FC
:1044F000063032789DF807E095F800903A4403EBD7
:1045000043034FF0930BC3EBC303507A0BFB04330D
:1045100053440DF107020DF1060180F0800013F8FD
:104520000E40FFF7B7FA9DF806209DF8071002EB42
:104530004202C2EBC2020BFB0922924404F00F04B8
:104540001AF8012002F00F03A342A8BF23465BB173
:10455000013BDBB24FF4005242FA03F3984507DA0D
:10456000002003B0BDE8F08F4FF400539845F7DB0F
:1045700033782878F95C4031C9B2C0233F22FFF775
:10458000D9FC337828781F443F22797A4031C02300
:10459000C9B2FFF7CFFC317828785039C9B2002270
:1045A000FFF7F4FA317828786039C9B20022FFF7B2
:1045B000EDFA012003B0BDE8F08F00BF398EE3387B
:1045C000C0AE04002C2BFF1F7C2DFF1F302BFF1FC4
:1045D000014B1878704700BF7E2DFF1F034B1878E2
:1045E00001288CBF00200120704700BF7E2DFF1FD7
:1045F00010B50446806920B10C213BF02BFC002350
:10460000A361E06910B10C213BF024FC204610BDF1
:10461000F0B585B00546254968463AF00BFD6E1C9D
:10462000002405E001342020102C06F8010F0BD0E7
:10463000029B9C42F6D2214668463AF075FE013450
:10464000102C06F8010FF3D1684600243AF0B2FCB2
:104650003F272146F02612E0906918448170906946
:104660001844C770906918440171906918444671E4
:104670009069034499719369597093691970EB6952
:10468000E0B2002B18BF4FF0040E00F0010308BF8A
:104690004FF0020E42084FEA830C704505EB820290
:1046A000634404F10104D7D305B0F0BD08F304005E
:1046B000007870470170704710B5023104463AF037
:1046C000B9FC204610BD00BF70B50E46451C002445
:1046D00005E001342020102C05F8010F0BD0B36841
:1046E0009C42F6D2214630463AF01EFE0134102C90
:1046F00005F8010FF3D170BDC069003018BF01206B
:10470000704700BF0078C009704700BF2DE9F0472F
:10471000334E344FC46996F800C097F800800022E9
:104720009246114615461EE01B791B0918BF45F03D
:1047300001056346BEF1010F94BF4FF000084FF032
:10474000010808F1060E03EB830350F82EE07344D2
:1047500002335B784FF0010A03F03F033E2B98BF12
:1047600041F0010152445FFA82FEC4B1BEF1030F71
:1047700027D80EF0010C04EB8C03BEF1010F63444B
:10478000D2D883690EEB8E0C9C4473469CF804C00F
:104790005FEA1C1C18BF45F00105F446CAE7BEF1EC
:1047A000010F0EEB8E090CD883694B440233F4469B
:1047B00093F802E05FEA1E1E18BF45F00105A0460F
:1047C000C7E7BAF1000F05D1002D14BF084600203D
:1047D000BDE8F08787F8008086F800C0F4E700BFE6
:1047E0007F2DFF1F802DFF1FC369002B14BF0420E6
:1047F000022070474078704743788B420ED070B5E6
:1048000004460D46617011B1C56945B170BDC069FE
:10481000A0B10C213BF01EFBE56170BD70470C2080
:104820003BF014FB294606460C2240F0B3FEB01CB8
:104830000A2203493BF09EF9E66170BD70BD00BFDE
:10484000D4AE04002DE9F041144F002504460E4675
:10485000904607F10C014570112202303BF08AF9B5
:10486000002363612670A561E5610C203BF0EEFA40
:10487000294606460C2240F08DFE0A223946B01C1D
:104880003BF078F941462046A661FFF7B5FF204688
:10489000FFF7BEFE2046BDE8F08100BFD4AE0400A5
:1048A000052A17D0C36930B4D3B1012994BF0024BD
:1048B00001242346063301F0010150F82330094D4D
:1048C0000948297003EB810319441144047030BC7A
:1048D000887870474908063150F821305878704779
:1048E0001C46E7E77F2DFF1F802DFF1FC3692BB1FB
:1048F00001F00101063150F82100704719460631D8
:1049000050F82100704700BF4378012B0BD041B90C
:10491000063150F821301878030600D470478028FB
:1049200004D10020704701F00101F1E7A0F580708B
:10493000704700BF90ED050A704700BFC36910B40F
:10494000ABB1012994BF0022012213460633094C62
:1049500050F82300084B01F0010121708C00214424
:1049600001441A7088785DF8044BC00970471A46F4
:10497000ECE700BF7F2DFF1F802DFF1FC36910B420
:10498000B3B1012994BF0022012213460633094C1A
:1049900050F82300084B01F0010121708C002144E4
:1049A00001441A7088785DF8044BC0F3801070479A
:1049B0001A46EBE77F2DFF1F802DFF1FC36910B440
:1049C000B3B1012994BF0022012213460633094CDA
:1049D00050F82300084B01F0010121708C002144A4
:1049E00001441A7088785DF8044BC0F3401070479A
:1049F0001A46EBE77F2DFF1F802DFF1FC36910B400
:104A0000B3B1012994BF0022012213460633094C99
:104A100050F82300084B01F0010121708C00214463
:104A200001441A7088785DF8044BC0F30010704799
:104A30001A46EBE77F2DFF1F802DFF1FC36910B4BF
:104A4000B3B1012994BF0022012213460633094C59
:104A500050F82300084B01F0010121708C00214423
:104A600001441A7088785DF8044B00F00F0070471D
:104A70001A46EBE77F2DFF1F802DFF1FC36910B47F
:104A8000ABB1012994BF0022012213460633094C21
:104A900050F82300084B01F0010121708C002144E3
:104AA00001441A70C8785DF8044B800970471A46B3
:104AB000ECE700BF7F2DFF1F802DFF1FC36910B4DF
:104AC000B3B1012994BF0022012213460633094CD9
:104AD00050F82300084B01F0010121708C002144A3
:104AE00001441A70C8785DF8044B00F03F0070472D
:104AF0001A46EBE77F2DFF1F802DFF1FC36910B4FF
:104B0000ABB1012994BF0022012213460633094CA0
:104B100050F82300084B01F0010121708C00214462
:104B200001441A7008795DF8044B000970471A4671
:104B3000ECE700BF7F2DFF1F802DFF1FC36910B45E
:104B4000B3B1012994BF0022012213460633094C58
:104B500050F82300084B01F0010121708C00214422
:104B600001441A7008795DF8044B00F00F0070479B
:104B70001A46EBE77F2DFF1F802DFF1FC36910B47E
:104B8000ABB1012994BF0022012213460633094C20
:104B900050F82300084B01F0010121708C002144E2
:104BA00001441A7048795DF8044B000970471A46B1
:104BB000ECE700BF7F2DFF1F802DFF1FC36910B4DE
:104BC000B3B1012994BF0022012213460633094CD8
:104BD00050F82300084B01F0010121708C002144A2
:104BE00001441A7048795DF8044B00F00F007047DB
:104BF0001A46EBE77F2DFF1F802DFF1FC36910B4FE
:104C0000B3B1012994BF0022012213460633094C97
:104C100050F82300084B01F0010121708C00214461
:104C200001441A7088795DF8044B00F00700704762
:104C30001A46EBE77F2DFF1F802DFF1FC36903B1CD
:104C400001B9836958784008704700BFC36903B150
:104C500001B98369587800F001007047C3694BB10E
:104C600082695B7850785B0003F0020300F001007A
:104C7000184470478369587800F00100704700BFFE
:104C80001AB14378012B0DD0704790F90030002BFA
:104C900043781CDB5E2925DD012B2FD083695F2142
:104CA0001970704790F90030002B24DB5E2925DC59
:104CB0006FF05E039942B8BF194602F00102063256
:104CC000002950F822301EDDC9B219707047012B3F
:104CD00011D006325E2950F82230E0DC0029F3DCE6
:104CE0000021DDE711F15E0F0FDA012B08D0836997
:104CF000A1211970704702F00102EAE75F21DCE7A9
:104D00006FF05E01D9E7CBD0DEE7012BD7D1D4E736
:104D1000F0EE007AB4EEE70AF1EE10FA08D5F8EEFC
:104D2000007AB4EEE70AF1EE10FA88BFF0EE407AAE
:104D3000C0ED057A704700BF10B4C369C2B183B338
:104D4000012994BF0022012213460633174C50F864
:104D50002300174B01F0010121708C002144014414
:104D60001A708B7863F07F038B705DF8044B70478B
:104D7000CBB1012994BF00220122134606330B4C0C
:104D800050F823000A4B01F0010121708C002144EE
:104D900001441A708B7803F07F038B705DF8044B2D
:104DA00070471A46D1E71A46E8E700BF7F2DFF1F7C
:104DB000802DFF1F10B4C369C2B183B3012994BF12
:104DC0000022012213460633174C50F82300174BDC
:104DD00001F0010121708C00214401441A708B788C
:104DE00043F040038B705DF8044B7047CBB1012951
:104DF00094BF00220122134606330B4C50F82300C7
:104E00000A4B01F0010121708C00214401441A7009
:104E10008B7823F040038B705DF8044B70471A4683
:104E2000D1E71A46E8E700BF7F2DFF1F802DFF1F47
:104E300010B4C369C2B183B3012994BF0022012217
:104E400013460633174C50F82300174B01F00101AD
:104E500021708C00214401441A708B7843F02003A8
:104E60008B705DF8044B7047CBB1012994BF0022D1
:104E70000122134606330B4C50F823000A4B01F075
:104E8000010121708C00214401441A708B7823F0B9
:104E900020038B705DF8044B70471A46D1E71A4621
:104EA000E8E700BF7F2DFF1F802DFF1F10B4C369EF
:104EB000C2B183B3012994BF0022012213460633F5
:104EC000174C50F82300174B01F0010121708C00A2
:104ED000214401441A708B7843F010038B705DF805
:104EE000044B7047CBB1012994BF00220122134625
:104EF00006330B4C50F823000A4B01F001012170DE
:104F00008C00214401441A708B7823F010038B70BD
:104F10005DF8044B70471A46D1E71A46E8E700BF30
:104F20007F2DFF1F802DFF1FC36910B4FBB1012926
:104F300014D901F0010103EB810312480B44017005
:104F40000233012110480170197802F00F0221F09C
:104F50000F010A441A705DF8044B704784690948D0
:104F600001EB81032344023301700021EAE701F0E1
:104F70000101846903488B000B4423440233017010
:104F8000F3E700BF7F2DFF1F802DFF1FC36910B403
:104F9000F3B1012913D901F00101124803EB810398
:104FA0000B4401700233012059780F4C01F03F018E
:104FB00001EB82125A7020705DF8044B70478469CF
:104FC000084801EB81032344023301700020EBE722
:104FD00001F00101846903488B000B442344023330
:104FE0000170F3E77F2DFF1F802DFF1FC36910B4F1
:104FF000FBB1012914D901F00101134803EB81032E
:105000000B440170023301205978104C02F03F022A
:1050100021F03F010A445A7020705DF8044B70473C
:105020008469094801EB81032344023301700020A5
:10503000EAE701F00101846903488B000B44234433
:1050400002330170F3E700BF7F2DFF1F802DFF1F8C
:10505000C36910B4F3B1012913D901F00101124859
:1050600003EB81030B4401700233012099780F4C4C
:1050700001F00F0101EB02129A7020705DF8044BF1
:1050800070478469084801EB8103234402330170AF
:105090000020EBE701F00101846903488B000B4419
:1050A000234402330170F3E77F2DFF1F802DFF1F84
:1050B000C36910B4FBB1012914D901F001011348EF
:1050C00003EB81030B440170023301209978104CEB
:1050D00002F00F0221F00F010A449A7020705DF86F
:1050E000044B70478469094801EB81032344023370
:1050F00001700020EAE701F00101846903488B0098
:105100000B44234402330170F3E700BF7F2DFF1FE0
:10511000802DFF1FC36910B4F3B1012913D901F029
:105120000101124803EB81030B440170023301209B
:10513000D9780F4C01F00F0101EB0212DA702070E8
:105140005DF8044B70478469084801EB81032344F0
:10515000023301700020EBE701F00101846903488C
:105160008B000B44234402330170F3E77F2DFF1FB4
:10517000802DFF1FC36910B4FBB1012914D901F0C0
:105180000101134803EB81030B440170023301203A
:10519000D978104C02F00F0221F00F010A44DA70A6
:1051A00020705DF8044B70478469094801EB810366
:1051B0002344023301700020EAE701F00101846911
:1051C00003488B000B44234402330170F3E700BF14
:1051D0007F2DFF1F802DFF1FC36930B4ABB10129A4
:1051E00094BF0024012423460633094D50F82300C0
:1051F000084B01F0010129708D002944014402F09F
:1052000007028A711C7030BC70471C46ECE700BF77
:105210007F2DFF1F802DFF1FC3694BB141B159780E
:10522000520002F00E0201F001010A445A70704768
:105230008369F4E7C3693AB103B101B983695A7864
:1052400042F001025A70704703B101B983695A787C
:1052500022F001025A7070478269537811F0010FF1
:1052600014BF43F0010323F001035370C3692BB152
:1052700089075A7803D422F001025A70704742F02D
:1052800001025A70704700BF2DE9F04F47B28BB052
:10529000064620200C463AF0D9FD002F054653DB88
:1052A000002C0CBF0222002231462846FFF7CAFA22
:1052B000514A00238DF8243002EB061205AB09A8F1
:1052C00012F8011B03F8011B8342F9D105A901A8BB
:1052D00039F0B0FE01A92846FFF7F6F901A839F028
:1052E00069FE002F7EDB8CB300212846FFF7FEFA13
:1052F000424B53F826800746002298F800102846B3
:10530000FFF7BEFC4446781C08F10501BA1D0023D6
:1053100014F8016F00F8016F013311F8016F02F802
:10532000016F042BF4D198F80A3003F00703BB7126
:1053300098F80A30C3F30213FB7298F805307B70BB
:1053400028460BB0BDE8F08F0022ADE72146284685
:10535000FFF7CCFA012180462846FFF7C7FA284B11
:1053600053F826600746224631782846FFF788FC26
:10537000B24606F1050906F10A0C06F10F0E08F116
:10538000010008F106017A1CBB1D1AF801BF00F8E4
:1053900001BF19F801BF01F801BF1CF801BF02F8F5
:1053A00001BF01341EF801BF03F801BF042CECD18A
:1053B000B37A03F0070388F80630B37AC3F3021315
:1053C00088F80B30737988F80130337D1B11BB717D
:1053D000337D03F00F03FB72F37B7B7028460BB029
:1053E000BDE8F08F00212846FFF780FA803E054B8C
:1053F000074653F826807FE7F4AE040024C104007A
:1054000080D00400ACBC04002DE9F04700218246A6
:105410002F202DF0E1FE244EC0F3400906F52F7831
:105420003446002754F8045F3DB12846FFF7E0F802
:10543000284620213AF00EFD27604445F2D1BAF10A
:10544000000F26D1544620203AF000FDE1B20022A0
:1054500001340546FFF7F6F9AF2C46F8045FF2D1A8
:10546000124D002402E00134102C0ED055F8043FF8
:10547000002BF8D1092C0CBF802000204946FFF7F3
:1054800003FF0134102C2860F0D1BDE8F047FDF790
:1054900011BF0024E0B24946FFF7F6FE0134AF2CFD
:1054A00046F8040FF6D1DBE7C02DFF1F802DFF1F4C
:1054B000AE28A8BFAE20024B53F82000704700BFB3
:1054C000C42DFF1F014B53F820007047842DFF1F90
:1054D000024B53F82000FFF7EBB800BF842DFF1FED
:1054E000F0B50D4691B00446002A00F0A5800B06E9
:1054F00057D4584F584904A8632D98BF394639F0FE
:1055000099FD564BA3FB05235B09642101FB135353
:10551000DBB2092B3FD95249A1FB0331C9086846C8
:105520000A226E4639F0CCFD314604A839F08EFED1
:105530004B49A1FB0531C90801EB8101A5EB4101F4
:105540000A220746C9B208A839F0BAFD08A93846A8
:1055500039F07CFE434939F081FE434B074653F84E
:1055600025100CA8FFF7A8F80CA9384639F06EFEF4
:105570000146204639F072FD0CA839F01BFD08A841
:1055800039F018FD304639F015FD04A839F012FD48
:10559000204611B0F0BD394668466E4639F04AFDE6
:1055A000C2E72E4B81F08007A3FB07235B09642130
:1055B00001FB1373DBB2092B46D92949A1FB033147
:1055C000C90868460A226E4639F07AFD314608A8B5
:1055D00039F044FD2249A1FB0731C90801EB8101E3
:1055E000A7EB41010A22C9B204A839F069FD04A958
:1055F00008A839F02BFE1B4939F030FE1A4B07463C
:1056000053F825100CA8FFF757F80CA9384639F0C5
:105610001DFE0146204639F021FD0CA839F0CAFCD8
:1056200004A839F0C7FC08A839F0C4FC304639F0AA
:10563000C1FC204611B0F0BD0B4B53F82110FFF711
:105640003BF8204611B0F0BD684602496E4639F07D
:10565000F1FCBBE704BE0400900705001F85EB5179
:10566000CDCCCCCC08BE0400C42DFF1F2DE9F043E7
:10567000064685B0002872D00F4600295FD0FFF79C
:1056800017F801463846FFF715F83046FFF7B2F82D
:1056900001463846FFF7B0F868463146FFF70CF888
:1056A00069463846FFF710F8684639F083FC002158
:1056B0003046FFF729F9002201463846FFF7E0FAA5
:1056C00001213046FFF720F9012201463846FFF755
:1056D000D7FA3046FFF72EF93846FFF719FB304668
:1056E000FFF782F80025ECB2844224D24FEA540935
:1056F00049463046FFF7FAF8494680463846FFF7F4
:10570000F5F804F00104A200144498F80130437045
:10571000A31C0734184408EB0402434413F8011B8C
:1057200000F8011B9342F9D13046FFF75DF80135CF
:10573000ECB28442DAD3384605B0BDE8F083FEF718
:10574000B7FF04463046FFF755F8054620203AF0EB
:105750007DFB2A4621460746FFF774F89CE7EBE7F6
:10576000AE290A46044B0549A8BFAE2251F82010C5
:1057700053F82200FFF77ABFC42DFF1F842DFF1FAF
:1057800038B5094C054654F82000FEF791FFAE28C5
:10579000064B54F82510A8BFAE2053F82000BDE8F2
:1057A0003840FFF763BF00BF842DFF1FC42DFF1FCC
:1057B000024B53F82000FEF72BBF00BFC42DFF1F84
:1057C000024B53F82000FEF7A1BF00BFC42DFF1FFE
:1057D00008B5044B53F82000FFF70CF8003018BF51
:1057E000012008BDC42DFF1F38B50D4C04F52F75E1
:1057F00060B101E0AC4211D054F8040FFEF7FAFF9B
:105800000228F7D1012038BDAC4207D054F8040F6C
:10581000FEF7F0FF0028F7D0012038BD002038BD8A
:10582000C02DFF1F70B5FEF7D3FE1C4B0228187069
:1058300027D0032819D001280BD0194D194C1A482C
:105840001A4A0C23242604212E7023700370117031
:1058500070BD134D134C1448144A0623122602211E
:105860002E7023700370117070BD0D4E0D4D0E48DB
:105870000E4A12230024022133702B700470117021
:1058800070BD074E074D0848084A0923002401212E
:1058900033702B700470117070BD00BF8030FF1F1B
:1058A0008015FF1F8D11FF1F8215FF1F8115FF1F20
:1058B0002DE9F04FDFF8ACB0274C9BF80030D4F85E
:1058C000008083B08146002B3FD0244F013BDBB2E8
:1058D0001C2404FB0374283407F10C0302E01C337E
:1058E0009C4211D018784845F9D158788842F6D1B1
:1058F00053F8080C4045F2D213F80C5C1C33002D11
:1059000018BF80469C42EDD10024A24605E0013438
:105910009BF80030E4B2A34217D9C4EBC40607EBEE
:1059200086056B689845F2D120460021FEF75EFCA3
:105930000B4B07F826A01B680193019BAB60013459
:105940009BF80030E4B2A342E7D84846FEF718F8C7
:1059500003B0BDE8F08F00BF8415FF1F9011FF1F3B
:105960003C63FF1F8015FF1F2DE9F04FDFF880A07B
:105970009AF8003083B0074683B300248B461B4E51
:10598000DFF87090A04605E001349AF80030E4B2E8
:10599000A34223D9E5002B1B06EB8302117BB942FE
:1059A000F2D116F823302046594613B99368002BDC
:1059B000EAD0FEF73BFCBBF1000F15D1D9F800305F
:1059C0000193019A2D1B06EB850301349A609AF826
:1059D000003006F82580E4B2A342DBD83846FDF754
:1059E000D9FF03B0BDE8F08F0022EBE79011FF1F55
:1059F0008015FF1F3C63FF1F2DE9F0412DED028B49
:105A0000224F3B7893B38046214E002404E00134BA
:105A10003B78E4B2A34229D9E5002B1B06EB8302B5
:105A2000117B4145F3D116F8233013B99368002B4D
:105A3000EDD02B1B06EB83031A7EDAB9404602F049
:105A400035FD2B1B06EB8303B0EE408A1A7EBAB9F4
:105A50002D1B06EB85052046B0EE480AA97BFEF714
:105A6000FFFA01343B78E4B2A342D5D8BDEC028BF7
:105A7000BDE8F0815869FEF7BDFE0128C7D1DDE71A
:105A80005869FEF757FF38EE008AE1E78015FF1FDF
:105A90009011FF1F2DE9F0472DED028B0646FDF713
:105AA0002FFF2B4F3046B0EE408A02F00DFD3B78C1
:105AB00028EE008A002B39D0DFF89880002404E01B
:105AC00001343B78E4B2A34230D9E5002B1B08EB4C
:105AD0008302117BB142F3D118F8233013B99368D4
