:1000000000000320D1010000CDE1030085E10300E1
:1000100085E1030085E1030085E1030085E103003C
:1000200085E1030085E1030085E10300CDE10300E4
:10003000CDE1030085E103003DCF030041CF030084
:10004000CDE10300CDE10300CDE10300CDE10300EC
:10005000CDE10300CDE10300CDE10300CDE10300DC
:10006000CDE10300CDE10300CDE10300CDE10300CC
:10007000CDE10300CDE10300CDE10300CDE10300BC
:10008000CDE10300CDE10300CDE10300CDE10300AC
:10009000CDE10300CDE10300CDE10300CDE103009C
:1000A000CDE10300CDE10300CDE10300CDE103008C
:1000B000CDE10300CDE10300CDE1030089F30300AE
:1000C000CDE10300CDE10300CDE10300CDE103006C
:1000D000CDE10300CDE10300CDE10300CDE103005C
:1000E000CDE10300CDE10300CDE10300CDE103004C
:1000F000CDE10300CDE10300CDE10300CDE103003C
:10010000F50A0400090B04001D0B0400310B040068
:10011000CDE10300D1F60300CDE10300CDE1030002
:10012000CDE10300CDE10300CDE10300CDE103000B
:10013000CDE10300CDE10300CDE10300CDE10300FB
:10014000CDE10300CDE10300CDE10300CDE10300EB
:10015000CDE10300CDE10300CDE10300CDE10300DB
:10016000CDE10300CDE10300CDE10300CDE10300CB
:10017000CDE10300CDE10300CDE10300CDE10300BB
:10018000CDE10300CDE10300CDE10300CDE10300AB
:10019000CDE10300CDE10300CDE10300CDE103009B
:1001A000CDE10300CDE10300CDE10300CDE103008B
:1001B000CDE10300CDE10300CDE10300CDE103007B
:1001C000CDE10300CDE10300CDE10300CDE103006B
:1001D0005C4B4CF2205210B51A804DF628121A8052
:1001E00000BF00BF3DF0F6FF574B4FF030621A6082
:1001F000564A9A60564ADA60564B4FF470021A60BB
:10020000554B564A1A60564B1A78110703D51A787F
:1002100042F008021A70534B5349AA221A70534AEB
:10022000534B8B4204D252F8040F43F8040BF8E707
:10023000504B514900228B4202D243F8042BFAE77B
:100240004E494F4A002352F8230041F8230001335E
:10025000742BF8D14B4B4C4A802103F8011B93427D
:10026000FBD14A4B454A1A60494B8A221A70A3F5C2
:10027000805324225A70A0221A709A799207FCD5D2
:100280009A79D406FCD4434A937903F00C03082BE3
:10029000FAD1414B60221A7002331A78802AFCD1BD
:1002A0003C4B01221A715D225A719A799006FCD555
:1002B0009979384A4906FBD5384B394919600021EC
:1002C000596020231370937903F00C030C2BFAD19F
:1002D000344B354A1A60354A354C136813F4807331
:1002E00003D123604FF4A8531360324B324A1A6093
:1002F00000225A60072243F8042C304AC3F80C2D20
:1003000062B63EF07DFB2368DA0705D52C483EF047
:1003100033F92C4B2C4A1A602C4B1B785B0609D501
:10032000284C294B22689A4204D125483EF024F9F2
:10033000002323603DF054FF42F086FF3DF046FE6F
:10034000FEE700BF0E20054030800440823F0400DD
:100350000100002B88ED00E0002008E0030000858C
:1003600002D0074000E007407826FF1FEC79050027
:10037000400CFF1F7826FF1F1C67FF1F0002FF1F96
:100380000000000000E400E064E400E008ED00E0AC
:10039000005006400040064001E007404480044011
:1003A0000000060204800440C010070010D0034083
:1003B00014D0034014E000E01FBF02000000202022
:1003C000F23592661CE00340A5C3945A00F0074042
:1003D000FFFFFFFFFFFFFFFFFFFFFFFFFFFFFFFF2D
:1003E000FFFFFFFFFFFFFFFFFFFFFFFFFFFFFFFF1D
:1003F000FFFFFFFFFFFFFFFFFFFFFFFFFFFFFFFF0D
:10040000FFFFFFFFFFFFFFFFFFFFFFFFDEF9FFFF23
:1004100010B5054C237833B9044B13B10448AFF33E
:1004200000800123237010BD7826FF1F000000000C
:10043000E8790500084B10B51BB108490848AFF32F
:1004400000800848036803B910BD074B002BFBD0A0
:10045000BDE81040184700BF000000007C26FF1FC9
:10046000E87905007826FF1F000000002DE9F04F15
:1004700089B00646139D149C0394012D169C049488
:100480009DF84890DDF854B00F4690461C4600F0A9
:100490009C80032B64DD032A00F3A680B3B2BAB2BA
:1004A000059303F1010A531C1BB2A4B206920793F1
:1004B0001A46ADB20FFA8AFAA31E009551461BB236
:1004C000594839F0B9FA1FFA88F808F1FF3536B201
:1004D0003FB22DB2B9F1000F5BD01FFA8BFB04F1D4
:1004E000FF39CDF800B02B463A4631464E480FFA58
:1004F00089F939F0B1FACDF800B04B463A463146A9
:10050000494839F099FA069BBDF80CB01C44013CEF
:1005100024B22B4651462246CDF800B0424839F06D
:100520009BFA059BBDF81050079ACDF800B098448F
:1005300008F1FF380FFA88F84B4641463A4839F03F
:100540007BFA3A4641462B46374839F0E9F83648B7
:100550002B462246314609B0BDE8F04F39F0E0B8ED
:100560009CD183B28AB2059303F1010A531C1BB2DA
:100570001FFA88F80692ADB20FFA8AFA1A46079364
:10058000A8F10203009551461BB2274839F064FADE
:100590009BE7BDF80C30039300933A462B46314657
:1005A000214804F1FF3939F057FA0FFA89F9039B12
:1005B00000933A464B4631461B4839F03DFA069BBC
:1005C0001C44013C1FFA8BFBA2E783B28AB203F101
:1005D000010A0593531C1BB206921FFA88F8A4B2B5
:1005E0000FFA8AFA079370E78AB29CB2114683B277
:1005F000059303F1010A0B4601331BB206921FFA61
:1006000088F8A21E1846ADB212B20FFA8AFA079302
:10061000A8F102038DE82400514602461BB20248AD
:1006200039F0C2FB51E700BF085FFF1F2DE9F0471B
:10063000161E9DF82070099DDDF828E0DDF82CC01D
:10064000DDF830A011DD002B0FDD012E0FD0012BC6
:1006500019D0CDF830A0CDF82CC0CDF828E0099500
:100660000897BDE8F047FFF701BFBDE8F087012D0F
:10067000FBD0ADB208950AB21BB201B2BDE8F0479B
:10068000074839F0D9B9012DEFD0ADB2089533B292
:100690000AB2BDE8F04701B2014839F0DDB900BF48
:1006A000085FFF1F2DE9F04F85B004461F4600206C
:1006B0001BB2009301900DF140090F98039099E847
:1006C000000E0D46164613B20C489DF838800AB24B
:1006D00021B23BF07FF903980F90BB1EB21E691C3C
:1006E000601CCDF848B0CDF844A0CDF84090CDF8CE
:1006F000388005B0BDE8F04FFFF798BF085FFF1FD7
:1007000070B58AB044F208269DF83C4000944FF63C
:10071000FF7548F210440494019403960295144620
:1007200005460E46FFF7BEFF0E9906A83CF0CAFE2E
:10073000164B06991648002908BF194600223CF0BE
:1007400033FA0138201A00EBD07040100328CCBFD8
:1007500080B204204119F21C12B209B20C483CF0DC
:10076000FDF906A83CF05AFE002109483CF018FAB1
:10077000012107483CF00EFA0E9905483CF086FC32
:1007800003483CF0A9FC0AB070BD00BFA673050089
:10079000085FFF1F2DE9F0472DED028B86B0B0EE0C
:1007A000408A9DF844709DF840A0F0EE608A814632
:1007B000884615461E46002F5BD1043D07EE905A31
:1007C000B8EEE77AF4EEC88AC7EE287AF1EE10FAAE
:1007D000D4BFB0EE680AB0EE480AB5EE400A9FED0D
:1007E0002E7AF1EE10FA98BFB0EE470A27EE800A93
:1007F000FDEEC07A17EE904A002C1DDD44F208236E
:10080000BAF1000F48F2104118BF184644F2FF72C7
:1008100012BF4FF482630A46002000218DE80A00CF
:1008200002920390049317EE902A331F08F10201FD
:1008300009F10200FFF7FAFE27B106B0BDEC028B0A
:10084000BDE8F087A4B209F102092B1B04EB0901F2
:1008500008F10202043E1148119736B21BB209B2E8
:1008600012B2109606B0BDEC028BBDE8F04739F02D
:100870009BBA48F2104444F2082E04944FF6FF74D9
:10088000CDF80CE002944FF0000E01248DE81040EA
:10089000FFF708FF91E700BF00000000085FFF1F9F
:1008A00070B586B048F2104344F208264FF6FF7543
:1008B0000124049301930396029500940223FFF709
:1008C000B5FE06B070BD00BF2DE9F0410E4C0F4DD6
:1008D000E561984606460F462046012115463CF044
:1008E00059F91FFA88F120463CF05AF93AB231B270
:1008F00020463CF033F9294620463CF0C7FB044B28
:10090000E361BDE8F08100BF085FFF1F545604009B
:10091000D45404002DE9F047284C294DE5610E46DA
:100920000546012120469A4617461FFA86F83CF0F4
:1009300031F9BDF8201020463CF032F90FFA85F964
:1009400008F1FF3212B2494620463CF007F9ADB239
:10095000394620463CF09AFB36B2691C324609B251
:1009600020463CF0FBF8394620463CF08FFB08F16E
:10097000010212B2494620463CF0F0F839462046C2
:100980003CF084FB691E324609B220463CF0E6F892
:10099000394620463CF07AFB1FFA8AF120463CF0AB
:1009A000FFF83246494620463CF0D8F83946204602
:1009B0003CF06CFB034BE361BDE8F087085FFF1F71
:1009C00054560400D454040010B582B01BB2BDF8D4
:1009D00010400093019413B20AB201B2024839F0F8
:1009E000E3F902B010BD00BF085FFF1F2DE9F04F13
:1009F00089B08A46139C0693E31D0393159BCDF89B
:100A00001CA00027DDF848B0169E4B4DDDF850A025
:100A1000049004F1FF3905925C1E3946BC4619F872
:100A2000018F14F801EFA5F12003802206E0C1B286
:100A30001E600433AB424FEA520212D01EEA020F8C
:100A400001F10100F3D118EA020F0CF1010056D0B8
:100A5000C3F800A00433AB425FFA80FC4FEA5202B5
:100A6000ECD103F12005039B9945D8D1BC45DDF8B5
:100A70001CA05CD98C455CD2012E0DD0B2B2BDF960
:100A80001830019200930FFA8AF2BDF91430BDF9C3
:100A900010102A4839F088F9069B53449A459B4622
:100AA0003ADA059B049ADFF89C80CDF80CB01F461B
:100AB00017449346BB4527DA214D0AEA0505002D68
:100AC00030DBED005C460FFA8AF90FE02B4458F852
:100AD00023309E4207D0012B21B29BB24A461748D1
:100AE00001D038F01DFE0134BC420DD0144B234020
:100AF000002BEBDA013B63F007030133E6E7013734
:100B0000FFB2C3F800B094E71AF00F0F07D0039BB1
:100B10000AF1010A9A45CDD109B0BDE8F08F13F072
:100B2000D1F8F4E7013D65F007050135C9E75E46F8
:100B3000A2E7FCD9149E9FE7B426FF1F085FFF1FA2
:100B4000070000809426FF1F2DE9F04F8BB0002591
:100B50009A461BB20446884616469DF85C70009380
:100B6000019513B20AB201B26D4808971FFA88FBCB
:100B70003AF030FFA2B2AAF102000992511C00B271
:100B80004FF482670BF10102B31E09B212B200905A
:100B90001BB201976248DFF89091A719079739F0C7
:100BA00003F9604A019208F10307012207980092B5
:100BB00039465346032204950295CDF80C90FFF771
:100BC00015FF584A01920334012200920323049531
:100BD000CDF80C9002952046324608EB0A01FFF74B
:100BE00005FF089B002B70D04FF6FF7944F28F234E
:100BF000102200950493019303920D23A6F1120293
:100C000039462046CDF80890FFF74CFD01214448B5
:100C10003BF0C0FF099942480BF10602083112B2BD
:100C200009B23BF09BFF49463D483BF0B9FF1499A0
:100C30003B483CF02BFA3A483CF04EFA0095079DB1
:100C4000CDF8089048F2104B0D2344F208223946A3
:100C50000392A5F110001A46CDF810B0CDF804B0FB
:100C6000FFF720FD44F208214FF6082207230391E5
:100C7000012100910192CDF810B0CDF80890A5F1B6
:100C80000D001A4608F10601FFF7F0FB159BCBB1EA
:100C9000A3F10203B3FA83F35B0948F2104E44F266
:100CA00008274FF6FF750093169B0193B21FAAF118
:100CB000150308F112012046CDF810E003970295C4
:100CC000FFF7F0FC0BB0BDE8F08F0899009144F2FB
:100CD0008F234FF6FF751022394604930193039238
:100CE0000D23B21F20460295FFF7DCFC01210C48C2
:100CF0003BF050FF09990A480BF10602083112B285
:100D000009B23BF02BFF294605483BF049FF1499F7
:100D100003483CF0BBF902483CF0DEF9B6E700BFFF
:100D2000085FFF1FD88E0400A04F04002DE9F04F8C
:100D300087B01478049201909DF8402003914FEA07
:100D4000530A002C43D1002A3ED0531EDBB201339C
:100D50001FFA80FB0593DFF8449102940BF1010325
:100D600001940093BAF1000F25D0019B039A9F18BC
:100D7000049B029A3FB203EB0208002618F8015FB9
:100D800045487400A4B22B1104EB0B0109B239F8E9
:100D900023303A4638F0C4FC009B3F4805F00F056D
:100DA000E118013639F8253009B23A4638F0B8FC76
:100DB000F3B29A45E2D8029A019B52440292059AF4
:100DC000013393420193CDD107B0BDE8F08F012CE0
:100DD000FAD1D90812FB01F10131002AF4D0531ED7
:100DE0004FF0000BDBB20133A0465D465C46CDF808
:100DF00000B0DDF810B005930291BAF1000F1ED0DB
:100E0000039B009A13441BB20493029B00260BEB36
:100E100003071DB91BF8084008F10108220617F85E
:100E2000019B2AD46400E4B2230614D40136F3B241
:100E3000640002359A45E4B205F00705E9D8029A44
:100E4000009B52440292059A013393420093D4D1FD
:100E500007B0BDE8F08F019B039A0F48591C009B17
:100E600009F00F099A180D4B01EB460133F82930B0
:100E700009B212B238F054FCD8E7019A064802EBE6
:100E800046014FEA2913054A09B232F82330049A81
:100E900038F046FCC6E700BF085FFF1FF4550400AA
:100EA0002DE9F04F8FB015789DF860609DF8644093
:100EB000002D7CD1002C7AD01F460493631EDBB238
:100EC0000D917108924609914A1E591CC7F30733C8
:100ED000D2B20393C7F303130A910593511C07F091
:100EE0000F03C7F303220C90AB460B9107950892B2
:100EF0000693CDF800A0099B002B50D0079B0D9ABC
:100F0000BDF830900B99DFF8B0809F18009A134617
:100F10005B4401EB0B0AA9F102010193029109F173
:100F2000FF393FB21E46924428E0069A059999423D
:100F300008BF1346039AAA422FD0069A0599A942E0
:100F400008BF1546009A1B4838F82330B4B2CBEBE3
:100F50000401891A029A02EB410109B23A4638F0BB
:100F6000DFFB019B1348E11A09EB410109B238F894
:100F700025303A4638F0D4FB564510D016F8015FBC
:100F8000049A2B0905F00F05002ADBD0039A9A4238
:100F9000CBD1039A089BAA42CFD1089DD2E7099AE8
:100FA000079B93440A9A013393420793A3D10FB04E
:100FB000BDE8F08F085FFF1FF455040008B5016815
:100FC000044B0548002908BF194600223BF0ECFD00
:100FD000013808BDA6730500085FFF1F002844F212
:100FE000082018BF0020704708B50021092030F004
:100FF00007FB00B908BD044B0222187840F6AC513B
:10100000BDE808403CF020B99C27FF1F08B500212F
:10101000092030F0F5FA00B908BD044B0222187817
:1010200040F6B831BDE808403CF00EB99C27FF1FE0
:1010300008B50021092030F0E3FA00B908BD044BDF
:10104000022218784FF4FA61BDE808403CF0FCB881
:101050009C27FF1F10B500210446092030F0D0FA6C
:1010600060B1074B002C41F20401187808BF4FF41F
:101070007A610222BDE810403CF0E6B810BD00BF26
:101080009C27FF1F10B500210446092030F0B8FA54
:1010900068B1074A41F2941141F230131078002CE4
:1010A00008BF19460222BDE810403CF0CDB810BD83
:1010B0009C27FF1F2DE9F04F8BB0804609910B2034
:1010C000002192461C4630F09BFA002106460C2077
:1010D00030F096FA002107460D2030F091FA0021F9
:1010E00081460E2030F08CFA002183460F2030F02C
:1010F00087FA344D344B55F8292053F8200053F823
:101100002B1055F8273055F8265003900191049282
:10111000029352462346099900954046FFF766FC24
:101120000021102030F06CFA012802D00BB0BDE88D
:10113000F08F099BDFF898B000264FF0BA092344DE
:101140000893CDF818903546374609F14603DBB2CF
:101150000793069A089B9342E8DDCDF818906B241C
:1011600012E02B466D081F420BD0A04508EB0A0386
:1011700007DC9C4205DA099B4B4502DC089B4B458A
:1011800018DC0134EB2C09D0A4F16B035A07E8D129
:101190001BF80670402501368023E4E7079B1B07F8
:1011A00005D009F10109B9F59B7FCED1BEE712F058
:1011B00089FDF6E700230FFA89F221B2034838F0DF
:1011C000AFFADEE7F4550400E08E0400085FFF1F6D
:1011D000648604002DE9F04F052397B0013BFDD153
:1011E00000210C465548DFF864B1DFF864A139F0FE
:1011F00017F8A1462546A046264623462746A2B212
:10120000D10700F1918052081BF802703A09002BB7
:101210006AD102F007014A48415C12073AF821807E
:101220005FD4012633462B44E02B65DC05F1080131
:1012300009B21D4609F11A02CDF8008012B23346F8
:101240003E4838F009FCE02D71D00023013445F20E
:101250000E329442D3D106A83A493CF01FF90A2233
:1012600002A802213CF060F902A906A83CF022FA8B
:1012700035493CF027FA0A22044601210AA83CF02D
:1012800053F90AA920463CF015FA2F493CF01AFA06
:101290000A22044600210EA83CF046F90EA9204679
:1012A0003CF008FA014612A83CF00CF912AA44F2EC
:1012B00008234FF49D710020FFF706FB12A83CF0B5
:1012C000ADF80EA83CF0AAF80AA83CF0A7F802A8CE
:1012D0003CF0A4F806A83CF0A1F817B0BDE8F08FE8
:1012E00016010133DBB2B1E7012BF9D01644F6B297
:1012F00033462B44E02B99DDA9B2C1F1E00309F19B
:101300001A022035083109B21BB212B20B48CDF8CF
:1013100000802E4438F0A0FBF6B20120814435460F
:101320003DF01CFB082185E707F00F026FE7012065
:10133000002581443DF012FB2B4687E7085FFF1F25
:10134000B4550400A45504004CD40400785604009D
:10135000F45504002DE9F04F85B00025029003916B
:10136000AB46AA462F462C462B46A946AAB2D10721
:101370005CD452082F4911F802904FEA1912002B41
:1013800031D12D4802F007011207415C2B4830F89B
:1013900021B025D4012423463B44BE2B2BDCBDF8D1
:1013A0000880BDF80C60B9B21F4606EB0A02414442
:1013B000234612B209B2CDF800B0214838F04CFBF8
:1013C000BE2F03BF00270AF1010A3B460023013567
:1013D00040F6C2429542C9D105B0BDE8F08F140174
:1013E0000133DBB2F3E7012BF9D01444E4B2234616
:1013F0003B44BE2BD3DDBDF80880BDF80C60CDF8B2
:1014000000B0BBB2423708EB030106EB0A023C44D2
:10141000C3F1BE0309B21BB212B20948E4B238F0FC
:101420001BFB0AF1010A27460021BEE709F00F0263
:10143000A5E700BF00800400CC550400F45504006B
:10144000085FFF1F2DE9F04F814687B08A46184696
:101450005A491D4617463CF067F918B1012007B0FC
:10146000BDE8F08F044601215548564E3BF092FBF3
:10147000BDF8441052483BF093FB294602A83CF0CB
:1014800021F802994E48002908BF314622463BF018
:101490008BFB00F1FF3802A83BF0C0FF47452BDB78
:1014A000109B012B17D0022B7FD1C8EB0707002F11
:1014B000ACBF09EB070109F1000109B20FFA8AF28A
:1014C0003F483BF04BFB29463D483BF0DFFD012008
:1014D00007B0BDE8F08FC8EB070707EBD7777910A7
:1014E0000029ACBF494409F1000109B20FFA8AF2A0
:1014F00033483BF033FBE6E7334902A83BF0CEFF2D
:1015000002992F48002908BF314622463BF04CFB88
:101510005FFA80FB02A83BF081FF019626461EE0A1
:101520003CF046F9017802A83CF012F8019B0299C0
:101530002348002908BF194600223BF035FB8046AE
:1015400002A83BF06BFF08F1FF30C0B20219CBEBF1
:1015500007039A4200F101000ADA044401363146D9
:1015600028463CF025F9037831462846002BD7D190
:101570000FFA8AF20FFA89F111483BF0EFFA0024D2
:1015800056B1214628463CF013F9013401780C4845
:101590003BF09CFAA642F4D101220B4908483BF0EB
:1015A0005FFD002007B0BDE8F08F0FFA8AF20FFA56
:1015B00089F103483BF0D2FA85E700BFD8D5040093
:1015C000085FFF1FA6730500B05504002DE9F04326
:1015D00087B00F4C0E9E0F9F0E4DE5618846054665
:1015E0009146194602A83BF06DFF02AB4A464146C0
:1015F0008DE8C0002846FFF725FF054602A83BF00E
:101600000DFF054BE361284607B0BDE8F08300BF3E
:10161000085FFF1F54560400D4540400F8B50A2490
:10162000002517203CF0E4FA054405203DF096F92A
:10163000631E13F0FF04F4D17A4B7B4A83FB05133E
:10164000ED171178C5EBA3058D4202DB53789D425F
:1016500074DD764B1B78012B73D0DFF83CE27449C4
:10166000744F754B754D764E764C7748774A4FF0F0
:10167000050C8EF800C04FF01F0E4FF01C0C81F8C7
:1016800000E087F800C02021DFF810E2197002277F
:101690004FF0040C2F7086F800C06D496D4F6E4BF3
:1016A00019264FF0090C26708EF800C003256B4EEA
:1016B00005704FF00A0E4FF0060C81F800E087F835
:1016C00000C0674DDFF8D8E166481A2400214FF0CA
:1016D0000F0C1470197086F800C0634C6349644A9B
:1016E000644B07274FF00E0C2F7010260825624F11
:1016F0008EF800C04FF0210E0570267081F800E0D2
:101700005E485F4D5F4E11244FF0230E147022216E
:101710005D4A87F800E02427197007705B4C5C492C
:101720005C4B252726202F7010701D271E251820A2
:101730001B223770257008701A70F8BD3B4B0122D0
:101740001A70DFF854E13A493A4F3B4B3B4D3C4E5F
:101750003C4C3D483D4A4FF0180C8EF800C04FF00D
:101760000A0E4FF0000C81F800E087F800C002215B
:10177000DFF828E119700E274FF0280C2F7086F83B
:1017800000C03349334F344B0F264FF0240C2670E2
:101790008EF800C02925314E05704FF0230E4FF012
:1017A000190C81F800E087F800C02D4DDFF8F0E05B
:1017B0002C48102425214FF0200C1470197086F845
:1017C00000C0294C29492A4A2A4B22274FF0260CCF
:1017D0002F701F262125284F8EF800C04FF0090ECC
:1017E0000570267081F800E02448254D254E1E2402
:1017F0004FF0070E14700821234A87F800E00627EF
:1018000019700770214C2249224B052704202F70A4
:1018100010701D271C2515201622377025700870A2
:101820001A70F8BD67666666200DFF1FAF27FF1FA1
:10183000AB27FF1FB027FF1FA727FF1F9A27FF1FF8
:101840009F27FF1F9827FF1F9B27FF1FAD27FF1F05
:10185000B127FF1F9E27FF1FAA27FF1FA327FF1FD8
:10186000A027FF1FA227FF1FA427FF1FA127FF1FDD
:10187000A527FF1F9427FF1FA627FF1FA827FF1FCD
:101880009627FF1F9927FF1FAE27FF1FA927FF1FBE
:101890009727FF1F9527FF1F9C27FF1FAC27FF1FC0
:1018A0009D27FF1F014B1878704700BFAF27FF1F10
:1018B0002DE9F04F002089B003F0F2FD002103F084
:1018C0000DF848F2104183467A4838F0A9FC2023ED
:1018D0000A2100930846784A0026FFF727FA77493D
:1018E00004A83BF0DBFD04AB6422232101960096A3
:1018F0003220FFF7A7FD04A83BF090FD6F4904A834
:101900003BF0CCFD04AB64222321019600963320EA
:10191000FFF798FD04A83BF081FDE8222C2104206C
:10192000FEF7BEFF664904A83BF0B8FD04ABDC221D
:101930003221019600960A20FFF784FD04A83BF0AF
:101940006DFD604904A83BF0A9FD04ABDC223A21FF
:10195000019600960A20FFF775FD04A83BF05EFD96
:10196000594904A83BF09AFD0196009604ABDC228D
:1019700042210A20FFF766FD04A83BF04FFD01233A
:1019800003930323029348F2104300932422072376
:1019900042218720FFF718F8029B032B00F0888074
:1019A000029B022B0CBF4949494904A83BF076FD34
:1019B00004ABDC224221019600968720FFF742FD0E
:1019C00004A83BF02BFD0021012002F0D7F9029B77
:1019D000DDF80C80C3F34009002748F2104A0723C2
:1019E000062232218720CDF800A0FEF7EDFF394B0B
:1019F000FDB2A3FB0534A40821460A2204A83BF04B
:101A000093FD04ABDC223221019600968720FFF77C
:101A100019FD04A83BF002FD04EBC40407230C22CB
:101A20003A218720CDF800A0FEF7CEFFA5EB4401B8
:101A3000C9B20A2204A83BF077FD04ABDC223A21AC
:101A4000019600968720FFF7FDFC04A83BF0E6FC1A
:101A500028460122594602F08DFA42464946284658
:101A600002F03CFC05F130019FED1B0AC9B228468B
:101A700002F0EEFA0121284602F0B0FBFA203CF019
:101A80006DFF01372846002102F0A8FB242FA4D1C6
:101A90004FF47A703CF062FF029B039A013B82F0A4
:101AA000010213F0FF03039202933FF468AF6AE769
:101AB0000A497AE7085FFF1FCC8F0400608F04009B
:101AC000708F0400848F04009C8F0400BC8F04007E
:101AD000C48F0400398EE33800000000B48F040086
:101AE0002DE9F04FADF51D7D0023838005900E4656
:101AF000174619460DF276200DF11E0323F8061C39
:101B000023F8041C23F8021C06339842F6D1002166
:101B100058482DF089FDA6F10F02A7F10F0344F2FA
:101B20008F2912B21BB2049236B203933FB2CA4657
:101B300048F210484FF01E0B1E23039A04994E489A
:101B4000CDF80480CDF800B038F02EF910230093C2
:101B50003A4605233146484839F020F801214548E6
:101B60002DF062FD0F2425B22B463A4631464248FD
:101B7000CDF800A038F096FE32203CF0EFFE2B4668
:101B80003A4631463C48CDF8008038F08BFE394863
:101B90002DF03EFD013CA4B208B1052CE3D135483F
:101BA0002DF036FD0028C7D00025002000212C464E
:101BB0000BE0642DC3F3C70035D040F087FF41EC44
:101BC000100B3FF099F851EC100B00222B4B40F01A
:101BD00031FE41F091FA0FFA80FB3A465B463146FE
:101BE0002548CDF8009038F05DFE06AB05EB4500CA
:101BF00003EB40001F4935F0A5F90A203CF0AEFE8A
:101C00005B463A4631461C48CDF8008038F04AFE23
:101C100018482DF0FDFC0134194BE4B2A3FB04235A
:101C200001350028C5D1632C84D94FF480633A462E
:101C3000314600931048052338F0B0FF002206AB70
:101C400011469CADB3F90040B3F9020006339D4242
:101C500021440244F6D10B4BA3FB01010598A3FBE1
:101C600002235B094A09028043800DF51D7DBDE812
:101C7000F08F00BF645EFF1F085FFF1F0000184069
:101C8000CDCCCCCC1F85EB5110B52DED028B8AB09D
:101C90008DE80C0002AB83E80300BDF900309FED36
:101CA000576A9FED570ADFED574ADFED572A9FED40
:101CB000573A574807EE903ABDF9383005EE103ADA
:101CC000BDF90A3004EE103ABDF9023007EE103AC1
:101CD000BDF93A30F8EEE77A05EE903AB8EEC55A1B
:101CE000BDF90830C7EE860A04A9C5EE067A06EEED
:101CF000903AB8EEC44AB8EEC77AF8EEE55A84EEE8
:101D0000065AC7EE068AF8EEE66A85EE867AC6EED1
:101D1000865A30EEE78A78EEC71A68EE456A27EEF3
:101D2000E86AE5EEA16AA0EE876AB7EE002A76EED1
:101D3000866AF0EE463A82EE264A27EEC56A75EECE
:101D4000E77AA5EE876A35EE477A20EEC52A27EEB8
:101D5000447A61EE841A67EE847A27EE241A27EE1D
:101D6000007A66EE446A23EE846AF0EE423AB2EEFE
:101D70000E2A28EE448AA1EE821AA1EE827A67EE3C
:101D8000A41AE5EEA83A67EE807A66EEA44A66EEFB
:101D9000806AE8EE021A35EE685AE6EE024AE6EE8E
:101DA000026A75EEE05AE8EE027A25EE045A23EE56
:101DB000846A65EEC45AB0EE414AA5EE224AA5EE09
:101DC000037AB0EE615AA5EEA25AE6EE224AE5EE9B
:101DD000837AE6EE036A8DED044A8DED077A8DED88
:101DE000055ACDED064ACDED087ACDED096A2DF004
:101DF0002DFC0AB0BDEC028B10BD00BF00007A4480
:101E00000000344300005143000060430000994348
:101E1000645EFF1F2DE9F04FA1B001ABDFF84C93DA
:101E200007931CAC48F21041C2480025012638F047
:101E3000F7F9C14920463BF031FB2346F02242210D
:101E4000019528460096FFF7FDFA20463BF0E6FA9A
:101E5000BA4920463BF022FB2346F0224A21019555
:101E600000962846FFF7EEFA20463BF0D7FAB44931
:101E700020463BF013FB2346F022322101950096C9
:101E80002846FFF7DFFA20463BF0C8FA0F2211463A
:101E90000CA8FFF725FE082748F2104332220193D1
:101EA0002946F0230097A34837F07EFFA549204636
:101EB0003BF0F4FA2346F0223221019500962846A1
:101EC000FFF7C0FA20463BF0A9FAB422D1210EA8B0
:101ED000FFF706FE48F2104332220097019329468D
:101EE000F023944837F060FF974920463BF0D6FA3C
:101EF0002346F0223221019500962846FFF7A2FAE8
:101F000020463BF08BFA4FF49972E02110A8FFF7BE
:101F1000E7FD10AB93E803000EAB0CCB00900798E5
:101F200001800CA903C9FFF7AFFE294687482DF0B1
:101F30007BFB874920463BF0B1FA2346F02264211F
:101F4000019500962846FFF77DFA20463BF066FA99
:101F5000804920463BF0A2FA2346F0226C210195ED
:101F600000962846FFF76EFA20463BF057FA7A496A
:101F700020463BF093FA2346F02274210195009607
:101F80002846FFF75FFA20463BF048FA734920469F
:101F90003BF084FA2346F0227C21019500962846E6
:101FA000FFF750FA20463BF039FA4FF6FF7344F240
:101FB000082248F21041049103920293C82201932F
:101FC0009621642314200096FEF76CFB644920469A
:101FD0003BF064FA0D234022FE219C208DE8300066
:101FE000FEF78EFB20463BF019FAD9F80030099332
:101FF000DDF82480AA461E2754482DF09BFB534948
:1020000012A82DF0F9FA5148BDF948B0BDF94A605F
:102010002DF0F0FA012877D071D3032830D1002DAC
:1020200000F0D280BAF1000F00F0D080ABF11603BF
:102030009BB2C32B24D8A6F198039BB25F2B1FD869
:102040004FF40043009652462946019339485B46B7
:1020500038F0D0FDB2465D460026D9F800300A932C
:102060000A9BDFF808B1C8EB0303B3F57A7F09D206
:10207000002EC1D035482DF0F3FA21B0BDE8F08F25
:102080000026EAE7082348F21042019200937C22DE
:10209000F02300212748013F37F086FEFFB2314987
:1020A00018A83BF0FBF9394614A83BF029FA14A90B
:1020B00018A83BF0FFFA2C493BF004FB01462046F0
:1020C0003BF000FA00200123F0227C2100930190D4
:1020D0002346FFF7B7F920463BF0A0F914A83BF0E0
:1020E0009DF918A83BF09AF9DBF800300B93DDF866
:1020F0002C80002EBED1002F7FF47EAF92E64FF0F1
:10210000000A55465646A8E71FFA8BF3A3F11602BC
:10211000C32A2DD8A6F1980292B25F2A28D8324657
:102120004FF4004359460348B2465D4637F0F8FA8B
:10213000002692E7085FFF1FD0910400F49104008D
:10214000109204003092040050920400645EFF1F5D
:102150007092040094920400BC920400E092040087
:10216000F4920400F8920400B80F05007063FF1F9A
:102170009C3B352B84D8FE3EB6B20C2E80D8144939
:10218000204601263BF08AF90D234022FE218DE8EE
:1021900050009C20FEF7B4FA20463BF03FF90021A6
:1021A0000C482DF041FA0A4920463BF077F900230C
:1021B000019300940D234022FE219C20FEF7A0FAFB
:1021C00020463BF02BF948E72E4646E7564644E7C3
:1021D000F4920400645EFF1F70B50E4E0E4D307811
:1021E0000E4C01213CF090FB287801213CF08CFB47
:1021F000207801213CF088FB307800213CF070FB16
:10220000287800213CF06CFB20780021BDE870406C
:102210003CF066BBA327FF1FA427FF1FA527FF1FB6
:1022200010B50C4B044600F0010118783CF058FB47
:10223000094B04F0020118783CF052FB074B04F004
:10224000040118783CF04CFB054BBDE810401878B1
:102250003BF0CEBCA327FF1FA427FF1FA527FF1F0E
:102260009D27FF1F70B50646FFF7DAFF154B0546A1
:102270000021985D2FF0D0F9134B04460021985DA2
:102280002FF0CAF92D1B001B07EE900A07EE105A1B
:10229000F8EEE77AB8EEC77AB7EE000AC7EE276A1B
:1022A000F4EEC06AF1EE10FA00D470BDF5EEC06A2B
:1022B000DFED067AF1EE10FA8CBFB0EE660AB0EEF2
:1022C000670A70BD3C0DFF1F440DFF1F000000009A
:1022D00000B583B00191FFF7C5FF019907EE901A91
:1022E000F8EEE77AF7EE006A86EEA77A013907EE94
:1022F000901A80EE070AF8EEE77AB4EE670AF1EE7C
:1023000010FA48BFF0EE407AF5EEC07AF1EE10FA1E
:102310008BBFFDEEE77A0023CDED017A01930198A2
:1023200003B05DF804FB00BF10B50C46FFF79AFF41
:10233000F6EE007AB4EEE70AF1EE10FAACBF012037
:1023400000200CB180F0010010BD00BF064B002240
:1023500003F1300001211A7059705A609A70DA70D6
:1023600008338342F7D170474C0DFF1FFFF7EEBFD4
:10237000074901EBC00310B40022012401F830200A
:102380005C709A70DA705A605DF8044B704700BF59
:102390004C0DFF1F084B7F2203EBC00029B9817849
:1023A0005D39C9B2892001F065B981785D39C9B25A
:1023B000992001F05FB900BF4C0DFF1F10B5114C03
:1023C00004EBC004A3789B0701D549B910BDA1B99E
:1023D00006F0C4F80028F9D0BDE8104005F0DCBED6
:1023E00006F0BCF80028F7D1A07880F00400C0F314
:1023F0008000BDE8104005F04FBF06F0AFF80028A0
:10240000E4D1F1E74C0DFF1F10B50C4606F0A6F81D
:1024100020B11CB1BDE8104005F07ABF10BD00BF6F
:10242000F8B52D4F00243D4617F83430E6B2D3B14D
:10243000012B1ED0E978304601F00101FFF774FF4F
:102440006B68002814BF7F2200229A420BD06B7861
:102450006A60013B032B06D8DFE803F0342A200230
:1024600008B105F0DFFE0134062C05F10805DBD1CB
:10247000F8BD30468021FFF72BFF6B689842064677
:10248000F1D0C2B2EB786978A8786E60013405F0BB
:1024900045FD062C05F10805C6D1E9E701460134E2
:1024A0003046FFF78BFF062C05F10805BCD1DFE7AE
:1024B000014601343046FFF7A7FF062C05F1080559
:1024C000B2D1D5E7014601343046FFF763FF062C51
:1024D00005F10805A8D1CBE74C0DFF1F014B03EB1D
:1024E000C00070474C0DFF1F034B13F83000003045
:1024F00018BF0120704700BF4C0DFF1F70B5074C7F
:10250000002604F51075A17826700B0602D46078B9
:1025100003F0C6F90C34AC42F5D170BDB427FF1FEF
:10252000114A70B4FF2002F5806600214FF07E55FD
:102530000324134603F83C0D1871996019731D614B
:1025400003F8144F9342F7D103F14002B242F0D1A5
:10255000002306491A46CA540C33B3F5107FFAD14A
:1025600070BCFFF7CBBF00BFB80DFF1FB427FF1F24
:1025700038B5154C04F5107506E014F8030C03F09B
:102580008FF90C34AC421DD014F8042C531EDBB26E
:10259000002AF6D004F8043C002BF2D114F8023CD7
:1025A00013F0800F1946E8D0227994ED000A14F850
:1025B000030C03F07F010C3414F80D3C03F0CCFC49
:1025C000AC42E1D138BD00BFB827FF1F2DE9F0476D
:1025D0002DED028B294E884600239C012749355D4D
:1025E000954203F1010305D0102BF6D1BDEC028B0F
:1025F000BDE8F087224D04F13C060746B0EE408A64
:10260000A9460E440C44A8F1800A2379FF2B21D05F
:10261000D4F808E0BEF1000F23DD00210A4602E0F5
:102620000132302A16D0685C0C310028F8D102EB58
:102630004202D4ED047A217B09F822E067EE887A21
:1026400009EB82025144207D5770D3709170C2ED26
:10265000017A10721434B442D7D1BDEC028BBDE8BC
:10266000F087217B94ED040A227D4144C9B228EE13
:10267000000A384603F070FCECE700BF7C0DFF1F3A
:10268000B427FF1F2DE9F8431D4E884600239C0107
:102690001B49355D954203F1010303D0102BF6D1A0
:1026A000BDE8F883174D04F13C060746A9460E44E1
:1026B0000C442379FF2B16D0A068002818DD0022D7
:1026C000134602E00133302B0DD0A95C0C320029F7
:1026D000F8D103EB4303227B09F8230009EB8303C2
:1026E00042445F709A701434B442E2D1BDE8F8837A
:1026F000217B4144C9B2384603F0D2F8F3E700BF6A
:102700007C0DFF1FB427FF1F0F289ABF024B03EB5E
:1027100080100020704700BF7C0DFF1F034B80011D
:10272000185CFF3818BF0120704700BF7C0DFF1FE9
:102730000B4B8101FF2230B408465A543C311944F6
:1027400018444FF07E550023032402718360037305
:10275000056100F8144F8842F7D130BC704700BFC4
:102760007C0DFF1FFFF7E4BF8001054B01EB8101EA
:1027700000EB810119440879FF3818BF0120704728
:102780007C0DFF1F80010A4B01EB810100EB8101F1
:10279000194410B40023FF2403224FF07E500C7123
:1027A0000A750B7308618B605DF8044B704700BFBE
:1027B0007C0DFF1F30B5094D094C2B68226883B092
:1027C0000093009B9B1AB3F5FA7F05D311F06CFAC6
:1027D0002B680193019B236003B030BD7063FF1F22
:1027E000102AFF1F014B18783BF082BEA727FF1F5E
:1027F000064B074953F82020096810B4002443F819
:10280000204001FB02F05DF8044B7047042AFF1FD3
:102810008011FF1F08B538B1074B18783CF066F8F7
:10282000B0FA80F0400908BD044B18783CF05EF81F
:10283000B0FA80F0400908BDAE27FF1FA627FF1F92
:102840000346024A0021105CD1547047FC29FF1F47
:10285000064A13780F2B07D810B4591C044C11707A
:1028600044F823005DF8044B704700BFF829FF1FB0
:10287000142AFF1F70B5044680B3224E224D3378D0
:1028800055F82300844236D0FF2B19D133701F4BEB
:10289000187868B12B689C422ED01B4A002303E0B5
:1028A00052F8041F8C4210D00133DBB28342F7D1BF
:1028B0001749184A00230B604B601370537070BDAA
:1028C00000212FF07BF9FF23E0E7FF2B3370EFD0DF
:1028D00055F8230001212FF071F9E9E7094D2B7814
:1028E000FF2B0CD0084A214652F823002FF066F93E
:1028F000FF232B70DCE770BD00233370E8E72B70FB
:10290000D6E700BF7C11FF1F142AFF1FF829FF1F05
:10291000042AFF1FFC29FF1F054B1B78834202D8A6
:102920000020FFF7A7BF034B53F82000FFF7A2BF1B
:10293000F829FF1F142AFF1F70B5FF20FFF7ECFFD7
:10294000094E0A490A480B4C0B4B0022FF250A701E
:102950004A70026042603270257003F1400143F812
:10296000042F8B42FBD170BDF829FF1FFC29FF1FEC
:10297000042AFF1F7C11FF1F102AFF1FF8B5264EE7
:10298000377887B1254D2B68834201463DD02B46D1
:10299000002403E053F8042F8A4205D00134E4B246
:1029A000BC42F7D1F8BDF8BD084600212FF006F96A
:1029B000FF2C2FD030780138C0B2A042307088BFD1
:1029C000234607D95A1C55F8221045F82310D3B2D4
:1029D0009842F7D8124A13780021FF2B45F82010AF
:1029E00012D0A34203D0DED9013B1370F8BDFF2300
:1029F00013700028D7D00138A042A8BF2046C0B22B
:102A0000BDE8F840FFF788BFF8BD00212FF0D6F8E9
:102A10000024CFE7F8BD00BFF829FF1F142AFF1FCD
:102A20007C11FF1F2DE9F04F594C81B03BF072FF34
:102A30002368C01A632802D801B0BDE8F08F3BF0CC
:102A400069FF544F544EDFF868A1DFF868912060A9
:102A50000025BB46A8461AF8010B36F8024B3BF09E
:102A600045FF40EA440080B2B0F5704F4DD026F8E3
:102A7000020C0135042D0BF1040BECD1474D2B78E2
:102A8000002BD9D0464E3A683368002403FB02F38A
:102A9000A3423C6043DD0120FEF7DCFA414B1A788B
:102AA000FF2A71D12B784FF001089C4258D3204661
:102AB000FFF732FF7B683468002004FB03F4786082
:102AC000002CB9D0374E3378FF2BB5D02A789A42F4
:102AD00084BF354A52F823002FF08AF80028ABD083
:102AE000002CD4BF00200120FEF7CCFA33782A78DE
:102AF0009A4223D92C4A52F8230003685B6B214683
:102B0000012201B0BDE8F04F1847012D26F8028CD4
:102B100017D909EB0503012103F8021CA9E7C9D065
:102B20002046FEF797FA1F4B1A78FF2A26D0FF237C
:102B30004FF0FF38D418E4B22B78B6E700231B68B7
:102B4000FFDE1A4B585D3BF0D1FEDBF80030002869
:102B50000CBF4FF0FF3101210B44CBF8003088E768
:102B6000DFF8449059F824002FF042F800289ED155
:102B700044442B78E4B2A34299D9F3E72B785C1E46
:102B8000E4B24FF0FF3890E701239846D2E700BF48
:102B90000C2AFF1F042AFF1F8411FF1FF829FF1FA3
:102BA0008011FF1F7C11FF1F142AFF1F002AFF1F27
:102BB000F429FF1FFC29FF1F2DE9F047474FDFF8DD
:102BC0004C913878464C474EDFF84481464D002101
:102BD0003BF09AFE99F8000000213BF095FE20782A
:102BE00000213BF091FE307800213BF08DFE98F8FB
:102BF000000000213BF088FE287800213BF084FE95
:102C0000FEF750FE002845D1DFF808A101469AF8EA
:102C100000003BF079FE9AF80000344902223BF0B4
:102C2000EBFB334B334999F8000098F800C0327839
:102C3000187083F801C03048304B97F800E02678D0
:102C40002F784A7000254FF6FF72056081F800E08A
:102C5000CF708E701A805A809A80DA80FFF7E2FE79
:102C60002078214C3BF042FED8B1002131202EF0DB
:102C7000B5FC234C002814BF4FF0FF330123236021
:102C8000FEF710FE10B123685B422360BDE8F047F9
:102C9000FFF752BE1B4B1549187802223BF0ACFBE4
:102CA000BFE720783BF022FE04460028DDD1164B1A
:102CB0004FF4FA7218784FF47A713AF0C5FA214657
:102CC00031202EF08BFC80F00101C9B22246312068
:102CD0002EF0B6FC2EF076FBC7E700BFA127FF1F42
:102CE000A627FF1FA827FF1FAE27FF1FB52700003D
:102CF000002AFF1FF429FF1F0C2AFF1F8411FF1F4A
:102D00008011FF1FA727FF1F9C27FF1F9427FF1F6E
:102D10009627FF1FB027FF1F0020FFF7ABBD00BFA6
:102D2000054B064A1B7812789A4286BF044A52F82D
:102D300023000020704700BF7C11FF1FF829FF1FF0
:102D4000142AFF1F034A044B10781B78834298BF54
:102D5000FF2070477C11FF1FF829FF1F38B505467B
:102D60000024E0B20021013402F0F6FD102CF8D16D
:102D700004F006FC2846BDE8384005F05FBC00BF03
:102D800038B505460024E0B22946013402F0E4FDDE
:102D9000102CF8D10549064B00220A8003F14001AE
:102DA00023F8022F8B42FBD138BD00BFA42AFF1F9E
:102DB000522AFF1F2DE9F041002705460E463C46EA
:102DC00002E00137102F1AD05FFA87F8404602F070
:102DD00077FBA842F5D14046314602F0BDFD094AD5
:102DE000380202F1400132F9023F03F47F43984276
:102DF00008BF14808A42F6D10137102FE4D1BDE814
:102E0000F08100BF522AFF1F0E28F8B51F46044666
:102E10000D461F4B12DC48BB1B88DB0715D4204630
:102E200002F04EFB06462946204602F039FD3246A6
:102E300029462046FFF726FC1FBBF8BDB3F900303A
:102E4000002B4FF00F04EADA2046124A002302E07A
:102E50000133202B0FD032F9021F0029F8D10135A0
:102E60000D4A05EB002022F81300F8BDB3F900303D
:102E70000341DA07E9D40928D1D105F15D06F6B29C
:102E8000D1E729462046BDE8F84004F007BA00BF64
:102E9000A42AFF1F522AFF1F542AFF1FFFFFFFFF14
:102EA000F0B52DED028B83B00192002A5ED00E2882
:102EB00004460D461E4642DC00285ED1002E41D15C
:102EC000DDED017A9FED407AF8EE677AF4EEC77A8D
:102ED000F1EE10FA42D517EE900A3FF009FE41ECF0
:102EE000100B3DF0F9FF2046B0EE408AF0EE608A0C
:102EF00000F020FDF8B9092C33D105F15D07FFB2D0
:102F00002DA3D3E9002351EC180B3FF06FFF40F0E5
:102F10003BF908EE100A00EE100A0322294620466B
:102F2000FF2303F019F8B0EE480A3A462946204636
:102F3000FFF74CFB46BB03B0BDEC028BF0BD0F248A
:102F4000002EBDD005F01CFB0028B9D005F01EFBFB
:102F5000A042B5D1012005F09FF9B1E79FED180B14
:102F6000BFE7204602F0ACFA0746C9E703B0BDEC64
:102F7000028BBDE8F040FFF747BF09289ED1A1F1C1
:102F800023032E2B9AD9D6E7204600F0B1FCDFEDC3
:102F90000E7A28EE000A294620EE270A2046FCEE8B
:102FA000C07ACDED017A9DF8042003B0BDEC028B10
:102FB000BDE8F04004F0DEB8422E60947260134029
:102FC0000000000000C05F400000FE420E2870B507
:102FD000D4BF04460F24164620460D4604F01EFFBB
:102FE00006B970BD29462046BDE8704004F062BABB
:102FF0000E282DE9F041D6BF05460F262E460C4679
:103000003046C8BF35461746984605F05FF8402C55
:1030100070D007D9792C2BD07B2C10D0782C41D0B4
:10302000BDE8F081072C58D00A2C14D0012CF7D120
:10303000424639463046BDE8F041FFF7C7BF434B33
:10304000B3F90000284110F00101E9D13046BDE894
:10305000F04102F081BC3946304600F003FCB8F183
:10306000000FDDD039463046BDE8F04104F0CCB960
:103070004021304643460022FFF7BAFF0021304688
:1030800004F0F6FFB8F1000FCAD06421304604F016
:1030900095F9304600F034FC01463046BDE8F04179
:1030A00004F0B2B929482A4A01880123AB4021EA39
:1030B0000303038002F140012802002432F9023F99
:1030C00003F47F43984208BF14809142F6D1304602
:1030D0000121BDE8F04102F03FBC3946304600F026
:1030E0007FFBB8F1000F9BD039463046BDE8F04178
:1030F00004F064B93F2F20D81449154C0A880123E5
:10310000AB4022EA03030B802D0204F140060027A6
:1031100001E0A6420FD034F9020F00F47F439D4234
:10312000F7D1411EC9B2C0F3072043460022FFF782
:103130006BFE2780EDE7BDE8F081044A012013888B
:10314000A84003431380BDE8F08100BFA42AFF1FFD
:10315000522AFF1F38B500240023E0B21A46782116
:103160000134FFF745FF102CF6D100203DF02EF87A
:1031700038B100203DF02AF80028F6D101E03CF0FB
:1031800077F83CF061F804460028F8D10A490B4B67
:103190000B4A0C4D08781C7021465C709C701470B2
:1031A0002C703BF09DFB084B214618783BF098FBB8
:1031B000064B1C6038BD00BF9927FF1FA02AFF1FC8
:1031C0009F2AFF1F982AFF1FA927FF1F942AFF1F6E
:1031D0000E282DE9F0410D4690461ADD0F242646B3
:1031E0000F4600237B2120461A46FFF701FF2946A0
:1031F000204602F0ADFAB8F1000F03D02946204670
:1032000004F0A4F83A4631460120BDE8F04110F040
:10321000F7BE0446064608B92F46E2E70928FBD167
:103220002E2903D881F080052F46DAE780273D4616
:10323000D7E700BF06EE901ADFED1A7A9FED1A7AF3
:10324000FAEEE96A30B5E6EEA77A0E2883B0D8BF69
:103250000446F4EEC77AC8BF0F24F1EE10FA0091CD
:10326000154610D5F5EEC07AF1EE10FA13D800210C
:10327000204604F0B9FD65B10099204603B0BDE8D1
:10328000304004F0F7B87F21204604F0ADFD002D5A
:10329000F2D103B030BDFCEEE77ACDED017A9DF8B6
:1032A0000410F1E7000080420000FE4270B5FFF715
:1032B00051FF0125002602E00135EDB20136F4B2DE
:1032C00000231A4620467821FFF792FE002320466D
:1032D0001A467921FFF78CFE0022092E114620465E
:1032E00012D0FFF775FF002211462046FFF7A2FF1C
:1032F000002320461A460121FFF77AFE102DDBD16C
:10330000BDE8704010F0D0BC304600228021FFF7AD
:103310005FFF002211463046FFF78CFF00231A465C
:1033200001213046FFF764FEC6E700BF08B5074B32
:10333000187018B9BDE80840FFF7B8BFFFF70AFFDB
:103340000020BDE80840FFF71BBD00BF992AFF1F02
:1033500008B505F009F900B908BD05F0FFF8002827
:10336000FAD0BDE8084004F0D3BF00BF08B505F0AF
:10337000FBF800B908BD0020BDE8084004F08CBF90
:1033800008B505F0F1F800B908BD0120BDE8084016
:1033900004F082BF70B552490878A0F1800300F0B4
:1033A0000F007F2B45D8DFE803F07D7D7D7D7D7D9F
:1033B0007D7D7D7D7D7D7D7D7D7D84848484848413
:1033C0008484848484848484848445454545454537
:1033D000454545454545454545458B8B8B8B8B8BF9
:1033E0008B8B8B8B8B8B8B8B8B8B777777777777A5
:1033F0007777777777777777777745454545454589
:10340000454545454545454545456868686868689A
:1034100068686868686868686868444457444444F1
:1034200044644B444F534044449205F09DF80028B7
:1034300051D170BD49780122BDE87040FFF7C6BD8B
:10344000BDE87040FFF784BFBDE87040FFF78EBF56
:10345000BDE87040FFF794BF8D784C7805F084F894
:103460000028E6D004EB052080B2BDE87040FFF7ED
:1034700075BC1C4B00221A7070BD8B784A78D9013C
:1034800001F47E5302F07F011944A1F5005101229D
:10349000BDE87040FFF7CEBE49780122BDE870401C
:1034A000FFF796BE8A7849780123BDE87040FFF7A0
:1034B000ABBC8A7849780123BDE87040FFF7F0BCC7
:1034C0008A7849780123BDE87040FFF791BDBDE8D7
:1034D0007040FFF7EBBEBDE8704004F05DBE00BF7A
:1034E000A02AFF1F9F2AFF1F2DE9F041544B1C7893
:1034F00082B0002C40F08880524D534E2F4611E090
:1035000032782A7002F0F000F0280878197804D098
:103510009EF80030013B13433B706870A970012492
:10352000FFF738FF00203CF051FEDFF844E1474947
:10353000474B0028E4D1434D464E2F4611E03278E8
:1035400072B92A78DFF8FC80434C002A3DD02178FC
:103550004A1CD2B27B542270404B1B78934229D034
:1035600001243BF071FE002839D03BF081FE0206B9
:10357000C3B2E4D5F02B4FD0327836492AB1F72BBD
:1035800045D0EF2B40D800223270334C2B700022F4
:103590000121DF2B21706A70AA70DFF8A88016D88D
:1035A000C02B1AD2802B14D201232C490122934222
:1035B0000B70D5D1FFF7EEFE98F800300122EF2B0B
:1035C0002270CDD900232B70CAE72278C4E7EF2BF5
:1035D000EAD8224B03221A70C2E70223E5E70CBBAC
:1035E0001F4D2B6883B11F4A12680192019A9342C2
:1035F0000AD21D4B214618783BF072F91B4B21462D
:1036000018783BF06DF92C6002B0BDE8F081002322
:103610000B7002B0BDE8F0810E4B01221A7002B0AF
:10362000BDE8F081104B012118783BF059F90D4BA2
:103630000B4A1B680093009B32331360E4E700BF22
:10364000992AFF1FA02AFF1F0767FF1F0567FF1F9B
:103650000467FF1F9F2AFF1F982AFF1F8C11FF1F5F
:10366000942AFF1F7063FF1F9927FF1FA927FF1FC1
:103670000667FF1FF8B50A4C0A4DA37827786678CD
:10368000AB706170A27020702F706E70FFF782FEB9
:1036900029786A78AB7821706270A370F8BD00BF9A
:1036A000A02AFF1F9C2AFF1F00B5F83883B004280A
:1036B0000BD8DFE800F0290A032119004FF60F208C
:1036C0003CF020FDFA203BF001FD134B012118785E
:1036D0003BF006F9114B124A1B680193019B013321
:1036E000136003B05DF804FB4FF60F403CF00AFD99
:1036F000FC203BF0EBFCE8E74FF60F303CF002FD1E
:10370000FB203BF0E3FCE0E74FF60F003CF0FAFC57
:10371000F8203BF0DBFCD8E7A927FF1F7063FF1FF1
:10372000942AFF1F70B5114D114C2878114E0121BC
:103730003BF0EAF8207801213BF0E6F828780E4DBE
:1037400000213BF0CDF8207800213BF0C9F80B4A6E
:103750000B480023012447F6122133702B7014709C
:1037600039F006FCBDE87040FFF7A0BD9927FF1FA8
:10377000A927FF1F982AFF1F9F2AFF1F8C11FF1FD9
:10378000CC19FF1FF0B500230D4E0E4D0E4C0F4807
:103790000F49DFF844C01A464FF0640E402701334A
:1037A000102B06F801EF45F804CB04F8017F00F870
:1037B000012F01F8012FF2D1064BFF221A70F0BD44
:1037C000BB2AFF1FDC2AFF1FA72AFF1FCB2AFF1FD0
:1037D0001B2BFF1FB82AFF1FCDCC4C3FFFFFFFFF65
:1037E00038B504460D46C9B107EE901A9FED1A7A16
:1037F000F8EE677AF4EEC77AF1EE10FA1AD49FED7C
:10380000120B3DF069FB12A3D3E9002351EC100B1E
:103810003FF0ECFA3FF0B8FC024600E000220F4B0C
:103820000F4903EB84030D5520461A60BDE838406C
:1038300002F028B917EE900A3FF05AF941EC100B4C
:10384000DFE700BFAFF300800000000000C05F4072
:10385000422E6094726013400000FE42DC2AFF1F7B
:10386000BC2AFF1F10B4064A145C8C4204D01154C9
:103870005DF8044B02F068B95DF8044B704700BF77
:10388000A82AFF1F034B195401B97047012102F008
:1038900063B800BFCC2AFF1FF8B5104E104D307032
:1038A0000024034627460FE0834214BF0123002370
:1038B0004FF001012B7001D002F04EF80134102CB2
:1038C00005F1010509D03378FF2BE0B2ECD10134CA
:1038D000102C2F7005F10105F5D1F8BDB82AFF1F96
:1038E000CC2AFF1F014B185C704700BFBC2AFF1F8A
:1038F000024B03EB800090ED000A7047DC2AFF1FAB
:10390000014B185C704700BFA82AFF1F034B185CCF
:103910004F288CBF00200120704700BFA82AFF1F3E
:10392000034B185C2F2894BF00200120704700BF74
:10393000A82AFF1F014B185C704700BFCC2AFF1F4D
:10394000034B1B78181AB0FA80F04009704700BF8B
:10395000B82AFF1F014B1878704700BFB82AFF1F15
:10396000024A135C01331354704700BF1C2BFF1F26
:10397000034A135C013B23EAE3731354704700BF0F
:103980001C2BFF1F014B00221A5470471C2BFF1FDA
:10399000014B185C704700BF1C2BFF1F054B185CC8
:1039A0004F2804D82F2894BF002001207047022000
:1039B000704700BFA82AFF1F30B4084C002004F154
:1039C00010052246111B12F8013B003318BF0123DA
:1039D0008B40AA421844F5D130BC70471C2BFF1F06
:1039E000F8B5204C204F2078204E214D01213AF08F
:1039F0008BFF387801213AF087FF307801213AF0C7
:103A000083FF287801213AF07FFF1A4B01211878B3
:103A10003AF07AFF207800213AF062FF38780021EE
:103A20003AF05EFF307800213AF05AFF2878012101
:103A30003AF056FF207800213AF052FFFDF732FFAE
:103A40000D4B002814BF012200221A7004D10B482C
:103A5000BDE8F84031F0B6BE0948BDE8F84031F0A5
:103A6000B1BE00BF9A27FF1F9B27FF1F9F27FF1F85
:103A70009827FF1FAD27FF1F7D2DFF1F4819FF1F30
:103A80008819FF1F952811D8802855D235281FD8AE
:103A900020284BD2042844D036D905285DD00828E8
:103AA00056D106200C23087013707047BD2859D0DA
:103AB0001CD8A0284CD3A82859D9A0F1B003082BB2
:103AC00046D800F00F00093005230B7010707047C6
:103AD00040283DD3552835D9A0F16003152B37D8A0
:103AE00000F01F0002230B7010707047C0282FD306
:103AF000C82810D9A0F1E003152B29D800F01F0029
:103B000004230B7010707047012821D1062009236F
:103B100008701370704700F00F0006230B701070D0
:103B2000704706200A2308701370704700F01F00CA
:103B300000230B701070704700F01F0003230B7000
:103B40001070704700F01F0001230B701070704759
:103B500006200F2308701370704706200B2308708F
:103B60001370704706200D2308701370704700F023
:103B70000F0005230B701070704700BF2DE9F04156
:103B800082B00D468046144608460DF107020DF13D
:103B90000601FFF777FF9DF806309DF80710062B0A
:103BA0006FD003EB43039322374E3848384F0078E9
:103BB000C3EBC30302FB08333344364E5C54C8F3F3
:103BC00040013AF08DFE344B08F0010118783AF0CC
:103BD00087FE387800213AF083FE3378002B3CD002
:103BE0002E4B1A684FF00043D3625563D36A002B03
:103BF000FCDA2B4D936B287800214FF4F0783AF0E3
:103C00006FFE4346013BFDD1012128783AF068FE62
:103C1000B8F10108FCD1012138783AF061FE33781F
:103C20002BB31E4B1A684FF00043D3625463D36A20
:103C3000002BFCDA2878936B00214FF4F0743AF0F3
:103C40004FFE2346013BFDD1012128783AF048FE82
:103C5000013CFDD102B0BDE8F081124B1A684FF073
:103C60000043D3625563D36A002BFCDAC1E70D4BE6
:103C70001A684FF00043D3625463D36A002BFCDA16
:103C8000D8E70F298DD1E5E7302BFF1F9F27FF1FB6
:103C90009A27FF1F7D2DFF1F9B27FF1F8819FF1FDE
:103CA0009827FF1F4819FF1F2DE9F0472D4B2E4F76
:103CB0002E4DDFF8C490A3FB00235B0803EBC30287
:103CC0002DED028B821A08462B700E46F0EE408ACC
:103CD0003A7000F0BBFF0230C0B2254B9FED258A41
:103CE00013F800804FF0000A5FFA8AF4214601229F
:103CF000304600F0CDFD48FA0AF1C34311F0010F40
:103D0000024603F03F03287804F0010414D007EEC4
:103D1000903AF8EEE77A02F0C00287EE887A68EE11
:103D2000C77AB0EE487AA7EE887AFCEEC77A17EE2B
:103D3000903A52FA83F2D2B23B78BAF1010F09EB12
:103D4000C40188BF03330C440AF1010AE15C40312D
:103D5000C9B2FFF713FFBAF1040FC5D1BDEC028B56
:103D6000BDE8F087398EE3382C2BFF1F7C2DFF1F19
:103D70000493040000007C4244930400F8B5274FEC
:103D8000397000283DD1002600252A4606E03F3C38
:103D9000152C05F101058CBF00223F22ECB2214613
:103DA0003046FFF7EBFEFE2DF1D10136F6B2042EC0
:103DB000EAD13A78012A8CBF002201220521012094
:103DC000FFF7DCFE3A78012A8CBF00220122052190
:103DD0000320FFF7D3FE402208210120FFF7CEFE8B
:103DE000402208210320FFF7C9FEC022BD21012087
:103DF000FFF7C4FEC022BD210320BDE8F840FFF755
:103E0000BDBE074C002120783AF06AFD01203AF04F
:103E1000A5FD207801213AF063FDB4E77E2DFF1F58
:103E2000AD27FF1F2DE9F047374C384F384EDFF8EC
:103E3000F090A4FB003464082DED028B04EBC40366
:103E4000C01AC3B282B0A3F14000E4B2154688465E
:103E50000DF107020DF10601C0B23B703470F0EEB7
:103E6000408AFFF70FFE9DF806302A4A9FED2A8A06
:103E700003EB43039321C3EBC30301FB043313445C
:103E80009DF80710254A5B5C03F001036D0012F8F2
:103E900003A0EDB200242919C9B20122404600F066
:103EA000F7FC4AFA04FEC34304EBC4011EF0010F01
:103EB000024603F03F0397F800C03078494404F10C
:103EC000010414D007EE903AF8EEE77A02F0C0024F
:103ED00087EE887A68EEC77AB0EE487AA7EE887ADD
:103EE000FCEEC77A17EE903A52FA83F2D2B211F88A
:103EF0000C104031C9B2FFF741FE022CCBD102B009
:103F0000BDEC028BBDE8F087398EE3382C2BFF1F08
:103F10007C2DFF1F302BFF1F00007C420493040008
:103F200044930400F0B583B005460E461446084697
:103F30000DF107020DF106011F46FFF7A3FD9DF8E5
:103F400006100B4A9DF8070001EB41019323C1EBDA
:103F5000C10103FB0511114424EA07020B5C1F4059
:103F6000314628463A43FFF709FE03B0F0BD00BFD3
:103F7000302BFF1F2DE9F04F314BDFF8CC80314F54
:103F8000DFF8C890A3FB00435B0803EBC304001BEE
:103F900083B08A46C1B2D8B2019288F80010387056
:103FA00055460026F400A31909EB030BAA781BF869
:103FB00001102031C9B2FFF7E1FD019B002B34D184
:103FC00034444C4498F800302A79E15C3878603108
:103FD000C9B2FFF7D3FD98F800306A79E15C387810
:103FE00081F08001FFF7CAFD98F80030AA79E15C02
:103FF000387820390136C9B2FFF7C0FD022E05F12D
:10400000050504D00F4B18780F4B1978CAE70E4BF3
:104010009AF8012019780B4B40391878C9B2F0236F
:1040200003B0BDE8F04FFFF77DBF98F80010EA78C5
:104030001BF8011038784031C9B2FFF79FFDBFE788
:10404000398EE3387C2DFF1F2C2BFF1F4493040077
:10405000F8B5B5EE400AF1EE10FA2DED028B0446EC
:104060000D4625D15E2941DD87251E22564B574F2F
:10407000574EA3FB04135B0803EBC30ECEEB040403
:104080005FFA84FEAEF15001DCB22046C9B2E023F3
:1040900087F800E03470FFF745FFBDEC028B3978FC
:1040A000307860392A46C9B2BDE8F840FFF766BDEE
:1040B000B5EEC00AF1EE10FAB0EE408A10EE100A2A
:1040C00058DB3EF015FD41EC100B3CF015FE51ECB9
:1040D000100B3FF011F805445E2D1EDC002D54DC62
:1040E0004FF4AB752946002201231BE000295FD065
:1040F000384A394BA2FB0512D20802EB4201A5EB6C
:104100008105EDB20135920053F8255002F01C02F2
:10411000C5F301231A44EDB2A8E740F287252946EA
:104120001C220C2307EE900AF8EEE77A38EE678A35
:10413000B5EE408AF1EE10FA17D0B5EEC08AF1EE76
:1041400010FA38DD0133244850F823305B1A07EEAB
:10415000103A07EE905AB8EEC77AF8EEE77AE8EE32
:10416000077AFDEEE77A17EE905AC5F301231A4459
:10417000EDB27BE73EF0BCFC41EC100B3CF02CFDBB
:1041800051EC100B3EF0B8FFA5E7124A1249EDB210
:10419000A2FB0532D20802EB4203A5EB83056B1CA0
:1041A000DBB2920051F8231002F01C020D46B9E771
:1041B000562501225AE7013B074850F82330CB1A15
:1041C00007EE103AC5E700BF398EE3382C2BFF1FEE
:1041D0007C2DFF1FABAAAAAA0C9304000C4BA3FBD7
:1041E0000023F0B45B0803EBC3050A4F0A4E401BE3
:1041F000C5B2DCB200293D70A5F1500120463470F3
:10420000C9B214BF20220022DF23F0BCFFF78ABE10
:10421000398EE3382C2BFF1F7C2DFF1F1D4BA3FB7A
:1042200000235B082DE9F04103EBC304001B1A4E89
:104230001A4DC4B2D8B23470287041B90A46A4F1FC
:104240005001C9B21F23BDE8F041FFF76BBE144F08
:10425000395D4031C9B2C0233F22FFF763FE327897
:1042600028783A44C023517A4031C9B23F22FFF73F
:1042700059FE317828785039C9B20022FFF77EFC08
:10428000317828786039C9B20022BDE8F041FFF7E3
:1042900075BC00BF398EE3382C2BFF1F7C2DFF1F10
:1042A000449304000C4BA3FB00239B0803EB430344
:1042B000A0EB43030122DBB202FA03F30628DAB2D1
:1042C0006FEA020334BF012003200029DBB208BFDC
:1042D00000220421FFF726BEABAAAAAA114B1B7825
:1042E000012B00D97047104BF0B4A3FB00435B08CF
:1042F00003EBC305401B00290C4F0D4EC5B214BF84
:1043000010200020002ADCB2A5F1400114BF2022B9
:1043100000223D70024434702046C9B2CF23F0BC65
:10432000FFF700BE7E2DFF1F398EE3382C2BFF1FB9
:104330007C2DFF1F2DE9F04F002490F800E090F84D
:104340000190544E544D34708FB02246DF23B0217B
:10435000074620460EEB09292C70FFF7E3FD4F4B73
:1043600022461B78019305210120FFF707FC4C4BE7
:104370005A7D0D9293F82A200C9293F83F200B92CD
:1043800093F854200A92DA7809921A7E089293F8E8
:104390002D20079293F84220069293F85720059219
:1043A00093F8692093F800B00492B9F1010F93F8E3
:1043B000722093F87E30039202931EDD02244FF0A8
:1043C00003083B5D3D19661C8BB15E1EF6B204F11D
:1043D000030A18FB06AABA44EA78A9786878033574
:1043E000FFF7CCFBAA45F7D1043418FB0646741C32
:1043F000B85D3AF0B3FAA145E3DA019B012B8CBF1B
:104400000022012205210120FFF7B8FB5A46202196
:104410000020FFF7B3FB0D9A40210020FFF7AEFB11
:104420000C9A60210020FFF7A9FB0B9A8021002045
:10443000FFF7A4FB0A9AE0210020FFF79FFB099AEF
:1044400023210020FFF79AFB089A43210020FFF761
:1044500095FB079A63210020FFF790FB069A8321C2
:104460000020FFF78BFB059AE3210020FFF786FB76
:10447000029AC0210020FFF781FB049AA0210020AE
:10448000FFF77CFB039AB02100200FB0BDE8F04F8E
:10449000FFF774BB7C2DFF1F2C2BFF1F7E2DFF1FF2
:1044A000302BFF1F2DE9F04F404C414F414E424D04
:1044B000DFF808A1A4FB0034640804EBC403C01AAD
:1044C000C3B283B0F85C3370E4B280F080000DF1C9
:1044D000070288460DF106012C70FFF7D3FA9DF80C
:1044E000063032789DF807E095F800903A4403EBE7
:1044F00043034FF0930BC3EBC303507A0BFB04331E
:1045000053440DF107020DF1060180F0800013F80D
:104510000E40FFF7B7FA9DF806209DF8071002EB52
:104520004202C2EBC2020BFB0922924404F00F04C8
:104530001AF8012002F00F03A342A8BF23465BB183
:10454000013BDBB24FF4005242FA03F3984507DA1D
:10455000002003B0BDE8F08F4FF400539845F7DB1F
:1045600033782878F95C4031C9B2C0233F22FFF785
:10457000D9FC337828781F443F22797A4031C02310
:10458000C9B2FFF7CFFC317828785039C9B2002280
:10459000FFF7F4FA317828786039C9B20022FFF7C2
:1045A000EDFA012003B0BDE8F08F00BF398EE3388B
:1045B000449304002C2BFF1F7C2DFF1F302BFF1F6B
:1045C000014B1878704700BF7E2DFF1F034B1878F2
:1045D00001288CBF00200120704700BF7E2DFF1FE7
:1045E00010B50446806920B10C2139F067FE002324
:1045F000A361E06910B10C2139F060FE204610BDC6
:10460000F0B585B005462549684638F047FF6E1C71
:10461000002405E001342020102C06F8010F0BD0F7
:10462000029B9C42F6D22146684639F0B1F801342B
:10463000102C06F8010FF3D16846002438F0EEFE86
:104640003F272146F02612E0906918448170906956
:104650001844C770906918440171906918444671F4
:104660009069034499719369597093691970EB6962
:10467000E0B2002B18BF4FF0040E00F0010308BF9A
:104680004FF0020E42084FEA830C704505EB8202A0
:10469000634404F10104D7D305B0F0BDD8D50400BC
:1046A000007870470170704710B50231044638F049
:1046B000F5FE204610BD00BF70B50E46451C002417
:1046C00005E001342020102C05F8010F0BD0B36851
:1046D0009C42F6D22146304639F05AF80134102C6B
:1046E00005F8010FF3D170BDC069003018BF01207B
:1046F000704700BF0078C009704700BF2DE9F04740
:10470000334E344FC46996F800C097F800800022F9
:104710009246114615461EE01B791B0918BF45F04D
:1047200001056346BEF1010F94BF4FF000084FF042
:10473000010808F1060E03EB830350F82EE07344E2
:1047400002335B784FF0010A03F03F033E2B98BF22
:1047500041F0010152445FFA82FEC4B1BEF1030F81
:1047600027D80EF0010C04EB8C03BEF1010F63445B
:10477000D2D883690EEB8E0C9C4473469CF804C01F
:104780005FEA1C1C18BF45F00105F446CAE7BEF1FC
:10479000010F0EEB8E090CD883694B440233F446AB
:1047A00093F802E05FEA1E1E18BF45F00105A0461F
:1047B000C7E7BAF1000F05D1002D14BF084600204D
:1047C000BDE8F08787F8008086F800C0F4E700BFF6
:1047D0007F2DFF1F802DFF1FC369002B14BF0420F6
:1047E000022070474078704743788B420ED070B5F6
:1047F00004460D46617011B1C56945B170BDC0690F
:10480000A0B10C2139F05AFDE56170BD70470C2054
:1048100039F050FD294606460C223FF0EFF8B01C57
:104820000A22034939F0DAFBE66170BD70BD00BFB2
:10483000589304002DE9F041144F002504460E461C
:10484000904607F10C0145701122023039F0C6FB89
:10485000002363612670A561E5610C2039F02AFD13
:10486000294606460C223FF0C9F80A223946B01CF8
:1048700039F0B4FB41462046A661FFF7B5FF20465C
:10488000FFF7BEFE2046BDE8F08100BF589304004C
:10489000052A17D0C36930B4D3B1012994BF0024CD
:1048A00001242346063301F0010150F82330094D5D
:1048B0000948297003EB810319441144047030BC8A
:1048C000887870474908063150F821305878704789
:1048D0001C46E7E77F2DFF1F802DFF1FC3692BB10B
:1048E00001F00101063150F82100704719460631E8
:1048F00050F82100704700BF4378012B0BD041B91D
:10490000063150F821301878030600D4704780280B
:1049100004D10020704701F00101F1E7A0F580709B
:10492000704700BF90ED050A704700BFC36910B41F
:10493000ABB1012994BF0022012213460633094C72
:1049400050F82300084B01F0010121708C00214434
:1049500001441A7088785DF8044BC00970471A4604
:10496000ECE700BF7F2DFF1F802DFF1FC36910B430
:10497000B3B1012994BF0022012213460633094C2A
:1049800050F82300084B01F0010121708C002144F4
:1049900001441A7088785DF8044BC0F380107047AA
:1049A0001A46EBE77F2DFF1F802DFF1FC36910B450
:1049B000B3B1012994BF0022012213460633094CEA
:1049C00050F82300084B01F0010121708C002144B4
:1049D00001441A7088785DF8044BC0F340107047AA
:1049E0001A46EBE77F2DFF1F802DFF1FC36910B410
:1049F000B3B1012994BF0022012213460633094CAA
:104A000050F82300084B01F0010121708C00214473
:104A100001441A7088785DF8044BC0F300107047A9
:104A20001A46EBE77F2DFF1F802DFF1FC36910B4CF
:104A3000B3B1012994BF0022012213460633094C69
:104A400050F82300084B01F0010121708C00214433
:104A500001441A7088785DF8044B00F00F0070472D
:104A60001A46EBE77F2DFF1F802DFF1FC36910B48F
:104A7000ABB1012994BF0022012213460633094C31
:104A800050F82300084B01F0010121708C002144F3
:104A900001441A70C8785DF8044B800970471A46C3
:104AA000ECE700BF7F2DFF1F802DFF1FC36910B4EF
:104AB000B3B1012994BF0022012213460633094CE9
:104AC00050F82300084B01F0010121708C002144B3
:104AD00001441A70C8785DF8044B00F03F0070473D
:104AE0001A46EBE77F2DFF1F802DFF1FC36910B40F
:104AF000ABB1012994BF0022012213460633094CB1
:104B000050F82300084B01F0010121708C00214472
:104B100001441A7008795DF8044B000970471A4681
:104B2000ECE700BF7F2DFF1F802DFF1FC36910B46E
:104B3000B3B1012994BF0022012213460633094C68
:104B400050F82300084B01F0010121708C00214432
:104B500001441A7008795DF8044B00F00F007047AB
:104B60001A46EBE77F2DFF1F802DFF1FC36910B48E
:104B7000ABB1012994BF0022012213460633094C30
:104B800050F82300084B01F0010121708C002144F2
:104B900001441A7048795DF8044B000970471A46C1
:104BA000ECE700BF7F2DFF1F802DFF1FC36910B4EE
:104BB000B3B1012994BF0022012213460633094CE8
:104BC00050F82300084B01F0010121708C002144B2
:104BD00001441A7048795DF8044B00F00F007047EB
:104BE0001A46EBE77F2DFF1F802DFF1FC36910B40E
:104BF000B3B1012994BF0022012213460633094CA8
:104C000050F82300084B01F0010121708C00214471
:104C100001441A7088795DF8044B00F00700704772
:104C20001A46EBE77F2DFF1F802DFF1FC36903B1DD
:104C300001B9836958784008704700BFC36903B160
:104C400001B98369587800F001007047C3694BB11E
:104C500082695B7850785B0003F0020300F001008A
:104C6000184470478369587800F00100704700BF0E
:104C70001AB14378012B0DD0704790F90030002B0A
:104C800043781CDB5E2925DD012B2FD083695F2152
:104C90001970704790F90030002B24DB5E2925DC69
:104CA0006FF05E039942B8BF194602F00102063266
:104CB000002950F822301EDDC9B219707047012B4F
:104CC00011D006325E2950F82230E0DC0029F3DCF6
:104CD0000021DDE711F15E0F0FDA012B08D08369A7
:104CE000A1211970704702F00102EAE75F21DCE7B9
:104CF0006FF05E01D9E7CBD0DEE7012BD7D1D4E747
:104D0000F0EE007AB4EEE70AF1EE10FA08D5F8EE0C
:104D1000007AB4EEE70AF1EE10FA88BFF0EE407ABE
:104D2000C0ED057A704700BF10B4C369C2B183B348
:104D3000012994BF0022012213460633174C50F874
:104D40002300174B01F0010121708C002144014424
:104D50001A708B7863F07F038B705DF8044B70479B
:104D6000CBB1012994BF00220122134606330B4C1C
:104D700050F823000A4B01F0010121708C002144FE
:104D800001441A708B7803F07F038B705DF8044B3D
:104D900070471A46D1E71A46E8E700BF7F2DFF1F8C
:104DA000802DFF1F10B4C369C2B183B3012994BF22
:104DB0000022012213460633174C50F82300174BEC
:104DC00001F0010121708C00214401441A708B789C
:104DD00043F040038B705DF8044B7047CBB1012961
:104DE00094BF00220122134606330B4C50F82300D7
:104DF0000A4B01F0010121708C00214401441A701A
:104E00008B7823F040038B705DF8044B70471A4693
:104E1000D1E71A46E8E700BF7F2DFF1F802DFF1F57
:104E200010B4C369C2B183B3012994BF0022012227
:104E300013460633174C50F82300174B01F00101BD
:104E400021708C00214401441A708B7843F02003B8
:104E50008B705DF8044B7047CBB1012994BF0022E1
:104E60000122134606330B4C50F823000A4B01F085
:104E7000010121708C00214401441A708B7823F0C9
:104E800020038B705DF8044B70471A46D1E71A4631
:104E9000E8E700BF7F2DFF1F802DFF1F10B4C369FF
:104EA000C2B183B3012994BF002201221346063305
:104EB000174C50F82300174B01F0010121708C00B2
:104EC000214401441A708B7843F010038B705DF815
:104ED000044B7047CBB1012994BF00220122134635
:104EE00006330B4C50F823000A4B01F001012170EE
:104EF0008C00214401441A708B7823F010038B70CE
:104F00005DF8044B70471A46D1E71A46E8E700BF40
:104F10007F2DFF1F802DFF1FC36910B4FBB1012936
:104F200014D901F0010103EB810312480B44017015
:104F30000233012110480170197802F00F0221F0AC
:104F40000F010A441A705DF8044B704784690948E0
:104F500001EB81032344023301700021EAE701F0F1
:104F60000101846903488B000B4423440233017020
:104F7000F3E700BF7F2DFF1F802DFF1FC36910B413
:104F8000F3B1012913D901F00101124803EB8103A8
:104F90000B4401700233012059780F4C01F03F019E
:104FA00001EB82125A7020705DF8044B70478469DF
:104FB000084801EB81032344023301700020EBE732
:104FC00001F00101846903488B000B442344023340
:104FD0000170F3E77F2DFF1F802DFF1FC36910B401
:104FE000FBB1012914D901F00101134803EB81033E
:104FF0000B440170023301205978104C02F03F023B
:1050000021F03F010A445A7020705DF8044B70474C
:105010008469094801EB81032344023301700020B5
:10502000EAE701F00101846903488B000B44234443
:1050300002330170F3E700BF7F2DFF1F802DFF1F9C
:10504000C36910B4F3B1012913D901F00101124869
:1050500003EB81030B4401700233012099780F4C5C
:1050600001F00F0101EB02129A7020705DF8044B01
:1050700070478469084801EB8103234402330170BF
:105080000020EBE701F00101846903488B000B4429
:10509000234402330170F3E77F2DFF1F802DFF1F94
:1050A000C36910B4FBB1012914D901F001011348FF
:1050B00003EB81030B440170023301209978104CFB
:1050C00002F00F0221F00F010A449A7020705DF87F
:1050D000044B70478469094801EB81032344023380
:1050E00001700020EAE701F00101846903488B00A8
:1050F0000B44234402330170F3E700BF7F2DFF1FF1
:10510000802DFF1FC36910B4F3B1012913D901F039
:105110000101124803EB81030B44017002330120AB
:10512000D9780F4C01F00F0101EB0212DA702070F8
:105130005DF8044B70478469084801EB8103234400
:10514000023301700020EBE701F00101846903489C
:105150008B000B44234402330170F3E77F2DFF1FC4
:10516000802DFF1FC36910B4FBB1012914D901F0D0
:105170000101134803EB81030B440170023301204A
:10518000D978104C02F00F0221F00F010A44DA70B6
:1051900020705DF8044B70478469094801EB810376
:1051A0002344023301700020EAE701F00101846921
:1051B00003488B000B44234402330170F3E700BF24
:1051C0007F2DFF1F802DFF1FC36930B4ABB10129B4
:1051D00094BF0024012423460633094D50F82300D0
:1051E000084B01F0010129708D002944014402F0AF
:1051F00007028A711C7030BC70471C46ECE700BF88
:105200007F2DFF1F802DFF1FC3694BB141B159781E
:10521000520002F00E0201F001010A445A70704778
:105220008369F4E7C3693AB103B101B983695A7874
:1052300042F001025A70704703B101B983695A788C
:1052400022F001025A7070478269537811F0010F01
:1052500014BF43F0010323F001035370C3692BB162
:1052600089075A7803D422F001025A70704742F03D
:1052700001025A70704700BF2DE9F04F47B28BB062
:10528000064620200C4639F015F8002F054653DB62
:10529000002C0CBF0222002231462846FFF7CAFA32
:1052A000514A00238DF8243002EB061205AB09A801
:1052B00012F8011B03F8011B8342F9D105A901A8CB
:1052C00038F0ECF801A92846FFF7F6F901A838F004
:1052D000A5F8002F7EDB8CB300212846FFF7FEFAED
:1052E000424B53F826800746002298F800102846C3
:1052F000FFF7BEFC4446781C08F10501BA1D0023E7
:1053000014F8016F00F8016F013311F8016F02F812
:10531000016F042BF4D198F80A3003F00703BB7136
:1053200098F80A30C3F30213FB7298F805307B70CB
:1053300028460BB0BDE8F08F0022ADE72146284695
:10534000FFF7CCFA012180462846FFF7C7FA284B21
:1053500053F826600746224631782846FFF788FC36
:10536000B24606F1050906F10A0C06F10F0E08F126
:10537000010008F106017A1CBB1D1AF801BF00F8F4
:1053800001BF19F801BF01F801BF1CF801BF02F805
:1053900001BF01341EF801BF03F801BF042CECD19A
:1053A000B37A03F0070388F80630B37AC3F3021325
:1053B00088F80B30737988F80130337D1B11BB718D
:1053C000337D03F00F03FB72F37B7B7028460BB039
:1053D000BDE8F08F00212846FFF780FA803E054B9C
:1053E000074653F826807FE778930400A8A50400B9
:1053F00004B5040030A104002DE9F04700218246E5
:105400002F202CF0FDF8244EC0F3400906F52F782C
:105410003446002754F8045F3DB12846FFF7E0F812
:105420002846202138F04AFF27604445F2D1BAF1DE
:10543000000F26D15446202038F03CFFE1B2002274
:1054400001340546FFF7F6F9AF2C46F8045FF2D1B8
:10545000124D002402E00134102C0ED055F8043F08
:10546000002BF8D1092C0CBF802000204946FFF703
:1054700003FF0134102C2860F0D1BDE8F047FDF7A0
:1054800015BF0024E0B24946FFF7F6FE0134AF2C09
:1054900046F8040FF6D1DBE7C02DFF1F802DFF1F5C
:1054A000AE28A8BFAE20024B53F82000704700BFC3
:1054B000C42DFF1F014B53F820007047842DFF1FA0
:1054C000024B53F82000FFF7EBB800BF842DFF1FFD
:1054D000F0B50D4691B00446002A00F0A5800B06F9
:1054E00057D4584F584904A8632D98BF394637F010
:1054F000D5FF564BA3FB05235B09642101FB135326
:10550000DBB2092B3FD95249A1FB0331C9086846D8
:105510000A226E4638F008F8314604A838F0CAF876
:105520004B49A1FB0531C90801EB8101A5EB410104
:105530000A220746C9B208A837F0F6FF08A938467C
:1055400038F0B8F8434938F0BDF8434B074653F8F4
:1055500025100CA8FFF7A8F80CA9384638F0AAF8CF
:105560000146204637F0AEFF0CA837F057FF08A8D9
:1055700037F054FF304637F051FF04A837F04EFFA4
:10558000204611B0F0BD394668466E4637F086FFBA
:10559000C2E72E4B81F08007A3FB07235B09642140
:1055A00001FB1373DBB2092B46D92949A1FB033157
:1055B000C90868460A226E4637F0B6FF314608A889
:1055C00037F080FF2249A1FB0731C90801EB8101B7
:1055D000A7EB41010A22C9B204A837F0A5FF04A92C
:1055E00008A838F067F81B4938F06CF81A4B0746E2
:1055F00053F825100CA8FFF757F80CA9384638F0D7
:1056000059F80146204637F05DFF0CA837F006FF39
:1056100004A837F003FF08A837F000FF304637F042
:10562000FDFE204611B0F0BD0B4B53F82110FFF7E3
:105630003BF8204611B0F0BD684602496E4637F08F
:105640002DFFBBE788A2040020EA04001F85EB5170
:10565000CDCCCCCC8CA20400C42DFF1F2DE9F0438F
:10566000064685B0002872D00F4600295FD0FFF7AC
:1056700017F801463846FFF715F83046FFF7B2F83D
:1056800001463846FFF7B0F868463146FFF70CF898
:1056900069463846FFF710F8684637F0BFFE00212C
:1056A0003046FFF729F9002201463846FFF7E0FAB5
:1056B00001213046FFF720F9012201463846FFF765
:1056C000D7FA3046FFF72EF93846FFF719FB304678
:1056D000FFF782F80025ECB2844224D24FEA540945
:1056E00049463046FFF7FAF8494680463846FFF704
:1056F000F5F804F00104A200144498F80130437056
:10570000A31C0734184408EB0402434413F8011B9C
:1057100000F8011B9342F9D13046FFF75DF80135DF
:10572000ECB28442DAD3384605B0BDE8F083FEF728
:10573000B7FF04463046FFF755F80546202038F0FD
:10574000B9FD2A4621460746FFF774F89CE7EBE7C8
:10575000AE290A46044B0549A8BFAE2251F82010D5
:1057600053F82200FFF77ABFC42DFF1F842DFF1FBF
:1057700038B5094C054654F82000FEF791FFAE28D5
:10578000064B54F82510A8BFAE2053F82000BDE802
:105790003840FFF763BF00BF842DFF1FC42DFF1FDC
:1057A000024B53F82000FEF72BBF00BFC42DFF1F94
:1057B000024B53F82000FEF7A1BF00BFC42DFF1F0E
:1057C00008B5044B53F82000FFF70CF8003018BF61
:1057D000012008BDC42DFF1F38B50D4C04F52F75F1
:1057E00060B101E0AC4211D054F8040FFEF7FAFFAB
:1057F0000228F7D1012038BDAC4207D054F8040F7D
:10580000FEF7F0FF0028F7D0012038BD002038BD9A
:10581000C02DFF1F70B5FEF7D3FE1C4B0228187079
:1058200027D0032819D001280BD0194D194C1A483C
:105830001A4A0C23242604212E7023700370117041
:1058400070BD134D134C1448144A0623122602212E
:105850002E7023700370117070BD0D4E0D4D0E48EB
:105860000E4A12230024022133702B700470117031
:1058700070BD074E074D0848084A0923002401213E
:1058800033702B700470117070BD00BF8030FF1F2B
:105890008015FF1F8D11FF1F8215FF1F8115FF1F30
:1058A0002DE9F04FDFF8ACB0274C9BF80030D4F86E
:1058B000008083B08146002B3FD0244F013BDBB2F8
:1058C0001C2404FB0374283407F10C0302E01C338E
:1058D0009C4211D018784845F9D158788842F6D1C1
:1058E00053F8080C4045F2D213F80C5C1C33002D21
:1058F00018BF80469C42EDD10024A24605E0013449
:105900009BF80030E4B2A34217D9C4EBC40607EBFE
:1059100086056B689845F2D120460021FEF75EFCB3
:105920000B4B07F826A01B680193019BAB60013469
:105930009BF80030E4B2A342E7D84846FEF718F8D7
:1059400003B0BDE8F08F00BF8415FF1F9011FF1F4B
:105950007063FF1F8015FF1F2DE9F04FDFF880A057
:105960009AF8003083B0074683B300248B461B4E61
:10597000DFF87090A04605E001349AF80030E4B2F8
:10598000A34223D9E5002B1B06EB8302117BB9420E
:10599000F2D116F823302046594613B99368002BEC
:1059A000EAD0FEF73BFCBBF1000F15D1D9F800306F
:1059B0000193019A2D1B06EB850301349A609AF836
:1059C000003006F82580E4B2A342DBD83846FDF764
:1059D000D9FF03B0BDE8F08F0022EBE79011FF1F65
:1059E0008015FF1F7063FF1F2DE9F0412DED028B25
:1059F000224F3B7893B38046214E002404E00134CB
:105A00003B78E4B2A34229D9E5002B1B06EB8302C5
:105A1000117B4145F3D116F8233013B99368002B5D
:105A2000EDD02B1B06EB83031A7EDAB9404602F059
:105A30006DFB2B1B06EB8303B0EE408A1A7EBAB9CE
:105A40002D1B06EB85052046B0EE480AA97BFEF724
:105A5000FFFA01343B78E4B2A342D5D8BDEC028B07
:105A6000BDE8F0815869FEF7BDFE0128C7D1DDE72A
:105A70005869FEF757FF38EE008AE1E78015FF1FEF
:105A80009011FF1F2DE9F0472DED028B0646FDF723
:105A90002FFF2B4F3046B0EE408A02F045FB3B789B
:105AA00028EE008A002B39D0DFF89880002404E02B
:105AB00001343B78E4B2A34230D9E5002B1B08EB5C
:105AC0008302117BB142F3D118F8233013B99368E4
:105AD000002BEDD0C4EB050A08EB8A0ADAF8149023
